:100000000C94FF050C94CB460C94A0460C947546BA
:100010000C944A490C9429060C9429060C946649C0
:100020000C9429060C9429060C9429060C94290694
:100030000C9429060C94F6460C9429060C94290677
:100040000C9429060C9429060C942B460C94290632
:100050000C94F6450C94CC450C9429060C94290676
:100060000C9429060C9429060C9426480C94290615
:100070000C9429060C9429060C9429060C94290644
:100080000C9429060C9429060C94290600407A1039
:10009000F35A00A0724E18090010A5D4E80000E839
:1000A0007648170000E40B54020000CA9A3B000097
:1000B00000E1F505000080969800000040420F0026
:1000C0000000A08601000000102700000000E803E7
:1000D000000000006400000000000A0000000000B2
:1000E0000100000000002C76D888DC674F0823DF71
:1000F000C1DFAE59E1B1B796E5E3E453C63AE65144
:10010000997696E8E6C28426EB898C9B62ED407C6A
:100110006FFCEFBC9C9F40F2BAA56FA5F490055A06
:100120002AF75C936B6CF9676DC11BFCE0E40D472B
:10013000FEF520E6B500D0ED902E0300943577054E
:100140000080841E080000204E0A000000C80C3306
:100150003333330F986E12831141EF8D2114893B95
:10016000E65516CFFEE6DB18D1844B381BF77C1D15
:10017000901DA4BBE424203284725E228100C9F168
:1001800024ECA1E53D276364696E6F707375785840
:100190005B00446F6E65005363616E6E696E67202D
:1001A000666F72205344492D31322073656E736F30
:1001B00072732E2E2E002020696E707574206D696A
:1001C0006E7574653A20002020696E707574206821
:1001D0006F75723A202020002020696E707574209F
:1001E000796561723A202020002020696E70757454
:1001F000206461793A20202020002020696E7075EB
:1002000074206D6F6E74683A202000456E746572BC
:1002100020746865206461746520616E642074696F
:100220006D6520696E20436F6F7264696E617465DD
:100230006420556E6976657273616C2054696D65D2
:100240002028555443293A200044617461206C6F82
:100250006767696E67206F6E6C79206D6F646500EB
:1002600020202020456E7465722047617465776197
:100270007920726164696F2049443A2000417265B7
:1002800020796F75207573696E67206120476174EE
:10029000657761793F2028792F6E293A20004465DF
:1002A0006661756C7420726164696F2049442061D5
:1002B0006363657074656400526164696F204944CA
:1002C00020757064617465640020456E74657220E9
:1002D0006E657720726164696F2049443A20005747
:1002E0006F756C6420796F75206C696B6520746F15
:1002F000206368616E676520746865207261646957
:100300006F2049442066726F6D20746865206465B3
:100310006661756C742076616C75653F2028792F55
:100320006E293A2000496E76616C696420696E74AA
:10033000657276616C2E20456E746572206D656104
:10034000737572656D656E7420696E746572766121
:100350006C202865766572792031302C2031352C5F
:100360002032302C2033302C206F72203630206D1C
:10037000696E73293A2000456E746572206D65615F
:10038000737572656D656E7420696E7465727661E1
:100390006C202865766572792031302C2031352C1F
:1003A0002032302C2033302C206F72203630206DDC
:1003B000696E73293A200053756363657373004156
:1003C000646472657373206368616E67652066613B
:1003D000696C65640043757272656E742061646453
:1003E000726573733A20002020456E746572206137
:1003F0002050726F6A65637420494420287570200C
:10040000746F203520636861726163746572732C48
:100410002065783A20505341293A20004578697484
:100420000044656275672073746174656D656E74F0
:1004300073206F666600446562756720737461742B
:10044000656D656E7473206F6E005475726E2064F6
:10045000656275672073746174656D656E74732071
:100460006F6E3F2028792F6E293A2000446562750F
:10047000672073746174656D656E7473206F6E00B0
:1004800044656275672073746174656D656E74731D
:10049000206F6666005475726E2064656275672011
:1004A00073746174656D656E7473206F66663F204A
:1004B00028792F6E293A200041726520796F7520C6
:1004C0007375726520796F752077616E7420746F13
:1004D00020657261736520616C6C206461746120B9
:1004E00073746F72656420696E206D656D6F7279CB
:1004F0003F2028792F6E293A2000496E76616C6979
:100500006420696E7075742E2052657475726E6900
:100510006E6720746F206D656E752E00456E746574
:10052000722063686F6963653A2000202074202D73
:100530002D3E205072696E74206C61746573742056
:100540006461746100202061202D2D3E205072696D
:100550006E7420616C6C2074686520646174610045
:100560005072696E74206461746120746F207363CB
:100570007265656E3A200054657374206D65617311
:100580007572656D656E74733A0020202041726546
:1005900020796F75207375726520796F752077618A
:1005A0006E7420746F2065726173653F20456E74B0
:1005B000657220792F6E3A20002020204C61742F24
:1005C0006C6F6E672076616C7565732077696C6CF3
:1005D00020617070656172206173202D393939395D
:1005E000393939393920696E20746865206461743D
:1005F0006120737472696E672E00204552524F520B
:100600003A204C6F6E67697475646520696E636F1C
:10061000727265637421002020204C6F6E676974CC
:100620007564653A2000204552524F523A204C6181
:1006300074697475646520696E636F727265637442
:1006400021002020204C617469747564653A200093
:1006500020202053656C656374206F7074696F6E21
:100660003A200020202030203C2D2D20457261733F
:1006700065204C61742F4C6F6E672076616C7565D8
:10068000730020202031203C2D2D20456E74657292
:10069000204C61742F4C6F6E672076616C756573AA
:1006A00000456E7465722073656E736F72206465A9
:1006B00070746820696E20636D2E20557365202745
:1006C0002B27206F7220272D2720746F20696E64DE
:1006D00069636174652061626F7665206F72206264
:1006E000656C6F7720736F696C20737572666163D8
:1006F000653A00456E74657220636F6E6669677552
:10070000726174696F6E20737472696E673A20004B
:1007100052454D494E4445523A2055736520272B8A
:1007200027206F7220272D2720746F20696E64693F
:10073000636174652061626F7665206F7220626507
:100740006C6F7720736F696C207375726661636577
:1007500020666F72206465707468732100456E7442
:1007600065722063686F6963653A200020202078F5
:1007700020203C2D2D202045786974206D656E75F4
:10078000002020203220203C2D2D20204869646547
:1007900020636F6E66696775726174696F6E206F32
:1007A0007074696F6E73002020206520203C2D2D11
:1007B0002020457261736520616C6C2064617461F6
:1007C000002020206220203C2D2D20205475726EA8
:1007D0002064656275672073746174656D656E74FD
:1007E00073206F6E2F6F6666002020207020203CE3
:1007F0002D2D20205072696E742064617461207404
:100800006F2073637265656E002020206D20203C90
:100810002D2D2020536574206D6561737572656D93
:10082000656E7420696E74657276616C002020209C
:100830007220203C2D2D20204368616E6765204E7C
:100840006F646520726164696F2049440020202034
:100850006720203C2D2D2020456E74657220476155
:10086000746577617920726164696F204944002062
:1008700020206C20203C2D2D2020456E7465722098
:100880006F72206572617365204C61742F4C6F6EBE
:10089000672076616C756573002020206920203CFC
:1008A0002D2D2020456E7465722070726F6A65630D
:1008B00074204944002020206320203C2D2D20203E
:1008C00053657420636C6F636B0020202030202000
:1008D0003C2D2D2020456E74657220636F6E666915
:1008E0006775726174696F6E20737472696E6700E8
:1008F000436F6E66696775726174696F6E204F70C1
:1009000074696F6E733A002020203220203C2D2D18
:1009100020205669657720636F6E6669677572611E
:1009200074696F6E206F7074696F6E730020202081
:100930007420203C2D2D2020546573742073656E27
:10094000736F7273002020206420203C2D2D202006
:10095000456E7465722073656E736F722064657086
:10096000746873002020206120203C2D2D2020431E
:1009700068616E6765205344492D31322073656E7E
:10098000736F7220616464726573736573002020F5
:10099000206E20203C2D2D20205363616E20666F39
:1009A000722064657669636573206F6E20534449D5
:1009B0002D3132206275730053656E736F72206D36
:1009C000656E753A200043757272656E74206261BF
:1009D000747465727920766F6C746167653A202053
:1009E0000043757272656E74206461746520262000
:1009F00074696D653A20004D6561737572656D654A
:100A00006E7420496E74657276616C3A200047619D
:100A1000746577617920526164696F2049443A2096
:100A200000526164696F2049443A20004C61742F80
:100A30006C6F6E673A200050726F6A65637420496C
:100A4000443A20004C6F526120526164696F204625
:100A500072657120284D487A293A200053657269E1
:100A6000616C204E756D6265723A20005665727336
:100A7000696F6E2000536F696C2057617465722036
:100A800044617461204E6574776F726B202D20571E
:100A90006972656C657373205344492D313220446B
:100AA0006174616C6F67676572204E6F64650049A1
:100AB0006E76616C696420726573706F6E73650029
:100AC0004E6F207573657220726573706F6E7365FB
:100AD0000072740092740048940078C400000021F1
:100AE00000240027002A0000002200250028002BF7
:100AF000000000200023002600290002020202025A
:100B000002020204040404040404040303030303B0
:100B100003030301010101010101010102040810A5
:100B200020408001020408102040800102040810C7
:100B300020408001020408102040800000000102D3
:100B400000090A000000000403080700000000007C
:100B500000000000000000000000004552524F520B
:100B60003A204C6F6E67697475646520696E636FB7
:100B7000727265637421004552524F523A204C61A3
:100B800074697475646520696E636F7272656374ED
:100B900021004552524F523A204D697373696E6776
:100BA000202B2F2D206265666F726520646570743E
:100BB0006821004552524F523A20496E76616C6965
:100BC0006420696E74657276616C20286576657242
:100BD000792031302C2031352C2032302C2033300C
:100BE0002C206F72203630206D696E732900707270
:100BF0006F6A65637449443A2000264A975011246D
:100C00001FBECFEFD0E4DEBFCDBF18E0A0E0B1E063
:100C1000ECEBFFEB00E00BBF02C007900D92A83099
:100C2000B107D9F72AE1A8E0B8E001C01D92AD3BB9
:100C3000B207E1F715E0CEEFD5E004C02197FE0141
:100C40000E943157CD3FD107C9F70E94304B0C9419
:100C5000D15F0C9400001092FA0C1092F90C1092D3
:100C6000470F0895089508954F925F926F927F9273
:100C70008F929F92AF92BF92CF92DF92EF92FF92AC
:100C80000F931F930091320F1091330F2091340F67
:100C90003091350FC0902E0FD0902F0FE090300F75
:100CA000F090310F480159018C189D08AE08BF081B
:100CB00026013701401A510A620A730A6017710748
:100CC0008207930728F0640D751D861D971DF6CFCA
:100CD0006C157D058E059F0528F4680D791D8A1D0C
:100CE0009B1DECCF1F910F91FF90EF90DF90CF9065
:100CF000BF90AF909F908F907F906F905F904F903C
:100D00000895BF92CF92DF92EF92FF920F931F93BD
:100D1000CF93DF93EC01B62EC880D980EA80FB80A8
:100D20000091360F1091370F980150E040E0C70155
:100D3000B6010E948255662391F0862F90E09801BB
:100D4000369527958217930700F1081B190BC00EE3
:100D5000D11EE11CF11CC882D982EA82FB82688123
:100D600079818A819B81BB20A9F00E943406688327
:100D700079838A839B83DF91CF911F910F91FF909D
:100D8000EF90DF90CF90BF900895C61AD108E10888
:100D9000F108E1CF0091320F1091330F2091340F01
:100DA0003091350F061717072807390720F70883F2
:100DB00019832A833B83DFCFEBEFFCE0A089B18965
:100DC00082E08C93A485B5851C92A685B78580E1C9
:100DD0008C93108EA489B58986E08C93A289B389FF
:100DE0008C9180618C93A289B3898C9188608C935B
:100DF000A289B3898C9180688C930288F389E02D55
:100E000080818F7D8083089580914A0F90914B0F50
:100E1000DC01ED91FC910484F585E02D0994FF92AD
:100E20000F931F93CF93DF938C01F62ECAE4DFE07C
:100E300088819981DC01ED91FC910488F589E02D90
:100E4000642F099588819981DC01ED91FC910680E0
:100E5000F781E02D4F2DB801DF91CF911F910F91B8
:100E6000FF900994E82FF0E0EE0FFF1FE35FFE4FC5
:100E700071836083813049F0823071F08091690024
:100E8000836080936900E89A0895809169008C607E
:100E900080936900E99A0895809169008063809346
:100EA0006900EA9A0895AF92BF92CF92DF92EF92D3
:100EB000FF920F931F93CF93DF936C017B018B0104
:100EC000040F151FEB015E01AE18BF08C017D10754
:100ED00059F06991D601ED91FC910190F081E02DDE
:100EE000C6010995892B79F7C501DF91CF911F9133
:100EF0000F91FF90EF90DF90CF90BF90AF9008954B
:100F0000FC01538D448D252F30E0842F90E0821B0F
:100F1000930B541718F081509F4F0895019708952F
:100F2000FC01918D828D981759F0A28DAE0FBF2FC5
:100F3000B11D5D968C91928D9F5F928F90E0089588
:100F40008FEF9FEF0895FC01918D828D981731F0FE
:100F5000828DE80FF11D858D90E008958FEF9FEF52
:100F60000895FC01918D828D981B892F90E0089542
:100F70008BEF9CE00E94B10721E0892B09F420E06F
:100F8000822F0895FC01A48DA80FB92FB11DA35E77
:100F9000BE4F9C91848D8F5F848FA689B7899C9367
:100FA000A089B1898C91837080648C93938D848D9A
:100FB000981306C00288F389E02D80818F7D80839D
:100FC00008950F931F93CF93DF93EC0181E0888FF7
:100FD0009B8D8C8D981318C0E889F989808185FFD5
:100FE00013C09FB7F894EE89FF896083E889F98977
:100FF00080818370806480839FBF81E090E0DF9177
:10100000CF911F910F910895062F1B8D1F5F8C8D1F
:1010100081130CC00FB607FCFACFE889F9898081EB
:1010200085FFF5CFCE010E94C207F1CFEB8DEC0F0B
:10103000FD2FF11DE35EFE4F00839FB7F8941B8FD9
:10104000EA89FB8980818062D6CF0F931F93CF936B
:10105000DF938C01D0E0C0E0F801EC0FFD1F64913C
:10106000662341F08BEF9CE00E94E107892B11F091
:101070002196F2CFCE01DF91CF911F910F9108956C
:10108000682F8BEF9CE00C94E107CF93DF93EC018A
:10109000888D8823B9F0AA89BB89E889F9898C9160
:1010A00085FD03C0808186FD0DC00FB607FCF7CF1C
:1010B0008C9185FFF2CF808185FFEDCFCE010E941C
:1010C000C207E9CFDF91CF91089580E090E0892BAE
:1010D00029F00E94B80781110E94000080E090E092
:1010E000892B49F080E090E0892B29F00E940000D4
:1010F00081110C940000089581508A3080F5E82F0A
:10110000F0E0EB57F74F0C94315799089D088F0882
:101110009508AF08AF08A008A608AA08B0088091F3
:1011200080008F77809380000895809180008F7D6C
:10113000F9CF84B58F7784BD089584B58F7DFBCFBB
:101140008091B0008F778093B00008958091B000B7
:101150008F7DF9CF809190008F77809390000895D4
:10116000809190008F7DF9CFCF93DF93282F30E0CF
:10117000F901E55CF44F8491F901E55EF44FD491F7
:10118000F901E550F54FC491CC23A1F081110E94E3
:101190007C08EC2FF0E0EE0FFF1FEF50F54FA5910C
:1011A000B491EC91ED2381E090E009F480E0DF91CF
:1011B000CF91089580E090E0FACF1F93CF93DF9313
:1011C000282F30E0F901E55CF44F8491F901E55EE8
:1011D000F44FD491F901E550F54FC491CC23A9F017
:1011E000162F81110E947C08EC2FF0E0EE0FFF1FFC
:1011F000E951F54FA591B4918FB7F894EC91111185
:1012000008C0D095DE23DC938FBFDF91CF911F9173
:101210000895DE2BF8CFCF93DF9390E0FC01E55EDD
:10122000F44F24918550954FFC0184918823D1F08F
:1012300090E0880F991FFC01E352F54FA591B491FE
:10124000FC01E951F54FC591D49161110EC09FB7D2
:10125000F8948C91E22FE0958E238C932881E223E1
:10126000E8839FBFDF91CF9108958FB7F894EC91F9
:10127000E22BEC938FBFF6CF8851806480937C0083
:1012800080917A00806480937A0080917A0086FD54
:10129000FCCF809178009091790008953FB7F89441
:1012A00080910A0B90910B0BA0910C0BB0910D0B40
:1012B00026B5A89B05C02F3F19F00196A11DB11DB1
:1012C0003FBFBA2FA92F982F8827BC01CD01620FED
:1012D000711D811D911D43E0660F771F881F991FA7
:1012E0004A95D1F708958F929F92AF92BF92CF9275
:1012F000DF92EF92FF926B017C010E944E094B013D
:101300005C01C114D104E104F104B9F00E944E095A
:10131000681979098A099B09683E7340810591051E
:1013200080F321E0C21AD108E108F10888EE880EA6
:1013300083E0981EA11CB11CE4CFFF90EF90DF90DA
:10134000CF90BF90AF909F908F9008952FB7F89453
:101350006091060B7091070B8091080B9091090B1F
:101360002FBF089508958BEF0895CF93DF93FC016D
:10137000228133812230310569F0EC01638D818D4A
:101380000E94DD0860E0888D0E94DD0882E090E028
:101390009B838A83DF91CF910895FF920F931F93D0
:1013A000CF93DF93EC01162FF42E0FB7F89460E083
:1013B0008F890E94DD088D899E89612F6068DC011C
:1013C000ED91FC910190F081E02D0995182F8D8908
:1013D0009E89DC01ED91FC910190F081E02D6F2D53
:1013E000099561E08F890E94DD080FBF812FDF9191
:1013F000CF911F910F91FF9008950F931F93CF935B
:101400008C01C62F44E06DE40E94CD094BEF4C0FD8
:10141000406869E0C801CF911F910F910C94CD09EC
:10142000CF93DF93FC01228133812130310549F0D4
:10143000EC0140E061E00E94CD0981E090E09B83F7
:101440008A8381E0DF91CF910895CF93DF93FC01F0
:10145000228133812230310549F0EC0141E061E025
:101460000E94CD0982E090E09B838A83DF91CF9137
:101470000895CF92DF92EF92FF92CF93DF93EC012A
:10148000CB01BA0120E034E244E759E40E94AE54B3
:1014900020E034E244E752E40E9452560E94C456CF
:1014A0006B017C01A7016627772766E0CE010E94C9
:1014B000CD0977276F2D5E2D4D2D67E0CE010E945F
:1014C000CD094C2D68E0CE010E94CD0981E0DF916D
:1014D000CF91FF90EF90DF90CF900895CF92DF9261
:1014E000EF92FF920F931F93CF93DF934C3F08F03F
:1014F00067C0142F072FF62EEC01E881F9810484D0
:10150000F585E02D0995CE010E94250A40E06DE0A9
:10151000CE010E94CD094A8560E0CE010E94CD092E
:101520004B8560E0CE010E94CD094C8560E0CE0184
:101530000E94CD094D8560E0CE010E94CD09EFB635
:10154000F89460E08F890E94DD088D899E89DC0116
:10155000ED91FC910190F081E02D60E80995CF2C90
:10156000D02E012F015068F08D899E89F60161917E
:101570006F01DC01ED91FC910190F081E02D099566
:10158000F1CF61E08F890E94DD08EFBE44E0410F9A
:1015900062E2CE010E94CD098A819B81039771F09E
:1015A00043E061E0CE010E94CD0940E460E4CE0159
:1015B0000E94CD0983E090E09B838A8381E001C093
:1015C00080E0DF91CF911F910F91FF90EF90DF901E
:1015D000CF900895CF93DF93FC0122813381233094
:1015E0003105C9F0EC0182819381049771F045E0E7
:1015F00061E0CF010E94CD0940E060E4CE010E948D
:10160000CD0984E090E09B838A83C65EDE4F8881AB
:10161000DF91CF91089580E0FBCF0F931F93CF937D
:10162000DF93EC01162F0FB7F89460E08F890E94CA
:10163000DD088D899E89DC01ED91FC910190F0819E
:10164000E02D612F09958D899E89DC01ED91FC913A
:101650000190F081E02D60E00995182F61E08F89FD
:101660000E94DD080FBF812FDF91CF911F910F9155
:101670000895DF92EF92FF920F931F93CF93DF9322
:10168000EC0162E10E940D0B2A813B81243031057F
:10169000A1F4982F907A89F08F8598890196988B7C
:1016A0008F874FEF62E1CE01DF91CF911F910F91B4
:1016B000FF90EF90DF900C94CD092A813B8124307C
:1016C000310511F486FD0DC02A813B81233031059F
:1016D00041F783FFE6CF8B899C8901969C8B8B8B8E
:1016E00067C063E1CE010E940D0B082F60E1CE01BF
:1016F0000E940D0B482F6DE0CE010E94CD09DFB690
:10170000F89460E08F890E94DD088D899E89DC0154
:10171000ED91FC910190F081E02D60E009957E0152
:10172000BBE1EB0EF11C102F115070F08D899E89DA
:10173000DC01ED91FC910190F081E02D60E00995D4
:10174000F70181937F01F0CF61E08F890E94DD086E
:10175000DFBE0A8F4FEF62E1CE010E94CD096AE140
:10176000CE010E940D0B89588E878A8DFE01E65EA0
:10177000FE4F8430C8F08B8D8E838C8D8F838D8D42
:1017800088878E8D89878D81811107C09E818C818C
:10179000981719F08E818F3F39F489899A890196BB
:1017A0009A8B898B81E080838081882309F479CFAB
:1017B000CE010E94250A75CF8091030B9091040BF6
:1017C000009711F00C94390B08958091010B9091C2
:1017D000020B009711F00C94390B08958091FF0AC9
:1017E0009091000B009711F00C94390B0895CF9352
:1017F000DF93EC018D899E89DC01ED91FC910680DF
:10180000F781E02D099561E08F890E940B0961E065
:101810008F890E94DD0864E670E080E090E00E941D
:10182000730981E0DF91CF910895FF920F931F9389
:10183000CF93DF931F92CDB7DEB7F42E0AE41FE0FB
:10184000D8018D919C91DC01ED91FC91008CF18D82
:10185000E02D0995F80180819181DC01ED91FC91E9
:10186000028CF38DE02D40E060E8099581E28983E8
:101870004F2D61E0CE0101960E940F070E940407E0
:101880000F90DF91CF911F910F91FF9008952F92AC
:101890003F924F925F926F927F928F929F92AF9200
:1018A000BF92CF92DF92EF92FF920F931F93CF934D
:1018B000DF938C015B016A0119010E94A6092B01CB
:1018C0003C01F12CE12C0E94A609641975098609D6
:1018D00097096C157D058E059F0508F078C08091ED
:1018E0004A0F90914B0FDC01ED91FC910280F38146
:1018F000E02D0995882339F380914A0F90914B0F81
:10190000DC01ED91FC910480F581E02DA501B80189
:101910000995C82F8823B9F280914A0F90914B0FF7
:10192000DC01ED91FC9100A0F1A1E02D0995D82FEB
:1019300080914A0F90914B0FDC01ED91FC91068C48
:10194000F78DE02D0995882E80914A0F90914B0FCD
:10195000DC01ED91FC9102A0F3A1E02D0995982EF8
:1019600080914A0F90914B0FDC01ED91FC9104A006
:10197000F5A1E02D099587FDA6CFBFEF8B1631F0BD
:101980004D2F692D8AE49FE00E94150CED2FF0E0A9
:10199000E65BF04FDF011B968385891509F493CF31
:1019A000F101D0839C928C2FDF91CF911F910F91E9
:1019B000FF90EF90DF90CF90BF90AF909F908F906F
:1019C0007F906F905F904F903F902F900895C0E070
:1019D000EACF9FB7F8948091FD0A882319F08150CF
:1019E0008093FD0A8091FD0A811105C08CB58F7B23
:1019F0008CBD1092FC0A9FBF08958CB58F778CBD6B
:101A000008958CB580688CBD0895FC017383628352
:101A10000895FC01778366830895FC0175836483D0
:101A20000895089580E00895FC0181850895FC01E2
:101A300080850895FC0187810895FC0186810895C1
:101A40004095FC0125854223642B65870895FC01A0
:101A500064870895FC0163870895FC0162870895F7
:101A6000FC0164830895FC01658308958F929F9221
:101A7000AF92BF92CF92DF92EF92FF92CF93DF931C
:101A8000EC016B010E94A6094B015C01F12CE12CD9
:101A90000E94A609681979098A099B096C157D05B8
:101AA0008E059F0580F48A819B81039789F381E0ED
:101AB000DF91CF91FF90EF90DF90CF90BF90AF90EC
:101AC0009F908F90089580E0F3CFFC0122813381B5
:101AD00023303105D1F381E008958F929F92AF9228
:101AE000BF92CF92DF92EF92FF92CF93DF93EC0100
:101AF0006B010E94A6094B015C01F12CE12C0E94B4
:101B0000A609681979098A099B096C157D058E0556
:101B10009F05A0F4E881F9810280F381E02DCE01D8
:101B20000995882361F3DF91CF91FF90EF90DF90CB
:101B3000CF90BF90AF909F908F90089580E0F3CFAB
:101B4000CF93DF93EC01E881F9810280F381E02DEE
:101B5000CE0109958823B9F3DF91CF91089581E0F3
:101B600008951F93CF93DF93EC01162F88819981FD
:101B7000DC01ED91FC910288F389E02D09958881C3
:101B80009981DC01ED91FC910688F789E02D612FA8
:101B900009951A83DF91CF911F910895CF92DF921B
:101BA000EF92FF920F931F93CF936B017C01142F41
:101BB00080914A0F90914B0FDC01ED91FC910190C7
:101BC000F081E02D0995C82F882309F160914C0F11
:101BD0008AE49FE00E94B10D8CE291E09093530F54
:101BE0008093520F83E08093540F612F8AE49FE02B
:101BF0000E94B10D00914A0F10914B0FB701A60141
:101C0000C8010E94390A61E1C8010E94FD098C2FB8
:101C1000CF911F910F91FF90EF90DF90CF9008959B
:101C20002091D90A260F3327331F21323105ECF4D6
:101C30002091C40CFC0190E080E0243069F082E047
:101C40000895A091D90A2191AC014754554FA40F92
:101C5000B52FB11D2C930196861798F38091D90A60
:101C6000680F6093D90A80E0089581E0089510928A
:101C7000C40C81E08093C30C10929E0C61E081E162
:101C80000E94DD0861E080E10E94DD08E9EBF0E000
:101C900080818E7F808380818D7F808380E28093AE
:101CA000B80085E48093BC0008951092F30C109264
:101CB000F20C1092F10C1092F00C0E94370E82E39D
:101CC00096E09093EF0C8093EE0C83E396E0909374
:101CD000ED0C8093EC0C0895CF93DF9391E09093FB
:101CE000B80A8823B9F0C091B800D091BA008091A9
:101CF000BC008A7B8093BC0060E081E10E94DD082B
:101D000060E080E10E94DD080E94370ED093BA00A7
:101D1000C093B800DF91CF9108958F929F92AF92B8
:101D2000BF92CF92DF92EF92FF920F931F93CF93C8
:101D3000DF93D091F00CD13208F0D7C0182FC091AA
:101D4000EB0C0E944E096B017C018091C40C811147
:101D50006BC082E08093C40C1093C30C8FEF809310
:101D6000C20C1092C10CD093C00CABECBCE0E0EA0A
:101D7000FCE080E0D81391C010929F0C80919F0CE2
:101D8000CC0FC82BC0939F0C80919E0C813009F022
:101D900088C010929E0C0E944E096B017C018091BC
:101DA0009F0C8093BB008091C60C9091C70CA091B2
:101DB000C80CB091C90C892B8A2B8B2BA1F00E94E7
:101DC0004E090091C60C1091C70C2091C80C30919F
:101DD000C90C6C197D098E099F090617170728077A
:101DE000390708F442C08091BC0083FDD8CF85EC50
:101DF0008093BC000E944E096B017C018091C40C51
:101E0000823009F450C08091C20C8F3F09F46FC03A
:101E10008091C20C803209F46CC08091C20C803376
:101E200009F469C084E026C08091C60C9091C70C6B
:101E3000A091C80CB091C90C892B8A2B8B2B09F46B
:101E400084CF0E944E098090C60C9090C70CA09041
:101E5000C80CB090C90C6C197D098E099F098616B3
:101E60009706A806B90608F070CF8091C50C0E94AD
:101E70006C0E85E01092F10C1092F00C1092CA0CCE
:101E8000DF91CF911F910F91FF90EF90DF90CF9056
:101E9000BF90AF909F908F9008959D9191938F5F89
:101EA00069CF85EEA5CF8091C60C9091C70CA0910B
:101EB000C80CB091C90C892B8A2B8B2B09F49ECFAF
:101EC0000E944E090091C60C1091C70C2091C80CBD
:101ED0003091C90C6C197D098E099F0906171707E7
:101EE0002807390708F08ACFC0CF81E0C3CF80E050
:101EF000C1CF82E0BFCF83E0BDCFCF92DF92EF9220
:101F0000FF920F931F93CF93DF93D82FC62F613289
:101F100008F098C00E944E096B017C018091C40CAE
:101F200081116BC081E08093C40C8093C30C9FEF40
:101F30009093C20C1092C10C9C0F9093C00C809394
:101F40009F0C80919F0CDD0FD82BD0939F0C80911C
:101F50009E0C813009F078C010929E0C0E944E09B0
:101F60006B017C0180919F0C8093BB008091C60C1B
:101F70009091C70CA091C80CB091C90C892B8A2BE9
:101F80008B2BA1F00E944E090091C60C1091C70C3A
:101F90002091C80C3091C90C6C197D098E099F09DC
:101FA000061717072807390708F448C08091BC00B6
:101FB00083FDD8CF85EC8093BC000E944E096B0155
:101FC0007C018091C40C813009F440C08091C10C27
:101FD0008C1710F4C091C10CE0EAFCE0AEE7BCE065
:101FE00080E08C1355C08C2FDF91CF911F910F9102
:101FF000FF90EF90DF90CF9008958091C60C909164
:10200000C70CA091C80CB091C90C892B8A2B8B2BC3
:1020100009F484CF0E944E090091C60C1091C70CA0
:102020002091C80C3091C90C6C197D098E099F094B
:10203000061717072807390708F070CF8091C50CDD
:102040000E946C0EC0E0CFCF85EEB5CF8091C60C5C
:102050009091C70CA091C80CB091C90C892B8A2B08
:102060008B2B09F4AECF0E944E090091C60C109143
:10207000C70C2091C80C3091C90C6C197D098E09D0
:102080009F09061717072807390708F09ACFD6CFF8
:1020900091919D938F5FA5CF0895E091F30C80916E
:1020A000F20CE81730F4F0E0E258F34F808190E052
:1020B00008958FEF9FEF08959091F30C8091F20CAB
:1020C0002FEF3FEF981748F4E92FF0E0E258F34F75
:1020D000208130E09F5F9093F30CC90108958091B7
:1020E000F20C9091F30C891B990B0895CF92DF921B
:1020F000EF92FF920F931F93CF93DF937C01CB015D
:102100008A012091CA0C222389F0EB016B01C40ED5
:10211000D51ECC15DD0569F06991D701ED91FC91D3
:102120000190F081E02DC7010995F3CF642F0E9443
:10213000100EC801DF91CF911F910F91FF90EF908A
:10214000DF90CF900895CF93DF931F92CDB7DEB786
:1021500069832091CA0C2223F9F02091F00C2032DF
:1021600058F021E030E0FC013383228390E080E0EE
:102170000F90DF91CF9108958091F10CE82FF0E05E
:10218000E553F34F998190838F5F8093F10C809397
:10219000F00C81E090E0ECCF61E0CE0101960E946E
:1021A000100EF7CFCF93C62F91E09093CA0C98E60C
:1021B0009093EB0C1092F10C1092F00C682F8DEABA
:1021C0009AE10E94A3106C2F8DEA9AE10E94A3105D
:1021D00081E0CF910C948D0ECF93CFB7F89480917E
:1021E000FD0A811127C0EFEFFAE08491EFE1FBE0F7
:1021F0009491E82FF0E0EE0FFF1FE352F54FA59109
:10220000B491EC91E92321F461E084E00E94DD08BF
:1022100061E084E00E940B098CB580618CBD8CB5B7
:1022200080648CBD61E087E00E940B0961E085E07D
:102230000E940B098091FD0A8F5F8093FD0ACFBF3A
:10224000CF910895FC01268137812115310591F147
:102250002130310559F12230310551F1233031055A
:1022600049F52CE09CB5937F922B9CBD8481958190
:10227000019711F58CB580628CBD828193810197A5
:1022800084309105E0F4845B9E4FFC0190818CB515
:102290008C7F292F2370822B8CBD8DB592FB9927C3
:1022A00090F98E7F892B8DBD0C94EC1024E0DACF51
:1022B00028E0D8CF20E0D6CF8CB58F7DDDCF95E05C
:1022C000E6CFCF92DF92EF92FF92CF93DF9360E061
:1022D0008DE10E940B098DE10E943C09B0E0A0E075
:1022E000BC01CD01660F771F881F991F0E944D54B6
:1022F00023E333E343E550E40E94AE5420E030E0B2
:1023000048EC52E40E94AE5420E030E84FEF53E432
:102310000E94E65520E030EC4FE754E40E9452560C
:102320000E94C456CB0164E670E00E940957EB019D
:10233000BC0190E080E00E944D5420E030E048EC89
:1023400052E40E9452566B017C01BE0190E080E095
:102350000E944D549B01AC01C701B6010E94E65595
:10236000DF91CF91FF90EF90DF90CF900895CF92C3
:10237000DF92EF92FF92CF93DF9361E08EE00E94B5
:102380000B0960E088E10E940B0961E08EE00E9489
:10239000DD0884EE93E00197F1F788E10E943C09A3
:1023A000EC0160E08EE00E94DD08BE0190E080E07C
:1023B00022E0660F771F881F991F2A95D1F70E9488
:1023C0004D5423E333E343E550E40E94AE5420E050
:1023D00030E048EC52E40E94AE5420E030EC4FEB89
:1023E00054E40E94E65520E030ED4FE355E40E94AE
:1023F00052560E94C456CB0164E670E00E94095711
:10240000EB01BC0190E080E00E944D5420E030E000
:1024100048EC52E40E9452566B017C01BE0190E0F0
:1024200080E00E944D549B01AC01C701B6010E949F
:10243000E655DF91CF91FF90EF90DF90CF90089518
:102440008BEF9CE00E944508EBEFFCE0A289B3898A
:102450008C918F7E8C93A289B3898C91877F8C938A
:10246000A289B3898C918F778C93A289B3898C913F
:102470008F7D8C93828D818F60E08FE00E94DD08DC
:1024800060E080E00E94DD0860E081E00E94DD08FD
:102490008EE591E10E94100A80B78F7780BFEAE74E
:1024A000F0E080818F778083F89485B7806885BF5E
:1024B00085B7806885BF789483B7817F846083BF48
:1024C00083B7816083BF7894ABE6B0E08C91846081
:1024D0008C93A8E6B0E08C9181608C9383B7816087
:1024E00083BF889583B78E7F83BF80818068808318
:1024F0000E94DC060E94EC1061E080E00E94DD0892
:1025000061E081E00C94DD088091FC0A882361F091
:102510009FB7F8942091FC0A80915808213019F453
:102520008DBB9FBF08958FBF0895CF93DF93EC01BC
:1025300061E088810E94DD080E9484128B818CBD3D
:102540008C818DBDDF91CF9108958EBD00000DB4BB
:1025500007FEFDCF8EB50895862F0C94A51220910D
:10256000FC0A222361F02FB7F8943091FC0A313035
:1025700049F43DB3309358083DB33DBB2FBF8CBDEC
:102580009DBD089520935808FACFCF93DF93EC01B7
:102590008CB58B838DB58C838D819E810E94AF120B
:1025A00060E08881DF91CF910C94DD088F929F923B
:1025B000AF92BF92CF92DF92EF92FF920F931F9351
:1025C000CF93DF934B015C0128E833E140E050E01A
:1025D0000E9482552A31310510F029E130E069016D
:1025E000F12CE12CC501B401A7010E94825589019B
:1025F000D0E0C0E0C017D107C8F4A090180FB09089
:10260000190FC5010E94C51285E00E94A51280E045
:102610000E94A512982EC5010E94951290FE14C02A
:10262000C701B6010E9473092196E4CF80E0DF91D3
:10263000CF911F910F91FF90EF90DF90CF90BF90BF
:10264000AF909F908F90089581E0F1CF0F931F93EB
:10265000CF93DF93EC01162F442339F040E066E07E
:102660000E942613CE010E949512CE010E94C5122F
:1026700085E00E94A51280E00E94A512082FCE01DD
:102680000E94951200FDF1CFCE010E94C512812F4C
:10269000DF91CF911F910F910C94A512FF920F9390
:1026A0001F93CF93DF93162F072FF82E68EE73E05A
:1026B00080E090E00E94D612882301F1C091180FAB
:1026C000D091190F41E060E2CE010E9426138F2DB8
:1026D0000E94A512802F0E94A512812F0E94A51290
:1026E000CE010E94951268EE73E080E090E0DF91E9
:1026F000CF911F910F91FF900C94D61280E0DF9143
:10270000CF911F910F91FF9008952F923F924F927A
:102710005F926F927F928F929F92AF92BF92CF9271
:10272000DF92EF92FF920F931F93CF93DF936C0191
:102730002A013B0119019A01332780E091E0821BB5
:10274000930B912C812C0115110581F1E801801763
:10275000910708F4EC0141E062E0C6010E942613F3
:10276000862D0E94A512852D0E94A512842D0E94FF
:10277000A5125101A80CB91C7501F70181917F01C7
:102780000E94A512C7018A199B098C179D07A8F3FF
:10279000C6010E9495124C0E5D1E611C711C8C0EB0
:1027A0009D1E0C1B1D0B80E091E0CDCFDF91CF91E2
:1027B0001F910F91FF90EF90DF90CF90BF90AF905F
:1027C0009F908F907F906F905F904F903F902F9051
:1027D0000895BF92CF92DF92EF92FF920F931F93D3
:1027E000CF93DF937C01EA01B62E690140E06BE0F4
:1027F0000E9426138B2D0E94A5128D2F0E94A512D8
:102800008C2F0E94A51280E00E94A512E6010C0DFB
:102810001D1DC017D10729F080E00E94A5128993E1
:10282000F8CFC701DF91CF911F910F91FF90EF90EB
:10283000DF90CF90BF900C9495120F931F93CF937E
:10284000DF9300D0CDB7DEB7AB01BC014C5F5F4F6B
:102850006F4F7F4F02E010E09E012F5F3F4F80914E
:10286000180F9091190F0E94E9132091380F3091A1
:10287000390F89819A812817390710F41A82198231
:1028800089819A810F900F90DF91CF911F910F91C5
:102890000895CF92DF92EF92FF926B017C010E942C
:1028A0001D149C01009769F0E091360FF091370FED
:1028B000BF010E940957009721F02E0F3F1F281BD0
:1028C000390BC701B601620F731F811D911DFF9067
:1028D000EF90DF90CF900C9434060F931F93CF931B
:1028E000DF93CDB7DEB760970FB6F894DEBF0FBEAB
:1028F000CDBFAB01BC0100E110E09E012F5F3F4F57
:102900008091180F9091190F0E94E913FE013196E2
:10291000CE01419621912F3F79F4E817F907D1F7BD
:1029200081E060960FB6F894DEBF0FBECDBFDF9199
:10293000CF911F910F91089580E0F3CF4F925F9256
:102940006F927F92AF92BF92CF92DF92EF92FF92FF
:102950000F931F93CF93DF93CDB7DEB72C970FB6AE
:10296000F894DEBF0FBECDBF6B017C015A01FA01A6
:10297000108211821282138204E010E09A01BC01DD
:10298000A6018091180F9091190F0E94E913F5018B
:1029900080819181A281B3818F3F9F4FAF4FBF4F05
:1029A00079F019861A861B861C86C701B6010E941B
:1029B00049142B013C01C414D504E604F70411F4B6
:1029C00080E054C004E010E09E01275F3F4FBC014F
:1029D000A2018091180F9091190F0E94E913498567
:1029E0005A856B857C85F50180819181A281B381B7
:1029F0000196A11DB11D84179507A607B70709F415
:102A000051C04F3F5F4F6F4F7F4FD1F6C301B201AF
:102A10000E946D148823A1F28091360F9091370F98
:102A2000C81AD90AE108F108CD82DE82EF82F88661
:102A3000AE014F5F5F4F6FEFCE0105960E945415B8
:102A4000882349F149815A816B817C814F5F5F4FB7
:102A50006F4F7F4F81E0F501C080D180E280F3802D
:102A60004C155D056E057F0509F0AACF2C960FB6B3
:102A7000F894DEBF0FBECDBFDF91CF911F910F91B4
:102A8000FF90EF90DF90CF90BF90AF907F906F90CE
:102A90005F904F9008956D817E818F8198850E940F
:102AA0006D14E4CF81E0E2CFCF92DF92EF92FF92FC
:102AB0000F931F93CF93DF93EC01D62E7A01688199
:102AC00079818A819B810E946D14CC24C39410E08B
:102AD00000E0882391F08FEF9FEFDC01F701808306
:102AE0009183A283B38380E0DF91CF911F910F91F7
:102AF000FF90EF90DF90CF900895688179818A816F
:102B00009B81A7010E949E148111EECFCC20D9F0A9
:102B100061E0CE010E948106688179818A819B8172
:102B20000E946D14C82E8111D6CF8091380F9091DC
:102B3000390F6091360F7091370F0E940957601757
:102B40007107D8F6C8CF88819981AA81BB8140914D
:102B5000360F5091370F70E060E01D14ACF0841B0D
:102B6000950BA60BB70B88839983AA83BB836881D7
:102B700079818A819B810E943406688379838A8364
:102B80009B830F5F1F4FC8CF840F951FA61FB71FD2
:102B9000EACF2F923F924F925F926F927F928F92E5
:102BA0009F92AF92BF92CF92DF92EF92FF920F93DC
:102BB0001F93CF93DF93CDB7DEB72E970FB6F89460
:102BC000DEBF0FBECDBF8C016D87FC0160817181BE
:102BD000828193810E946D148823C9F0F80180805E
:102BE0009180A280B380FD85F13009F4F5C0809119
:102BF0002E0F90912F0FA091300FB091310F7501D2
:102C00006401C81AD90AEA0AFB0A7D84F3C020913C
:102C1000360F3091370F8091320F9091330FA09182
:102C2000340FB091350F821B930BA109B109F80144
:102C300080839183A283B383AE01475F5F4F6FEFC1
:102C4000C8010E94541581110BC0F8016081718187
:102C5000828193810E946D148111C0CF612C22C1A9
:102C600080912E0F90912F0FA091300FB091310FC6
:102C7000F80180839183A283B383AE014B5F5F4FE2
:102C800061E0C8010E945415F801608171812281C0
:102C90009381811102C0822FDDCF4D805E806F80D5
:102CA00078846B01E22EF92E8090320F9090330FD2
:102CB000A090340FB090350F8C189D08AE08BF0857
:102CC00022E9222E332433948091360F9091370FCE
:102CD000B0E0A0E088159905AA05BB0520F4B694DC
:102CE000A79497948794FFEF3F1252C0C814D90459
:102CF000EA04FB0408F04CC08091320F9091330F2E
:102D0000A091340FB091350F40912E0F50912F0F9D
:102D10006091300F7091310F841B950BA60BB70B90
:102D20008C0D9D1DAE1DBF1D6C017D01C818D908FD
:102D3000EA08FB08F801C082D182E282F38260E0F7
:102D4000C8010E948106F8016081718182819381AE
:102D50000E946D14811142CFAE014F5F5F4F632D12
:102D6000C8010E945415882341F189819A81AB8161
:102D7000BC81F1E03F1219C0481659066A067B066D
:102D800040F52A94222009F469CF2C013D019CCF03
:102D9000A32D032C000CBB0BA50194010E94CE5562
:102DA000C60ED71EE81EF91EC5CF84159505A605CB
:102DB000B70538F333243394E4CFF801608171818F
:102DC000828193810E946D14811108CFD301C201C9
:102DD000D8CF33243A94D5CFC090320FD090330F50
:102DE000E090340FF090350FC818D908EA08FB08B6
:102DF00077247394F2E9FE87F80160817181828102
:102E000093810E946D148111C7C0F8012080318028
:102E100042805380C201B1016627707F99277051AB
:102E2000810991090E9434060E946D14682E88233E
:102E3000E9F0C201B1010E946D14811117C0FD8536
:102E4000F130A1F4F80180819181A281B3818827BA
:102E5000907FBB2780839183A283B383AE014F5FB2
:102E60005F4F61E0C8010E9454151CC0AE014B5F6A
:102E70005F4F672DC8010E945415F80140815181B0
:102E800062817381882309F47EC0FD85FF3F21F5AF
:102E9000CB01BA010E9449140E946D14682E882348
:102EA00009F47EC0862D2E960FB6F894DEBF0FBEB5
:102EB000CDBFDF91CF911F910F91FF90EF90DF90E9
:102EC000CF90BF90AF909F908F907F906F905F90CA
:102ED0004F903F902F9008958091360F9091370F2B
:102EE0002A013B01481A590A61087108C301B2015D
:102EF0000E946D14682E8111B1CF77247A9480914D
:102F0000360F9091370FB0E0A0E08C159D05AE050F
:102F1000BF0520F4F694E794D794C7948FEF781206
:102F200042C08C149D04AE04BF04E8F58091320FBA
:102F30009091330FA091340FB091350F40912E0F27
:102F400050912F0F6091300F7091310F841B950BB2
:102F5000A60BB70B880D991DAA1DBB1D4C015D0169
:102F60008C189D08AE08BF08F80180829182A28269
:102F7000B38260E0C8010E948106FE85F150FE87A1
:102F8000F1113ACF6BCECB01BA010E946D148823A8
:102F900009F4B5CF7194B3CF2D852F3F09F4ADCF90
:102FA00077247394ACCFA72D072C000CBB0BA70183
:102FB00096010E94CE55860E971EA81EB91ED4CF2C
:102FC000CF93DF9300D000D0CDB7DEB7AE014F5F17
:102FD0005F4F0E949E14882359F069817A818B810A
:102FE0009C810F900F900F900F90DF91CF910895DB
:102FF0006FEF7FEFCB01F5CF0F931F93CF93DF934D
:103000008C010E94C5128FE90E94A51280E00E94E7
:10301000A512C82FD0E0DC2FCC2780E00E94A5129B
:10302000C82BC8010E949512CE01DF91CF911F914C
:103030000F910895282F30E094E0359527959A95C3
:10304000E1F7922F990F990F291B220F820F0895F4
:10305000EF92FF920F931F93CF93DF938C01C62FB4
:10306000F894F090B20061E0FC0184850E94DD08D4
:103070009C2F80E031E0992329F083272FEF290F3F
:103080009223F9CFF0E88F9FC0011124C82B80E86C
:10309000D9E0982F9C2319F0D1508695FACF8091D2
:1030A000B2008F198A31D8F3F090B200EE24E39485
:1030B000F8018485ED1678F460E0C0FF61E00E94BD
:1030C000DD088091B2008F198A31D8F3F090B200F8
:1030D000C695E394EDCF60E00E94DD0878948AE025
:1030E00090E08D1B91099AE1899F802D1124909188
:1030F000B2009F199817D8F3DF91CF911F910F91CC
:10310000FF90EF900895FC0115869091F90C809145
:10311000FA0C981799F0E091F90CF0E0E85FF74F9E
:1031200020818091F90C90E001966BE470E00E94A0
:103130001D578093F90C822F90E008958FEF9FEF39
:1031400008959091F90C8091FA0C981741F0E09154
:10315000F90CF0E0E85FF74F808190E008958FEF81
:103160009FEF0895FC01858581110EC08091FA0CB6
:103170002091F90C90E0855B9F4F821B91096BE4D5
:1031800070E00E941D5708958FEF9FEF089590E023
:1031900080E00895DC011C969C911C97ECE6F0E021
:1031A000983050F0E3E7F0E0903130F0EBE6F0E0FB
:1031B000983110F4EDE6F0E08081977021E030E086
:1031C00001C0220F9A95EAF72095282320831C96A8
:1031D0008C91ECE6F0E0883050F0E3E7F0E08031ED
:1031E00030F0EBE6F0E0883110F4EDE6F0E09081AD
:1031F000911110C0F0E0E0E0803210F4E8E6F0E079
:103200009081883040F0803140F0883140F08EEF7E
:103210008923808308958DEFFBCF87EFF9CF8BEF64
:10322000F7CFCF93DF93EC016330710521F1643068
:103230007105E1F16230710509F05FC060E083E083
:103240000E940B0961E083E00E940B0961E083E0CA
:103250000E94DD0860E08C850E940B0961E08C858E
:103260000E940B0960E08C850E94DD08CE01DF9191
:10327000CF910C94CA1860E083E00E940B0961E0D2
:1032800083E00E940B0961E083E00E94DD0862E0B8
:1032900070E080E090E00E94730960E08C850E94FD
:1032A0000B0961E08C850E940B09E0CF61E083E0AF
:1032B0000E940B0960E083E00E94DD0862E070E09C
:1032C00080E090E00E94730960E08C850E94DD0838
:1032D00060E08C850E940B0978948091680088607A
:1032E00080936800809173008460809373008FEFF7
:1032F00080935708DF91CF91089561E083E00E94A9
:103300000B0961E083E00E94DD0860E08C850E948B
:10331000DD0860E0C7CF70E060E08AE39FE00E94D4
:1033200011191092F80C1092F70C8091F60C809302
:10333000B0008091F50C8093B10008958091F70C56
:103340009091F80C8A539F4061F062E070E08AE34C
:103350009FE00E9411198AE39FE09093F80C8093FC
:10336000F70C86E990E0A0E0B0E080933E0F9093E8
:103370003F0FA093400FB093410F81EF98ED9093D2
:10338000490F8093480F8091B0008093F60C809194
:10339000B1008093F50C1092B00086E08093B100EC
:1033A0000895CF93DF9363E070E08AE39FE00E948B
:1033B0001119CAE3DFE061E08C850E94DD088CE82A
:1033C00095E60197F1F760E08C850E94DD088CE4BA
:1033D00096E40197F1F7DF91CF9108950F931F9332
:1033E000CF93DF938C010E94D119D0E0C0E0D801C7
:1033F00014968D919C911597C817D90790F4ED916B
:10340000FC91309759F41092F40CE4EFFCE06081E9
:103410008AE39FE00E9428182196E9CFEC0FFD1F58
:10342000F6CF64E070E08AE39FE0DF91CF911F91D7
:103430000F910C9411191F93CF93DF93EC01162F6A
:1034400063E070E00E941119612FCE010E942818DC
:1034500064E070E0CE010E94111981E090E0DF91FC
:10346000CF911F91089581E08093CA0C88E68093E4
:10347000EB0C1092F10C1092F00C60E08DEA9AE1E6
:103480000E94A31081E00E948D0E811142C067E06E
:1034900088E60E947D0F1092F30C8093F20C8DEA67
:1034A0009AE10E945C108F770E941A188093770C23
:1034B0008DEA9AE10E945C100E941A188093780CA1
:1034C0008DEA9AE10E945C108F7B0E941A1880930B
:1034D000790C8DEA9AE10E945C1080937A0C8DEA57
:1034E0009AE10E945C100E941A1880937B0C8DEA6E
:1034F0009AE10E945C108F770E941A1880937C0CCE
:103500008DEA9AE10E945C100E941A18825E8093F4
:103510007D0C8091770C8093AF0A8091780C80931A
:10352000110B8091790C8093B00A80917B0C809371
:10353000B30A80917C0C8093B40A80917D0C90E05A
:103540008E54984F9093B20A8093B10A62E370E070
:1035500080E090E00C947309CF9391E09093CA0CB3
:1035600098E69093EB0C1092F10C1092F00C682FEF
:103570008DEA9AE10E94A31081E00E948D0E8111D4
:103580000DC061E088E60E947D0F1092F30C8093DD
:10359000F20C8DEA9AE10E945C10C82F8C2FCF911B
:1035A00008951F93CF93DF9381E08093CA0C88E640
:1035B0008093EB0C1092F10C1092F00C60E08DEA0D
:1035C0009AE10E94A310C7E7DCE028811AE0822F6D
:1035D000612F0E94FD56682F660F680F660F620FFD
:1035E0008DEA9AE10E94A3102981822F612F0E9407
:1035F000FD56682F660F680F660F620F8DEA9AE11D
:103600000E94A3102A81822F612F0E94FD56682FED
:10361000660F680F660F620F8DEA9AE10E94A31091
:103620006B818DEA9AE10E94A3102C81822F612F79
:103630000E94FD56682F660F680F660F620F8DEAB5
:103640009AE10E94A3102D81822F612F0E94FD56C6
:10365000682F660F680F660F620F8DEA9AE10E946D
:10366000A3102E812E51822F612F0E94FD56682FAC
:10367000660F680F660F620F8DEA9AE10E94A31031
:1036800081E00E948D0EC82F8FE00E94AC1A682F37
:103690006F778FE00E94D2108C2FDF91CF911F9116
:1036A0000895CF93DF93C82FD62F8EE00E94AC1AD7
:1036B0004C2F4150550B61E070E001C0660F4A95F8
:1036C000EAF7DD2331F0682B8EE0DF91CF910C9487
:1036D000D21060956823F8CFCF93DF93C82F8FE087
:1036E0000E94AC1AC150DD0B21E030E001C0220F76
:1036F000CA95EAF7982F922351F02095622F6823FC
:103700008FE00E94D21081E0DF91CF91089580E098
:10371000FBCF0F931F93CF93DF93EC010E94D1193E
:103720008E01FE0101900020E9F73197EC1BFD0BA3
:10373000C8018C1B9D0B8E179F0740F4F801619107
:103740008F018AE39FE00E942818EBCF64E070E0CD
:103750008AE39FE0DF91CF911F910F910C94111993
:10376000FC0101900020E9F73197AF01481B590B8C
:10377000BC018BEF9CE00C9453078CED91E00C9412
:10378000B01BCF93DF930E942508EC010E94BD1B64
:103790008C0F9D1FDF91CF910895CF93DF93FC0194
:1037A00044815581608171818BEF9CE00E945307B9
:1037B000EC010E94BD1B8C0F9D1FDF91CF910895DE
:1037C000CF93DF930E944008EC010E94BD1B8C0F39
:1037D0009D1FDF91CF9108958F929F92AF92BF92DC
:1037E0000F931F93CF93DF93CDB7DEB7A1970FB69B
:1037F000F894DEBF0FBECDBF19A2423008F44AE0F4
:103800008E010F5D1F4F842E912CB12CA12CA50190
:1038100094010E948255E62FB901CA01EA30F4F4FE
:10382000E05DD801EE938D01232B242B252B79F716
:1038300090E080E0109719F0CD010E94B01BA19696
:103840000FB6F894DEBF0FBECDBFDF91CF911F91B1
:103850000F91BF90AF909F908F900895E95CE1CF5A
:10386000682F70E090E080E04AE00C94EC1BCF936E
:10387000DF930E94301CEC010E94BD1B8C0F9D1F2A
:10388000DF91CF910895CF93DF934AE00E94EC1B24
:10389000EC010E94BD1B8C0F9D1FDF91CF910895FD
:1038A000CF92DF92EF92FF92CF93DF930E94A6090F
:1038B0006B017C0120E1C20E27E2D21EE11CF11C4B
:1038C0001092B70A1092B60A0E94A6096C157D05DF
:1038D0008E059F0508F044C08BEF9CE00E94B10765
:1038E000181619068CF764E670E080E090E00E94FC
:1038F00073098BEF9CE00E94B107F82EC1E0DAE07B
:10390000C090B60AD090B70AFC1690F08BEF9CE0FE
:103910000E949007DC9D9001DD9D300D1124C09721
:10392000280F391F3093B70A2093B60ACF5FE8CF2C
:103930000D2C000CEE08FF084AE0C701B601F7FEA7
:103940000BC08DE20E94400866277727CB016C19D7
:103950007D098E099F094AE00E94EC1B0E94BD1B55
:103960006AE070E080E090E0DF91CF91FF90EF900F
:10397000DF90CF900C947309CF93DF93D0E0C0E039
:10398000009719F00E94B01BEC010E94BD1B8C0F28
:103990009D1FDF91CF9108958F929F92AF92BF921A
:1039A000CF92DF92EF92FF921F93CF93DF93CDB729
:1039B000DEB764970FB6F894DEBF0FBECDBF6B01C4
:1039C0007C0149015A0168E873E180E090E00E94BF
:1039D000D612182F882309F410C2C0922E0FD0924D
:1039E0002F0FE092300FF092310F8092320F9092B1
:1039F000330FA092340FB092350F80E290E0909395
:103A0000370F8093360F80E090E19093390F8093C9
:103A1000380FF8948FEF9FEFDC0180931A0F90938B
:103A20001B0FA0931C0FB0931D0F80931E0F90933C
:103A30001F0FA093200FB093210F8093220F90931C
:103A4000230FA093240FB093250F8093260F9093FC
:103A5000270FA093280FB093290F60912E0F70911C
:103A60002F0F8091300F9091310F0E946D14882399
:103A700009F4C0C080902E0F90902F0FA090300FAF
:103A8000B090310F6091320F7091330F8091340FED
:103A90009091350F681979098A099B099695879540
:103AA00077956795680D791D8A1D9B1D0E946D1481
:103AB000882309F49FC080912E0F90912F0FA09121
:103AC000300FB091310F898B9A8BAB8BBC8B8D876C
:103AD0009E87AF87B88B69897A898B899C89609327
:103AE0001E0F70931F0F8093200F9093210FCD8492
:103AF000DE84EF84F888C0921A0FD0921B0FE092F8
:103B00001C0FF0921D0F0E9449146093220F7093B6
:103B1000230F8093240F9093250F6B017C01CC24FD
:103B200020EFD222FF246C157D058E059F0509F03C
:103B3000A6C16093260F7093270F8093280F909350
:103B4000290F6091260F7091270F8091280F909177
:103B5000290F0E9434066093260F7093270F8093DD
:103B6000280F9093290F80911E0F90911F0FA09105
:103B7000200FB091210F0097A048B10508F486C12D
:103B800010922A0F10922B0F10922C0F10922D0FC3
:103B900078948FED91E00E94BC1C0E94BD1B609147
:103BA0001A0F70911B0F80911C0F90911D0F0E9496
:103BB000E01760911E0F70911F0F8091200F909160
:103BC000210F0E94E0178BEF9CE00E944508812F97
:103BD00064960FB6F894DEBF0FBECDBFDF91CF91D4
:103BE0001F91FF90EF90DF90CF90BF90AF909F908C
:103BF0008F90089580912E0F90912F0FA091300FEC
:103C0000B091310F898B9A8BAB8BBC8BAE014B5F24
:103C10005F4F6FEFCE0141960E94541581111DC078
:103C200080912E0F90912F0FA091300FB091310FF6
:103C3000898B9A8BAB8BBC8BAE014B5F5F4F61E086
:103C4000CE0141960E945415811107C08FEF9FEF5E
:103C5000DC018D839E83AF83B8872091360F30912E
:103C6000370F8091320F9091330FA091340FB091A4
:103C7000350F821B930BA109B109898B9A8BAB8BF2
:103C8000BC8BAE01475F5F4F6FEFCE0141960E9444
:103C90005415811107C08FEF9FEFDC0189879A8748
:103CA000AB87BC8789849A84AB84BC8480912E0FB7
:103CB00090912F0FA091300FB091310F4D815E8107
:103CC0006F8178854F3F5F4F6F4F7F4F09F18B209A
:103CD0008A208920809409F096C08D879E87AF87BF
:103CE000B88BAE014F5F5F4F61E0CE010D960E9431
:103CF00054158823E1F12091360F3091370F8091D0
:103D0000320F9091330FA091340FB091350F9AC0BC
:103D10002091360F3091370F4091320F5091330F71
:103D20006091340F7091350F421B530B610971097B
:103D30008B208A208920809409F48DC0498B5A8B6E
:103D40006B8B7C8B8D879E87AF87B88BAE014F5F67
:103D50005F4F6FEFCE0141960E945415882339F0D2
:103D600061E0CE010D960E94C9158111B4CE8989FA
:103D70009A89AB89BC89C816D906EA06FB06E1F523
:103D80008D859E85AF85B889C816D906EA06FB06DB
:103D900099F580E090E0A0E8B0E080931E0F90934A
:103DA0001F0FA093200FB093210F80931A0F9093B1
:103DB0001B0FA0931C0FB0931D0FC092220FD09227
:103DC000230FE092240FF092250F80E1D80EE11C22
:103DD000F11CC092260FD092270FE092280FF0928C
:103DE000290F8FEF9FEFDC0180932A0F90932B0F09
:103DF000A0932C0FB0932D0F789486EF91E00E9442
:103E0000BC1C10E0E4CE19861A861B861C864FEF78
:103E10005FEFBA014D835E836F8378878D879E87BE
:103E2000AF87B88B61E0CE010D960E94C91588233B
:103E300009F49DCF2091360F3091370F8D859E85E7
:103E4000AF85B889821B930BA109B109898B9A8B25
:103E5000AB8BBC8B10C08D879E87AF87B88B498B8F
:103E60005A8B6B8B7C8B61E0CE010D960E94C9153D
:103E7000882309F47CCF6FEFCE01419674CF705F39
:103E80008F4F9F4F6627707F992753CE4AE25FE09E
:103E900061E08EE19FE00E9454157ACE0C94B01B35
:103EA00080911301882331F10E94331A65E38BE07E
:103EB0000E94D21068E18CE00E94D21060E88DE090
:103EC0000E94D2108091B50A882371F084E192E0BB
:103ED0000E944E1F82E10E94301C8DE796E00E94F6
:103EE0004E1F83E20E94371C62E370E080E090E0A6
:103EF0000C9473090895CF93DF93482F5091110BC1
:103F0000852F90E0E091FB0BE4133FC0CE2FD0E073
:103F10008C0F9D1F6CE370E00E941D57BE010E9434
:103F20001D57E69FE02D1124E093990A2091990AEC
:103F3000822F6AE00E94FD56C82FCC0FC80FCC0F0D
:103F4000C20F60E087E00E94D2106C2F88E00E94D0
:103F5000D21060E889E00E94D21060E88AE00E94F6
:103F6000D2108091B50A882341F086E292E00E9447
:103F70004E1F8091990A0E94371C62E370E080E036
:103F800090E0DF91CF910C947309840F911D8C33D5
:103F900091053CF06CE370E00E941D578093990AF4
:103FA000C5CF450F4093990AC1CFEF92FF920F936F
:103FB0001F93CF93DF937C0187E090E00E944157ED
:103FC000EC0100E50D8311E01E8387E18883FA820E
:103FD000E982D093190FC093180F8CB58B838DB5E0
:103FE0008C8361E087E10E940B090E94EC100D8335
:103FF0001E83CE010E949512CE010E94C5128BEA4B
:104000000E94A512CE010E94951289819A81892B66
:1040100039F541E061E0CE010E94261380E00E9464
:10402000A512CE010E94951211E08091180F909177
:10403000190F0E94FC17EC0186E392E00E944E1FCC
:10404000BE0190E080E040E10E94EC1B0E94BD1B9D
:10405000812FDF91CF911F910F91FF90EF900895E5
:10406000CE010E94FC1729813A818217930789F2B9
:1040700010E0DBCF2F923F924F925F927F928F9210
:104080009F92AF92BF92CF92DF92EF92FF920F93E7
:104090001F93CF93DF9300D000D000D0CDB7DEB711
:1040A0004B015C01AE014F5F5F4F0E949E14782E62
:1040B00081111DC083E492E00E94BC1C872D2696CE
:1040C0000FB6F894DEBF0FBECDBFDF91CF911F9129
:1040D0000F91FF90EF90DF90CF90BF90AF909F90A7
:1040E0008F907F905F904F903F902F90089506E0C3
:1040F00010E09E012F5F3F4FB501A4018091180F82
:104100009091190F0E94E9134D805E80620186E054
:10411000C81AD108C20105970E9441577C0100913D
:10412000320F1091330F2091340F3091350FB501BC
:10413000A4014A5F5F4F6F4F7F4FD501C401840DCB
:10414000951DA11DB11D1C012D018091180F90918D
:10415000190F021513052405350560F506501109E0
:104160005801A818B908850197010E94E913860132
:104170000A191B0997012A0D3B1D40912E0F5091E2
:104180002F0F6091300F7091310F8091180F909127
:10419000190F0E94E913F701EC0DFD1D1082C701F4
:1041A0000E94BC1C8BEF9CE00E944508C7010E9446
:1041B000DD5784CF86019701ECCFCF93DF93EC01DD
:1041C00088819981009711F00E94DD571982188229
:1041D0001D821C821B821A82DF91CF910895FC01FF
:1041E00080819181009711F00C94DD5708952F92F2
:1041F0003F924F925F926F927F928F929F92AF9277
:10420000BF92CF92DF92EF92FF920F931F93CF93C3
:10421000DF93CDB7DEB72A970FB6F894DEBF0FBE97
:10422000CDBFFC01698304811581C80187509F4F70
:104230006AEF70E00E940957662309F42AC12981B8
:104240002A874F016150698790E080E0212C312C52
:10425000210133940115110509F41BC10B3F110510
:1042600050F15C013AEFA30EB11C0A5F11096624FC
:104270006394712C681A790A6A0C7B1C49854093F7
:104280005510A6E5B0E18A159B05D8F4F401248108
:1042900035818217930738F420813181F901E80FC5
:1042A000F91F232B21F41092F40CE4EFFCE02081A1
:1042B0002D930196E8CF5801A80EB91E10E000E03A
:1042C000D6CFF090510FF394F092510FC12CEE2401
:1042D000E394EC0C8091540F8C1508F4F4C0809199
:1042E0004A0F90914B0FDC01ED91FC91008CF18D08
:1042F000E02D6F2D099580914A0F90914B0FDC01B5
:10430000ED91FC91028CF38DE02D40E860E0099581
:104310004A85662D85E590E10E940F070E940407FB
:10432000BA85BF3F09F4D1C0E1E0EE1598F4809161
:104330004D0F90914E0FA0914F0FB091500F0196DD
:10434000A11DB11D80934D0F90934E0FA0934F0F61
:10435000B093500F0E94A60969837A838B839C8354
:10436000C090520FD090530F0E942151A201910191
:104370000E94A4559B01AC01D6010E94C355A20125
:1043800091010E94A4552C0D3D1DCE2CC901B0E019
:10439000A0E08D839E83AF83B8870E94A609298100
:1043A0003A814B815C81621B730B840B950B2D81D1
:1043B0003E814F815885621773078407950708F07F
:1043C00086CF80914A0F90914B0FDC01ED91FC91CB
:1043D0000280F381E02D09958823F9F280914A0F3C
:1043E00090914B0FDC01ED91FC910480F581E02D63
:1043F00050E040E070E060E00995882371F2809120
:104400004A0F90914B0FDC01ED91FC9100A0F1A1BE
:10441000E02D0995D82E80914A0F90914B0FDC0129
:10442000ED91FC91068CF78DE02D0995782E809109
:104430004A0F90914B0FDC01ED91FC9102A0F3A18A
:10444000E02D0995E82E80914A0F90914B0FDC01E9
:10445000ED91FC9104A0F5A1E02D0995BA85BD115F
:1044600008C090914C0F971104C087FF02C0FE1442
:1044700061F187FD92CFED2DF0E0E65BF04F838593
:104480008E118BCF4D2D6E2D8AE49FE00E94150C6E
:1044900084CF81E02A960FB6F894DEBF0FBECDBF61
:1044A000DF91CF911F910F91FF90EF90DF90CF9010
:1044B000BF90AF909F908F907F906F905F904F9044
:1044C0003F902F90089580E0E5CFE985E150E9879E
:1044D000C501C0CE0E9447590F931F93CF93DF931E
:1044E000EC0188819981009759F02A813B81261738
:1044F000370730F081E0DF91CF911F910F91089540
:104500008B016F5F7F4F0E946658009759F0998327
:1045100088831B830A832C813D81232B59F7FC015F
:104520001082E8CF80E0E7CFEF92FF920F931F93C6
:10453000CF93DF936115710541F480E0DF91CF9156
:104540001F910F91FF90EF90089541155105B1F023
:104550007B01EC010C811D81040F151FB8010E9425
:104560006C22882351F3288139818C819D81B70188
:10457000820F931F0E947B591D830C8381E0DECF45
:104580000F931F93CF93DF9300D000D0CDB7DEB74A
:104590004AE08E010F5F1F4FB80190E00E948B51DF
:1045A000F80101900020E9F73197AF01401B510B52
:1045B000B80189E792E10E9494220F900F900F902A
:1045C0000F90DF91CF911F910F9108950F931F933B
:1045D000CF93DF93CDB7DEB764970FB6F894DEBF05
:1045E0000FBECDBF8E010F5F1F4F22E044E00E943F
:1045F000B750FC0101900020E9F73197AF01481B4B
:10460000590BBC0189E792E10E94942264960FB68F
:10461000F894DEBF0FBECDBFDF91CF911F910F91F8
:104620000895CF93DF9300D0CDB7DEB769831A82A8
:1046300041E050E0BE016F5F7F4F0E9494220F90D7
:104640000F90DF91CF910895FB0101900020E9F7D1
:104650003197AF01461B570B0C949422EF92FF92B7
:104660000F931F93CF93DF93EC017B018A01BA0173
:104670000E946C2281110BC0CE010E94DD20CE0170
:10468000DF91CF911F910F91FF90EF9008951D83BF
:104690000C83B701888199810E947B59F0CFFC017E
:1046A00011821082138212821582148250E040E03F
:1046B0006EED71E00C942E23CF93DF9300D000D0E9
:1046C00000D0CDB7DEB70E949E1964E670E080E0AE
:1046D00090E00E947309CE0101960E944F236091E1
:1046E000AC0ACE0101960E9411236BE572E0CE0167
:1046F00001960E942423CE0101960E94EE196CE2DD
:1047000071E080E090E00E9473098AE39FE00E94DC
:10471000B218892B29F08AE39FE00E948318F5CF15
:1047200064E170E080E090E00E9473090E948B19C0
:1047300064E170E080E090E00E947309CE01019690
:104740000E94EF2026960FB6F894DEBF0FBECDBFB5
:10475000DF91CF910895CF93DF9300D000D000D0A8
:10476000CDB7DEB70E949E1964E670E080E090E06D
:104770000E947309CE0101960E944F236091AC0AFA
:10478000CE0101960E9411236FE572E0CE010196E1
:104790000E942423CE0101960E94EE196CE271E082
:1047A00080E090E00E9473098AE39FE00E94B218C3
:1047B000892B29F08AE39FE00E948318F5CF64E1FA
:1047C00070E080E090E00E9473090E948B1964E120
:1047D00070E080E090E00E947309CE0101960E9493
:1047E000EF2026960FB6F894DEBF0FBECDBFDF9147
:1047F000CF910895FB0101900020E9F73197AF01B7
:10480000461B570B0C942E230F931F93CF93DF93CC
:1048100000D000D000D0CDB7DEB7182FCE01019662
:104820000E944F236EED71E0CE0101960E94FA23A3
:10483000612FCE0101960E94112362EA74E0CE013D
:1048400001960E94242303E010E0CE0101960E940D
:10485000EE1964E670E080E090E00E9473098AE35C
:104860009FE00E94B218181619064CF064E670E03A
:1048700080E090E00E9473090150110931F78AE34A
:104880009FE00E94B21802979CF00E942B0611E054
:10489000CE0101960E94EF20812F26960FB6F89444
:1048A000DEBF0FBECDBFDF91CF911F910F91089555
:1048B0000E942B0610E0ECCFCF93DF93EC01FB01BD
:1048C0008617970749F0608171816115710541F084
:1048D000448155810E942E23CE01DF91CF9108950E
:1048E0000E94DD20F9CFCF93DF9300D000D000D01D
:1048F000CDB7DEB71A8219821C821B821E821D82EE
:1049000069E772E1CE0101960E945C244091831216
:104910005091841260917F1270918012CE010196A5
:104920000E949422811104C0CE0101960E94DD20D4
:10493000BE016F5F7F4F8FE792E10E945C24CE0142
:1049400001960E94EF2064E670E080E090E00E9413
:1049500073098FE792E10E94CD1B62E370E080E073
:1049600090E00E94730926960FB6F894DEBF0FBE42
:10497000CDBFDF91CF910895CF92DF92EF92FF925A
:104980000F931F93CF93DF93EC017B018A01E881A2
:10499000F9810280F381E02D0995D82E882329F131
:1049A000E114F104D1F001151105B9F0CFB6F89476
:1049B0008A8D8350990BF8012081281719061CF065
:1049C0008A8D84508083F801408150E0BE01615E91
:1049D0007F4FC7010E944C59CFBE8FB7F894FE019C
:1049E000E65EFE4F10821A8E8FBF8D2DDF91CF9124
:1049F0001F910F91FF90EF90DF90CF900895EF926D
:104A0000FF920F931F93CF93DF9300D01F92CDB7E8
:104A1000DEB78C010E94F70BE82E81110CC0E12C4F
:104A20008E2D0F900F900F90DF91CF911F910F91CE
:104A3000FF90EF900895F801808D8A3009F47EC0D0
:104A40008B3009F47DC022E0F22E823041F740E83D
:104A500061E0C8010E94CD096AE070E080E090E06A
:104A60000E94730961E0C8010E940D0B8038B9F6FD
:104A700060E0F801808D0E940B09F801818D8F3F65
:104A800049F48091FE0A843050F691E0980F90939B
:104A9000FE0A818FF801818DE82FF0E0EE0FFF1FF5
:104AA000E150F54F118300836EEE7BE0882349F0DF
:104AB00065EE7BE0813029F0823009F0B0CF6CEDFB
:104AC0007BE08F2D0E94320740E06EE0C8010E941B
:104AD000CD0940E06FE0C8010E94CD09C8010E94E5
:104AE000250A43E050E061ED7AE0CE0101960E9494
:104AF000825149816DE1C8010E94CD094A816EE170
:104B0000C8010E94CD094B8166E2C8010E94CD090F
:104B100040E060E2C8010E94CD0948E061E2C801BE
:104B20000E94CD0940E050EC64E674E4C8010E94A4
:104B3000390A6DE0C8010E94FD0972CFF12C87CFC0
:104B4000FF24F39484CF85ED8093BC008091C60C44
:104B50009091C70CA091C80CB091C90C0796A11DEB
:104B6000B11D23E0B695A795979587952A95D1F71E
:104B70002091BC0024FD03C01092C40C0895409104
:104B8000C60C5091C70C6091C80C7091C90C452B94
:104B9000462B472B69F30097A105B10541F02AE1A7
:104BA0002A95F1F700C00197A109B109E1CF8091E1
:104BB000C50C0C946C0ECF92DF92EF92FF921F9374
:104BC000CF93DF93E9E1FBE088ECDF011D928A954A
:104BD000E9F762E370E080E090E00E9473090E94D0
:104BE000A6096B017C01B0E1CB0EB7E2DB1EE11C34
:104BF000F11C0E94A6096C157D058E059F0540F5E8
:104C00008BEF9CE00E94B1071816190694F764E632
:104C100070E080E090E00E9473098BEF9CE00E94BE
:104C2000B107EC01F82E10E08BEF9CE00E9490079A
:104C30008D3039F08A3029F0E12FF0E0E75EF44F53
:104C400080831F5FF11680F7DD27C75ED44F18827F
:104C500089E19BE0DF91CF911F91FF90EF90DF9072
:104C6000CF900C94BC1C0E94DB258091190B8823EB
:104C700059F08F7D893559F08E3459F08FEA9AE0DA
:104C80000E94C11B83E0089580EC9AE0F9CF81E097
:104C9000089582E008952F923F924F925F926F9213
:104CA0007F928F929F92AF92BF92CF92DF92EF92BC
:104CB000FF920F931F93CF93DF93CDB7DEB7649727
:104CC0000FB6F894DEBF0FBECDBFCDB6DEB6DE8622
:104CD000CD860E947324E0908312F0908412FC8AA7
:104CE000EB8A2DB73EB72E193F090FB6F8943EBF99
:104CF0000FBE2DBF8DB79EB701965C0160917F12EC
:104D000070918012A7010E944C5980E591E00E94A9
:104D1000AF1260E087E10E94DD088BEA0E94A512D5
:104D200061E087E10E94DD080E9484126EE170E07C
:104D300080E090E00E9473098091380F9091390FC4
:104D400006978E159F05A8F583E692E00E94BC1C8D
:104D500080E591E00E94AF1260E087E10E94DD08EB
:104D600089EB0E94A51261E087E10E94DD080E94A4
:104D70008412ED84FE840FB6F894FEBE0FBEEDBE25
:104D800064960FB6F894DEBF0FBECDBFDF91CF9112
:104D90001F910F91FF90EF90DF90CF90BF90AF9059
:104DA0009F908F907F906F905F904F903F902F904B
:104DB00008952DB63EB640902A0F50902B0F60906C
:104DC0002C0F70902D0F9FEF491A590A690A790A22
:104DD000EB88FC88A6E0EA0EF11C0091360F1091DA
:104DE000370FC701B8010E940957009709F466C13F
:104DF0000E0D1F1D081B190BEDB7FEB7E01BF10BC5
:104E00000FB6F894FEBF0FBEEDBF2DB73EB72F5FB4
:104E10003F4F4901ADB7BEB711964D925D926D926D
:104E20007C921497F901F582E4828DB79EB70796BC
:104E30004B895C89B5010E944C59A8014E195F0944
:104E400070E060E0C4018E0D9F1D0E94555928013D
:104E5000712C612C4091220F5091230F6091240FEF
:104E60007091250FC090320FD090330FE090340F27
:104E7000F090350FCF86D88AE98AFA8AD301C80123
:104E8000840F951FA61FB71FE091180FF091190FFF
:104E9000C816D906EA06FB0608F012C15601A41A84
:104EA000B50A7801EA18FB0885019401CF010E9438
:104EB000851364EF71E080E090E00E94D6129401C7
:104EC0002A0D3B1D40912E0F50912F0F6091300FF6
:104ED0007091310F87018091180F9091190F0E94E6
:104EE00085138090220F9090230FA090240FB090F4
:104EF000250F80912A0F90912B0FA0912C0FB0912C
:104F00002D0F0196A11DB11D80932A0F90932B0F99
:104F1000A0932C0FB0932D0FC301B201680D791D22
:104F20008A1D9B1D0E9434066093220F7093230FED
:104F30008093240F9093250F705F8F4F9F4F6627AC
:104F4000707F99270E9434062B013C010E946D144A
:104F5000811128C0C301B2010E944E13C301B201E6
:104F6000705F8F4F9F4F6627707F99270E9434068E
:104F70006D837E838F839887AE014F5F5F4F61E0C3
:104F8000CE0105960E945415882361F08D819E8183
:104F9000AF81B88580931A0F90931B0FA0931C0FBD
:104FA000B0931D0F4092260F5092270F6092280F4A
:104FB0007092290F80921E0F90921F0FA092200FC7
:104FC000B092210F80911A0F90911B0FA0911C0F8E
:104FD000B0911D0F0097A048B10540F080921A0FC4
:104FE00090921B0FA0921C0FB0921D0F0FB6F89459
:104FF0003EBE0FBE2DBE8091B50A882309F4A8CE0F
:1050000060911E0F70911F0F8091200F9091210FC2
:105010000E941D147C0160911E0F70911F0F8091E2
:10502000200F9091210F0E941D148C01009769F0B0
:105030002091360F3091370FB9010E940957009720
:1050400021F0020F131F081B190B88E792E00E9442
:105050004E1F60912A0F70912B0F80912C0F909111
:105060002D0F0E94431C88E892E00E944E1F8FE79C
:1050700092E10E94CD1B8FE892E00E944E1FCB88E8
:10508000DC88B60190E080E04AE00E94EC1B8BE9EE
:1050900092E00E944E1FB70190E080E04AE00E943B
:1050A000EC1B88EA92E00E944E1FB80190E080E07D
:1050B0004AE00E94EC1B0E94BD1B4ACE87019CCE99
:1050C0009401CF010CCF2F923F924F925F926F923B
:1050D0007F928F929F92AF92BF92CF92DF92EF9288
:1050E000FF920F931F93CF93DF93CDB7DEB7CE5FC1
:1050F000D1090FB6F894DEBF0FBECDBF2DB73EB7B6
:10510000CB50DF4F39832883C55FD0406EED71E00F
:105110008FE792E10E94FA230E949E1964EF71E0EA
:1051200080E090E00E947309C651DF4F1882CA5E8A
:10513000D040AE014F5F5F4F2A011E0159EC250E92
:10514000311C8091500390915103A0915203B09172
:105150005303C950DF4F88839983AA83BB83C75FFA
:10516000D040209154033091550340915603509103
:105170005703C550DF4F288339834A835B83CB5F56
:10518000D0408091AD0AC651DF4F3881CA5ED04011
:10519000381708F099C6832E912C01E8089DC001AC
:1051A000099D900D1124FC01E356FD4E4081C15133
:1051B000DF4F4883CF5ED0403093A70A8C01DC01DB
:1051C000AE53BD4E7D016AEB72E0CD010E94725973
:1051D000892B09F0B2C081E08093A60A64E670E0F2
:1051E00080E090E00E9473099090A60A8091A70A3F
:1051F000082F10E0992009F4D3C5C151DF4FB881C1
:10520000CF5ED040CD52DF4FB883C35DD040CC528B
:10521000DF4F1882C45DD040E1E88E9FC0011124A9
:105220006AEB72E08E539D4E0E94725964EC72E0FC
:10523000892B11F468EC72E0CE018C519F4F0E94D3
:105240007B59BE016C517F4FCE018D529F4F0E9402
:105250005C59CE018D529F4F0E94891B64EF71E013
:1052600080E090E00E9473098AE39FE00E94B218F8
:10527000843008F401C52DB73EB7CF50DF4F3983D6
:105280002883C15FD040C853DF4F1882C85CD0402C
:10529000AE0142585F4F7A0110E000E0B12CC02E01
:1052A0008AE39FE00E948318D82E68E070E080E0D7
:1052B00090E00E947309D701DD927D01BDE0DB1211
:1052C000D2C0EEE7F0E0EC0FFD1FE00FF11F1082FF
:1052D0000E942B06BC0CCB2CD12C8601015011094D
:1052E0002DB73EB72C193D090FB6F8943EBF0FBE3F
:1052F0002DBF4DB75EB74F5F5F4F7A01A12C882459
:1053000083948EE7782EAB1408F0C7C0EEE7F0E088
:10531000EC0FFD1FE80DF11D8081F701EA0DF11D75
:105320008B3209F0B1C07082839465E070E080E058
:1053300090E00E947309A394E6CFC80189539D4E63
:105340000E94891B64E670E080E090E00E9473098F
:105350008AE39FE00E94B218181619060CF07AC072
:105360006DB67EB681E08093A60A8AE39FE00E9434
:10537000B218C851DF4F8883C85ED0406C01DD246D
:10538000EDB7FEB7EC19FD090FB6F894FEBF0FBEDE
:10539000EDBF0DB71EB70F5F1F4FC551DF4F08831D
:1053A000CB5ED04058018A2DC551DF4FF881CB5ECE
:1053B000D0408F1BC851DF4F2881C85ED040821774
:1053C00040F48AE39FE00E948318D5018D935D012C
:1053D000EACF0C0D1D1DF80134978081082E000CBA
:1053E000990BC09748EE53E0849F9001859F300D44
:1053F000949F300D11243093A50A2093A40A6FEBDB
:1054000072E0C7010E947259892B71F481E8889D6E
:10541000F001899DF00D1124E356FD4E0350110952
:10542000D8018C91805387A70FB6F8947EBE0FBE2B
:105430006DBE6091A40A7091A50A072E000C880B1E
:10544000990B0E9473090E942B0662E370E080E0D2
:1054500090E0C8CE88EE93E09093A50A8093A40ACA
:105460001092A60AE6CFEDE2DE1201C0B3946AE024
:1054700070E080E090E00E9473090F5F1F4F0B34D3
:10548000110509F00CCF24CF8D3229F4A39470823A
:10549000F701EA0DF11D808347CFF701E00FF11FFF
:1054A00010828091B50A882349F00E94BD1B8CECC4
:1054B00092E00E944E1FC7010E94BC1C8091A70A67
:1054C000A82FB0E0C551DF4FB983A883CB5ED04091
:1054D00011E8819FF0011124C851DF4FF983E8835F
:1054E000C85ED04061EE72E0CF018E539D4E0E94A7
:1054F0007259C851DF4F28813981C85ED040225689
:105500003D4E3901892B09F018C34DB75EB7CD5018
:10551000DF4F59834883C35FD0408DB79EB78C1946
:105520009D090FB6F8949EBF0FBE8DBF0DB71EB775
:105530000F5F1F4F9E2D802ED801F7018E2F891BE4
:105540008B1518F481918D93F9CFC950DF4F2881C5
:1055500039814A815B81C75FD040C052DF4F2883C9
:1055600039834A835B83C05ED040D8011196EC90AA
:105570001197C452DF4FE882CC5DD04012968C91D7
:105580001297C352DF4F8883CD5DD0401396FC90B5
:10559000C252DF4FF882CE5DD040C152DF4F188239
:1055A000CF5DD040BE0164527F4FCE0180529F4FED
:1055B0000E947259892B01F16EE270E0C8010E94CD
:1055C0006759801B910B823009F451C09927DC0187
:1055D0001197A00FB11F2C91F801E80FF91F20833C
:1055E0000297F801E80FF91F80818C938EE2808387
:1055F000F801EC0DFD1D10828091B50A882359F049
:1056000086EE92E00E944E1FC8010E94BC1C87EFEC
:1056100092E00E944E1F6EE770E0C8010E9491590F
:10562000801B910B8E5F282F30E0C351DF4F3983F1
:105630002883CD5ED040B901615071094DB75EB786
:10564000421B530B0FB6F8945EBF0FBE4DBFADB7F4
:10565000BEB711965D019D01D8019A2F9819981730
:1056600008F042C09D91F90191939F01F6CF2DB7AB
:105670003EB7EDB7FEB7EC19FD090FB6F894FEBFC3
:105680000FBEEDBF3196D8018C91ADB7BEB7119664
:105690008C938EE2818380E38283E382F48244E010
:1056A000842F90E08C159D0568F05E2FC801DF0106
:1056B0004A2F451B4C151D0488F44D91FC01419364
:1056C000CF01F6CFBF01680F791F800F911FDC015A
:1056D0008C91DB0111968C934F5FE2CF0FB6F8945B
:1056E0003EBF0FBE2DBF84CFFB01EA0DFB1D108214
:1056F0008091B50A882319F0C5010E94BC1C0E9444
:105700002B0664E170E080E090E00E947309C151D3
:10571000DF4FF881CF5ED040C253DF4FF883CE5CBD
:10572000D040C153DF4F1882CF5CD040C550DF4F0F
:10573000288139814A815B81CB5FD040C852DF4FDD
:10574000288339834A835B83C85DD040BE01685299
:105750007F4FCE0182539F4F0E945C59CE018253EE
:105760009F4F0E94891B64EF71E080E090E00E94EF
:1057700073098AE39FE00E94B218482F4150550BED
:105780007A01ADB7BEB7A41BB50B0FB6F894BEBF78
:105790000FBEADBF0DB71EB70F5F1F4F863030F184
:1057A000812CC82CD12CCE14DF0404F58AE39FE0B1
:1057B0000E9483188D3091F08A3071F0F801EC0D61
:1057C000FD1D8B3281F08D3271F080836FE070E0CF
:1057D00080E090E00E9473098394E3CFF801EC0D20
:1057E000FD1D1082F9CFBEE7B083F6CF8091B50AD8
:1057F000882339F085E093E00E944E1FC8010E9483
:10580000BC1C6EE770E0C8010E949159801B910B8F
:10581000282FF801E80FF11D91E08FEF890F921703
:1058200060F432913E3749F0322F391BC051DF4FBF
:105830003883C05FD0409F5FF0CFC82ED12C960137
:105840002F5F3F4F4DB75EB7421B530B0FB6F89417
:105850005EBF0FBE4DBFADB7BEB711967D01D8017B
:10586000C051DF4FE881C05FD040AE0FB11D2E2D7B
:10587000F7019E2F921B981718F49D919193F9CFE1
:10588000F701EC0DFD1D108264E670E080E090E011
:105890000E9473098091B50A882369F088E193E03A
:1058A0000E944E1FC7010E94BC1C64E170E080E0B2
:1058B00090E00E947309C351DF4F28813981CD5E8A
:1058C000D040C20ED31E4DB75EB74C195D090FB65E
:1058D000F8945EBF0FBE4DBF0DB71EB70F5F1F4FD1
:1058E00064E170E080E090E00E947309B501C801B6
:1058F0000E947B5962E370E080E090E00E947309AF
:105900008EE7D8018C9362E370E080E090E00E9423
:105910007309B701C8010E945C5962E370E080E03E
:1059200090E00E9473098091B50A882339F086E2DD
:1059300093E00E944E1FC8010E94BC1C81E8C55123
:10594000DF4F28813981CB5ED040829FF001839F59
:10595000F00D1124E356FD4E20A98091AD0A81502F
:10596000990BC551DF4F48815981CB5ED040481714
:10597000590709F4A1C0222309F47FC01F930F9394
:10598000C851DF4F88819981C85ED04083539D4EB6
:105990009F938F937F926F9280E393E09F938F9377
:1059A0005F924F920E94B6598DB79EB70A960FB676
:1059B000F8949EBF0FBE8DBF8091B50A882319F061
:1059C000C2010E94BC1C64E670E080E090E00E948E
:1059D0007309B2018FE792E10E94242362E370E031
:1059E00080E090E00E947309CD50DF4F48815981DB
:1059F000C35FD0400FB6F8945EBF0FBE4DBF64E1E9
:105A000070E080E090E00E947309CF50DF4FA881E2
:105A1000B981C15FD0400FB6F894BEBF0FBEADBF15
:105A200062E370E080E090E00E94730991100BC087
:105A3000B2018FE792E10E94242362E370E080E0EC
:105A400090E00E9473090E942B0662E370E080E000
:105A500090E00E94730964EF71E080E090E00E94A2
:105A60007309C651DF4F5881CA5ED0405F5FC6518F
:105A7000DF4F5883CA5ED04084CB85E0E9E5F3E090
:105A8000D10101900D928A95E1F71F930F933F92F8
:105A90002F927F926F9280E393E09F938F935F9218
:105AA0004F920E94B659ADB7BEB71A960FB6F8948A
:105AB000BEBF0FBEADBF80CF2223F9F01F930F935F
:105AC000C851DF4F88819981C85ED04083539D4E75
:105AD0009F938F937F926F9289E393E09F938F932D
