:100000000C9440060C9464550C9439550C940E5580
:100010000C94E3570C946A060C946A060C946A06D6
:100020000C946A060C946A060C946A060C946A0690
:100030000C946A060C948F550C946A060C946A060C
:100040000C946A060C946A060C94C4540C946A06C8
:100050000C948F540C9465540C946A060C946A06A4
:100060000C946A060C946A060C94BF560C946A06AB
:100070000C9430540C9406540C946A060C946A0642
:100080000C946A060C946A060C946A062B4352453B
:10009000473A200041542B435245473F0052656781
:1000A0006973746572656420726F616D696E670053
:1000B000556E6B6E6F776E0044656E696564004EB9
:1000C0006F74207265676973746572656420287344
:1000D0006561726368696E67290052656769737448
:1000E000657265642028686F6D6529004E6F742005
:1000F00072656769737465726564003A20004E65C5
:1001000074776F726B20737461747573200047503D
:100110005253206F6E004552524F523A2047505270
:1001200053206661696C656420746F207475726E0B
:10013000206F6E005475726E696E672063656C6C1B
:10014000206D6F64756C65206F66662E2E2E0052D2
:10015000535349202864426D293A202D00456E747E
:1001600065722027782720617420616E7920746978
:100170006D6520746F2073746F70005475726E69B2
:100180006E672063656C6C206D6F64756C65206FA5
:100190006E2E2E2E004552524F523A204C6F6E67F3
:1001A000697475646520696E636F7272656374212A
:1001B000004552524F523A204C617469747564651F
:1001C00020696E636F727265637421004552524FED
:1001D000523A20496E76616C69642075706C6F616B
:1001E0006420696E74657276616C2028657665722C
:1001F000792031206F72203420686F757273290066
:100200004552524F523A20496E76616C69642069BA
:100210006E74657276616C2028657665727920311E
:10022000352C2032302C2033302C206F7220363089
:10023000206D696E73290070726F6A65637449443A
:100240003A20002020696E707574206D696E757497
:10025000653A20002020696E70757420686F757291
:100260003A202020002020696E7075742079656125
:10027000723A202020002020696E7075742064611D
:10028000793A20202020002020696E707574206D3E
:100290006F6E74683A20200053796E6368726F6ED7
:1002A000697A6174696F6E206661696C65642E207D
:1002B000506C6561736520656E7465722074696D3C
:1002C00065206D616E75616C6C7920696E20555486
:1002D000433A200053796E6368726F6E697A696E73
:1002E0006720636C6F636B20746F204E49535420FA
:1002F000736572766572202E2E2E2000446566612D
:10030000756C7420726164696F2049442061636375
:10031000657074656400526164696F20494420759A
:1003200070646174656400456E746572206E6577F3
:1003300020726164696F2049443A200020456E7440
:1003400065722027792720666F72207965732C20CB
:10035000276E2720666F72206E6F3A2000576F75E8
:100360006C6420796F75206C696B6520746F2063F5
:1003700068616E67652074686520726164696F20CA
:1003800049442066726F6D207468652064656661FB
:10039000756C742076616C75653F00456E7465728E
:1003A0002074686520486F6C6F6772616D206465AA
:1003B00076696365206B657920666F722074686961
:1003C0007320476174657761793A2000456E7465E2
:1003D000722074686520726164696F2049442066E8
:1003E0006F72204E6F64652000293F00496E766170
:1003F0006C6964206E756D626572206F66206E6F29
:100400006465732E2020486F77206D616E79206EB1
:100410006F6465732061726520617420746869730C
:10042000207369746520286D61782E00486F7720ED
:100430006D616E79206E6F646573206172652061F5
:10044000742074686973207369746520286D6178FD
:100450002E2000496E76616C696420696E74657245
:1004600076616C2E20506C6561736520656E7465D5
:10047000722031206F7220342E00456E7465722018
:10048000223122206F72202234223A2000536574D8
:100490002075706C6F616420696E74657276616C32
:1004A00020746F2031206F72203420686F75727352
:1004B0002E00496E76616C696420696E746572768F
:1004C000616C2E20456E746572206D656173757266
:1004D000656D656E7420696E74657276616C202836
:1004E00031302C2031352C2032302C2033302C2050
:1004F0006F72203630293A2000456E746572206D87
:100500006561737572656D656E7420696E74657270
:1005100076616C202831302C2031352C2032302C63
:100520002033302C206F72203630206D696E732995
:100530003A2000496E76616C696420696E74657258
:1005400076616C2E20456E746572206D65617375E1
:1005500072656D656E7420696E74657276616C206B
:100560002831302C2031352C2032302C2033302CC7
:10057000206F72203630293A2000456E7465722053
:100580006D6561737572656D656E7420696E7465F5
:100590007276616C202831302C2031352C2032309D
:1005A0002C2033302C206F72203630206D696E7312
:1005B000293A200045786974002020456E746572E0
:1005C00020612050726F6A65637420494420287549
:1005D0007020746F20352063686172616374657286
:1005E000732C2065783A20505341293A20004578F1
:1005F00069740045726173652053442063617264BD
:100600003A20005072696E742064617461206669DA
:100610006C65733A200053617665642066696C6589
:10062000733A20004552524F523A2075706C6F61F8
:100630006420696E74657276616C206D75737420C8
:10064000626520656E746572656420666972737494
:100650002E2052657475726E696E6720746F206DFE
:10066000656E752E2E2E0041726520796F75207390
:1006700075726520796F752077616E7420746F20B4
:1006800065726173653F20456E74657220792F6EC7
:100690003A20004C61742F6C6F6E672076616C7528
:1006A00065732077696C6C20617070656172206180
:1006B00073202D39393939393939393920696E2062
:1006C000746865206461746120737472696E672E4A
:1006D000004552524F523A204C6F6E6769747564F0
:1006E0006520696E636F727265637421004C6F6E72
:1006F0006769747564653A20004552524F523A203A
:100700004C6174697475646520696E636F7272659B
:10071000637421004C617469747564653A200053F8
:10072000656C656374206F7074696F6E3A20002089
:10073000202030203C2D2D204572617365204C61B6
:10074000742F4C6F6E672076616C75657300202086
:100750002031203C2D2D20456E746572204C617433
:100760002F4C6F6E672076616C75657300456E74F3
:10077000657220636F6E66696775726174696F6E0A
:1007800020737472696E673A2000456E746572203A
:1007900063686F6963653A20002020207820203C40
:1007A0002D2D202045786974206D656E7500202000
:1007B000206520203C2D2D20204572617365206D21
:1007C0006963726F5344206361726400202020705B
:1007D00020203C2D2D20205072696E74206E6F6495
:1007E00065206461746120746F2073637265656E47
:1007F000002020206620203C2D2D202053656520E0
:100800006C697374206F6620736176656420666915
:100810006C6573002020206D20203C2D2D2020535E
:100820006574206D6561737572656D656E742069A0
:100830006E74657276616C002020207520203C2D3E
:100840002D202053657420646174612075706C6F75
:10085000616420746F20636C6F756420696E7465C9
:100860007276616C002020206E20203C2D2D2020EF
:10087000456E746572204E6F646520726164696FA5
:1008800020494473002020206420203C2D2D20206E
:10089000456E74657220486F6C6F6772616D20449D
:1008A0006576696365204B657900202020672020EC
:1008B0003C2D2D20204368616E676520476174657B
:1008C00077617920726164696F204944002020209B
:1008D0006C20203C2D2D2020456E746572206F7297
:1008E000206572617365204C61742F4C6F6E6720B8
:1008F00076616C756573002020206920203C2D2DC9
:100900002020456E7465722070726F6A6563742072
:100910004944002020206320203C2D2D20205365B9
:100920007420636C6F636B20746F204E49535420A6
:1009300074696D65002020203020203C2D2D202062
:10094000456E74657220636F6E6669677572617457
:10095000696F6E20737472696E67002020203120E9
:10096000203C2D2D202043656C6C756C61722053EA
:1009700069676E616C2053636F7574696E67204D93
:100980006F6465004D656E75206F7074696F6E736E
:10099000200043757272656E7420626174746572B2
:1009A0007920766F6C746167653A20200030003AD8
:1009B0000030003A002D002D0043757272656E7490
:1009C000206461746520262074696D653A200055A5
:1009D000706C6F616420696E74657276616C20283A
:1009E000687273293A20004D6561737572656D6593
:1009F0006E7420496E74657276616C3A20004461B1
:100A000074612066696C653A20004E6574776F7278
:100A10006B6564204E6F6465204944733A2000235F
:100A2000206F66206E6F6465733A200044657669B6
:100A30006365206B65793A20004761746577617959
:100A400020526164696F2049443A20004C61742F40
:100A50006C6F6E673A200050726F6A65637420494C
:100A6000443A20004C6F526120526164696F204605
:100A700072657120284D487A293A200053657269C1
:100A8000616C204E756D6265723A20005665727316
:100A9000696F6E2000536F696C2057617465722016
:100AA00044617461204E6574776F726B202D204312
:100AB000656C6C756C617220476174657761790053
:100AC0007C3C3E5E2B3D3F2F5B5D3B2C2A225C0035
:100AD00072740092740048940078C40000002100F1
:100AE000240027002A0000002200250028002B00F7
:100AF0000000200023002600290002020202020258
:100B000002020404040404040404030303030303AF
:100B10000303010101010101010101020408102088
:100B200040800102040810204080010204081020C7
:100B300040800102040810204080000000010200F3
:100B4000090A00000000040308070000000000007C
:100B5000000000000000000000002B4353513A2029
:100B60000041542B4353510041542B43504D533DAE
:100B700022534D222C22534D222C22534D2200531E
:100B8000494D3830304800093C2D2D2D2000092DCD
:100B90002D2D3E200053494D434F4D5F53494D3558
:100BA000333230450053494D434F4D5F53494D3526
:100BB000333230410053494D383030205231330008
:100BC00053494D383038205231330053494D383075
:100BD000382052313400093C2D2D2D2000092D2DB7
:100BE0002D3E200041542B435648553D3000415482
:100BF00045300041544530004154004154004154B7
:100C00000054696D656F75743A204E6F207265737C
:100C1000706F6E736520746F2041542E2E2E206CE1
:100C200061737420646974636820617474656D70A5
:100C3000742E0041540041540041540041747465C5
:100C40006D7074696E6720746F206F70656E2063BD
:100C50006F6D6D20776974682041547300093C2DD5
:100C60002D2D2000092D2D2D3E20004F4B00464FED
:100C70004E4100464F4E416E65740000FF57A85D1F
:100C800011241FBECFEFD0E4DEBFCDBF1DE0A0E03A
:100C9000B1E0E0E6FEEC00E00BBF02C007900D9271
:100CA000A032B107D9F722E2A0E2BDE001C01D9257
:100CB000A932B207E1F716E0CFE3D6E004C02197EE
:100CC000FE010E940C63CE33D107C9F70E94D559AB
:100CD0000C9423670C94000008950895982F209198
:100CE000A51881E0213208F043C08091A418811139
:100CF000FCCF80919D1832E03093A4189093A318F4
:100D00009FEF90937B1810927A1820937918ADE793
:100D1000B8E1E9E5F8E190E0291331C010925818E4
:100D200090915818880F892B809358188091A21899
:100D3000813049F51092A218809158188093BB0019
:100D40008091BC0083FDF8CF85EC8093BC0080913E
:100D5000A4188230E1F380917B188F3FB1F080912D
:100D60007B188032A1F080917B18803391F084E071
:100D70001092A6181092A51810927C1808953D9113
:100D800031939F5FC9CF85EEE0CF80E0F1CF82E065
:100D9000EFCF83E0EDCF9091A4189111FCCF91E0BB
:100DA0009093A4189093A3182FEF20937B18109280
:100DB0007A18260F20937918909358189091581804
:100DC000880F892B809358188091A2188130F9F4EC
:100DD0001092A218809158188093BB008091BC009B
:100DE00083FDF8CF85EC8093BC008091A4188130FE
:100DF000E1F380917A18861710F460917A18A9E5CA
:100E0000B8E1E8E3F8E180E0861303C0089585EED9
:100E1000EACF9D9191938F5FF7CF0F931F93CF935D
:100E2000DF93EC019A01AB01E889F98982E08083C4
:100E3000EC85FD8510820E851F8560E874E88EE1E3
:100E400090E00E948861215031094109510956956D
:100E5000479537952795F8012083188EEC89FD89F1
:100E600086E08083EA89FB89808180618083EA89CA
:100E7000FB89808188608083EA89FB898081806822
:100E80008083EA89FB8980818F7D8083DF91CF9188
:100E90001F910F9108958091B41E9091B51EDC01B1
:100EA000ED91FC910484F585E02D0994FF920F9358
:100EB0001F93CF93DF938C01F62EC4EBDEE1888184
:100EC0009981DC01ED91FC910488F589E02D642F76
:100ED000099588819981DC01ED91FC910680F7816B
:100EE000E02D4F2DB801DF91CF911F910F91FF9011
:100EF0000994E82FF0E0EE0FFF1FE45DFE4F7183D1
:100F00006083813049F0823071F0809169008360A4
:100F100080936900E89A0895809169008C608093BD
:100F20006900E99A0895809169008063809369005F
:100F3000EA9A0895EF92FF920F931F93CF93DF9356
:100F40008C017B01D0E0C0E0F701EC0FFD1F649144
:100F5000662361F0D801ED91FC910190F081E02DC4
:100F6000C8010995892B11F02196EECFCE01DF91B2
:100F7000CF911F910F91FF90EF900895AF92BF9284
:100F8000CF92DF92EF92FF920F931F93CF93DF9355
:100F90006C017B018B01040F151FEB015E01AE1884
:100FA000BF08C017D10759F06991D601ED91FC91A6
:100FB0000190F081E02DC6010995892B79F7C501D3
:100FC000DF91CF911F910F91FF90EF90DF90CF9025
:100FD000BF90AF900895FC01538D448D252F30E0D4
:100FE000842F90E0821B930B541718F081509F4F71
:100FF000089501970895FC01918D828D981759F0FD
:10100000A28DAE0FBF2FB11D5D968C91928D9F5F0B
:10101000928F90E008958FEF9FEF0895FC01918DDE
:10102000828D981731F0828DE80FF11D858D90E04B
:1010300008958FEF9FEF0895FC01918D828D981B8D
:10104000892F90E0089589EA98E10E941C0821E028
:10105000892B09F420E0822F089586EC9AE10E9402
:101060001C0821E0892B09F420E0822F0895CF93FA
:10107000DF93EC01E881F9810680F781E02D099585
:10108000EA89FB8980818F7E8083EA89FB89808160
:10109000877F8083EA89FB8980818F778083EA89D3
:1010A000FB8980818F7D80838A8D898FDF91CF91AD
:1010B0000895FC01A48DA80FB92FB11DA35EBE4FEA
:1010C0009C91848D8F5F848FA689B7899C93A0891A
:1010D000B1898C91837080648C93938D848D9813E7
:1010E00006C00288F389E02D80818F7D808308957A
:1010F0000F931F93CF93DF93EC0181E0888F9B8D3B
:101100008C8D981318C0E889F989808185FF13C0F8
:101110009FB7F894EE89FF896083E889F989808117
:101120008370806480839FBF81E090E0DF91CF91E6
:101130001F910F910895062F1B8D1F5F8C8D8113BA
:101140000CC00FB607FCFACFE889F989808185FFCA
:10115000F5CFCE010E945908F1CFEB8DEC0FFD2F9A
:10116000F11DE35EFE4F00839FB7F8941B8FEA8961
:10117000FB8980818062D6CF682F86EC9AE10C943F
:101180007808CF93DF93EC01888D8823B9F0AA8982
:10119000BB89E889F9898C9185FD03C0808186FD32
:1011A0000DC00FB607FCF7CF8C9185FFF2CF808181
:1011B00085FFEDCFCE010E945908E9CFDF91CF9195
:1011C000089580E090E0892B29F00E942D0881117C
:1011D0000E94000080E090E0892B29F00E94230803
:1011E00081110C940000089581508A3080F5E82F19
:1011F000F0E0E350F74F0C940C631109150907094F
:101200000D092709270918091E09220928098091B3
:1012100080008F77809380000895809180008F7D7B
:10122000F9CF84B58F7784BD089584B58F7DFBCFCA
:101230008091B0008F778093B00008958091B000C6
:101240008F7DF9CF809190008F77809390000895E3
:10125000809190008F7DF9CFCF93DF93282F30E0DE
:10126000F901E65CF44F8491F901E65EF44FD49104
:10127000F901E650F54FC491CC23A1F081110E94F1
:10128000F408EC2FF0E0EE0FFF1FE051F54FA591B1
:10129000B491EC91ED2381E090E009F480E0DF91DE
:1012A000CF91089580E090E0FACF1F93CF93DF9322
:1012B000282F30E0F901E65CF44F8491F901E65EF5
:1012C000F44FD491F901E650F54FC491CC23A9F025
:1012D000162F81110E94F408EC2FF0E0EE0FFF1F93
:1012E000EA51F54FA591B4918FB7F894EC91111193
:1012F00008C0D095DE23DC938FBFDF91CF911F9183
:101300000895DE2BF8CF1092A8181092A71810920B
:10131000A6181092A5181092A41881E08093A31823
:101320001092A21861E081E10E94550961E080E11C
:101330000E945509E9EBF0E080818E7F80838081F7
:101340008D7F808380E28093B80085E48093BC0029
:101350008CE696E09093A1188093A0188DE696E015
:1013600090939F1880939E180895CF93DF9390E0F9
:10137000FC01E65EF44F24918650954FFC01849168
:101380008823D1F090E0880F991FFC01E452F54FBB
:10139000A591B491FC01EA51F54FC591D491611129
:1013A0000EC09FB7F8948C91E22FE0958E238C931A
:1013B0002881E223E8839FBFDF91CF9108958FB703
:1013C000F894EC91E22BEC938FBFF6CF883108F0C4
:1013D00088518770806480937C0080917A0080645B
:1013E00080937A0080917A0086FDFCCF809178000E
:1013F0009091790008953FB7F89480913C0E9091B8
:101400003D0EA0913E0EB0913F0E26B5A89B05C0A3
:101410002F3F19F00196A11DB11D3FBFBA2FA92F73
:10142000982F8827BC01CD01620F711D811D911D70
:1014300043E0660F771F881F991F4A95D1F70895DB
:101440008F929F92AF92BF92CF92DF92EF92FF92D4
:101450004B015C010E94FB096B017C010E94FB09AE
:101460006C197D098E099F09683E734081059105BD
:10147000A8F321E0821A9108A108B10888EEC80EED
:1014800083E0D81EE11CF11C81149104A104B10475
:1014900029F7FF90EF90DF90CF90BF90AF909F9093
:1014A0008F900895FF920F931F93CF93DF93F82EA1
:1014B00004EF11E0D0E0C0E08091B21E9091B31E25
:1014C000DC01ED91FC910084F185E02D0995892BDB
:1014D000C9F08091B21E9091B31EDC01ED91FC9198
:1014E0000284F385E02D09958D3031F38A3021F4A3
:1014F000209711F3FF2091F0FE01E656F24E868709
:101500002196DACF0150110949F061E070E080E0E6
:1015100090E00E94200ACE3FD10570F2FE01E6560F
:10152000F24E16868C2FDF91CF911F910F91FF9075
:1015300008952FB7F8946091380E7091390E80910C
:101540003A0E90913B0E2FBF08950895885E9E4FEE
:10155000DC018D919C91DC01ED91FC910680F7817D
:10156000E02D0994885E9E4FDC018D919C91DC01F9
:10157000ED91FC910484F585E02D0994885E9E4FE1
:10158000DC018D919C91DC01ED91FC910284F3854D
:10159000E02D0994885E9E4FDC018D919C91DC01C9
:1015A000ED91FC910190F081E02D0994885E9E4FB1
:1015B000DC018D919C91DC01ED91FC910084F18521
:1015C000E02D0994CF93DF9390E080E0EC01219629
:1015D0008897A8F48AE99DE10E94D60A892B39F000
:1015E0008AE99DE10E94BE0AD0E0C0E0F3CF61E04D
:1015F00070E080E090E00E94200ACE01E7CFDF910A
:10160000CF9108958BEF0895CF93DF93FC01228152
:1016100033812230310569F0EC01638D818D0E94A8
:10162000550960E0888D0E94550982E090E09B8317
:101630008A83DF91CF910895FF920F931F93CF93E9
:10164000DF93EC01162FF42E0FB7F89460E08F892A
:101650000E9455098D899E89612F6068DC01ED919A
:10166000FC910190F081E02D0995182F8D899E89BC
:10167000DC01ED91FC910190F081E02D6F2D099539
:1016800061E08F890E9455090FBF812FDF91CF91B3
:101690001F910F91FF9008950F931F93CF938C018B
:1016A000C62F44E06DE40E941C0B4BEF4C0F4068CA
:1016B00069E0C801CF911F910F910C941C0BCF933F
:1016C000DF93FC01228133812130310549F0EC01A7
:1016D00040E061E00E941C0B81E090E09B838A83E4
:1016E00081E0DF91CF910895CF93DF93FC012281B8
:1016F00033812230310549F0EC0141E061E00E9484
:101700001C0B82E090E09B838A83DF91CF91089548
:10171000CF92DF92EF92FF92CF93DF93EC01CB0158
:10172000BA0120E034E244E759E40E94826020E0FC
:1017300034E244E752E40E9426620E949F626B01F9
:101740007C01A7016627772766E0CE010E941C0B6B
:1017500077276F2D5E2D4D2D67E0CE010E941C0B6B
:101760004C2D68E0CE010E941C0B81E0DF91CF91EF
:10177000FF90EF90DF90CF900895CF92DF92EF929D
:10178000FF920F931F93CF93DF934C3F08F067C0F6
:10179000142F072FF62EEC01E881F9810484F585DA
:1017A000E02D0995CE010E94740B40E06DE0CE0162
:1017B0000E941C0B4A8560E0CE010E941C0B4B85E9
:1017C00060E0CE010E941C0B4C8560E0CE010E94BF
:1017D0001C0B4D8560E0CE010E941C0BEFB6F89407
:1017E00060E08F890E9455098D899E89DC01ED9109
:1017F000FC910190F081E02D60E80995CF2CD02E6E
:10180000012F015068F08D899E89F60161916F0169
:10181000DC01ED91FC910190F081E02D0995F1CF73
:1018200061E08F890E945509EFBE44E0410F62E2FA
:10183000CE010E941C0B8A819B81039771F043E0CB
:1018400061E0CE010E941C0B40E460E4CE010E94E6
:101850001C0B83E090E09B838A8381E001C080E0E1
:10186000DF91CF911F910F91FF90EF90DF90CF907C
:101870000895CF93DF93FC0122813381233031051A
:10188000C9F0EC0182819381049771F045E061E039
:10189000CF010E941C0B40E060E4CE010E941C0BB3
:1018A00084E090E09B838A83C65EDE4F8881DF916F
:1018B000CF91089580E0FBCF0F931F93CF93DF93D9
:1018C000EC01162F0FB7F89460E08F890E9455093C
:1018D0008D899E89DC01ED91FC910190F081E02DD4
:1018E000612F09958D899E89DC01ED91FC91019014
:1018F000F081E02D60E00995182F61E08F890E944A
:1019000055090FBF812FDF91CF911F910F9108953E
:10191000DF92EF92FF920F931F93CF93DF93EC012F
:1019200062E10E945C0C2A813B8124303105A1F4E4
:10193000982F907A89F08F8598890196988B8F8758
:101940004FEF62E1CE01DF91CF911F910F91FF9098
:10195000EF90DF900C941C0B2A813B8124303105E1
:1019600011F486FD0DC02A813B812330310541F7FA
:1019700083FFE6CF8B899C8901969C8B8B8B67C0FC
:1019800063E1CE010E945C0C082F60E1CE010E9451
:101990005C0C482F6DE0CE010E941C0BDFB6F89462
:1019A00060E08F890E9455098D899E89DC01ED9147
:1019B000FC910190F081E02D60E009957E01BBE192
:1019C000EB0EF11C102F115070F08D899E89DC01F7
:1019D000ED91FC910190F081E02D60E00995F70117
:1019E00081937F01F0CF61E08F890E945509DFBEAE
:1019F0000A8F4FEF62E1CE010E941C0B6AE1CE011B
:101A00000E945C0C89588E878A8DFE01E65EFE4F2F
:101A10008430C8F08B8D8E838C8D8F838D8D8887DD
:101A20008E8D89878D81811107C09E818C81981749
:101A300019F08E818F3F39F489899A8901969A8BA2
:101A4000898B81E080838081882309F479CFCE015E
:101A50000E94740B75CF8091350E9091360E0097D1
:101A600011F00C94880C08958091330E9091340EEF
:101A7000009711F00C94880C08958091310E90918C
:101A8000320E009711F00C94880C0895CF93DF93D9
:101A9000EC018D899E89DC01ED91FC910680F78136
:101AA000E02D099561E08F890E94B50961E08F8979
:101AB0000E94550964E670E080E090E00E94200AF0
:101AC00081E0DF91CF910895FF920F931F93CF9301
:101AD000DF931F92CDB7DEB7F42E04EB1EE1D801E1
:101AE0008D919C91DC01ED91FC91008CF18DE02DAC
:101AF0000995F80180819181DC01ED91FC91028CC6
:101B0000F38DE02D40E060E8099581E289834F2D57
:101B100061E0CE0101960E9456070E944B070F908C
:101B2000DF91CF911F910F91FF900895CF92DF9297
:101B3000EF92FF920F931F93CF93DF93EC018B01F2
:101B40007A0169018091B41E9091B51EDC01ED917E
:101B5000FC910280F381E02D099581110BC010E00A
:101B6000812FDF91CF911F910F91FF90EF90DF9028
:101B7000CF9008958091B41E9091B51EDC01ED9137
:101B8000FC910480F581E02DA701B8010995182F7B
:101B9000882329F38091B41E9091B51EDC01ED914C
:101BA000FC9100A0F1A1E02D0995F82E8091B41EC2
:101BB0009091B51EDC01ED91FC91068CF78DE02D26
:101BC0000995E82E8091B41E9091B51EDC01ED912F
:101BD000FC9102A0F3A1E02D0995082F8091B41E7D
:101BE0009091B51EDC01ED91FC9104A0F5A1E02DD2
:101BF000099587FDB4CFBFEFEB1629F04F2D602F6D
:101C0000CE010E94640DCF0DD11D8B85801709F484
:101C1000A6CFF601F0820B87A3CF9FB7F8948091EF
:101C20002F0E882319F0815080932F0E80912F0E54
:101C3000811105C08CB58F7B8CBD109225169FBF7E
:101C400008958CB58F778CBD08958CB580688CBD58
:101C50000895FC01738362830895FC017783668392
:101C60000895FC01758364830895089580E00895C4
:101C7000FC0181850895FC0180850895FC01878120
:101C80000895FC01868108954095FC012585422335
:101C9000642B65870895FC0164870895FC016387C0
:101CA0000895FC0162870895FC0164830895FC0196
:101CB000658308958F929F92AF92BF92CF92DF92E9
:101CC000EF92FF92CF93DF93EC016B010E94990A90
:101CD0004B015C01F12CE12C0E94990A68197909E9
:101CE0008A099B096C157D058E059F0580F48A8104
:101CF0009B81039789F381E0DF91CF91FF90EF9073
:101D0000DF90CF90BF90AF909F908F90089580E02C
:101D1000F3CFFC012281338123303105D1F381E0FF
:101D200008958F929F92AF92BF92CF92DF92EF92DF
:101D3000FF92CF93DF93EC016B010E94990A4B0154
:101D40005C01F12CE12C0E94990A681979098A0931
:101D50009B096C157D058E059F05A0F4E881F9812E
:101D60000280F381E02DCE010995882361F3DF9194
:101D7000CF91FF90EF90DF90CF90BF90AF909F906A
:101D80008F90089580E0F3CFCF93DF93EC01E8814B
:101D9000F9810280F381E02DCE0109958823B9F302
:101DA000DF91CF91089581E008951F93CF93DF9342
:101DB000EC01162F88819981DC01ED91FC9102885C
:101DC000F389E02D099588819981DC01ED91FC91E1
:101DD0000688F789E02D612F09951A83DF91CF914D
:101DE0001F910895CF92DF92EF92FF920F931F936E
:101DF000CF936B017C01142F8091B41E9091B51E7E
:101E0000DC01ED91FC910190F081E02D0995C82F46
:101E1000882309F16091B61E84EB9EE10E94D50EE5
:101E200088E790E09093BD1E8093BC1E83E0809372
:101E3000BE1E612F84EB9EE10E94D50E0091B41E60
:101E40001091B51EB701A601C8010E94880B61E17F
:101E5000C8010E944C0B8C2FCF911F910F91FF90C6
:101E6000EF90DF90CF90089585ED8093BC00809136
:101E7000BC0084FDFCCF1092A418089520910C0E94
:101E8000260F3327331F21323105ECF42091A4189B
:101E9000FC0190E080E0243069F082E00895A09198
:101EA0000C0E2191AC014451524FA40FB52FB11D1E
:101EB0002C930196861798F380910C0E680F60930F
:101EC0000C0E80E0089581E008950895E091A8182F
:101ED0008091A718E81730F4F0E0E85CF74E8081B5
:101EE00090E008958FEF9FEF08959091A81880914A
:101EF000A7182FEF3FEF981748F4E92FF0E0E85CC0
:101F0000F74E208130E09F5F9093A818C901089593
:101F10008091A7189091A818891B990B0895CF92CA
:101F2000DF92EF92FF920F931F93CF93DF937C0189
:101F3000CB018A0120917C18222389F0EB016B01EF
:101F4000C40ED51ECC15DD0569F06991D701ED9160
:101F5000FC910190F081E02DC7010995F3CF642F2A
:101F60000E943E0FC801DF91CF911F910F91FF900A
:101F7000EF90DF90CF900895CF93DF931F92CDB76E
:101F8000DEB7698320917C182223F9F02091A518EF
:101F9000203258F021E030E0FC013383228390E0CE
:101FA00080E00F90DF91CF9108958091A618E82FDF
:101FB000F0E0E358F74E998190838F5F8093A618E5
:101FC0008093A51881E090E0ECCF61E0CE0101960E
:101FD0000E943E0FF7CFCF93C62F91E090937C18CD
:101FE00098E690939D181092A6181092A518682F45
:101FF00089E192E20E94BC0F6C2F89E192E20E947B
:10200000BC0F81E0CF910C946E06CF93CFB7F894BC
:1020100080912F0E811127C0EEEFFAE08491EEE15E
:10202000FBE09491E82FF0E0EE0FFF1FE452F54F34
:10203000A591B491EC91E92321F461E084E00E9440
:10204000550961E084E00E94B5098CB580618CBDC2
:102050008CB580648CBD61E087E00E94B50961E0C9
:1020600085E00E94B50980912F0E8F5F80932F0E1F
:10207000CFBFCF910895FC0126813781211531050D
:1020800091F12130310559F12230310551F12330E0
:10209000310549F52CE09CB5937F922B9CBD848142
:1020A0009581019711F58CB580628CBD82819381F9
:1020B000019784309105E0F484599E4FFC01908192
:1020C0008CB58C7F292F2370822B8CBD8DB592FB14
:1020D000992790F98E7F892B8DBD0C94051024E0F3
:1020E000DACF28E0D8CF20E0D6CF8CB58F7DDDCFFA
:1020F00095E0E6CF9FB7F894209125168091E60DE4
:10210000213019F48DBB9FBF08958FBF089561E002
:10211000FC0184810E9455098091E50D882339F0E6
:102120001092E50D8091251681110C947A10089576
:102130008EBD00000DB407FEFDCF8EB50895862F2D
:102140000C9498108FEF0C9498100F931F93CF93CB
:10215000DF93EC010E94990A8B010E94A2108F3F2D
:1021600069F00E94990A601B710B6C177D07A8F338
:1021700080E0DF91CF911F910F91089581E0F9CF19
:1021800020912516222361F02FB7F894309125165F
:10219000313049F43DB33093E60D3DB33DBB2FBF25
:1021A0008CBD9DBD08952093E60DFACFCF93DF93AC
:1021B000EC018091E50D811109C081E08093E50D6E
:1021C0008091E31C9091E41C0E94C01060E08C811F
:1021D000DF91CF910C9455098F929F92AF92BF924D
:1021E000FF920F931F93CF93DF93EC01F62E4901DB
:1021F0005A018E81882389F08F8198859C012F5FF9
:102200003F4F38872F838230924018F40E94A210EB
:10221000F3CFCE010E9487101E82CE010E94D610FD
:102220008CE291E00E94A5108F2D80640E9498108E
:1022300008E110E0D501C401002E04C0B695A795B1
:10224000979587950A94D2F70E9498100850110923
:10225000083F8FEF180771F785E9FF2021F028E08C
:1022600087E8F2128FEF0E94981010E00E94A210EF
:102270008A8787FF04C01F3F11F01F5FF7CFDF91F0
:10228000CF911F910F91FF90BF90AF909F908F9033
:102290000895AF92BF92CF92DF92EF92FF920F9389
:1022A0001F93CF93DF93EC016901C801820F931F45
:1022B0008130924050F58E81882379F08881998110
:1022C000AA81BB8184179507A607B70731F48F81D0
:1022D0009885C816D90608F042C0488359836A8396
:1022E0007B838B85833039F089E0440F551F661F4F
:1022F000771F8A95D1F79A01AB0161E1CE010E9467
:10230000EC10882389F083E08D83CE010E94871032
:1023100080E0DF91CF911F910F91FF90EF90DF90C0
:10232000CF90BF90AF9008950E94990A5B010E94E0
:10233000A2108A878F3F69F40E94990A6A197B0963
:102340006D327140A0F38FE08D83CE010E94871023
:10235000DCCF8E3F89F418861F8281E08E838F81C7
:1023600098858C159D0550F40E94A2108F81988548
:10237000019698878F83F3CF8DE0E6CF6701E00E5B
:10238000F11E0E94A210F60181936F01EE15FF0568
:10239000C1F78F819885080F191F18870F838985CA
:1023A000882319F001151240A0F08E81882389F04E
:1023B0008F8198859C012F5F3F4F38872F83823014
:1023C000924018F40E94A210F3CFCE010E94871011
:1023D0001E8281E09ECFEF92FF920F931F93CF93C7
:1023E000DF93EC01790182E1411551056105710529
:1023F00099F08B85833039F089E0440F551F661FB3
:10240000771F8A95D1F79A01AB0168E1CE010E944E
:10241000EC10882319F084E08D8330C08EEF0E9489
:10242000981087018EEFF81AF80181918F010E94B0
:1024300098100E151F05C1F78FEF0E9498108FEFAF
:102440000E9498100E94A2108A878F71853089F4AB
:1024500088E592E00E94A5108823A9F020E030E0F2
:10246000A9016DE0CE010E94EC10882371F084E197
:10247000D3CF81E18D83CE010E948710CE010E94CF
:10248000871080E00AC085E1C7CF0E94A2108111A9
:10249000EECFCE010E94871081E0DF91CF911F9196
:1024A0000F91FF90EF900895CF93DF938091E70D08
:1024B0008823A9F1C0912616D091271640911D01BD
:1024C00050911E0160911F017091200128E236E1B8
:1024D000CE010E94EB11811104C080E0DF91CF9109
:1024E00008954091E80D5091E90D6091EA0D7091C9
:1024F000EB0D411551056105710579F028E236E1D2
:10250000CE010E94EB11882341F31092E80D109246
:10251000E90D1092EA0D1092EB0D1092E70D81E09B
:10252000DDCF8F929F92AF92BF92EF92FF920F9367
:102530001F93CF934B015C01C42F80911D0190919B
:102540001E01A0911F01B091200188159905AA05CF
:10255000BB0549F10E94541281110BC080E0CF915C
:102560001F910F91FF90EF90BF90AF909F908F9031
:10257000089588E2E82E86E1F82E00E012E030E0CF
:1025800020E0B501A40180912616909127160E94A3
:102590004911882319F380921D0190921E01A09287
:1025A0001F01B09220014091E70D4C2B4093E70DA5
:1025B00081E0D5CFCF93DF93EC016E857F8588894D
:1025C000998941E00E949112882351F08A8920E282
:1025D000829FC0011124885D994EDF91CF910895AB
:1025E00090E080E0FACF8F929F92AF92BF92CF920D
:1025F000DF92EF92FF92CF9325EE3CE130932716C6
:1026000020932616882309F46DC040E060E070E056
:10261000CB010E94911281110BC080E0CF91FF90FD
:10262000EF90DF90CF90BF90AF909F908F900895E4
:102630008091E6178F7789F78091F2179091F317C1
:10264000A091F417B091F51784369105A105B10555
:1026500020F3C090EE17D090EF17E090F017F090B5
:10266000F117C114D104E104F104B9F240E0C7014B
:10267000B6010E949112882381F2809133169091C5
:1026800034168115924049F6A0913816AA2329F2F2
:1026900060913616709137166115710509F4BDCF3A
:1026A00020913516222309F4B8CFA093031D20935F
:1026B000F51C90E080E030E0E1E0F0E0C82FAF01F1
:1026C000082E02C0440F551F0A94E2F7241735075D
:1026D00069F041E0480F01968930910579F7409300
:1026E000FE1C9BCFC12CD12C7601C0CF8093FE1C49
:1026F00020913E1630913F1650E040E02115310503
:1027000041F420914C1630914D1640914E16509147
:102710004F162093F61C3093F71C4093F81C5093EF
:10272000F91C46015701860E971EA11CB11C809210
:10273000041D9092051DA092061DB092071DE09108
:102740003916F0913A16F0930A1DE093091DB0E096
:102750000E947561DC01CB01880D991DAA1DBB1D6E
:1027600080930B1D90930C1DA0930D1DB0930E1D17
:1027700025E0EE0FFF1F2A95E1F7E150FE4FEF2F06
:10278000FF27E6958E0F9F1FA11DB11D8093FF1C93
:102790009093001DA093011DB093021D80903B16E5
:1027A00090903C16B12CA12C8114910441F480909E
:1027B000481690904916A0904A16B0904B16C81A29
:1027C000D90AEA0AFB0AC80CD91CEA1CFB1C04C083
:1027D000F694E794D794C794CA95D2F7C092FA1C9E
:1027E000D092FB1CE092FC1CF092FD1C85EFC816F9
:1027F0008FE0D806E104F10428F48CE08093081DF2
:1028000081E00CCF80E125EFC2162FEFD206E10464
:10281000F104A0F38091541690915516A09156168C
:10282000B091571680930B1D90930C1DA0930D1D16
:10283000B0930E1D80E2E2CF4F925F926F927F9233
:102840008F929F92AF92BF92CF92DF92EF92FF92C0
:102850000F931F93CF93DF93EC0142305105610535
:10286000710590F480E0DF91CF911F910F91FF905F
:10287000EF90DF90CF90BF90AF909F908F907F9020
:102880006F905F904F90089589859A85AB85BC8540
:102890000196A11DB11D84179507A607B70710F370
:1028A000CB88DC88ED88FE888F89803109F042C0B2
:1028B000BB27A72F962F852F480159012A013B01DD
:1028C000C80ED91EEA1EFB1E80911D0190911E01AB
:1028D000A0911F01B0912001C816D906EA06FB0697
:1028E00099F58F898031C1F5B301A201552766277B
:1028F0007727440F551F485D594EFA019182808217
:102900008091E70D81608093E70D8A89823080F0A5
:102910008D819E81AF81B8858C0D9D1DAE1DBF1D23
:102920008093E80D9093E90DA093EA0DB093EB0D21
:1029300081E099CFDB01CA01E7E0B695A7959795AD
:102940008795EA95D1F7B8CF40E0C701B6010E945C
:1029500091128111C6CF86CFB301A2014F775527BF
:1029600066277727440F551F440F551F485D594E62
:10297000FA0180829182A282B382C2CF8F929F920B
:10298000AF92BF92CF92DF92EF92FF920F931F937D
:10299000CF93DF93FC0181859285A385B485019651
:1029A000A11DB11D84179507A607B70770F480E035
:1029B000DF91CF911F910F91FF90EF90DF90CF901B
:1029C000BF90AF909F908F90089583889488A5883A
:1029D000B6888789803189F5BB27A72F962F852F49
:1029E000E9016A017B018F01BC01CD01680D791DF0
:1029F0008A1D9B1D80901D0190901E01A0901F01BB
:102A0000B090200186169706A806B90601F5F801D0
:102A10008789803111F5DD24EE24FF24F601EE0FC5
:102A2000FF1FE85DF94E80819181B0E0A0E08883CE
:102A30009983AA83BB8381E0BBCFDB01CA01C7E0D6
:102A4000B695A79597958795CA95D1F7C9CF40E0D8
:102A50000E9491128111DBCFAACFE894C7F8DD2440
:102A6000EE24FF24F601EE0FFF1FEE0FFF1FE85DBF
:102A7000F94E80819181A281B381BF70D8CF4F92EE
:102A80005F926F927F92AF92BF92CF92DF92EF925E
:102A9000FF920F931F93CF93DF9300D000D0CDB759
:102AA000DEB78C0149835A836B837C835901C12C27
:102AB000D12C7601412C82E0582E612C712C498159
:102AC0005A816B817C819E012F5F3F4FC8010E941C
:102AD000BE14882339F1F8018585A301920104C051
:102AE000220F331F441F551F8A95D2F7DA01C901FF
:102AF000C80ED91EEA1EFB1E49815A816B817C815A
:102B00008789803111F188EF9FEFAFEFBFE0481761
:102B100059076A077B0798F2F501C082D182E282E9
:102B2000F38281E00F900F900F900F90DF91CF9183
:102B30001F910F91FF90EF90DF90CF90BF90AF90DB
:102B40007F906F905F904F90089588EF9FEFA0E087
:102B5000B0E0DDCFCF93DF93FC012581222321F06C
:102B600080E0DF91CF910895EC018091081D8031C4
:102B700059F582E08583178A108E118E128E80910E
:102B8000091D90910A1DB0E0A0E025E0880F991F73
:102B9000AA1FBB1F2A95D1F7838B948BA58BB68B6D
:102BA00081EF9CE19C8F8B8F81E08C831E821F8242
:102BB000188619861A861B861C861D861E861F8609
:102BC000188A198A1A8ACDCF803251F683E085831C
:102BD00040910B1D50910C1D60910D1D70910E1DAB
:102BE000478B508F618F728F9F012D5E3F4F81EF1A
:102BF0009CE10E943F158111D3CFB2CF8F929F925B
:102C0000AF92BF92CF92DF92EF92FF920F931F93FA
:102C1000CF93DF93EC018D8181110EC080E0DF91B5
:102C2000CF911F910F91FF90EF90DF90CF90BF90C9
:102C3000AF909F908F9008950B891C892D893E89B4
:102C4000041715072607370748F34A015B0182304E
:102C500031F48A869B86AC86BD8681E0E0CF811404
:102C60009104A104B10449F41E821F8218861986BA
:102C70001A861B861C861D86F0CF0A851B852C852F
:102C80003D85EB8DFC8D858590E00996B901A80105
:102C90004150510961097109082E04C07695679564
:102CA000579547950A94D2F775016401E1E0CE1A71
:102CB000D108E108F10804C0F694E794D794C794CA
:102CC0008A95D2F7C416D506E606F70620F0012B42
:102CD000022B032B11F58F89988DA98DBA8D8E83C8
:102CE0009F83A887B9878E010A5F1F4FC114D10443
:102CF000E104F10409F4ADCF4E815F8168857985E7
:102D000098018B8D9C8D0E94BE1491E0C91AD10848
:102D1000E108F1088111EACF81CFC41AD50AE60A89
:102D2000F70AE1CF3F924F925F926F927F928F921C
:102D30009F92AF92BF92CF92DF92EF92FF920F934A
:102D40001F93CF93DF93CDB7DEB72C970FB6F894D0
:102D5000DEBF0FBECDBF5C01DC015B968D909C9009
:102D60005C9716964D905D906D907C9019974114EC
:102D700051046104710409F468C0BFEF4B1A5B0A87
:102D80006B0A7B0A312CF40181859285A385B48579
:102D90009C01AD012F5F3F4F4F4F5F4F29873A870F
:102DA0004B875C87730162011D821E821F82188619
:102DB000F40181859285A385B4852D813E814F8163
:102DC0005885281739074A075B0708F056C08985D8
:102DD0009A85AB85BC858C159D05AE05BF0550F465
:102DE00082E0C82ED12CE12CF12C92E0492E512CFE
:102DF000612C712C9E012F5F3F4FB701A601C401CA
:102E00000E94BE148823C9F189819A81AB81BC815B
:102E1000892B8A2B8B2B09F1260137019FEF491A49
:102E2000590A690A790A2D813E814F8158852F5FA1
:102E30003F4F4F4F5F4F2D833E834F8358873FEF68
:102E4000C31AD30AE30AF30AB3CFF40140805180D6
:102E5000628073803324339496CFC414D504E6047F
:102E6000F70409F70FEF1FEF2FEF3FE0B701A601BF
:102E7000C4010E941C14811119C080E02C960FB669
:102E8000F894DEBF0FBECDBFDF91CF911F910F91A0
:102E9000FF90EF90DF90CF90BF90AF909F908F907A
:102EA0007F906F905F904F903F900895F50146811D
:102EB000578160857185411551056105710539F0AE
:102EC00097018601C4010E941C148823B1F2D50128
:102ED0001696CD92DD92ED92FC921997332051F027
:102EE000D701C6010196A11DB11DF4018083918314
:102EF000A283B383F5018789908DA18DB28D892B33
:102F00008A2B8B2B39F4C78AD08EE18EF28E848186
:102F10008068848381E0B2CF2F923F924F925F927C
:102F20006F927F928F929F92AF92BF92CF92DF92D9
:102F3000EF92FF920F931F93CF93DF93EC015B010E
:102F40002A018D81811115C08FEF9FEFDF91CF9105
:102F50001F910F91FF90EF90DF90CF90BF90AF90B7
:102F60009F908F907F906F905F904F903F902F90A9
:102F700008958C8180FFE8CF0B891C892D893E89BB
:102F80004A855B856C857D85C201B0E0A0E0680163
:102F90007901C41AD50AE60AF70AC816D906EA065C
:102FA000FB0618F42801441A550A42011E0126E0C6
:102FB000220E311C8114910409F4B3C04A855B854B
:102FC0006C857D856A0181E0D8228B8D9C8D8A017C
:102FD0009B01E9E03695279517950795EA95D1F776
:102FE000ED81E230E1F5FC01628D738D848D958D6C
:102FF000600F711F821F931F612C22E0722E6C18CC
:103000007D088614970408F434012C8126FD04C041
:103010006114F2E07F0671F400911D0110911E0110
:1030200020911F0130912001061717072807390743
:1030300009F053C040E00E949112882309F484CF24
:10304000C601885D994ED5019C01260D371DFC01F6
:103050002E173F0709F460C041914D93F9CFFC0151
:1030600074807A947022C114D10471F471100CC070
:10307000452B462B472B39F58F89988DA98DBA8D15
:103080008E839F83A887B987EB8DFC8D6E817F81AE
:10309000888599856250710981099109258504C047
:1030A000660F771F881F991F2A95D2F70685178507
:1030B00020893189600F711F821F931F670D711D59
:1030C000811D911D99CF4E815F8168857985910120
:1030D0000E94BE148111D8CF37CF750183019601AC
:1030E000AB01BC0180912616909127160E944911D0
:1030F000882309F429CFA60CB71C8A859B85AC854B
:10310000BD85860D971DA11DB11D8A879B87AC8744
:10311000BD87861897084ECF281B390BA20EB31E09
:10312000ECCFC20113CFCF93DF93EC018D818823C5
:1031300029F18C8187FF1EC0CE010E94DA12FC01AA
:10314000892BE1F08D81823040F48B899C89AD8997
:10315000BE89848F958FA68FB78F8F89988D938F17
:10316000828F8F89988DA98DBA8DB58BA48B8C8118
:103170008F778C83DF91CF910C94541280E0DF9194
:10318000CF910895CF93DF93EC010E949318882389
:1031900011F01D8281E0DF91CF910895CF92DF92EF
:1031A000EF92FF921F93CF93DF938091141D88239A
:1031B00021F08FE09DE10E94C2181092F01C109245
:1031C000EE1C1092EB1C1092EA1C83E08093E91C29
:1031D0000E94990AEB0161E08091E91C0E94B50907
:1031E00061E08091E91C0E9455090E94051082E56A
:1031F0008093E31C81E08093E41C8091E31C909118
:10320000E41C0E94C0101AE08FEF0E949810115029
:10321000D9F78091251681110E947A1085EE9CE1E4
:103220000E94D61020E030E0A90160E085EE9CE12C
:103230000E94EC10182F8093EF1C813081F00E94C7
:10324000990A6C1B7D0B613D774060F381E08093B0
:10325000EA1C85EE9CE10E94871090E078C02AEA83
:1032600031E040E050E068E085EE9CE10E94EC1027
:1032700082FF2AC01093F01C8091F01CC12CD12C2D
:103280007601823029F4C12CD12CE12C80E4F82E77
:1032900020E030E0A90167E385EE9CE10E94EC109C
:1032A000A701960169E285EE9CE10E94EC108093F3
:1032B000EF1C8823C1F00E94990A6C1B7D0B613DB5
:1032C000774030F388E0C3CF14E00E94A2108093CF
:1032D000EF1C1150D1F78A3A11F082E0B8CF82E0AA
:1032E0008093F01CC9CF8091F01C8230D1F420E093
:1032F00030E0A9016AE385EE9CE10E94EC1088238E
:1033000011F086E0A4CF0E94A210807C803C19F4CA
:1033100083E08093F01C0E94A2100E94A2100E94E1
:10332000A21085EE9CE10E94871080E58093E31C4B
:1033300081E08093E41C0E94F312882389F08FE0DF
:103340009DE10E94AA1591E0882309F486CF892F78
:10335000DF91CF911F91FF90EF90DF90CF90089574
:1033600080E00E94F312882309F477CFE8CF2F92F0
:103370003F924F925F926F927F928F929F92AF9205
:10338000BF92CF92DF92EF92FF920F931F93CF9352
:10339000DF9300D000D0CDB7DEB78C015B011A01FE
:1033A000DC0115968C911597813009F0C8C01496F0
:1033B0008C9181FFC4C082FDAEC06101D8011A9614
:1033C0004D915D916D917C911D97C114D10409F4CB
:1033D00029C15B968D919C915C97FC0174802FEFC5
:1033E000270D2A013B0139E076946794579447945E
:1033F0003A95D1F7722E74207A01F1E0FF22711014
:1034000020C0E114F104E9F416964D915D916D919F
:103410007C911997411551056105710509F098C016
:1034200057968D919D910D90BC91A02D0097A1056F
:10343000B10509F0AFC0C8010E949216882309F4B3
:103440007EC080E092E08E199F0946018C159D0593
:1034500008F44C01D8015B964D915C915C971696EF
:103460008D919D910D90BC91A02D0297A109B1095C
:10347000FA01258504C0880F991FAA1FBB1F2A9532
:10348000D2F74685578560897189840F951FA61FDD
:10349000B71F9C01AD01270D311D411D511D290193
:1034A0003A01811432E0930609F07AC080911D013F
:1034B00090911E01A0911F01B091200184159505E6
:1034C000A605B70559F48FEF9FEFDC0180931D012E
:1034D00090931E01A0931F01B09320019501B301A9
:1034E000A20180912616909127160E94EB11882345
:1034F00031F19EEFB91AC818D908F8018285938571
:10350000A485B585880D991DA11DB11D828793875E
:10351000A487B58753CFF801438954896589768993
:1035200082859385A485B585481759076A077B0767
:1035300009F443CFC8010E94FE1581113ECF81E0FE
:1035400090E0D80113969C938E93129780E007C069
:103550009E012F5F3F4F0E94BE14811102C090E078
:1035600077C089819A81AB81BC81F801238D348D2C
:10357000F901278948EF5FEF60E070E0203121F02A
:1035800048EF5FEF6FEF7FE084179507A607B70757
:1035900008F051CFF80186839783A087B18751CF78
:1035A000E114F10491F5D8011A964D915D916D9158
:1035B0007C911D9753968D919D910D90BC91A02D5E
:1035C000481759076A077B0700F10E9454128823A5
:1035D00009F4B5CF40921D0150921E0160921F0167
:1035E000709220018091E70D81608093E70D970133
:1035F000285D394ED501C901880D991DF9018E1735
:103600009F0759F04D914193FACF41E0C301B201B8
:103610000E9491128111EBCF92CF821B930BA80EC7
:10362000B91E69CFF80183899489A589B689841761
:103630009507A607B70738F48481438B548B658BB5
:10364000768B80688483F801848183FD18C0C10172
:103650000F900F900F900F90DF91CF911F910F91CE
:10366000FF90EF90DF90CF90BF90AF909F908F90A2
:103670007F906F905F904F903F902F900895C8017A
:103680000E949318882309F45ACFE1CFCF93DF9398
:103690001F92CDB7DEB7698341E050E0BE016F5F96
:1036A0007F4F0E94B7190F90DF91CF910895FC01D1
:1036B000DB0112968D919C9113979383828382EC08
:1036C00091E09183808314968C911497848315964E
:1036D0008C911597858316964D915D916D917C9196
:1036E000199746835783608771871A964D915D912C
:1036F0006D917C911D9742875387648775871E96CD
:103700004D915D916D917C91519746875787608B64
:10371000718B52968C915297828B53964D915D91FD
:103720006D917C915697438B548B658B768B579616
:103730004D915D916D917C915A97478B508F618F20
:10374000728F5B968D919C91948F838F0895DC018D
:103750005996ED91FC91309721F081E0958191117E
:1037600001C080E00895FC01818D928D009711F0D9
:103770000C9493180895DC015996ED91FC913097C3
:10378000B9F083899489A589B68942855385648572
:103790007585841B950BA60BB70B811520E8920746
:1037A000A105B10538F08FEF9FE7A0E0B0E00895E4
:1037B00090E080E00895CF93DF93EC01E98DFA8DDE
:1037C000309749F481E090E09B838A8390E080E029
:1037D000DF91CF91089513821282898D9A8D0E9474
:1037E000B719E98DFA8D22813381232B59F7F0CF58
:1037F000CF93DF931F92CDB7DEB76983DC01ED91E4
:10380000FC910280F381E02D41E050E0BE016F5F4A
:103810007F4F09950F90DF91CF910895CF93DF935C
:103820001F92CDB7DEB741E050E0BE016F5F7F4F22
:103830000E948C17019731F4898190E00F90DF91FD
:10384000CF9108958FEF9FEFF9CF1F93CF93DF9321
:10385000FC012581223030F490E080E0DF91CF91AF
:103860001F910895EC01428553856485758585E037
:1038700076956795579547958A95D1F7142F1F70C0
:10388000CF010E940E1C97FDE7CF8A859B85AC85F2
:10389000BD854F96A11DB11D8A879B87AC87BD87CB
:1038A000F0E21F9FC0011124885D994ED7CFFC0123
:1038B000818D928D009711F00C940E1C8FEF9FEF6D
:1038C00008950F931F93CF93DF93EC01898D9A8D09
:1038D00010E000E0009799F00E940E1C8C010F3F51
:1038E000100769F0898D9A8DFC01428553856485A6
:1038F000758541505109610971090E94FE15C80181
:10390000DF91CF911F910F910895CF93DF93EC0139
:10391000FB01828193819B838A8384819581A68127
:10392000B7818C839D83AE83BF8380859185A2857B
:10393000B38588879987AA87BB878EEC91E09983A6
:1039400088838DE03C96DE011C9601900D928A954D
:10395000E1F7FB01818D928D9A8F898FDF91CF9155
:103960000895CF92DF92EF92FF92CF93DF9360E0C2
:103970008DE10E94B5098DE10E94E609B0E0A0E06A
:10398000BC01CD01660F771F881F991F0E9421601F
:1039900023E333E343E550E40E94826020E030E01B
:1039A00048EC52E40E94826020E030E84FEF53E49C
:1039B0000E94BA6120E030EC4FE754E40E94266296
:1039C0000E949F62CB0164E670E00E94E462EB011A
:1039D000BC0190E080E00E94216020E030E048ECF3
:1039E00052E40E9426626B017C01BE0190E080E0FF
:1039F0000E9421609B01AC01C701B6010E94BA611F
:103A0000DF91CF91FF90EF90DF90CF90089560E02D
:103A100080E00E94550968EB7BE080E090E00E9426
:103A2000200A61E080E00C945509CF93DF9380B7C2
:103A3000806880BF61E08EE00E94550962E370E01B
:103A400080E090E00E94200A88E10E94E609EC01F3
:103A500060E08EE00E945509BE01DD0F880B990BD6
:103A60000E94236023EA36E043E55BE30E94826024
:103A70002EEB3FE94AEA5FE30E948260DF91CF913B
:103A80000895CF93DF93FB0122813381DC011396EC
:103A90003C932E93129744815581668177811496C9
:103AA0004D935D936D937C93179740855185628507
:103AB000738518964D935D936D937C931B971C961D
:103AC000EF012C969C01275E3F4F49914D93A21721
:103AD000B307D9F7218D328DFC01328F218FDF9111
:103AE000CF910895CF93DF9386EC9AE10E94370837
:103AF00088EC90E20E945F0B80B78F7780BFCAE7A7
:103B0000D0E088818F778883F89485B7806885BFF7
:103B100085B7806885BF789461E081E00E9455098F
:103B20008CB58F7B8CBD61E085E00E94B50960E0BB
:103B300085E00E94550983B7817F846083BF83B786
:103B4000816083BF7894EBE6F0E0808184608083BD
:103B5000E8E6F0E080818160808383B7816083BF85
:103B6000889583B78E7F83BF88818068888360E073
:103B700081E00E9455098CB580648CBD40E051EE17
:103B800060E070E086EC9AE10E940D0768EE73E059
:103B900080E090E0DF91CF910C94200A90E080E0EB
:103BA0000895282F30E094E0359527959A95E1F710
:103BB000922F990F990F291B220F820F089581E0F0
:103BC00080937C1888E680939D181092A618109216
:103BD000A51860E089E192E20E94BC0F81E00E949A
:103BE0006E06811142C067E088E60E94CB06109203
:103BF000A8188093A71889E192E20E94750F8F7729
:103C00000E94D11D8093311889E192E20E94750FC4
:103C10000E94D11D8093321889E192E20E94750FB3
:103C20008F7B0E94D11D8093331889E192E20E941C
:103C3000750F8093341889E192E20E94750F0E94FB
:103C4000D11D8093351889E192E20E94750F8F771C
:103C50000E94D11D8093361889E192E20E94750F6F
:103C60000E94D11D825E8093371880913118809315
:103C70008A0D8091321880931F168091331880939B
:103C800020168091351880938D0D80913618809381
:103C90008E0D8091371890E08E54984F90938C0D34
:103CA00080938B0D62E370E080E090E00C94200A3A
:103CB000CF9391E090937C1898E690939D18109282
:103CC000A6181092A518682F89E192E20E94BC0FF5
:103CD00081E00E946E0681110DC061E088E60E94BD
:103CE000CB061092A8188093A71889E192E20E944F
:103CF000750FC82F8C2FCF9108951F93CF93DF930B
:103D000081E080937C1888E680939D181092A61815
:103D10001092A51860E089E192E20E94BC0FC1E315
:103D2000D8E128811AE0822F612F0E94D862682F83
:103D3000660F680F660F620F89E192E20E94BC0F66
:103D40002981822F612F0E94D862682F660F680F29
:103D5000660F620F89E192E20E94BC0F2A81822FD6
:103D6000612F0E94D862682F660F680F660F620F7E
:103D700089E192E20E94BC0F6B8189E192E20E948C
:103D8000BC0F2C81822F612F0E94D862682F660F92
:103D9000680F660F620F89E192E20E94BC0F2D81CD
:103DA000822F612F0E94D862682F660F680F660FFE
:103DB000620F89E192E20E94BC0F2E812E51822F68
:103DC000612F0E94D862682F660F680F660F620F1E
:103DD00089E192E20E94BC0F81E00E946E06C82F2A
:103DE0008FE00E94581E682F6F778FE00E94EB0FC4
:103DF0008C2FDF91CF911F910895CF93DF93C82F20
:103E00008FE00E94581EC150DD0B21E030E001C060
:103E1000220FCA95EAF7982F922351F02095622F2E
:103E200068238FE00E94EB0F81E0DF91CF9108952E
:103E300080E0FBCFCF9382E10E94581EC82F81E122
:103E40000E94581E6C2F782F77FF02C0615C7F4F55
:103E500086E0759567958A95E1F7072E000C880B2B
:103E6000990B0E94236020E030E040E85EE30E946E
:103E70008260CF9108958F929F92AF92BF92CF921E
:103E8000DF92EF92FF920F931F93CF93DF9300D0B7
:103E900000D0CDB7DEB7FC018581813091F080E0A4
:103EA0000F900F900F900F90DF91CF911F910F9176
:103EB000FF90EF90DF90CF90BF90AF909F908F904A
:103EC0000895848181FFEBCF83899489A589B68980
:103ED000892B8A2B8B2B09F45EC07F0140E050E0D8
:103EE000BA01CF010E94FE158823C9F2F701C38CE5
:103EF000D48C8788908CA18CB28C82E090E0A0E07A
:103F0000B0E0F60180839183A283B3839E012F5F8B
:103F10003F4FB501A401C6010E94BE14882309F4D5
:103F2000BECF00E010E09801B501A401C6010E94D7
:103F30001C14882309F4B3CF89809A80AB80BC809D
:103F4000F6018789803111F188EF9FEFAFEFBFE075
:103F500088169906AA06BB06C8F2F701178A108EC2
:103F6000118E128E138A148A158A168A84818068AB
:103F70008483C7010E949318882309F490CF40E0FE
:103F800050E0BA01C7010E94FE158ACF88EF9FEF6B
:103F9000A0E0B0E0DDCF81E083CFCF93DF93EC01F1
:103FA0000E943B1F882369F0CE010E94DA1200971D
:103FB00041F025EEFC0120831D82DF91CF910C940E
:103FC000541280E0DF91CF910895CF92DF92EF926B
:103FD000FF921F93CF93DF93EC0180E2689FF00183
:103FE0001124E85DF94E9385917161F0842F8274FC
:103FF00049F080E0DF91CF911F91FF90EF90DF902B
:10400000CF900895142F6A8B80911D0190911E010D
:10401000A0911F01B09120018E879F87A88BB98B3B
:10402000C488D588F12CE12C7601DD24CC24CF8AFC
:10403000D88EE98EFA8E828D938DB0E0A0E0AC012F
:10404000BD014C295D296E297F294F8B588F698FBF
:104050007A8F83858871B1F4848D958DA68DB78D07
:104060008B8B9C8BAD8BBE8B81E08D831F701C83F3
:104070001E821F82188619861A861B861C861D863C
:1040800081E0B8CF803109F0B4CF9E012D5E3F4F63
:104090008B8D9C8D0E943F15882309F4AACF84E064
:1040A000E4CF2F923F924F925F926F927F928F92C6
:1040B0009F92AF92BF92CF92DF92EF92FF920F93B7
:1040C0001F93CF93DF9300D000D000D0CDB7DEB7E1
:1040D0008C016B8349838091BB1E22242394280E7C
:1040E0002092BB1E312CC12CD12C7601D394772485
:1040F0007394730C8091BE1E831508F4EFC08091F9
:10410000B41E9091B51EDC01ED91FC91008CF18DF7
:10411000E02D622D09958091B41E9091B51EDC01B1
:10412000ED91FC91028CF38DE02D40E860E0099563
:1041300049816B81C8010E9456070E944B07B981D3
:10414000BF3FD1F481E026960FB6F894DEBF0FBED4
:10415000CDBFDF91CF911F910F91FF90EF90DF9036
:10416000CF90BF90AF909F908F907F906F905F9017
:104170004F903F902F90089521E0271598F480915B
:10418000B71E9091B81EA091B91EB091BA1E0196AB
:10419000A11DB11D8093B71E9093B81EA093B91EA8
:1041A000B093BA1E0E94990A4B015C018091BC1E1B
:1041B0009091BD1E9D838C830E94345FA701960160
:1041C0000E9456619B01AC01AC81BD810E9475616A
:1041D000A70196010E945661AC81BD812A0F3B1F49
:1041E000372C2901712C612C0E94990A68197909D0
:1041F0008A099B09641575058605970508F077CF30
:104200008091B41E9091B51EDC01ED91FC9102806D
:10421000F381E02D0995882339F38091B41E9091A4
:10422000B51EDC01ED91FC910480F581E02D50E09C
:1042300040E070E060E009958823B1F28091B41EFF
:104240009091B51EDC01ED91FC9100A0F1A1E02D53
:1042500009958E838091B41E9091B51EDC01ED917D
:10426000FC91068CF78DE02D09958A838091B41E10
:104270009091B51EDC01ED91FC9102A0F3A1E02D1F
:1042800009958C838091B41E9091B51EDC01ED914F
:10429000FC9104A0F5A1E02D0995B9812E81B213FE
:1042A0000BC09091B61EAA819A1306C087FF04C066
:1042B000BC812B1609F446CF87FD96CF2E81E22FC5
:1042C000F0E0EC54F14E83859C8189138DCF422F11
:1042D000692F84EB9EE10E94640D86CF80E033CF8E
:1042E0000F931F93CF93DF934115510541F0FC01CC
:1042F000048115810115110539F4FB011082DF914C
:10430000CF911F910F9108954150510940175107C6
:1043100008F48A01EB01FC0160817181A801CE01E2
:104320000E942364C00FD11F1882E9CFFB010190C6
:104330000020E9F73197AF01461B570BDC01ED91E7
:10434000FC910280F381E02D09948F929F92AF92AD
:10435000BF92EF92FF920F931F93CF93DF93CDB74E
:10436000DEB7A1970FB6F894DEBF0FBECDBF7C01BC
:10437000FA01CB0119A2223008F42AE08E010F5D68
:104380001F4F822E912CB12CA12CBF01A5019401AD
:104390000E948861F901CA016A300CF5605DD8019C
:1043A0006E938D01232B242B252B79F790E080E051
:1043B000109721F0BD01C7010E949621A1960FB66A
:1043C000F894DEBF0FBECDBFDF91CF911F910F914B
:1043D000FF90EF90BF90AF909F908F900895695C91
:1043E000DECF462F50E070E060E02AE00C94A5217B
:1043F000CF92DF92EF92FF92CF93DF93AB01BC019C
:1044000077FF1BC06A017C018DE20E94BC08EC01B1
:1044100044275527BA014C195D096E097F092AE026
:1044200086EC9AE10E94A5218C0F9D1FDF91CF9110
:10443000FF90EF90DF90CF9008952AE086EC9AE10C
:10444000DF91CF91FF90EF90DF90CF900C94A5215A
:1044500063E578E00C9496210F931F93CF93DF933D
:10446000EC010E94F1218C01CE010E942822800FD4
:10447000911FDF91CF911F910F910895CF92DF92FD
:10448000EF92FF92CF930E94990A6B017C0128E979
:10449000C20E2AE3D21EE11CF11CC092CA0DD092BA
:1044A000CB0DE092CC0DF092CD0D1092C90D0E9473
:1044B000990A6C157D058E059F0520F586EC9AE11D
:1044C0000E941C081816190694F764E670E080E054
:1044D00090E00E94200A86EC9AE10E941C08D82EE7
:1044E000F12CCAE0E090C90DFD1460F486EC9AE16D
:1044F0000E94FB07EC9E800D112480538093C90D10
:10450000F394F0CF6091C90D86EC9AE1CF91FF90C2
:10451000EF90DF90CF900C942C22CF93DF93AB01E0
:10452000BC012AE086EC9AE10E94A521EC0186EC10
:104530009AE10E9428228C0F9D1FDF91CF91089550
:10454000CF93DF93BC01990F880B990B0E94F82140
:10455000EC0186EC9AE10E9428228C0F9D1FDF91CE
:10456000CF910895CF92DF92EF92FF920F931F9316
:10457000CF93DF930E94990A6B017C0128E9C20E58
:104580002AE3D21EE11CF11CC092CA0DD092CB0DC1
:10459000E092CC0DF092CD0D1092C80D1092C70D87
:1045A0000E94990A6C157D058E059F0508F046C08E
:1045B00086EC9AE10E941C08181619068CF764E62E
:1045C00070E080E090E00E94200A86EC9AE10E9470
:1045D0001C088C019093C60D8093C50D81E08093DB
:1045E000C40D3AE0C32ED090C40DCD2DD0E0E090A4
:1045F000C70DF090C80D0C171D0704F186EC9AE169
:104600000E94FB07CC0FDD1FCA54D24F99838883C9
:104610008D30910579F08A30910561F0C097CE9C7C
:104620009001CF9C300D1124820F931F9093C80DE1
:104630008093C70DD394D092C40DD5CF8091C70D70
:104640009091C80D0E94A0226AE070E080E090E0A6
:10465000DF91CF911F910F91FF90EF90DF90CF905E
:104660000C94200A0F931F93CF93DF938C01D0E01B
:10467000C0E06115710519F00E949621EC01C80196
:104680000E9428228C0F9D1FDF91CF911F910F91C7
:104690000895CF92DF92EF92FF921F93CF93DF9313
:1046A0000E94990A6B017C0128E9C20E2AE3D21EFE
:1046B000E11CF11C0E94990A6C157D058E059F0571
:1046C00040F586EC9AE10E941C081816190694F72A
:1046D00064E670E080E090E00E94200A86EC9AE1B7
:1046E0000E941C08EC01F82E10E086EC9AE10E9472
:1046F000FB078D3039F08A3029F0E12FF0E0E253EA
:10470000F24F80831F5FF11680F7DD27C253D24F2F
:1047100018826EEC7DE086EC9AE1DF91CF911F91DB
:10472000FF90EF90DF90CF900C9432230F931F9364
:10473000CF93DF93EC01FB0144815581608171814E
:10474000E881F9810280F381E02D09958C01CE0189
:104750000E942822800F911FDF91CF911F910F910E
:1047600008950F931F93CF93DF93EC010E949A0754
:104770008C01CE010E942822800F911FDF91CF91E2
:104780001F910F910895CF93DF93EC010E94E20AED
:1047900064E67CE086EC9AE10E949A07BE0186EC12
:1047A0009AE10E94B123BE018091B21E9091B31E86
:1047B0000E94B12380E00E94520AC82F6DE57CE080
:1047C00086EC9AE10E949A0768EA7DE186EC9AE11C
:1047D0000E9432238C2FDF91CF91089561157105CE
:1047E00011F00C94962190E080E008951F93CF93F0
:1047F000DF930E94DF1DD091B40DD43009F051C079
:1048000040912016242F30E0C90102968231910593
:1048100009F45EC0423109F041C068E170E00E94D5
:10482000F862C82F2AE08C2F622F0E94D862182FBE
:10483000110F180F110F1C0F8D2F0E94D862682FB7
:10484000660F680F660F6D0F8BE00E94EB0F612FF4
:104850008CE00E94EB0F60E88DE00E94EB0F6AE1B4
:1048600072E086EC9AE10E94EE236C2F86EC9AE1CE
:104870000E94F12163E979E086EC9AE10E94EE233F
:104880006D2F86EC9AE10E942C2262E370E080E0BA
:1048900090E0DF91CF911F910C94200AC9010496FA
:1048A000BCCFD13009F0BECFC0912016C23139F44F
:1048B00080911F16833268F0C3E1D4E0B3CF8C2F10
:1048C00090E0019668E170E00E94F862C82FF5CF91
:1048D000C2E1D3E2A7CFCF930E94DF1D2091A70DA5
:1048E000E22FF0E080911F168E0F9F2F911D6CE339
:1048F00070E00E94F862BF010E94F862269F202D9E
:1049000011242F5F2093200D822F6AE00E94D8622D
:10491000C82FCC0FC80FCC0FC20F60E087E00E94F9
:10492000EB0F6C2F88E00E94EB0F60E889E00E949B
:10493000EB0F60E88AE00E94EB0F6CE272E086EC1D
:104940009AE10E94EE236091200D86EC9AE10E948C
:104950002C2262E370E080E090E0CF910C94200A7A
:10496000DF92EF92FF920F931F93CF93DF938C010F
:104970007B01D42EBC0188EA9DE10E94C55FEC0159
:10498000892BE1F0C8010E94BC5F8C0F9D1FDD20C8
:1049900039F06CE270E00E941164009779F00196A2
:1049A0000E948C5FF7019183808381E0DF91CF913A
:1049B0001F910F91FF90EF90DF90089580E0F6CF68
:1049C000CF93DF9300D0CDB7DEB781E69BE00E94A6
:1049D000C32340E0BE016F5F7F4F8AE59BE00E94EA
:1049E000B024882349F080E00E94520A89810F9008
:1049F0000F90DF91CF91089580E0F9CFCF93DF93AF
:104A0000EB010E94C323882341F0BE0188EA9DE1A7
:104A10000E94B35F21E0892B09F020E0822FDF9113
:104A2000CF910895CF93DF939093B31E8093B21EDE
:104A300061E08091A61D0E94B50961E08091A61DEC
:104A40000E9455096AE070E080E090E00E94200A30
:104A500060E08091A61D0E94550964E670E080E048
:104A600090E00E94200A61E08091A61D0E945509F5
:104A70006CE37CE086EC9AE10E94B123CEE0D0E0CA
:104A80008091B21E9091B31EDC01ED91FC910084E7
:104A9000F185E02D0995892B61F08091B21E9091EE
:104AA000B31EDC01ED91FC910284F385E02D0995A4
:104AB000E7CF6091B01E7091B11E89E39CE00E9427
:104AC000FE2481115AC08091B21E9091B31EDC0168
:104AD000ED91FC910084F185E02D0995892B61F021
:104AE0008091B21E9091B31EDC01ED91FC91028485
:104AF000F385E02D0995E7CF63E37CE086E39CE056
:104B00000E94FE24811139C064EF71E080E090E0E2
:104B10000E94200A219709F0B3CF61E07CE086EC87
:104B20009AE10E94B1236091B01E7091B11E8EEF88
:104B30009BE00E94FE2464E670E080E090E00E942A
:104B4000200A6091B01E7091B11E8BEF9BE00E9415
:104B5000FE2464E670E080E090E00E94200A60910C
:104B6000B01E7091B11E88EF9BE00E94FE2464E6A7
:104B700070E080E090E00E94200A6091B01E709189
:104B8000B11E83EF9BE00E94FE2464E670E080E0AB
:104B900090E00E94200A6091B01E7091B11E8EEECE
:104BA0009BE00E94FE24C82F882309F479C06091FD
:104BB000B01E7091B11E84EE9BE00E94FE2464E65C
:104BC00070E080E090E00E94200A0E94E20A6DED11
:104BD0007BE086EC9AE10E949A076EE372E086EC35
:104BE0009AE10E9432236EE372E08091B21E9091AE
:104BF000B31E0E94322381E00E94520A66ED7BE0E0
:104C000086EC9AE10E949A0768EA7DE186EC9AE1D7
:104C10000E9432236BEC7BE088EA9DE10E94C55F35
:104C2000892B09F441C083E08093A71D8091A71DC3
:104C3000813071F56EE87BE086EC9AE10E949A077C
:104C400062E472E086EC9AE10E94322362E472E050
:104C50008091B21E9091B31E0E94322381E00E9487
:104C6000520A67E87BE086EC9AE10E949A0768EABC
:104C70007DE186EC9AE10E9432236FE77BE088EACF
:104C80009DE10E94C55F892B19F086E08093A71DE6
:104C90006091B01E7091B11E88E69BE00E94FE24D8
:104CA0008C2FDF91CF91089560EC7BE088EA9DE145
:104CB0000E94C55F892B11F082E0B6CF65EB7BE0E7
:104CC00088EA9DE10E94C55F892B11F081E0ACCF9D
:104CD00065EA7BE088EA9DE10E94C55F892B11F0BF
:104CE00084E0A2CF65E97BE088EA9DE10E94C55F90
:104CF000892B09F49BCF85E097CF0E94F6630F9331
:104D00001F93CF93DF93EC0188819981009759F02D
:104D10002A813B812617370730F081E0DF91CF9160
:104D20001F910F9108958B016F5F7F4F0E94156354
:104D3000009759F0998388831B830A832C813D81D6
:104D4000232B59F7FC011082E8CF80E0E7CFEF92E8
:104D5000FF920F931F93CF93DF936115710541F479
:104D600080E0DF91CF911F910F91FF90EF90089518
:104D700041155105B1F07B01EC010C811D81040F3F
:104D8000151FB8010E947F26882351F3288139819D
:104D90008C819D81B701820F931F0E941C641D832B
:104DA0000C8381E0DECFEF92FF920F931F93CF939E
:104DB000DF9300D000D0CDB7DEB77C01862F4AE06C
:104DC0008E010F5F1F4FB80190E00E94DF5FF80176
:104DD00001900020E9F73197AF01401B510BB8015A
:104DE000C7010E94A7260F900F900F900F90DF91A0
:104DF000CF911F910F91FF90EF900895CF93DF9384
:104E000000D0CDB7DEB769831A8241E050E0BE0121
:104E10006F5F7F4F0E94A7260F900F90DF91CF9179
:104E20000895FB0101900020E9F73197AF01461B7F
:104E3000570B0C94A726FB01448155816081718139
:104E40000C94A726CF93DF93EC018881998100977A
:104E500011F00E945F5E198218821D821C821B82E3
:104E60001A82DF91CF910895CF93DF93EC01611502
:104E7000710539F4CE010E942227CE01DF91CF9136
:104E80000895FB0101900020E9F73197AF01461B1F
:104E9000570B0E94A726882369F3EFCFCF93DF93A8
:104EA000EC01FB0144815581608171810E94A7263C
:104EB000811103C0CE010E942227CE01DF91CF9144
:104EC0000895EF92FF920F931F93CF93DF93EC011E
:104ED0007B018A01BA010E947F2681110BC0CE019D
:104EE0000E942227CE01DF91CF911F910F91FF9059
:104EF000EF9008951D830C83B701888199810E94EA
:104F00001C64F0CFFB0101900020E9F73197AF015D
:104F1000461B570B0C9461270F931F93CF93DF937E
:104F2000CDB7DEB729970FB6F894DEBF0FBECDBF61
:104F30008C01862FF8011182108213821282158251
:104F400014824AE0BE016F5F7F4F90E00E94F25FE3
:104F5000BE016F5F7F4FC8010E94822729960FB65E
:104F6000F894DEBF0FBECDBFDF91CF911F910F919F
:104F700008950F931F93CF93DF93CDB7DEB762975A
:104F80000FB6F894DEBF0FBECDBF8C01CB01F80188
:104F90001182108213821282158214824AE0BE01AD
:104FA0006F5F7F4F0E94DF5FBE016F5F7F4FC80161
:104FB0000E94822762960FB6F894DEBF0FBECDBF67
:104FC000DF91CF911F910F9108950F931F93CF936E
:104FD000DF93CDB7DEB728970FB6F894DEBF0FBECC
:104FE000CDBF62E572E089EE91E20E9482270E94C5
:104FF000DF1D4AE08E010F5F1F4FB80180918B0DBE
:1050000090918C0D0E94DF5FF80101900020E9F77C
:105010003197AF01401B510BB80189EE91E20E941C
:10502000A7266DE289EE91E20E94FE2660918E0D28
:1050300089EE91E20E94D3266DE289EE91E20E9410
:10504000FE2660918D0D89EE91E20E94D3266FE5D8
:1050500089EE91E20E94FE266091201689EE91E28F
:105060000E94D3266AE389EE91E20E94FE26109107
:105070001F161A3028F460E389EE91E20E94FE26A2
:10508000612F89EE91E20E94D3266AE389EE91E2D4
:105090000E94FE2610918A0D1A3028F460E389EEF2
:1050A00091E20E94FE26612F89EE91E20E94D326B2
:1050B00069E472E089EE91E20E94112762E370E0F8
:1050C00080E090E00E94200A28960FB6F894DEBF98
:1050D0000FBECDBFDF91CF911F910F910895CF9358
:1050E000DF93C0E0D6E08091B50DC81758F4CD9F8E
:1050F000C001112462E572E08B509E4D0E94822710
:10510000CF5FF1CFDF91CF910895CF93DF93EC0183
:10511000FB018617970749F0608171816115710560
:1051200041F0448155810E946127CE01DF91CF91EA
:1051300008950E942227F9CFFC0111821082138268
:105140001282158214820C948528FC01118210822F
:105150001382128215821482FB0101900020E9F76C
:105160003197AF01461B570B0C946127FC018081DE
:1051700091810C945F5ECF93DF93EC01898D9A8DC2
:10518000009741F00E94C218898D9A8D0E945F5E3F
:105190001A8E198EDF91CF910895CF92DF92EF9200
:1051A000FF920F931F93CF93DF93EC017B018A0152
:1051B000E881F9810280F381E02D0995D82E8823BA
:1051C00029F1E114F104D1F001151105B9F0CFB6C0
:1051D000F8948A8D8350990BF801208128171906BD
:1051E0001CF08A8D84508083F801408150E0BE011C
:1051F000615E7F4FC7010E940864CFBE8FB7F894ED
:10520000FE01E65EFE4F10821A8E8FBF8D2DDF915C
:10521000CF911F910F91FF90EF90DF90CF90089565
:10522000EF92FF920F931F93CF93DF9300D01F92C3
:10523000CDB7DEB78C010E94460DE82E81110CC05F
:10524000E12C8E2D0F900F900F90DF91CF911F9139
:105250000F91FF90EF900895F801808D8A3009F446
:105260007EC08B3009F47DC022E0F22E823041F7FF
:1052700040E861E0C8010E941C0B6AE070E080E039
:1052800090E00E94200A61E0C8010E945C0C803816
:10529000B9F660E0F801808D0E94B509F801818DB2
:1052A0008F3F49F48091300E843050F691E0980F92
:1052B0009093300E818FF801818DE82FF0E0EE0F92
:1052C000FF1FEF5CF14F118300836DE37DE08823C6
:1052D00049F064E37DE0813029F0823009F0B0CFFD
:1052E0006BE27DE08F2D0E94790740E06EE0C801FF
:1052F0000E941C0B40E06FE0C8010E941C0BC8011B
:105300000E94740B43E050E060ED7AE0CE0101961C
:105310000E94AA5F49816DE1C8010E941C0B4A816D
:105320006EE1C8010E941C0B4B8166E2C8010E941D
:105330001C0B40E060E2C8010E941C0B48E061E2E7
:10534000C8010E941C0B40E050EC64E674E4C80104
:105350000E94880B6DE0C8010E944C0B72CFF12CAB
:1053600087CFFF24F39484CF3F924F925F926F9246
:105370007F928F929F92AF92BF92CF92DF92EF92E5
:10538000FF920F931F93CF93DF93CDB7DEB72B9789
:105390000FB6F894DEBF0FBECDBF7C01DC011596C1
:1053A0008C91811115C0FE013196CE010C966F01D2
:1053B00030E231938E179F07E1F7DA0130E087E0A2
:1053C0009D91B92E992329F19E3239F48A3011F436
:1053D00080E0BEC038E08AE0F3CFE0ECFAE0449130
:1053E000442321F031969413FACFF2CF831780F340
:1053F0004FED490F4E3560F74FE9490F4A3118F428
:1054000040EEB42EB90EF601E30FF11DB0823F5FFE
:10541000D7CF89818032E1F2322E8B01FB01838D5F
:10542000948DD7015C969C938E935B97168217821E
:10543000108611861286138614861586F8018285D9
:105440009385A485B58543895489658976898417B0
:105450009507A607B70790F525E0B695A795979508
:1054600087952A95D1F7F82FFF70AF2EC8010E94BB
:10547000251C009709F4ACCFDC012C91222341F0CC
:10548000253E09F057C0BB2029F0BB24B394D6CFEA
:10549000B1100EC0F701A28A40911D0150911E016A
:1054A00060911F017091200146875787608B718B37
:1054B000FC0180818111E9CFBB24B394832D8271DB
:1054C000823109F085CFBB2009F45AC0C7010E9480
:1054D000DA12009709F47CCF20E2FC0111922A95A0
:1054E000E9F72BE0F601DC0101900D922A95E1F736
:1054F00021E238E2DC0151963C932E93509740E034
:1055000058E01F965C934E931E9753963C932E93B0
:10551000529759963C932E93589757965C934E9377
:1055200056970E945412882309F452CF432DF70155
:1055300062890BC04BE050E0BC01C6010E94FB63D6
:10554000892B09F07BCF432D6A2DC7010E94E51FEF
:105550002B960FB6F894DEBF0FBECDBFDF91CF9173
:105560001F910F91FF90EF90DF90CF90BF90AF9081
:105570009F908F907F906F905F904F903F90089595
:10558000D80115968C91823009F422CFC8010E946F
:105590009216882309F41CCFD8015B96ED91FC91FB
:1055A0005C9716968D909D90AD90BC901997B2E047
:1055B0008B1A9108A108B108858504C0880C991C34
:1055C000AA1CBB1C8A95D2F786859785A089B189CC
:1055D000880E991EAA1EBB1E848124013501480E27
:1055E000511C611C711C84149504A604B70401F1BC
:1055F000E1E04E1A5108610871080E945412882394
:1056000009F4E6CEE8E2F6E1119288E298E18E171D
:105610009F07D1F740921D0150921E0160921F0119
:10562000709220018091E70D81608093E70DDBCFC0
:10563000D8015B96ED91FC91258580E092E0A0E099
:10564000B0E004C0880F991FAA1FBB1F2A95D2F78C
:10565000F8014389548965897689840F951FA61FAF
:10566000B71F838B948BA58BB68BD70152961C9258
:1056700088E296E131CF5F926F927F928F929F92F4
:10568000AF92BF92CF92DF92EF92FF920F931F9350
:10569000CF93DF93CDB7DEB7C754D1090FB6F894D7
:1056A000DEBF0FBECDBF5C013B0119A218A282EC88
:1056B00091E09F8F8E8F1BA21C821B829A8389830D
:1056C0001E8210E000E06E018EE1C80ED11C8FE05A
:1056D000E82E8DE1F82EF501E00FF11F80818F3269
:1056E00011F40F5F1F4FD501A00FB11FFE01FB96F4
:1056F00090E080E04F012D912F3249F0222339F0C4
:105700000F5F1F4F019621938C309105A1F7880DF3
:10571000991DFC011082F501E00FF11F80818F328D
:1057200011F40F5F1F4FF501E00FF11F508041E0B2
:10573000511040E030E020E0B401C701F3010995C9
:10574000811121C0FFE0EF16FDE1FF06C1F480E00A
:10575000C95BDF4F0FB6F894DEBF0FBECDBFDF9140
:10576000CF911F910F91FF90EF90DF90CF90BF905E
:10577000AF909F908F907F906F905F900895C7013A
:105780000E94C218E4CF552091F021E0A401B70196
:10579000C6010E94B429982E8FE0E8168DE1F80624
:1057A00081F0C7010E94C218911010C0D0CF9FE0B5
:1057B000E9169DE1F90619F0C7010E94C21881E0BF
:1057C000C7CF992021F2FE0131967F019E2D8F2DAA
:1057D0007601C92ED82E7FCFCF93DF93CDB7DEB71A
:1057E0006D970FB6F894DEBF0FBECDBF442309F40A
:1057F00053C0AB01BC011C821B8282EC91E09A83F6
:1058000089831E8221E0CE0101960E94B42988235B
:1058100039F08E81843071F090E081E0911101C007
:1058200080E06D960FB6F894DEBF0FBECDBFDF915E
:10583000CF9108951F82188619861A861B861C86AA
:105840001D861E864B855C856D857E858C899D8930
:10585000AE89BF89481759076A077B0790F4CE01C4
:1058600001960E94251C0097B9F2FC012081222399
:1058700041F0253E39F32E3229F3838583FDE2CFB3
:10588000CBCF81E08E838D8182608D83CE010196A6
:105890000E94CD1F982FC1CF81E0C3CFCF93DF935C
:1058A000CDB7DEB76D970FB6F894DEBF0FBECDBF94
:1058B000442311F1AB01BC011C821B8282EC91E0FC
:1058C0009A8389831E8222E0CE0101960E94B42928
:1058D000882321F0CE0101960E94CD1F91E0811115
:1058E00001C090E0892F6D960FB6F894DEBF0FBE11
:1058F000CDBFDF91CF91089591E0F4CF1F93CF9367
:10590000DF93CDB7DEB76D970FB6F894DEBF0FBE4D
:10591000CDBFAB011C821B8222EC31E03A8329838C
:105920001E8221E0BC01CE0101960E94B42911E043
:1059300081110CC010E0812F6D960FB6F894DEBF78
:105940000FBECDBFDF91CF911F910895CE0101967B
:105950000E94C218F0CFEF92FF920F931F93CF9344
:10596000DF93EC017B018A011B821A8288EE93E0AF
:10597000A0E0B0E08C839D83AE83BF838EEC91E08A
:10598000998388838DE190E00E94C35D9A8F898F0F
:10599000009779F02DE1F701DC0101900D922A9535
:1059A000E1F74CE050E0B801CE010C960E94236470
:1059B000188EDF91CF911F910F91FF90EF90089576
:1059C000CF92DF92EF92FF920F931F93CF93DF93CB
:1059D000CDB7DEB7C756D1090FB6F894DEBF0FBEFC
:1059E000CDBF8C017B01DB015996CD90DC90F60197
:1059F0008581823008F49AC082859385A485B58517
:105A00008F719927AA27BB27892B8A2B8B2B09F00B
:105A10008DC040E250E0BE016F5F7F4FC6010E9423
:105A20008C17803209F082C08981882309F47EC0F6
:105A3000853E79F38E3269F38C8583FDEACF229619
:105A40001FAE1EAE229782EC91E09FAF8EAF2496E0
:105A50001FAE2497BE016F5F7F4FE0E080E02EE233
:105A6000DB019D91BD019032A1F0883049F44BE5F6
:105A700050E04C0F5D1F4E0F511DDA012C93EF5F6C
:105A80004BE550E04C0F5D1F4E0F511DDA019C930A
:105A9000EF5F8F5F8B3021F78BE590E08C0F9D1FC0
:105AA0008E0F911DFC011082D70159966D917C914A
:105AB00021E0AE01455A5F4FCE01CE960E94B42937
:105AC000882309F1BE01625C7F4FCE0181960E945E
:105AD000571BAE01455A5F4FBE016F5D7F4FC80136
