:100000000C9440060C94E0550C94B5550C948A550C
:100010000C945F580C946A060C946A060C946A0659
:100020000C946A060C946A060C946A060C946A0690
:100030000C946A060C940B560C946A060C946A068F
:100040000C946A060C946A060C9440550C946A064B
:100050000C940B550C94E1540C946A060C946A06AB
:100060000C946A060C946A060C943B570C946A062E
:100070000C94AC540C9482540C946A060C946A064A
:100080000C946A060C946A060C946A0652656769B9
:1000900073746572656420726F616D696E67005577
:1000A0006E6B6E6F776E0044656E696564004E6FAF
:1000B000742072656769737465726564202873655E
:1000C00061726368696E6729005265676973746558
:1000D0007265642028686F6D6529004E6F74207208
:1000E000656769737465726564003A20004E6574D3
:1000F000776F726B20737461747573200047505270
:1001000053206F6E004552524F523A20475052537F
:10011000206661696C656420746F207475726E204E
:100120006F6E005475726E696E672063656C6C202B
:100130006D6F64756C65206F66662E2E2E005253AF
:100140005349202864426D293A202D00456E74657C
:10015000722027782720617420616E792074696D80
:100160006520746F2073746F70005475726E696EC1
:10017000672063656C6C206D6F64756C65206F6EB5
:100180002E2E2E004552524F523A204C6F6E676908
:100190007475646520696E636F72726563742100A3
:1001A0004552524F523A204C61746974756465200F
:1001B000696E636F727265637421004552524F52CB
:1001C0003A20496E76616C69642075706C6F616469
:1001D00020696E74657276616C2028657665727927
:1001E0002031206F72203420686F757273290045AA
:1001F00052524F523A20496E76616C696420696EA2
:1002000074657276616C2028657665727920313567
:100210002C2032302C2033302C206F7220363020AE
:100220006D696E73290070726F6A65637449443A30
:1002300020002020696E707574206D696E7574657C
:100240003A20002020696E70757420686F75723ACC
:10025000202020002020696E7075742079656172FD
:100260003A202020002020696E7075742064617926
:100270003A20202020002020696E707574206D6F58
:100280006E74683A20200053796E6368726F6E69ED
:100290007A6174696F6E206661696C65642E2050A6
:1002A0006C6561736520656E7465722074696D6537
:1002B000206D616E75616C6C7920696E20555443B8
:1002C0003A200053796E6368726F6E697A696E675F
:1002D00020636C6F636B20746F204E4953542073FE
:1002E0006572766572202E2E2E200044656661753B
:1002F0006C7420726164696F204944206163636596
:100300007074656400526164696F2049442075709F
:10031000646174656400456E746572206E65772053
:10032000726164696F2049443A200020456E74650B
:10033000722027792720666F72207965732C202719
:100340006E2720666F72206E6F3A2000576F756CB3
:100350006420796F75206C696B6520746F20636809
:10036000616E67652074686520726164696F2049F9
:10037000442066726F6D20746865206465666175DF
:100380006C742076616C75653F00456E74657220F3
:1003900074686520486F6C6F6772616D2064657664
:1003A000696365206B657920666F72207468697374
:1003B00020476174657761793A2000456E746572F3
:1003C0002074686520726164696F20494420666FFB
:1003D00072204E6F64652000293F00496E76616C83
:1003E0006964206E756D626572206F66206E6F6441
:1003F00065732E2020486F77206D616E79206E6FB7
:10040000646573206172652061742074686973206B
:100410007369746520286D61782E00486F77206DB0
:10042000616E79206E6F64657320617265206174FE
:100430002074686973207369746520286D61782E53
:100440002000496E76616C696420696E746572760D
:10045000616C2E20506C6561736520656E746572E9
:100460002031206F7220342E00456E746572202278
:100470003122206F72202234223A200053657420EA
:1004800075706C6F616420696E74657276616C2042
:10049000746F2031206F72203420686F7572732E54
:1004A00000496E76616C696420696E74657276616C
:1004B0006C2E20456E746572206D65617375726572
:1004C0006D656E7420696E74657276616C2028317A
:1004D000302C2031352C2032302C2033302C206F22
:1004E00072203630293A2000456E746572206D65A1
:1004F00061737572656D656E7420696E7465727670
:10050000616C202831302C2031352C2032302C20C9
:1005100033302C206F72203630206D696E73293A8B
:100520002000496E76616C696420696E746572762C
:10053000616C2E20456E746572206D6561737572F5
:10054000656D656E7420696E74657276616C2028C5
:1005500031302C2031352C2032302C2033302C20DF
:100560006F72203630293A2000456E746572206D16
:100570006561737572656D656E7420696E74657200
:1005800076616C202831302C2031352C2032302CF3
:100590002033302C206F72203630206D696E732925
:1005A0003A200045786974002020456E74657220F9
:1005B000612050726F6A6563742049442028757009
:1005C00020746F2035206368617261637465727393
:1005D0002C2065783A20505341293A20004578690B
:1005E0007400457261736520534420636172643AFC
:1005F00020005072696E7420646174612066696CB9
:1006000065733A200053617665642066696C657392
:100610003A20004552524F523A2075706C6F616417
:1006200020696E74657276616C206D7573742062DA
:100630006520656E74657265642066697273742ED8
:100640002052657475726E696E6720746F206D65D7
:100650006E752E2E2E0041726520796F7520737590
:10066000726520796F752077616E7420746F2065D4
:10067000726173653F20456E74657220792F6E3A02
:1006800020004C61742F6C6F6E672076616C75650D
:10069000732077696C6C2061707065617220617382
:1006A000202D39393939393939393920696E207471
:1006B0006865206461746120737472696E672E00CE
:1006C0004552524F523A204C6F6E6769747564659B
:1006D00020696E636F727265637421004C6F6E6780
:1006E00069747564653A20004552524F523A204C65
:1006F0006174697475646520696E636F7272656395
:100700007421004C617469747564653A2000536506
:100710006C656374206F7074696F6E3A20002020DE
:100720002030203C2D2D204572617365204C617472
:100730002F4C6F6E672076616C75657300202020EA
:1007400031203C2D2D20456E746572204C61742F34
:100750004C6F6E672076616C75657300456E7465CD
:100760007220636F6E66696775726174696F6E205F
:10077000737472696E673A2000456E746572206307
:10078000686F6963653A20002020207820203C2D86
:100790002D202045786974206D656E75002020201D
:1007A0006520203C2D2D20204572617365206D69E8
:1007B00063726F53442063617264002020207020B4
:1007C000203C2D2D20205072696E74206E6F646560
:1007D000206461746120746F2073637265656E00BC
:1007E0002020206620203C2D2D2020536565206C84
:1007F000697374206F662073617665642066696C26
:100800006573002020206D20203C2D2D2020536575
:1008100074206D6561737572656D656E7420696EA7
:1008200074657276616C002020207520203C2D2D8F
:10083000202053657420646174612075706C6F6151
:100840006420746F20636C6F756420696E746572C8
:1008500076616C002020206E20203C2D2D2020452C
:100860006E746572204E6F646520726164696F20DA
:10087000494473002020206420203C2D2D20204559
:100880006E74657220486F6C6F6772616D2044658D
:1008900076696365204B6579002020206720203C25
:1008A0002D2D20204368616E676520476174657750
:1008B000617920726164696F204944002020206CB6
:1008C00020203C2D2D2020456E746572206F7220F3
:1008D0006572617365204C61742F4C6F6E67207672
:1008E000616C756573002020206920203C2D2D202F
:1008F00020456E7465722070726F6A65637420495A
:1009000044002020206320203C2D2D20205365749E
:1009100020636C6F636B20746F204E4953542074B6
:10092000696D65002020203020203C2D2D202045A1
:100930006E74657220636F6E666967757261746943
:100940006F6E20737472696E670020202031202042
:100950003C2D2D202043656C6C756C6172205369B1
:10096000676E616C2053636F7574696E67204D6F9D
:100970006465004D656E75206F7074696F6E7320CD
:100980000043757272656E74206261747465727969
:1009900020766F6C746167653A20200030003A0061
:1009A00030003A002D002D0043757272656E742080
:1009B0006461746520262074696D653A2000557065
:1009C0006C6F616420696E74657276616C20286852
:1009D0007273293A20004D6561737572656D656E9D
:1009E0007420496E74657276616C3A2000446174BB
:1009F000612066696C653A20004E6574776F726B92
:100A00006564204E6F6465204944733A20002320BA
:100A10006F66206E6F6465733A2000446576696383
:100A200065206B65793A20004761746577617920AC
:100A3000526164696F2049443A20004C61742F6C04
:100A40006F6E673A200050726F6A65637420494484
:100A50003A20004C6F526120526164696F204672E7
:100A6000657120284D487A293A20005365726961E2
:100A70006C204E756D6265723A200056657273691E
:100A80006F6E2000536F696C20576174657220444B
:100A9000617461204E6574776F726B202D20436501
:100AA0006C6C756C61722047617465776179007C4C
:100AB0003C3E5E2B3D3F2F5B5D3B2C2A225C00724F
:100AC000740092740048940078C40000002100244F
:100AD0000027002A0000002200250028002B00002B
:100AE0000020002300260029000202020202020266
:100AF00002040404040404040403030303030303BF
:100B0000030101010101010101010204081020405B
:100B100080010204081020408001020408102040D7
:100B2000800102040810204080000000010200093A
:100B30000A00000000040308070000000000000095
:100B40000000000000000000002B4353513A200039
:100B500041542B4353510041542B43504D533D229C
:100B6000534D222C22534D222C22534D2200534907
:100B70004D3830304800093C2D2D2D2000092D2DF9
:100B80002D3E200053494D434F4D5F53494D353362
:100B90003230450053494D434F4D5F53494D353336
:100BA0003230410053494D383030205231330053F8
:100BB000494D383038205231330053494D383038A0
:100BC0002052313400093C2D2D2D2000092D2D2DD2
:100BD0003E200041542B435648553D30004154457A
:100BE000300041544530004154004154004154000C
:100BF00054696D656F75743A204E6F20726573701D
:100C00006F6E736520746F2041542E2E2E206C6100
:100C1000737420646974636820617474656D7074A2
:100C20002E00415400415400415400417474656DDC
:100C30007074696E6720746F206F70656E20636FCB
:100C40006D6D207769746820415473002B435245C1
:100C5000473A200041542B435245473F00093C2D61
:100C60002D2D2000092D2D2D3E20004F4B00464FED
:100C70004E4100464F4E416E657400007B581C5E2D
:100C800011241FBECFEFD0E4DEBFCDBF1DE0A0E03A
:100C9000B1E0E8E4FFEC00E00BBF02C007900D926A
:100CA000A032B107D9F722E2A0E2BDE001C01D9257
:100CB000AA32B207E1F716E0CFE3D6E004C02197ED
:100CC000FE010E948063CE33D107C9F70E94515ABA
:100CD0000C9497670C94000008950895982F209124
:100CE000A61881E0213208F043C08091A518811137
:100CF000FCCF80919E1832E03093A5189093A418F1
:100D00009FEF90937C1810927B1820937A18AEE78F
:100D1000B8E1EAE5F8E190E0291331C010925918E2
:100D200090915918880F892B809359188091A31896
:100D3000813049F51092A318809159188093BB0017
:100D40008091BC0083FDF8CF85EC8093BC0080913E
:100D5000A5188230E1F380917C188F3FB1F080912B
:100D60007C188032A1F080917C18803391F084E06F
:100D70001092A7181092A61810927D1808953D9110
:100D800031939F5FC9CF85EEE0CF80E0F1CF82E065
:100D9000EFCF83E0EDCF9091A5189111FCCF91E0BA
:100DA0009093A5189093A4182FEF20937C1810927D
:100DB0007B18260F20937A18909359189091591800
:100DC000880F892B809359188091A3188130F9F4EA
:100DD0001092A318809159188093BB008091BC0099
:100DE00083FDF8CF85EC8093BC008091A5188130FD
:100DF000E1F380917B18861710F460917B18AAE5C7
:100E0000B8E1E9E3F8E180E0861303C0089585EED8
:100E1000EACF9D9191938F5FF7CF0F931F93CF935D
:100E2000DF93EC019A01AB01E889F98982E08083C4
:100E3000EC85FD8510820E851F8560E874E88EE1E3
:100E400090E00E94FC6121503109410951095695F9
:100E5000479537952795F8012083188EEC89FD89F1
:100E600086E08083EA89FB89808180618083EA89CA
:100E7000FB89808188608083EA89FB898081806822
:100E80008083EA89FB8980818F7D8083DF91CF9188
:100E90001F910F9108958091B51E9091B61EDC01AF
:100EA000ED91FC910484F585E02D0994FF920F9358
:100EB0001F93CF93DF938C01F62EC5EBDEE1888183
:100EC0009981DC01ED91FC910488F589E02D642F76
:100ED000099588819981DC01ED91FC910680F7816B
:100EE000E02D4F2DB801DF91CF911F910F91FF9011
:100EF0000994E82FF0E0EE0FFF1FE45DFE4F7183D1
:100F00006083813049F0823071F0809169008360A4
:100F100080936900E89A0895809169008C608093BD
:100F20006900E99A0895809169008063809369005F
:100F3000EA9A0895EF92FF920F931F93CF93DF9356
:100F40008C017B01D0E0C0E0F701EC0FFD1F649144
:100F5000662361F0D801ED91FC910190F081E02DC4
:100F6000C8010995892B11F02196EECFCE01DF91B2
:100F7000CF911F910F91FF90EF900895AF92BF9284
:100F8000CF92DF92EF92FF920F931F93CF93DF9355
:100F90006C017B018B01040F151FEB015E01AE1884
:100FA000BF08C017D10759F06991D601ED91FC91A6
:100FB0000190F081E02DC6010995892B79F7C501D3
:100FC000DF91CF911F910F91FF90EF90DF90CF9025
:100FD000BF90AF900895FC01538D448D252F30E0D4
:100FE000842F90E0821B930B541718F081509F4F71
:100FF000089501970895FC01918D828D981759F0FD
:10100000A28DAE0FBF2FB11D5D968C91928D9F5F0B
:10101000928F90E008958FEF9FEF0895FC01918DDE
:10102000828D981731F0828DE80FF11D858D90E04B
:1010300008958FEF9FEF0895FC01918D828D981B8D
:10104000892F90E008958AEA98E10E941C0821E027
:10105000892B09F420E0822F089587EC9AE10E9401
:101060001C0821E0892B09F420E0822F0895CF93FA
:10107000DF93EC01E881F9810680F781E02D099585
:10108000EA89FB8980818F7E8083EA89FB89808160
:10109000877F8083EA89FB8980818F778083EA89D3
:1010A000FB8980818F7D80838A8D898FDF91CF91AD
:1010B0000895FC01A48DA80FB92FB11DA35EBE4FEA
:1010C0009C91848D8F5F848FA689B7899C93A0891A
:1010D000B1898C91837080648C93938D848D9813E7
:1010E00006C00288F389E02D80818F7D808308957A
:1010F0000F931F93CF93DF93EC0181E0888F9B8D3B
:101100008C8D981318C0E889F989808185FF13C0F8
:101110009FB7F894EE89FF896083E889F989808117
:101120008370806480839FBF81E090E0DF91CF91E6
:101130001F910F910895062F1B8D1F5F8C8D8113BA
:101140000CC00FB607FCFACFE889F989808185FFCA
:10115000F5CFCE010E945908F1CFEB8DEC0FFD2F9A
:10116000F11DE35EFE4F00839FB7F8941B8FEA8961
:10117000FB8980818062D6CF682F87EC9AE10C943E
:101180007808CF93DF93EC01888D8823B9F0AA8982
:10119000BB89E889F9898C9185FD03C0808186FD32
:1011A0000DC00FB607FCF7CF8C9185FFF2CF808181
:1011B00085FFEDCFCE010E945908E9CFDF91CF9195
:1011C000089580E090E0892B29F00E942D0881117C
:1011D0000E94000080E090E0892B29F00E94230803
:1011E00081110C940000089581508A3080F5E82F19
:1011F000F0E0E350F74F0C948063110915090709DB
:101200000D092709270918091E09220928098091B3
:1012100080008F77809380000895809180008F7D7B
:10122000F9CF84B58F7784BD089584B58F7DFBCFCA
:101230008091B0008F778093B00008958091B000C6
:101240008F7DF9CF809190008F77809390000895E3
:10125000809190008F7DF9CFCF93DF93282F30E0DE
:10126000F901E75DF44F8491F901E75FF44FD49100
:10127000F901E751F54FC491CC23A1F081110E94EF
:10128000F408EC2FF0E0EE0FFF1FE152F54FA591AF
:10129000B491EC91ED2381E090E009F480E0DF91DE
:1012A000CF91089580E090E0FACF1F93CF93DF9322
:1012B000282F30E0F901E75DF44F8491F901E75FF1
:1012C000F44FD491F901E751F54FC491CC23A9F023
:1012D000162F81110E94F408EC2FF0E0EE0FFF1F93
:1012E000EB52F54FA591B4918FB7F894EC91111191
:1012F00008C0D095DE23DC938FBFDF91CF911F9183
:101300000895DE2BF8CF1092A9181092A818109209
:10131000A7181092A6181092A51881E08093A4181F
:101320001092A31861E081E10E94550961E080E11B
:101330000E945509E9EBF0E080818E7F80838081F7
:101340008D7F808380E28093B80085E48093BC0029
:101350008CE696E09093A2188093A1188DE696E013
:101360009093A01880939F180895CF93DF9390E0F7
:10137000FC01E75FF44F24918751954FFC01849164
:101380008823D1F090E0880F991FFC01E553F54FB9
:10139000A591B491FC01EB52F54FC591D491611127
:1013A0000EC09FB7F8948C91E22FE0958E238C931A
:1013B0002881E223E8839FBFDF91CF9108958FB703
:1013C000F894EC91E22BEC938FBFF6CF883108F0C4
:1013D00088518770806480937C0080917A0080645B
:1013E00080937A0080917A0086FDFCCF809178000E
:1013F0009091790008953FB7F89480913D0E9091B7
:101400003E0EA0913F0EB091400E26B5A89B05C0A0
:101410002F3F19F00196A11DB11D3FBFBA2FA92F73
:10142000982F8827BC01CD01620F711D811D911D70
:1014300043E0660F771F881F991F4A95D1F70895DB
:101440008F929F92AF92BF92CF92DF92EF92FF92D4
:101450004B015C010E94FB096B017C010E94FB09AE
:101460006C197D098E099F09683E734081059105BD
:10147000A8F321E0821A9108A108B10888EEC80EED
:1014800083E0D81EE11CF11C81149104A104B10475
:1014900029F7FF90EF90DF90CF90BF90AF909F9093
:1014A0008F900895FF920F931F93CF93DF93F82EA1
:1014B00004EF11E0D0E0C0E08091B31E9091B41E23
:1014C000DC01ED91FC910084F185E02D0995892BDB
:1014D000C9F08091B31E9091B41EDC01ED91FC9196
:1014E0000284F385E02D09958D3031F38A3021F4A3
:1014F000209711F3FF2091F0FE01E556F24E86870A
:101500002196DACF0150110949F061E070E080E0E6
:1015100090E00E94200ACE3FD10570F2FE01E55610
:10152000F24E16868C2FDF91CF911F910F91FF9075
:1015300008952FB7F8946091390E70913A0E80910A
:101540003B0E90913C0E2FBF08950895885E9E4FEC
:10155000DC018D919C91DC01ED91FC910680F7817D
:10156000E02D0994885E9E4FDC018D919C91DC01F9
:10157000ED91FC910484F585E02D0994885E9E4FE1
:10158000DC018D919C91DC01ED91FC910284F3854D
:10159000E02D0994885E9E4FDC018D919C91DC01C9
:1015A000ED91FC910190F081E02D0994885E9E4FB1
:1015B000DC018D919C91DC01ED91FC910084F18521
:1015C000E02D0994CF93DF9390E080E0EC01219629
:1015D0008897A8F48BE99DE10E94D60A892B39F0FF
:1015E0008BE99DE10E94BE0AD0E0C0E0F3CF61E04C
:1015F00070E080E090E00E94200ACE01E7CFDF910A
:10160000CF9108958BEF0895CF93DF93FC01228152
:1016100033812230310569F0EC01638D818D0E94A8
:10162000550960E0888D0E94550982E090E09B8317
:101630008A83DF91CF910895FF920F931F93CF93E9
:10164000DF93EC01162FF42E0FB7F89460E08F892A
:101650000E9455098D899E89612F6068DC01ED919A
:10166000FC910190F081E02D0995182F8D899E89BC
:10167000DC01ED91FC910190F081E02D6F2D099539
:1016800061E08F890E9455090FBF812FDF91CF91B3
:101690001F910F91FF9008950F931F93CF938C018B
:1016A000C62F44E06DE40E941C0B4BEF4C0F4068CA
:1016B00069E0C801CF911F910F910C941C0BCF933F
:1016C000DF93FC01228133812130310549F0EC01A7
:1016D00040E061E00E941C0B81E090E09B838A83E4
:1016E00081E0DF91CF910895CF93DF93FC012281B8
:1016F00033812230310549F0EC0141E061E00E9484
:101700001C0B82E090E09B838A83DF91CF91089548
:10171000CF92DF92EF92FF92CF93DF93EC01CB0158
:10172000BA0120E034E244E759E40E94F66020E088
:1017300034E244E752E40E949A620E9413636B0110
:101740007C01A7016627772766E0CE010E941C0B6B
:1017500077276F2D5E2D4D2D67E0CE010E941C0B6B
:101760004C2D68E0CE010E941C0B81E0DF91CF91EF
:10177000FF90EF90DF90CF900895CF92DF92EF929D
:10178000FF920F931F93CF93DF934C3F08F067C0F6
:10179000142F072FF62EEC01E881F9810484F585DA
:1017A000E02D0995CE010E94740B40E06DE0CE0162
:1017B0000E941C0B4A8560E0CE010E941C0B4B85E9
:1017C00060E0CE010E941C0B4C8560E0CE010E94BF
:1017D0001C0B4D8560E0CE010E941C0BEFB6F89407
:1017E00060E08F890E9455098D899E89DC01ED9109
:1017F000FC910190F081E02D60E80995CF2CD02E6E
:10180000012F015068F08D899E89F60161916F0169
:10181000DC01ED91FC910190F081E02D0995F1CF73
:1018200061E08F890E945509EFBE44E0410F62E2FA
:10183000CE010E941C0B8A819B81039771F043E0CB
:1018400061E0CE010E941C0B40E460E4CE010E94E6
:101850001C0B83E090E09B838A8381E001C080E0E1
:10186000DF91CF911F910F91FF90EF90DF90CF907C
:101870000895CF93DF93FC0122813381233031051A
:10188000C9F0EC0182819381049771F045E061E039
:10189000CF010E941C0B40E060E4CE010E941C0BB3
:1018A00084E090E09B838A83C65EDE4F8881DF916F
:1018B000CF91089580E0FBCF0F931F93CF93DF93D9
:1018C000EC01162F0FB7F89460E08F890E9455093C
:1018D0008D899E89DC01ED91FC910190F081E02DD4
:1018E000612F09958D899E89DC01ED91FC91019014
:1018F000F081E02D60E00995182F61E08F890E944A
:1019000055090FBF812FDF91CF911F910F9108953E
:10191000DF92EF92FF920F931F93CF93DF93EC012F
:1019200062E10E945C0C2A813B8124303105A1F4E4
:10193000982F907A89F08F8598890196988B8F8758
:101940004FEF62E1CE01DF91CF911F910F91FF9098
:10195000EF90DF900C941C0B2A813B8124303105E1
:1019600011F486FD0DC02A813B812330310541F7FA
:1019700083FFE6CF8B899C8901969C8B8B8B67C0FC
:1019800063E1CE010E945C0C082F60E1CE010E9451
:101990005C0C482F6DE0CE010E941C0BDFB6F89462
:1019A00060E08F890E9455098D899E89DC01ED9147
:1019B000FC910190F081E02D60E009957E01BBE192
:1019C000EB0EF11C102F115070F08D899E89DC01F7
:1019D000ED91FC910190F081E02D60E00995F70117
:1019E00081937F01F0CF61E08F890E945509DFBEAE
:1019F0000A8F4FEF62E1CE010E941C0B6AE1CE011B
:101A00000E945C0C89588E878A8DFE01E65EFE4F2F
:101A10008430C8F08B8D8E838C8D8F838D8D8887DD
:101A20008E8D89878D81811107C09E818C81981749
:101A300019F08E818F3F39F489899A8901969A8BA2
:101A4000898B81E080838081882309F479CFCE015E
:101A50000E94740B75CF8091360E9091370E0097CF
:101A600011F00C94880C08958091340E9091350EED
:101A7000009711F00C94880C08958091320E90918B
:101A8000330E009711F00C94880C0895CF93DF93D8
:101A9000EC018D899E89DC01ED91FC910680F78136
:101AA000E02D099561E08F890E94B50961E08F8979
:101AB0000E94550964E670E080E090E00E94200AF0
:101AC00081E0DF91CF910895FF920F931F93CF9301
:101AD000DF931F92CDB7DEB7F42E05EB1EE1D801E0
:101AE0008D919C91DC01ED91FC91008CF18DE02DAC
:101AF0000995F80180819181DC01ED91FC91028CC6
:101B0000F38DE02D40E060E8099581E289834F2D57
:101B100061E0CE0101960E9456070E944B070F908C
:101B2000DF91CF911F910F91FF900895CF92DF9297
:101B3000EF92FF920F931F93CF93DF93EC018B01F2
:101B40007A0169018091B51E9091B61EDC01ED917C
:101B5000FC910280F381E02D099581110BC010E00A
:101B6000812FDF91CF911F910F91FF90EF90DF9028
:101B7000CF9008958091B51E9091B61EDC01ED9135
:101B8000FC910480F581E02DA701B8010995182F7B
:101B9000882329F38091B51E9091B61EDC01ED914A
:101BA000FC9100A0F1A1E02D0995F82E8091B51EC1
:101BB0009091B61EDC01ED91FC91068CF78DE02D25
:101BC0000995E82E8091B51E9091B61EDC01ED912D
:101BD000FC9102A0F3A1E02D0995082F8091B51E7C
:101BE0009091B61EDC01ED91FC9104A0F5A1E02DD1
:101BF000099587FDB4CFBFEFEB1629F04F2D602F6D
:101C0000CE010E94640DCF0DD11D8B85801709F484
:101C1000A6CFF601F0820B87A3CF9FB7F8948091EF
:101C2000300E882319F081508093300E8091300E51
:101C3000811105C08CB58F7B8CBD109226169FBF7D
:101C400008958CB58F778CBD08958CB580688CBD58
:101C50000895FC01738362830895FC017783668392
:101C60000895FC01758364830895089580E00895C4
:101C7000FC0181850895FC0180850895FC01878120
:101C80000895FC01868108954095FC012585422335
:101C9000642B65870895FC0164870895FC016387C0
:101CA0000895FC0162870895FC0164830895FC0196
:101CB000658308958F929F92AF92BF92CF92DF92E9
:101CC000EF92FF92CF93DF93EC016B010E94990A90
:101CD0004B015C01F12CE12C0E94990A68197909E9
:101CE0008A099B096C157D058E059F0580F48A8104
:101CF0009B81039789F381E0DF91CF91FF90EF9073
:101D0000DF90CF90BF90AF909F908F90089580E02C
:101D1000F3CFFC012281338123303105D1F381E0FF
:101D200008958F929F92AF92BF92CF92DF92EF92DF
:101D3000FF92CF93DF93EC016B010E94990A4B0154
:101D40005C01F12CE12C0E94990A681979098A0931
:101D50009B096C157D058E059F05A0F4E881F9812E
:101D60000280F381E02DCE010995882361F3DF9194
:101D7000CF91FF90EF90DF90CF90BF90AF909F906A
:101D80008F90089580E0F3CFCF93DF93EC01E8814B
:101D9000F9810280F381E02DCE0109958823B9F302
:101DA000DF91CF91089581E008951F93CF93DF9342
:101DB000EC01162F88819981DC01ED91FC9102885C
:101DC000F389E02D099588819981DC01ED91FC91E1
:101DD0000688F789E02D612F09951A83DF91CF914D
:101DE0001F910895CF92DF92EF92FF920F931F936E
:101DF000CF936B017C01142F8091B51E9091B61E7C
:101E0000DC01ED91FC910190F081E02D0995C82F46
:101E1000882309F16091B71E85EB9EE10E94D50EE3
:101E200088E790E09093BE1E8093BD1E83E0809370
:101E3000BF1E612F85EB9EE10E94D50E0091B51E5D
:101E40001091B61EB701A601C8010E94880B61E17E
:101E5000C8010E944C0B8C2FCF911F910F91FF90C6
:101E6000EF90DF90CF90089585ED8093BC00809136
:101E7000BC0084FDFCCF1092A518089520910D0E92
:101E8000260F3327331F21323105ECF42091A5189A
:101E9000FC0190E080E0243069F082E00895A09198
:101EA0000D0E2191AC014351524FA40FB52FB11D1E
:101EB0002C930196861798F380910D0E680F60930E
:101EC0000D0E80E0089581E008950895E091A9182D
:101ED0008091A818E81730F4F0E0E75CF74E8081B5
:101EE00090E008958FEF9FEF08959091A918809149
:101EF000A8182FEF3FEF981748F4E92FF0E0E75CC0
:101F0000F74E208130E09F5F9093A918C901089592
:101F10008091A8189091A918891B990B0895CF92C8
:101F2000DF92EF92FF920F931F93CF93DF937C0189
:101F3000CB018A0120917D18222389F0EB016B01EE
:101F4000C40ED51ECC15DD0569F06991D701ED9160
:101F5000FC910190F081E02DC7010995F3CF642F2A
:101F60000E943E0FC801DF91CF911F910F91FF900A
:101F7000EF90DF90CF900895CF93DF931F92CDB76E
:101F8000DEB7698320917D182223F9F02091A618ED
:101F9000203258F021E030E0FC013383228390E0CE
:101FA00080E00F90DF91CF9108958091A718E82FDE
:101FB000F0E0E258F74E998190838F5F8093A718E5
:101FC0008093A61881E090E0ECCF61E0CE0101960D
:101FD0000E943E0FF7CFCF93C62F91E090937D18CC
:101FE00098E690939E181092A7181092A618682F42
:101FF0008AE192E20E94BC0F6C2F8AE192E20E9479
:10200000BC0F81E0CF910C946E06CF93CFB7F894BC
:102010008091300E811127C0EDEEFAE08491EDE061
:10202000FBE09491E82FF0E0EE0FFF1FE553F54F32
:10203000A591B491EC91E92321F461E084E00E9440
:10204000550961E084E00E94B5098CB580618CBDC2
:102050008CB580648CBD61E087E00E94B50961E0C9
:1020600085E00E94B5098091300E8F5F8093300E1D
:10207000CFBFCF910895FC0126813781211531050D
:1020800091F12130310559F12230310551F12330E0
:10209000310549F52CE09CB5937F922B9CBD848142
:1020A0009581019711F58CB580628CBD82819381F9
:1020B000019784309105E0F484599E4FFC01908192
:1020C0008CB58C7F292F2370822B8CBD8DB592FB14
:1020D000992790F98E7F892B8DBD0C94051024E0F3
:1020E000DACF28E0D8CF20E0D6CF8CB58F7DDDCFFA
:1020F00095E0E6CF9FB7F894209126168091E70DE2
:10210000213019F48DBB9FBF08958FBF089561E002
:10211000FC0184810E9455098091E60D882339F0E5
:102120001092E60D8091261681110C947A10089574
:102130008EBD00000DB407FEFDCF8EB50895862F2D
:102140000C9498108FEF0C9498100F931F93CF93CB
:10215000DF93EC010E94990A8B010E94A2108F3F2D
:1021600069F00E94990A601B710B6C177D07A8F338
:1021700080E0DF91CF911F910F91089581E0F9CF19
:1021800020912616222361F02FB7F894309126165D
:10219000313049F43DB33093E70D3DB33DBB2FBF24
:1021A0008CBD9DBD08952093E70DFACFCF93DF93AB
:1021B000EC018091E60D811109C081E08093E60D6C
:1021C0008091E41C9091E51C0E94C01060E08C811D
:1021D000DF91CF910C9455098F929F92AF92BF924D
:1021E000FF920F931F93CF93DF93EC01F62E4901DB
:1021F0005A018E81882389F08F8198859C012F5FF9
:102200003F4F38872F838230924018F40E94A210EB
:10221000F3CFCE010E9487101E82CE010E94D610FD
:102220008CE291E00E94A5108F2D80640E9498108E
:1022300008E110E0D501C401002E04C0B695A795B1
:10224000979587950A94D2F70E9498100850110923
:10225000083F8FEF180771F785E9FF2021F028E08C
:1022600087E8F2128FEF0E94981010E00E94A210EF
:102270008A8787FF04C01F3F11F01F5FF7CFDF91F0
:10228000CF911F910F91FF90BF90AF909F908F9033
:102290000895AF92BF92CF92DF92EF92FF920F9389
:1022A0001F93CF93DF93EC016901C801820F931F45
:1022B0008130924050F58E81882379F08881998110
:1022C000AA81BB8184179507A607B70731F48F81D0
:1022D0009885C816D90608F042C0488359836A8396
:1022E0007B838B85833039F089E0440F551F661F4F
:1022F000771F8A95D1F79A01AB0161E1CE010E9467
:10230000EC10882389F083E08D83CE010E94871032
:1023100080E0DF91CF911F910F91FF90EF90DF90C0
:10232000CF90BF90AF9008950E94990A5B010E94E0
:10233000A2108A878F3F69F40E94990A6A197B0963
:102340006D327140A0F38FE08D83CE010E94871023
:10235000DCCF8E3F89F418861F8281E08E838F81C7
:1023600098858C159D0550F40E94A2108F81988548
:10237000019698878F83F3CF8DE0E6CF6701E00E5B
:10238000F11E0E94A210F60181936F01EE15FF0568
:10239000C1F78F819885080F191F18870F838985CA
:1023A000882319F001151240A0F08E81882389F04E
:1023B0008F8198859C012F5F3F4F38872F83823014
:1023C000924018F40E94A210F3CFCE010E94871011
:1023D0001E8281E09ECFEF92FF920F931F93CF93C7
:1023E000DF93EC01790182E1411551056105710529
:1023F00099F08B85833039F089E0440F551F661FB3
:10240000771F8A95D1F79A01AB0168E1CE010E944E
:10241000EC10882319F084E08D8330C08EEF0E9489
:10242000981087018EEFF81AF80181918F010E94B0
:1024300098100E151F05C1F78FEF0E9498108FEFAF
:102440000E9498100E94A2108A878F71853089F4AB
:1024500088E592E00E94A5108823A9F020E030E0F2
:10246000A9016DE0CE010E94EC10882371F084E197
:10247000D3CF81E18D83CE010E948710CE010E94CF
:10248000871080E00AC085E1C7CF0E94A2108111A9
:10249000EECFCE010E94871081E0DF91CF911F9196
:1024A0000F91FF90EF900895CF93DF938091E80D07
:1024B0008823A9F1C0912716D091281640911D01BB
:1024C00050911E0160911F017091200129E236E1B7
:1024D000CE010E94EB11811104C080E0DF91CF9109
:1024E00008954091E90D5091EA0D6091EB0D7091C6
:1024F000EC0D411551056105710579F029E236E1D0
:10250000CE010E94EB11882341F31092E90D109245
:10251000EA0D1092EB0D1092EC0D1092E80D81E097
:10252000DDCF8F929F92AF92BF92EF92FF920F9367
:102530001F93CF934B015C01C42F80911D0190919B
:102540001E01A0911F01B091200188159905AA05CF
:10255000BB0549F10E94541281110BC080E0CF915C
:102560001F910F91FF90EF90BF90AF909F908F9031
:10257000089589E2E82E86E1F82E00E012E030E0CE
:1025800020E0B501A40180912716909128160E94A1
:102590004911882319F380921D0190921E01A09287
:1025A0001F01B09220014091E80D4C2B4093E80DA3
:1025B00081E0D5CFCF93DF93EC016E857F8588894D
:1025C000998941E00E949112882351F08A8920E282
:1025D000829FC0011124875D994EDF91CF910895AC
:1025E00090E080E0FACF8F929F92AF92BF92CF920D
:1025F000DF92EF92FF92CF9326EE3CE130932816C4
:1026000020932716882309F46DC040E060E070E055
:10261000CB010E94911281110BC080E0CF91FF90FD
:10262000EF90DF90CF90BF90AF909F908F900895E4
:102630008091E7178F7789F78091F3179091F417BE
:10264000A091F517B091F61784369105A105B10553
:1026500020F3C090EF17D090F017E090F117F090B2
:10266000F217C114D104E104F104B9F240E0C7014A
:10267000B6010E949112882381F2809134169091C4
:1026800035168115924049F6A0913916AA2329F2F0
:1026900060913716709138166115710509F4BDCF38
:1026A00020913616222309F4B8CFA093041D20935D
:1026B000F61C90E080E030E0E1E0F0E0C82FAF01F0
:1026C000082E02C0440F551F0A94E2F7241735075D
:1026D00069F041E0480F01968930910579F7409300
:1026E000FF1C9BCFC12CD12C7601C0CF8093FF1C47
:1026F00020913F163091401650E040E02115310501
:1027000041F420914D1630914E1640914F16509144
:1027100050162093F71C3093F81C4093F91C5093EB
:10272000FA1C46015701860E971EA11CB11C80920F
:10273000051D9092061DA092071DB092081DE09104
:102740003A16F0913B16F0930B1DE0930A1DB0E092
:102750000E94E961DC01CB01880D991DAA1DBB1DFA
:1027600080930C1D90930D1DA0930E1DB0930F1D13
:1027700025E0EE0FFF1F2A95E1F7E150FE4FEF2F06
:10278000FF27E6958E0F9F1FA11DB11D8093001D91
:102790009093011DA093021DB093031D80903C16E1
:1027A00090903D16B12CA12C8114910441F480909D
:1027B000491690904A16A0904B16B0904C16C81A25
:1027C000D90AEA0AFB0AC80CD91CEA1CFB1C04C083
:1027D000F694E794D794C794CA95D2F7C092FB1C9D
:1027E000D092FC1CE092FD1CF092FE1C85EFC816F6
:1027F0008FE0D806E104F10428F48CE08093091DF1
:1028000081E00CCF80E125EFC2162FEFD206E10464
:10281000F104A0F38091551690915616A091571689
:10282000B091581680930C1D90930D1DA0930E1D12
:10283000B0930F1D80E2E2CF4F925F926F927F9232
:102840008F929F92AF92BF92CF92DF92EF92FF92C0
:102850000F931F93CF93DF93EC0142305105610535
:10286000710590F480E0DF91CF911F910F91FF905F
:10287000EF90DF90CF90BF90AF909F908F907F9020
:102880006F905F904F90089589859A85AB85BC8540
:102890000196A11DB11D84179507A607B70710F370
:1028A000CB88DC88ED88FE888F89803109F042C0B2
:1028B000BB27A72F962F852F480159012A013B01DD
:1028C000C80ED91EEA1EFB1E80911D0190911E01AB
:1028D000A0911F01B0912001C816D906EA06FB0697
:1028E00099F58F898031C1F5B301A201552766277B
:1028F0007727440F551F475D594EFA019182808218
:102900008091E80D81608093E80D8A89823080F0A3
:102910008D819E81AF81B8858C0D9D1DAE1DBF1D23
:102920008093E90D9093EA0DA093EB0DB093EC0D1D
:1029300081E099CFDB01CA01E7E0B695A7959795AD
:102940008795EA95D1F7B8CF40E0C701B6010E945C
:1029500091128111C6CF86CFB301A2014F775527BF
:1029600066277727440F551F440F551F475D594E63
:10297000FA0180829182A282B382C2CF8F929F920B
:10298000AF92BF92CF92DF92EF92FF920F931F937D
:10299000CF93DF93FC0181859285A385B485019651
:1029A000A11DB11D84179507A607B70770F480E035
:1029B000DF91CF911F910F91FF90EF90DF90CF901B
:1029C000BF90AF909F908F90089583889488A5883A
:1029D000B6888789803189F5BB27A72F962F852F49
:1029E000E9016A017B018F01BC01CD01680D791DF0
:1029F0008A1D9B1D80901D0190901E01A0901F01BB
:102A0000B090200186169706A806B90601F5F801D0
:102A10008789803111F5DD24EE24FF24F601EE0FC5
:102A2000FF1FE75DF94E80819181B0E0A0E08883CF
:102A30009983AA83BB8381E0BBCFDB01CA01C7E0D6
:102A4000B695A79597958795CA95D1F7C9CF40E0D8
:102A50000E9491128111DBCFAACFE894C7F8DD2440
:102A6000EE24FF24F601EE0FFF1FEE0FFF1FE75DC0
:102A7000F94E80819181A281B381BF70D8CF4F92EE
:102A80005F926F927F92AF92BF92CF92DF92EF925E
:102A9000FF920F931F93CF93DF9300D000D0CDB759
:102AA000DEB78C0149835A836B837C835901C12C27
:102AB000D12C7601412C82E0582E612C712C498159
:102AC0005A816B817C819E012F5F3F4FC8010E941C
:102AD000BE14882339F1F8018585A301920104C051
:102AE000220F331F441F551F8A95D2F7DA01C901FF
:102AF000C80ED91EEA1EFB1E49815A816B817C815A
:102B00008789803111F188EF9FEFAFEFBFE0481761
:102B100059076A077B0798F2F501C082D182E282E9
:102B2000F38281E00F900F900F900F90DF91CF9183
:102B30001F910F91FF90EF90DF90CF90BF90AF90DB
:102B40007F906F905F904F90089588EF9FEFA0E087
:102B5000B0E0DDCFCF93DF93FC012581222321F06C
:102B600080E0DF91CF910895EC018091091D8031C3
:102B700059F582E08583178A108E118E128E80910E
:102B80000A1D90910B1DB0E0A0E025E0880F991F71
:102B9000AA1FBB1F2A95D1F7838B948BA58BB68B6D
:102BA00082EF9CE19C8F8B8F81E08C831E821F8241
:102BB000188619861A861B861C861D861E861F8609
:102BC000188A198A1A8ACDCF803251F683E085831C
:102BD00040910C1D50910D1D60910E1D70910F1DA7
:102BE000478B508F618F728F9F012D5E3F4F82EF19
:102BF0009CE10E943F158111D3CFB2CF8F929F925B
:102C0000AF92BF92CF92DF92EF92FF920F931F93FA
:102C1000CF93DF93EC018D8181110EC080E0DF91B5
:102C2000CF911F910F91FF90EF90DF90CF90BF90C9
:102C3000AF909F908F9008950B891C892D893E89B4
:102C4000041715072607370748F34A015B0182304E
:102C500031F48A869B86AC86BD8681E0E0CF811404
:102C60009104A104B10449F41E821F8218861986BA
:102C70001A861B861C861D86F0CF0A851B852C852F
:102C80003D85EB8DFC8D858590E00996B901A80105
:102C90004150510961097109082E04C07695679564
:102CA000579547950A94D2F775016401E1E0CE1A71
:102CB000D108E108F10804C0F694E794D794C794CA
:102CC0008A95D2F7C416D506E606F70620F0012B42
:102CD000022B032B11F58F89988DA98DBA8D8E83C8
:102CE0009F83A887B9878E010A5F1F4FC114D10443
:102CF000E104F10409F4ADCF4E815F8168857985E7
:102D000098018B8D9C8D0E94BE1491E0C91AD10848
:102D1000E108F1088111EACF81CFC41AD50AE60A89
:102D2000F70AE1CF3F924F925F926F927F928F921C
:102D30009F92AF92BF92CF92DF92EF92FF920F934A
:102D40001F93CF93DF93CDB7DEB72C970FB6F894D0
:102D5000DEBF0FBECDBF5C01DC015B968D909C9009
:102D60005C9716964D905D906D907C9019974114EC
:102D700051046104710409F468C0BFEF4B1A5B0A87
:102D80006B0A7B0A312CF40181859285A385B48579
:102D90009C01AD012F5F3F4F4F4F5F4F29873A870F
:102DA0004B875C87730162011D821E821F82188619
:102DB000F40181859285A385B4852D813E814F8163
:102DC0005885281739074A075B0708F056C08985D8
:102DD0009A85AB85BC858C159D05AE05BF0550F465
:102DE00082E0C82ED12CE12CF12C92E0492E512CFE
:102DF000612C712C9E012F5F3F4FB701A601C401CA
:102E00000E94BE148823C9F189819A81AB81BC815B
:102E1000892B8A2B8B2B09F1260137019FEF491A49
:102E2000590A690A790A2D813E814F8158852F5FA1
:102E30003F4F4F4F5F4F2D833E834F8358873FEF68
:102E4000C31AD30AE30AF30AB3CFF40140805180D6
:102E5000628073803324339496CFC414D504E6047F
:102E6000F70409F70FEF1FEF2FEF3FE0B701A601BF
:102E7000C4010E941C14811119C080E02C960FB669
:102E8000F894DEBF0FBECDBFDF91CF911F910F91A0
:102E9000FF90EF90DF90CF90BF90AF909F908F907A
:102EA0007F906F905F904F903F900895F50146811D
:102EB000578160857185411551056105710539F0AE
:102EC00097018601C4010E941C148823B1F2D50128
:102ED0001696CD92DD92ED92FC921997332051F027
:102EE000D701C6010196A11DB11DF4018083918314
:102EF000A283B383F5018789908DA18DB28D892B33
:102F00008A2B8B2B39F4C78AD08EE18EF28E848186
:102F10008068848381E0B2CF2F923F924F925F927C
:102F20006F927F928F929F92AF92BF92CF92DF92D9
:102F3000EF92FF920F931F93CF93DF93EC015B010E
:102F40002A018D81811115C08FEF9FEFDF91CF9105
:102F50001F910F91FF90EF90DF90CF90BF90AF90B7
:102F60009F908F907F906F905F904F903F902F90A9
:102F700008958C8180FFE8CF0B891C892D893E89BB
:102F80004A855B856C857D85C201B0E0A0E0680163
:102F90007901C41AD50AE60AF70AC816D906EA065C
:102FA000FB0618F42801441A550A42011E0126E0C6
:102FB000220E311C8114910409F4B3C04A855B854B
:102FC0006C857D856A0181E0D8228B8D9C8D8A017C
:102FD0009B01E9E03695279517950795EA95D1F776
:102FE000ED81E230E1F5FC01628D738D848D958D6C
:102FF000600F711F821F931F612C22E0722E6C18CC
:103000007D088614970408F434012C8126FD04C041
:103010006114F2E07F0671F400911D0110911E0110
:1030200020911F0130912001061717072807390743
:1030300009F053C040E00E949112882309F484CF24
:10304000C601875D994ED5019C01260D371DFC01F7
:103050002E173F0709F460C041914D93F9CFFC0151
:1030600074807A947022C114D10471F471100CC070
:10307000452B462B472B39F58F89988DA98DBA8D15
:103080008E839F83A887B987EB8DFC8D6E817F81AE
:10309000888599856250710981099109258504C047
:1030A000660F771F881F991F2A95D2F70685178507
:1030B00020893189600F711F821F931F670D711D59
:1030C000811D911D99CF4E815F8168857985910120
:1030D0000E94BE148111D8CF37CF750183019601AC
:1030E000AB01BC0180912716909128160E944911CE
:1030F000882309F429CFA60CB71C8A859B85AC854B
:10310000BD85860D971DA11DB11D8A879B87AC8744
:10311000BD87861897084ECF281B390BA20EB31E09
:10312000ECCFC20113CFCF93DF93EC018D818823C5
:1031300029F18C8187FF1EC0CE010E94DA12FC01AA
:10314000892BE1F08D81823040F48B899C89AD8997
:10315000BE89848F958FA68FB78F8F89988D938F17
:10316000828F8F89988DA98DBA8DB58BA48B8C8118
:103170008F778C83DF91CF910C94541280E0DF9194
:10318000CF910895CF93DF93EC010E949318882389
:1031900011F01D8281E0DF91CF910895CF92DF92EF
:1031A000EF92FF921F93CF93DF938091151D882399
:1031B00021F080E19DE10E94C2181092F11C109252
:1031C000EF1C1092EC1C1092EB1C83E08093EA1C25
:1031D0000E94990AEB0161E08091EA1C0E94B50906
:1031E00061E08091EA1C0E9455090E94051082E569
:1031F0008093E41C81E08093E51C8091E41C909115
:10320000E51C0E94C0101AE08FEF0E949810115028
:10321000D9F78091261681110E947A1086EE9CE1E2
:103220000E94D61020E030E0A90160E086EE9CE12B
:103230000E94EC10182F8093F01C813081F00E94C6
:10324000990A6C1B7D0B613D774060F381E08093B0
:10325000EB1C86EE9CE10E94871090E078C02AEA81
:1032600031E040E050E068E086EE9CE10E94EC1026
:1032700082FF2AC01093F11C8091F11CC12CD12C2B
:103280007601823029F4C12CD12CE12C80E4F82E77
:1032900020E030E0A90167E386EE9CE10E94EC109B
:1032A000A701960169E286EE9CE10E94EC108093F2
:1032B000F01C8823C1F00E94990A6C1B7D0B613DB4
:1032C000774030F388E0C3CF14E00E94A2108093CF
:1032D000F01C1150D1F78A3A11F082E0B8CF82E0A9
:1032E0008093F11CC9CF8091F11C8230D1F420E091
:1032F00030E0A9016AE386EE9CE10E94EC1088238D
:1033000011F086E0A4CF0E94A210807C803C19F4CA
:1033100083E08093F11C0E94A2100E94A2100E94E0
:10332000A21086EE9CE10E94871080E58093E41C49
:1033300081E08093E51C0E94F312882389F080E1EC
:103340009DE10E94AA1591E0882309F486CF892F78
:10335000DF91CF911F91FF90EF90DF90CF90089574
:1033600080E00E94F312882309F477CFE8CF2F92F0
:103370003F924F925F926F927F928F929F92AF9205
:10338000BF92CF92DF92EF92FF920F931F93CF9352
:10339000DF9300D000D0CDB7DEB78C015B011A01FE
:1033A000DC0115968C911597813009F0C8C01496F0
:1033B0008C9181FFC4C082FDAEC06101D8011A9614
:1033C0004D915D916D917C911D97C114D10409F4CB
:1033D00029C15B968D919C915C97FC0174802FEFC5
:1033E000270D2A013B0139E076946794579447945E
:1033F0003A95D1F7722E74207A01F1E0FF22711014
:1034000020C0E114F104E9F416964D915D916D919F
:103410007C911997411551056105710509F098C016
:1034200057968D919D910D90BC91A02D0097A1056F
:10343000B10509F0AFC0C8010E949216882309F4B3
:103440007EC080E092E08E199F0946018C159D0593
:1034500008F44C01D8015B964D915C915C971696EF
:103460008D919D910D90BC91A02D0297A109B1095C
:10347000FA01258504C0880F991FAA1FBB1F2A9532
:10348000D2F74685578560897189840F951FA61FDD
:10349000B71F9C01AD01270D311D411D511D290193
:1034A0003A01811432E0930609F07AC080911D013F
:1034B00090911E01A0911F01B091200184159505E6
:1034C000A605B70559F48FEF9FEFDC0180931D012E
:1034D00090931E01A0931F01B09320019501B301A9
:1034E000A20180912716909128160E94EB11882343
:1034F00031F19EEFB91AC818D908F8018285938571
:10350000A485B585880D991DA11DB11D828793875E
:10351000A487B58753CFF801438954896589768993
:1035200082859385A485B585481759076A077B0767
:1035300009F443CFC8010E94FE1581113ECF81E0FE
:1035400090E0D80113969C938E93129780E007C069
:103550009E012F5F3F4F0E94BE14811102C090E078
:1035600077C089819A81AB81BC81F801238D348D2C
:10357000F901278948EF5FEF60E070E0203121F02A
:1035800048EF5FEF6FEF7FE084179507A607B70757
:1035900008F051CFF80186839783A087B18751CF78
:1035A000E114F10491F5D8011A964D915D916D9158
:1035B0007C911D9753968D919D910D90BC91A02D5E
:1035C000481759076A077B0700F10E9454128823A5
:1035D00009F4B5CF40921D0150921E0160921F0167
:1035E000709220018091E80D81608093E80D970131
:1035F000275D394ED501C901880D991DF9018E1736
:103600009F0759F04D914193FACF41E0C301B201B8
:103610000E9491128111EBCF92CF821B930BA80EC7
:10362000B91E69CFF80183899489A589B689841761
:103630009507A607B70738F48481438B548B658BB5
:10364000768B80688483F801848183FD18C0C10172
:103650000F900F900F900F90DF91CF911F910F91CE
:10366000FF90EF90DF90CF90BF90AF909F908F90A2
:103670007F906F905F904F903F902F900895C8017A
:103680000E949318882309F45ACFE1CFCF93DF9398
:103690001F92CDB7DEB7698341E050E0BE016F5F96
:1036A0007F4F0E94B7190F90DF91CF910895FC01D1
:1036B000DB0112968D919C9113979383828382EC08
:1036C00091E09183808314968C911497848315964E
:1036D0008C911597858316964D915D916D917C9196
:1036E000199746835783608771871A964D915D912C
:1036F0006D917C911D9742875387648775871E96CD
:103700004D915D916D917C91519746875787608B64
:10371000718B52968C915297828B53964D915D91FD
:103720006D917C915697438B548B658B768B579616
:103730004D915D916D917C915A97478B508F618F20
:10374000728F5B968D919C91948F838F0895DC018D
:103750005996ED91FC91309721F081E0958191117E
:1037600001C080E00895FC01818D928D009711F0D9
:103770000C9493180895DC015996ED91FC913097C3
:10378000B9F083899489A589B68942855385648572
:103790007585841B950BA60BB70B811520E8920746
:1037A000A105B10538F08FEF9FE7A0E0B0E00895E4
:1037B00090E080E00895CF93DF93EC01E98DFA8DDE
:1037C000309749F481E090E09B838A8390E080E029
:1037D000DF91CF91089513821282898D9A8D0E9474
:1037E000B719E98DFA8D22813381232B59F7F0CF58
:1037F000CF93DF931F92CDB7DEB76983DC01ED91E4
:10380000FC910280F381E02D41E050E0BE016F5F4A
:103810007F4F09950F90DF91CF910895CF93DF935C
:103820001F92CDB7DEB741E050E0BE016F5F7F4F22
:103830000E948C17019731F4898190E00F90DF91FD
:10384000CF9108958FEF9FEFF9CF1F93CF93DF9321
:10385000FC012581223030F490E080E0DF91CF91AF
:103860001F910895EC01428553856485758585E037
:1038700076956795579547958A95D1F7142F1F70C0
:10388000CF010E940E1C97FDE7CF8A859B85AC85F2
:10389000BD854F96A11DB11D8A879B87AC87BD87CB
:1038A000F0E21F9FC0011124875D994ED7CFFC0124
:1038B000818D928D009711F00C940E1C8FEF9FEF6D
:1038C00008950F931F93CF93DF93EC01898D9A8D09
:1038D00010E000E0009799F00E940E1C8C010F3F51
:1038E000100769F0898D9A8DFC01428553856485A6
:1038F000758541505109610971090E94FE15C80181
:10390000DF91CF911F910F910895CF93DF93EC0139
:10391000FB01828193819B838A8384819581A68127
:10392000B7818C839D83AE83BF8380859185A2857B
:10393000B38588879987AA87BB878EEC91E09983A6
:1039400088838DE03C96DE011C9601900D928A954D
:10395000E1F7FB01818D928D9A8F898FDF91CF9155
:103960000895CF92DF92EF92FF92CF93DF9360E0C2
:103970008DE10E94B5098DE10E94E609B0E0A0E06A
:10398000BC01CD01660F771F881F991F0E949560AB
:1039900023E333E343E550E40E94F66020E030E0A7
:1039A00048EC52E40E94F66020E030E84FEF53E428
:1039B0000E942E6220E030EC4FE754E40E949A62AD
:1039C0000E941363CB0164E670E00E945863EB0130
:1039D000BC0190E080E00E94956020E030E048EC7F
:1039E00052E40E949A626B017C01BE0190E080E08B
:1039F0000E9495609B01AC01C701B6010E942E6236
:103A0000DF91CF91FF90EF90DF90CF90089560E02D
:103A100080E00E94550968EB7BE080E090E00E9426
:103A2000200A61E080E00C945509CF93DF9380B7C2
:103A3000806880BF61E08EE00E94550962E370E01B
:103A400080E090E00E94200A88E10E94E609EC01F3
:103A500060E08EE00E945509BE01DD0F880B990BD6
:103A60000E94976023EA36E043E55BE30E94F6603C
:103A70002EEB3FE94AEA5FE30E94F660DF91CF91C7
:103A80000895CF93DF93FB0122813381DC011396EC
:103A90003C932E93129744815581668177811496C9
:103AA0004D935D936D937C93179740855185628507
:103AB000738518964D935D936D937C931B971C961D
:103AC000EF012C969C01275E3F4F49914D93A21721
:103AD000B307D9F7218D328DFC01328F218FDF9111
:103AE000CF910895CF93DF9387EC9AE10E94370836
:103AF00089EC90E20E945F0B80B78F7780BFCAE7A6
:103B0000D0E088818F778883F89485B7806885BFF7
:103B100085B7806885BF789461E081E00E9455098F
:103B20008CB58F7B8CBD61E085E00E94B50960E0BB
:103B300085E00E94550983B7817F846083BF83B786
:103B4000816083BF7894EBE6F0E0808184608083BD
:103B5000E8E6F0E080818160808383B7816083BF85
:103B6000889583B78E7F83BF88818068888360E073
:103B700081E00E9455098CB580648CBD40E051EE17
:103B800060E070E087EC9AE10E940D0768EE73E058
:103B900080E090E0DF91CF910C94200A90E080E0EB
:103BA0000895282F30E094E0359527959A95E1F710
:103BB000922F990F990F291B220F820F089581E0F0
:103BC00080937D1888E680939E181092A718109213
:103BD000A61860E08AE192E20E94BC0F81E00E9498
:103BE0006E06811142C067E088E60E94CB06109203
:103BF000A9188093A8188AE192E20E94750F8F7726
:103C00000E94D11D809332188AE192E20E94750FC2
:103C10000E94D11D809333188AE192E20E94750FB1
:103C20008F7B0E94D11D809334188AE192E20E941A
:103C3000750F809335188AE192E20E94750F0E94F9
:103C4000D11D809336188AE192E20E94750F8F771A
:103C50000E94D11D809337188AE192E20E94750F6D
:103C60000E94D11D825E8093381880913218809313
:103C70008B0D809133188093201680913418809397
:103C800021168091361880938E0D8091371880937D
:103C90008F0D8091381890E08E54984F90938D0D31
:103CA00080938C0D62E370E080E090E00C94200A39
:103CB000CF9391E090937D1898E690939E18109280
:103CC000A7181092A618682F8AE192E20E94BC0FF2
:103CD00081E00E946E0681110DC061E088E60E94BD
:103CE000CB061092A9188093A8188AE192E20E944C
:103CF000750FC82F8C2FCF9108951F93CF93DF930B
:103D000081E080937D1888E680939E181092A71812
:103D10001092A61860E08AE192E20E94BC0FC2E312
:103D2000D8E128811AE0822F612F0E944C63682F0E
:103D3000660F680F660F620F8AE192E20E94BC0F65
:103D40002981822F612F0E944C63682F660F680FB4
:103D5000660F620F8AE192E20E94BC0F2A81822FD5
:103D6000612F0E944C63682F660F680F660F620F09
:103D70008AE192E20E94BC0F6B818AE192E20E948A
:103D8000BC0F2C81822F612F0E944C63682F660F1D
:103D9000680F660F620F8AE192E20E94BC0F2D81CC
:103DA000822F612F0E944C63682F660F680F660F89
:103DB000620F8AE192E20E94BC0F2E812E51822F67
:103DC000612F0E944C63682F660F680F660F620FA9
:103DD0008AE192E20E94BC0F81E00E946E06C82F29
:103DE0008FE00E94581E682F6F778FE00E94EB0FC4
:103DF0008C2FDF91CF911F910895CF93DF93C82F20
:103E0000D62F8EE00E94581E4C2F4150550B61E07A
:103E100070E001C0660F4A95EAF7DD2331F0682BA8
:103E20008EE0DF91CF910C94EB0F60956823F8CF73
:103E3000CF93DF93C82F8FE00E94581EC150DD0B37
:103E400021E030E001C0220FCA95EAF7982F9223B3
:103E500051F02095622F68238FE00E94EB0F81E0E4
:103E6000DF91CF91089580E0FBCFCF9382E10E9454
:103E7000581EC82F81E10E94581E6C2F782F77FFA3
:103E800002C0615C7F4F86E0759567958A95E1F782
:103E9000072E000C880B990B0E94976020E030E001
:103EA00040E85EE30E94F660CF9108958F929F9262
:103EB000AF92BF92CF92DF92EF92FF920F931F9338
:103EC000CF93DF9300D000D0CDB7DEB7FC01858162
:103ED000813091F080E00F900F900F900F90DF9164
:103EE000CF911F910F91FF90EF90DF90CF90BF90F7
:103EF000AF909F908F900895848181FFEBCF83894D
:103F00009489A589B689892B8A2B8B2B09F45EC0ED
:103F10007F0140E050E0BA01CF010E94FE158823E6
:103F2000C9F2F701C38CD48C8788908CA18CB28C99
:103F300082E090E0A0E0B0E0F60180839183A2836C
:103F4000B3839E012F5F3F4FB501A401C6010E94BC
:103F5000BE14882309F4BECF00E010E09801B5013B
:103F6000A401C6010E941C14882309F4B3CF8980E0
:103F70009A80AB80BC80F6018789803111F188EF8F
:103F80009FEFAFEFBFE088169906AA06BB06C8F2FE
:103F9000F701178A108E118E128E138A148A158AD1
:103FA000168A848180688483C7010E9493188823BD
:103FB00009F490CF40E050E0BA01C7010E94FE151D
:103FC0008ACF88EF9FEFA0E0B0E0DDCF81E083CF24
:103FD000CF93DF93EC010E94561F882369F0CE0136
:103FE0000E94DA12009741F025EEFC0120831D8229
:103FF000DF91CF910C94541280E0DF91CF9108951E
:10400000CF92DF92EF92FF921F93CF93DF93EC0159
:1040100080E2689FF0011124E75DF94E938591716C
:1040200061F0842F827449F080E0DF91CF911F917D
:10403000FF90EF90DF90CF900895142F6A8B8091BE
:104040001D0190911E01A0911F01B09120018E874A
:104050009F87A88BB98BC488D588F12CE12C760179
:10406000DD24CC24CF8AD88EE98EFA8E828D938D72
:10407000B0E0A0E0AC01BD014C295D296E297F298B
:104080004F8B588F698F7A8F83858871B1F4848DB7
:10409000958DA68DB78D8B8B9C8BAD8BBE8B81E068
:1040A0008D831F701C831E821F82188619861A86B4
:1040B0001B861C861D8681E0B8CF803109F0B4CF05
:1040C0009E012D5E3F4F8B8D9C8D0E943F15882356
:1040D00009F4AACF84E0E4CF2F923F924F925F92EF
:1040E0006F927F928F929F92AF92BF92CF92DF9208
:1040F000EF92FF920F931F93CF93DF9300D000D0E6
:1041000000D0CDB7DEB78C016B8349838091BC1E94
:1041100022242394280E2092BC1E312CC12CD12C99
:104120007601D39477247394730C8091BF1E83150A
:1041300008F4EFC08091B51E9091B61EDC01ED91A0
:10414000FC91008CF18DE02D622D09958091B51EBA
:104150009091B61EDC01ED91FC91028CF38DE02D67
:1041600040E860E0099549816B81C8010E945607CB
:104170000E944B07B981BF3FD1F481E026960FB66C
:10418000F894DEBF0FBECDBFDF91CF911F910F918D
:10419000FF90EF90DF90CF90BF90AF909F908F9067
:1041A0007F906F905F904F903F902F90089521E007
:1041B000271598F48091B81E9091B91EA091BA1E4F
:1041C000B091BB1E0196A11DB11D8093B81E9093A6
:1041D000B91EA093BA1EB093BB1E0E94990A4B0150
:1041E0005C018091BD1E9091BE1E9D838C830E94B8
:1041F000A85FA70196010E94CA619B01AC01AC8136
:10420000BD810E94E961A70196010E94CA61AC814B
:10421000BD812A0F3B1F372C2901712C612C0E9474
:10422000990A681979098A099B0964157505860533
:10423000970508F077CF8091B51E9091B61EDC01EE
:10424000ED91FC910280F381E02D0995882339F3EB
:104250008091B51E9091B61EDC01ED91FC91048019
:10426000F581E02D50E040E070E060E009958823A2
:10427000B1F28091B51E9091B61EDC01ED91FC91DA
:1042800000A0F1A1E02D09958E838091B51E90913B
:10429000B61EDC01ED91FC91068CF78DE02D0995A1
:1042A0008A838091B51E9091B61EDC01ED91FC9140
:1042B00002A0F3A1E02D09958C838091B51E909109
:1042C000B61EDC01ED91FC9104A0F5A1E02D09954D
:1042D000B9812E81B2130BC09091B71EAA819A1397
:1042E00006C087FF04C0BC812B1609F446CF87FDAA
:1042F00096CF2E81E22FF0E0EB54F14E83859C8126
:1043000089138DCF422F692F85EB9EE10E94640DAA
:1043100086CF80E033CF0F931F93CF93DF93411568
:10432000510541F0FC01048115810115110539F495
:10433000FB011082DF91CF911F910F9108954150A1
:1043400051094017510708F48A01EB01FC01608113
:104350007181A801CE010E949764C00FD11F1882FD
:10436000E9CFFB0101900020E9F73197AF01461B2F
:10437000570BDC01ED91FC910280F381E02D099453
:104380008F929F92AF92BF92EF92FF920F931F93E3
:10439000CF93DF93CDB7DEB7A1970FB6F894DEBF0A
:1043A0000FBECDBF7C01FA01CB0119A2223008F467
:1043B0002AE08E010F5D1F4F822E912CB12CA12C73
:1043C000BF01A50194010E94FC61F901CA016A3094
:1043D0000CF5605DD8016E938D01232B242B252BCA
:1043E00079F790E080E0109721F0BD01C7010E94AD
:1043F000B121A1960FB6F894DEBF0FBECDBFDF91FD
:10440000CF911F910F91FF90EF90BF90AF909F9031
:104410008F900895695CDECF462F50E070E060E039
:104420002AE00C94C021CF92DF92EF92FF92CF93BB
:10443000DF93AB01BC0177FF1BC06A017C018DE2F9
:104440000E94BC08EC0144275527BA014C195D09AC
:104450006E097F092AE087EC9AE10E94C0218C0F47
:104460009D1FDF91CF91FF90EF90DF90CF90089547
:104470002AE087EC9AE1DF91CF91FF90EF90DF90F7
:10448000CF900C94C02163E578E00C94B1210F9398
:104490001F93CF93DF93EC010E940C228C01CE017D
:1044A0000E944322800F911FDF91CF911F910F91A6
:1044B0000895CF92DF92EF92FF92CF930E94990AD4
:1044C0006B017C0128E9C20E2AE3D21EE11CF11C1B
:1044D000C092CB0DD092CC0DE092CD0DF092CE0DCE
:1044E0001092CA0D0E94990A6C157D058E059F05D4
:1044F00020F587EC9AE10E941C081816190694F71B
:1045000064E670E080E090E00E94200A87EC9AE187
:104510000E941C08D82EF12CCAE0E090CA0DFD14B0
:1045200060F487EC9AE10E94FB07EC9E800D112459
:1045300080538093CA0DF394F0CF6091CA0D87EC3D
:104540009AE1CF91FF90EF90DF90CF900C944722AB
:10455000CF93DF93AB01BC012AE087EC9AE10E9484
:10456000C021EC0187EC9AE10E9443228C0F9D1F31
:10457000DF91CF910895CF93DF93BC01990F880B02
:10458000990B0E941322EC0187EC9AE10E944322CE
:104590008C0F9D1FDF91CF910895CF92DF92EF9204
:1045A000FF920F931F93CF93DF930E94990A6B01A1
:1045B0007C0128E9C20E2AE3D21EE11CF11CC09244
:1045C000CB0DD092CC0DE092CD0DF092CE0D10928D
:1045D000C90D1092C80D0E94990A6C157D058E05B3
:1045E0009F0508F046C087EC9AE10E941C08181647
:1045F00019068CF764E670E080E090E00E94200AE3
:1046000087EC9AE10E941C088C019093C70D80935F
:10461000C60D81E08093C50D3AE0C32ED090C50D44
:10462000CD2DD0E0E090C80DF090C90D0C171D07FE
:1046300004F187EC9AE10E94FB07CC0FDD1FC954FF
:10464000D24F998388838D30910579F08A30910516
:1046500061F0C097CE9C9001CF9C300D1124820F49
:10466000931F9093C90D8093C80DD394D092C50D1C
:10467000D5CF8091C80D9091C90D0E94BB226AE0F0
:1046800070E080E090E0DF91CF911F910F91FF905B
:10469000EF90DF90CF900C94200A0F931F93CF934D
:1046A000DF938C01D0E0C0E06115710519F00E9424
:1046B000B121EC01C8010E9443228C0F9D1FDF91A4
:1046C000CF911F910F910895CF92DF92EF92FF92B9
:1046D0001F93CF93DF930E94990A6B017C0128E915
:1046E000C20E2AE3D21EE11CF11C0E94990A6C152D
:1046F0007D058E059F0540F587EC9AE10E941C0818
:104700001816190694F764E670E080E090E00E94C5
:10471000200A87EC9AE10E941C08EC01F82E10E0B8
:1047200087EC9AE10E94FB078D3039F08A3029F03E
:10473000E12FF0E0E153F24F80831F5FF11680F725
:10474000DD27C153D24F18826FEC7DE087EC9AE1F0
:10475000DF91CF911F91FF90EF90DF90CF900C945D
:104760004D230F931F93CF93DF93EC01FB01448103
:10477000558160817181E881F9810280F381E02DAA
:1047800009958C01CE010E944322800F911FDF9179
:10479000CF911F910F9108950F931F93CF93DF93A4
:1047A000EC010E949A078C01CE010E944322800FE7
:1047B000911FDF91CF911F910F910895CF93DF93B8
:1047C000EC010E94E20A64E67CE087EC9AE10E9438
:1047D0009A07BE0187EC9AE10E94CC23BE0180912A
:1047E000B31E9091B41E0E94CC2380E00E94520A16
:1047F000C82F6DE57CE087EC9AE10E949A0769EA90
:104800007DE187EC9AE10E944D238C2FDF91CF91BF
:1048100008956115710511F00C94B12190E080E0CC
:1048200008951F93CF93DF930E94DF1D8091B50DF4
:104830008430A9F440912116242F30E0C90102965A
:104840008231910509F457C0423131F468E170E0DA
:104850000E946C63C82F12C0C9010496F7CF813043
:1048600071F4C09121168C2F90E00196C23171F73E
:1048700080912016833208F43FC0C3E1D3E02AE0E0
:104880008C2F622F0E944C63182F110F180F110FDD
:104890001C0F8D2F0E944C63682F660F680F660FE8
:1048A0006D0F8BE00E94EB0F612F8CE00E94EB0FED
:1048B00060E88DE00E94EB0F6AE172E087EC9AE11C
:1048C0000E9409246C2F87EC9AE10E940C2263E974
:1048D00079E087EC9AE10E9409246D2F87EC9AE138
:1048E0000E94472262E370E080E090E0DF91CF9188
:1048F0001F910C94200AC2E1D3E2C1CFCF930E9452
:10490000DF1D2091A80DE22FF0E0809120168E0F80
:104910009F2F911D6CE370E00E946C63BF010E94A9
:104920006C63269F202D11242F5F2093200D822F52
:104930006AE00E944C63C82FCC0FC80FCC0FC20F87
:1049400060E087E00E94EB0F6C2F88E00E94EB0F85
:1049500060E889E00E94EB0F60E88AE00E94EB0FBC
:104960006CE272E087EC9AE10E9409246091200DCC
:1049700087EC9AE10E94472262E370E080E090E0D9
:10498000CF910C94200ADF92EF92FF920F931F9326
:10499000CF93DF938C017B01D42EBC0189EA9DE18A
:1049A0000E943960EC01892BE1F0C8010E9430605F
:1049B0008C0F9D1FDD2039F06CE270E00E94856451
:1049C000009779F001960E940060F701918380833F
:1049D00081E0DF91CF911F910F91FF90EF90DF90D9
:1049E000089580E0F6CFCF93DF9300D0CDB7DEB748
:1049F00084E59CE00E94DE2341E0BE016F5F7F4FB3
:104A00008CE49CE00E94C324882349F080E00E944B
:104A1000520A89810F900F90DF91CF91089580E025
:104A2000F9CFCF93DF9300D0CDB7DEB780E59BE021
:104A30000E94DE2340E0BE016F5F7F4F89E49BE070
:104A40000E94C324882349F080E00E94520A898191
:104A50000F900F90DF91CF91089580E0F9CFCF9321
:104A6000DF93EB010E94DE23882341F0BE0189EA37
:104A70009DE10E94276021E0892B09F020E0822F30
:104A8000DF91CF910895CF93DF939093B41E8093DD
:104A9000B31E61E08091A71D0E94B50961E080917D
:104AA000A71D0E9455096AE070E080E090E00E9436
:104AB000200A60E08091A71D0E94550964E670E01D
:104AC00080E090E00E94200A61E08091A71D0E9492
:104AD00055096BE27CE087EC9AE10E94CC23CEE0A2
:104AE000D0E08091B31E9091B41EDC01ED91FC9159
:104AF0000084F185E02D0995892B61F08091B31E2A
:104B00009091B41EDC01ED91FC910284F385E02DBF
:104B10000995E7CF6091B11E7091B21E88E29CE0CA
:104B20000E942F2581115AC08091B31E9091B41E0E
:104B3000DC01ED91FC910084F185E02D0995892B34
:104B400061F08091B31E9091B41EDC01ED91FC9157
:104B50000284F385E02D0995E7CF62E27CE085E2EF
:104B60009CE00E942F25811139C064EF71E080E044
:104B700090E00E94200A219709F0B3CF60EF7BE01C
:104B800087EC9AE10E94CC236091B11E7091B21E15
:104B90008DEE9BE00E942F2564E670E080E090E0BF
:104BA0000E94200A6091B11E7091B21E8AEE9BE0B5
:104BB0000E942F2564E670E080E090E00E94200AC9
:104BC0006091B11E7091B21E87EE9BE00E942F256E
:104BD00064E670E080E090E00E94200A6091B11EDF
:104BE0007091B21E82EE9BE00E942F2564E670E079
:104BF00080E090E00E94200A6091B11E7091B21E88
:104C00008DED9BE00E942F25C82F882309F479C0E1
:104C10006091B11E7091B21E83ED9BE00E942F2522
:104C200064E670E080E090E00E94200A0E94E20AC0
:104C30006CEC7BE087EC9AE10E949A076EE372E0ED
:104C400087EC9AE10E944D236EE372E08091B31EDF
:104C50009091B41E0E944D2381E00E94520A65EC9F
:104C60007BE087EC9AE10E949A0769EA7DE187EC94
:104C70009AE10E944D236AEB7BE089EA9DE10E9464
:104C80003960892B09F441C083E08093A81D80918D
:104C9000A81D813071F56DE77BE087EC9AE10E94F9
:104CA0009A0762E472E087EC9AE10E944D2362E485
:104CB00072E08091B31E9091B41E0E944D2381E05A
:104CC0000E94520A66E77BE087EC9AE10E949A070D
:104CD00069EA7DE187EC9AE10E944D236EE67BE074
:104CE00089EA9DE10E943960892B19F086E0809362
:104CF000A81D6091B11E7091B21E87E59BE00E94D5
:104D00002F258C2FDF91CF9108956FEA7BE089EA00
:104D10009DE10E943960892B11F082E0B6CF64EAF0
:104D20007BE089EA9DE10E943960892B11F081E0E6
:104D3000ACCF64E97BE089EA9DE10E943960892B70
:104D400011F084E0A2CF64E87BE089EA9DE10E9453
:104D50003960892B09F49BCF85E097CF0E946A6464
:104D60000F931F93CF93DF93EC0188819981009774
:104D700059F02A813B812617370730F081E0DF9117
:104D8000CF911F910F9108958B016F5F7F4F0E940C
:104D90008963009759F0998388831B830A832C8148
:104DA0003D81232B59F7FC011082E8CF80E0E7CF4B
:104DB000EF92FF920F931F93CF93DF9361157105CD
:104DC00041F480E0DF91CF911F910F91FF90EF9020
:104DD000089541155105B1F07B01EC010C811D8155
:104DE000040F151FB8010E94B026882351F32881B3
:104DF00039818C819D81B701820F931F0E9490643D
:104E00001D830C8381E0DECFEF92FF920F931F93FF
:104E1000CF93DF9300D000D0CDB7DEB77C01862FD3
:104E20004AE08E010F5F1F4FB80190E00E9453606F
:104E3000F80101900020E9F73197AF01401B510BB9
:104E4000B801C7010E94D8260F900F900F900F90C5
:104E5000DF91CF911F910F91FF90EF900895CF9325
:104E6000DF9300D0CDB7DEB769831A8241E050E00E
:104E7000BE016F5F7F4F0E94D8260F900F90DF9189
:104E8000CF910895FB0101900020E9F73197AF0120
:104E9000461B570B0C94D826FB0144815581608139
:104EA00071810C94D826CF93DF93EC01888199818E
:104EB000009711F00E94D35E198218821D821C8215
:104EC0001B821A82DF91CF910895CF93DF93EC017B
:104ED0006115710539F4CE010E945327CE01DF918F
:104EE000CF910895FB0101900020E9F73197AF01C0
:104EF000461B570B0E94D826882369F3EFCFCF9328
:104F0000DF93EC01FB0144815581608171810E9436
:104F1000D826811103C0CE010E945327CE01DF9114
:104F2000CF910895EF92FF920F931F93CF93DF934A
:104F3000EC017B018A01BA010E94B02681110BC0ED
:104F4000CE010E945327CE01DF91CF911F910F9187
:104F5000FF90EF9008951D830C83B701888199819C
:104F60000E949064F0CFFB0101900020E9F7319797
:104F7000AF01461B570B0C9492270F931F93CF93AF
:104F8000DF93CDB7DEB729970FB6F894DEBF0FBE1B
:104F9000CDBF8C01862FF8011182108213821282FC
:104FA000158214824AE0BE016F5F7F4F90E00E943D
:104FB0006660BE016F5F7F4FC8010E94B3272996CC
:104FC0000FB6F894DEBF0FBECDBFDF91CF911F911A
:104FD0000F9108950F931F93CF93DF93CDB7DEB753
:104FE00062970FB6F894DEBF0FBECDBF8C01CB0128
:104FF000F8011182108213821282158214824AE013
:10500000BE016F5F7F4F0E945360BE016F5F7F4F95
:10501000C8010E94B32762960FB6F894DEBF0FBE98
:10502000CDBFDF91CF911F910F910895CF93DF9363
:10503000C0E0D6E08091B60DC81758F4CD9FC001EE
:10504000112462E572E08A509E4D0E94B327CF5F23
:10505000F1CFDF91CF9108950F931F93CF93DF93FB
:10506000CDB7DEB728970FB6F894DEBF0FBECDBF21
:1050700062E572E08AEE91E20E94B3270E94DF1D92
:105080004AE08E010F5F1F4FB80180918C0D909107
:105090008D0D0E945360F80101900020E9F73197CF
:1050A000AF01401B510BB8018AEE91E20E94D82655
:1050B0006DE28AEE91E20E942F2760918F0D8AEEB9
:1050C00091E20E9404276DE28AEE91E20E942F276E
:1050D00060918E0D8AEE91E20E9404276FE58AEEC0
:1050E00091E20E942F27609121168AEE91E20E94A0
:1050F00004276AE38AEE91E20E942F27109120167E
:105100001A3028F460E38AEE91E20E942F27612F83
:105110008AEE91E20E9404276AE38AEE91E20E94FD
:105120002F2710918B0D1A3028F460E38AEE91E25C
:105130000E942F27612F8AEE91E20E94042769E4E2
:1051400072E08AEE91E20E94422762E370E080E022
:1051500090E00E94200A28960FB6F894DEBF0FBE9A
:10516000CDBFDF91CF911F910F910895CF93DF9322
:10517000EC01FB018617970749F060817181611589
:10518000710541F0448155810E949227CE01DF9143
:10519000CF9108950E945327F9CFFC01118210820C
:1051A00013821282158214820C94B628FC0111829B
:1051B00010821382128215821482FB01019000205A
:1051C000E9F73197AF01461B570B0C949227FC016E
:1051D000808191810C94D35ECF93DF93EC01898D14
:1051E0009A8D009741F00E94C218898D9A8D0E9475
:1051F000D35E1A8E198EDF91CF910895CF92DF92F0
:10520000EF92FF920F931F93CF93DF93EC017B01FB
:105210008A01E881F9810280F381E02D0995D82E79
:10522000882329F1E114F104D1F001151105B9F039
:10523000CFB6F8948A8D8350990BF80120812817F6
:1052400019061CF08A8D84508083F801408150E05B
:10525000BE01615E7F4FC7010E947C64CFBE8FB7E5
:10526000F894FE01E65EFE4F10821A8E8FBF8D2DE0
:10527000DF91CF911F910F91FF90EF90DF90CF9032
:105280000895EF92FF920F931F93CF93DF9300D077
:105290001F92CDB7DEB78C010E94460DE82E81111A
:1052A0000CC0E12C8E2D0F900F900F90DF91CF91BD
:1052B0001F910F91FF90EF900895F801808D8A3033
:1052C00009F47EC08B3009F47DC022E0F22E8230DA
:1052D00041F740E861E0C8010E941C0B6AE070E001
:1052E00080E090E00E94200A61E0C8010E945C0C0E
:1052F0008038B9F660E0F801808D0E94B509F801A8
:10530000818D8F3F49F48091310E843050F691E0C9
:10531000980F9093310E818FF801818DE82FF0E086
:10532000EE0FFF1FEE5CF14F118300836DE37DE014
:10533000882349F064E37DE0813029F0823009F070
:10534000B0CF6BE27DE08F2D0E94790740E06EE0E8
:10535000C8010E941C0B40E06FE0C8010E941C0BBA
:10536000C8010E94740B43E050E06FEB7AE0CE017D
:1053700001960E941E6049816DE1C8010E941C0BCC
:105380004A816EE1C8010E941C0B4B8166E2C80194
:105390000E941C0B40E060E2C8010E941C0B48E028
:1053A00061E2C8010E941C0B40E050EC64E674E42A
:1053B000C8010E94880B6DE0C8010E944C0B72CF9F
:1053C000F12C87CFFF24F39484CF3F924F925F92CA
:1053D0006F927F928F929F92AF92BF92CF92DF9205
:1053E000EF92FF920F931F93CF93DF93CDB7DEB76A
:1053F0002B970FB6F894DEBF0FBECDBF7C01DC014A
:1054000015968C91811115C0FE013196CE010C9636
:105410006F0130E231938E179F07E1F7DA0130E038
:1054200087E09D91B92E992329F19E3239F48A3073
:1054300011F480E0BEC038E08AE0F3CFEFEAFAE092
:105440004491442321F031969413FACFF2CF83177D
:1054500080F34FED490F4E3560F74FE9490F4A3160
:1054600018F440EEB42EB90EF601E30FF11DB08230
:105470003F5FD7CF89818032E1F2322E8B01FB0171
:10548000838D948DD7015C969C938E935B97168247
:105490001782108611861286138614861586F801E7
:1054A00082859385A485B5854389548965897689E4
:1054B00084179507A607B70790F525E0B695A79539
:1054C000979587952A95D1F7F82FFF70AF2EC801D1
:1054D0000E94251C009709F4ACCFDC012C912223FB
:1054E00041F0253E09F057C0BB2029F0BB24B394FE
:1054F000D6CFB1100EC0F701A28A40911D01509184
:105500001E0160911F017091200146875787608BB3
:10551000718BFC0180818111E9CFBB24B394832D71
:105520008271823109F085CFBB2009F45AC0C701CE
:105530000E94DA12009709F47CCF20E2FC0111925C
:105540002A95E9F72BE0F601DC0101900D922A95EE
:10555000E1F721E238E2DC0151963C932E9350971B
:1055600040E058E01F965C934E931E9753963C93F1
:105570002E93529759963C932E93589757965C9337
:105580004E9356970E945412882309F452CF432D0C
:10559000F70162890BC04BE050E0BC01C6010E94DC
:1055A0006F64892B09F07BCF432D6A2DC7010E94C0
:1055B00000202B960FB6F894DEBF0FBECDBFDF9153
:1055C000CF911F910F91FF90EF90DF90CF90BF9000
:1055D000AF909F908F907F906F905F904F903F9093
:1055E0000895D80115968C91823009F422CFC80114
:1055F0000E949216882309F41CCFD8015B96ED9186
:10560000FC915C9716968D909D90AD90BC901997EB
:10561000B2E08B1A9108A108B108858504C0880CF6
:10562000991CAA1CBB1C8A95D2F786859785A089F0
:10563000B189880E991EAA1EBB1E848124013501E2
:10564000480E511C611C711C84149504A604B704F7
:1056500001F1E1E04E1A5108610871080E945412EC
:10566000882309F4E6CEE9E2F6E1119289E298E1B5
:105670008E179F07D1F740921D0150921E01609234
:105680001F01709220018091E80D81608093E80DE8
:10569000DBCFD8015B96ED91FC91258580E092E00F
:1056A000A0E0B0E004C0880F991FAA1FBB1F2A9575
:1056B000D2F7F8014389548965897689840F951F4B
:1056C000A61FB71F838B948BA58BB68BD7015296E1
:1056D0001C9289E296E131CF5F926F927F928F9216
:1056E0009F92AF92BF92CF92DF92EF92FF920F9371
:1056F0001F93CF93DF93CDB7DEB7C754D1090FB651
:10570000F894DEBF0FBECDBF5C013B0119A218A209
:1057100082EC91E09F8F8E8F1BA21C821B829A834A
:1057200089831E8210E000E06E018EE1C80ED11C5C
:1057300080E1E82E8DE1F82EF501E00FF11F808168
:105740008F3211F40F5F1F4FD501A00FB11FFE0163
:10575000FB9690E080E04F012D912F3249F02223FB
:1057600039F00F5F1F4F019621938C309105A1F7FF
:10577000880D991DFC011082F501E00FF11F808159
:105780008F3211F40F5F1F4FF501E00FF11F5080B2
:1057900041E0511040E030E020E0B401C701F301E6
:1057A0000995811121C0F0E1EF16FDE1FF06C1F47A
:1057B00080E0C95BDF4F0FB6F894DEBF0FBECDBFF0
:1057C000DF91CF911F910F91FF90EF90DF90CF90DD
:1057D000BF90AF909F908F907F906F905F90089553
:1057E000C7010E94C218E4CF552091F021E0A40126
:1057F000B701C6010E94E529982E80E1E8168DE1E7
:10580000F80681F0C7010E94C218911010C0D0CFD5
:1058100090E1E9169DE1F90619F0C7010E94C2184E
:1058200081E0C7CF992021F2FE0131967F019E2DA4
:105830008F2D7601C92ED82E7FCFCF93DF93CDB792
:10584000DEB76D970FB6F894DEBF0FBECDBF442311
:1058500009F453C0AB01BC011C821B8282EC91E0B5
:105860009A8389831E8221E0CE0101960E94E52958
:10587000882339F08E81843071F090E081E09111BD
:1058800001C080E06D960FB6F894DEBF0FBECDBFAD
:10589000DF91CF9108951F82188619861A861B867C
:1058A0001C861D861E864B855C856D857E858C8954
:1058B0009D89AE89BF89481759076A077B0790F40D
:1058C000CE0101960E94251C0097B9F2FC012081AF
:1058D000222341F0253E39F32E3229F3838583FDBF
:1058E000E2CFCBCF81E08E838D8182608D83CE012C
:1058F00001960E94E81F982FC1CF81E0C3CFCF93BC
:10590000DF93CDB7DEB76D970FB6F894DEBF0FBE4D
:10591000CDBF442311F1AB01BC011C821B8282EC80
:1059200091E09A8389831E8222E0CE0101960E9433
:10593000E529882321F0CE0101960E94E81F91E01D
:10594000811101C090E0892F6D960FB6F894DEBFEB
:105950000FBECDBFDF91CF91089591E0F4CF1F939B
:10596000CF93DF93CDB7DEB76D970FB6F894DEBF58
:105970000FBECDBFAB011C821B8222EC31E03A830B
:1059800029831E8221E0BC01CE0101960E94E529F7
:1059900011E081110CC010E0812F6D960FB6F894C4
:1059A000DEBF0FBECDBFDF91CF911F910895CE0115
:1059B00001960E94C218F0CFEF92FF920F931F93AF
:1059C000CF93DF93EC017B018A011B821A8288EE60
:1059D00093E0A0E0B0E08C839D83AE83BF838EEC28
:1059E00091E0998388838DE190E00E94375E9A8FE1
:1059F000898F009779F02DE1F701DC0101900D927C
:105A00002A95E1F74CE050E0B801CE010C960E94D7
:105A10009764188EDF91CF911F910F91FF90EF90B7
:105A20000895CF92DF92EF92FF920F931F93CF933F
:105A3000DF93CDB7DEB7C756D1090FB6F894DEBFF6
:105A40000FBECDBF8C017B01DB015996CD90DC9060
:105A5000F6018581823008F49AC082859385A485F9
:105A6000B5858F719927AA27BB27892B8A2B8B2B6A
:105A700009F08DC040E250E0BE016F5F7F4FC6016C
:105A80000E948C17803209F082C08981882309F432
:105A90007EC0853E79F38E3269F38C8583FDEACF33
:105AA00022961FAE1EAE229782EC91E09FAF8EAF82
:105AB00024961FAE2497BE016F5F7F4FE0E080E029
:105AC0002EE2DB019D91BD019032A1F0883049F4B6
:105AD0004BE550E04C0F5D1F4E0F511DDA012C932A
