:100000000C9499060C94A0570C9475570C944A576D
:100010000C941F5A0C94C3060C94C3060C94C3068C
:100020000C94C3060C94C3060C94C3060C94C3062C
:100030000C94C3060C94CB570C94C3060C94C306C3
:100040000C94C3060C94C3060C9400570C94C3067E
:100050000C94CB560C94A1560C94C3060C94C30676
:100060000C94C3060C94C3060C94FB580C94C30662
:100070000C946C560C9442560C94C3060C94C30614
:100080000C94C3060C94C3060C94C3062B4347413F
:1000900054543A200041542B43474154543F002BC1
:1000A00043475245473A200041542B434752454766
:1000B0003F0047505253206F6E004552524F523A04
:1000C0002047505253206661696C656420746F202C
:1000D0007475726E206F6E00526567697374657215
:1000E000656420726F616D696E6700556E6B6E6F2F
:1000F000776E0044656E696564004E6F74207265AA
:1001000067697374657265642028736561726368DA
:10011000696E67290052656769737465726564204A
:1001200028686F6D6529004E6F742072656769736A
:100130007465726564003A20004E6574776F726B67
:100140002073746174757320005475726E696E67E4
:100150002063656C6C206D6F64756C65206F6666DE
:100160002E2E2E0052535349202864426D293A20E6
:100170002D00456E746572202778272061742061F8
:100180006E792074696D6520746F2073746F7000D0
:100190005475726E696E672063656C6C206D6F6458
:1001A000756C65206F6E2E2E2E004552524F523ABE
:1001B000204C6F6E67697475646520696E636F7239
:1001C0007265637421004552524F523A204C61745B
:1001D000697475646520696E636F727265637421FA
:1001E000004552524F523A20496E76616C69642044
:1001F00075706C6F616420696E74657276616C20D5
:100200002865766572792031206F72203420686FFE
:1002100075727329004552524F523A20496E7661E9
:100220006C696420696E74657276616C20286576ED
:100230006572792031352C2032302C2033302C203F
:100240006F72203630206D696E73290070726F6A8C
:1002500065637449443A20002020696E70757420EB
:100260006D696E7574653A20002020696E70757432
:1002700020686F75723A202020002020696E70750A
:100280007420796561723A202020002020696E7008
:100290007574206461793A20202020002020696E46
:1002A000707574206D6F6E74683A20200053796EFB
:1002B0006368726F6E697A6174696F6E20666169D6
:1002C0006C65642E20506C6561736520656E746585
:1002D000722074696D65206D616E75616C6C79203A
:1002E000696E205554433A200053796E6368726FEB
:1002F0006E697A696E6720636C6F636B20746F2020
:100300004E49535420736572766572202E2E2E202E
:100310000044656661756C7420726164696F204980
:100320004420616363657074656400526164696F41
:10033000204944207570646174656400456E74657D
:1003400072206E657720726164696F2049443A209B
:100350000020456E7465722027792720666F722011
:100360007965732C20276E2720666F72206E6F3A96
:100370002000576F756C6420796F75206C696B6510
:1003800020746F206368616E6765207468652072F1
:100390006164696F2049442066726F6D20746865DE
:1003A0002064656661756C742076616C75653F00CC
:1003B000456E7465722074686520486F6C6F677253
:1003C000616D20646576696365206B657920666F71
:1003D00072207468697320476174657761793A2087
:1003E00000456E7465722074686520726164696F7F
:1003F00020494420666F72204E6F64652000293FBB
:1004000000496E76616C6964206E756D626572205C
:100410006F66206E6F6465732E2020486F77206DA5
:10042000616E79206E6F64657320617265206174FE
:100430002074686973207369746520286D61782E53
:1004400000486F77206D616E79206E6F6465732050
:1004500061726520617420746869732073697465C2
:1004600020286D61782E2000496E76616C696420C9
:10047000696E74657276616C2E20506C656173656F
:1004800020656E7465722031206F7220342E004515
:100490006E74657220223122206F72202234223A3B
:1004A00020005365742075706C6F616420696E74F0
:1004B000657276616C20746F2031206F7220342059
:1004C000686F7572732E00496E76616C696420697D
:1004D0006E74657276616C2E20456E746572206D47
:1004E0006561737572656D656E7420696E74657291
:1004F00076616C202831302C2031352C2032302C84
:100500002033302C206F72203630293A2000456E7F
:10051000746572206D6561737572656D656E7420AA
:10052000696E74657276616C202831302C2031350B
:100530002C2032302C2033302C206F72203630208B
:100540006D696E73293A2000496E76616C6964208A
:10055000696E74657276616C2E20456E74657220CA
:100560006D6561737572656D656E7420696E746515
:100570007276616C202831302C2031352C203230BD
:100580002C2033302C206F72203630293A20004541
:100590006E746572206D6561737572656D656E74DC
:1005A00020696E74657276616C202831302C2031A0
:1005B000352C2032302C2033302C206F72203630F6
:1005C000206D696E73293A2000436865636B696E1C
:1005D000672046504C4D4E2E2E2E004578697400F3
:1005E0002020456E74657220612050726F6A6563C9
:1005F000742049442028757020746F20352063686A
:1006000061726163746572732C2065783A2050536F
:1006100041293A2000457869740041726520796F5C
:1006200075207375726520796F752077616E7420FF
:10063000746F20636C656172207468652046504C4D
:100640004D4E3F20792F6E3A200021212120555315
:100650004520574954482043415554494F4E202185
:1006600021210045726173652053442063617264E7
:100670003A20005072696E7420646174612066696A
:100680006C65733A200053617665642066696C6519
:10069000733A20004552524F523A2075706C6F6188
:1006A0006420696E74657276616C206D7573742058
:1006B000626520656E746572656420666972737424
:1006C0002E2052657475726E696E6720746F206D8E
:1006D000656E752E2E2E0041726520796F75207320
:1006E00075726520796F752077616E7420746F2044
:1006F00065726173653F20456E74657220792F6E57
:100700003A20004C61742F6C6F6E672076616C75B7
:1007100065732077696C6C2061707065617220610F
:1007200073202D39393939393939393920696E20F1
:10073000746865206461746120737472696E672ED9
:10074000004552524F523A204C6F6E67697475647F
:100750006520696E636F727265637421004C6F6E01
:100760006769747564653A20004552524F523A20C9
:100770004C6174697475646520696E636F7272652B
:10078000637421004C617469747564653A20005388
:10079000656C656374206F7074696F6E3A20002019
:1007A000202030203C2D2D204572617365204C6146
:1007B000742F4C6F6E672076616C75657300202016
:1007C0002031203C2D2D20456E746572204C6174C3
:1007D0002F4C6F6E672076616C75657300456E7483
:1007E000657220636F6E66696775726174696F6E9A
:1007F00020737472696E673A2000456E74657220CA
:1008000063686F6963653A200020207820203C2DC2
:100810002D202045786974206D656E750020206D4F
:1008200020203C2D2D2020536574206D656173754B
:1008300072656D656E7420696E74657276616C00A8
:1008400020207520203C2D2D2020536574206461CC
:1008500074612075706C6F616420746F20636C6FBD
:10086000756420696E74657276616C0020206E205C
:10087000203C2D2D2020456E746572204E6F6465DE
:1008800020726164696F2049447300202064202035
:100890003C2D2D2020456E74657220486F6C6F676B
:1008A00072616D20446576696365204B657900202F
:1008B000206720203C2D2D20204368616E67652035
:1008C0004761746577617920726164696F2049447A
:1008D0000020206C20203C2D2D2020456E74657258
:1008E000206F72206572617365204C61742F4C6FAC
:1008F0006E672076616C7565730020206920203C4E
:100900002D2D2020456E7465722070726F6A6563AC
:10091000742049440020206320203C2D2D202053AA
:10092000657420636C6F636B20746F204E49535461
:100930002074696D650020203020203C2D2D202062
:10094000456E74657220636F6E6669677572617457
:10095000696F6E20737472696E6700436F6E6669AB
:100960006775726174696F6E204F7074696F6E7312
:100970003A0020203420203C2D2D2020436C65613E
:100980007220666F7262696464656E206E6574774A
:100990006F726B73206C6973740020206520203C9B
:1009A0002D2D20204572617365206D6963726F5330
:1009B0004420636172640020206620203C2D2D209D
:1009C00020536565206C697374206F6620736176AF
:1009D00065642066696C65730020207020203C2DC2
:1009E0002D20205072696E74206E6F6465206461E2
:1009F000746120746F2073637265656E002020310E
:100A000020203C2D2D202043656C6C756C6172207C
:100A10005369676E616C2053636F7574696E6720EC
:100A20004D6F64650055736572204F7074696F6E09
:100A3000733A0043757272656E74206261747465F6
:100A4000727920766F6C746167653A2020003000FF
:100A50003A0030003A002D002D0043757272656E29
:100A600074206461746520262074696D653A2000E5
:100A700055706C6F616420696E74657276616C206C
:100A800028687273293A20004D6561737572656D2F
:100A9000656E7420496E74657276616C3A2000440C
:100AA0006174612066696C653A20004E6574776FE9
:100AB000726B6564204E6F6465204944733A200070
:100AC00023206F66206E6F6465733A20004465765C
:100AD000696365206B65793A2000476174657761C9
:100AE0007920526164696F2049443A20004C617456
:100AF0002F6C6F6E673A200050726F6A65637420C6
:100B000049443A20004C6F526120526164696F2061
:100B10004672657120284D487A293A200053657243
:100B200069616C204E756D6265723A20005665727F
:100B300073696F6E2000536F696C20576174657222
:100B40002044617461204E6574776F726B202D2094
:100B500043656C6C756C617220476174657761796F
:100B6000007C3C3E5E2B3D3F2F5B5D3B2C2A225C94
:100B70000072740092740048940078C40000002150
:100B800000240027002A0000002200250028002B56
:100B900000000020002300260029000202020202B9
:100BA0000202020404040404040404030303030310
:100BB0000303030101010101010101010204081005
:100BC0002040800102040810204080010204081027
:100BD0002040800102040810204080000000010233
:100BE00000090A00000000040308070000000000DC
:100BF00000000000000000000000002B4353513AA9
:100C0000200041542B435351002B435245473A2077
:100C10000041542B435245473F0041542B43504D14
:100C2000533D22534D222C22534D222C22534D2230
:100C30000053494D3830304800093C2D2D2D2000FF
:100C4000092D2D2D3E200053494D434F4D5F5349F3
:100C50004D35333230450053494D434F4D5F534975
:100C60004D35333230410053494D38303020523108
:100C7000330053494D383038205231330053494DF9
:100C80003830382052313400093C2D2D2D200009F8
:100C90002D2D2D3E200041542B435648553D30000C
:100CA0004154453000415445300041540041540006
:100CB00041540054696D656F75743A204E6F20720F
:100CC0006573706F6E736520746F2041542E2E2EE5
:100CD000206C617374206469746368206174746546
:100CE0006D70742E00415400415400415400417411
:100CF00074656D7074696E6720746F206F70656EB7
:100D000020636F6D6D20776974682041547300090A
:100D10003C2D2D2D2000092D2D2D3E20004F4B0068
:100D2000464F4E4100464F4E416E657400003B5A9F
:100D3000E25F11241FBECFEFD0E4DEBFCDBF1DE0C8
:100D4000A0E0B1E0E4EDF2ED00E00BBF02C00790DF
:100D50000D92AE3FB107D9F723E2AEEFBDE001C07F
:100D60001D92A631B207E1F716E0C8E9D6E004C04B
:100D70002197FE010E944665C739D107C9F70E9435
:100D8000115C0C945D690C94000008950895982FEF
:100D90002091861981E0213208F043C080918519A5
:100DA0008111FCCF80917E1932E0309385199093A8
:100DB00084199FEF90935C1910925B1920935A1934
:100DC000AEE5B9E1EAE3F9E190E0291331C0109210
:100DD000391990913919880F892B8093391980918D
:100DE0008319813049F510928319809139198093C4
:100DF000BB008091BC0083FDF8CF85EC8093BC00E4
:100E0000809185198230E1F380915C198F3FB1F0B8
:100E100080915C198032A1F080915C19803391F04F
:100E200084E0109287191092861910925D19089526
:100E30003D9131939F5FC9CF85EEE0CF80E0F1CF48
:100E400082E0EFCF83E0EDCF909185199111FCCF37
:100E500091E090938519909384192FEF20935C195A
:100E600010925B19260F20935A199093391990917B
:100E70003919880F892B8093391980918319813012
:100E8000F9F410928319809139198093BB008091F5
:100E9000BC0083FDF8CF85EC8093BC008091851960
:100EA0008130E1F380915B19861710F460915B1932
:100EB000AAE3B9E1E9E1F9E180E0861303C008950E
:100EC00085EEEACF9D9191938F5FF7CF0F931F939C
:100ED000CF93DF93EC019A01AB01E889F98982E0B5
:100EE0008083EC85FD8510820E851F8560E874E89F
:100EF0008EE190E00E94C2632150310941095109FD
:100F00005695479537952795F8012083188EEC89DB
:100F1000FD8986E08083EA89FB8980818061808306
:100F2000EA89FB89808188608083EA89FB898081E6
:100F300080688083EA89FB8980818F7D8083DF914F
:100F4000CF911F910F9108958091951F9091961FB9
:100F5000DC01ED91FC910484F585E02D0994FF926C
:100F60000F931F93CF93DF938C01F62EC5E9DFE13A
:100F700088819981DC01ED91FC910488F589E02D4F
:100F8000642F099588819981DC01ED91FC9106809F
:100F9000F781E02D4F2DB801DF91CF911F910F9177
:100FA000FF900994E82FF0E0EE0FFF1FE45DFE4F85
:100FB00071836083813049F0823071F080916900E3
:100FC000836080936900E89A0895809169008C603D
:100FD00080936900E99A0895809169008063809305
:100FE0006900EA9A0895EF92FF920F931F93CF93AF
:100FF000DF938C017B01D0E0C0E0F701EC0FFD1F17
:101000006491662361F0D801ED91FC910190F0812B
:10101000E02DC8010995892B11F02196EECFCE0164
:10102000DF91CF911F910F91FF90EF900895AF92B4
:10103000BF92CF92DF92EF92FF920F931F93CF93C5
:10104000DF936C017B018B01040F151FEB015E0127
:10105000AE18BF08C017D10759F06991D601ED91BC
:10106000FC910190F081E02DC6010995892B79F75B
:10107000C501DF91CF911F910F91FF90EF90DF900D
:10108000CF90BF90AF900895FC01538D448D252FD4
:1010900030E0842F90E0821B930B541718F081509E
:1010A0009F4F089501970895FC01918D828D9817A7
:1010B00059F0A28DAE0FBF2FB11D5D968C91928D10
:1010C0009F5F928F90E008958FEF9FEF0895FC014E
:1010D000918D828D981731F0828DE80FF11D858DED
:1010E00090E008958FEF9FEF0895FC01918D828D20
:1010F000981B892F90E008958AE899E10E9475086D
:1011000021E0892B09F420E0822F089587EA9BE1F2
:101110000E94750821E0892B09F420E0822F0895B0
:10112000CF93DF93EC01E881F9810680F781E02D10
:101130000995EA89FB8980818F7E8083EA89FB8912
:101140008081877F8083EA89FB8980818F77808394
:10115000EA89FB8980818F7D80838A8D898FDF91E9
:10116000CF910895FC01A48DA80FB92FB11DA35EE6
:10117000BE4F9C91848D8F5F848FA689B7899C9385
:10118000A089B1898C91837080648C93938D848DB8
:10119000981306C00288F389E02D80818F7D8083BB
:1011A00008950F931F93CF93DF93EC0181E0888F15
:1011B0009B8D8C8D981318C0E889F989808185FFF3
:1011C00013C09FB7F894EE89FF896083E889F98995
:1011D00080818370806480839FBF81E090E0DF9195
:1011E000CF911F910F910895062F1B8D1F5F8C8D3E
:1011F00081130CC00FB607FCFACFE889F98980810A
:1012000085FFF5CFCE010E94B208F1CFEB8DEC0F38
:10121000FD2FF11DE35EFE4F00839FB7F8941B8FF7
:10122000EA89FB8980818062D6CF682F87EA9BE1BB
:101230000C94D108CF93DF93EC01888D8823B9F00B
:10124000AA89BB89E889F9898C9185FD03C08081D1
:1012500086FD0DC00FB607FCF7CF8C9185FFF2CF4E
:10126000808185FFEDCFCE010E94B208E9CFDF91EA
:10127000CF91089580E090E0892B29F00E948608A4
:1012800081110E94000080E090E0892B29F00E94EB
:101290007C0881110C940000089581508A3080F5FB
:1012A000E82FF0E0EA5AF64F0C9446656A096E0999
:1012B0006009660980098009710977097B0981093C
:1012C000809180008F7780938000089580918000C6
:1012D0008F7DF9CF84B58F7784BD089584B58F7DD8
:1012E000FBCF8091B0008F778093B00008958091FC
:1012F000B0008F7DF9CF809190008F778093900020
:101300000895809190008F7DF9CFCF93DF93282FA0
:1013100030E0F901E552F44F8491F901E554F44FBE
:10132000D491F901E556F44FC491CC23A1F0811179
:101330000E944D09EC2FF0E0EE0FFF1FEF56F44F27
:10134000A591B491EC91ED2381E090E009F480E067
:10135000DF91CF91089580E090E0FACF1F93CF9373
:10136000DF93282F30E0F901E552F44F8491F90121
:10137000E554F44FD491F901E556F44FC491CC23D0
:10138000A9F0162F81110E944D09EC2FF0E0EE0F0D
:10139000FF1FE957F44FA591B4918FB7F894EC91E2
:1013A000111108C0D095DE23DC938FBFDF91CF9160
:1013B0001F910895DE2BF8CF109289191092881989
:1013C00010928719109286191092851981E08093E6
:1013D00084191092831961E081E10E94AE0961E0F5
:1013E00080E10E94AE09E9EBF0E080818E7F80838E
:1013F00080818D7F808380E28093B80085E4809334
:10140000BC0085EC96E0909382198093811986EC5C
:1014100096E09093801980937F190895CF93DF937E
:1014200090E0FC01E554F44F24918556944FFC0163
:1014300084918823D1F090E0880F991FFC01E35834
:10144000F44FA591B491FC01E957F44FC591D491A3
:1014500061110EC09FB7F8948C91E22FE0958E2316
:101460008C932881E223E8839FBFDF91CF91089579
:101470008FB7F894EC91E22BEC938FBFF6CF8831C5
:1014800008F088518770806480937C0080917A0096
:10149000806480937A0080917A0086FDFCCF8091F1
:1014A00078009091790008953FB7F89480910F0FDC
:1014B0009091100FA091110FB091120F26B5A89B1B
:1014C00005C02F3F19F00196A11DB11D3FBFBA2FD6
:1014D000A92F982F8827BC01CD01620F711D811D96
:1014E000911D43E0660F771F881F991F4A95D1F71A
:1014F00008958F929F92AF92BF92CF92DF92EF9218
:10150000FF924B015C010E94540A6B017C010E9416
:10151000540A6C197D098E099F09683E7340810544
:101520009105A8F321E0821A9108A108B10888EE7C
:10153000C80E83E0D81EE11CF11C81149104A104A3
:10154000B10429F7FF90EF90DF90CF90BF90AF905C
:101550009F908F900895FF920F931F93CF93DF93E7
:10156000F82E04EF11E0D0E0C0E08091931F90913D
:10157000941FDC01ED91FC910084F185E02D09952B
:10158000892BC9F08091931F9091941FDC01ED91FC
:10159000FC910284F385E02D09958D3031F38A307A
:1015A00021F4209711F3FF2091F0FE01E558F14E50
:1015B00086872196DACF0150110949F061E070E089
:1015C00080E090E00E94790ACE3FD10570F2FE01E2
:1015D000E558F14E16868C2FDF91CF911F910F9118
:1015E000FF9008952FB7F89460910B0F70910C0F36
:1015F00080910D0F90910E0F2FBF08950895885E72
:101600009E4FDC018D919C91DC01ED91FC91068057
:10161000F781E02D0994885E9E4FDC018D919C91AD
:10162000DC01ED91FC910484F585E02D0994885E40
:101630009E4FDC018D919C91DC01ED91FC91028427
:10164000F385E02D0994885E9E4FDC018D919C917D
:10165000DC01ED91FC910190F081E02D0994885E10
:101660009E4FDC018D919C91DC01ED91FC910084F9
:10167000F185E02D0994CF93DF9390E080E0EC01B9
:1016800021968897A8F48BE79EE10E942F0B892B67
:1016900039F08BE79EE10E94170BD0E0C0E0F3CF5A
:1016A00061E070E080E090E00E94790ACE01E7CF2F
:1016B000DF91CF9108958BEF0895CF93DF93FC01D5
:1016C000228133812230310569F0EC01638D818DF7
:1016D0000E94AE0960E0888D0E94AE0982E090E031
:1016E0009B838A83DF91CF910895FF920F931F937D
:1016F000CF93DF93EC01162FF42E0FB7F89460E030
:101700008F890E94AE098D899E89612F6068DC01F6
:10171000ED91FC910190F081E02D0995182F8D89B4
:101720009E89DC01ED91FC910190F081E02D6F2DFF
:10173000099561E08F890E94AE090FBF812FDF916B
:10174000CF911F910F91FF9008950F931F93CF9307
:101750008C01C62F44E06DE40E94750B4BEF4C0FDB
:10176000406869E0C801CF911F910F910C94750BEF
:10177000CF93DF93FC01228133812130310549F081
:10178000EC0140E061E00E94750B81E090E09B83FA
:101790008A8381E0DF91CF910895CF93DF93FC019D
:1017A000228133812230310549F0EC0141E061E0D2
:1017B0000E94750B82E090E09B838A83DF91CF913A
:1017C0000895CF92DF92EF92FF92CF93DF93EC01D7
:1017D000CB01BA0120E034E244E759E40E94BC6244
:1017E00020E034E244E752E40E9460640E94D9643D
:1017F0006B017C01A7016627772766E0CE010E9476
:10180000750B77276F2D5E2D4D2D67E0CE010E9461
:10181000750B4C2D68E0CE010E94750B81E0DF91C5
:10182000CF91FF90EF90DF90CF900895CF92DF920D
:10183000EF92FF920F931F93CF93DF934C3F08F0EB
:1018400067C0142F072FF62EEC01E881F98104847C
:10185000F585E02D0995CE010E94CD0B40E06DE0AD
:10186000CE010E94750B4A8560E0CE010E94750B87
:101870004B8560E0CE010E94750B4C8560E0CE0187
:101880000E94750B4D8560E0CE010E94750BEFB68E
:10189000F89460E08F890E94AE098D899E89DC01F1
:1018A000ED91FC910190F081E02D60E80995CF2C3D
:1018B000D02E012F015068F08D899E89F60161912B
:1018C0006F01DC01ED91FC910190F081E02D099513
:1018D000F1CF61E08F890E94AE09EFBE44E0410F75
:1018E00062E2CE010E94750B8A819B81039771F0A1
:1018F00043E061E0CE010E94750B40E460E4CE015C
:101900000E94750B83E090E09B838A8381E001C095
:1019100080E0DF91CF911F910F91FF90EF90DF90CA
:10192000CF900895CF93DF93FC0122813381233040
:101930003105C9F0EC0182819381049771F045E093
:1019400061E0CF010E94750B40E060E4CE010E948F
:10195000750B84E090E09B838A83C65EDE4F8881AE
:10196000DF91CF91089580E0FBCF0F931F93CF932A
:10197000DF93EC01162F0FB7F89460E08F890E9477
:10198000AE098D899E89DC01ED91FC910190F08179
:10199000E02D612F09958D899E89DC01ED91FC91E7
:1019A0000190F081E02D60E00995182F61E08F89AA
:1019B0000E94AE090FBF812FDF91CF911F910F9130
:1019C0000895DF92EF92FF920F931F93CF93DF93CF
:1019D000EC0162E10E94B50C2A813B812430310583
:1019E000A1F4982F907A89F08F8598890196988B29
:1019F0008F874FEF62E1CE01DF91CF911F910F9161
:101A0000FF90EF90DF900C94750B2A813B8124307E
:101A1000310511F486FD0DC02A813B81233031054B
:101A200041F783FFE6CF8B899C8901969C8B8B8B3A
:101A300067C063E1CE010E94B50C082F60E1CE01C2
:101A40000E94B50C482F6DE0CE010E94750BDFB6E9
:101A5000F89460E08F890E94AE098D899E89DC012F
:101A6000ED91FC910190F081E02D60E009957E01FF
:101A7000BBE1EB0EF11C102F115070F08D899E8987
:101A8000DC01ED91FC910190F081E02D60E0099581
:101A9000F70181937F01F0CF61E08F890E94AE0949
:101AA000DFBE0A8F4FEF62E1CE010E94750B6AE143
:101AB000CE010E94B50C89588E878A8DFE01E65EA4
:101AC000FE4F8430C8F08B8D8E838C8D8F838D8DEF
:101AD00088878E8D89878D81811107C09E818C8139
:101AE000981719F08E818F3F39F489899A89019668
:101AF0009A8B898B81E080838081882309F479CF58
:101B0000CE010E94CD0B75CF8091080F9091090FE7
:101B1000009711F00C94E10C08958091060F9091BC
:101B2000070F009711F00C94E10C08958091040FB9
:101B30009091050F009711F00C94E10C0895CF934C
:101B4000DF93EC018D899E89DC01ED91FC9106808B
:101B5000F781E02D099561E08F890E940E0A61E00E
:101B60008F890E94AE0964E670E080E090E00E94F8
:101B7000790A81E0DF91CF910895FF920F931F932F
:101B8000CF93DF931F92CDB7DEB7F42E05E91FE1A7
:101B9000D8018D919C91DC01ED91FC91008CF18D2F
:101BA000E02D0995F80180819181DC01ED91FC9196
:101BB000028CF38DE02D40E060E8099581E2898395
:101BC0004F2D61E0CE0101960E94AF070E94A4074D
:101BD0000F90DF91CF911F910F91FF900895CF92B9
:101BE000DF92EF92FF920F931F93CF93DF93EC015D
:101BF0008B017A0169018091951F9091961FDC01FC
:101C0000ED91FC910280F381E02D099581110BC0CB
:101C100010E0812FDF91CF911F910F91FF90EF90F6
:101C2000DF90CF9008958091951F9091961FDC01D1
:101C3000ED91FC910480F581E02DA701B801099593
:101C4000182F882329F38091951F9091961FDC010E
:101C5000ED91FC9100A0F1A1E02D0995F82E809165
:101C6000951F9091961FDC01ED91FC91068CF78DEC
:101C7000E02D0995E82E8091951F9091961FDC012B
:101C8000ED91FC9102A0F3A1E02D0995082F809120
:101C9000951F9091961FDC01ED91FC9104A0F5A198
:101CA000E02D099587FDB4CFBFEFEB1629F04F2D3E
:101CB000602FCE010E94BD0DCF0DD11D8B858017E9
:101CC00009F4A6CFF601F0820B87A3CF9FB7F89453
:101CD0008091020F882319F081508093020F809128
:101CE000020F811105C08CB58F7B8CBD1092F81648
:101CF0009FBF08958CB58F778CBD08958CB5806893
:101D00008CBD0895FC01738362830895FC01778381
:101D100066830895FC01758364830895089580E0C7
:101D20000895FC0181850895FC0180850895FC01DA
:101D300087810895FC01868108954095FC012585E1
:101D40004223642B65870895FC0164870895FC0194
:101D500063870895FC0162870895FC0164830895F8
:101D6000FC01658308958F929F92AF92BF92CF92AC
:101D7000DF92EF92FF92CF93DF93EC016B010E9411
:101D8000F20A4B015C01F12CE12C0E94F20A681965
:101D900079098A099B096C157D058E059F0580F4DC
:101DA0008A819B81039789F381E0DF91CF91FF9036
:101DB000EF90DF90CF90BF90AF909F908F9008955D
:101DC00080E0F3CFFC012281338123303105D1F350
:101DD00081E008958F929F92AF92BF92CF92DF924F
:101DE000EF92FF92CF93DF93EC016B010E94F20A16
:101DF0004B015C01F12CE12C0E94F20A681979096F
:101E00008A099B096C157D058E059F05A0F4E88164
:101E1000F9810280F381E02DCE010995882361F3D9
:101E2000DF91CF91FF90EF90DF90CF90BF90AF9078
:101E30009F908F90089580E0F3CFCF93DF93EC01D4
:101E4000E881F9810280F381E02DCE010995882394
:101E5000B9F3DF91CF91089581E008951F93CF9357
:101E6000DF93EC01162F88819981DC01ED91FC91C3
:101E70000288F389E02D099588819981DC01ED9133
:101E8000FC910688F789E02D612F09951A83DF916F
:101E9000CF911F910895CF92DF92EF92FF920F930F
:101EA0001F93CF936B017C01142F8091951F90910C
:101EB000961FDC01ED91FC910190F081E02D0995D8
:101EC000C82F882309F16091971F85E99FE10E943F
:101ED0002E0F88E790E090939E1F80939D1F83E0D4
:101EE00080939F1F612F85E99FE10E942E0F009133
:101EF000951F1091961FB701A601C8010E94E10B22
:101F000061E1C8010E94A50B8C2FCF911F910F9109
:101F1000FF90EF90DF90CF90089585ED8093BC0007
:101F20008091BC0084FDFCCF10928519089520910A
:101F3000DF0E260F3327331F21323105ECF42091B9
:101F40008519FC0190E080E0243069F082E008957A
:101F5000A091DF0E2191AC014154514FA40FB52F38
:101F6000B11D2C930196861798F38091DF0E680FB0
:101F70006093DF0E80E0089581E008950895E09178
:101F8000891980918819E81730F4F0E0E75EF64E81
:101F9000808190E008958FEF9FEF089590918919C7
:101FA000809188192FEF3FEF981748F4E92FF0E060
:101FB000E75EF64E208130E09F5F90938919C9015A
:101FC00008958091881990918919891B990B08951A
:101FD000CF92DF92EF92FF920F931F93CF93DF93F5
:101FE0007C01CB018A0120915D19222389F0EB014C
:101FF0006B01C40ED51ECC15DD0569F06991D701C2
:10200000ED91FC910190F081E02DC7010995F3CF8E
:10201000642F0E94970FC801DF91CF911F910F91FC
:10202000FF90EF90DF90CF900895CF93DF931F92B2
:10203000CDB7DEB7698320915D192223F9F0209195
:102040008619203258F021E030E0FC0133832283EE
:1020500090E080E00F90DF91CF91089580918719F3
:10206000E82FF0E0E25AF64E998190838F5F8093DB
:1020700087198093861981E090E0ECCF61E0CE0172
:1020800001960E94970FF7CFCF93C62F91E09093C0
:102090005D1998E690937E1910928719109286190F
:1020A000682F86E093E20E9415106C2F86E093E281
:1020B0000E94151081E0CF910C94C706CF93CFB743
:1020C000F8948091020F811127C0EFE9FBE0849121
:1020D000EFEBFBE09491E82FF0E0EE0FFF1FE358E9
:1020E000F44FA591B491EC91E92321F461E084E0EF
:1020F0000E94AE0961E084E00E940E0A8CB5806106
:102100008CBD8CB580648CBD61E087E00E940E0AB6
:1021100061E085E00E940E0A8091020F8F5F80933C
:10212000020FCFBFCF910895FC0126813781211581
:10213000310591F12130310559F12230310551F14C
:102140002330310549F52CE09CB5937F922B9CBD43
:1021500084819581019711F58CB580628CBD828157
:102160009381019784309105E0F484599E4FFC01DE
:1021700090818CB58C7F292F2370822B8CBD8DB5DF
:1021800092FB992790F98E7F892B8DBD0C945E1060
:1021900024E0DACF28E0D8CF20E0D6CF8CB58F7DF1
:1021A000DDCF95E0E6CF9FB7F8942091F8168091A7
:1021B000B90E213019F48DBB9FBF08958FBF0895CC
:1021C00061E0FC0184810E94AE098091B80E8823F1
:1021D00039F01092B80E8091F81681110C94D3103A
:1021E00008958EBD00000DB407FEFDCF8EB5089595
:1021F000862F0C94F1108FEF0C94F1100F931F9316
:10220000CF93DF93EC010E94F20A8B010E94FB1036
:102210008F3F69F00E94F20A601B710B6C177D07FB
:10222000A8F380E0DF91CF911F910F91089581E095
:10223000F9CF2091F816222361F02FB7F89430914E
:10224000F816313049F43DB33093B90E3DB33DBB80
:102250002FBF8CBD9DBD08952093B90EFACFCF93AB
:10226000DF93EC018091B80E811109C081E0809369
:10227000B80E8091C41D9091C51D0E94191160E097
:102280008C81DF91CF910C94AE098F929F92AF9287
:10229000BF92FF920F931F93CF93DF93EC01F62E23
:1022A00049015A018E81882389F08F8198859C018C
:1022B0002F5F3F4F38872F838230924018F40E945F
:1022C000FB10F3CFCE010E94E0101E82CE010E94CF
:1022D0002F118CE291E00E94FE108F2D80640E94ED
:1022E000F11008E110E0D501C401002E04C0B6953C
:1022F000A795979587950A94D2F70E94F1100850F8
:102300001109083F8FEF180771F785E9FF2021F0C9
:1023100028E087E8F2128FEF0E94F11010E00E948F
:10232000FB108A8787FF04C01F3F11F01F5FF7CFA4
:10233000DF91CF911F910F91FF90BF90AF909F9031
:102340008F900895AF92BF92CF92DF92EF92FF925B
:102350000F931F93CF93DF93EC016901C801820FA4
:10236000931F8130924050F58E81882379F08881C7
:102370009981AA81BB8184179507A607B70731F415
:102380008F819885C816D90608F042C048835983C2
:102390006A837B838B85833039F089E0440F551F36
:1023A000661F771F8A95D1F79A01AB0161E1CE01D3
:1023B0000E944511882389F083E08D83CE010E941D
:1023C000E01080E0DF91CF911F910F91FF90EF908F
:1023D000DF90CF90BF90AF9008950E94F20A5B010A
:1023E0000E94FB108A878F3F69F40E94F20A6A19E3
:1023F0007B096D327140A0F38FE08D83CE010E9486
:10240000E010DCCF8E3F89F418861F8281E08E8336
:102410008F8198858C159D0550F40E94FB108F814B
:102420009885019698878F83F3CF8DE0E6CF67017B
:10243000E00EF11E0E94FB10F60181936F01EE1574
:10244000FF05C1F78F819885080F191F18870F8323
:102450008985882319F001151240A0F08E81882308
:1024600089F08F8198859C012F5F3F4F38872F839C
:102470008230924018F40E94FB10F3CFCE010E94EC
:10248000E0101E8281E09ECFEF92FF920F931F9388
:10249000CF93DF93EC01790182E14115510561058C
:1024A000710599F08B85833039F089E0440F551F11
:1024B000661F771F8A95D1F79A01AB0168E1CE01BB
:1024C0000E944511882319F084E08D8330C08EEF7F
:1024D0000E94F11087018EEFF81AF80181918F01A7
:1024E0000E94F1100E151F05C1F78FEF0E94F11029
:1024F0008FEF0E94F1100E94FB108A878F71853048
:1025000089F488E592E00E94FE108823A9F020E07B
:1025100030E0A9016DE0CE010E944511882371F0E1
:1025200084E1D3CF81E18D83CE010E94E010CE0102
:102530000E94E01080E00AC085E1C7CF0E94FB1036
:102540008111EECFCE010E94E01081E0DF91CF91AA
:102550001F910F91FF90EF900895CF93DF9380919B
:10256000BA0E8823A9F1C091F916D091FA164091BC
:102570001D0150911E0160911F01709120012BEFF0
:1025800036E1CE010E944412811104C080E0DF9147
:10259000CF9108954091BB0E5091BC0E6091BD0E3D
:1025A0007091BE0E411551056105710579F02BEF53
:1025B00036E1CE010E944412882341F31092BB0EF3
:1025C0001092BC0E1092BD0E1092BE0E1092BA0E5A
:1025D00081E0DDCF8F929F92AF92BF92EF92FF92F8
:1025E0000F931F93CF934B015C01C42F80911D016A
:1025F00090911E01A0911F01B091200188159905AD
:10260000AA05BB0549F10E94AD1281110BC080E003
:10261000CF911F910F91FF90EF90BF90AF909F903F
:102620008F9008958BEFE82E86E1F82E00E012E0FF
:1026300030E020E0B501A4018091F9169091FA16DE
:102640000E94A211882319F380921D0190921E010D
:10265000A0921F01B09220014091BA0E4C2B4093E2
:10266000BA0E81E0D5CFCF93DF93EC016E857F85E5
:102670008889998941E00E94EA12882351F08A8969
:1026800020E2829FC00111248550994EDF91CF91A5
:10269000089590E080E0FACF8F929F92AF92BF9220
:1026A000CF92DF92EF92FF92CF9326EC3DE13093F1
:1026B000FA162093F916882309F46DC040E060E013
:1026C00070E0CB010E94EA1281110BC080E0CF9133
:1026D000FF90EF90DF90CF90BF90AF909F908F9042
:1026E00008958091B9188F7789F78091C5189091D6
:1026F000C618A091C718B091C81884369105A105D5
:10270000B10520F3C090C118D090C218E090C31852
:10271000F090C418C114D104E104F104B9F240E00E
:10272000C701B6010E94EA12882381F28091061740
:10273000909107178115924049F6A0910B17AA2393
:1027400029F26091091770910A176115710509F452
:10275000BDCF20910817222309F4B8CFA093E41D20
:102760002093D61D90E080E030E0E1E0F0E0C82F5B
:10277000AF01082E02C0440F551F0A94E2F7241738
:10278000350769F041E0480F01968930910579F7E6
:102790004093DF1D9BCFC12CD12C7601C0CF8093FD
:1027A000DF1D209111173091121750E040E02115E4
:1027B000310541F420911F173091201740912117C6
:1027C000509122172093D71D3093D81D4093D91DC7
:1027D0005093DA1D46015701860E971EA11CB11CAD
:1027E0008092E51D9092E61DA092E71DB092E81D33
:1027F000E0910C17F0910D17F093EB1DE093EA1D9B
:10280000B0E00E94AF63DC01CB01880D991DAA1DC9
:10281000BB1D8093EC1D9093ED1DA093EE1DB09316
:10282000EF1D25E0EE0FFF1F2A95E1F7E150FE4F67
:10283000EF2FFF27E6958E0F9F1FA11DB11D8093DF
:10284000E01D9093E11DA093E21DB093E31D8090E5
:102850000E1790900F17B12CA12C8114910441F404
:1028600080901B1790901C17A0901D17B0901E17FA
:10287000C81AD90AEA0AFB0AC80CD91CEA1CFB1CB4
:1028800004C0F694E794D794C794CA95D2F7C0923F
:10289000DB1DD092DC1DE092DD1DF092DE1D85EF88
:1028A000C8168FE0D806E104F10428F48CE0809388
:1028B000E91D81E00CCF80E125EFC2162FEFD20693
:1028C000E104F104A0F38091271790912817A091BB
:1028D0002917B0912A178093EC1D9093ED1DA093BA
:1028E000EE1DB093EF1D80E2E2CF4F925F926F92A8
:1028F0007F928F929F92AF92BF92CF92DF92EF9290
:10290000FF920F931F93CF93DF93EC014230510559
:102910006105710590F480E0DF91CF911F910F91D7
:10292000FF90EF90DF90CF90BF90AF909F908F90EF
:102930007F906F905F904F90089589859A85AB85C1
:10294000BC850196A11DB11D84179507A607B70781
:1029500010F3CB88DC88ED88FE888F89803109F000
:1029600042C0BB27A72F962F852F480159012A0166
:102970003B01C80ED91EEA1EFB1E80911D019091DD
:102980001E01A0911F01B0912001C816D906EA06C8
:10299000FB0699F58F898031C1F5B301A201552756
:1029A00066277727440F551F4550594EFA019182EB
:1029B00080828091BA0E81608093BA0E8A898230BB
:1029C00080F08D819E81AF81B8858C0D9D1DAE1DDF
:1029D000BF1D8093BB0E9093BC0EA093BD0EB09311
:1029E000BE0E81E099CFDB01CA01E7E0B695A7955D
:1029F00097958795EA95D1F7B8CF40E0C701B60122
:102A00000E94EA128111C6CF86CFB301A2014F778F
:102A1000552766277727440F551F440F551F4550EC
:102A2000594EFA0180829182A282B382C2CF8F92E4
:102A30009F92AF92BF92CF92DF92EF92FF920F934D
:102A40001F93CF93DF93FC0181859285A385B48585
:102A50000196A11DB11D84179507A607B70770F44D
:102A600080E0DF91CF911F910F91FF90EF90DF9069
:102A7000CF90BF90AF909F908F9008958388948857
:102A8000A588B6888789803189F5BB27A72F962F1F
:102A9000852FE9016A017B018F01BC01CD01680D21
:102AA000791D8A1D9B1D80901D0190901E01A09094
:102AB0001F01B090200186169706A806B90601F5F9
:102AC000F8018789803111F5DD24EE24FF24F60119
:102AD000EE0FFF1FE550F94E80819181B0E0A0E03C
:102AE00088839983AA83BB8381E0BBCFDB01CA01C2
:102AF000C7E0B695A79597958795CA95D1F7C9CFA1
:102B000040E00E94EA128111DBCFAACFE894C7F817
:102B1000DD24EE24FF24F601EE0FFF1FEE0FFF1F52
:102B2000E550F94E80819181A281B381BF70D8CFE9
:102B30004F925F926F927F92AF92BF92CF92DF924D
:102B4000EF92FF920F931F93CF93DF9300D000D0AB
:102B5000CDB7DEB78C0149835A836B837C835901DF
:102B6000C12CD12C7601412C82E0582E612C712C85
:102B700049815A816B817C819E012F5F3F4FC80143
:102B80000E941715882339F1F8018585A301920168
:102B900004C0220F331F441F551F8A95D2F7DA0154
:102BA000C901C80ED91EEA1EFB1E49815A816B81DC
:102BB0007C818789803111F188EF9FEFAFEFBFE013
:102BC000481759076A077B0798F2F501C082D1823E
:102BD000E282F38281E00F900F900F900F90DF91CF
:102BE000CF911F910F91FF90EF90DF90CF90BF900A
:102BF000AF907F906F905F904F90089588EF9FEF18
:102C0000A0E0B0E0DDCFCF93DF93FC01258122234C
:102C100021F080E0DF91CF910895EC018091E91DD2
:102C2000803159F582E08583178A108E118E128EBD
:102C30008091EA1D9091EB1DB0E0A0E025E0880FA7
:102C4000991FAA1FBB1F2A95D1F7838B948BA58B45
:102C5000B68B82ED9DE19C8F8B8F81E08C831E82F1
:102C60001F82188619861A861B861C861D861E865C
:102C70001F86188A198A1A8ACDCF803251F683E0CE
:102C800085834091EC1D5091ED1D6091EE1D70917A
:102C9000EF1D478B508F618F728F9F012D5E3F4FCD
:102CA00082ED9DE10E9498158111D3CFB2CF8F9212
:102CB0009F92AF92BF92CF92DF92EF92FF920F93CB
:102CC0001F93CF93DF93EC018D8181110EC080E0C3
:102CD000DF91CF911F910F91FF90EF90DF90CF90F8
:102CE000BF90AF909F908F9008950B891C892D897C
:102CF0003E89041715072607370748F34A015B0189
:102D0000823031F48A869B86AC86BD8681E0E0CF36
:102D100081149104A104B10449F41E821F82188613
:102D200019861A861B861C861D86F0CF0A851B8590
:102D30002C853D85EB8DFC8D858590E00996B9014C
:102D4000A8014150510961097109082E04C0769506
:102D50006795579547950A94D2F775016401E1E0AC
:102D6000CE1AD108E108F10804C0F694E794D7948C
:102D7000C7948A95D2F7C416D506E606F70620F062
:102D8000012B022B032B11F58F89988DA98DBA8DFC
:102D90008E839F83A887B9878E010A5F1F4FC11456
:102DA000D104E104F10409F4ADCF4E815F8168855F
:102DB000798598018B8D9C8D0E94171591E0C91A19
:102DC000D108E108F1088111EACF81CFC41AD50AF0
:102DD000E60AF70AE1CF3F924F925F926F927F929D
:102DE0008F929F92AF92BF92CF92DF92EF92FF921B
:102DF0000F931F93CF93DF93CDB7DEB72C970FB60A
:102E0000F894DEBF0FBECDBF5C01DC015B968D90F8
:102E10009C905C9716964D905D906D907C90199764
:102E2000411451046104710409F468C0BFEF4B1AE6
:102E30005B0A6B0A7B0A312CF40181859285A3859C
:102E4000B4859C01AD012F5F3F4F4F4F5F4F2987E6
:102E50003A874B875C87730162011D821E821F8245
:102E60001886F40181859285A385B4852D813E81E4
:102E70004F815885281739074A075B0708F056C065
:102E800089859A85AB85BC858C159D05AE05BF05EA
:102E900050F482E0C82ED12CE12CF12C92E0492E86
:102EA000512C612C712C9E012F5F3F4FB701A60161
:102EB000C4010E9417158823C9F189819A81AB81C9
:102EC000BC81892B8A2B8B2B09F1260137019FEFBF
:102ED000491A590A690A790A2D813E814F8158851C
:102EE0002F5F3F4F4F4F5F4F2D833E834F83588758
:102EF0003FEFC31AD30AE30AF30AB3CFF4014080C9
:102F00005180628073803324339496CFC414D504E7
:102F1000E604F70409F70FEF1FEF2FEF3FE0B701CB
:102F2000A601C4010E947514811119C080E02C967D
:102F30000FB6F894DEBF0FBECDBFDF91CF911F91CA
:102F40000F91FF90EF90DF90CF90BF90AF909F9048
:102F50008F907F906F905F904F903F900895F50114
:102F6000468157816085718541155105610571055F
:102F700039F097018601C4010E9475148823B1F2CB
:102F8000D5011696CD92DD92ED92FC9219973320E1
:102F900051F0D701C6010196A11DB11DF401808336
:102FA0009183A283B383F5018789908DA18DB28D22
:102FB000892B8A2B8B2B39F4C78AD08EE18EF28E27
:102FC00084818068848381E0B2CF2F923F924F92B8
:102FD0005F926F927F928F929F92AF92BF92CF92A9
:102FE000DF92EF92FF920F931F93CF93DF93EC0149
:102FF0005B012A018D81811115C08FEF9FEFDF9159
:10300000CF911F910F91FF90EF90DF90CF90BF90E5
:10301000AF909F908F907F906F905F904F903F9078
:103020002F9008958C8180FFE8CF0B891C892D8912
:103030003E894A855B856C857D85C201B0E0A0E054
:1030400068017901C41AD50AE60AF70AC816D90632
:10305000EA06FB0618F42801441A550A42011E012B
:1030600026E0220E311C8114910409F4B3C04A8574
:103070005B856C857D856A0181E0D8228B8D9C8D76
:103080008A019B01E9E03695279517950795EA9502
:10309000D1F7ED81E230E1F5FC01628D738D848D15
:1030A000958D600F711F821F931F612C22E0722E7D
:1030B0006C187D088614970408F434012C8126FDD1
:1030C00004C06114F2E07F0671F400911D011091BB
:1030D0001E0120911F0130912001061717072807B4
:1030E000390709F053C040E00E94EA12882309F42E
:1030F00084CFC6018550994ED5019C01260D371D00
:10310000FC012E173F0709F460C041914D93F9CFA0
:10311000FC0174807A947022C114D10471F471108E
:103120000CC0452B462B472B39F58F89988DA98DDF
:10313000BA8D8E839F83A887B987EB8DFC8D6E81B6
:103140007F8188859985625071098109910925855A
:1031500004C0660F771F881F991F2A95D2F706852E
:10316000178520893189600F711F821F931F670D9A
:10317000711D811D911D99CF4E815F816885798573
:1031800091010E9417158111D8CF37CF75018301A6
:103190009601AB01BC018091F9169091FA160E943C
:1031A000A211882309F429CFA60CB71C8A859B8518
:1031B000AC85BD85860D971DA11DB11D8A879B8796
:1031C000AC87BD87861897084ECF281B390BA20EF7
:1031D000B31EECCFC20113CFCF93DF93EC018D81EF
:1031E000882329F18C8187FF1EC0CE010E943313F2
:1031F000FC01892BE1F08D81823040F48B899C8920
:10320000AD89BE89848F958FA68FB78F8F89988D52
:10321000938F828F8F89988DA98DBA8DB58BA48B52
:103220008C818F778C83DF91CF910C94AD1280E0ED
:10323000DF91CF910895CF93DF93EC010E94EC18BA
:10324000882311F01D8281E0DF91CF910895CF9204
:10325000DF92EF92FF921F93CF93DF938091F51D42
:10326000882321F080EF9DE10E941B191092D11D4F
:103270001092CF1D1092CC1D1092CB1D83E0809335
:10328000CA1D0E94F20AEB0161E08091CA1D0E94F2
:103290000E0A61E08091CA1D0E94AE090E945E1074
:1032A00082E58093C41D81E08093C51D8091C41D7B
:1032B0009091C51D0E9419111AE08FEF0E94F11024
:1032C0001150D9F78091F81681110E94D31086EC25
:1032D0009DE10E942F1120E030E0A90160E086EC22
:1032E0009DE10E944511182F8093D01D813081F0FF
:1032F0000E94F20A6C1B7D0B613D774060F381E018
:103300008093CB1D86EC9DE10E94E01090E078C098
:103310002AEA31E040E050E068E086EC9DE10E945E
:10332000451182FF2AC01093D11D8091D11DC12C5F
:10333000D12C7601823029F4C12CD12CE12C80E4EF
:10334000F82E20E030E0A90167E386EC9DE10E94C1
:103350004511A701960169E286EC9DE10E944511A5
:103360008093D01D8823C1F00E94F20A6C1B7D0B54
:10337000613D774030F388E0C3CF14E00E94FB103A
:103380008093D01D1150D1F78A3A11F082E0B8CF66
:1033900082E08093D11DC9CF8091D11D8230D1F4BC
:1033A00020E030E0A9016AE386EC9DE10E9445112E
:1033B000882311F086E0A4CF0E94FB10807C803C23
:1033C00019F483E08093D11D0E94FB100E94FB1032
:1033D0000E94FB1086EC9DE10E94E01080E5809346
:1033E000C41D81E08093C51D0E944C13882389F081
:1033F00080EF9DE10E94031691E0882309F486CFB7
:10340000892FDF91CF911F91FF90EF90DF90CF90A8
:10341000089580E00E944C13882309F477CFE8CF09
:103420002F923F924F925F926F927F928F929F92D4
:10343000AF92BF92CF92DF92EF92FF920F931F93C2
:10344000CF93DF9300D000D0CDB7DEB78C015B0106
:103450001A01DC0115968C911597813009F0C8C0CE
:1034600014968C9181FFC4C082FDAEC06101D80169
:103470001A964D915D916D917C911D97C114D10467
:1034800009F429C15B968D919C915C97FC01748035
:103490002FEF270D2A013B0139E07694679457946A
:1034A00047943A95D1F7722E74207A01F1E0FF2209
:1034B000711020C0E114F104E9F416964D915D916C
:1034C0006D917C911997411551056105710509F0C0
:1034D00098C057968D919D910D90BC91A02D00970D
:1034E000A105B10509F0AFC0C8010E94EB16882301
:1034F00009F47EC080E092E08E199F0946018C1588
:103500009D0508F44C01D8015B964D915C915C9748
:1035100016968D919D910D90BC91A02D0297A109B9
:10352000B109FA01258504C0880F991FAA1FBB1F86
:103530002A95D2F74685578560897189840F951F32
:10354000A61FB71F9C01AD01270D311D411D511D47
:1035500029013A01811432E0930609F07AC0809182
:103560001D0190911E01A0911F01B09120018415B1
:103570009505A605B70559F48FEF9FEFDC01809301
:103580001D0190931E01A0931F01B093200195018E
:10359000B301A2018091F9169091FA160E9444128B
:1035A000882331F19EEFB91AC818D908F80182852D
:1035B0009385A485B585880D991DA11DB11D8287B0
:1035C0009387A487B58753CFF801438954896589C8
:1035D000768982859385A485B585481759076A073A
:1035E0007B0709F443CFC8010E94571681113ECFD3
:1035F00081E090E0D80113969C938E93129780E01F
:1036000007C09E012F5F3F4F0E941715811102C016
:1036100090E077C089819A81AB81BC81F801238DCC
:10362000348DF901278948EF5FEF60E070E02031C9
:1036300021F048EF5FEF6FEF7FE084179507A60753
:10364000B70708F051CFF80186839783A087B18729
:1036500051CFE114F10491F5D8011A964D915D9185
:103660006D917C911D9753968D919D910D90BC917C
:10367000A02D481759076A077B0700F10E94AD1279
:10368000882309F4B5CF40921D0150921E0160922B
:103690001F01709220018091BA0E81608093BA0E52
:1036A00097012550394ED501C901880D991DF901A1
:1036B0008E179F0759F04D914193FACF41E0C30116
:1036C000B2010E94EA128111EBCF92CF821B930BC1
:1036D000A80EB91E69CFF80183899489A589B68996
:1036E00084179507A607B70738F48481438B548B5A
:1036F000658B768B80688483F801848183FD18C094
:10370000C1010F900F900F900F90DF91CF911F91FB
:103710000F91FF90EF90DF90CF90BF90AF909F9070
:103720008F907F906F905F904F903F902F90089573
:10373000C8010E94EC18882309F45ACFE1CFCF9337
:10374000DF931F92CDB7DEB7698341E050E0BE0141
:103750006F5F7F4F0E94101A0F90DF91CF910895F5
:10376000FC01DB0112968D919C91139793838283C8
:1037700082EC91E09183808314968C9114978483DA
:1037800015968C911597858316964D915D916D9147
:103790007C91199746835783608771871A964D915C
:1037A0005D916D917C911D974287538764877587E2
:1037B0001E964D915D916D917C91519746875787EB
:1037C000608B718B52968C915297828B53964D9150
:1037D0005D916D917C915697438B548B658B768B65
:1037E00057964D915D916D917C915A97478B508F73
:1037F000618F728F5B968D919C91948F838F0895CA
:10380000DC015996ED91FC91309721F081E0958192
:10381000911101C080E00895FC01818D928D009787
:1038200011F00C94EC180895DC015996ED91FC917F
:103830003097B9F083899489A589B68942855385E3
:1038400064857585841B950BA60BB70B811520E845
:103850009207A105B10538F08FEF9FE7A0E0B0E037
:10386000089590E080E00895CF93DF93EC01E98D17
:10387000FA8D309749F481E090E09B838A8390E051
:1038800080E0DF91CF91089513821282898D9A8D05
:103890000E94101AE98DFA8D22813381232B59F76A
:1038A000F0CFCF93DF931F92CDB7DEB76983DC01F2
:1038B000ED91FC910280F381E02D41E050E0BE01EA
:1038C0006F5F7F4F09950F90DF91CF910895CF9350
:1038D000DF931F92CDB7DEB741E050E0BE016F5FCE
:1038E0007F4F0E94E517019731F4898190E00F9096
:1038F000DF91CF9108958FEF9FEFF9CF1F93CF9373
:10390000DF93FC012581223030F490E080E0DF91EC
:10391000CF911F910895EC0142855385648575858B
:1039200085E076956795579547958A95D1F7142F39
:103930001F70CF010E94671C97FDE7CF8A859B858A
:10394000AC85BD854F96A11DB11D8A879B87AC872D
:10395000BD87F0E21F9FC00111248550994ED7CF3B
:10396000FC01818D928D009711F00C94671C8FEFF4
:103970009FEF08950F931F93CF93DF93EC01898DF1
:103980009A8D10E000E0009799F00E94671C8C016E
:103990000F3F100769F0898D9A8DFC014285538590
:1039A0006485758541505109610971090E94571656
:1039B000C801DF91CF911F910F910895CF93DF93AD
:1039C000EC01FB01828193819B838A8384819581B1
:1039D000A681B7818C839D83AE83BF8380859185CB
:1039E000A285B38588879987AA87BB878EEC91E0EB
:1039F000998388838DE03C96DE011C9601900D92A0
:103A00008A95E1F7FB01818D928D9A8F898FDF91E5
:103A1000CF910895CF92DF92EF92FF92CF93DF93F1
:103A200060E08DE10E940E0A8DE10E943F0AB0E045
:103A3000A0E0BC01CD01660F771F881F991F0E946F
:103A40005B6223E333E343E550E40E94BC6220E081
:103A500030E048EC52E40E94BC6220E030E84FEFD6
:103A600053E40E94F46320E030EC4FE754E40E94FA
:103A700060640E94D964CB0164E670E00E941E6518
:103A8000EB01BC0190E080E00E945B6220E030E04E
:103A900048EC52E40E9460646B017C01BE0190E03E
:103AA00080E00E945B629B01AC01C701B6010E94ED
:103AB000F463DF91CF91FF90EF90DF90CF90089566
:103AC00060E080E00E94AE0968EB7BE080E090E07F
:103AD0000E94790A61E080E00C94AE09CF93DF93F5
:103AE00080B7806880BF61E08EE00E94AE0962E32B
:103AF00070E080E090E00E94790A88E10E943F0A2D
:103B0000EC0160E08EE00E94AE09BE01DD0F880B83
:103B1000990B0E945D6223EA36E043E55BE30E9475
:103B2000BC622EEB3FE94AEA5FE30E94BC62DF9190
:103B3000CF910895CF93DF93FB0122813381DC0184
:103B400013963C932E931297448155816681778119
:103B500014964D935D936D937C9317974085518593
:103B60006285738518964D935D936D937C931B9737
:103B70001C96EF012C969C01275E3F4F49914D9377
:103B8000A217B307D9F7218D328DFC01328F218F17
:103B9000DF91CF910895CF93DF9387EA9BE10E9455
:103BA000900889EA91E20E94B80B80B78F7780BFB6
:103BB000CAE7D0E088818F778883F89485B78068DA
:103BC00085BF85B7806885BF789461E081E00E94F9
:103BD000AE098CB58F7B8CBD61E085E00E940E0A3A
:103BE00060E085E00E94AE0983B7817F846083BF77
:103BF00083B7816083BF7894EBE6F0E080818460D6
:103C00008083E8E6F0E080818160808383B7816013
:103C100083BF889583B78E7F83BF888180688883C0
:103C200060E081E00E94AE098CB580648CBD40E00C
:103C300051EE60E070E087EA9BE10E94660768EE63
:103C400073E080E090E0DF91CF910C94790A90E0EE
:103C500080E00895282F30E094E0359527959A95D7
:103C6000E1F7922F990F990F291B220F820F0895C8
:103C700081E080935D1988E680937E191092871900
:103C80001092861960E086E093E20E94151081E0B0
:103C90000E94C706811142C067E088E60E9424079F
:103CA000109289198093881986E093E20E94CE0FC2
:103CB0008F770E942A1E8093121986E093E20E9459
:103CC000CE0F0E942A1E8093131986E093E20E9471
:103CD000CE0F8F7B0E942A1E8093141986E093E2F8
:103CE0000E94CE0F8093151986E093E20E94CE0FBA
:103CF0000E942A1E8093161986E093E20E94CE0F3E
:103D00008F770E942A1E8093171986E093E20E9403
:103D1000CE0F0E942A1E825E80931819809112197C
:103D20008093690E809113198093F2168091141973
:103D30008093F3168091161980936C0E8091171959
:103D400080936D0E8091181990E08E54984F909347
:103D50006B0E80936A0E62E370E080E090E00C945A
:103D6000790ACF9391E090935D1998E690937E192C
:103D70001092871910928619682F86E093E20E94AC
:103D8000151081E00E94C70681110DC061E088E630
:103D90000E942407109289198093881986E093E283
:103DA0000E94CE0FC82F8C2FCF9108951F93CF93D1
:103DB000DF9381E080935D1988E680937E191092ED
:103DC00087191092861960E086E093E20E94151030
:103DD000C2E1D9E128811AE0822F612F0E94126589
:103DE000682F660F680F660F620F86E093E20E94ED
:103DF00015102981822F612F0E941265682F660F8E
:103E0000680F660F620F86E093E20E9415102A8108
:103E1000822F612F0E941265682F660F680F660F50
:103E2000620F86E093E20E9415106B8186E093E2B8
:103E30000E9415102C81822F612F0E941265682F1D
:103E4000660F680F660F620F86E093E20E941510FE
:103E50002D81822F612F0E941265682F660F680FD7
:103E6000660F620F86E093E20E9415102E812E519C
:103E7000822F612F0E941265682F660F680F660FF0
:103E8000620F86E093E20E94151081E00E94C7064F
:103E9000C82F8FE00E94B11E682F6F778FE00E94BD
:103EA00044108C2FDF91CF911F910895CF93DF9312
:103EB000C82FD62F8EE00E94B11E4C2F4150550BBB
:103EC00061E070E001C0660F4A95EAF7DD2331F04A
:103ED000682B8EE0DF91CF910C944410609568239D
:103EE000F8CFCF93DF93C82F8FE00E94B11EC1504F
:103EF000DD0B21E030E001C0220FCA95EAF7982FD0
:103F0000922351F02095622F68238FE00E94441085
:103F100081E0DF91CF91089580E0FBCFCF9382E1E4
:103F20000E94B11EC82F81E10E94B11E6C2F782F14
:103F300077FF02C0615C7F4F86E0759567958A9533
:103F4000E1F7072E000C880B990B0E945D6220E0C0
:103F500030E040E85EE30E94BC62CF9108958F920A
:103F60009F92AF92BF92CF92DF92EF92FF920F9308
:103F70001F93CF93DF9300D000D0CDB7DEB7FC0105
:103F80008581813091F080E00F900F900F900F901D
:103F9000DF91CF911F910F91FF90EF90DF90CF9025
:103FA000BF90AF909F908F900895848181FFEBCF59
:103FB00083899489A589B689892B8A2B8B2B09F44F
:103FC0005EC07F0140E050E0BA01CF010E94571669
:103FD0008823C9F2F701C38CD48C8788908CA18C7C
:103FE000B28C82E090E0A0E0B0E0F60180839183A3
:103FF000A283B3839E012F5F3F4FB501A401C60189
:104000000E941715882309F4BECF00E010E0980144
:10401000B501A401C6010E947514882309F4B3CF29
:1040200089809A80AB80BC80F6018789803111F14C
:1040300088EF9FEFAFEFBFE088169906AA06BB0690
:10404000C8F2F701178A108E118E128E138A148A05
:10405000158A168A848180688483C7010E94EC18BF
:10406000882309F490CF40E050E0BA01C7010E94D4
:1040700057168ACF88EF9FEFA0E0B0E0DDCF81E058
:1040800083CFCF93DF93EC010E94AF1F882369F0A9
:10409000CE010E943313009741F025EEFC012083EE
:1040A0001D82DF91CF910C94AD1280E0DF91CF9112
:1040B0000895CF92DF92EF92FF921F93CF93DF93F9
:1040C000EC0180E2689FF0011124E550F94E9385E0
:1040D000917161F0842F827449F080E0DF91CF917B
:1040E0001F91FF90EF90DF90CF900895142F6A8B6F
:1040F00080911D0190911E01A0911F01B09120019E
:104100008E879F87A88BB98BC488D588F12CE12C2A
:104110007601DD24CC24CF8AD88EE98EFA8E828D6A
:10412000938DB0E0A0E0AC01BD014C295D296E2962
:104130007F294F8B588F698F7A8F83858871B1F46F
:10414000848D958DA68DB78D8B8B9C8BAD8BBE8B07
:1041500081E08D831F701C831E821F821886198642
:104160001A861B861C861D8681E0B8CF803109F037
:10417000B4CF9E012D5E3F4F8B8D9C8D0E94981574
:10418000882309F4AACF84E0E4CF2F923F924F9284
:104190005F926F927F928F929F92AF92BF92CF92D7
:1041A000DF92EF92FF920F931F93CF93DF9300D094
:1041B00000D000D0CDB7DEB78C016B8349838091EE
:1041C0009C1F22242394280E20929C1F312CC12C4A
:1041D000D12C7601D39477247394730C80919F1F14
:1041E000831508F4EFC08091951F9091961FDC0114
:1041F000ED91FC91008CF18DE02D622D099580915F
:10420000951F9091961FDC01ED91FC91028CF38D2E
:10421000E02D40E860E0099549816B81C8010E946A
:10422000AF070E94A407B981BF3FD1F481E0269671
:104230000FB6F894DEBF0FBECDBFDF91CF911F91B7
:104240000F91FF90EF90DF90CF90BF90AF909F9035
:104250008F907F906F905F904F903F902F90089538
:1042600021E0271598F48091981F9091991FA091B3
:104270009A1FB0919B1F0196A11DB11D8093981F9D
:104280009093991FA0939A1FB0939B1F0E94F20ACC
:104290004B015C0180919D1F90919E1F9D838C839B
:1042A0000E946E61A70196010E9490639B01AC0180
:1042B000AC81BD810E94AF63A70196010E9490630B
:1042C000AC81BD812A0F3B1F372C2901712C612C39
:1042D0000E94F20A681979098A099B096415750513
:1042E0008605970508F077CF8091951F9091961FCE
:1042F000DC01ED91FC910280F381E02D099588238A
:1043000039F38091951F9091961FDC01ED91FC91FE
:104310000480F581E02D50E040E070E060E0099518
:104320008823B1F28091951F9091961FDC01ED9149
:10433000FC9100A0F1A1E02D09958E838091951F3D
:104340009091961FDC01ED91FC91068CF78DE02D8C
:1043500009958A838091951F9091961FDC01ED91BC
:10436000FC9102A0F3A1E02D09958C838091951F0B
:104370009091961FDC01ED91FC9104A0F5A1E02D38
:104380000995B9812E81B2130BC09091971FAA8114
:104390009A1306C087FF04C0BC812B1609F446CFD0
:1043A00087FD96CF2E81E22FF0E0EB56F04E83850D
:1043B0009C8189138DCF422F692F85E99FE10E944F
:1043C000BD0D86CF80E033CF0F931F93CF93DF9344
:1043D0004115510541F0FC010481158101151105BC
:1043E00039F4FB011082DF91CF911F910F91089555
:1043F000415051094017510708F48A01EB01FC01B3
:1044000060817181A801CE010E945D66C00FD11F3D
:104410001882E9CFFB0101900020E9F73197AF0145
:10442000461B570BDC01ED91FC910280F381E02DDE
:1044300009948F929F92AF92BF92EF92FF920F9347
:104440001F93CF93DF93CDB7DEB7A1970FB6F89444
:10445000DEBF0FBECDBF7C01FA01CB0119A2223015
:1044600008F42AE08E010F5D1F4F822E912CB12C93
:10447000A12CBF01A50194010E94C263F901CA01E8
:104480006A300CF5605DD8016E938D01232B242BCF
:10449000252B79F790E080E0109721F0BD01C7014E
:1044A0000E940A22A1960FB6F894DEBF0FBECDBFC0
:1044B000DF91CF911F910F91FF90EF90BF90AF9040
:1044C0009F908F900895695CDECF462F50E070E09A
:1044D00060E02AE00C941922CF92DF92EF92FF92D3
:1044E000CF93DF93AB01BC0177FF1BC06A017C0156
:1044F0008DE20E941509EC0144275527BA014C1999
:104500005D096E097F092AE087EA9BE10E94192272
:104510008C0F9D1FDF91CF91FF90EF90DF90CF9098
:1045200008952AE087EA9BE1DF91CF91FF90EF9019
:10453000DF90CF900C9419226EE478E00C940A225C
:104540000F931F93CF93DF93EC010E9465228C01A0
:10455000CE010E949C22800F911FDF91CF911F916D
:104560000F910895CF92DF92EF92FF92CF930E9426
:10457000F20A6B017C0128E9C20E2AE3D21EE11C7B
:10458000F11CC0929D0ED0929E0EE0929F0EF09272
:10459000A00E10929C0E0E94F20A6C157D058E05ED
:1045A0009F0520F587EA9BE10E94750818161906F9
:1045B00094F764E670E080E090E00E94790A87EA70
:1045C0009BE10E947508D82EF12CCAE0E0909C0E69
:1045D000FD1460F487EA9BE10E945408EC9E800D74
:1045E0001124805380939C0EF394F0CF60919C0E25
:1045F00087EA9BE1CF91FF90EF90DF90CF900C94F2
:10460000A022CF93DF93AB01BC012AE087EA9BE1B4
:104610000E941922EC0187EA9BE10E949C228C0FE8
:104620009D1FDF91CF910895CF93DF93BC01990F28
:10463000880B990B0E946C22EC0187EA9BE10E9497
:104640009C228C0F9D1FDF91CF910895CF92DF9216
:10465000EF92FF920F931F93CF93DF930E94F20A82
:104660006B017C0128E9C20E2AE3D21EE11CF11C79
:10467000C0929D0ED0929E0EE0929F0EF092A00EE0
:1046800010929B0E10929A0E0E94F20A6C157D05F4
:104690008E059F0508F046C087EA9BE10E947508D9
:1046A000181619068CF764E670E080E090E00E942E
:1046B000790A87EA9BE10E9475088C019093990E14
:1046C0008093980E81E08093970E3AE0C32ED090AD
:1046D000970ECD2DD0E0E0909A0EF0909B0E0C1727
:1046E0001D0704F187EA9BE10E945408CC0FDD1FEF
:1046F000C757D14F998388838D30910579F08A30DF
:10470000910561F0C097CE9C9001CF9C300D112493
:10471000820F931F90939B0E80939A0ED394D09206
:10472000970ED5CF80919A0E90919B0E0E941423E4
:104730006AE070E080E090E0DF91CF911F910F91EF
:10474000FF90EF90DF90CF900C94790A0F931F9316
:10475000CF93DF938C01D0E0C0E06115710519F0B3
:104760000E940A22EC01C8010E949C228C0F9D1F0E
:10477000DF91CF911F910F910895CF92DF92EF9229
:10478000FF921F93CF93DF930E94F20A6B017C018B
:1047900028E9C20E2AE3D21EE11CF11C0E94F20A93
:1047A0006C157D058E059F0540F587EA9BE10E940B
:1047B00075081816190694F764E670E080E090E03A
:1047C0000E94790A87EA9BE10E947508EC01F82EA5
:1047D00010E087EA9BE10E9454088D3039F08A305E
:1047E00029F0E12FF0E0EF55F14F80831F5FF116C4
:1047F00080F7DD27CF55D14F188261EA7EE087EA46
:104800009BE1DF91CF911F91FF90EF90DF90CF90D0
:104810000C94A6230F931F93CF93DF93EC01FB011E
:104820004481558160817181E881F9810280F38141
:10483000E02D09958C01CE010E949C22800F911FD2
:10484000DF91CF911F910F9108950F931F93CF93F5
:10485000DF93EC010E94F3078C01CE010E949C22A1
:10486000800F911FDF91CF911F910F910895CF93EA
:10487000DF93EC010E943B0B66E17DE087EA9BE160
:104880000E94F307BE0187EA9BE10E942524BE0136
:104890008091931F9091941F0E94252480E00E9494
:1048A000AB0AC82F6FE07DE087EA9BE10E94F30727
:1048B00069E87EE187EA9BE10E94A6238C2FDF91C5
:1048C000CF910895CF93DF93EB010E943724882383
:1048D00041F0BE0189E89EE10E94ED6121E0892B53
:1048E00009F020E0822FDF91CF910895CF93DF93DD
:1048F0009093941F8093931F61E08091871E0E9484
:104900000E0A61E08091871E0E94AE096AE070E0A5
:1049100080E090E00E94790A60E08091871E0E940A
:10492000AE0964E670E080E090E00E94790A61E000
:104930008091871E0E94AE096EEE7CE087EA9BE1C3
:104940000E942524CEE0D0E08091931F9091941F87
:10495000DC01ED91FC910084F185E02D0995892B16
:1049600061F08091931F9091941FDC01ED91FC9177
:104970000284F385E02D0995E7CF6091911F709136
:10498000921F8BEE9CE00E94622481115AC080919C
:10499000931F9091941FDC01ED91FC910084F185AF
:1049A000E02D0995892B61F08091931F9091941FC0
:1049B000DC01ED91FC910284F385E02D0995E7CFB0
:1049C00065EE7CE088EE9CE00E946224811139C093
:1049D00064EF71E080E090E00E94790A219709F08D
:1049E000B3CF63EB7CE087EA9BE10E9425246091D2
:1049F000911F7091921F80EB9CE00E94622464E6FC
:104A000070E080E090E00E94790A6091911F7091BF
:104A1000921F8DEA9CE00E94622464E670E080E0D0
:104A200090E00E94790A6091911F7091921F8AEA2A
:104A30009CE00E94622464E670E080E090E00E94C6
:104A4000790A6091911F7091921F85EA9CE00E9403
:104A5000622464E670E080E090E00E94790A609150
:104A6000911F7091921F80EA9CE00E946224C82FDF
:104A7000882309F479C06091911F7091921F86E993
:104A80009CE00E94622464E670E080E090E00E9476
:104A9000790A0E943B0B6FE87CE087EA9BE10E9469
:104AA000F3076AE172E087EA9BE10E94A6236AE1CC
:104AB00072E08091931F9091941F0E94A62381E041
:104AC0000E94AB0A68E87CE087EA9BE10E94F3075A
:104AD00069E87EE187EA9BE10E94A6236DE77CE01E
:104AE00089E89EE10E94FF61892B09F441C083E0BF
:104AF0008093881E8091881E813071F560E47CE08F
:104B000087EA9BE10E94F3076EE172E087EA9BE18E
:104B10000E94A6236EE172E08091931F9091941FF2
:104B20000E94A62381E00E94AB0A69E37CE087EA49
:104B30009BE10E94F30769E87EE187EA9BE10E941E
:104B4000A62361E37CE089E89EE10E94FF61892B56
:104B500019F086E08093881E6091911F7091921FDA
:104B60008AE19CE00E9462248C2FDF91CF9108950E
:104B700062E77CE089E89EE10E94FF61892B11F0E9
:104B800082E0B6CF67E67CE089E89EE10E94FF61A3
:104B9000892B11F081E0ACCF67E57CE089E89EE1EC
:104BA0000E94FF61892B11F084E0A2CF67E47CE0D2
:104BB00089E89EE10E94FF61892B09F49BCF85E083
:104BC00097CF69E371E087EA9BE10E94F307609168
:104BD000000E87EA9BE10E94652266E371E087EAA6
:104BE0009BE10E94F3078091000E811106C067E2ED
:104BF00071E087EA9BE10E9425248091000E8130BC
:104C000031F465E171E087EA9BE10E9425248091FF
:104C1000000E823031F46AEF70E087EA9BE10E9477
:104C200025248091000E833031F463EF70E087EA31
:104C30009BE10E9425248091000E843031F46BEEBC
:104C400070E087EA9BE10E9425248091000E853068
:104C500031F468ED70E087EA9BE10E94252464E668
:104C600070E080E090E00C94790A6115710511F014
:104C70000C940A2290E080E008951F93CF93DF9375
:104C80000E94381E8091870E8430A9F44091F3165B
:104C9000242F30E0C90102968231910509F457C0F2
:104CA000423131F468E170E00E943265C82F12C0D1
:104CB000C9010496F7CF813071F4C091F3168C2F9F
:104CC00090E00196C23171F78091F216833208F4B8
:104CD0003FC0C3E1D3E02AE08C2F622F0E9412650F
:104CE000182F110F180F110F1C0F8D2F0E94126516
:104CF000682F660F680F660F6D0F8BE00E944410DF
:104D0000612F8CE00E94441060E88DE00E94441006
:104D100065E272E087EA9BE10E9435266C2F87EA04
:104D20009BE10E9465226EE879E087EA9BE10E94A0
:104D300035266D2F87EA9BE10E94A02262E370E096
:104D400080E090E0DF91CF911F910C94790AC2E14D
:104D5000D3E2C1CFCF930E94381E2091860EE22F5E
:104D6000F0E08091F2168E0F9F2F911D6CE370E0A2
:104D70000E943265BF010E943265269F202D1124BA
:104D80002F5F2093FE0D822F6AE00E941265C82FCC
:104D9000CC0FC80FCC0FC20F60E087E00E94441018
:104DA0006C2F88E00E94441060E889E00E94441063
:104DB00060E88AE00E94441067E372E087EA9BE1C2
:104DC0000E9435266091FE0D87EA9BE10E94A02299
:104DD00062E370E080E090E0CF910C94790ADF927A
:104DE000EF92FF920F931F93CF93DF938B017A0182
:104DF000D22E0E943724B80189E89EE10E94FF610B
:104E0000EC01892BF9F0C8010E94F6618C0F9D1FFF
:104E1000DD2039F06CE270E00E944B66009791F063
:104E200001960E94C661F7019183808380E00E9411
:104E3000AB0A81E0DF91CF911F910F91FF90EF902E
:104E4000DF90089580E0F6CFCF93DF9300D0CDB709
:104E5000DEB721E0AE014F5F5F4F69E07CE081E1AA
:104E60009CE00E94EF26882331F089810F900F90FB
:104E7000DF91CF91089580E0F9CFCF93DF9300D0F9
:104E8000CDB7DEB720E0AE014F5F5F4F6BEF7BE049
:104E900082E09CE00E94EF26882331F089810F9008
:104EA0000F90DF91CF91089580E0F9CF0E94306696
:104EB0000F931F93CF93DF93EC0188819981009723
:104EC00059F02A813B812617370730F081E0DF91C6
:104ED000CF911F910F9108958B016F5F7F4F0E94BB
:104EE0004F65009759F0998388831B830A832C812F
:104EF0003D81232B59F7FC011082E8CF80E0E7CFFA
:104F0000EF92FF920F931F93CF93DF93611571057B
:104F100041F480E0DF91CF911F910F91FF90EF90CE
:104F2000089541155105B1F07B01EC010C811D8103
:104F3000040F151FB8010E945827882351F32881B8
:104F400039818C819D81B701820F931F0E94566623
:104F50001D830C8381E0DECFEF92FF920F931F93AE
:104F6000CF93DF9300D000D0CDB7DEB77C01862F82
:104F70004AE08E010F5F1F4FB80190E00E94196256
:104F8000F80101900020E9F73197AF01401B510B68
:104F9000B801C7010E9480270F900F900F900F90CB
:104FA000DF91CF911F910F91FF90EF900895CF93D4
:104FB000DF9300D0CDB7DEB769831A8241E050E0BD
:104FC000BE016F5F7F4F0E9480270F900F90DF918F
:104FD000CF910895FB0101900020E9F73197AF01CF
:104FE000461B570B0C948027FB014481558160813F
:104FF00071810C948027CF93DF93EC018881998194
:10500000009711F00E949960198218821D821C82FB
:105010001B821A82DF91CF910895CF93DF93EC0129
:105020006115710539F4CE010E94FB27CE01DF9195
:10503000CF910895FB0101900020E9F73197AF016E
:10504000461B570B0E948027882369F3EFCFCF932D
:10505000DF93EC01FB0144815581608171810E94E5
:105060008027811103C0CE010E94FB27CE01DF9172
:10507000CF910895EF92FF920F931F93CF93DF93F9
:10508000EC017B018A01BA010E94582781110BC0F3
:10509000CE010E94FB27CE01DF91CF911F910F918E
:1050A000FF90EF9008951D830C83B701888199814B
:1050B0000E945666F0CFFB0101900020E9F731977E
:1050C000AF01461B570B0C943A280F931F93CF93B5
:1050D000DF93CDB7DEB729970FB6F894DEBF0FBECA
:1050E000CDBF8C01862FF8011182108213821282AB
:1050F000158214824AE0BE016F5F7F4F90E00E94EC
:105100002C62BE016F5F7F4FC8010E945B28299609
:105110000FB6F894DEBF0FBECDBFDF91CF911F91C8
:105120000F9108950F931F93CF93DF93CDB7DEB701
:1051300062970FB6F894DEBF0FBECDBF8C01CB01D6
:10514000F8011182108213821282158214824AE0C1
:10515000BE016F5F7F4F0E941962BE016F5F7F4F7C
:10516000C8010E945B2862960FB6F894DEBF0FBE9E
:10517000CDBFDF91CF911F910F910895CF93DF9312
:10518000C0E0D6E08091880EC81758F4CD9FC001CA
:10519000112462E572E08A529D4D0E945B28CF5F28
:1051A000F1CFDF91CF9108950F931F93CF93DF93AA
:1051B000CDB7DEB728970FB6F894DEBF0FBECDBFD0
:1051C00062E572E08AEC92E20E945B280E94381E3F
:1051D0004AE08E010F5F1F4FB80180916A0E9091D7
:1051E0006B0E0E941962F80101900020E9F73197D7
:1051F000AF01401B510BB8018AEC92E20E9480275C
:105200006DE28AEC92E20E94D72760916D0E8AECE3
:1052100092E20E94AC276DE28AEC92E20E94D727CC
:1052200060916C0E8AEC92E20E94AC276FE58AECEA
:1052300092E20E94D7276091F3168AEC92E20E94D4
:10524000AC276AE38AEC92E20E94D7271091F2160B
:105250001A3028F460E38AEC92E20E94D727612F8B
:105260008AEC92E20E94AC276AE38AEC92E20E9406
:10527000D7271091690E1A3028F460E38AEC92E285
:105280000E94D727612F8AEC92E20E94AC2769E442
:1052900072E08AEC92E20E94EA2762E370E080E02A
:1052A00090E00E94790A28960FB6F894DEBF0FBEF0
:1052B000CDBFDF91CF911F910F910895CF93DF93D1
:1052C000EC01FB018617970749F060817181611538
:1052D000710541F0448155810E943A28CE01DF9149
:1052E000CF9108950E94FB27F9CFFC011182108213
:1052F00013821282158214820C945E29FC011182A1
:1053000010821382128215821482FB010190002008
:10531000E9F73197AF01461B570B0C943A28FC0173
:10532000808191810C949960CF93DF93EC01898DFA
:105330009A8D009741F00E941B19898D9A8D0E94C9
:1053400099601A8E198EDF91CF910895CF92DF92D6
:10535000EF92FF920F931F93CF93DF93EC017B01AA
:105360008A01E881F9810280F381E02D0995D82E28
:10537000882329F1E114F104D1F001151105B9F0E8
:10538000CFB6F8948A8D8350990BF80120812817A5
:1053900019061CF08A8D84508083F801408150E00A
:1053A000BE01615E7F4FC7010E944266CFBE8FB7CC
:1053B000F894FE01E65EFE4F10821A8E8FBF8D2D8F
:1053C000DF91CF911F910F91FF90EF90DF90CF90E1
:1053D0000895EF92FF920F931F93CF93DF9300D026
:1053E0001F92CDB7DEB78C010E949F0DE82E811170
:1053F0000CC0E12C8E2D0F900F900F90DF91CF916C
:105400001F910F91FF90EF900895F801808D8A30E1
:1054100009F47EC08B3009F47DC022E0F22E823088
:1054200041F740E861E0C8010E94750B6AE070E056
:1054300080E090E00E94790A61E0C8010E94B50C0A
:105440008038B9F660E0F801808D0E940E0AF801FC
:10545000818D8F3F49F48091030F843050F691E0A5
:10546000980F9093030F818FF801818DE82FF0E062
:10547000EE0FFF1FEC5FF04F1183008366E97DE0C4
:10548000882349F06DE87DE0813029F0823009F011
:10549000B0CF64E87DE08F2D0E94D20740E06EE03F
:1054A000C8010E94750B40E06FE0C8010E94750BB7
:1054B000C8010E94CD0B43E050E061E77BE0CE01E4
:1054C00001960E94E46149816DE1C8010E94750B5B
:1054D0004A816EE1C8010E94750B4B8166E2C801EA
:1054E0000E94750B40E060E2C8010E94750B48E025
:1054F00061E2C8010E94750B40E050EC64E674E480
:10550000C8010E94E10B6DE0C8010E94A50B72CF9B
:10551000F12C87CFFF24F39484CF3F924F925F9278
:105520006F927F928F929F92AF92BF92CF92DF92B3
:10553000EF92FF920F931F93CF93DF93CDB7DEB718
:105540002B970FB6F894DEBF0FBECDBF7C01DC01F8
:1055500015968C91811115C0FE013196CE010C96E5
:105560006F0130E231938E179F07E1F7DA0130E0E7
:1055700087E09D91B92E992329F19E3239F48A3022
:1055800011F480E0BEC038E08AE0F3CFE1E6FBE052
:105590004491442321F031969413FACFF2CF83172C
:1055A00080F34FED490F4E3560F74FE9490F4A310F
:1055B00018F440EEB42EB90EF601E30FF11DB082DF
:1055C0003F5FD7CF89818032E1F2322E8B01FB0120
:1055D000838D948DD7015C969C938E935B971682F6
:1055E0001782108611861286138614861586F80196
:1055F00082859385A485B585438954896589768993
:1056000084179507A607B70790F525E0B695A795E7
:10561000979587952A95D1F7F82FFF70AF2EC8017F
:105620000E947E1C009709F4ACCFDC012C91222350
:1056300041F0253E09F057C0BB2029F0BB24B394AC
:10564000D6CFB1100EC0F701A28A40911D01509132
:105650001E0160911F017091200146875787608B62
:10566000718BFC0180818111E9CFBB24B394832D20
:105670008271823109F085CFBB2009F45AC0C7017D
:105680000E943313009709F47CCF20E2FC011192B1
:105690002A95E9F72BE0F601DC0101900D922A959D
:1056A000E1F721E238E2DC0151963C932E935097CA
:1056B00040E058E01F965C934E931E9753963C93A0
:1056C0002E93529759963C932E93589757965C93E6
:1056D0004E9356970E94AD12882309F452CF432D62
:1056E000F70162890BC04BE050E0BC01C6010E948B
:1056F0003566892B09F07BCF432D6A2DC7010E94A7
:1057000059202B960FB6F894DEBF0FBECDBFDF91A8
:10571000CF911F910F91FF90EF90DF90CF90BF90AE
:10572000AF909F908F907F906F905F904F903F9041
:105730000895D80115968C91823009F422CFC801C2
:105740000E94EB16882309F41CCFD8015B96ED91DB
:10575000FC915C9716968D909D90AD90BC9019979A
:10576000B2E08B1A9108A108B108858504C0880CA5
:10577000991CAA1CBB1C8A95D2F786859785A0899F
:10578000B189880E991EAA1EBB1E84812401350191
:10579000480E511C611C711C84149504A604B704A6
:1057A00001F1E1E04E1A5108610871080E94AD1242
:1057B000882309F4E6CEEBEFF6E111928BEF98E146
:1057C0008E179F07D1F740921D0150921E016092E3
:1057D0001F01709220018091BA0E81608093BA0EF1
:1057E000DBCFD8015B96ED91FC91258580E092E0BE
:1057F000A0E0B0E004C0880F991FAA1FBB1F2A9524
:10580000D2F7F8014389548965897689840F951FF9
:10581000A61FB71F838B948BA58BB68BD70152968F
:105820001C928BEF96E131CF5F926F927F928F92B5
:105830009F92AF92BF92CF92DF92EF92FF920F931F
:105840001F93CF93DF93CDB7DEB7C754D1090FB6FF
:10585000F894DEBF0FBECDBF5C013B0119A218A2B8
:1058600082EC91E09F8F8E8F1BA21C821B829A83F9
:1058700089831E8210E000E06E018EE1C80ED11C0B
:1058800080EFE82E8DE1F82EF501E00FF11F808109
:105890008F3211F40F5F1F4FD501A00FB11FFE0112
:1058A000FB9690E080E04F012D912F3249F02223AA
:1058B00039F00F5F1F4F019621938C309105A1F7AE
:1058C000880D991DFC011082F501E00FF11F808108
:1058D0008F3211F40F5F1F4FF501E00FF11F508061
:1058E00041E0511040E030E020E0B401C701F30195
:1058F0000995811121C0F0EFEF16FDE1FF06C1F41B
:1059000080E0C95BDF4F0FB6F894DEBF0FBECDBF9E
:10591000DF91CF911F910F91FF90EF90DF90CF908B
:10592000BF90AF909F908F907F906F905F90089501
:10593000C7010E941B19E4CF552091F021E0A4017A
:10594000B701C6010E948D2A982E80EFE8168DE1DE
:10595000F80681F0C7010E941B19911010C0D0CF2A
:1059600090EFE9169DE1F90619F0C7010E941B1995
:1059700081E0C7CF992021F2FE0131967F019E2D53
:105980008F2D7601C92ED82E7FCFCF93DF93CDB741
:10599000DEB76D970FB6F894DEBF0FBECDBF4423C0
:1059A00009F453C0AB01BC011C821B8282EC91E064
:1059B0009A8389831E8221E0CE0101960E948D2A5E
:1059C000882339F08E81843071F090E081E091116C
:1059D00001C080E06D960FB6F894DEBF0FBECDBF5C
:1059E000DF91CF9108951F82188619861A861B862B
:1059F0001C861D861E864B855C856D857E858C8903
:105A00009D89AE89BF89481759076A077B0790F4BB
:105A1000CE0101960E947E1C0097B9F2FC01208104
:105A2000222341F0253E39F32E3229F3838583FD6D
:105A3000E2CFCBCF81E08E838D8182608D83CE01DA
:105A400001960E944120982FC1CF81E0C3CFCF9310
:105A5000DF93CDB7DEB76D970FB6F894DEBF0FBEFC
:105A6000CDBF442311F1AB01BC011C821B8282EC2F
:105A700091E09A8389831E8222E0CE0101960E94E2
:105A80008D2A882321F0CE0101960E94412091E0C9
:105A9000811101C090E0892F6D960FB6F894DEBF9A
:105AA0000FBECDBFDF91CF91089591E0F4CF1F934A
:105AB000CF93DF93CDB7DEB76D970FB6F894DEBF07
:105AC0000FBECDBFAB011C821B8222EC31E03A83BA
:105AD00029831E8221E0BC01CE0101960E948D2AFD
