:100000000C9486060C9455570C942A570C94FF5662
:100010000C94D4590C94B0060C94B0060C94B00611
:100020000C94B0060C94B0060C94B0060C94B00678
:100030000C94B0060C9480570C94B0060C94B00647
:100040000C94B0060C94B0060C94B5560C94B00603
:100050000C9480560C9456560C94B0060C94B00632
:100060000C94B0060C94B0060C94B0580C94B006E6
:100070000C9421560C94F7550C94B0060C94B006D1
:100080000C94B0060C94B0060C94B00652656769E7
:1000900073746572656420726F616D696E67005577
:1000A0006E6B6E6F776E0044656E696564004E6FAF
:1000B000742072656769737465726564202873655E
:1000C00061726368696E6729005265676973746558
:1000D0007265642028686F6D6529004E6F74207208
:1000E000656769737465726564003A20004E6574D3
:1000F000776F726B20737461747573200047505270
:1001000053206F6E004552524F523A20475052537F
:10011000206661696C656420746F207475726E204E
:100120006F6E005475726E696E672063656C6C202B
:100130006D6F64756C65206F66662E2E2E005253AF
:100140005349202864426D293A202D00456E74657C
:10015000722027782720617420616E792074696D80
:100160006520746F2073746F70005475726E696EC1
:10017000672063656C6C206D6F64756C65206F6EB5
:100180002E2E2E004552524F523A204C6F6E676908
:100190007475646520696E636F72726563742100A3
:1001A0004552524F523A204C61746974756465200F
:1001B000696E636F727265637421004552524F52CB
:1001C0003A20496E76616C69642075706C6F616469
:1001D00020696E74657276616C2028657665727927
:1001E0002031206F72203420686F757273290045AA
:1001F00052524F523A20496E76616C696420696EA2
:1002000074657276616C2028657665727920313567
:100210002C2032302C2033302C206F7220363020AE
:100220006D696E73290070726F6A65637449443A30
:1002300020002020696E707574206D696E7574657C
:100240003A20002020696E70757420686F75723ACC
:10025000202020002020696E7075742079656172FD
:100260003A202020002020696E7075742064617926
:100270003A20202020002020696E707574206D6F58
:100280006E74683A20200053796E6368726F6E69ED
:100290007A6174696F6E206661696C65642E2050A6
:1002A0006C6561736520656E7465722074696D6537
:1002B000206D616E75616C6C7920696E20555443B8
:1002C0003A200053796E6368726F6E697A696E675F
:1002D00020636C6F636B20746F204E4953542073FE
:1002E0006572766572202E2E2E200044656661753B
:1002F0006C7420726164696F204944206163636596
:100300007074656400526164696F2049442075709F
:10031000646174656400456E746572206E65772053
:10032000726164696F2049443A200020456E74650B
:10033000722027792720666F72207965732C202719
:100340006E2720666F72206E6F3A2000576F756CB3
:100350006420796F75206C696B6520746F20636809
:10036000616E67652074686520726164696F2049F9
:10037000442066726F6D20746865206465666175DF
:100380006C742076616C75653F00456E74657220F3
:1003900074686520486F6C6F6772616D2064657664
:1003A000696365206B657920666F72207468697374
:1003B00020476174657761793A2000456E746572F3
:1003C0002074686520726164696F20494420666FFB
:1003D00072204E6F64652000293F00496E76616C83
:1003E0006964206E756D626572206F66206E6F6441
:1003F00065732E2020486F77206D616E79206E6FB7
:10040000646573206172652061742074686973206B
:100410007369746520286D61782E00486F77206DB0
:10042000616E79206E6F64657320617265206174FE
:100430002074686973207369746520286D61782E53
:100440002000496E76616C696420696E746572760D
:10045000616C2E20506C6561736520656E746572E9
:100460002031206F7220342E00456E746572202278
:100470003122206F72202234223A200053657420EA
:1004800075706C6F616420696E74657276616C2042
:10049000746F2031206F72203420686F7572732E54
:1004A00000496E76616C696420696E74657276616C
:1004B0006C2E20456E746572206D65617375726572
:1004C0006D656E7420696E74657276616C2028317A
:1004D000302C2031352C2032302C2033302C206F22
:1004E00072203630293A2000456E746572206D65A1
:1004F00061737572656D656E7420696E7465727670
:10050000616C202831302C2031352C2032302C20C9
:1005100033302C206F72203630206D696E73293A8B
:100520002000496E76616C696420696E746572762C
:10053000616C2E20456E746572206D6561737572F5
:10054000656D656E7420696E74657276616C2028C5
:1005500031302C2031352C2032302C2033302C20DF
:100560006F72203630293A2000456E746572206D16
:100570006561737572656D656E7420696E74657200
:1005800076616C202831302C2031352C2032302CF3
:100590002033302C206F72203630206D696E732925
:1005A0003A2000436865636B696E672046504C4D86
:1005B0004E2E2E2E0045786974002020456E7465FD
:1005C0007220612050726F6A65637420494420284C
:1005D000757020746F203520636861726163746583
:1005E00072732C2065783A20505341293A200045F7
:1005F0007869740041726520796F75207375726532
:1006000020796F752077616E7420746F20636C653C
:100610006172207468652046504C4D4E3F20792F02
:100620006E3A200021212120555345205749544836
:100630002043415554494F4E2021212100457261EC
:10064000736520534420636172643A2000507269DC
:100650006E7420646174612066696C65733A200071
:1006600053617665642066696C65733A2000455273
:10067000524F523A2075706C6F616420696E7465D8
:100680007276616C206D75737420626520656E747E
:10069000657265642066697273742E205265747584
:1006A000726E696E6720746F206D656E752E2E2ECA
:1006B0000041726520796F75207375726520796FBE
:1006C000752077616E7420746F2065726173653F69
:1006D00020456E74657220792F6E3A20004C61744B
:1006E0002F6C6F6E672076616C7565732077696C0F
:1006F0006C20617070656172206173202D39393909
:1007000039393939393920696E2074686520646156
:10071000746120737472696E672E004552524F5295
:100720003A204C6F6E67697475646520696E636FFB
:10073000727265637421004C6F6E676974756465CD
:100740003A20004552524F523A204C6174697475F8
:10075000646520696E636F727265637421004C6119
:100760007469747564653A200053656C6563742020
:100770006F7074696F6E3A200020202030203C2D6D
:100780002D204572617365204C61742F4C6F6E672C
:100790002076616C7565730020202031203C2D2D62
:1007A00020456E746572204C61742F4C6F6E67200B
:1007B00076616C75657300456E74657220636F6E4B
:1007C00066696775726174696F6E20737472696EA1
:1007D000673A2000456E7465722063686F696365CF
:1007E0003A200020207820203C2D2D2020457869BB
:1007F00074206D656E750020206D20203C2D2D200D
:1008000020536574206D6561737572656D656E74D6
:1008100020696E74657276616C0020207520203C22
:100820002D2D202053657420646174612075706CD7
:100830006F616420746F20636C6F756420696E74DF
:10084000657276616C0020206E20203C2D2D2020CA
:10085000456E746572204E6F646520726164696FC5
:10086000204944730020206420203C2D2D20204569
:100870006E74657220486F6C6F6772616D2044659D
:1008800076696365204B65790020206720203C2D28
:100890002D20204368616E6765204761746577612C
:1008A0007920726164696F2049440020206C202007
:1008B0003C2D2D2020456E746572206F722065726C
:1008C000617365204C61742F4C6F6E672076616C8C
:1008D0007565730020206920203C2D2D2020456E59
:1008E0007465722070726F6A6563742049440020D9
:1008F000206320203C2D2D202053657420636C6FD5
:10090000636B20746F204E4953542074696D6500E9
:1009100020203020203C2D2D2020456E7465722033
:10092000636F6E66696775726174696F6E20737448
:1009300072696E6700436F6E66696775726174698C
:100940006F6E204F7074696F6E733A0020203420F0
:10095000203C2D2D2020436C65617220666F7262F1
:10096000696464656E206E6574776F726B73206C5A
:100970006973740020206520203C2D2D20204572B5
:10098000617365206D6963726F53442063617264A3
:100990000020206620203C2D2D2020536565206CF2
:1009A000697374206F662073617665642066696C74
:1009B00065730020207020203C2D2D20205072696E
:1009C0006E74206E6F6465206461746120746F20A2
:1009D00073637265656E0020203120203C2D2D2030
:1009E0002043656C6C756C6172205369676E616C35
:1009F0002053636F7574696E67204D6F6465005591
:100A0000736572204F7074696F6E733A004375722C
:100A100072656E74206261747465727920766F6C91
:100A2000746167653A20200030003A0030003A00D7
:100A30002D002D0043757272656E742064617465BB
:100A400020262074696D653A200055706C6F6164D2
:100A500020696E74657276616C2028687273293A19
:100A600020004D6561737572656D656E7420496E09
:100A700074657276616C3A20004461746120666925
:100A80006C653A20004E6574776F726B6564204E1A
:100A90006F6465204944733A200023206F66206EFE
:100AA0006F6465733A2000446576696365206B6501
:100AB000793A2000476174657761792052616469F1
:100AC0006F2049443A20004C61742F6C6F6E673A76
:100AD000200050726F6A6563742049443A20004CCC
:100AE0006F526120526164696F20467265712028DF
:100AF0004D487A293A200053657269616C204E7521
:100B00006D6265723A200056657273696F6E2000DF
:100B1000536F696C20576174657220446174612061
:100B20004E6574776F726B202D2043656C6C756C0D
:100B300061722047617465776179007C3C3E5E2B71
:100B40003D3F2F5B5D3B2C2A225C00727400927447
:100B50000048940078C40000002100240027002AE7
:100B60000000002200250028002B000000200023A8
:100B7000002600290002020202020202020404040A
:100B80000404040404030303030303030301010136
:100B9000010101010101020408102040800102044A
:100BA0000810204080010204081020408001020447
:100BB0000810204080000000010200090A00000027
:100BC000000403080700000000000000000000000F
:100BD00000000000002B4353513A200041542B43A6
:100BE0005351002B435245473A200041542B435266
:100BF00045473F0041542B43504D533D22534D2216
:100C00002C22534D222C22534D220053494D383073
:100C1000304800093C2D2D2D2000092D2D2D3E2082
:100C20000053494D434F4D5F53494D3533323045A5
:100C30000053494D434F4D5F53494D353332304199
:100C40000053494D383030205231330053494D382C
:100C50003038205231330053494D3830382052312A
:100C60003400093C2D2D2D2000092D2D2D3E200076
:100C700041542B435648553D3000415445300041C6
:100C80005445300041540041540041540054696DB2
:100C9000656F75743A204E6F20726573706F6E7356
:100CA0006520746F2041542E2E2E206C61737420A9
:100CB000646974636820617474656D70742E00419A
:100CC0005400415400415400417474656D7074695E
:100CD0006E6720746F206F70656E20636F6D6D207E
:100CE000776974682041547300093C2D2D2D200034
:100CF000092D2D2D3E20004F4B00464F4E41004602
:100D00004F4E416E65740000F059975F11241FBE6D
:100D1000CFEFD0E4DEBFCDBF1DE0A0E0B1E0EEE359
:100D2000F2ED00E00BBF02C007900D92AC3FB1079F
:100D3000D9F723E2ACEFBDE001C01D92A630B207A7
:100D4000E1F716E0C5E8D6E004C02197FE010E9455
:100D5000FB64C438D107C9F70E94C65B0C941269C2
:100D60000C94000008950895982F2091821981E035
:100D7000213208F043C0809181198111FCCF80910C
:100D80007A1932E030938119909380199FEF9093F4
:100D900058191092571920935619AAE5B9E1E6E3BC
:100DA000F9E190E0291331C010923519909135196D
:100DB000880F892B8093351980917F19813049F5EF
:100DC00010927F19809135198093BB008091BC00EF
:100DD00083FDF8CF85EC8093BC008091811982302F
:100DE000E1F3809158198F3FB1F08091581980320A
:100DF000A1F080915819803391F084E0109283190A
:100E0000109282191092591908953D9131939F5F64
:100E1000C9CF85EEE0CF80E0F1CF82E0EFCF83E075
:100E2000EDCF909181199111FCCF91E090938119B0
:100E3000909380192FEF2093581910925719260F6D
:100E4000209356199093351990913519880F892B55
:100E50008093351980917F198130F9F410927F19B0
:100E6000809135198093BB008091BC0083FDF8CF41
:100E700085EC8093BC00809181198130E1F38091F1
:100E80005719861710F460915719A6E3B9E1E5E107
:100E9000F9E180E0861303C0089585EEEACF9D91C5
:100EA00091938F5FF7CF0F931F93CF93DF93EC0155
:100EB0009A01AB01E889F98982E08083EC85FD85A0
:100EC00010820E851F8560E874E88EE190E00E9434
:100ED0007763215031094109510956954795379556
:100EE0002795F8012083188EEC89FD8986E08083A0
:100EF000EA89FB89808180618083EA89FB8980811E
:100F000088608083EA89FB89808180688083EA89A0
:100F1000FB8980818F7D8083DF91CF911F910F911D
:100F200008958091911F9091921FDC01ED91FC91A9
:100F30000484F585E02D0994FF920F931F93CF93BE
:100F4000DF938C01F62EC1E9DFE188819981DC0114
:100F5000ED91FC910488F589E02D642F0995888135
:100F60009981DC01ED91FC910680F781E02D4F2DF8
:100F7000B801DF91CF911F910F91FF900994E82F55
:100F8000F0E0EE0FFF1FE45DFE4F71836083813060
:100F900049F0823071F0809169008360809369002C
:100FA000E89A0895809169008C6080936900E99ABD
:100FB000089580916900806380936900EA9A08959A
:100FC000EF92FF920F931F93CF93DF938C017B01DE
:100FD000D0E0C0E0F701EC0FFD1F6491662361F0E3
:100FE000D801ED91FC910190F081E02DC8010995A7
:100FF000892B11F02196EECFCE01DF91CF911F9179
:101000000F91FF90EF900895AF92BF92CF92DF9231
:10101000EF92FF920F931F93CF93DF936C017B01AD
:101020008B01040F151FEB015E01AE18BF08C0173E
:10103000D10759F06991D601ED91FC910190F081B1
:10104000E02DC6010995892B79F7C501DF91CF9174
:101050001F910F91FF90EF90DF90CF90BF90AF90D6
:101060000895FC01538D448D252F30E0842F90E0AE
:10107000821B930B541718F081509F4F08950197CE
:101080000895FC01918D828D981759F0A28DAE0FB5
:10109000BF2FB11D5D968C91928D9F5F928F90E0D6
:1010A00008958FEF9FEF0895FC01918D828D981721
:1010B00031F0828DE80FF11D858D90E008958FEF5E
:1010C0009FEF0895FC01918D828D981B892F90E0F0
:1010D000089586E899E10E94620821E0892B09F4CD
:1010E00020E0822F089583EA9BE10E94620821E0BC
:1010F000892B09F420E0822F0895CF93DF93EC0130
:10110000E881F9810680F781E02D0995EA89FB895C
:1011100080818F7E8083EA89FB898081877F8083BD
:10112000EA89FB8980818F778083EA89FB898081C6
:101130008F7D80838A8D898FDF91CF910895FC0107
:10114000A48DA80FB92FB11DA35EBE4F9C91848DB5
:101150008F5F848FA689B7899C93A089B1898C9170
:10116000837080648C93938D848D981306C002885D
:10117000F389E02D80818F7D808308950F931F93E5
:10118000CF93DF93EC0181E0888F9B8D8C8D98133A
:1011900018C0E889F989808185FF13C09FB7F8944A
:1011A000EE89FF896083E889F98980818370806492
:1011B00080839FBF81E090E0DF91CF911F910F91DD
:1011C0000895062F1B8D1F5F8C8D81130CC00FB6E9
:1011D00007FCFACFE889F989808185FFF5CFCE0138
:1011E0000E949F08F1CFEB8DEC0FFD2FF11DE35E08
:1011F000FE4F00839FB7F8941B8FEA89FB8980819B
:101200008062D6CF682F83EA9BE10C94BE08CF930F
:10121000DF93EC01888D8823B9F0AA89BB89E8891E
:10122000F9898C9185FD03C0808186FD0DC00FB6C4
:1012300007FCF7CF8C9185FFF2CF808185FFEDCF42
:10124000CE010E949F08E9CFDF91CF91089580E001
:1012500090E0892B29F00E94730881110E94000000
:1012600080E090E0892B29F00E94690881110C949C
:101270000000089581508A3080F5E82FF0E0ED5BA2
:10128000F64F0C94FB6457095B094D0953096D092E
:101290006D095E09640968096E09809180008F7785
:1012A000809380000895809180008F7DF9CF84B570
:1012B0008F7784BD089584B58F7DFBCF8091B0007A
:1012C0008F778093B00008958091B0008F7DF9CF23
:1012D000809190008F778093900008958091900086
:1012E0008F7DF9CFCF93DF93282F30E0F901EB54B6
:1012F000F44F8491F901EB56F44FD491F901EB5876
:10130000F44FC491CC23A1F081110E943A09EC2F33
:10131000F0E0EE0FFF1FE559F44FA591B491EC9169
:10132000ED2381E090E009F480E0DF91CF91089512
:1013300080E090E0FACF1F93CF93DF93282F30E027
:10134000F901EB54F44F8491F901EB56F44FD49129
:10135000F901EB58F44FC491CC23A9F0162F811159
:101360000E943A09EC2FF0E0EE0FFF1FEF59F44F07
:10137000A591B4918FB7F894EC91111108C0D09554
:10138000DE23DC938FBFDF91CF911F910895DE2B79
:10139000F8CF109285191092841910928319109227
:1013A00082191092811981E08093801910927F191F
:1013B00061E081E10E949B0961E080E10E949B095C
:1013C000E9EBF0E080818E7F808380818D7F808358
:1013D00080E28093B80085E48093BC0082EB96E0C5
:1013E00090937E1980937D1983EB96E090937C19FE
:1013F00080937B190895CF93DF9390E0FC01EB5627
:10140000F44F24918B58944FFC0184918823D1F0A0
:1014100090E0880F991FFC01E95AF44FA591B4910F
:10142000FC01EF59F44FC591D49161110EC09FB7E3
:10143000F8948C91E22FE0958E238C932881E223FF
:10144000E8839FBFDF91CF9108958FB7F894EC9117
:10145000E22BEC938FBFF6CF883108F0885187706C
:10146000806480937C0080917A00806480937A000D
:1014700080917A0086FDFCCF809178009091790070
:1014800008953FB7F8948091190F90911A0FA09189
:101490001B0FB0911C0F26B5A89B05C02F3F19F05C
:1014A0000196A11DB11D3FBFBA2FA92F982F8827E4
:1014B000BC01CD01620F711D811D911D43E0660FBE
:1014C000771F881F991F4A95D1F708958F929F9291
:1014D000AF92BF92CF92DF92EF92FF924B015C01ED
:1014E0000E94410A6B017C010E94410A6C197D092E
:1014F0008E099F09683E734081059105A8F321E09C
:10150000821A9108A108B10888EEC80E83E0D81E9F
:10151000E11CF11C81149104A104B10429F7FF908E
:10152000EF90DF90CF90BF90AF909F908F900895F5
:10153000FF920F931F93CF93DF93F82E04EF11E0E8
:10154000D0E0C0E080918F1F9091901FDC01ED9161
:10155000FC910084F185E02D0995892BC9F08091DB
:101560008F1F9091901FDC01ED91FC910284F38517
:10157000E02D09958D3031F38A3021F4209711F355
:10158000FF2091F0FE01E958F14E86872196DACFCF
:101590000150110949F061E070E080E090E00E94A4
:1015A000660ACE3FD10570F2FE01E958F14E16866B
:1015B0008C2FDF91CF911F910F91FF9008952FB73E
:1015C000F8946091150F7091160F8091170F9091FC
:1015D000180F2FBF08950895885E9E4FDC018D91EE
:1015E0009C91DC01ED91FC910680F781E02D09943E
:1015F000885E9E4FDC018D919C91DC01ED91FC9108
:101600000484F585E02D0994885E9E4FDC018D9160
:101610009C91DC01ED91FC910284F385E02D09940D
:10162000885E9E4FDC018D919C91DC01ED91FC91D7
:101630000190F081E02D0994885E9E4FDC018D9130
:101640009C91DC01ED91FC910084F185E02D0994E1
:10165000CF93DF9390E080E0EC0121968897A8F487
:1016600087E79EE10E941C0B892B39F087E79EE1FA
:101670000E94040BD0E0C0E0F3CF61E070E080E0B6
:1016800090E00E94660ACE01E7CFDF91CF910895E6
:101690008BEF0895CF93DF93FC01228133812230B9
:1016A000310569F0EC01638D818D0E949B0960E03A
:1016B000888D0E949B0982E090E09B838A83DF9162
:1016C000CF910895FF920F931F93CF93DF93EC0177
:1016D000162FF42E0FB7F89460E08F890E949B09B3
:1016E0008D899E89612F6068DC01ED91FC910190EC
:1016F000F081E02D0995182F8D899E89DC01ED91EF
:10170000FC910190F081E02D6F2D099561E08F89AA
:101710000E949B090FBF812FDF91CF911F910F91E5
:10172000FF9008950F931F93CF938C01C62F44E031
:101730006DE40E94620B4BEF4C0F406869E0C801FA
:10174000CF911F910F910C94620BCF93DF93FC010B
:10175000228133812130310549F0EC0140E061E024
:101760000E94620B81E090E09B838A8381E0DF919D
:10177000CF910895CF93DF93FC01228133812230F2
:10178000310549F0EC0141E061E00E94620B82E02A
:1017900090E09B838A83DF91CF910895CF92DF926F
:1017A000EF92FF92CF93DF93EC01CB01BA0120E0DF
:1017B00034E244E759E40E94716220E034E244E7F5
:1017C00052E40E9415640E948E646B017C01A701A3
:1017D0006627772766E0CE010E94620B77276F2D80
:1017E0005E2D4D2D67E0CE010E94620B4C2D68E00E
:1017F000CE010E94620B81E0DF91CF91FF90EF90CC
:10180000DF90CF900895CF92DF92EF92FF920F93E7
:101810001F93CF93DF934C3F08F067C0142F072F1F
:10182000F62EEC01E881F9810484F585E02D099517
:10183000CE010E94BA0B40E06DE0CE010E94620B27
:101840004A8560E0CE010E94620B4B8560E0CE01CC
:101850000E94620B4C8560E0CE010E94620B4D85B8
:1018600060E0CE010E94620BEFB6F89460E08F89D1
:101870000E949B098D899E89DC01ED91FC9101906C
:10188000F081E02D60E80995CF2CD02E012F01507A
:1018900068F08D899E89F60161916F01DC01ED91FF
:1018A000FC910190F081E02D0995F1CF61E08F89E5
:1018B0000E949B09EFBE44E0410F62E2CE010E940C
:1018C000620B8A819B81039771F043E061E0CE0156
:1018D0000E94620B40E460E4CE010E94620B83E050
:1018E00090E09B838A8381E001C080E0DF91CF910B
:1018F0001F910F91FF90EF90DF90CF900895CF93BD
:10190000DF93FC012281338123303105C9F0EC01E2
:1019100082819381049771F045E061E0CF010E94DC
:10192000620B40E060E4CE010E94620B84E090E034
:101930009B838A83C65EDE4F8881DF91CF910895B5
:1019400080E0FBCF0F931F93CF93DF93EC01162F13
:101950000FB7F89460E08F890E949B098D899E895A
:10196000DC01ED91FC910190F081E02D612F099552
:101970008D899E89DC01ED91FC910190F081E02D33
:1019800060E00995182F61E08F890E949B090FBFC5
:10199000812FDF91CF911F910F910895DF92EF92E8
:1019A000FF920F931F93CF93DF93EC0162E10E94AC
:1019B000A20C2A813B8124303105A1F4982F907A22
:1019C00089F08F8598890196988B8F874FEF62E118
:1019D000CE01DF91CF911F910F91FF90EF90DF909B
:1019E0000C94620B2A813B812430310511F486FD71
:1019F0000DC02A813B812330310541F783FFE6CFBB
:101A00008B899C8901969C8B8B8B67C063E1CE018F
:101A10000E94A20C082F60E1CE010E94A20C482F68
:101A20006DE0CE010E94620BDFB6F89460E08F8912
:101A30000E949B098D899E89DC01ED91FC910190AA
:101A4000F081E02D60E009957E01BBE1EB0EF11C19
:101A5000102F115070F08D899E89DC01ED91FC9161
:101A60000190F081E02D60E00995F70181937F01FD
:101A7000F0CF61E08F890E949B09DFBE0A8F4FEF94
:101A800062E1CE010E94620B6AE1CE010E94A20CCB
:101A900089588E878A8DFE01E65EFE4F8430C8F03D
:101AA0008B8D8E838C8D8F838D8D88878E8D89878E
:101AB0008D81811107C09E818C81981719F08E81CC
:101AC0008F3F39F489899A8901969A8B898B81E0B5
:101AD00080838081882309F479CFCE010E94BA0BDC
:101AE00075CF8091120F9091130F009711F00C9405
:101AF000CE0C08958091100F9091110F009711F066
:101B00000C94CE0C089580910E0F90910F0F0097BA
:101B100011F00C94CE0C0895CF93DF93EC018D89D6
:101B20009E89DC01ED91FC910680F781E02D0995FD
:101B300061E08F890E94FB0961E08F890E949B0907
:101B400064E670E080E090E00E94660A81E0DF9148
:101B5000CF910895FF920F931F93CF93DF931F921E
:101B6000CDB7DEB7F42E01E91FE1D8018D919C912C
:101B7000DC01ED91FC91008CF18DE02D0995F801CF
:101B800080819181DC01ED91FC91028CF38DE02D3F
:101B900040E060E8099581E289834F2D61E0CE0144
:101BA00001960E949C070E9491070F90DF91CF91B0
:101BB0001F910F91FF900895CF92DF92EF92FF92C5
:101BC0000F931F93CF93DF93EC018B017A0169018F
:101BD0008091911F9091921FDC01ED91FC91028008
:101BE000F381E02D099581110BC010E0812FDF9169
:101BF000CF911F910F91FF90EF90DF90CF900895BC
:101C00008091911F9091921FDC01ED91FC910480D5
:101C1000F581E02DA701B8010995182F882329F334
:101C20008091911F9091921FDC01ED91FC9100A099
:101C3000F1A1E02D0995F82E8091911F9091921FAE
:101C4000DC01ED91FC91068CF78DE02D0995E82ED5
:101C50008091911F9091921FDC01ED91FC9102A067
:101C6000F3A1E02D0995082F8091911F9091921F6B
:101C7000DC01ED91FC9104A0F5A1E02D099587FD13
:101C8000B4CFBFEFEB1629F04F2D602FCE010E948D
:101C9000AA0DCF0DD11D8B85801709F4A6CFF601B3
:101CA000F0820B87A3CF9FB7F89480910C0F882305
:101CB00019F0815080930C0F80910C0F811105C099
:101CC0008CB58F7B8CBD109202179FBF08958CB589
:101CD0008F778CBD08958CB580688CBD0895FC010C
:101CE000738362830895FC01778366830895FC0102
:101CF000758364830895089580E00895FC018185CB
:101D00000895FC0180850895FC0187810895FC01F8
:101D1000868108954095FC0125854223642B6587C3
:101D20000895FC0164870895FC0163870895FC0110
:101D300062870895FC0164830895FC01658308951A
:101D40008F929F92AF92BF92CF92DF92EF92FF92CB
:101D5000CF93DF93EC016B010E94DF0A4B015C0122
:101D6000F12CE12C0E94DF0A681979098A099B0984
:101D70006C157D058E059F0580F48A819B810397F4
:101D800089F381E0DF91CF91FF90EF90DF90CF90CA
:101D9000BF90AF909F908F90089580E0F3CFFC01AB
:101DA0002281338123303105D1F381E008958F9270
:101DB0009F92AF92BF92CF92DF92EF92FF92CF931A
:101DC000DF93EC016B010E94DF0A4B015C01F12CF7
:101DD000E12C0E94DF0A681979098A099B096C15B0
:101DE0007D058E059F05A0F4E881F9810280F381CD
:101DF000E02DCE010995882361F3DF91CF91FF900B
:101E0000EF90DF90CF90BF90AF909F908F9008950C
:101E100080E0F3CFCF93DF93EC01E881F98102807A
:101E2000F381E02DCE0109958823B9F3DF91CF919D
:101E3000089581E008951F93CF93DF93EC01162F4F
:101E400088819981DC01ED91FC910288F389E02D74
:101E5000099588819981DC01ED91FC910688F789CB
:101E6000E02D612F09951A83DF91CF911F9108957D
:101E7000CF92DF92EF92FF920F931F93CF936B015C
:101E80007C01142F8091911F9091921FDC01ED91A4
:101E9000FC910190F081E02D0995C82F882309F16C
:101EA0006091931F81E99FE10E941B0F88E790E0FA
:101EB00090939A1F8093991F83E080939B1F612FBB
:101EC00081E99FE10E941B0F0091911F1091921FC9
:101ED000B701A601C8010E94CE0B61E1C8010E94B2
:101EE000920B8C2FCF911F910F91FF90EF90DF906D
:101EF000CF90089585ED8093BC008091BC0084FD57
:101F0000FCCF1092811908952091E90E260F3327F6
:101F1000331F21323105ECF420918119FC0190E04E
:101F200080E0243069F082E00895A091E90E2191CB
:101F3000AC014753514FA40FB52FB11D2C930196FF
:101F4000861798F38091E90E680F6093E90E80E0A0
:101F5000089581E008950895E0918519809184198C
:101F6000E81730F4F0E0EB5EF64E808190E00895E3
:101F70008FEF9FEF089590918519809184192FEF2D
:101F80003FEF981748F4E92FF0E0EB5EF64E208122
:101F900030E09F5F90938519C9010895809184195D
:101FA00090918519891B990B0895CF92DF92EF923A
:101FB000FF920F931F93CF93DF937C01CB018A0194
:101FC00020915919222389F0EB016B01C40ED51E13
:101FD000CC15DD0569F06991D701ED91FC91019077
:101FE000F081E02DC7010995F3CF642F0E94840F83
:101FF000C801DF91CF911F910F91FF90EF90DF907B
:10200000CF900895CF93DF931F92CDB7DEB769834A
:10201000209159192223F9F020918219203258F089
:1020200021E030E0FC013383228390E080E00F90D8
:10203000DF91CF91089580918319E82FF0E0E65A5F
:10204000F64E998190838F5F8093831980938219D4
:1020500081E090E0ECCF61E0CE0101960E94840F18
:10206000F7CFCF93C62F91E09093591998E69093AC
:102070007A191092831910928219682F86EF92E2D2
:102080000E9402106C2F86EF92E20E94021081E003
:10209000CF910C94B406CF93CFB7F89480910C0FE6
:1020A000811127C0E9E7FBE08491E9E9FBE0949125
:1020B000E82FF0E0EE0FFF1FE95AF44FA591B4911D
:1020C000EC91E92321F461E084E00E949B0961E046
:1020D00084E00E94FB098CB580618CBD8CB5806466
:1020E0008CBD61E087E00E94FB0961E085E00E9411
:1020F000FB0980910C0F8F5F80930C0FCFBFCF91A6
:102100000895FC01268137812115310591F1213097
:10211000310559F12230310551F12330310549F5AE
:102120002CE09CB5937F922B9CBD84819581019777
:1021300011F58CB580628CBD8281938101978430CA
:102140009105E0F484599E4FFC0190818CB58C7F01
:10215000292F2370822B8CBD8DB592FB992790F986
:102160008E7F892B8DBD0C944B1024E0DACF28E0B4
:10217000D8CF20E0D6CF8CB58F7DDDCF95E0E6CFF0
:102180009FB7F894209102178091C30E213019F463
:102190008DBB9FBF08958FBF089561E0FC018481CE
:1021A0000E949B098091C20E882339F01092C20EC2
:1021B0008091021781110C94C01008958EBD00000B
:1021C0000DB407FEFDCF8EB50895862F0C94DE105A
:1021D0008FEF0C94DE100F931F93CF93DF93EC01DE
:1021E0000E94DF0A8B010E94E8108F3F69F00E9475
:1021F000DF0A601B710B6C177D07A8F380E0DF918D
:10220000CF911F910F91089581E0F9CF209102178E
:10221000222361F02FB7F89430910217313049F43E
:102220003DB33093C30E3DB33DBB2FBF8CBD9DBDB1
:1022300008952093C30EFACFCF93DF93EC018091E2
:10224000C20E811109C081E08093C20E8091C01D31
:102250009091C11D0E94061160E08C81DF91CF91A9
:102260000C949B098F929F92AF92BF92FF920F9313
:102270001F93CF93DF93EC01F62E49015A018E8113
:10228000882389F08F8198859C012F5F3F4F388785
:102290002F838230924018F40E94E810F3CFCE01D1
:1022A0000E94CD101E82CE010E941C118CE291E092
:1022B0000E94EB108F2D80640E94DE1008E110E078
:1022C000D501C401002E04C0B695A79597958795B2
:1022D0000A94D2F70E94DE1008501109083F8FEFD0
:1022E000180771F785E9FF2021F028E087E8F2124E
:1022F0008FEF0E94DE1010E00E94E8108A8787FFAF
:1023000004C01F3F11F01F5FF7CFDF91CF911F91E6
:102310000F91FF90BF90AF909F908F900895AF92D4
:10232000BF92CF92DF92EF92FF920F931F93CF93C2
:10233000DF93EC016901C801820F931F8130924045
:1023400050F58E81882379F088819981AA81BB819B
:1023500084179507A607B70731F48F819885C816AB
:10236000D90608F042C0488359836A837B838B85F2
:10237000833039F089E0440F551F661F771F8A9517
:10238000D1F79A01AB0161E1CE010E94321188239D
:1023900089F083E08D83CE010E94CD1080E0DF9133
:1023A000CF911F910F91FF90EF90DF90CF90BF9052
:1023B000AF9008950E94DF0A5B010E94E8108A87AF
:1023C0008F3F69F40E94DF0A6A197B096D32714000
:1023D000A0F38FE08D83CE010E94CD10DCCF8E3F25
:1023E00089F418861F8281E08E838F8198858C15F1
:1023F0009D0550F40E94E8108F819885019698877A
:102400008F83F3CF8DE0E6CF6701E00EF11E0E94CF
:10241000E810F60181936F01EE15FF05C1F78F817A
:102420009885080F191F18870F838985882319F04D
:1024300001151240A0F08E81882389F08F81988544
:102440009C012F5F3F4F38872F838230924018F4D2
:102450000E94E810F3CFCE010E94CD101E8281E0D1
:102460009ECFEF92FF920F931F93CF93DF93EC01D8
:10247000790182E1411551056105710599F08B855E
:10248000833039F089E0440F551F661F771F8A9506
:10249000D1F79A01AB0168E1CE010E943211882385
:1024A00019F084E08D8330C08EEF0E94DE1087012A
:1024B0008EEFF81AF80181918F010E94DE100E153F
:1024C0001F05C1F78FEF0E94DE108FEF0E94DE1014
:1024D0000E94E8108A878F71853089F488E592E040
:1024E0000E94EB108823A9F020E030E0A9016DE004
:1024F000CE010E943211882371F084E1D3CF81E1B3
:102500008D83CE010E94CD10CE010E94CD1080E0BF
:102510000AC085E1C7CF0E94E8108111EECFCE013D
:102520000E94CD1081E0DF91CF911F910F91FF901C
:10253000EF900895CF93DF938091C40E8823A9F183
:10254000C0910317D091041740911D0150911E01B5
:1025500060911F017091200125E037E1CE010E94BA
:102560003112811104C080E0DF91CF910895409134
:10257000C50E5091C60E6091C70E7091C80E4115E0
:1025800051056105710579F025E037E1CE010E9422
:102590003112882341F31092C50E1092C60E10928C
:1025A000C70E1092C80E1092C40E81E0DDCF8F923C
:1025B0009F92AF92BF92EF92FF920F931F93CF9390
:1025C0004B015C01C42F80911D0190911E01A091CF
:1025D0001F01B091200188159905AA05BB0549F195
:1025E0000E949A1281110BC080E0CF911F910F9130
:1025F000FF90EF90BF90AF909F908F90089585E0EF
:10260000E82E87E1F82E00E012E030E020E0B5018E
:10261000A40180910317909104170E948F118823C1
:1026200019F380921D0190921E01A0921F01B09299
:1026300020014091C40E4C2B4093C40E81E0D5CFB5
:10264000CF93DF93EC016E857F858889998941E07E
:102650000E94D712882351F08A8920E2829FC0010C
:1026600011248B5F984EDF91CF91089590E080E028
:10267000FACF8F929F92AF92BF92CF92DF92EF925A
:10268000FF92CF9322EC3DE1309304172093031780
:10269000882309F46DC040E060E070E0CB010E9447
:1026A000D71281110BC080E0CF91FF90EF90DF90A7
:1026B000CF90BF90AF909F908F9008958091C31856
:1026C0008F7789F78091CF189091D018A091D11869
:1026D000B091D21884369105A105B10520F3C090C0
:1026E000CB18D090CC18E090CD18F090CE18C11433
:1026F000D104E104F104B9F240E0C701B6010E943F
:10270000D712882381F280911017909111178115AB
:10271000924049F6A0911517AA2329F26091131748
:10272000709114176115710509F4BDCF209112172E
:10273000222309F4B8CFA093E01D2093D21D90E08E
:1027400080E030E0E1E0F0E0C82FAF01082E02C0E9
:10275000440F551F0A94E2F72417350769F041E04A
:10276000480F01968930910579F74093DB1D9BCF87
:10277000C12CD12C7601C0CF8093DB1D20911B177B
:1027800030911C1750E040E02115310541F42091B3
:10279000291730912A1740912B1750912C1720930D
:1027A000D31D3093D41D4093D51D5093D61D4601A3
:1027B0005701860E971EA11CB11C8092E11D9092BC
:1027C000E21DA092E31DB092E41DE0911617F09176
:1027D0001717F093E71DE093E61DB0E00E946463D5
:1027E000DC01CB01880D991DAA1DBB1D8093E81D3E
:1027F0009093E91DA093EA1DB093EB1D25E0EE0F29
:10280000FF1F2A95E1F7E150FE4FEF2FFF27E695D6
:102810008E0F9F1FA11DB11D8093DC1D9093DD1DA8
:10282000A093DE1DB093DF1D8090181790901917AC
:10283000B12CA12C8114910441F480902517909023
:102840002617A0902717B0902817C81AD90AEA0AA5
:10285000FB0AC80CD91CEA1CFB1C04C0F694E794C4
:10286000D794C794CA95D2F7C092D71DD092D81DDD
:10287000E092D91DF092DA1D85EFC8168FE0D806D8
:10288000E104F10428F48CE08093E51D81E00CCF95
:1028900080E125EFC2162FEFD206E104F104A0F388
:1028A0008091311790913217A0913317B09134175E
:1028B0008093E81D9093E91DA093EA1DB093EB1D52
:1028C00080E2E2CF4F925F926F927F928F929F92BF
:1028D000AF92BF92CF92DF92EF92FF920F931F932E
:1028E000CF93DF93EC01423051056105710590F4FF
:1028F00080E0DF91CF911F910F91FF90EF90DF90DB
:10290000CF90BF90AF909F908F907F906F905F908F
:102910004F90089589859A85AB85BC850196A11D48
:10292000B11D84179507A607B70710F3CB88DC887D
:10293000ED88FE888F89803109F042C0BB27A72F20
:10294000962F852F480159012A013B01C80ED91E37
:10295000EA1EFB1E80911D0190911E01A0911F0196
:10296000B0912001C816D906EA06FB0699F58F89B1
:102970008031C1F5B301A201552766277727440F9F
:10298000551F4B5F584EFA01918280828091C40E90
:1029900081608093C40E8A89823080F08D819E810F
:1029A000AF81B8858C0D9D1DAE1DBF1D8093C50EDA
:1029B0009093C60EA093C70EB093C80E81E099CF36
:1029C000DB01CA01E7E0B695A79597958795EA954B
:1029D000D1F7B8CF40E0C701B6010E94D7128111EC
:1029E000C6CF86CFB301A2014F7755276627772739
:1029F000440F551F440F551F4B5F584EFA018082FC
:102A00009182A282B382C2CF8F929F92AF92BF92E5
:102A1000CF92DF92EF92FF920F931F93CF93DF93AA
:102A2000FC0181859285A385B4850196A11DB11D08
:102A300084179507A607B70770F480E0DF91CF9160
:102A40001F910F91FF90EF90DF90CF90BF90AF90CC
:102A50009F908F90089583889488A588B6888789E9
:102A6000803189F5BB27A72F962F852FE9016A01B1
:102A70007B018F01BC01CD01680D791D8A1D9B1D55
:102A800080901D0190901E01A0901F01B090200128
:102A900086169706A806B90601F5F80187898031E0
:102AA00011F5DD24EE24FF24F601EE0FFF1FEB5F8E
:102AB000F84E80819181B0E0A0E088839983AA8359
:102AC000BB8381E0BBCFDB01CA01C7E0B695A79508
:102AD00097958795CA95D1F7C9CF40E00E94D71244
:102AE0008111DBCFAACFE894C7F8DD24EE24FF24C0
:102AF000F601EE0FFF1FEE0FFF1FEB5FF84E808118
:102B00009181A281B381BF70D8CF4F925F926F92B3
:102B10007F92AF92BF92CF92DF92EF92FF920F938C
:102B20001F93CF93DF9300D000D0CDB7DEB78C01D9
:102B300049835A836B837C835901C12CD12C760144
:102B4000412C82E0582E612C712C49815A816B8175
:102B50007C819E012F5F3F4FC8010E94041588238E
:102B600039F1F8018585A301920104C0220F331FBA
:102B7000441F551F8A95D2F7DA01C901C80ED91E24
:102B8000EA1EFB1E49815A816B817C8187898031D5
:102B900011F188EF9FEFAFEFBFE0481759076A07C1
:102BA0007B0798F2F501C082D182E282F38281E054
:102BB0000F900F900F900F90DF91CF911F910F9179
:102BC000FF90EF90DF90CF90BF90AF907F906F908D
:102BD0005F904F90089588EF9FEFA0E0B0E0DDCFC9
:102BE000CF93DF93FC012581222321F080E0DF9148
:102BF000CF910895EC018091E51D803159F582E077
:102C00008583178A108E118E128E8091E61D909109
:102C1000E71DB0E0A0E025E0880F991FAA1FBB1FA9
:102C20002A95D1F7838B948BA58BB68B8EEC9DE187
:102C30009C8F8B8F81E08C831E821F821886198661
:102C40001A861B861C861D861E861F86188A198A70
:102C50001A8ACDCF803251F683E085834091E81DFA
:102C60005091E91D6091EA1D7091EB1D478B508FCB
:102C7000618F728F9F012D5E3F4F8EEC9DE10E9410
:102C800085158111D3CFB2CF8F929F92AF92BF9211
:102C9000CF92DF92EF92FF920F931F93CF93DF9328
:102CA000EC018D8181110EC080E0DF91CF911F91E9
:102CB0000F91FF90EF90DF90CF90BF90AF909F90DB
:102CC0008F9008950B891C892D893E89041715075B
:102CD0002607370748F34A015B01823031F48A86C0
:102CE0009B86AC86BD8681E0E0CF81149104A1046F
:102CF000B10449F41E821F82188619861A861B8623
:102D00001C861D86F0CF0A851B852C853D85EB8DA5
:102D1000FC8D858590E00996B901A80141505109C3
:102D200061097109082E04C07695679557954795F6
:102D30000A94D2F775016401E1E0CE1AD108E108E6
:102D4000F10804C0F694E794D794C7948A95D2F713
:102D5000C416D506E606F70620F0012B022B032B3E
:102D600011F58F89988DA98DBA8D8E839F83A88741
:102D7000B9878E010A5F1F4FC114D104E104F10429
:102D800009F4ADCF4E815F816885798598018B8D7F
:102D90009C8D0E94041591E0C91AD108E108F10840
:102DA0008111EACF81CFC41AD50AE60AF70AE1CF2A
:102DB0003F924F925F926F927F928F929F92AF92CB
:102DC000BF92CF92DF92EF92FF920F931F93CF9318
:102DD000DF93CDB7DEB72C970FB6F894DEBF0FBEEA
:102DE000CDBF5C01DC015B968D909C905C97169644
:102DF0004D905D906D907C90199741145104610441
:102E0000710409F468C0BFEF4B1A5B0A6B0A7B0AB6
:102E1000312CF40181859285A385B4859C01AD0197
:102E20002F5F3F4F4F4F5F4F29873A874B875C8714
:102E3000730162011D821E821F821886F401818542
:102E40009285A385B4852D813E814F8158852817B1
:102E500039074A075B0708F056C089859A85AB8514
:102E6000BC858C159D05AE05BF0550F482E0C82ECB
:102E7000D12CE12CF12C92E0492E512C612C712C9B
:102E80009E012F5F3F4FB701A601C4010E940415A8
:102E90008823C9F189819A81AB81BC81892B8A2BD6
:102EA0008B2B09F1260137019FEF491A590A690A4C
:102EB000790A2D813E814F8158852F5F3F4F4F4FBB
:102EC0005F4F2D833E834F8358873FEFC31AD30A4A
:102ED000E30AF30AB3CFF40140805180628073802B
:102EE0003324339496CFC414D504E604F70409F7C9
:102EF0000FEF1FEF2FEF3FE0B701A601C4010E94C3
:102F00006214811119C080E02C960FB6F894DEBFD0
:102F10000FBECDBFDF91CF911F910F91FF90EF902A
:102F2000DF90CF90BF90AF909F908F907F906F90E9
:102F30005F904F903F900895F501468157816085DD
:102F40007185411551056105710539F097018601BB
:102F5000C4010E9462148823B1F2D5011696CD9265
:102F6000DD92ED92FC921997332051F0D701C60102
:102F70000196A11DB11DF40180839183A283B383C7
:102F8000F5018789908DA18DB28D892B8A2B8B2B92
:102F900039F4C78AD08EE18EF28E84818068848372
:102FA00081E0B2CF2F923F924F925F926F927F92C9
:102FB0008F929F92AF92BF92CF92DF92EF92FF9249
:102FC0000F931F93CF93DF93EC015B012A018D8157
:102FD000811115C08FEF9FEFDF91CF911F910F915E
:102FE000FF90EF90DF90CF90BF90AF909F908F9029
:102FF0007F906F905F904F903F902F9008958C81BD
:1030000080FFE8CF0B891C892D893E894A855B8525
:103010006C857D85C201B0E0A0E068017901C41A29
:10302000D50AE60AF70AC816D906EA06FB0618F416
:103030002801441A550A42011E0126E0220E311CC5
:103040008114910409F4B3C04A855B856C857D8544
:103050006A0181E0D8228B8D9C8D8A019B01E9E079
:103060003695279517950795EA95D1F7ED81E230CA
:10307000E1F5FC01628D738D848D958D600F711F5C
:10308000821F931F612C22E0722E6C187D0886141B
:10309000970408F434012C8126FD04C06114F2E089
:1030A0007F0671F400911D0110911E0120911F01F6
:1030B00030912001061717072807390709F053C078
:1030C00040E00E94D712882309F484CFC6018B5FA9
:1030D000984ED5019C01260D371DFC012E173F0788
:1030E00009F460C041914D93F9CFFC0174807A944A
:1030F0007022C114D10471F471100CC0452B462B01
:10310000472B39F58F89988DA98DBA8D8E839F8332
:10311000A887B987EB8DFC8D6E817F818885998525
:103120006250710981099109258504C0660F771FD6
:10313000881F991F2A95D2F706851785208931891E
:10314000600F711F821F931F670D711D811D911DDF
:1031500099CF4E815F816885798591010E94041520
:103160008111D8CF37CF750183019601AB01BC0126
:1031700080910317909104170E948F11882309F4FE
:1031800029CFA60CB71C8A859B85AC85BD85860D8D
:10319000971DA11DB11D8A879B87AC87BD878618A7
:1031A00097084ECF281B390BA20EB31EECCFC201DD
:1031B00013CFCF93DF93EC018D81882329F18C818C
:1031C00087FF1EC0CE010E942013FC01892BE1F075
:1031D0008D81823040F48B899C89AD89BE89848F32
:1031E000958FA68FB78F8F89988D938F828F8F89B8
:1031F000988DA98DBA8DB58BA48B8C818F778C839C
:10320000DF91CF910C949A1280E0DF91CF910895D5
:10321000CF93DF93EC010E94D918882311F01D820F
:1032200081E0DF91CF910895CF92DF92EF92FF92EC
:103230001F93CF93DF938091F11D882321F08CEEB3
:103240009DE10E9408191092CD1D1092CB1D109285
:10325000C81D1092C71D83E08093C61D0E94DF0A1F
:10326000EB0161E08091C61D0E94FB0961E0809145
:10327000C61D0E949B090E944B1082E58093C01DD1
:1032800081E08093C11D8091C01D9091C11D0E945D
:1032900006111AE08FEF0E94DE101150D9F78091CD
:1032A000021781110E94C01082EC9DE10E941C1146
:1032B00020E030E0A90160E082EC9DE10E94321143
:1032C000182F8093CC1D813081F00E94DF0A6C1B87
:1032D0007D0B613D774060F381E08093C71D82ECF8
:1032E0009DE10E94CD1090E078C02AEA31E040E0F4
:1032F00050E068E082EC9DE10E94321182FF2AC01A
:103300001093CD1D8091CD1DC12CD12C7601823022
:1033100029F4C12CD12CE12C80E4F82E20E030E0FF
:10332000A90167E382EC9DE10E943211A701960199
:1033300069E282EC9DE10E9432118093CC1D8823CA
:10334000C1F00E94DF0A6C1B7D0B613D774030F3BA
:1033500088E0C3CF14E00E94E8108093CC1D115088
:10336000D1F78A3A11F082E0B8CF82E08093CD1D88
:10337000C9CF8091CD1D8230D1F420E030E0A90189
:103380006AE382EC9DE10E943211882311F086E00D
:10339000A4CF0E94E810807C803C19F483E08093E5
:1033A000CD1D0E94E8100E94E8100E94E81082ECF7
:1033B0009DE10E94CD1080E58093C01D81E0809347
:1033C000C11D0E943913882389F08CEE9DE10E9473
:1033D000F01591E0882309F486CF892FDF91CF91F2
:1033E0001F91FF90EF90DF90CF90089580E00E94B2
:1033F0003913882309F477CFE8CF2F923F924F9269
:103400005F926F927F928F929F92AF92BF92CF9274
:10341000DF92EF92FF920F931F93CF93DF9300D031
:1034200000D0CDB7DEB78C015B011A01DC01159627
:103430008C911597813009F0C8C014968C9181FF4A
:10344000C4C082FDAEC06101D8011A964D915D9154
:103450006D917C911D97C114D10409F429C15B962B
:103460008D919C915C97FC0174802FEF270D2A01B0
:103470003B0139E076946794579447943A95D1F795
:10348000722E74207A01F1E0FF22711020C0E11445
:10349000F104E9F416964D915D916D917C91199727
:1034A000411551056105710509F098C057968D9138
:1034B0009D910D90BC91A02D0097A105B10509F03B
:1034C000AFC0C8010E94D816882309F47EC080E0EE
:1034D00092E08E199F0946018C159D0508F44C0158
:1034E000D8015B964D915C915C9716968D919D915C
:1034F0000D90BC91A02D0297A109B109FA01258573
:1035000004C0880F991FAA1FBB1F2A95D2F74685B2
:10351000578560897189840F951FA61FB71F9C016D
:10352000AD01270D311D411D511D29013A018114A5
:1035300032E0930609F07AC080911D0190911E013E
:10354000A0911F01B091200184159505A605B7052E
:1035500059F48FEF9FEFDC0180931D0190931E01C2
:10356000A0931F01B09320019501B301A2018091A6
:103570000317909104170E943112882331F19EEFB6
:10358000B91AC818D908F80182859385A485B5852C
:10359000880D991DA11DB11D82879387A487B587CA
:1035A00053CFF8014389548965897689828593854B
:1035B000A485B585481759076A077B0709F443CFE7
:1035C000C8010E94441681113ECF81E090E0D801ED
:1035D00013969C938E93129780E007C09E012F5FF5
:1035E0003F4F0E940415811102C090E077C089818D
:1035F0009A81AB81BC81F801238D348DF901278933
:1036000048EF5FEF60E070E0203121F048EF5FEFBE
:103610006FEF7FE084179507A607B70708F051CF33
:10362000F80186839783A087B18751CFE114F10415
:1036300091F5D8011A964D915D916D917C911D97F0
:1036400053968D919D910D90BC91A02D48175907CF
:103650006A077B0700F10E949A12882309F4B5CF0C
:1036600040921D0150921E0160921F017092200134
:103670008091C40E81608093C40E97012B5F384EF9
:10368000D501C901880D991DF9018E179F0759F0C1
:103690004D914193FACF41E0C301B2010E94D7128C
:1036A0008111EBCF92CF821B930BA80EB91E69CF6D
:1036B000F80183899489A589B68984179507A60797
:1036C000B70738F48481438B548B658B768B806885
:1036D0008483F801848183FD18C0C1010F900F908D
:1036E0000F900F90DF91CF911F910F91FF90EF906E
:1036F000DF90CF90BF90AF909F908F907F906F9012
:103700005F904F903F902F900895C8010E94D91864
:10371000882309F45ACFE1CFCF93DF931F92CDB71F
:10372000DEB7698341E050E0BE016F5F7F4F0E94CA
:10373000FD190F90DF91CF910895FC01DB011296E6
:103740008D919C9113979383828382EC91E0918376
:10375000808314968C911497848315968C91159779
:10376000858316964D915D916D917C911997468355
:103770005783608771871A964D915D916D917C9109
:103780001D9742875387648775871E964D915D917B
:103790006D917C91519746875787608B718B5296BC
:1037A0008C915297828B53964D915D916D917C9146
:1037B0005697438B548B658B768B57964D915D91C5
:1037C0006D917C915A97478B508F618F728F5B966A
:1037D0008D919C91948F838F0895DC015996ED9182
:1037E000FC91309721F081E09581911101C080E03A
:1037F0000895FC01818D928D009711F00C94D918D9
:103800000895DC015996ED91FC913097B9F08389C8
:103810009489A589B6894285538564857585841BFD
:10382000950BA60BB70B811520E89207A105B105F2
:1038300038F08FEF9FE7A0E0B0E0089590E080E0DF
:103840000895CF93DF93EC01E98DFA8D309749F419
:1038500081E090E09B838A8390E080E0DF91CF91CC
:10386000089513821282898D9A8D0E94FD19E98D27
:10387000FA8D22813381232B59F7F0CFCF93DF9339
:103880001F92CDB7DEB76983DC01ED91FC91028018
:10389000F381E02D41E050E0BE016F5F7F4F09955D
:1038A0000F90DF91CF910895CF93DF931F92CDB703
:1038B000DEB741E050E0BE016F5F7F4F0E94D2173C
:1038C000019731F4898190E00F90DF91CF910895B5
:1038D0008FEF9FEFF9CF1F93CF93DF93FC012581EB
:1038E000223030F490E080E0DF91CF911F91089575
:1038F000EC01428553856485758585E076956795ED
:10390000579547958A95D1F7142F1F70CF010E94C4
:10391000541C97FDE7CF8A859B85AC85BD854F9666
:10392000A11DB11D8A879B87AC87BD87F0E21F9FD1
:10393000C00111248B5F984ED7CFFC01818D928DF1
:10394000009711F00C94541C8FEF9FEF08950F9384
:103950001F93CF93DF93EC01898D9A8D10E000E0E7
:10396000009799F00E94541C8C010F3F100769F0DA
:10397000898D9A8DFC0142855385648575854150FA
:103980005109610971090E944416C801DF91CF9164
:103990001F910F910895CF93DF93EC01FB0182817A
:1039A00093819B838A8384819581A681B7818C834F
:1039B0009D83AE83BF8380859185A285B3858887EB
:1039C0009987AA87BB878EEC91E0998388838DE0E5
:1039D0003C96DE011C9601900D928A95E1F7FB0161
:1039E000818D928D9A8F898FDF91CF910895CF929B
:1039F000DF92EF92FF92CF93DF9360E08DE10E9420
:103A0000FB098DE10E942C0AB0E0A0E0BC01CD01D1
:103A1000660F771F881F991F0E94106223E333E30C
:103A200043E550E40E94716220E030E048EC52E44B
:103A30000E94716220E030E84FEF53E40E94A963D6
:103A400020E030EC4FE754E40E9415640E948E643D
:103A5000CB0164E670E00E94D364EB01BC0190E00E
:103A600080E00E94106220E030E048EC52E40E94C6
:103A700015646B017C01BE0190E080E00E94106241
:103A80009B01AC01C701B6010E94A963DF91CF91F0
:103A9000FF90EF90DF90CF90089560E080E00E946B
:103AA0009B0968EB7BE080E090E00E94660A61E0A1
:103AB00080E00C949B09CF93DF9380B7806880BF30
:103AC00061E08EE00E949B0962E370E080E090E09C
:103AD0000E94660A88E10E942C0AEC0160E08EE0F8
:103AE0000E949B09BE01DD0F880B990B0E94126298
:103AF00023EA36E043E55BE30E9471622EEB3FE987
:103B00004AEA5FE30E947162DF91CF910895CF93FB
:103B1000DF93FB0122813381DC0113963C932E93CA
:103B20001297448155816681778114964D935D93F8
:103B30006D937C93179740855185628573851896A0
:103B40004D935D936D937C931B971C96EF012C9680
:103B50009C01275E3F4F49914D93A217B307D9F7B8
:103B6000218D328DFC01328F218FDF91CF9108950D
:103B7000CF93DF9383EA9BE10E947D0885EA91E27F
:103B80000E94A50B80B78F7780BFCAE7D0E08881FD
:103B90008F778883F89485B7806885BF85B78068FC
:103BA00085BF789461E081E00E949B098CB58F7B92
:103BB0008CBD61E085E00E94FB0960E085E00E9429
:103BC0009B0983B7817F846083BF83B7816083BF94
:103BD0007894EBE6F0E0808184608083E8E6F0E0B2
:103BE00080818160808383B7816083BF889583B73C
:103BF0008E7F83BF88818068888360E081E00E9437
:103C00009B098CB580648CBD40E051EE60E070E0B3
:103C100083EA9BE10E94530768EE73E080E090E046
:103C2000DF91CF910C94660A90E080E00895282FF0
:103C300030E094E0359527959A95E1F7922F990F0A
:103C4000990F291B220F820F089581E08093591943
:103C500088E680937A19109283191092821960E095
:103C600086EF92E20E94021081E00E94B406811168
:103C700042C067E088E60E94110710928519809380
:103C8000841986EF92E20E94BB0F8F770E94171E65
:103C900080930E1986EF92E20E94BB0F0E94171EBE
:103CA00080930F1986EF92E20E94BB0F8F7B0E94D8
:103CB000171E8093101986EF92E20E94BB0F80932B
:103CC000111986EF92E20E94BB0F0E94171E80938B
:103CD000121986EF92E20E94BB0F8F770E94171E87
:103CE0008093131986EF92E20E94BB0F0E94171E69
:103CF000825E8093141980910E198093670E8091D3
:103D00000F198093FC16809110198093FD168091F5
:103D1000121980936A0E8091131980936B0E809113
:103D2000141990E08E54984F9093690E8093680E0A
:103D300062E370E080E090E00C94660ACF9391E03B
:103D40009093591998E690937A19109283191092CA
:103D50008219682F86EF92E20E94021081E00E9491
:103D6000B40681110DC061E088E60E94110710922F
:103D700085198093841986EF92E20E94BB0FC82FA9
:103D80008C2FCF9108951F93CF93DF9381E0809381
:103D9000591988E680937A19109283191092821922
:103DA00060E086EF92E20E940210CEE0D9E1288125
:103DB0001AE0822F612F0E94C764682F660F680F78
:103DC000660F620F86EF92E20E9402102981822F15
:103DD000612F0E94C764682F660F680F660F620F1D
:103DE00086EF92E20E9402102A81822F612F0E94A8
:103DF000C764682F660F680F660F620F86EF92E246
:103E00000E9402106B8186EF92E20E9402102C81C8
:103E1000822F612F0E94C764682F660F680F660F9C
:103E2000620F86EF92E20E9402102D81822F612F95
:103E30000E94C764682F660F680F660F620F86EFD7
:103E400092E20E9402102E812E51822F612F0E9439
:103E5000C764682F660F680F660F620F86EF92E2E5
:103E60000E94021081E00E94B406C82F8FE00E94D9
:103E70009E1E682F6F778FE00E9431108C2FDF918C
:103E8000CF911F910895CF93DF93C82FD62F8EE047
:103E90000E949E1E4C2F4150550B61E070E001C006
:103EA000660F4A95EAF7DD2331F0682B8EE0DF914B
:103EB000CF910C94311060956823F8CFCF93DF93A6
:103EC000C82F8FE00E949E1EC150DD0B21E030E024
:103ED00001C0220FCA95EAF7982F922351F020953E
:103EE000622F68238FE00E94311081E0DF91CF9133
:103EF000089580E0FBCFCF9382E10E949E1EC82FE1
:103F000081E10E949E1E6C2F782F77FF02C0615CBA
:103F10007F4F86E0759567958A95E1F7072E000C2F
:103F2000880B990B0E94126220E030E040E85EE3CB
:103F30000E947162CF9108958F929F92AF92BF922B
:103F4000CF92DF92EF92FF920F931F93CF93DF9365
:103F500000D000D0CDB7DEB7FC018581813091F073
:103F600080E00F900F900F900F90DF91CF911F91F5
:103F70000F91FF90EF90DF90CF90BF90AF909F9008
:103F80008F900895848181FFEBCF83899489A589DF
:103F9000B689892B8A2B8B2B09F45EC07F0140E008
:103FA00050E0BA01CF010E9444168823C9F2F701FC
:103FB000C38CD48C8788908CA18CB28C82E090E0EA
:103FC000A0E0B0E0F60180839183A283B3839E01D9
:103FD0002F5F3F4FB501A401C6010E94041588233D
:103FE00009F4BECF00E010E09801B501A401C601BC
:103FF0000E946214882309F4B3CF89809A80AB8031
:10400000BC80F6018789803111F188EF9FEFAFEF17
:10401000BFE088169906AA06BB06C8F2F701178A00
:10402000108E118E128E138A148A158A168A848134
:1040300080688483C7010E94D918882309F490CF2F
:1040400040E050E0BA01C7010E9444168ACF88EFD1
:104050009FEFA0E0B0E0DDCF81E083CFCF93DF938F
:10406000EC010E949C1F882369F0CE010E9420135E
:10407000009741F025EEFC0120831D82DF91CF9156
:104080000C949A1280E0DF91CF910895CF92DF9245
:10409000EF92FF921F93CF93DF93EC0180E2689F32
:1040A000F0011124EB5FF84E9385917161F0842F3C
:1040B000827449F080E0DF91CF911F91FF90EF90E3
:1040C000DF90CF900895142F6A8B80911D019091FD
:1040D0001E01A0911F01B09120018E879F87A88BA0
:1040E000B98BC488D588F12CE12C7601DD24CC2451
:1040F000CF8AD88EE98EFA8E828D938DB0E0A0E0C3
:10410000AC01BD014C295D296E297F294F8B588F49
:10411000698F7A8F83858871B1F4848D958DA68D92
:10412000B78D8B8B9C8BAD8BBE8B81E08D831F708D
:104130001C831E821F82188619861A861B861C867F
:104140001D8681E0B8CF803109F0B4CF9E012D5E8D
:104150003F4F8B8D9C8D0E948515882309F4AACF33
:1041600084E0E4CF2F923F924F925F926F927F92C2
:104170008F929F92AF92BF92CF92DF92EF92FF9277
:104180000F931F93CF93DF9300D000D000D0CDB713
:10419000DEB78C016B8349838091981F222423947E
:1041A000280E2092981F312CC12CD12C7601D3944B
:1041B00077247394730C80919B1F831508F4EFC0D0
:1041C0008091911F9091921FDC01ED91FC91008CE8
:1041D000F18DE02D622D09958091911F9091921F94
:1041E000DC01ED91FC91028CF38DE02D40E860E064
:1041F000099549816B81C8010E949C070E94910723
:10420000B981BF3FD1F481E026960FB6F894DEBFA6
:104210000FBECDBFDF91CF911F910F91FF90EF9017
:10422000DF90CF90BF90AF909F908F907F906F90D6
:104230005F904F903F902F90089521E0271598F4BC
:104240008091941F9091951FA091961FB091971FF8
:104250000196A11DB11D8093941F9093951FA0936B
:10426000961FB093971F0E94DF0A4B015C0180915B
:10427000991F90919A1F9D838C830E942361A701AF
:1042800096010E9445639B01AC01AC81BD810E94F7
:104290006463A70196010E944563AC81BD812A0F2A
:1042A0003B1F372C2901712C612C0E94DF0A6819F1
:1042B00079098A099B09641575058605970508F033
:1042C00077CF8091911F9091921FDC01ED91FC912D
:1042D0000280F381E02D0995882339F38091911FA5
:1042E0009091921FDC01ED91FC910480F581E02D0D
:1042F00050E040E070E060E009958823B1F28091E1
:10430000911F9091921FDC01ED91FC9100A0F1A111
:10431000E02D09958E838091911F9091921FDC0171
:10432000ED91FC91068CF78DE02D09958A838091A3
:10433000911F9091921FDC01ED91FC9102A0F3A1DD
:10434000E02D09958C838091911F9091921FDC0143
:10435000ED91FC9104A0F5A1E02D0995B9812E8184
:10436000B2130BC09091931FAA819A1306C087FFC6
:1043700004C0BC812B1609F446CF87FD96CF2E8151
:10438000E22FF0E0EF56F04E83859C8189138DCFAC
:10439000422F692F81E99FE10E94AA0D86CF80E01C
:1043A00033CF0F931F93CF93DF934115510541F006
:1043B000FC01048115810115110539F4FB011082FE
:1043C000DF91CF911F910F910895415051094017EE
:1043D000510708F48A01EB01FC0160817181A80199
:1043E000CE010E941266C00FD11F1882E9CFFB01D7
:1043F00001900020E9F73197AF01461B570BDC0114
:10440000ED91FC910280F381E02D09948F929F92AF
:10441000AF92BF92EF92FF920F931F93CF93DF93D0
:10442000CDB7DEB7A1970FB6F894DEBF0FBECDBFF4
:104430007C01FA01CB0119A2223008F42AE08E0196
:104440000F5D1F4F822E912CB12CA12CBF01A50115
:1044500094010E947763F901CA016A300CF5605D2E
:10446000D8016E938D01232B242B252B79F790E017
:1044700080E0109721F0BD01C7010E94F721A196AD
:104480000FB6F894DEBF0FBECDBFDF91CF911F9165
:104490000F91FF90EF90BF90AF909F908F900895F5
:1044A000695CDECF462F50E070E060E02AE00C94BB
:1044B0000622CF92DF92EF92FF92CF93DF93AB0170
:1044C000BC0177FF1BC06A017C018DE20E940209DA
:1044D000EC0144275527BA014C195D096E097F0983
:1044E0002AE083EA9BE10E9406228C0F9D1FDF9148
:1044F000CF91FF90EF90DF90CF9008952AE083EA6C
:104500009BE1DF91CF91FF90EF90DF90CF900C94E3
:1045100006226DE478E00C94F7210F931F93CF935C
:10452000DF93EC010E9452228C01CE010E9489226D
:10453000800F911FDF91CF911F910F910895CF921E
:10454000DF92EF92FF92CF930E94DF0A6B017C0112
:1045500028E9C20E2AE3D21EE11CF11CC092A70E6C
:10456000D092A80EE092A90EF092AA0E1092A60E7A
:104570000E94DF0A6C157D058E059F0520F583EAF4
:104580009BE10E9462081816190694F764E670E031
:1045900080E090E00E94660A83EA9BE10E94620844
:1045A000D82EF12CCAE0E090A60EFD1460F483EA48
:1045B0009BE10E944108EC9E800D11248053809362
:1045C000A60EF394F0CF6091A60E83EA9BE1CF9103
:1045D000FF90EF90DF90CF900C948D22CF93DF93DC
:1045E000AB01BC012AE083EA9BE10E940622EC01B8
:1045F00083EA9BE10E9489228C0F9D1FDF91CF915E
:104600000895CF93DF93BC01990F880B990B0E94FB
:104610005922EC0183EA9BE10E9489228C0F9D1FA5
:10462000DF91CF910895CF92DF92EF92FF920F9397
:104630001F93CF93DF930E94DF0A6B017C0128E96F
:10464000C20E2AE3D21EE11CF11CC092A70ED0922A
:10465000A80EE092A90EF092AA0E1092A50E10924A
:10466000A40E0E94DF0A6C157D058E059F0508F0DB
:1046700046C083EA9BE10E946208181619068CF76F
:1046800064E670E080E090E00E94660A83EA9BE1C5
:104690000E9462088C019093A30E8093A20E81E089
:1046A0008093A10E3AE0C32ED090A10ECD2DD0E084
:1046B000E090A40EF090A50E0C171D0704F183EAFC
:1046C0009BE10E944108CC0FDD1FCD56D14F99834D
:1046D00088838D30910579F08A30910561F0C0971B
:1046E000CE9C9001CF9C300D1124820F931F90938C
:1046F000A50E8093A40ED394D092A10ED5CF809115
:10470000A40E9091A50E0E9401236AE070E080E063
:1047100090E0DF91CF911F910F91FF90EF90DF908C
:10472000CF900C94660A0F931F93CF93DF938C0165
:10473000D0E0C0E06115710519F00E94F721EC018D
:10474000C8010E9489228C0F9D1FDF91CF911F917C
:104750000F910895CF92DF92EF92FF921F93CF9324
:10476000DF930E94DF0A6B017C0128E9C20E2AE375
:10477000D21EE11CF11C0E94DF0A6C157D058E051E
:104780009F0540F583EA9BE10E946208181619060E
:1047900094F764E670E080E090E00E94660A83EAA5
:1047A0009BE10E946208EC01F82E10E083EA9BE195
:1047B0000E9441088D3039F08A3029F0E12FF0E075
:1047C000E555F14F80831F5FF11680F7DD27C55552
:1047D000D14F18826BEA7EE083EA9BE1DF91CF91B3
:1047E0001F91FF90EF90DF90CF900C9493230F9345
:1047F0001F93CF93DF93EC01FB01448155816081CE
:104800007181E881F9810280F381E02D09958C01A5
:10481000CE010E948922800F911FDF91CF911F91BD
:104820000F9108950F931F93CF93DF93EC010E9494
:10483000E0078C01CE010E948922800F911FDF9139
:10484000CF911F910F910895CF93DF93EC010E94B8
:10485000280B60EF7CE083EA9BE10E94E007BE0149
:1048600083EA9BE10E941224BE0180918F1F9091E8
:10487000901F0E94122480E00E94980AC82F69EEBF
:104880007CE083EA9BE10E94E00765E87EE183EA41
:104890009BE10E9493238C2FDF91CF910895CF93BA
:1048A000DF93EB010E942424882341F0BE0185E8B8
:1048B0009EE10E94A26121E0892B09F020E0822F75
:1048C000DF91CF910895CF93DF939093901F8093C2
:1048D0008F1F61E08091831E0E94FB0961E080913F
:1048E000831E0E949B096AE070E080E090E00E94D5
:1048F000660A60E08091831E0E949B0964E670E076
:1049000080E090E00E94660A61E08091831E0E9430
:104910009B0968EC7CE083EA9BE10E941224CEE0D4
:10492000D0E080918F1F9091901FDC01ED91FC9160
:104930000084F185E02D0995892B61F080918F1F0E
:104940009091901FDC01ED91FC910284F385E02DA4
:104950000995E7CF60918D1F70918E1F85EC9CE0CB
:104960000E944F2481115AC080918F1F9091901FF7
:10497000DC01ED91FC910084F185E02D0995892BF6
:1049800061F080918F1F9091901FDC01ED91FC915F
:104990000284F385E02D0995E7CF6FEB7CE082EC94
:1049A0009CE00E944F24811139C064EF71E080E0E7
:1049B00090E00E94660A219709F0B3CF6DE87CE091
:1049C00083EA9BE10E94122460918D1F70918E1FDB
:1049D0008AE89CE00E944F2464E670E080E090E06A
:1049E0000E94660A60918D1F70918E1F87E89CE07F
:1049F0000E944F2464E670E080E090E00E94660A26
:104A000060918D1F70918E1F84E89CE00E944F245E
:104A100064E670E080E090E00E94660A60918D1F7D
:104A200070918E1F8FE79CE00E944F2464E670E037
:104A300080E090E00E94660A60918D1F70918E1F49
:104A40008AE79CE00E944F24C82F882309F479C08C
:104A500060918D1F70918E1F80E79CE00E944F2413
:104A600064E670E080E090E00E94660A0E94280BF5
:104A700069E67CE083EA9BE10E94E0076AE172E07C
:104A800083EA9BE10E9493236AE172E080918F1F89
:104A90009091901F0E94932381E00E94980A62E601
:104AA0007CE083EA9BE10E94E00765E87EE183EA1F
:104AB0009BE10E94932367E57CE085E89EE10E94EC
:104AC000B461892B09F441C083E08093841E8091F6
:104AD000841E813071F56AE17CE083EA9BE10E94EB
:104AE000E0076EE172E083EA9BE10E9493236EE1AE
:104AF00072E080918F1F9091901F0E94932381E01C
:104B00000E94980A63E17CE083EA9BE10E94E0074F
:104B100065E87EE183EA9BE10E9493236BE07CE001
:104B200085E89EE10E94B461892B19F086E08093AC
:104B3000841E60918D1F70918E1F84EF9BE00E94F8
:104B40004F248C2FDF91CF9108956CE47CE085E8B1
:104B50009EE10E94B461892B11F082E0B6CF61E43E
:104B60007CE085E89EE10E94B461892B11F081E030
:104B7000ACCF61E37CE085E89EE10E94B461892BC3
:104B800011F084E0A2CF61E27CE085E89EE10E9422
:104B9000B461892B09F49BCF85E097CF611571052E
:104BA00011F00C94F72190E080E008951F93CF93CB
:104BB000DF930E94251E8091910E8430A9F44091CC
:104BC000FD16242F30E0C90102968231910509F4C7
:104BD00057C0423131F468E170E00E94E764C82FA9
:104BE00012C0C9010496F7CF813071F4C091FD164F
:104BF0008C2F90E00196C23171F78091FC168332C0
:104C000008F43FC0C3E1D3E02AE08C2F622F0E945A
:104C1000C764182F110F180F110F1C0F8D2F0E9432
:104C2000C764682F660F680F660F6D0F8BE00E94D8
:104C30003110612F8CE00E94311060E88DE00E94FD
:104C4000311065E272E083EA9BE10E94CE256C2F71
:104C500083EA9BE10E9452226DE879E083EA9BE1BE
:104C60000E94CE256D2F83EA9BE10E948D2262E394
:104C700070E080E090E0DF91CF911F910C94660A84
:104C8000C2E1D3E2C1CFCF930E94251E2091840EB2
:104C9000E22FF0E08091FC168E0F9F2F911D6CE3A8
:104CA00070E00E94E764BF010E94E764269F202D08
:104CB00011242F5F2093FC0D822F6AE00E94C764AD
:104CC000C82FCC0FC80FCC0FC20F60E087E00E9446
:104CD00031106C2F88E00E94311060E889E00E945A
:104CE000311060E88AE00E94311067E372E083EAE5
:104CF0009BE10E94CE256091FC0D83EA9BE10E941E
:104D00008D2262E370E080E090E0CF910C94660A1F
:104D1000DF92EF92FF920F931F93CF93DF938C015B
:104D20007B01D42EBC0185E89EE10E94B461EC01B8
:104D3000892BE1F0C8010E94AB618C0F9D1FDD2023
:104D400039F06CE270E00E940066009779F00196FD
:104D50000E947B61F7019183808381E0DF91CF9195
:104D60001F910F91FF90EF90DF90089580E0F6CFB4
:104D7000CF93DF9300D0CDB7DEB78CED9BE00E94E0
:104D8000242440E0BE016F5F7F4F85ED9BE00E94D1
:104D90008826882349F080E00E94980A89810F9034
:104DA0000F90DF91CF91089580E0F9CFCF93DF93FB
:104DB00000D0CDB7DEB78BEE9BE00E94242441E00B
:104DC000BE016F5F7F4F83EE9BE00E9488268823A1
:104DD00049F080E00E94980A89810F900F90DF913E
:104DE000CF91089580E0F9CF0E94E5650F931F935E
:104DF000CF93DF93EC0188819981009759F02A8144
:104E00003B812617370730F081E0DF91CF911F916A
:104E10000F9108958B016F5F7F4F0E94046500978B
:104E200059F0998388831B830A832C813D81232B2E
:104E300059F7FC011082E8CF80E0E7CFEF92FF92B4
:104E40000F931F93CF93DF936115710541F480E0B9
:104E5000DF91CF911F910F91FF90EF900895411531
:104E60005105B1F07B01EC010C811D81040F151F70
:104E7000B8010E94F626882351F3288139818C815C
:104E80009D81B701820F931F0E940B661D830C83C7
:104E900081E0DECFEF92FF920F931F93CF93DF93CA
:104EA00000D000D0CDB7DEB77C01862F4AE08E015E
:104EB0000F5F1F4FB80190E00E94CE61F801019092
:104EC0000020E9F73197AF01401B510BB801C70132
:104ED0000E941E270F900F900F900F90DF91CF919F
:104EE0001F910F91FF90EF900895CF93DF9300D023
:104EF000CDB7DEB769831A8241E050E0BE016F5F33
:104F00007F4F0E941E270F900F90DF91CF91089541
:104F1000FB0101900020E9F73197AF01461B570BC9
:104F20000C941E27FB0144815581608171810C9492
:104F30001E27CF93DF93EC0188819981009711F0B0
:104F40000E944E60198218821D821C821B821A8266
:104F5000DF91CF910895CF93DF93EC016115710537
:104F600039F4CE010E949927CE01DF91CF910895A7
:104F7000FB0101900020E9F73197AF01461B570B69
:104F80000E941E27882369F3EFCFCF93DF93EC01B4
:104F9000FB0144815581608171810E941E2781112E
:104FA00003C0CE010E949927CE01DF91CF910895D1
:104FB000EF92FF920F931F93CF93DF93EC017B014E
:104FC0008A01BA010E94F62681110BC0CE010E940F
:104FD0009927CE01DF91CF911F910F91FF90EF9014
:104FE00008951D830C83B701888199810E940B6607
:104FF000F0CFFB0101900020E9F73197AF01461B8C
:10500000570B0C94D8270F931F93CF93DF93CDB7F3
:10501000DEB729970FB6F894DEBF0FBECDBF8C0167
:10502000862FF80111821082138212821582148257
:105030004AE0BE016F5F7F4F90E00E94E161BE01D8
:105040006F5F7F4FC8010E94F92729960FB6F89429
:10505000DEBF0FBECDBFDF91CF911F910F9108959D
:105060000F931F93CF93DF93CDB7DEB762970FB641
:10507000F894DEBF0FBECDBF8C01CB01F8011182C9
:10508000108213821282158214824AE0BE016F5F81
:105090007F4F0E94CE61BE016F5F7F4FC8010E94AB
:1050A000F92762960FB6F894DEBF0FBECDBFDF9131
:1050B000CF911F910F9108950F931F93CF93DF937B
:1050C000CDB7DEB728970FB6F894DEBF0FBECDBFC1
:1050D00062E572E086EC92E20E94F9270E94251EAA
:1050E0004AE08E010F5F1F4FB8018091680E9091CA
:1050F000690E0E94CE61F80101900020E9F7319716
:10510000AF01401B510BB80186EC92E20E941E27B2
:105110006DE286EC92E20E94752760916B0E86EC40
:1051200092E20E944A276DE286EC92E20E94752785
:1051300060916A0E86EC92E20E944A276FE586EC47
:1051400092E20E9475276091FD1686EC92E20E9421
:105150004A276AE386EC92E20E9475271091FC16BA
:105160001A3028F460E386EC92E20E947527612FE2
:1051700086EC92E20E944A276AE386EC92E20E9461
:1051800075271091670E1A3028F460E386EC92E2DE
:105190000E947527612F86EC92E20E944A2769E4FB
:1051A00072E086EC92E20E94882762E370E080E081
:1051B00090E00E94660A28960FB6F894DEBF0FBEF4
:1051C000CDBFDF91CF911F910F910895CF93DF93C2
:1051D000C0E0D6E08091920EC81758F4CD9FC00170
:1051E000112462E572E08E529D4D0E94F927CF5F37
:1051F000F1CFDF91CF910895CF93DF93EC01FB01C5
:105200008617970749F0608171816115710541F03A
:10521000448155810E94D827CE01DF91CF91089516
:105220000E949927F9CFFC01118210821382128209
:10523000158214820C94FC28FC01118210821382C6
:10524000128215821482FB0101900020E9F7319748
:10525000AF01461B570B0C94D827FC01808191812C
:105260000C944E60CF93DF93EC01898D9A8D00975B
:1052700041F00E940819898D9A8D0E944E601A8E05
:10528000198EDF91CF910895CF92DF92EF92FF9226
:105290000F931F93CF93DF93EC017B018A01E88189
:1052A000F9810280F381E02D0995D82E882329F118
:1052B000E114F104D1F001151105B9F0CFB6F8945D
:1052C0008A8D8350990BF8012081281719061CF04C
:1052D0008A8D84508083F801408150E0BE01615E78
:1052E0007F4FC7010E94F765CFBE8FB7F894FE01CC
:1052F000E65EFE4F10821A8E8FBF8D2DDF91CF910B
:105300001F910F91FF90EF90DF90CF900895EF9253
:10531000FF920F931F93CF93DF9300D01F92CDB7CF
:10532000DEB78C010E948C0DE82E81110CC0E12C9F
:105330008E2D0F900F900F90DF91CF911F910F91B5
:10534000FF90EF900895F801808D8A3009F47EC0B7
:105350008B3009F47DC022E0F22E823041F740E824
:1053600061E0C8010E94620B6AE070E080E090E0BA
:105370000E94660A61E0C8010E94A20C8038B9F65A
:1053800060E0F801808D0E94FB09F801818D8F3F5C
:1053900049F480910D0F843050F691E0980F90936E
:1053A0000D0F818FF801818DE82FF0E0EE0FFF1FC8
:1053B000E25FF04F1183008363E87DE0882349F0CA
:1053C0006AE77DE0813029F0823009F0B0CF61E7F3
:1053D0007DE08F2D0E94BF0740E06EE0C8010E9473
:1053E000620B40E06FE0C8010E94620BC8010E949E
:1053F000BA0B43E050E06BE47BE0CE0101960E94E3
:10540000996149816DE1C8010E94620B4A816EE198
:10541000C8010E94620B4B8166E2C8010E94620BC8
:1054200040E060E2C8010E94620B48E061E2C8010E
:105430000E94620B40E050EC64E674E4C8010E94F4
:10544000CE0B6DE0C8010E94920B72CFF12C87CF7A
:10545000FF24F39484CF3F924F925F926F927F929A
:105460008F929F92AF92BF92CF92DF92EF92FF9274
:105470000F931F93CF93DF93CDB7DEB72B970FB664
:10548000F894DEBF0FBECDBF7C01DC0115968C9178
:10549000811115C0FE013196CE010C966F0130E2EC
:1054A00031938E179F07E1F7DA0130E087E09D9195
:1054B000B92E992329F19E3239F48A3011F480E013
:1054C000BEC038E08AE0F3CFEBE3FBE04491442335
:1054D00021F031969413FACFF2CF831780F34FED7A
:1054E000490F4E3560F74FE9490F4A3118F440EE45
:1054F000B42EB90EF601E30FF11DB0823F5FD7CF96
:1055000089818032E1F2322E8B01FB01838D948DF3
:10551000D7015C969C938E935B97168217821086B8
:1055200011861286138614861586F8018285938566
:10553000A485B5854389548965897689841795073B
:10554000A607B70790F525E0B695A7959795879597
:105550002A95D1F7F82FFF70AF2EC8010E946B1C5F
:10556000009709F4ACCFDC012C91222341F0253EB9
:1055700009F057C0BB2029F0BB24B394D6CFB1109B
:105580000EC0F701A28A40911D0150911E01609149
:105590001F017091200146875787608B718BFC013A
:1055A00080818111E9CFBB24B394832D8271823134
:1055B00009F085CFBB2009F45AC0C7010E9420130F
:1055C000009709F47CCF20E2FC0111922A95E9F7BB
:1055D0002BE0F601DC0101900D922A95E1F721E222
:1055E00038E2DC0151963C932E93509740E058E00E
:1055F0001F965C934E931E9753963C932E9352970F
:1056000059963C932E93589757965C934E93569782
:105610000E949A12882309F452CF432DF701628920
:105620000BC04BE050E0BC01C6010E94EA65892B2B
:1056300009F07BCF432D6A2DC7010E9446202B968F
:105640000FB6F894DEBF0FBECDBFDF91CF911F9193
:105650000F91FF90EF90DF90CF90BF90AF909F9011
:105660008F907F906F905F904F903F900895D801FA
:1056700015968C91823009F422CFC8010E94D81669
:10568000882309F41CCFD8015B96ED91FC915C97BF
:1056900016968D909D90AD90BC901997B2E08B1AA4
:1056A0009108A108B108858504C0880C991CAA1C22
:1056B000BB1C8A95D2F786859785A089B189880E0B
:1056C000991EAA1EBB1E848124013501480E511C5F
:1056D000611C711C84149504A604B70401F1E1E077
:1056E0004E1A5108610871080E949A12882309F421
:1056F000E6CEE5E0F7E1119285E099E18E179F078C
:10570000D1F740921D0150921E0160921F017092CC
:1057100020018091C40E81608093C40EDBCFD8013C
:105720005B96ED91FC91258580E092E0A0E0B0E0F1
:1057300004C0880F991FAA1FBB1F2A95D2F7F80132
:105740004389548965897689840F951FA61FB71FE1
:10575000838B948BA58BB68BD70152961C9285E0D8
:1057600097E131CF5F926F927F928F929F92AF922B
:10577000BF92CF92DF92EF92FF920F931F93CF933E
:10578000DF93CDB7DEB7C754D1090FB6F894DEBFAB
:105790000FBECDBF5C013B0119A218A282EC91E0C3
:1057A0009F8F8E8F1BA21C821B829A8389831E82ED
:1057B00010E000E06E018EE1C80ED11C8CEEE82EE8
:1057C0008DE1F82EF501E00FF11F80818F3211F489
:1057D0000F5F1F4FD501A00FB11FFE01FB9690E098
:1057E00080E04F012D912F3249F0222339F00F5FD5
:1057F0001F4F019621938C309105A1F7880D991DBB
:10580000FC011082F501E00FF11F80818F3211F44D
:105810000F5F1F4FF501E00FF11F508041E0511065
:1058200040E030E020E0B401C701F30109958111A7
:1058300021C0FCEEEF16FDE1FF06C1F480E0C95B7C
:10584000DF4F0FB6F894DEBF0FBECDBFDF91CF9113
:105850001F910F91FF90EF90DF90CF90BF90AF908E
:105860009F908F907F906F905F900895C7010E94E6
:105870000819E4CF552091F021E0A401B701C60139
:105880000E942B2A982E8CEEE8168DE1F80681F006
:10589000C7010E940819911010C0D0CF9CEEE916E4
:1058A0009DE1F90619F0C7010E94081981E0C7CFF0
:1058B000992021F2FE0131967F019E2D8F2D7601D8
:1058C000C92ED82E7FCFCF93DF93CDB7DEB76D979C
:1058D0000FB6F894DEBF0FBECDBF442309F453C00A
:1058E000AB01BC011C821B8282EC91E09A8389830C
:1058F0001E8221E0CE0101960E942B2A882339F0D6
:105900008E81843071F090E081E0911101C080E0DF
:105910006D960FB6F894DEBF0FBECDBFDF91CF916D
:1059200008951F82188619861A861B861C861D8676
:105930001E864B855C856D857E858C899D89AE89AB
:10594000BF89481759076A077B0790F4CE01019673
:105950000E946B1C0097B9F2FC012081222341F0C8
:10596000253E39F32E3229F3838583FDE2CFCBCF59
:1059700081E08E838D8182608D83CE0101960E94AD
:105980002E20982FC1CF81E0C3CFCF93DF93CDB727
:10599000DEB76D970FB6F894DEBF0FBECDBF4423C0
:1059A00011F1AB01BC011C821B8282EC91E09A8355
:1059B00089831E8222E0CE0101960E942B2A882331
:1059C00021F0CE0101960E942E2091E0811101C0AC
:1059D00090E0892F6D960FB6F894DEBF0FBECDBF55
:1059E000DF91CF91089591E0F4CF1F93CF93DF9390
:1059F000CDB7DEB76D970FB6F894DEBF0FBECDBF43
:105A0000AB011C821B8222EC31E03A8329831E8287
:105A100021E0BC01CE0101960E942B2A11E08111E8
:105A20000CC010E0812F6D960FB6F894DEBF0FBE4C
:105A3000CDBFDF91CF911F910895CE0101960E94B5
:105A40000819F0CFEF92FF920F931F93CF93DF933C
:105A5000EC017B018A011B821A8288EE93E0A0E0B0
:105A6000B0E08C839D83AE83BF838EEC91E09983FD
:105A700088838DE190E00E94B25F9A8F898F0097B2
:105A800079F02DE1F701DC0101900D922A95E1F703
:105A90004CE050E0B801CE010C960E941266188EC0
:105AA000DF91CF911F910F91FF90EF900895CF92CA
:105AB000DF92EF92FF920F931F93CF93DF93CDB7B7
:105AC000DEB7C756D1090FB6F894DEBF0FBECDBF03
:105AD0008C017B01DB015996CD90DC90F60185812C
