:100000000C941C070C9444600C9419600C94EE5FE3
:100010000C94C3620C9446070C9446070C94460754
:100020000C9446070C9446070C9446070C9446071C
:100030000C9446070C946F600C9446070C9446078A
:100040000C9446070C9446070C94A45F0C94460746
:100050000C946F5F0C94455F0C9446070C94460714
:100060000C9446070C9446070C949F610C94460729
:100070000C94105F0C94E65E0C9446070C944607B3
:100080000C9446070C9446070C94460741542B43A6
:10009000434944002B43474154543A200041542BD8
:1000A00043474154543F002B43475245473A2000B1
:1000B00041542B43475245473F0047505253206F0E
:1000C0006E004552524F523A2047505253206661BB
:1000D000696C656420746F207475726E206F6E0099
:1000E0005265676973746572656420726F616D69CA
:1000F0006E6700556E6B6E6F776E0044656E696556
:1001000064004E6F7420726567697374657265640C
:100110002028736561726368696E6729005265679C
:10012000697374657265642028686F6D6529004E77
:100130006F742072656769737465726564003A2034
:10014000004E6574776F726B2073746174757320E1
:10015000005475726E696E672063656C6C206D6FFC
:1001600064756C65206F66662E2E2E0052535349BF
:10017000202864426D293A202D00456E7465722056
:1001800027782720617420616E792074696D65205D
:10019000746F2073746F70005475726E696E67208F
:1001A00063656C6C206D6F64756C65206F6E2E2EB0
:1001B0002E004552524F523A204C6F6E676974754B
:1001C000646520696E636F727265637421004552C5
:1001D000524F523A204C6174697475646520696E9F
:1001E000636F727265637421004552524F523A2018
:1001F000496E76616C696420696E74657276616CB3
:10020000202865766572792031206F72203420684D
:100210006F75727329004552524F523A20496E76DB
:10022000616C696420696E74657276616C20286502
:10023000766572792031302C2031352C2032302CEB
:100240002033302C206F72203630206D696E732978
:100250000050726F6A6563742049443A2000202080
:10026000696E707574206D696E7574653A20002032
:1002700020696E70757420686F75723A20202000B6
:100280002020696E70757420796561723A20202093
:10029000002020696E707574206461793A202020F6
:1002A00020002020696E707574206D6F6E74683A3E
:1002B00020200053796E6368726F6E697A61746989
:1002C0006F6E206661696C65642E20506C65617389
:1002D0006520656E7465722074696D65206D616E50
:1002E00075616C6C7920696E205554433A20005337
:1002F000796E6368726F6E697A696E6720636C6F7E
:10030000636B20746F204E49535420736572766579
:1003100072202E2E2E200044656661756C7420724A
:100320006164696F2049442061636365707465642A
:1003300000526164696F204944207570646174657E
:100340006400456E746572206E6577207261646921
:100350006F2049443A2000576F756C6420796F759F
:10036000206C696B6520746F206368616E6765201F
:1003700074686520726164696F2049442066726FF9
:100380006D207468652064656661756C74207661A3
:100390006C75653F20792F6E3A2000456E7465724A
:1003A0002074686520486F6C6F6772616D206465AA
:1003B00076696365206B657920666F722074686961
:1003C0007320476174657761793A2000456E7465E2
:1003D000722074686520726164696F2049442066E8
:1003E0006F72204E6F64652000293F00496E766170
:1003F0006C6964206E756D626572206F66206E6F29
:100400006465732E2020486F77206D616E79206EB1
:100410006F6465732061726520617420746869730C
:10042000207369746520286D61782E00486F7720ED
:100430006D616E79206E6F646573206172652061F5
:10044000742074686973207369746520286D6178FD
:100450002E2000496E76616C696420696E74657245
:1004600076616C2E20456E746572206D65617375C2
:1004700072656D656E7420696E74657276616C204C
:100480002831302C2031352C2032302C2033302CA8
:10049000206F72203630293A2000456E7465722034
:1004A0006D6561737572656D656E7420696E7465D6
:1004B0007276616C202831302C2031352C2032307E
:1004C0002C2033302C206F72203630206D696E73F3
:1004D000293A2000436865636B696E672046504C7B
:1004E0004D4E2E2E2E0045786974002020526563F3
:1004F0006569766572204D6F64652064656163741B
:10050000697661746564002020526563656976656B
:1005100072204D6F646520616374697661746564EF
:1005200000576F756C6420796F75206C696B65205E
:10053000746F2075736520526563656976657220F6
:100540004D6F64653F20792F6E3A20004E4F544521
:100550003A205265636569766572206F6E6C79200A
:100560006D6F64652077696C6C206E6F7420757098
:100570006C6F6164206461746120746F20486F6CDB
:100580006F6772616D002020456E74657220612076
:1005900050726F6A65637420494420287570207416
:1005A0006F203520636861726163746572732C20FB
:1005B00065783A20505341293A2000202045525274
:1005C0004F523A2050726F6A656374204944206527
:1005D0007863656564732035206368617261637454
:1005E00065727321002020456E7465722061205071
:1005F000726F6A6563742049442028757020746F97
:10060000203520636861726163746572732C2065A4
:10061000783A20505341293A2000457869740041C6
:10062000726520796F75207375726520796F7520FA
:1006300077616E7420746F20636C656172207468DA
:10064000652046504C4D4E3F20792F6E3A200021B8
:1006500021212055534520574954482043415554A2
:10066000494F4E2021212100576F756C6420796F0E
:1006700075206C696B6520746F207475726E2064D0
:10068000656275672073746174656D656E7473203F
:100690006F6E3F20792F6E3A2000576F756C642083
:1006A000796F75206C696B6520746F207475726E3C
:1006B0002064656275672073746174656D656E741E
:1006C00073206F66663F20792F6E3A200045726175
:1006D000736520534420636172643A20005072694C
:1006E0006E7420646174612066696C65733A2000E1
:1006F00053617665642066696C65733A20004172C7
:100700006520796F75207375726520796F75207714
:10071000616E7420746F2065726173653F20456E51
:1007200074657220792F6E3A20004C61742F6C6FC3
:100730006E672076616C7565732077696C6C2061DB
:100740007070656172206173202D393939393939FA
:1007500039393920696E20746865206461746120BC
:10076000737472696E672E004552524F523A204C94
:100770006F6E67697475646520696E636F72726508
:10078000637421004C6F6E6769747564653A20006C
:100790004552524F523A204C617469747564652019
:1007A000696E636F727265637421004C6174697461
:1007B0007564653A200053656C656374206F7074CE
:1007C000696F6E3A200020202030203C2D2D2045DE
:1007D00072617365204C61742F4C6F6E6720766177
:1007E0006C7565730020202031203C2D2D20456E36
:1007F000746572204C61742F4C6F6E672076616C4B
:1008000075657300456E74657220636F6E66696707
:1008100075726174696F6E20737472696E673A20C5
:1008200000456E7465722063686F6963653A2000E5
:1008300020207820203C2D2D202045786974206DC3
:10084000656E750020203220203C2D2D2020486927
:10085000646520636F6E66696775726174696F6E37
:10086000206F7074696F6E730020206520203C2D0E
:100870002D20204572617365206D6963726F53444A
:1008800020636172640020207220203C2D2D2020E6
:100890005265636569766572204D6F6465206F6E81
:1008A0002F6F66660020206D20203C2D2D202053C8
:1008B0006574206D6561737572656D656E74206910
:1008C0006E74657276616C0020207520203C2D2DA1
:1008D00020205365742067617465776179206461B5
:1008E000746120696E74657276616C0020207520D9
:1008F000203C2D2D20205365742064617461207587
:10090000706C6F616420746F20636C6F7564206914
:100910006E74657276616C0020206E20203C2D2D57
:100920002020456E746572204E6F6465207261648C
:10093000696F204944730020206420203C2D2D2025
:1009400020456E74657220486F6C6F6772616D2010
:10095000446576696365204B657900202067202017
:100960003C2D2D20204368616E67652047617465CA
:1009700077617920726164696F2049440020206C9E
:1009800020203C2D2D2020456E746572206F722032
:100990006572617365204C61742F4C6F6E672076B1
:1009A000616C7565730020206920203C2D2D20206E
:1009B000456E7465722070726F6A65637420494475
:1009C0000020203020203C2D2D2020456E746572A3
:1009D00020636F6E66696775726174696F6E2073EC
:1009E0007472696E6700436F6E66696775726174D1
:1009F000696F6E204F7074696F6E733A00202032F9
:100A000020203C2D2D202053686F7720636F6E6669
:100A1000696775726174696F6E206F7074696F6E4B
:100A2000730020203420203C2D2D2020436C656154
:100A30007220666F7262696464656E206E65747799
:100A40006F726B73206C6973740020206F20203CE0
:100A50002D2D202044656275672073746174656D67
:100A6000656E7473206F6E2F6F666600202066209F
:100A7000203C2D2D2020536565206C697374206FF8
:100A8000662073617665642066696C65730020205A
:100A90007020203C2D2D20205072696E74206E6FC6
:100AA0006465206461746120746F2073637265658E
:100AB0006E0020206320203C2D2D202053657420C3
:100AC000636C6F636B0020203120203C2D2D202093
:100AD00043656C6C756C6172205369676E616C2044
:100AE00053636F7574696E67204D6F64650055734D
:100AF0006572204F7074696F6E733A004465627559
:100B000067206F6666004465627567206F6E0043FC
:100B1000757272656E742062617474657279207684
:100B20006F6C746167653A20200030003A00300035
:100B30003A002D002D0043757272656E7420646159
:100B4000746520262074696D653A200047617465DC
:100B5000776179206461746120696E746572766171
:100B60006C2028687273293A200055706C6F61649C
:100B700020696E74657276616C2028687273293AF8
:100B800020004D6561737572656D656E7420496EE8
:100B900074657276616C3A20004461746120666904
:100BA0006C653A20004E6574776F726B6564204EF9
:100BB0006F6465204944733A200023206F66206EDD
:100BC0006F6465733A2000446576696365206B65E0
:100BD000793A2000476174657761792052616469D0
:100BE0006F2049443A20004C61742F6C6F6E673A55
:100BF000200050726F6A6563742049443A20004CAB
:100C00006F526120526164696F20467265712028BD
:100C10004D487A293A200053657269616C204E75FF
:100C20006D6265723A200056657273696F6E2000BE
:100C30002D2D2D205265636569766572204F6E6C8F
:100C400079204D6F6465202D2D2D00536F696C2028
:100C500057617465722044617461204E6574776FCA
:100C6000726B202D2043656C6C756C61722047613E
:100C7000746577617900496E76616C696420696E8C
:100C800074657276616C2E20506C656173652065A9
:100C90006E7465722031206F7220342E00456E74A0
:100CA000657220223122206F72202234223A2000E5
:100CB00020696E74657276616C20746F2031206FCC
:100CC00072203420686F7572732E0020676174651E
:100CD0007761792064617461002075706C6F616464
:100CE00000536574007C3C3E5E2B3D3F2F5B5D3BBB
:100CF0002C2A225C0072740092740048940078C41C
:100D00000000002100240027002A00000022002506
:100D10000028002B000000200023002600290002EC
:100D20000202020202020204040404040404040392
:100D30000303030303030301010101010101010195
:100D400002040810204080010204081020408001A5
:100D50000204081020408001020408102040800096
:100D60000000010200090A00000000040308070057
:100D70000000000000000000000000000000002B48
:100D80004353513A200041542B435351002B4352BB
:100D900045473A200041542B435245473F004154B8
:100DA0002B43504D533D22534D222C22534D222C88
:100DB00022534D220053494D383030480053494D9D
:100DC000434F4D5F53494D35333230450053494D04
:100DD000434F4D5F53494D35333230410053494DF8
:100DE000383030205231330053494D38303820529A
:100DF00031330053494D383038205231340041549A
:100E00002B435648553D3000415445300041544530
:100E100030004154004154004154004154004154B9
:100E2000004154004F4B00464F4E4100464F4E414B
:100E30006E657400DF625E6711241FBECFEFD0E4E1
:100E4000DEBFCDBF1FE0A0E0B1E0ECECF1EE00E0D2
:100E50000BBF02C007900D92A834B107D9F724E266
:100E6000A8E4BFE001C01D92A636B207E1F717E083
:100E7000CBE1D7E004C02197FE010E94C26CCA31C9
:100E8000D107C9F70E94B5640C94D9700C94000086
:100E9000089508950F931F93CF93DF93EC019A0168
:100EA000AB01E889F98982E08083EC85FD851082B9
:100EB0000E851F8560E874E88EE190E00E943E6B2D
:100EC0002150310941095109569547953795279584
:100ED000F8012083188EEC89FD8986E08083EA89F9
:100EE000FB89808180618083EA89FB8980818860B9
:100EF0008083EA89FB89808180688083EA89FB8915
:100F000080818F7D8083DF91CF911F910F91089514
:100F10008091E5209091E620DC01ED91FC91048424
:100F2000F585E02D0994FF920F931F93CF93DF93E4
:100F30008C01F62EC5EED0E288819981DC01ED911D
:100F4000FC910488F589E02D642F099588819981A9
:100F5000DC01ED91FC910680F781E02D4F2DB80169
:100F6000DF91CF911F910F91FF900994E82FF0E04E
:100F7000EE0FFF1FE25DFE4F71836083813049F009
:100F8000823071F080916900836080936900E89AF3
:100F90000895809169008C6080936900E99A0895B2
:100FA00080916900806380936900EA9A0895DC016A
:100FB000ED91FC910190F081E02D0994EF92FF9268
:100FC0000F931F93CF93DF938C017B01D0E0C0E0A0
:100FD000F701EC0FFD1F6491662361F0D801ED91DC
:100FE000FC910190F081E02DC8010995892B11F049
:100FF0002196EECFCE01DF91CF911F910F91FF90FF
:10100000EF900895AF92BF92CF92DF92EF92FF924E
:101010000F931F93CF93DF936C017B018B01040F20
:10102000151FEB015E01AE18BF08C017D10759F0BC
:101030006991D601ED91FC910190F081E02DC601FE
:101040000995892B79F7C501DF91CF911F910F91F8
:10105000FF90EF90DF90CF90BF90AF900895FC018C
:10106000538D448D252F30E0842F90E0821B930B0D
:10107000541718F081509F4F089501970895FC016F
:10108000918D828D981759F0A28DAE0FBF2FB11D93
:101090005D968C91928D9F5F928F90E008958FEF77
:1010A0009FEF0895FC01918D828D981731F0828D0C
:1010B000E80FF11D858D90E008958FEF9FEF089563
:1010C000FC01918D828D981B892F90E008958AED07
:1010D0009AE10E94600821E0892B09F420E0822F28
:1010E000089587EF9CE10E94600821E0892B09F4B4
:1010F00020E0822F0895CF93DF93EC01E881F981FE
:101100000680F781E02D0995EA89FB8980818F7E31
:101110008083EA89FB898081877F8083EA89FB89D4
:1011200080818F778083EA89FB8980818F7D8083AE
:101130008A8D898FDF91CF910895FC01A48DA80F2E
:10114000B92FB11DA35EBE4F9C91848D8F5F848F9C
:10115000A689B7899C93A089B1898C91837080649A
:101160008C93938D848D981306C00288F389E02DAB
:1011700080818F7D808308950F931F93CF93DF939A
:10118000EC0181E0888F9B8D8C8D981318C0E889C5
:10119000F989808185FF13C09FB7F894EE89FF8994
:1011A0006083E889F98980818370806480839FBF30
:1011B00081E090E0DF91CF911F910F910895062F6C
:1011C0001B8D1F5F8C8D81130CC00FB607FCFACFEF
:1011D000E889F989808185FFF5CFCE010E949D08BD
:1011E000F1CFEB8DEC0FFD2FF11DE35EFE4F008381
:1011F0009FB7F8941B8FEA89FB8980818062D6CFE4
:10120000CF93DF93EC01888D8823B9F0AA89BB893D
:10121000E889F9898C9185FD03C0808186FD0DC028
:101220000FB607FCF7CF8C9185FFF2CF808185FF49
:10123000EDCFCE010E949D08E9CFDF91CF910895B7
:1012400080E090E0892B29F00E94710881110E94B2
:10125000000080E090E0892B29F00E94670881114E
:101260000C940000089581508A3080F5E82FF0E05A
:10127000E45CF64F0C94C26C5009540946094C09C1
:101280006609660957095D0961096709809180004F
:101290008F77809380000895809180008F7DF9CFB3
:1012A00084B58F7784BD089584B58F7DFBCF809101
:1012B000B0008F778093B00008958091B0008F7D4B
:1012C000F9CF809190008F7780939000089580915E
:1012D00090008F7DF9CFCF93DF93282F30E0F90175
:1012E000E15AF24F8491F901E15CF24FD491F90196
:1012F000E15EF24FC491CC23A1F081110E94330929
:10130000EC2FF0E0EE0FFF1FEB5EF24FA591B491D2
:10131000EC91ED2381E090E009F480E0DF91CF9142
:10132000089580E090E0FACF1F93CF93DF93282FAA
:1013300030E0F901E15AF24F8491F901E15CF24F9A
:10134000D491F901E15EF24FC491CC23A9F0162F9C
:1013500081110E943309EC2FF0E0EE0FFF1FE55FD3
:10136000F24FA591B4918FB7F894EC91111108C088
:10137000D095DE23DC938FBFDF91CF911F9108952D
:10138000DE2BF8CFCF93DF9390E0FC01E15CF24FCE
:101390002491815E924FFC0184918823D1F090E0EA
:1013A000880F991FFC01EF5FF24FA591B491FC01EA
:1013B000E55FF24FC591D49161110EC09FB7F894CB
:1013C0008C91E22FE0958E238C932881E223E88391
:1013D0009FBFDF91CF9108958FB7F894EC91E22BE6
:1013E000EC938FBFF6CF883108F088518770806406
:1013F00080937C0080917A00806480937A00809151
:101400007A0086FDFCCF8091780090917900089554
:101410003FB7F89480912D1890912E18A0912F1815
:10142000B091301826B5A89B05C02F3F19F0019642
:10143000A11DB11D3FBFBA2FA92F982F8827BC012E
:10144000CD01620F711D811D911D43E0660F771F55
:10145000881F991F4A95D1F708958F929F92AF9256
:10146000BF92CF92DF92EF92FF924B015C010E94FC
:10147000080A6B017C010E94080A6C197D098E091B
:101480009F09683E734081059105A8F321E0821A07
:101490009108A108B10888EEC80E83E0D81EE11CAF
:1014A000F11C81149104A104B10429F7FF90EF907D
:1014B000DF90CF90BF90AF909F908F900895FF9254
:1014C0000F931F93CF93DF93F82E04EF11E0D0E03A
:1014D000C0E08091E3209091E420DC01ED91FC914B
:1014E0000084F185E02D0995892BC9F08091E320D6
:1014F0009091E420DC01ED91FC910284F385E02DD4
:1015000009958D3031F38A3021F4209711F3FF20B3
:1015100091F0FE01E553F04E86872196DACF015017
:10152000110949F061E070E080E090E00E942D0A2E
:10153000CE3FD10570F2FE01E553F04E16868C2F9A
:10154000DF91CF911F910F91FF9008952FB7F894DD
:101550006091291870912A1880912B1890912C185D
:101560002FBF08950895885E9E4FDC018D919C9158
:10157000DC01ED91FC910680F781E02D0994885EF5
:101580009E4FDC018D919C91DC01ED91FC910484D6
:10159000F585E02D0994885E9E4FDC018D919C912C
:1015A000DC01ED91FC910284F385E02D0994885EC5
:1015B0009E4FDC018D919C91DC01ED91FC9101909D
:1015C000F081E02D0994885E9E4FDC018D919C9105
:1015D000DC01ED91FC910084F185E02D0994CF931D
:1015E000DF9390E080E0EC0121968897A8F48BECE3
:1015F0009FE10E94E30A892B39F08BEC9FE10E9466
:10160000CB0AD0E0C0E0F3CF61E070E080E090E092
:101610000E942D0ACE01E7CFDF91CF9108958BEF85
:101620000895CF93DF93FC0122813381223031056D
:1016300069F0EC01638D818D0E94940960E0888DD2
:101640000E94940982E090E09B838A83DF91CF918E
:101650000895FF920F931F93CF93DF93EC01162F02
:10166000F42E0FB7F89460E08F890E9494098D8959
:101670009E89612F6068DC01ED91FC910190F08101
:10168000E02D0995182F8D899E89DC01ED91FC9143
:101690000190F081E02D6F2D099561E08F890E9406
:1016A00094090FBF812FDF91CF911F910F91FF9070
:1016B00008950F931F93CF938C01C62F44E06DE4E0
:1016C0000E94290B4BEF4C0F406869E0C801CF9195
:1016D0001F910F910C94290BCF93DF93FC01228172
:1016E00033812130310549F0EC0140E061E00E9496
:1016F000290B81E090E09B838A8381E0DF91CF9189
:101700000895CF93DF93FC0122813381223031058C
:1017100049F0EC0141E061E00E94290B82E090E099
:101720009B838A83DF91CF910895CF92DF92EF92CE
:10173000FF92CF93DF93EC01CB01BA0120E034E2BA
:1017400044E759E40E94386A20E034E244E752E476
:101750000E94DC6B0E94556C6B017C01A70166271F
:10176000772766E0CE010E94290B77276F2D5E2D2B
:101770004D2D67E0CE010E94290B4C2D68E0CE0173
:101780000E94290B81E0DF91CF91FF90EF90DF90D5
:10179000CF900895CF92DF92EF92FF920F931F9315
:1017A000CF93DF934C3F08F067C0142F072FF62E1E
:1017B000EC01E881F9810484F585E02D0995CE01DD
:1017C0000E94810B40E06DE0CE010E94290B4A850A
:1017D00060E0CE010E94290B4B8560E0CE010E94A3
:1017E000290B4C8560E0CE010E94290B4D8560E0FD
:1017F000CE010E94290BEFB6F89460E08F890E9419
:1018000094098D899E89DC01ED91FC910190F08114
:10181000E02D60E80995CF2CD02E012F015068F003
:101820008D899E89F60161916F01DC01ED91FC913A
:101830000190F081E02D0995F1CF61E08F890E9440
:101840009409EFBE44E0410F62E2CE010E94290BF1
:101850008A819B81039771F043E061E0CE010E9491
:10186000290B40E460E4CE010E94290B83E090E064
:101870009B838A8381E001C080E0DF91CF911F913B
:101880000F91FF90EF90DF90CF900895CF93DF936B
:10189000FC012281338123303105C9F0EC018281C2
:1018A0009381049771F045E061E0CF010E94290B1C
:1018B00040E060E4CE010E94290B84E090E09B832D
:1018C0008A83C65EDE4F8881DF91CF91089580E0E4
:1018D000FBCF0F931F93CF93DF93EC01162F0FB71E
:1018E000F89460E08F890E9494098D899E89DC01BB
:1018F000ED91FC910190F081E02D612F09958D898A
:101900009E89DC01ED91FC910190F081E02D60E079
:101910000995182F61E08F890E9494090FBF812FCC
:10192000DF91CF911F910F910895DF92EF92FF9277
:101930000F931F93CF93DF93EC0162E10E94690C38
:101940002A813B8124303105A1F4982F907A89F0C7
:101950008F8598890196988B8F874FEF62E1CE0132
:10196000DF91CF911F910F91FF90EF90DF900C943A
:10197000290B2A813B812430310511F486FD0DC0ED
:101980002A813B812330310541F783FFE6CF8B89E4
:101990009C8901969C8B8B8B67C063E1CE010E9472
:1019A000690C082F60E1CE010E94690C482F6DE0A0
:1019B000CE010E94290BDFB6F89460E08F890E9467
:1019C00094098D899E89DC01ED91FC910190F08153
:1019D000E02D60E009957E01BBE1EB0EF11C102FBC
:1019E000115070F08D899E89DC01ED91FC91019080
:1019F000F081E02D60E00995F70181937F01F0CF40
:101A000061E08F890E949409DFBE0A8F4FEF62E187
:101A1000CE010E94290B6AE1CE010E94690C89580F
:101A20008E878A8DFE01E65EFE4F8430C8F08B8D76
:101A30008E838C8D8F838D8D88878E8D89878D8108
:101A4000811107C09E818C81981719F08E818F3F7C
:101A500039F489899A8901969A8B898B81E08083F0
:101A60008081882309F479CFCE010E94810B75CF44
:101A70008091261890912718009711F00C94950CDE
:101A800008958091241890912518009711F00C94D6
:101A9000950C08958091221890912318009711F0C9
:101AA0000C94950C0895CF93DF93EC018D899E895A
:101AB000DC01ED91FC910680F781E02D099561E054
:101AC0008F890E94C20961E08F890E94940964E6AF
:101AD00070E080E090E00E942D0A81E0DF91CF91DC
:101AE0000895FF920F931F93CF93DF931F92CDB76B
:101AF000DEB7F42E05EE10E2D8018D919C91DC0149
:101B0000ED91FC91008CF18DE02D0995F80180811B
:101B10009181DC01ED91FC91028CF38DE02D40E090
:101B200060E8099581E289834F2D61E0CE0101963D
:101B30000E9493070E9488070F90DF91CF911F9119
:101B40000F91FF900895CF92DF92EF92FF920F9343
:101B50001F93CF93DF93EC018B017A016901809190
:101B6000E5209091E620DC01ED91FC910280F3816B
:101B7000E02D099581110BC010E0812FDF91CF91ED
:101B80001F910F91FF90EF90DF90CF90089580917B
:101B9000E5209091E620DC01ED91FC910480F58137
:101BA000E02DA701B8010995182F882329F380910A
:101BB000E5209091E620DC01ED91FC9100A0F1A1DF
:101BC000E02D0995F82E8091E5209091E620DC012A
:101BD000ED91FC91068CF78DE02D0995E82E809112
:101BE000E5209091E620DC01ED91FC9102A0F3A1AB
:101BF000E02D0995082F8091E5209091E620DC01E9
:101C0000ED91FC9104A0F5A1E02D099587FDB4CFDD
:101C1000BFEFEB1629F04F2D602FCE010E94710D02
:101C2000CF0DD11D8B85801709F4A6CFF601F08268
:101C30000B87A3CF9FB7F89480912018882319F0C1
:101C400081508093201880912018811105C08CB597
:101C50008F7B8CBD109243189FBF08958CB58F77F2
:101C60008CBD08958CB580688CBD0895FC0173838C
:101C700062830895FC01778366830895FC01758370
:101C800064830895089580E00895FC018185089596
:101C9000FC0180850895FC0187810895FC018681FF
:101CA00008954095FC0125854223642B658708959E
:101CB000FC0164870895FC0163870895FC01628735
:101CC0000895FC0164830895FC01658308958F9253
:101CD0009F92AF92BF92CF92DF92EF92FF92CF93FB
:101CE000DF93EC016B010E94A60A4B015C01F12C11
:101CF000E12C0E94A60A681979098A099B096C15CA
:101D00007D058E059F0580F48A819B81039789F369
:101D100081E0DF91CF91FF90EF90DF90CF90BF9067
:101D2000AF909F908F90089580E0F3CFFC012281C7
:101D3000338123303105D1F381E008958F929F9252
:101D4000AF92BF92CF92DF92EF92FF92CF93DF9349
:101D5000EC016B010E94A60A4B015C01F12CE12C05
:101D60000E94A60A681979098A099B096C157D05E4
:101D70008E059F05A0F4E881F9810280F381E02DB2
:101D8000CE010995882361F3DF91CF91FF90EF9009
:101D9000DF90CF90BF90AF909F908F90089580E09C
:101DA000F3CFCF93DF93EC01E881F9810280F381D7
:101DB000E02DCE0109958823B9F3DF91CF910895E5
:101DC00081E008951F93CF93DF93EC01162F888154
:101DD0009981DC01ED91FC910288F389E02D099550
:101DE00088819981DC01ED91FC910688F789E02DCD
:101DF000612F09951A83DF91CF911F910895CF929A
:101E0000DF92EF92FF920F931F93CF936B017C01B0
:101E1000142F8091E5209091E620DC01ED91FC915A
:101E20000190F081E02D0995C82F882309F1609178
:101E3000E72085EE90E20E94E20E8CE291E0909322
:101E4000EE208093ED2083E08093EF20612F85EEDC
:101E500090E20E94E20E0091E5201091E620B70189
:101E6000A601C8010E94950B61E1C8010E94590BAF
:101E70008C2FCF911F910F91FF90EF90DF90CF901B
:101E800008952091FD17260F3327331F2132310586
:101E9000ECF42091AA1AFC0190E080E0243069F073
:101EA00082E00895A091FD172191AC014352584E54
:101EB000A40FB52FB11D2C930196861798F380912E
:101EC000FD17680F6093FD1780E0089581E0089585
:101ED0001092AA1A81E08093A91A1092841A61E0E4
:101EE00081E10E94940961E080E10E949409E9EB9C
:101EF000F0E080818E7F808380818D7F808380E28F
:101F00008093B80085E48093BC0008951092D91A9C
:101F10001092D81A1092D71A1092D61A0E94680FEF
:101F200088E497E09093D51A8093D41A89E497E0D7
:101F30009093D31A8093D21A0895CF93DF9391E0B0
:101F40009093DC178823B9F0C091B800D091BA0003
:101F50008091BC008A7B8093BC0060E081E10E949C
:101F6000940960E080E10E9494090E94680FD09378
:101F7000BA00C093B800DF91CF9108958F929F92DD
:101F8000AF92BF92CF92DF92EF92FF920F931F9387
:101F9000CF93DF93D091D61AD13208F0D7C0182F43
:101FA000C091D11A0E94080A6B017C018091AA1A83
:101FB00081116BC082E08093AA1A1093A91A8FEF47
:101FC0008093A81A1092A71AD093A61AA1EBBAE18F
:101FD000E6E8FAE180E0D81391C01092851A80916A
:101FE000851ACC0FC82BC093851A8091841A813032
:101FF00009F088C01092841A0E94080A6B017C01C3
:102000008091851A8093BB008091AC1A9091AD1A93
:10201000A091AE1AB091AF1A892B8A2B8B2BA1F00D
:102020000E94080A0091AC1A1091AD1A2091AE1AC4
:102030003091AF1A6C197D098E099F090617170791
:102040002807390708F442C08091BC0083FDD8CF2F
:1020500085EC8093BC000E94080A6B017C01809192
:10206000AA1A823009F450C08091A81A8F3F09F44F
:102070006FC08091A81A803209F46CC08091A81AB0
:10208000803309F469C084E026C08091AC1A909135
:10209000AD1AA091AE1AB091AF1A892B8A2B8B2B57
:1020A00009F484CF0E94080A8090AC1A9090AD1A6F
:1020B000A090AE1AB090AF1A6C197D098E099F09D5
:1020C00086169706A806B90608F070CF8091AB1A5D
:1020D0000E949D0F85E01092D71A1092D61A109286
:1020E000B01ADF91CF911F910F91FF90EF90DF9089
:1020F000CF90BF90AF909F908F9008959D919193B6
:102100008F5F69CF85EEA5CF8091AC1A9091AD1A03
:10211000A091AE1AB091AF1A892B8A2B8B2B09F4A0
:102120009ECF0E94080A0091AC1A1091AD1A20911E
:10213000AE1A3091AF1A6C197D098E099F090617E6
:1021400017072807390708F08ACFC0CF81E0C3CF2F
:1021500080E0C1CF82E0BFCF83E0BDCFCF92DF92DE
:10216000EF92FF920F931F93CF93DF93D82FC62F39
:10217000613208F098C00E94080A6B017C018091CE
:10218000AA1A81116BC081E08093AA1A8093A91AC0
:102190009FEF9093A81A1092A71A9C0F9093A61ADB
:1021A0008093851A8091851ADD0FD82BD093851ADC
:1021B0008091841A813009F078C01092841A0E94AC
:1021C000080A6B017C018091851A8093BB00809185
:1021D000AC1A9091AD1AA091AE1AB091AF1A892B9A
:1021E0008A2B8B2BA1F00E94080A0091AC1A109147
:1021F000AD1A2091AE1A3091AF1A6C197D098E0973
:102200009F09061717072807390708F448C0809167
:10221000BC0083FDD8CF85EC8093BC000E94080AE7
:102220006B017C018091AA1A813009F440C0809131
:10223000A71A8C1710F4C091A71AE6E8FAE1A4E6F1
:10224000BAE180E08C1355C08C2FDF91CF911F91A4
:102250000F91FF90EF90DF90CF9008958091AC1A8E
:102260009091AD1AA091AE1AB091AF1A892B8A2B1A
:102270008B2B09F484CF0E94080A0091AC1A1091AC
:10228000AD1A2091AE1A3091AF1A6C197D098E09E2
:102290009F09061717072807390708F070CF8091A4
:1022A000AB1A0E949D0FC0E0CFCF85EEB5CF8091D5
:1022B000AC1A9091AD1AA091AE1AB091AF1A892BB9
:1022C0008A2B8B2B09F4AECF0E94080A0091AC1A1E
:1022D0001091AD1A2091AE1A3091AF1A6C197D0988
:1022E0008E099F09061717072807390708F09ACFA4
:1022F000D6CF91919D938F5FA5CF0895E091D91A84
:102300008091D81AE81730F4F0E0EC59F54E80814E
:1023100090E008958FEF9FEF08959091D91A8091E2
:10232000D81A2FEF3FEF981748F4E92FF0E0EC5957
:10233000F54E208130E09F5F9093D91AC90108952E
:102340008091D81A9091D91A891B990B0895CF9230
:10235000DF92EF92FF920F931F93CF93DF937C0155
:10236000CB018A012091B01A222389F0EB016B0185
:10237000C40ED51ECC15DD0569F06991D701ED912C
:10238000FC910190F081E02DC7010995F3CF642FF6
:102390000E94410FC801DF91CF911F910F91FF90D3
:1023A000EF90DF90CF900895CF93DF931F92CDB73A
:1023B000DEB769832091B01A2223F9F02091D61A52
:1023C000203258F021E030E0FC013383228390E09A
:1023D00080E00F90DF91CF9108958091D71AE82F78
:1023E000F0E0EF54F54E998190838F5F8093D71A78
:1023F0008093D61A81E090E0ECCF61E0CE010196A7
:102400000E94410FF7CFCF93C62F91E09093B01A5F
:1024100098E69093D11A1092D71A1092D61A682F74
:1024200086E594E20E94D4116C2F86E594E20E9426
:10243000D41181E0CF910C94BE0FCF93CFB7F89415
:1024400080912018811127C0E3E2FDE08491E3E44C
:10245000FDE09491E82FF0E0EE0FFF1FEF5FF24FE9
:10246000A591B491EC91E92321F461E084E00E940C
:10247000940961E084E00E94C2098CB580618CBD42
:102480008CB580648CBD61E087E00E94C20961E088
:1024900085E00E94C209809120188F5F80932018E8
:1024A000CFBFCF910895FC012681378121153105D9
:1024B00091F12130310559F12230310551F12330AC
:1024C000310549F52CE09CB5937F922B9CBD84810E
:1024D0009581019711F58CB580628CBD82819381C5
:1024E000019784309105E0F482599E4FFC01908160
:1024F0008CB58C7F292F2370822B8CBD8DB592FBE0
:10250000992790F98E7F892B8DBD0C941D1224E0A4
:10251000DACF28E0D8CF20E0D6CF8CB58F7DDDCFC5
:1025200095E0E6CF9FB7F894209143188091D61795
:10253000213019F48DBB9FBF08958FBF089561E0CE
:10254000FC0184810E9494098091D517882339F079
:102550001092D5178091431881110C94921208950E
:102560008EBD00000DB407FEFDCF8EB50895862FF9
:102570000C94B0128FEF0C94B0120F931F93CF9363
:10258000DF93EC010E94A60A8B010E94BA128F3FD2
:1025900069F00E94A60A601B710B6C177D07A8F3F7
:1025A00080E0DF91CF911F910F91089581E0F9CFE5
:1025B00020914318222361F02FB7F89430914318EB
:1025C000313049F43DB33093D6173DB33DBB2FBFF7
:1025D0008CBD9DBD08952093D617FACFCF93DF937E
:1025E000EC018091D517811109C081E08093D51746
:1025F0008091141F9091151F0E94D81260E08C8169
:10260000DF91CF910C9494098F929F92AF92BF92D9
:10261000FF920F931F93CF93DF93EC01F62E4901A6
:102620005A018E81882389F08F8198859C012F5FC4
:102630003F4F38872F838230924018F40E94BA129D
:10264000F3CFCE010E949F121E82CE010E94EE1295
:102650008CE291E00E94BD128F2D80640E94B01226
:1026600008E110E0D501C401002E04C0B695A7957D
:10267000979587950A94D2F70E94B01208501109D5
:10268000083F8FEF180771F785E9FF2021F028E058
:1026900087E8F2128FEF0E94B01210E00E94BA1287
:1026A0008A8787FF04C01F3F11F01F5FF7CFDF91BC
:1026B000CF911F910F91FF90BF90AF909F908F90FF
:1026C0000895AF92BF92CF92DF92EF92FF920F9355
:1026D0001F93CF93DF93EC016901C801820F931F11
:1026E0008130924050F58E81882379F088819981DC
:1026F000AA81BB8184179507A607B70731F48F819C
:102700009885C816D90608F042C0488359836A8361
:102710007B838B85833039F089E0440F551F661F1A
:10272000771F8A95D1F79A01AB0161E1CE010E9432
:102730000413882389F083E08D83CE010E949F12C9
:1027400080E0DF91CF911F910F91FF90EF90DF908C
:10275000CF90BF90AF9008950E94A60A5B010E949F
:10276000BA128A878F3F69F40E94A60A6A197B0908
:102770006D327140A0F38FE08D83CE010E949F12D5
:10278000DCCF8E3F89F418861F8281E08E838F8193
:1027900098858C159D0550F40E94BA128F819885FA
:1027A000019698878F83F3CF8DE0E6CF6701E00E27
:1027B000F11E0E94BA12F60181936F01EE15FF051A
:1027C000C1F78F819885080F191F18870F83898596
:1027D000882319F001151240A0F08E81882389F01A
:1027E0008F8198859C012F5F3F4F38872F838230E0
:1027F000924018F40E94BA12F3CFCE010E949F12A9
:102800001E8281E09ECFCF92DF92EF92FF920F93D4
:10281000CF93DF93EC01690182E141155105610518
:10282000710599F08B85833039F089E0440F551F8D
:10283000661F771F8A95D1F79A01AB0168E1CE0137
:102840000E940413882319F084E08D832DC08EEF3D
:102850000E94B01276018EEFD81AF70181917F01A4
:102860000E94B012EC14FD04C1F78FEF0E94B01269
:102870008FEF0E94B0120E94BA128A878F71853042
:1028800071F4011116C0CE010E949F1281E0DF9108
:10289000CF910F91FF90EF90DF90CF90089581E15D
:1028A0008D83CE010E949F12CE010E949F1280E074
:1028B000EECF88E592E00E94BD12811102C085E151
:1028C000C4CF20E030E0A9016DE0CE010E940413E6
:1028D000882311F084E1B9CF0E94BA128111FACF96
:1028E000D2CF0F934091D8175091D9176091DA1732
:1028F0007091DB17411551056105710599F0082F9D
:1029000026E438E180914418909145180E94031400
:10291000882349F01092D8171092D9171092DA171D
:102920001092DB1781E00F9108950F93CF93C82F7A
:102930008091D717811105C0C1E08C2FCF910F91E5
:1029400008954091260150912701609128017091CE
:1029500029010C2F26E438E1809144189091451804
:102960000E940314811102C0C0E0E7CFCC2321F301
:1029700081E00E9471148823B9F31092D717DDCF3C
:102980008F929F92AF92BF92EF92FF920F931F93FD
:10299000CF934B015C01C42F8091260190912701B8
:1029A000A0912801B091290188159905AA05BB05B8
:1029B00051F181E00E94951481110BC080E0CF910C
:1029C0001F910F91FF90EF90BF90AF909F908F90CD
:1029D000089586E4E82E88E1F82E00E012E030E069
:1029E00020E0B501A40180914418909145180E94FF
:1029F0006113882319F38092260190922701A092F7
:102A00002801B09229014091D7174C2B4093D7173A
:102A100081E0D5CFCF93DF93EC016E857F858889E8
:102A2000998941E00E94C014882351F08A8920E2EC
:102A3000829FC00111248A5B974EDF91CF91089548
:102A400090E080E0FACF8F929F92AF92BF92CF92A8
:102A5000DF92EF92FF92CF9326E13FE1309345184A
:102A600020934418882309F46DC040E060E070E0D2
:102A7000CB010E94C01481110BC080E0CF91FF9068
:102A8000EF90DF90CF90BF90AF909F908F90089580
:102A90008091041A8F7789F78091101A9091111AFA
:102AA000A091121AB091131A84369105A105B105AF
:102AB00020F3C0900C1AD0900D1AE0900E1AF090EE
:102AC0000F1AC114D104E104F104B9F240E0C701C6
:102AD000B6010E94C014882381F280915118909110
:102AE00052188115924049F6A0915618AA2329F24E
:102AF00060915418709155186115710509F4BDCF96
:102B000020915318222309F4B8CFA093341F2093A7
:102B1000261F90E080E030E0E1E0F0E0C82FAF0158
:102B2000082E02C0440F551F0A94E2F724173507F8
:102B300069F041E0480F01968930910579F740939B
:102B40002F1F9BCFC12CD12C7601C0CF80932F1F7C
:102B500020915C1830915D1850E040E0211531055E
:102B600041F420916A1830916B1840916C18509183
:102B70006D182093271F3093281F4093291F5093CF
:102B80002A1F46015701860E971EA11CB11C809278
:102B9000351F9092361FA092371FB092381FE091D8
:102BA0005718F0915818F0933B1FE0933A1FB0E08C
:102BB0000E942B6BDC01CB01880D991DAA1DBB1D4A
:102BC00080933C1F90933D1FA0933E1FB0933F1FE7
:102BD00025E0EE0FFF1F2A95E1F7E150FE4FEF2FA2
:102BE000FF27E6958E0F9F1FA11DB11D8093301FFB
:102BF0009093311FA093321FB093331F80905918C8
:102C000090905A18B12CA12C8114910441F4809019
:102C1000661890906718A0906818B0906918C81A44
:102C2000D90AEA0AFB0AC80CD91CEA1CFB1C04C01E
:102C3000F694E794D794C794CA95D2F7C0922B1F05
:102C4000D0922C1FE0922D1FF0922E1F85EFC816F8
:102C50008FE0D806E104F10428F48CE08093391F5A
:102C600081E00CCF80E125EFC2162FEFD206E10400
:102C7000F104A0F38091721890917318A0917418C8
:102C8000B091751880933C1F90933D1FA0933E1FF9
:102C9000B0933F1F80E2E2CF4F925F926F927F929C
:102CA0008F929F92AF92BF92CF92DF92EF92FF925C
:102CB0000F931F93CF93DF93EC01423051056105D1
:102CC000710590F480E0DF91CF911F910F91FF90FB
:102CD000EF90DF90CF90BF90AF909F908F907F90BC
:102CE0006F905F904F90089589859A85AB85BC85DC
:102CF0000196A11DB11D84179507A607B70710F30C
:102D0000CB88DC88ED88FE888F89803109F042C04D
:102D1000BB27A72F962F852F480159012A013B0178
:102D2000C80ED91EEA1EFB1E809126019091270134
:102D3000A0912801B0912901C816D906EA06FB0620
:102D400099F58F898031C1F5B301A2015527662716
:102D50007727440F551F4A5B574EFA0191828082B4
:102D60008091D71781608093D7178A89823080F04D
:102D70008D819E81AF81B8858C0D9D1DAE1DBF1DBF
:102D80008093D8179093D917A093DA17B093DB17D5
:102D900081E099CFDB01CA01E7E0B695A795979549
:102DA0008795EA95D1F7B8CF40E0C701B6010E94F8
:102DB000C0148111C6CF86CFB301A2014F7755272A
:102DC00066277727440F551F440F551F4A5B574E00
:102DD000FA0180829182A282B382C2CF8F929F92A7
:102DE000AF92BF92CF92DF92EF92FF920F931F9319
:102DF000CF93DF93FC0181859285A385B4850196ED
:102E0000A11DB11D84179507A607B70770F480E0D0
:102E1000DF91CF911F910F91FF90EF90DF90CF90B6
:102E2000BF90AF909F908F90089583889488A588D5
:102E3000B6888789803189F5BB27A72F962F852FE4
:102E4000E9016A017B018F01BC01CD01680D791D8B
:102E50008A1D9B1D8090260190902701A09028013B
:102E6000B090290186169706A806B90601F5F80163
:102E70008789803111F5DD24EE24FF24F601EE0F61
:102E8000FF1FEA5BF74E80819181B0E0A0E088836C
:102E90009983AA83BB8381E0BBCFDB01CA01C7E072
:102EA000B695A79597958795CA95D1F7C9CF40E074
:102EB0000E94C0148111DBCFAACFE894C7F8DD24AB
:102EC000EE24FF24F601EE0FFF1FEE0FFF1FEA5B5B
:102ED000F74E80819181A281B381BF70D8CF4F928C
:102EE0005F926F927F92AF92BF92CF92DF92EF92FA
:102EF000FF920F931F93CF93DF9300D000D0CDB7F5
:102F0000DEB78C0149835A836B837C835901C12CC2
:102F1000D12C7601412C82E0582E612C712C4981F4
:102F20005A816B817C819E012F5F3F4FC8010E94B7
:102F3000EE16882339F1F8018585A301920104C0BA
:102F4000220F331F441F551F8A95D2F7DA01C9019A
:102F5000C80ED91EEA1EFB1E49815A816B817C81F5
:102F60008789803111F188EF9FEFAFEFBFE04817FD
:102F700059076A077B0798F2F501C082D182E28285
:102F8000F38281E00F900F900F900F90DF91CF911F
:102F90001F910F91FF90EF90DF90CF90BF90AF9077
:102FA0007F906F905F904F90089588EF9FEFA0E023
:102FB000B0E0DDCFCF93DF93FC012581222321F008
:102FC00080E0DF91CF910895EC018091391F80312D
:102FD00059F582E08583178A108E118E128E8091AA
:102FE0003A1F90913B1FB0E0A0E025E0880F991FA9
:102FF000AA1FBB1F2A95D1F7838B948BA58BB68B09
:1030000082E29FE19C8F8B8F81E08C831E821F82E6
:10301000188619861A861B861C861D861E861F86A4
:10302000188A198A1A8ACDCF803251F683E08583B7
:1030300040913C1F50913D1F60913E1F70913F1F7A
:10304000478B508F618F728F9F012D5E3F4F82E2C1
:103050009FE10E946F178111D3CFB2CF8F929F92C1
:10306000AF92BF92CF92DF92EF92FF920F931F9396
:10307000CF93DF93EC018D8181110EC080E0DF9151
:10308000CF911F910F91FF90EF90DF90CF90BF9065
:10309000AF909F908F9008950B891C892D893E8950
:1030A000041715072607370748F34A015B018230EA
:1030B00031F48A869B86AC86BD8681E0E0CF8114A0
:1030C0009104A104B10449F41E821F821886198656
:1030D0001A861B861C861D86F0CF0A851B852C85CB
:1030E0003D85EB8DFC8D858590E00996B901A801A1
:1030F0004150510961097109082E04C07695679500
:10310000579547950A94D2F775016401E1E0CE1A0C
:10311000D108E108F10804C0F694E794D794C79465
:103120008A95D2F7C416D506E606F70620F0012BDD
:10313000022B032B11F58F89988DA98DBA8D8E8363
:103140009F83A887B9878E010A5F1F4FC114D104DE
:10315000E104F10409F4ADCF4E815F816885798582
:1031600098018B8D9C8D0E94EE1691E0C91AD108B2
:10317000E108F1088111EACF81CFC41AD50AE60A25
:10318000F70AE1CF3F924F925F926F927F928F92B8
:103190009F92AF92BF92CF92DF92EF92FF920F93E6
:1031A0001F93CF93DF93CDB7DEB72C970FB6F8946C
:1031B000DEBF0FBECDBF5C01DC015B968D909C90A5
:1031C0005C9716964D905D906D907C901997411488
:1031D00051046104710409F468C0BFEF4B1A5B0A23
:1031E0006B0A7B0A312CF40181859285A385B48515
:1031F0009C01AD012F5F3F4F4F4F5F4F29873A87AB
:103200004B875C87730162011D821E821F821886B4
:10321000F40181859285A385B4852D813E814F81FE
:103220005885281739074A075B0708F056C0898573
:103230009A85AB85BC858C159D05AE05BF0550F400
:1032400082E0C82ED12CE12CF12C92E0492E512C99
:10325000612C712C9E012F5F3F4FB701A601C40165
:103260000E94EE168823C9F189819A81AB81BC81C5
:10327000892B8A2B8B2B09F1260137019FEF491AE5
:10328000590A690A790A2D813E814F8158852F5F3D
:103290003F4F4F4F5F4F2D833E834F8358873FEF04
:1032A000C31AD30AE30AF30AB3CFF4014080518072
:1032B000628073803324339496CFC414D504E6041B
:1032C000F70409F70FEF1FEF2FEF3FE0B701A6015B
:1032D000C4010E944C16811119C080E02C960FB6D3
:1032E000F894DEBF0FBECDBFDF91CF911F910F913C
:1032F000FF90EF90DF90CF90BF90AF909F908F9016
:103300007F906F905F904F903F900895D5011696F3
:103310004D915D916D917C91199741155105610514
:10332000710539F097018601C4010E944C1688236B
:10333000A1F2D5011696CD92DD92ED92FC921997ED
:10334000332051F0D701C6010196A11DB11DF40132
:1033500080839183A283B383F5018789908DA18DAA
:10336000B28D892B8A2B8B2B39F48481C78AD08E1E
:10337000E18EF28E80688483F5018481806284838B
:1033800081E0ACCF2F923F924F925F926F927F92EB
:103390008F929F92AF92BF92CF92DF92EF92FF9265
:1033A0000F931F93CF93DF93EC015B012A018D8173
:1033B000811115C08FEF9FEFDF91CF911F910F917A
:1033C000FF90EF90DF90CF90BF90AF909F908F9045
:1033D0007F906F905F904F903F902F9008958C81D9
:1033E00080FFE8CF0B891C892D893E894A855B8542
:1033F0006C857D85C201B0E0A0E068017901C41A46
:10340000D50AE60AF70AC816D906EA06FB0618F432
:103410002801441A550A42011E0126E0220E311CE1
:103420008114910409F4B3C04A855B856C857D8560
:103430006A0181E0D8228B8D9C8D8A019B01E9E095
:103440003695279517950795EA95D1F7ED81E230E6
:10345000E1F5FC01628D738D848D958D600F711F78
:10346000821F931F612C22E0722E6C187D08861437
:10347000970408F434012C8126FD04C06114F2E0A5
:103480007F0671F4009126011091270120912801F7
:1034900030912901061717072807390709F053C08B
:1034A00040E00E94C014882309F484CFC6018A5BDF
:1034B000974ED5019C01260D371DFC012E173F07A5
:1034C00009F460C041914D93F9CFFC0174807A9466
:1034D0007022C114D10471F471100CC0452B462B1D
:1034E000472B39F58F89988DA98DBA8D8E839F834F
:1034F000A887B987EB8DFC8D6E817F818885998542
:103500006250710981099109258504C0660F771FF2
:10351000881F991F2A95D2F706851785208931893A
:10352000600F711F821F931F670D711D811D911DFB
:1035300099CF4E815F816885798591010E94EE1651
:103540008111D8CF37CF750183019601AB01BC0142
:1035500080914418909145180E946113882309F4C2
:1035600029CFA60CB71C8A859B85AC85BD85860DA9
:10357000971DA11DB11D8A879B87AC87BD878618C3
:1035800097084ECF281B390BA20EB31EECCFC201F9
:1035900013CF1F93CF93DF93FC012581222371F179
:1035A000162FEC01848187FF1EC0CF010E940A15EF
:1035B000FC01892B19F18D81823040F48B899C8923
:1035C000AD89BE89848F958FA68FB78F8F89988D8F
:1035D000938F828F8F89988DA98DBA8DB58BA48B8F
:1035E0008C818F778C83111103C08C818F7E8C83AB
:1035F000812FDF91CF911F910C94951480E0DF9182
:10360000CF911F910895FF920F931F93CF93DF9354
:10361000EC018D81813041F090E080E0DF91CF912D
:103620001F910F91FF9008958C8181FFF5CF82FD4E
:103630001BC00091441810914518C8010E94EE1259
:103640000E94BA12F82EC8010E949F128FEFF81242
:10365000E3CF8C8185FF1BC060E0CE010E94C91AB8
:103660008C818F7D8C83D8CF4B895C896D897E89D5
:103670008A859B85AC85BD8584179507A607B70706
:10368000C1F2CE010E942E188111D3CFC5CF409137
:10369000D8175091D9176091DA177091DB17452B25
:1036A000462B472B21F080E00E947114B5CF80613A
:1036B0008C832A853B85317080E092E0821B930BDE
:1036C000ADCFCF93DF93EC0161E00E94C91A88234C
:1036D00011F01D8281E0DF91CF910895CF92DF92AA
:1036E000EF92FF921F93CF93DF938091451F882322
:1036F00021F080E49FE10E94611B1092211F109233
:103700001F1F10921C1F10921B1F83E080931A1F13
:103710000E94A60AEB0161E080911A1F0E94C20973
:1037200061E080911A1F0E9494090E941D1282E597
:103730008093141F81E08093151F8091141F909136
:10374000151F0E94D8121AE08FEF0E94B01211507C
:10375000D9F78091431881110E94921286E19FE16E
:103760000E94EE1220E030E0A90160E086E19FE1D6
:103770000E940413182F8093201F813081F00E9433
:10378000A60A6C1B7D0B613D774060F381E080935E
:103790001B1F86E19FE10E949F1290E078C02AEAF9
:1037A00031E040E050E068E086E19FE10E940413D0
:1037B00082FF2AC01093211F8091211FC12CD12C80
:1037C0007601823029F4C12CD12CE12C80E4F82E32
:1037D00020E030E0A90167E386E19FE10E94041345
:1037E000A701960169E286E19FE10E94041380939C
:1037F000201F8823C1F00E94A60A6C1B7D0B613D2F
:10380000774030F388E0C3CF14E00E94BA1280936F
:10381000201F1150D1F78A3A11F082E0B8CF82E030
:103820008093211FC9CF8091211F8230D1F420E0E5
:1038300030E0A9016AE386E19FE10E940413882336
:1038400011F086E0A4CF0E94BA12807C803C19F46B
:1038500083E08093211F0E94BA120E94BA120E9434
:10386000BA1286E19FE10E949F1280E58093141FA7
:1038700081E08093151F0E942315882389F080E43E
:103880009FE10E94DA1791E0882309F486CF892FFF
:10389000DF91CF911F91FF90EF90DF90CF9008952F
:1038A00080E00E942315882309F477CFE8CF2F9278
:1038B0003F924F925F926F927F928F929F92AF92C0
:1038C000BF92CF92DF92EF92FF920F931F93CF930D
:1038D000DF9300D000D01F92CDB7DEB77C015B0133
:1038E000342E5D83DC0115968C911597813009F09B
:1038F000CEC014962C9021FECAC022FCB4C0C32CAA
:10390000DD8022947FE027222094B22DB1702B2EEF
:10391000D7011A964D915D916D917C911D97C114BF
:10392000D10409F428C15B968D919C915C97FC01B0
:1039300074807A948A019B0169E0369527951795E2
:1039400007956A95D1F770228A011170711020C015
:1039500001151105E9F416964D915D916D917C91DB
:103960001997411551056105710509F099C05796E0
:103970008D919D910D90BC91A02D0097A105B10551
:1039800009F0B0C0C7010E94C218882309F47FC0A3
:1039900080E092E0801B910B46018C159D0508F498
:1039A0004C01D7015B964D915C915C9716968D9179
:1039B0009D910D90BC91A02D0297A109B109FA012A
:1039C000258504C0880F991FAA1FBB1F2A95D2F70F
:1039D0004685578560897189840F951FA61FB71F7B
:1039E0009C01AD01270D311D411D511D29013A01D9
:1039F000811432E0930609F07BC0809126019091FA
:103A00002701A0912801B091290184159505A605EB
:103A1000B70559F48FEF9FEFDC0180932601909357
:103A20002701A0932801B0932901022D9501B3012C
:103A3000A20180914418909145180E940314882394
:103A400031F19EEFB91AC818D908F701828593851C
:103A5000A485B585880D991DA11DB11D8287938709
:103A6000A487B58755CFF70143895489658976893D
:103A700082859385A485B585481759076A077B0712
:103A800009F43DCFC7010E942E18811138CF81E083
:103A900090E0D70113969C938E93129780E007C015
:103AA0009E012F5F3F4F0E94EE16811102C090E0F1
:103AB00079C089819A81AB81BC81F701238D348DD6
:103AC000F901278948EF5FEF60E070E0203121F0D5
:103AD00048EF5FEF6FEF7FE084179507A607B70702
:103AE00008F050CFF70186839783A087B18750CF26
:103AF0000115110599F5D7011A964D915D916D91BA
:103B00007C911D9753968D919D910D90BC91A02D08
:103B1000481759076A077B0708F181E00E9495144E
:103B2000882309F4B4CF4092260150922701609275
:103B30002801709229018091D71781608093D7174F
:103B4000C8018A5B974ED5019C01280D391DFC01E7
:103B50002E173F0759F04D914193FACF41E0C30131
:103B6000B2010E94C0148111EBCF91CF281B390BF9
:103B7000A20EB31E68CFF70183899489A589B689FF
:103B800084179507A607B70738F48481438B548BB5
:103B9000658B768B80688483F701848183FD1AC0EE
:103BA000832D9D810F900F900F900F900F90DF91BC
:103BB000CF911F910F91FF90EF90DF90CF90BF902A
:103BC000AF909F908F907F906F905F904F903F90BD
:103BD0002F90089561E0C7010E94C91A882309F453
:103BE00056CFDECFCF93DF931F92CDB7DEB7698379
:103BF00041E050E0BE016F5F7F4F0E94571C0F9065
:103C0000DF91CF910895FC01DB0112968D919C917B
:103C100013979383828384EC91E09183808314963D
:103C20008C911497848315968C911597858316969D
:103C30004D915D916D917C91199746835783608773
:103C400071871A964D915D916D917C911D97428778
:103C50005387648775871E964D915D916D917C9118
:103C6000519746875787608B718B52968C915297EC
:103C7000828B53964D915D916D917C915697438BBC
:103C8000548B658B768B57964D915D916D917C91A0
:103C90005A97478B508F618F728F5B968D919C9155
:103CA000948F838F0895DC015996ED91FC913097A4
:103CB00021F081E09581911101C080E00895FC011F
:103CC000818D928D009719F061E00C94C91A0895C6
:103CD000DC015996ED91FC913097B9F08389948974
:103CE000A589B6894285538564857585841B950BA6
:103CF000A60BB70B811520E89207A105B10538F096
:103D00008FEF9FE7A0E0B0E0089590E080E0089595
:103D1000DC0159968D919C91009739F0DC01ED9171
:103D2000FC910480F581E02D099490E080E00895F5
:103D3000CF93DF93EC01E98DFA8D309749F481E060
:103D400090E09B838A8390E080E0DF91CF9108959B
:103D500013821282898D9A8D0E94571CE98DFA8DEB
:103D600022813381232B59F7F0CFCF93DF931F921A
:103D7000CDB7DEB76983DC01ED91FC910280F38160
:103D8000E02D41E050E0BE016F5F7F4F09950F903D
:103D9000DF91CF910895CF93DF931F92CDB7DEB718
:103DA00041E050E0BE016F5F7F4F0E94C219019752
:103DB00031F4898190E00F90DF91CF9108958FEFDA
:103DC0009FEFF9CF1F93CF93DF93FC012581223022
:103DD00030F490E080E0DF91CF911F910895EC01E5
:103DE000428553856485758585E0769567955795F9
:103DF00047958A95D1F7142F1F70CF010E94CB1ED3
:103E000097FDE7CF8A859B85AC85BD854F96A11D23
:103E1000B11D8A879B87AC87BD87F0E21F9FC001D9
:103E200011248A5B974ED7CFFC01818D928D00972C
:103E300011F00C94CB1E8FEF9FEF08950F931F93FB
:103E4000CF93DF93EC01898D9A8D10E000E000970D
:103E500099F00E94CB1E8C010F3F100769F0898DED
:103E60009A8DFC01428553856485758541505109C1
:103E7000610971090E942E18C801DF91CF911F912D
:103E80000F910895CF93DF93EC01FB018281938121
:103E90009B838A8384819581A681B7818C839D834E
:103EA000AE83BF8380859185A285B38588879987F6
:103EB000AA87BB8780ED91E0998388838DE03C964B
:103EC000DE011C9601900D928A95E1F7FB01818D30
:103ED000928D9A8F898FDF91CF910895CF92DF9243
:103EE000EF92FF92CF93DF9360E08DE10E94C209D1
:103EF0008DE10E94F309B0E0A0E0BC01CD01660FA6
:103F0000771F881F991F0E94D76923E333E343E596
:103F100050E40E94386A20E030E048EC52E40E940D
:103F2000386A20E030E84FEF53E40E94706B20E0E5
:103F300030EC4FE754E40E94DC6B0E94556CCB01DF
:103F400064E670E00E949A6CEB01BC0190E080E0B6
:103F50000E94D76920E030E048EC52E40E94DC6B1C
:103F60006B017C01BE0190E080E00E94D7699B015B
:103F7000AC01C701B6010E94706BDF91CF91FF9039
:103F8000EF90DF90CF90089560E080E00E94940968
:103F900068EB7BE080E090E00E942D0A61E080E029
:103FA0000C949409CF93DF9380B7806880BF61E061
:103FB0008EE00E94940962E370E080E090E00E944D
:103FC0002D0A88E10E94F309EC0160E08EE00E9476
:103FD0009409BE01DD0F880B990B0E94D96923EA71
:103FE00036E043E55BE30E94386A2EEB3FE94AEA9C
:103FF0005FE30E94386ADF91CF910895CF93DF93FA
:10400000FB0122813381DC0113963C932E9312979E
:10401000448155816681778114964D935D936D93AC
:104020007C931797408551856285738518964D93CB
:104030005D936D937C931B971C96EF012C969C01CE
:10404000275E3F4F49914D93A217B307D9F7218DB2
:10405000328DFC01328F218FDF91CF910895CF9364
:10406000DF9387EF9CE10E947B0889EF92E20E9438
:104070006C0B80B78F7780BFCAE7D0E088818F77DD
:104080008883F89485B7806885BF85B7806885BFC9
:10409000789461E081E00E9494098CB58F7B8CBD9F
:1040A00061E085E00E94C20960E085E00E94940919
:1040B00083B7817F846083BF83B7816083BF789437
:1040C000EBE6F0E0808184608083E8E6F0E08081C8
:1040D0008160808383B7816083BF889583B78E7F3B
:1040E00083BF88818068888360E081E00E949409B2
:1040F0008CB580648CBD40E051EE60E070E087EFED
:104100009CE10E944A0768EE73E080E090E0DF9156
:10411000CF910C942D0A90E080E00895282F30E094
:1041200094E0359527959A95E1F7922F990F990F7D
:10413000291B220F820F089581E08093B01A88E630
:104140008093D11A1092D71A1092D61A60E086E5A1
:1041500094E20E94D41181E00E94BE0F811142C0FE
:1041600067E088E60E94AE101092D91A8093D81AA0
:1041700086E594E20E948D118F770E948E208093B5
:104180005D1A86E594E20E948D110E948E20809334
:104190005E1A86E594E20E948D118F7B0E948E202C
:1041A00080935F1A86E594E20E948D118093601AD5
:1041B00086E594E20E948D110E948E208093611A00
:1041C00086E594E20E948D118F770E948E20809365
:1041D000621A86E594E20E948D110E948E20825E12
:1041E0008093631A80915D1A8093381380915E1AD0
:1041F00080933B1880915F1A80933C188091611ADC
:1042000080933B138091621A80933C138091631AD0
:1042100090E08E54984F90933A138093391362E351
:1042200070E080E090E00C942D0ACF9391E09093A1
:10423000B01A98E69093D11A1092D71A1092D61A03
:10424000682F86E594E20E94D41181E00E94BE0F9F
:1042500081110DC061E088E60E94AE101092D91A5B
:104260008093D81A86E594E20E948D11C82F8C2F76
:10427000CF9108951F93CF93DF9381E08093B01A7D
:1042800088E68093D11A1092D71A1092D61A60E05D
:1042900086E594E20E94D411CDE5DAE128811AE0A6
:1042A000822F612F0E948E6C682F660F680F660F39
:1042B000620F86E594E20E94D4112981822F612F3A
:1042C0000E948E6C682F660F680F660F620F86E57E
:1042D00094E20E94D4112A81822F612F0E948E6C59
:1042E000682F660F680F660F620F86E594E20E94E2
:1042F000D4116B8186E594E20E94D4112C81822F27
:10430000612F0E948E6C682F660F680F660F620F18
:1043100086E594E20E94D4112D81822F612F0E94A4
:104320008E6C682F660F680F660F620F86E594E249
:104330000E94D4112E812E51822F612F0E948E6CEB
:10434000682F660F680F660F620F86E594E20E9481
:10435000D41181E00E94BE0FC82F8FE00E9415216A
:10436000682F6F778FE00E9403128C2FDF91CF911F
:104370001F910895CF93DF93C82FD62F8EE00E9410
:1043800015214C2F4150550B61E070E001C0660FC4
:104390004A95EAF7DD2331F0682B8EE0DF91CF916B
:1043A0000C94031260956823F8CFCF93DF93C82F46
:1043B0008FE00E941521C150DD0B21E030E001C0EB
:1043C000220FCA95EAF7982F922351F02095622F79
:1043D00068238FE00E94031281E0DF91CF9108955E
:1043E00080E0FBCFCF9382E10E941521C82F81E1AD
:1043F0000E9415212C2F382F37FF02C0215C3F4F20
:10440000C90126E0959587952A95E1F7CF91089502
:104410008F929F92AF92BF92CF92DF92EF92FF92D4
:104420000F931F93CF93DF9300D000D0CDB7DEB7AB
:10443000FC018581813091F080E00F900F900F900A
:104440000F90DF91CF911F910F91FF90EF90DF9030
:10445000CF90BF90AF909F908F900895848181FFFF
:10446000EBCF83899489A589B689892B8A2B8B2BDD
:1044700009F45FC07F0140E050E0BA01CF010E9423
:104480002E188823C9F2F701C38CD48C8788908CAE
:10449000A18CB28C82E090E0A0E0B0E0F6018083D5
:1044A0009183A283B3839E012F5F3F4FB501A40187
:1044B000C6010E94EE16882309F4BECF00E010E08A
:1044C0009801B501A401C6010E944C16882309F485
:1044D000B3CF89809A80AB80BC80F6018789803118
:1044E00019F188EF9FEFAFEFBFE088169906AA0693
:1044F000BB06C8F2F701178A108E118E128E138A2E
:10450000148A158A168A84818068848361E0C701D1
:104510000E94C91A882309F48FCF40E050E0BA0105
:10452000C7010E942E1889CF88EF9FEFA0E0B0E06E
:10453000DCCF81E082CFCF93DF93EC010E94082291
:10454000882371F0CE010E940A15009749F025EEEC
:10455000FC0120831D8281E0DF91CF910C949514A2
:1045600080E0DF91CF910895CF92DF92EF92FF929A
:104570001F93CF93DF93EC0180E2689FF001112439
:10458000EA5BF74E9385917161F0842F827449F054
:1045900080E0DF91CF911F91FF90EF90DF90CF905F
:1045A0000895142F6A8B8091260190912701A09184
:1045B0002801B09129018E879F87A88BB98BC48869
:1045C000D588F12CE12C7601DD24CC24CF8AD88E3D
:1045D000E98EFA8E828D938DB0E0A0E0AC01BD0132
:1045E0004C295D296E297F294F8B588F698F7A8FCF
:1045F00083858871B1F4848D958DA68DB78D8B8B55
:104600009C8BAD8BBE8B81E08D831F701C831E82C3
:104610001F82188619861A861B861C861D8681E0D5
:10462000B8CF803109F0B4CF9E012D5E3F4F8B8D06
:104630009C8D0E946F17882309F4AACF84E0E4CFF1
:104640002F923F924F925F926F927F928F929F92A2
:10465000AF92BF92CF92DF92EF92FF920F931F9390
:10466000CF93DF9300D000D000D0CDB7DEB78C0160
:104670006B8349838091EC2022242394280E20927E
:10468000EC20312CC12CD12C7601D3947724739457
:10469000730C8091EF20831508F4EFC08091E52022
:1046A0009091E620DC01ED91FC91008CF18DE02DE4
:1046B000622D09958091E5209091E620DC01ED9135
:1046C000FC91028CF38DE02D40E860E00995498172
:1046D0006B81C8010E9493070E948807B981BF3F80
:1046E000D1F481E026960FB6F894DEBF0FBECDBFA1
:1046F000DF91CF911F910F91FF90EF90DF90CF90BE
:10470000BF90AF909F908F907F906F905F904F90F1
:104710003F902F90089521E0271598F48091E8208C
:104720009091E920A091EA20B091EB200196A11D83
:10473000B11D8093E8209093E920A093EA20B093E4
:10474000EB200E94A60A4B015C018091ED20909124
:10475000EE209D838C830E94EA68A70196010E9447
:104760000C6B9B01AC01AC81BD810E942B6BA7013E
:1047700096010E940C6BAC81BD812A0F3B1F372C28
:104780002901712C612C0E94A60A681979098A09ED
:104790009B09641575058605970508F077CF80910C
:1047A000E5209091E620DC01ED91FC910280F381FF
:1047B000E02D0995882339F38091E5209091E6203A
:1047C000DC01ED91FC910480F581E02D50E040E0AA
:1047D00070E060E009958823B1F28091E520909126
:1047E000E620DC01ED91FC9100A0F1A1E02D0995FE
:1047F0008E838091E5209091E620DC01ED91FC9183
:10480000068CF78DE02D09958A838091E5209091A3
:10481000E620DC01ED91FC9102A0F3A1E02D0995C9
:104820008C838091E5209091E620DC01ED91FC9154
:1048300004A0F5A1E02D0995B9812E81B2130BC01A
:104840009091E720AA819A1306C087FF04C0BC811B
:104850002B1609F446CF87FD96CF2E81E22FF0E08C
:10486000EB51FF4D83859C8189138DCF422F692F9A
:1048700085EE90E20E94710D86CF80E033CF0F93DA
:104880001F93CF93DF934115510541F0FC01048143
:1048900015810115110539F4FB011082DF91CF91CB
:1048A0001F910F910895415051094017510708F485
:1048B0008A01EB01FC0160817181A801CE010E9497
:1048C000D96DC00FD11F1882E9CFFB0101900020E4
:1048D000E9F73197AF01461B570BDC01ED91FC91D5
:1048E0000280F381E02D09948F929F92AF92BF9244
:1048F000EF92FF920F931F93CF93DF93CDB7DEB765
:10490000A1970FB6F894DEBF0FBECDBF7C01FA01B0
:10491000CB0119A2223008F42AE08E010F5D1F4F4F
:10492000822E912CB12CA12CBF01A50194010E94D3
:104930003E6BF901CA016A300CF5605DD8016E93D7
:104940008D01232B242B252B79F790E080E0109705
:1049500021F0BD01C7010E946524A1960FB6F8940D
:10496000DEBF0FBECDBFDF91CF911F910F91FF90A2
:10497000EF90BF90AF909F908F900895695CDECFCD
:10498000482F50E070E060E02AE087EF9CE10C9453
:104990007424CF92DF92EF92FF920F931F93CF93E5
:1049A000DF9377FF1DC06A017B01EC016DE20E947D
:1049B000D7078C0144275527BA014C195D096E09A8
:1049C0007F092AE0CE010E947424800F911FDF919D
:1049D000CF911F910F91FF90EF90DF90CF900895AE
:1049E0002AE0DF91CF911F910F91FF90EF90DF9020
:1049F000CF900C94742469E678E00C946524CF93EE
:104A0000DF930E94C024EC0187EF9CE10E94FB240D
:104A10008C0F9D1FDF91CF910895CF92DF92EF927F
:104A2000FF92CF930E94A60A6B017C0128E9C20E77
:104A30002AE3D21EE11CF11CC0926A13D0926B13C0
:104A4000E0926C13F0926D13109283131092821304
:104A5000109269130E94A60A6C157D058E059F05AC
:104A600048F587EF9CE10E9460081816190694F734
:104A700064E670E080E090E00E942D0A87EF9CE100
:104A80000E9460086C019093831380938213F12C31
:104A9000CAE0E0906913FC141D0464F487EF9CE104
:104AA0000E943F08EC9E800D11248053809369136F
:104AB000F394EFCF80916913CF91FF90EF90DF9047
:104AC000CF900C94FF24CF93DF93AB01BC012AE07D
:104AD00087EF9CE10E947424EC0187EF9CE10E9427
:104AE000FB248C0F9D1FDF91CF9108950F931F938F
:104AF000CF93DF93EC01AB01770F660B770B0E942E
:104B0000C9248C01CE010E94FB24800F911FDF91EC
:104B1000CF911F910F910895CF92DF92EF92FF9264
:104B20000F931F93CF93DF931092831310928213EE
:104B30000E94A60A6B017C0128E9C20E2AE3D21E5C
:104B4000E11CF11CC0926A13D0926B13E0926C13BB
:104B5000F0926D1310926813109267130E94A60AC8
:104B60006C157D058E059F0508F046C087EF9CE11A
:104B70000E946008181619068CF764E670E080E061
:104B800090E00E942D0A87EF9CE10E9460088C0152
:104B9000909383138093821381E0809366133AE0AD
:104BA000C32ED0906613CD2DD0E0E0906713F09027
:104BB00068130C171D0704F187EF9CE10E943F0862
:104BC000CC0FDD1FC85ADC4E998388838D30910548
:104BD00079F08A30910561F0C097CE9C9001CF9C0E
:104BE000300D1124820F931F9093681380936713E5
:104BF000D394D0926613D5CF6091671370916813E8
:104C000087EF9CE10E9476256AE070E080E090E00A
:104C1000DF91CF911F910F91FF90EF90DF90CF9098
:104C20000C942D0A0F931F93CF93DF93EC010E94F6
:104C300065248C01CE010E94FB24800F911FDF911F
:104C4000CF911F910F910895CF92DF92EF92FF9233
:104C50000F931F93CF93DF930E94A60A6B017C01F1
:104C600028E9C20E2AE3D21EE11CF11C1092831324
:104C7000109282130E94A60A6C157D058E059F0571
:104C800068F587EF9CE10E9460081816190694F7F2
:104C900064E670E080E090E00E942D0A87EF9CE1DE
:104CA0000E946008EC019093831380938213F12C8F
:104CB0000F2D10E0C017D10774F087EF9CE10E9420
:104CC0003F088D3031F08A3021F0F801E259FC4E76
:104CD0008083F394EDCFC259DC4E18826EE673E107
:104CE00087EF9CE1DF91CF911F910F91FF90EF90A3
:104CF000DF90CF900C9412260F931F93CF93DF93E6
:104D0000EC01FB014481558160817181E881F98169
:104D10000280F381E02D09958C01CE010E94FB24D5
:104D2000800F911FDF91CF911F910F9108950F93E5
:104D30001F93CF93DF93EC010E94DE078C01CE011D
:104D40000E94FB24800F911FDF91CF911F910F9143
:104D50000895CF93DF93EC010E94EF0ABE0180918A
:104D6000E3209091E4200E94972680E0DF91CF918C
:104D70000C945F0ACF93DF93EB010E94A92688234E
:104D800041F0BE0189ED9FE10E94696921E0892B14
:104D900009F020E0822FDF91CF910895CF93DF9328
:104DA0009093E4208093E32061E08091D71F0E94DC
:104DB000C20961E08091D71F0E9494096AE070E007
:104DC00080E090E00E942D0A60E08091D71F0E9451
:104DD000940964E670E080E090E00E942D0A61E0B2
:104DE0008091D71F0E949409CEE0D0E08091E3200B
:104DF0009091E420DC01ED91FC910084F185E02D9F
:104E00000995892B61F08091E3209091E420DC01E9
:104E1000ED91FC910284F385E02D0995E7CF609137
:104E2000E1207091E22081E29EE00E94BA26811189
:104E300054C08091E3209091E420DC01ED91FC913D
:104E40000084F185E02D0995892B61F08091E320A4
:104E50009091E420DC01ED91FC910284F385E02D3A
:104E60000995E7CF6BE17EE08EE19EE00E94BA26D5
:104E7000811133C064EF71E080E090E00E942D0A60
:104E8000219709F0B3CF6091E1207091E22088E191
:104E90009EE00E94BA2664E670E080E090E00E9406
:104EA0002D0A6091E1207091E22085E19EE00E9450
:104EB000BA2664E670E080E090E00E942D0A6091DE
:104EC000E1207091E22082E19EE00E94BA2664E631
:104ED00070E080E090E00E942D0A6091E1207091E6
:104EE000E2208DE09EE00E94BA2664E670E080E059
:104EF00090E00E942D0A6091E1207091E22088E00C
:104F00009EE00E94BA26C82F882309F448C0609109
:104F1000E1207091E2208EEF9DE00E94BA2664E6C7
:104F200070E080E090E00E942D0A0E94EF0A6CE1A0
:104F300072E08091E3209091E4200E94122681E0AB
:104F40000E945F0A63EF7DE089ED9FE10E947B692B
:104F5000892B49F183E08093D81F8091D81F81303D
:104F6000B1F460E272E08091E3209091E4200E942D
:104F7000122681E00E945F0A65EB7DE089ED9FE1EA
:104F80000E947B69892B19F086E08093D81F60917D
:104F9000E1207091E2208EE99DE00E94BA268C2FDC
:104FA000DF91CF91089568EE7DE089ED9FE10E9449
:104FB0007B69892B11F082E0CECF6DED7DE089ED2C
:104FC0009FE10E947B69892B11F081E0C4CF6DECD9
:104FD0007DE089ED9FE10E947B69892B11F084E0DF
:104FE000BACF6DEB7DE089ED9FE10E947B69892B53
:104FF00009F4B3CF85E0AFCF61E471E087EF9CE1C6
:105000000E94DE07809132130E94C0246EE371E09B
:1050100087EF9CE10E94DE0780913213811106C068
:105020006FE271E087EF9CE10E9497268091321336
:10503000813031F46DE171E087EF9CE10E949726A9
:1050400080913213823031F462E071E087EF9CE1AD
:105050000E94972680913213833031F46BEF70E019
:1050600087EF9CE10E94972680913213843031F4BF
:1050700063EF70E087EF9CE10E94972680913213E6
:10508000853031F460EE70E087EF9CE10E94972656
:1050900064E670E080E090E00C942D0A61157105E3
:1050A00011F00C94652490E080E008951F93CF9355
:1050B000DF930E949C20809157138430A9F4409183
:1050C0003C18242F30E0C90102968231910509F481
:1050D0005BC0423131F468E170E00E94AE6CC82FD1
:1050E00012C0C9010496F7CF813071F4C0913C1809
:1050F0008C2F90E00196C23171F780913B1883327A
:1051000008F443C0C3E1D3E02AE08C2F622F0E9451
:105110008E6C182F110F180F110F1C0F8D2F0E945E
:105120008E6C682F660F680F660F6D0F8BE00E9404
:105130000312612F8CE00E94031260E88DE00E9450
:10514000031280912B018823B1F0809131188111D5
:1051500012C067E272E087EF9CE10E944E288C2F1C
:105160000E94C02465E07AE087EF9CE10E944E280F
:105170008D2F0E94FF2462E370E080E090E0DF91D9
:10518000CF911F910C942D0AC2E1D3E2BDCFCF93F2
:105190000E949C2020915513E22FF0E080913B1853
:1051A0008E0F9F2F911D6CE370E00E94AE6CBF01CB
:1051B0000E94AE6C269F202D11242F5F2093301368
:1051C000822F6AE00E948E6CC82FCC0FC80FCC0FC4
:1051D000C20F60E087E00E9403126C2F88E00E94FB
:1051E000031260E889E00E94031260E88AE00E94EE
:1051F000031280912B01882371F080913118811165
:105200000AC069E372E087EF9CE10E944E2880911A
:1052100030130E94FF2462E370E080E090E0CF91C1
:105220000C942D0ADF92EF92FF920F931F93CF936E
:10523000DF938B017A01D22E0E94A926B80189ED55
:105240009FE10E947B69EC01892BF9F0C8010E9463
:1052500072698C0F9D1FDD2039F06CE270E00E94B6
:10526000C76D009791F001960E944269F701918302
:10527000808380E00E945F0A81E0DF91CF911F91DF
:105280000F91FF90EF90DF90089580E0F6CFCF93DD
:10529000DF9300D0CDB7DEB721E0AE014F5F5F4FA7
:1052A0006DE87DE085E99DE00E941229882331F0B8
:1052B00089810F900F90DF91CF91089580E0F9CF11
:1052C000CF93DF9300D0CDB7DEB720E0AE014F5FC4
:1052D0005F4F6FE77DE086E89DE00E9412298823FA
:1052E00031F089810F900F90DF91CF91089580E088
:1052F000F9CF0E94AC6D0F931F93CF93DF93EC0116
:1053000088819981009759F02A813B8126173707B8
:1053100030F081E0DF91CF911F910F9108958B01C3
:105320006F5F7F4F0E94CB6C009759F09983888301
:105330001B830A832C813D81232B59F7FC011082AA
:10534000E8CF80E0E7CFEF92FF920F931F93CF93C8
:10535000DF936115710541F480E0DF91CF911F91DA
:105360000F91FF90EF90089541155105B1F07B0129
:10537000EC010C811D81040F151FB8010E947B29CF
:10538000882351F3288139818C819D81B701820F57
:10539000931F0E94D26D1D830C8381E0DECFEF92BC
:1053A000FF920F931F93CF93DF9300D000D0CDB720
:1053B000DEB77C01862F4AE08E010F5F1F4FB801D8
:1053C00090E00E949569F80101900020E9F731977B
:1053D000AF01401B510BB801C7010E94A3290F90D8
:1053E0000F900F900F90DF91CF911F910F91FF9031
:1053F000EF900895CF93DF9300D0CDB7DEB76983E8
:105400001A8241E050E0BE016F5F7F4F0E94A329E6
:105410000F900F90DF91CF910895FB010190002034
:10542000E9F73197AF01461B570B0C94A329FB01F9
:1054300044815581608171810C94A329CF93DF93BE
:10544000EC0188819981009711F00E9415681982FA
:1054500018821D821C821B821A82DF91CF910895CF
:10546000CF93DF93EC016115710539F4CE010E94F1
:105470001E2ACE01DF91CF910895FB0101900020FB
:10548000E9F73197AF01461B570B0E94A3298823E8
:1054900069F3EFCFCF93DF93EC01FB01448155819A
:1054A000608171810E94A329811103C0CE010E94F5
:1054B0001E2ACE01DF91CF910895EF92FF920F93B4
:1054C0001F93CF93DF93EC017B018A01BA010E9405
:1054D0007B2981110BC0CE010E941E2ACE01DF91D3
:1054E000CF911F910F91FF90EF9008951D830C8332
:1054F000B701888199810E94D26DF0CFFB010190A4
:105500000020E9F73197AF01461B570B0C945D2A39
:105510000F931F93CF93DF93CDB7DEB729970FB6C5
:10552000F894DEBF0FBECDBF8C01862FF80111822B
:10553000108213821282158214824AE0BE016F5FCC
:105540007F4F90E00E94A869BE016F5F7F4FC80146
:105550000E947E2A29960FB6F894DEBF0FBECDBFFB
:10556000DF91CF911F910F9108950F931F93CF93C8
:10557000DF93CDB7DEB762970FB6F894DEBF0FBEEC
:10558000CDBF8C01CB01F8011182108213821282EF
:10559000158214824AE0BE016F5F7F4F0E949569B9
:1055A000BE016F5F7F4FC8010E947E2A62960FB6D0
:1055B000F894DEBF0FBECDBFDF91CF911F910F9149
:1055C0000895CF93DF93C0E0D6E080915613C817BB
:1055D00058F4CD9FC001112464E572E08A5D9B4DB3
:1055E0000E947E2ACF5FF1CFDF91CF9108950F9374
:1055F0001F93CF93DF93CDB7DEB728970FB6F894FC
:10560000DEBF0FBECDBF64E572E08AE194E20E9486
:105610007E2A0E949C204AE08E010F5F1F4FB80136
:105620008091391390913A130E949569F801019085
:105630000020E9F73197AF01401B510BB8018AE117
:1056400094E20E94A3296DE28AE194E20E94FA2981
:1056500060913C138AE194E20E94CF296DE28AE1D5
:1056600094E20E94FA2960913B138AE194E20E943D
:10567000CF296FE58AE194E20E94FA2960913C18F3
:105680008AE194E20E94CF296AE38AE194E20E94CF
:10569000FA2910913B181A3028F460E38AE194E269
:1056A0000E94FA29612F8AE194E20E94CF296AE3DD
:1056B0008AE194E20E94FA29109138131A3028F4F2
:1056C00060E38AE194E20E94FA29612F8AE194E280
:1056D0000E94CF296BE472E08AE194E20E940D2AD5
:1056E00062E370E080E090E00E942D0A28960FB6F9
:1056F000F894DEBF0FBECDBFDF91CF911F910F9108
:105700000895CF93DF93EC01FB018617970749F0CB
:10571000608171816115710541F0448155810E945C
:105720005D2ACE01DF91CF9108950E941E2AF9CF04
:10573000FC011182108213821282158214820C9451
:10574000812BFC0111821082138212821582148235
:10575000FB0101900020E9F73197AF01461B570B81
:105760000C945D2AFC0180819181009711F00C94CA
:1057700015680895CF93DF93EC01898D9A8D00977A
:1057800041F00E94611B898D9A8D0E9415681A8EC6
:10579000198EDF91CF910895CF92DF92EF92FF9211
:1057A0000F931F93CF93DF93EC017B018A01E88174
:1057B000F9810280F381E02D0995D82E882329F103
:1057C000E114F104D1F001151105B9F0CFB6F89448
:1057D0008A8D8350990BF8012081281719061CF037
:1057E0008A8D84508083F801408150E0BE01615E63
:1057F0007F4FC7010E94BE6DCFBE8FB7F894FE01E8
:10580000E65EFE4F10821A8E8FBF8D2DDF91CF91F5
:105810001F910F91FF90EF90DF90CF900895EF923E
:10582000FF920F931F93CF93DF9300D01F92CDB7BA
:10583000DEB78C010E94530DE82E81110CC0E12CC3
:105840008E2D0F900F900F90DF91CF911F910F91A0
:10585000FF90EF900895F801808D8A3009F47EC0A2
:105860008B3009F47DC022E0F22E823041F740E80F
:1058700061E0C8010E94290B6AE070E080E090E0DE
:105880000E942D0A61E0C8010E94690C8038B9F6B7
:1058900060E0F801808D0E94C209F801818D8F3F80
:1058A00049F480912118843050F691E0980F90933C
:1058B0002118818FF801818DE82FF0E0EE0FFF1F96
:1058C000EE5DF74E118300836AE47DE0882349F0A2
:1058D00061E47DE0813029F0823009F0B0CF68E3E7
:1058E0007DE08F2D0E94B60740E06EE0C8010E9467
:1058F000290B40E06FE0C8010E94290BC8010E94FB
:10590000810B43E050E065EF7CE0CE0101960E9400
:10591000606949816DE1C8010E94290B4A816EE1ED
:10592000C8010E94290B4B8166E2C8010E94290B25
:1059300040E060E2C8010E94290B48E061E2C80132
:105940000E94290B40E050EC64E674E4C8010E9418
:10595000950B6DE0C8010E94590B72CFF12C87CFD7
:10596000FF24F39484CF85ED8093BC008091AC1A22
:105970009091AD1AA091AE1AB091AF1A0796A11DE1
:10598000B11D23E0B695A795979587952A95D1F7F0
:105990002091BC0024FD03C01092AA1A08954091E2
:1059A000AC1A5091AD1A6091AE1A7091AF1A452B96
:1059B000462B472B69F30097A105B10541F02AE179
:1059C0002A95F1F700C00197A109B109E1CF8091B3
:1059D000AB1A0C949D0F3F924F925F926F927F9201
:1059E0008F929F92AF92BF92CF92DF92EF92FF92EF
:1059F0000F931F93CF93DF93CDB7DEB72B970FB6DF
:105A0000F894DEBF0FBECDBF7C01DC0115968C91F2
:105A1000811115C0FE013196CE010C966F0130E266
:105A200031938E179F07E1F7DA0130E087E09D910F
:105A3000B92E992329F19E3239F48A3011F480E08D
:105A4000BFC038E08AE0F3CFE5EEFCE044914423A8
:105A500021F031969413FACFF2CF831780F34FEDF4
:105A6000490F4E3560F74FE9490F4A3118F440EEBF
:105A7000B42EB90EF601E30FF11DB0823F5FD7CF10
:105A800089818032E1F2322E8B01FB01838D948D6E
:105A9000D7015C969C938E935B9716821782108633
:105AA00011861286138614861586F80182859385E1
:105AB000A485B585438954896589768984179507B6
:105AC000A607B70790F525E0B695A7959795879512
:105AD0002A95D1F7F82FFF70AF2EC8010E94E21E61
