:100000000C94BD060C9481550C9456550C942B55AC
:100010000C9400580C94E7060C94E7060C94E70641
:100020000C94E7060C94E7060C94E7060C94E7069C
:100030000C94E7060C94AC550C94E7060C94E70678
:100040000C94E7060C94E7060C94E1540C94E70634
:100050000C94AC540C9482540C94E7060C94E70670
:100060000C94E7060C94E7060C94DC560C94E70617
:100070000C944D540C9423540C94E7060C94E7060E
:100080000C94E7060C94E7060C94E7062B435245C4
:10009000473A200041542B435245473F0052656781
:1000A0006973746572656420726F616D696E670053
:1000B000556E6B6E6F776E0044656E696564004EB9
:1000C0006F74207265676973746572656420287344
:1000D0006561726368696E67290052656769737448
:1000E000657265642028686F6D6529004E6F742005
:1000F00072656769737465726564003A20004E65C5
:1001000074776F726B20737461747573200047503D
:100110005253206F6E004552524F523A2047505270
:1001200053206661696C656420746F207475726E0B
:10013000206F6E002B4353513A200041542B435300
:1001400051005475726E696E672063656C6C206D2A
:100150006F64756C65206F66662E2E2E00525353A9
:1001600049202864426D293A202D00456E7465723D
:100170002027782720617420616E792074696D656D
:1001800020746F2073746F70005475726E696E679F
:100190002063656C6C206D6F64756C65206F6E2ECE
:1001A0002E2E004552524F523A204C6F6E676974A2
:1001B00075646520696E636F7272656374210045B2
:1001C00052524F523A204C617469747564652069CB
:1001D0006E636F727265637421004552524F523ADA
:1001E00020496E76616C69642075706C6F61642063
:1001F000696E74657276616C202865766572792007
:1002000031206F72203420686F7572732900455257
:10021000524F523A20496E76616C696420696E745F
:10022000657276616C202865766572792031352C8F
:100230002032302C2033302C206F72203630206D4D
:10024000696E73290070726F6A65637449443A205D
:10025000002020696E707574206D696E7574653A42
:1002600020002020696E70757420686F75723A20C6
:100270002020002020696E70757420796561723AC3
:10028000202020002020696E707574206461793A06
:1002900020202020002020696E707574206D6F6E04
:1002A00074683A20200053796E6368726F6E697AC1
:1002B0006174696F6E206661696C65642E20506C94
:1002C0006561736520656E7465722074696D652063
:1002D0006D616E75616C6C7920696E205554433A7E
:1002E000200053796E6368726F6E697A696E672059
:1002F000636C6F636B20746F204E49535420736599
:1003000072766572202E2E2E200044656661756C13
:100310007420726164696F20494420616363657071
:1003200074656400526164696F204944207570648B
:100330006174656400456E746572206E6577207225
:100340006164696F2049443A200020456E746572EB
:100350002027792720666F72207965732C20276EFD
:100360002720666F72206E6F3A2000576F756C649D
:1003700020796F75206C696B6520746F20636861EC
:100380006E67652074686520726164696F204944F6
:100390002066726F6D207468652064656661756C97
:1003A000742076616C75653F00456E7465722074CB
:1003B000686520486F6C6F6772616D20646576694F
:1003C0006365206B657920666F722074686973209D
:1003D000476174657761793A2000456E74657220D3
:1003E00074686520726164696F20494420666F7289
:1003F000204E6F64652000293F00496E76616C696C
:1004000064206E756D626572206F66206E6F646524
:10041000732E2020486F77206D616E79206E6F6497
:10042000657320617265206174207468697320733C
:1004300069746520286D61782E00486F77206D61A2
:100440006E79206E6F64657320617265206174201F
:1004500074686973207369746520286D61782E2033
:1004600000496E76616C696420696E7465727661AC
:100470006C2E20506C6561736520656E746572200A
:1004800031206F7220342E00456E74657220223147
:1004900022206F72202234223A2000536574207586
:1004A000706C6F616420696E74657276616C207423
:1004B0006F2031206F72203420686F7572732E00A8
:1004C000506C6561736520656E74657220616E6F36
:1004D00074686572206D6561737572656D656E74A3
:1004E00020696E74657276616C3A20004552524FF5
:1004F000523A206D6178696D756D2038204E6F64B9
:100500006573206174203135206D696E75746520C6
:10051000696E74657276616C00496E76616C6964AF
:1005200020696E74657276616C2E20456E746572FA
:10053000206D6561737572656D656E7420696E748A
:10054000657276616C202831352C2032302C2033B6
:10055000302C206F72203630293A2000456E7465A9
:1005600072206D6561737572656D656E7420696E5C
:1005700074657276616C202831352C2032302C2045
:1005800033302C206F72203630206D696E73293A1B
:100590002000506C6561736520656E746572206122
:1005A0006E6F74686572206D6561737572656D65D7
:1005B0006E7420696E74657276616C3A20004552E3
:1005C000524F523A206D6178696D756D2034204E1E
:1005D0006F646573206174203230206D696E7574AC
:1005E0006520696E74657276616C00506C6561732C
:1005F0006520656E74657220616E6F746865722027
:100600006D6561737572656D656E7420696E746574
:100610007276616C3A20004552524F523A206D6119
:1006200078696D756D2032204E6F6465732061743A
:10063000203135206D696E75746520696E74657240
:1006400076616C00496E76616C696420696E7465D0
:100650007276616C2E20456E746572206D656173D3
:100660007572656D656E7420696E74657276616C05
:10067000202831352C2032302C2033302C206F7242
:10068000203630293A2000456E746572206D656110
:10069000737572656D656E7420696E7465727661CE
:1006A0006C202831352C2032302C2033302C206F18
:1006B00072203630206D696E73293A2000457869C2
:1006C00074002020456E74657220612050726F6A3C
:1006D0006563742049442028757020746F2035208C
:1006E000636861726163746572732C2065783A2067
:1006F000505341293A20004578697400457261736E
:100700006520534420636172643A20005072696E20
:100710007420646174612066696C65733A200053CB
:10072000617665642066696C65733A2000455252B3
:100730004F523A2075706C6F616420696E746572F7
:1007400076616C206D75737420626520656E7465CA
:100750007265642066697273742E205265747572B6
:100760006E696E6720746F206D656E752E2E2E007B
:1007700041726520796F75207375726520796F7588
:100780002077616E7420746F2065726173653F20FD
:10079000456E74657220792F6E3A20004C61742F7B
:1007A0006C6F6E672076616C7565732077696C6C11
:1007B00020617070656172206173202D393939397B
:1007C000393939393920696E20746865206461745B
:1007D0006120737472696E672E004552524F523A0F
:1007E000204C6F6E67697475646520696E636F7203
:1007F0007265637421004C6F6E6769747564653A45
:1008000020004552524F523A204C6174697475640D
:100810006520696E636F727265637421004C617448
:1008200069747564653A200053656C656374206F64
:100830007074696F6E3A200020202030203C2D2DEE
:10084000204572617365204C61742F4C6F6E672078
:1008500076616C7565730020202031203C2D2D20A1
:10086000456E746572204C61742F4C6F6E672076F4
:10087000616C75657300456E74657220636F6E669A
:10088000696775726174696F6E20737472696E67DF
:100890003A2000456E7465722063686F6963653A3B
:1008A00020002020207820203C2D2D202045786914
:1008B00074206D656E75002020206520203C2D2D54
:1008C00020204572617365206D6963726F53442007
:1008D00063617264002020207020203C2D2D202098
:1008E0005072696E74206E6F64652064617461205B
:1008F000746F2073637265656E002020206620206F
:100900003C2D2D2020536565206C697374206F6623
:100910002073617665642066696C65730020202011
:100920006D20203C2D2D2020536574206D65617352
:100930007572656D656E7420696E74657276616C32
:10094000002020207520203C2D2D20205365742070
:10095000646174612075706C6F616420746F2063D2
:100960006C6F756420696E74657276616C0020200E
:10097000206E20203C2D2D2020456E746572204E67
:100980006F646520726164696F20494473002020A0
:10099000206420203C2D2D2020456E746572204857
:1009A0006F6C6F6772616D20446576696365204B7B
:1009B0006579002020206720203C2D2D20204368D1
:1009C000616E676520476174657761792072616443
:1009D000696F204944002020206C20203C2D2D20D0
:1009E00020456E746572206F722065726173652098
:1009F0004C61742F4C6F6E672076616C7565730067
:100A00002020206920203C2D2D2020456E74657209
:100A10002070726F6A65637420494400202020634F
:100A200020203C2D2D202053657420636C6F636B58
:100A300020746F204E4953542074696D6500202046
:100A4000203020203C2D2D2020456E7465722063BF
:100A50006F6E66696775726174696F6E2073747208
:100A6000696E67002020203120203C2D2D2020435E
:100A7000656C6C756C6172205369676E616C205394
:100A8000636F7574696E67204D6F6465004D656EA8
:100A900075206F7074696F6E732000437572726594
:100AA0006E74206261747465727920766F6C746103
:100AB00067653A20200030003A0030003A002D00EF
:100AC0002D0043757272656E742064617465202612
:100AD0002074696D653A200055706C6F61642069FF
:100AE0006E74657276616C2028687273293A2000F2
:100AF0004D6561737572656D656E7420496E7465C0
:100B00007276616C3A2000446174612066696C659C
:100B10003A20004E6574776F726B6564204E6F6487
:100B200065204944733A200023206F66206E6F646D
:100B300065733A2000446576696365206B65793A90
:100B400020004761746577617920526164696F2084
:100B500049443A20004C61742F6C6F6E673A200054
:100B600050726F6A6563742049443A20004C6F529A
:100B70006120526164696F204672657120284D487A
:100B80007A293A200053657269616C204E756D6256
:100B900065723A200056657273696F6E2000536F5C
:100BA000696C2057617465722044617461204E65E0
:100BB00074776F726B202D2043656C6C756C61725D
:100BC0002047617465776179007C3C3E5E2B3D3F38
:100BD0002F5B5D3B2C2A225C0072740092740048EB
:100BE000940078C40000002100240027002A00009F
:100BF000002200250028002B0000002000230026F2
:100C00000029000202020202020202040404040497
:100C100004040403030303030303030101010101AB
:100C200001010101020408102040800102040810A3
:100C300020408001020408102040800102040810B6
:100C4000204080000000010200090A0000000004AA
:100C50000308070000000000000000000000000082
:100C600000000041542B43504D533D22534D222C44
:100C700022534D222C22534D220053494D383030FF
:100C80004800093C2D2D2D2000092D2D2D3E200042
:100C900053494D434F4D5F53494D35333230450035
:100CA00053494D434F4D5F53494D35333230410029
:100CB00053494D383030205231330053494D38308C
:100CC00038205231330053494D38303820523134B6
:100CD00000093C2D2D2D2000092D2D2D3E200041F9
:100CE000542B435648553D30004154453000415443
:100CF00045300041540041540041540054696D6531
:100D00006F75743A204E6F20726573706F6E7365E5
:100D100020746F2041542E2E2E206C617374206439
:100D20006974636820617474656D70742E00415439
:100D300000415400415400417474656D7074696ED3
:100D40006720746F206F70656E20636F6D6D207704
:100D50006974682041547300093C2D2D2D20000931
:100D60002D2D2D3E20004F4B00464F4E4100464F4B
:100D70004E416E6574001C58BB5D11241FBECFEF41
:100D8000D0E4DEBFCDBF1CE0A0E0B1E0E6E8FEECC1
:100D900000E00BBF02C007900D92AC3FB107D9F73E
:100DA00022E2ACEFBCE001C01D92A530B207E1F732
:100DB00016E0CCEBD6E004C02197FE010E94FA6158
:100DC000CB3BD107C9F70E94F2590C9436670C94BB
:100DD000000008950895982F2091811881E0213214
:100DE00008F043C0809180188111FCCF8091791860
:100DF00032E03093801890937F189FEF90935718AC
:100E00001092561820935518A9E5B8E1E5E3F8E1EA
:100E100090E0291331C01092341890913418880F43
:100E2000892B8093341880917E18813049F5109277
:100E30007E18809134188093BB008091BC0083FDA4
:100E4000F8CF85EC8093BC00809180188230E1F36C
:100E5000809157188F3FB1F0809157188032A1F0E0
:100E600080915718803391F084E01092821810928C
:100E700081181092581808953D9131939F5FC9CF02
:100E800085EEE0CF80E0F1CF82E0EFCF83E0EDCFE1
:100E9000909180189111FCCF91E0909380189093DD
:100EA0007F182FEF2093571810925618260F209373
:100EB00055189093341890913418880F892B80938B
:100EC000341880917E188130F9F410927E18809148
:100ED00034188093BB008091BC0083FDF8CF85EC73
:100EE0008093BC00809180188130E1F38091561886
:100EF000861710F460915618A5E3B8E1E4E1F8E133
:100F000080E0861303C0089585EEEACF9D9191930A
:100F10008F5FF7CF0F931F93CF93DF93EC019A016D
:100F2000AB01E889F98982E08083EC85FD85108238
:100F30000E851F8560E874E88EE190E00E9476607F
:100F40002150310941095109569547953795279503
:100F5000F8012083188EEC89FD8986E08083EA8978
:100F6000FB89808180618083EA89FB898081886038
:100F70008083EA89FB89808180688083EA89FB8994
:100F800080818F7D8083DF91CF911F910F91089594
:100F90008091901E9091911EDC01ED91FC91048452
:100FA000F585E02D0994FF920F931F93CF93DF9364
:100FB0008C01F62EC0E9DEE188819981DC01ED919A
:100FC000FC910488F589E02D642F09958881998129
:100FD000DC01ED91FC910680F781E02D4F2DB801E9
:100FE000DF91CF911F910F91FF900994E82FF0E0CE
:100FF000EE0FFF1FE45DFE4F71836083813049F087
:10100000823071F080916900836080936900E89A72
:101010000895809169008C6080936900E99A089531
:1010200080916900806380936900EA9A0895EF9245
:10103000FF920F931F93CF93DF938C017B01D0E03E
:10104000C0E0F701EC0FFD1F6491662361F0D80149
:10105000ED91FC910190F081E02DC8010995892B5B
:1010600011F02196EECFCE01DF91CF911F910F911C
:10107000FF90EF900895AF92BF92CF92DF92EF92E0
:10108000FF920F931F93CF93DF936C017B018B0132
:10109000040F151FEB015E01AE18BF08C017D10782
:1010A00059F06991D601ED91FC910190F081E02D0C
:1010B000C6010995892B79F7C501DF91CF911F9161
:1010C0000F91FF90EF90DF90CF90BF90AF90089579
:1010D000FC01538D448D252F30E0842F90E0821B3E
:1010E000930B541718F081509F4F0895019708955E
:1010F000FC01918D828D981759F0A28DAE0FBF2FF4
:10110000B11D5D968C91928D9F5F928F90E00895B6
:101110008FEF9FEF0895FC01918D828D981731F02C
:10112000828DE80FF11D858D90E008958FEF9FEF80
:101130000895FC01918D828D981B892F90E0089570
:1011400085E898E10E94990821E0892B09F420E0C4
:10115000822F089582EA9AE10E94990821E0892B62
:1011600009F420E0822F0895CF93DF93EC01E8810A
:10117000F9810680F781E02D0995EA89FB89808154
:101180008F7E8083EA89FB898081877F8083EA89DB
:10119000FB8980818F778083EA89FB8980818F7DBD
:1011A00080838A8D898FDF91CF910895FC01A48D72
:1011B000A80FB92FB11DA35EBE4F9C91848D8F5F88
:1011C000848FA689B7899C93A089B1898C918370FB
:1011D00080648C93938D848D981306C00288F38964
:1011E000E02D80818F7D808308950F931F93CF938F
:1011F000DF93EC0181E0888F9B8D8C8D981318C054
:10120000E889F989808185FF13C09FB7F894EE893A
:10121000FF896083E889F989808183708064808395
:101220009FBF81E090E0DF91CF911F910F910895D2
:10123000062F1B8D1F5F8C8D81130CC00FB607FC12
:10124000FACFE889F989808185FFF5CFCE010E9428
:10125000D608F1CFEB8DEC0FFD2FF11DE35EFE4FB5
:1012600000839FB7F8941B8FEA89FB898081806295
:10127000D6CF682F82EA9AE10C94F508CF93DF93DA
:10128000EC01888D8823B9F0AA89BB89E889F9899E
:101290008C9185FD03C0808186FD0DC00FB607FCD3
:1012A000F7CF8C9185FFF2CF808185FFEDCFCE0106
:1012B0000E94D608E9CFDF91CF91089580E090E0B9
:1012C000892B29F00E94AA0881110E94000080E069
:1012D00090E0892B29F00E94A00881110C94000055
:1012E000089581508A3080F5E82FF0E0E658F64FF7
:1012F0000C94FA618E09920984098A09A409A40947
:1013000095099B099F09A509809180008F7780939B
:1013100080000895809180008F7DF9CF84B58F770C
:1013200084BD089584B58F7DFBCF8091B0008F7709
:101330008093B00008958091B0008F7DF9CF8091A7
:1013400090008F77809390000895809190008F7D1A
:10135000F9CFCF93DF93282F30E0F901ED5BF34F06
:101360008491F901ED5DF34FD491F901ED5FF34FF5
:10137000C491CC23A1F081110E947109EC2FF0E0FF
:10138000EE0FFF1FE750F44FA591B491EC91ED23C0
:1013900081E090E009F480E0DF91CF91089580E052
:1013A00090E0FACF1F93CF93DF93282F30E0F9011D
:1013B000ED5BF34F8491F901ED5DF34FD491F901A9
:1013C000ED5FF34FC491CC23A9F0162F81110E9439
:1013D0007109EC2FF0E0EE0FFF1FE151F44FA591E2
:1013E000B4918FB7F894EC91111108C0D095DE2319
:1013F000DC938FBFDF91CF911F910895DE2BF8CF43
:1014000010928418109283181092821810928118EA
:101410001092801881E080937F1810927E1861E00E
:1014200081E10E94D20961E080E10E94D209E9EBEA
:10143000F0E080818E7F808380818D7F808380E259
:101440008093B80085E48093BC0089EE96E0909389
:101450007D1880937C188AEE96E090937B18809399
:101460007A180895CF93DF9390E0FC01ED5DF34F80
:1014700024918D5F934FFC0184918823D1F090E0FB
:10148000880F991FFC01EB51F44FA591B491FC0119
:10149000E151F44FC591D49161110EC09FB7F894FA
:1014A0008C91E22FE0958E238C932881E223E883B0
:1014B0009FBFDF91CF9108958FB7F894EC91E22B05
:1014C000EC938FBFF6CF883108F088518770806425
:1014D00080937C0080917A00806480937A00809170
:1014E0007A0086FDFCCF8091780090917900089574
:1014F0003FB7F8948091180E9091190EA0911A0E92
:10150000B0911B0E26B5A89B05C02F3F19F0019680
:10151000A11DB11D3FBFBA2FA92F982F8827BC014D
:10152000CD01620F711D811D911D43E0660F771F74
:10153000881F991F4A95D1F708958F929F92AF9275
:10154000BF92CF92DF92EF92FF924B015C010E941B
:10155000780A6B017C010E94780A6C197D098E095A
:101560009F09683E734081059105A8F321E0821A26
:101570009108A108B10888EEC80E83E0D81EE11CCE
:10158000F11C81149104A104B10429F7FF90EF909C
:10159000DF90CF90BF90AF909F908F900895FF9273
:1015A0000F931F93CF93DF93F82E04EF11E0D0E059
:1015B000C0E080918E1E90918F1EDC01ED91FC9118
:1015C0000084F185E02D0995892BC9F080918E1E4C
:1015D00090918F1EDC01ED91FC910284F385E02D4A
:1015E00009958D3031F38A3021F4209711F3FF20D3
:1015F00091F0FE01EA58F24E86872196DACF01502B
:10160000110949F061E070E080E090E00E949D0ADD
:10161000CE3FD10570F2FE01EA58F24E16868C2FAD
:10162000DF91CF911F910F91FF9008952FB7F894FC
:101630006091140E7091150E8091160E9091170EF8
:101640002FBF08950895885E9E4FDC018D919C9177
:10165000DC01ED91FC910680F781E02D0994885E14
:101660009E4FDC018D919C91DC01ED91FC910484F5
:10167000F585E02D0994885E9E4FDC018D919C914B
:10168000DC01ED91FC910284F385E02D0994885EE4
:101690009E4FDC018D919C91DC01ED91FC910190BC
:1016A000F081E02D0994885E9E4FDC018D919C9124
:1016B000DC01ED91FC910084F185E02D0994CF933C
:1016C000DF9390E080E0EC0121968897A8F486E70C
:1016D0009DE10E94530B892B39F086E79DE10E9422
:1016E0003B0BD0E0C0E0F3CF61E070E080E090E041
:1016F0000E949D0ACE01E7CFDF91CF9108958BEF35
:101700000895CF93DF93FC0122813381223031058C
:1017100069F0EC01638D818D0E94D20960E0888DB3
:101720000E94D20982E090E09B838A83DF91CF916F
:101730000895FF920F931F93CF93DF93EC01162F21
:10174000F42E0FB7F89460E08F890E94D2098D893A
:101750009E89612F6068DC01ED91FC910190F08120
:10176000E02D0995182F8D899E89DC01ED91FC9162
:101770000190F081E02D6F2D099561E08F890E9425
:10178000D2090FBF812FDF91CF911F910F91FF9051
:1017900008950F931F93CF938C01C62F44E06DE4FF
:1017A0000E94990B4BEF4C0F406869E0C801CF9144
:1017B0001F910F910C94990BCF93DF93FC01228121
:1017C00033812130310549F0EC0140E061E00E94B5
:1017D000990B81E090E09B838A8381E0DF91CF9138
:1017E0000895CF93DF93FC012281338122303105AC
:1017F00049F0EC0141E061E00E94990B82E090E049
:101800009B838A83DF91CF910895CF92DF92EF92ED
:10181000FF92CF93DF93EC01CB01BA0120E034E2D9
:1018200044E759E40E94705F20E034E244E752E468
:101830000E9414610E948D616B017C01A7016627E3
:10184000772766E0CE010E94990B77276F2D5E2DDA
:101850004D2D67E0CE010E94990B4C2D68E0CE0122
:101860000E94990B81E0DF91CF91FF90EF90DF9084
:10187000CF900895CF92DF92EF92FF920F931F9334
:10188000CF93DF934C3F08F067C0142F072FF62E3D
:10189000EC01E881F9810484F585E02D0995CE01FC
:1018A0000E94F10B40E06DE0CE010E94990B4A8549
:1018B00060E0CE010E94990B4B8560E0CE010E9452
:1018C000990B4C8560E0CE010E94990B4D8560E03C
:1018D000CE010E94990BEFB6F89460E08F890E94C8
:1018E000D2098D899E89DC01ED91FC910190F081F6
:1018F000E02D60E80995CF2CD02E012F015068F023
:101900008D899E89F60161916F01DC01ED91FC9159
:101910000190F081E02D0995F1CF61E08F890E945F
:10192000D209EFBE44E0410F62E2CE010E94990B62
:101930008A819B81039771F043E061E0CE010E94B0
:10194000990B40E460E4CE010E94990B83E090E0A3
:101950009B838A8381E001C080E0DF91CF911F915A
:101960000F91FF90EF90DF90CF900895CF93DF938A
:10197000FC012281338123303105C9F0EC018281E1
:101980009381049771F045E061E0CF010E94990BCB
:1019900040E060E4CE010E94990B84E090E09B83DC
:1019A0008A83C65EDE4F8881DF91CF91089580E003
:1019B000FBCF0F931F93CF93DF93EC01162F0FB73D
:1019C000F89460E08F890E94D2098D899E89DC019C
:1019D000ED91FC910190F081E02D612F09958D89A9
:1019E0009E89DC01ED91FC910190F081E02D60E099
:1019F0000995182F61E08F890E94D2090FBF812FAE
:101A0000DF91CF911F910F910895DF92EF92FF9296
:101A10000F931F93CF93DF93EC0162E10E94D90CE7
:101A20002A813B8124303105A1F4982F907A89F0E6
:101A30008F8598890196988B8F874FEF62E1CE0151
:101A4000DF91CF911F910F91FF90EF90DF900C9459
:101A5000990B2A813B812430310511F486FD0DC09C
:101A60002A813B812330310541F783FFE6CF8B8903
:101A70009C8901969C8B8B8B67C063E1CE010E9491
:101A8000D90C082F60E1CE010E94D90C482F6DE0DF
:101A9000CE010E94990BDFB6F89460E08F890E9416
:101AA000D2098D899E89DC01ED91FC910190F08134
:101AB000E02D60E009957E01BBE1EB0EF11C102FDB
:101AC000115070F08D899E89DC01ED91FC9101909F
:101AD000F081E02D60E00995F70181937F01F0CF5F
:101AE00061E08F890E94D209DFBE0A8F4FEF62E169
:101AF000CE010E94990B6AE1CE010E94D90C89584F
:101B00008E878A8DFE01E65EFE4F8430C8F08B8D95
:101B10008E838C8D8F838D8D88878E8D89878D8127
:101B2000811107C09E818C81981719F08E818F3F9B
:101B300039F489899A8901969A8B898B81E080830F
:101B40008081882309F479CFCE010E94F10B75CFF3
:101B50008091110E9091120E009711F00C94050DCA
:101B6000089580910F0E9091100E009711F00C9433
:101B7000050D089580910D0E90910E0E009711F0B5
:101B80000C94050D0895CF93DF93EC018D899E8908
:101B9000DC01ED91FC910680F781E02D099561E073
:101BA0008F890E94320A61E08F890E94D20964E61F
:101BB00070E080E090E00E949D0A81E0DF91CF918B
:101BC0000895FF920F931F93CF93DF931F92CDB78A
:101BD000DEB7F42E00E91EE1D8018D919C91DC0165
:101BE000ED91FC91008CF18DE02D0995F80180813B
:101BF0009181DC01ED91FC91028CF38DE02D40E0B0
:101C000060E8099581E289834F2D61E0CE0101965C
:101C10000E94D3070E94C8070F90DF91CF911F91B8
:101C20000F91FF900895CF92DF92EF92FF920F9362
:101C30001F93CF93DF93EC018B017A0169018091AF
:101C4000901E9091911EDC01ED91FC910280F38138
:101C5000E02D099581110BC010E0812FDF91CF910C
:101C60001F910F91FF90EF90DF90CF90089580919A
:101C7000901E9091911EDC01ED91FC910480F58104
:101C8000E02DA701B8010995182F882329F3809129
:101C9000901E9091911EDC01ED91FC9100A0F1A1AC
:101CA000E02D0995F82E8091901E9091911EDC01F7
:101CB000ED91FC91068CF78DE02D0995E82E809131
:101CC000901E9091911EDC01ED91FC9102A0F3A178
:101CD000E02D0995082F8091901E9091911EDC01B6
:101CE000ED91FC9104A0F5A1E02D099587FDB4CFFD
:101CF000BFEFEB1629F04F2D602FCE010E94E10DB2
:101D0000CF0DD11D8B85801709F4A6CFF601F08287
:101D10000B87A3CF9FB7F89480910B0E882319F0FF
:101D2000815080930B0E80910B0E811105C08CB5F4
:101D30008F7B8CBD109201169FBF08958CB58F7755
:101D40008CBD08958CB580688CBD0895FC017383AB
:101D500062830895FC01778366830895FC0175838F
:101D600064830895089580E00895FC0181850895B5
:101D7000FC0180850895FC0187810895FC0186811E
:101D800008954095FC0125854223642B65870895BD
:101D9000FC0164870895FC0163870895FC01628754
:101DA0000895FC0164830895FC01658308958F9272
:101DB0009F92AF92BF92CF92DF92EF92FF92CF931A
:101DC000DF93EC016B010E94160B4B015C01F12CBF
:101DD000E12C0E94160B681979098A099B096C1578
:101DE0007D058E059F0580F48A819B81039789F389
:101DF00081E0DF91CF91FF90EF90DF90CF90BF9087
:101E0000AF909F908F90089580E0F3CFFC012281E6
:101E1000338123303105D1F381E008958F929F9271
:101E2000AF92BF92CF92DF92EF92FF92CF93DF9368
:101E3000EC016B010E94160B4B015C01F12CE12CB3
:101E40000E94160B681979098A099B096C157D0592
:101E50008E059F05A0F4E881F9810280F381E02DD1
:101E6000CE010995882361F3DF91CF91FF90EF9028
:101E7000DF90CF90BF90AF909F908F90089580E0BB
:101E8000F3CFCF93DF93EC01E881F9810280F381F6
:101E9000E02DCE0109958823B9F3DF91CF91089504
:101EA00081E008951F93CF93DF93EC01162F888173
:101EB0009981DC01ED91FC910288F389E02D09956F
:101EC00088819981DC01ED91FC910688F789E02DEC
:101ED000612F09951A83DF91CF911F910895CF92B9
:101EE000DF92EF92FF920F931F93CF936B017C01D0
:101EF000142F8091901E9091911EDC01ED91FC9128
:101F00000190F081E02D0995C82F882309F1609197
:101F1000921E80E99EE10E94520F88E790E0909324
:101F2000991E8093981E83E080939A1E612F80E90A
:101F30009EE10E94520F0091901E1091911EB701D8
:101F4000A601C8010E94050C64E1C8010E94C90BEA
:101F50008C2FCF911F910F91FF90EF90DF90CF903A
:101F6000089585ED8093BC008091BC0084FDFCCF7A
:101F70001092801808952091E80D260F3327331F03
:101F800021323105ECF420918018FC0190E080E0D2
:101F9000243069F082E00895A091E80D2191AC0110
:101FA0004853524FA40FB52FB11D2C93019686179D
:101FB00098F38091E80D680F6093E80D80E0089534
:101FC00081E008950895E091841880918318E817BE
:101FD00030F4F0E0EC5EF74E808190E008958FEFF2
:101FE0009FEF089590918418809183182FEF3FEF11
:101FF000981748F4E92FF0E0EC5EF74E208130E0CE
:102000009F5F90938418C9010895809183189091DF
:102010008418891B990B0895CF92DF92EF92FF925B
:102020000F931F93CF93DF937C01CB018A01209103
:102030005818222389F0EB016B01C40ED51ECC1574
:10204000DD0569F06991D701ED91FC910190F08176
:10205000E02DC7010995F3CF642F0E94BB0FC80183
:10206000DF91CF911F910F91FF90EF90DF90CF9074
:102070000895CF93DF931F92CDB7DEB76983209188
:1020800058182223F9F020918118203258F021E0CD
:1020900030E0FC013383228390E080E00F90DF91F9
:1020A000CF91089580918218E82FF0E0E75AF74E1B
:1020B000998190838F5F809382188093811881E04B
:1020C00090E0ECCF61E0CE0101960E94BB0FF7CF0C
:1020D000CF93C62F91E09093581898E69093791873
:1020E0001092821810928118682F85EF91E20E9459
:1020F00039106C2F85EF91E20E94391081E0CF9169
:102100000C94EB06CF93CFB7F89480910B0E81110E
:1021100027C0E7E0FCE08491E7E2FCE09491E82F3F
:10212000F0E0EE0FFF1FEB51F44FA591B491EC914D
:10213000E92321F461E084E00E94D20961E084E0B7
:102140000E94320A8CB580618CBD8CB580648CBDD8
:1021500061E087E00E94320A61E085E00E94320A75
:1021600080910B0E8F5F80930B0ECFBFCF910895A0
:10217000FC01268137812115310591F1213031058E
:1021800059F12230310551F12330310549F52CE068
:102190009CB5937F922B9CBD84819581019711F50D
:1021A0008CB580628CBD82819381019784309105CA
:1021B000E0F484599E4FFC0190818CB58C7F292FCF
:1021C0002370822B8CBD8DB592FB992790F98E7F61
:1021D000892B8DBD0C94821024E0DACF28E0D8CF73
:1021E00020E0D6CF8CB58F7DDDCF95E0E6CF9FB7D1
:1021F000F894209101168091C20D213019F48DBB05
:102200009FBF08958FBF089561E0FC0184810E9403
:10221000D2098091C10D882339F01092C10D8091AF
:10222000011681110C94F71008958EBD00000DB4B5
:1022300007FEFDCF8EB50895862F0C9415118FEFF4
:102240000C9415110F931F93CF93DF93EC010E9411
:10225000160B8B010E941F118F3F69F00E94160B15
:10226000601B710B6C177D07A8F380E0DF91CF91A5
:102270001F910F91089581E0F9CF2091011622233B
:1022800061F02FB7F89430910116313049F43DB325
:102290003093C20D3DB33DBB2FBF8CBD9DBD089596
:1022A0002093C20DFACFCF93DF93EC018091C10D43
:1022B000811109C081E08093C10D8091BF1C909174
:1022C000C01C0E943D1160E08C81DF91CF910C9485
:1022D000D2098F929F92AF92BF92FF920F931F935A
:1022E000CF93DF93EC01F62E49015A018E818823AA
:1022F00089F08F8198859C012F5F3F4F38872F830E
:102300008230924018F40E941F11F3CFCE010E9438
:1023100004111E82CE010E9453118CE291E00E94B2
:1023200022118F2D80640E94151108E110E0D50163
:10233000C401002E04C0B695A795979587950A9479
:10234000D2F70E94151108501109083F8FEF1807A6
:1023500071F785E9FF2021F028E087E8F2128FEF7E
:102360000E94151110E00E941F118A8787FF04C088
:102370001F3F11F01F5FF7CFDF91CF911F910F919A
:10238000FF90BF90AF909F908F900895AF92BF92B3
:10239000CF92DF92EF92FF920F931F93CF93DF9331
:1023A000EC016901C801820F931F8130924050F502
:1023B0008E81882379F088819981AA81BB818417D5
:1023C0009507A607B70731F48F819885C816D906F7
:1023D00008F042C0488359836A837B838B858330AE
:1023E00039F089E0440F551F661F771F8A95D1F792
:1023F0009A01AB0161E1CE010E946911882389F045
:1024000083E08D83CE010E94041180E0DF91CF91A3
:102410001F910F91FF90EF90DF90CF90BF90AF9002
:1024200008950E94160B5B010E941F118A878F3F3F
:1024300069F40E94160B6A197B096D327140A0F392
:102440008FE08D83CE010E940411DCCF8E3F89F492
:1024500018861F8281E08E838F8198858C159D055B
:1024600050F40E941F118F819885019698878F8361
:10247000F3CF8DE0E6CF6701E00EF11E0E941F1141
:10248000F60181936F01EE15FF05C1F78F819885E5
:10249000080F191F18870F838985882319F00115E4
:1024A0001240A0F08E81882389F08F8198859C014D
:1024B0002F5F3F4F38872F838230924018F40E945D
:1024C0001F11F3CFCE010E9404111E8281E09ECF26
:1024D000EF92FF920F931F93CF93DF93EC0179015B
:1024E00082E1411551056105710599F08B858330B5
:1024F00039F089E0440F551F661F771F8A95D1F781
:102500009A01AB0168E1CE010E946911882319F09C
:1025100084E08D8330C08EEF0E94151187018EEF0D
:10252000F81AF80181918F010E9415110E151F05EF
:10253000C1F78FEF0E9415118FEF0E9415110E94B5
:102540001F118A878F71853089F488E592E00E9497
:1025500022118823A9F020E030E0A9016DE0CE012E
:102560000E946911882371F084E1D3CF81E18D83CA
:10257000CE010E940411CE010E94041180E00AC025
:1025800085E1C7CF0E941F118111EECFCE010E94BD
:10259000041181E0DF91CF911F910F91FF90EF9097
:1025A0000895CF93DF938091C30D8823A9F1C09143
:1025B0000216D091031640911D0150911E016091A9
:1025C0001F017091200124E036E1CE010E946812C3
:1025D000811104C080E0DF91CF9108954091C40D36
:1025E0005091C50D6091C60D7091C70D41155105F3
:1025F0006105710579F024E036E1CE010E94681290
:10260000882341F31092C40D1092C50D1092C60D8F
:102610001092C70D1092C30D81E0DDCF8F929F9273
:10262000AF92BF92EF92FF920F931F93CF934B0104
:102630005C01C42F80911D0190911E01A0911F018A
:10264000B091200188159905AA05BB0549F10E94A2
:10265000D11281110BC080E0CF911F910F91FF909B
:10266000EF90BF90AF909F908F90089584E0E82EF8
:1026700086E1F82E00E012E030E020E0B501A40190
:1026800080910216909103160E94C611882319F3B7
:1026900080921D0190921E01A0921F01B092200114
:1026A0004091C30D4C2B4093C30D81E0D5CFCF9308
:1026B000DF93EC016E857F858889998941E00E94CE
:1026C0000E13882351F08A8920E2829FC0011124D1
:1026D0008C5F994EDF91CF91089590E080E0FACF22
:1026E0008F929F92AF92BF92CF92DF92EF92FF9222
:1026F000CF9321EC3CE130930316209302168823FC
:1027000009F46DC040E060E070E0CB010E940E1360
:1027100081110BC080E0CF91FF90EF90DF90CF90C0
:10272000BF90AF909F908F9008958091C2178F7740
:1027300089F78091CE179091CF17A091D017B091C3
:10274000D11784369105A105B10520F3C090CA17B1
:10275000D090CB17E090CC17F090CD17C114D104D6
:10276000E104F104B9F240E0C701B6010E940E1382
:10277000882381F280910F16909110168115924056
:1027800049F6A0911416AA2329F2609112167091AD
:1027900013166115710509F4BDCF2091111622237E
:1027A00009F4B8CFA093DF1C2093D11C90E080E007
:1027B00030E0E1E0F0E0C82FAF01082E02C0440F86
:1027C000551F0A94E2F72417350769F041E0480FD6
:1027D00001968930910579F74093DA1C9BCFC12C83
:1027E000D12C7601C0CF8093DA1C20911A1630913B
:1027F0001B1650E040E02115310541F420912816C8
:102800003091291640912A1650912B162093D21CF4
:102810003093D31C4093D41C5093D51C46015701D0
:10282000860E971EA11CB11C8092E01C9092E11CA8
:10283000A092E21CB092E31CE0911516F0911616DE
:10284000F093E61CE093E51CB0E00E946360DC01BD
:10285000CB01880D991DAA1DBB1D8093E71C909389
:10286000E81CA093E91CB093EA1C25E0EE0FFF1FC3
:102870002A95E1F7E150FE4FEF2FFF27E6958E0FE7
:102880009F1FA11DB11D8093DB1C9093DC1CA093A6
:10289000DD1CB093DE1C8090171690901816B12C9A
:1028A000A12C8114910441F4809024169090251657
:1028B000A0902616B0902716C81AD90AEA0AFB0A71
:1028C000C80CD91CEA1CFB1C04C0F694E794D794EE
:1028D000C794CA95D2F7C092D61CD092D71CE0926A
:1028E000D81CF092D91C85EFC8168FE0D806E104F9
:1028F000F10428F48CE08093E41C81E00CCF80E1AB
:1029000025EFC2162FEFD206E104F104A0F3809167
:10291000301690913116A0913216B09133168093F3
:10292000E71C9093E81CA093E91CB093EA1C80E29A
:10293000E2CF4F925F926F927F928F929F92AF926F
:10294000BF92CF92DF92EF92FF920F931F93CF939C
:10295000DF93EC01423051056105710590F480E090
:10296000DF91CF911F910F91FF90EF90DF90CF906B
:10297000BF90AF909F908F907F906F905F904F909F
:10298000089589859A85AB85BC850196A11DB11DE9
:1029900084179507A607B70710F3CB88DC88ED8866
:1029A000FE888F89803109F042C0BB27A72F962F60
:1029B000852F480159012A013B01C80ED91EEA1E84
:1029C000FB1E80911D0190911E01A0911F01B091ED
:1029D0002001C816D906EA06FB0699F58F898031D1
:1029E000C1F5B301A201552766277727440F551F6C
:1029F0004C5F594EFA01918280828091C30D8160B3
:102A00008093C30D8A89823080F08D819E81AF8151
:102A1000B8858C0D9D1DAE1DBF1D8093C40D909378
:102A2000C50DA093C60DB093C70D81E099CFDB0112
:102A3000CA01E7E0B695A79597958795EA95D1F7EE
:102A4000B8CF40E0C701B6010E940E138111C6CF76
:102A500086CFB301A2014F77552766277727440F0A
:102A6000551F440F551F4C5F594EFA0180829182C9
:102A7000A282B382C2CF8F929F92AF92BF92CF9227
:102A8000DF92EF92FF920F931F93CF93DF93FC019E
:102A900081859285A385B4850196A11DB11D8417FA
:102AA0009507A607B70770F480E0DF91CF911F91DB
:102AB0000F91FF90EF90DF90CF90BF90AF909F90DD
:102AC0008F90089583889488A588B68887898031F7
:102AD00089F5BB27A72F962F852FE9016A017B0176
:102AE0008F01BC01CD01680D791D8A1D9B1D809051
:102AF0001D0190901E01A0901F01B090200186162C
:102B00009706A806B90601F5F8018789803111F505
:102B1000DD24EE24FF24F601EE0FFF1FEC5FF94EDB
:102B200080819181B0E0A0E088839983AA83BB83F0
:102B300081E0BBCFDB01CA01C7E0B695A7959795A9
:102B40008795CA95D1F7C9CF40E00E940E13811135
:102B5000DBCFAACFE894C7F8DD24EE24FF24F601EA
:102B6000EE0FFF1FEE0FFF1FEC5FF94E808191818A
:102B7000A281B381BF70D8CF4F925F926F927F9244
:102B8000AF92BF92CF92DF92EF92FF920F931F937B
:102B9000CF93DF9300D000D0CDB7DEB78C0149834F
:102BA0005A836B837C835901C12CD12C7601412C33
:102BB00082E0582E612C712C49815A816B817C8175
:102BC0009E012F5F3F4FC8010E943B15882339F1BA
:102BD000F8018585A301920104C0220F331F441F11
:102BE000551F8A95D2F7DA01C901C80ED91EEA1E0F
:102BF000FB1E49815A816B817C818789803111F16B
:102C000088EF9FEFAFEFBFE0481759076A077B07D0
:102C100098F2F501C082D182E282F38281E00F90C6
:102C20000F900F900F90DF91CF911F910F91FF9018
:102C3000EF90DF90CF90BF90AF907F906F905F90BC
:102C40004F90089588EF9FEFA0E0B0E0DDCFCF93E5
:102C5000DF93FC012581222321F080E0DF91CF91D9
:102C60000895EC018091E41C803159F582E0858360
:102C7000178A108E118E128E8091E51C9091E61CA1
:102C8000B0E0A0E025E0880F991FAA1FBB1F2A957E
:102C9000D1F7838B948BA58BB68B8DEC9CE19C8FAD
:102CA0008B8F81E08C831E821F82188619861A867C
:102CB0001B861C861D861E861F86188A198A1A8AFC
:102CC000CDCF803251F683E085834091E71C50914F
:102CD000E81C6091E91C7091EA1C478B508F618F52
:102CE000728F9F012D5E3F4F8DEC9CE10E94BC15C1
:102CF0008111D3CFB2CF8F929F92AF92BF92CF92DA
:102D0000DF92EF92FF920F931F93CF93DF93EC012B
:102D10008D8181110EC080E0DF91CF911F910F91C5
:102D2000FF90EF90DF90CF90BF90AF909F908F90EB
:102D300008950B891C892D893E89041715072607DC
:102D4000370748F34A015B01823031F48A869B865B
:102D5000AC86BD8681E0E0CF81149104A104B1046A
:102D600049F41E821F82188619861A861B861C86C5
:102D70001D86F0CF0A851B852C853D85EB8DFC8D4E
:102D8000858590E00996B901A80141505109610972
:102D90007109082E04C076956795579547950A9452
:102DA000D2F775016401E1E0CE1AD108E108F1081B
:102DB00004C0F694E794D794C7948A95D2F7C416C2
:102DC000D506E606F70620F0012B022B032B11F5A2
:102DD0008F89988DA98DBA8D8E839F83A887B98797
:102DE0008E010A5F1F4FC114D104E104F10409F4FC
:102DF000ADCF4E815F816885798598018B8D9C8DE3
:102E00000E943B1591E0C91AD108E108F10881112F
:102E1000EACF81CFC41AD50AE60AF70AE1CF3F927A
:102E20004F925F926F927F928F929F92AF92BF92DA
:102E3000CF92DF92EF92FF920F931F93CF93DF9386
:102E4000CDB7DEB72C970FB6F894DEBF0FBECDBF5F
:102E50005C01DC015B968D909C905C9716964D9082
:102E60005D906D907C901997411451046104710438
:102E700009F468C0BFEF4B1A5B0A6B0A7B0A312C5E
:102E8000F40181859285A385B4859C01AD012F5FF6
:102E90003F4F4F4F5F4F29873A874B875C877301BE
:102EA00062011D821E821F821886F401818592852F
:102EB000A385B4852D813E814F8158852817390718
:102EC0004A075B0708F056C089859A85AB85BC85A3
:102ED0008C159D05AE05BF0550F482E0C82ED12C9F
:102EE000E12CF12C92E0492E512C612C712C9E0189
:102EF0002F5F3F4FB701A601C4010E943B158823F5
:102F0000C9F189819A81AB81BC81892B8A2B8B2B5A
:102F100009F1260137019FEF491A590A690A790A0E
:102F20002D813E814F8158852F5F3F4F4F4F5F4F1F
:102F30002D833E834F8358873FEFC31AD30AE30A9A
:102F4000F30AB3CFF4014080518062807380332450
:102F5000339496CFC414D504E604F70409F70FEFB1
:102F60001FEF2FEF3FE0B701A601C4010E949914A3
:102F7000811119C080E02C960FB6F894DEBF0FBE09
:102F8000CDBFDF91CF911F910F91FF90EF90DF9018
:102F9000CF90BF90AF909F908F907F906F905F90F9
:102FA0004F903F900895F501468157816085718566
:102FB000411551056105710539F097018601C4017C
:102FC0000E9499148823B1F2D5011696CD92DD9214
:102FD000ED92FC921997332051F0D701C60101966A
:102FE000A11DB11DF40180839183A283B383F501F8
:102FF0008789908DA18DB28D892B8A2B8B2B39F4EB
:10300000C78AD08EE18EF28E84818068848381E0CD
:10301000B2CF2F923F924F925F926F927F928F9298
:103020009F92AF92BF92CF92DF92EF92FF920F9357
:103030001F93CF93DF93EC015B012A018D818111F6
:1030400015C08FEF9FEFDF91CF911F910F91FF90F0
:10305000EF90DF90CF90BF90AF909F908F907F9038
:103060006F905F904F903F902F9008958C8180FFDC
:10307000E8CF0B891C892D893E894A855B856C8543
:103080007D85C201B0E0A0E068017901C41AD50ACB
:10309000E60AF70AC816D906EA06FB0618F428015C
:1030A000441A550A42011E0126E0220E311C8114E9
:1030B000910409F4B3C04A855B856C857D856A01FE
:1030C00081E0D8228B8D9C8D8A019B01E9E03695A9
:1030D000279517950795EA95D1F7ED81E230E1F54F
:1030E000FC01628D738D848D958D600F711F821F21
:1030F000931F612C22E0722E6C187D0886149704B1
:1031000008F434012C8126FD04C06114F2E07F062E
:1031100071F400911D0110911E0120911F01309149
:103120002001061717072807390709F053C040E0A8
:103130000E940E13882309F484CFC6018C5F994E38
:10314000D5019C01260D371DFC012E173F0709F400
:1031500060C041914D93F9CFFC0174807A94702244
:10316000C114D10471F471100CC0452B462B472BB0
:1031700039F58F89988DA98DBA8D8E839F83A88705
:10318000B987EB8DFC8D6E817F8188859985625032
:10319000710981099109258504C0660F771F881F71
:1031A000991F2A95D2F70685178520893189600FE6
:1031B000711F821F931F670D711D811D911D99CF76
:1031C0004E815F816885798591010E943B1581114F
:1031D000D8CF37CF750183019601AB01BC01809137
:1031E0000216909103160E94C611882309F429CF74
:1031F000A60CB71C8A859B85AC85BD85860D971D61
:10320000A11DB11D8A879B87AC87BD87861897084B
:103210004ECF281B390BA20EB31EECCFC20113CF29
:10322000CF93DF93EC018D81882329F18C8187FF77
:103230001EC0CE010E945713FC01892BE1F08D8145
:10324000823040F48B899C89AD89BE89848F958FAB
:10325000A68FB78F8F89988D938F828F8F89988D46
:10326000A98DBA8DB58BA48B8C818F778C83DF91E0
:10327000CF910C94D11280E0DF91CF910895CF933C
:10328000DF93EC010E941019882311F01D8281E068
:10329000DF91CF910895CF92DF92EF92FF921F932B
:1032A000CF93DF938091F01C882321F08BEE9CE17B
:1032B0000E943F191092CC1C1092CA1C1092C71C7D
:1032C0001092C61C83E08093C51C0E94160BEB0174
:1032D00061E08091C51C0E94320A61E08091C51CAA
:1032E0000E94D2090E94821082E58093BF1C81E077
:1032F0008093C01C8091BF1C9091C01C0E943D1106
:103300001AE08FEF0E9415111150D9F78091011624
:1033100081110E94F71081EC9CE10E94531120E082
:1033200030E0A90160E081EC9CE10E946911182F56
:103330008093CB1C813081F00E94160B6C1B7D0B9F
:10334000613D774060F381E08093C61C81EC9CE195
:103350000E94041190E078C02AEA31E040E050E099
:1033600068E081EC9CE10E94691182FF2AC0109301
:10337000CC1C8091CC1CC12CD12C7601823029F43C
:10338000C12CD12CE12C80E4F82E20E030E0A90102
:1033900067E381EC9CE10E946911A701960169E253
:1033A00081EC9CE10E9469118093CB1C8823C1F0C1
:1033B0000E94160B6C1B7D0B613D774030F388E05B
:1033C000C3CF14E00E941F118093CB1C1150D1F782
:1033D0008A3A11F082E0B8CF82E08093CC1CC9CF4A
:1033E0008091CC1C8230D1F420E030E0A9016AE366
:1033F00081EC9CE10E946911882311F086E0A4CF42
:103400000E941F11807C803C19F483E08093CC1CC7
:103410000E941F110E941F110E941F1181EC9CE14C
:103420000E94041180E58093BF1C81E08093C01C42
:103430000E947013882389F08BEE9CE10E9427166E
:1034400091E0882309F486CF892FDF91CF911F91D6
:10345000FF90EF90DF90CF90089580E00E9470136E
:10346000882309F477CFE8CF2F923F924F925F9253
:103470006F927F928F929F92AF92BF92CF92DF9284
:10348000EF92FF920F931F93CF93DF9300D000D062
:10349000CDB7DEB78C015B011A01DC0115968C916A
:1034A0001597813009F0C8C014968C9181FFC4C073
:1034B00082FDAEC06101D8011A964D915D916D916A
:1034C0007C911D97C114D10409F429C15B968D919B
:1034D0009C915C97FC0174802FEF270D2A013B0122
:1034E00039E076946794579447943A95D1F7722EC1
:1034F00074207A01F1E0FF22711020C0E114F10480
:10350000E9F416964D915D916D917C911997411555
:1035100051056105710509F098C057968D919D91EF
:103520000D90BC91A02D0097A105B10509F0AFC089
:10353000C8010E940F17882309F47EC080E092E042
:103540008E199F0946018C159D0508F44C01D80180
:103550005B964D915C915C9716968D919D910D9027
:10356000BC91A02D0297A109B109FA01258504C0DB
:10357000880F991FAA1FBB1F2A95D2F7468557852A
:1035800060897189840F951FA61FB71F9C01AD012B
:10359000270D311D411D511D29013A01811432E0D1
:1035A000930609F07AC080911D0190911E01A091AF
:1035B0001F01B091200184159505A605B70559F4A2
:1035C0008FEF9FEFDC0180931D0190931E01A0936C
:1035D0001F01B09320019501B301A2018091021651
:1035E000909103160E946812882331F19EEFB91A58
:1035F000C818D908F80182859385A485B585880DFA
:10360000991DA11DB11D82879387A487B58753CFCC
:10361000F801438954896589768982859385A485D3
:10362000B585481759076A077B0709F443CFC801D6
:103630000E947B1681113ECF81E090E0D801139665
:103640009C938E93129780E007C09E012F5F3F4F9F
:103650000E943B15811102C090E077C089819A8158
:10366000AB81BC81F801238D348DF901278948EFA6
:103670005FEF60E070E0203121F048EF5FEF6FEF27
:103680007FE084179507A607B70708F051CFF80128
:1036900086839783A087B18751CFE114F10491F518
:1036A000D8011A964D915D916D917C911D9753961D
:1036B0008D919D910D90BC91A02D481759076A07D7
:1036C0007B0700F10E94D112882309F4B5CF409204
:1036D0001D0150921E0160921F0170922001809185
:1036E000C30D81608093C30D97012C5F394ED501C6
:1036F000C901880D991DF9018E179F0759F04D9149
:103700004193FACF41E0C301B2010E940E1381112F
:10371000EBCF92CF821B930BA80EB91E69CFF80195
:1037200083899489A589B68984179507A607B70761
:1037300038F48481438B548B658B768B80688483CB
:10374000F801848183FD18C0C1010F900F900F9084
:103750000F90DF91CF911F910F91FF90EF90DF902D
:10376000CF90BF90AF909F908F907F906F905F9021
:103770004F903F902F900895C8010E941019882300
:1037800009F45ACFE1CFCF93DF931F92CDB7DEB7C5
:10379000698341E050E0BE016F5F7F4F0E94341AA1
:1037A0000F90DF91CF910895FC01DB0112968D916E
:1037B0009C9113979383828382EC91E09183808321
:1037C00014968C911497848315968C911597858304
:1037D00016964D915D916D917C9119974683578313
:1037E000608771871A964D915D916D917C911D97BF
:1037F00042875387648775871E964D915D916D91C1
:103800007C91519746875787608B718B52968C912C
:103810005297828B53964D915D916D917C91569705
:10382000438B548B658B768B57964D915D916D9143
:103830007C915A97478B508F618F728F5B968D91D9
:103840009C91948F838F0895DC015996ED91FC91A2
:10385000309721F081E09581911101C080E00895B9
:10386000FC01818D928D009711F00C941019089530
:10387000DC015996ED91FC913097B9F083899489D8
:10388000A589B6894285538564857585841B950B0A
:10389000A60BB70B811520E89207A105B10538F0FA
:1038A0008FEF9FE7A0E0B0E0089590E080E00895FA
:1038B000CF93DF93EC01E98DFA8D309749F481E0E5
:1038C00090E09B838A8390E080E0DF91CF91089520
:1038D00013821282898D9A8D0E94341AE98DFA8D95
:1038E00022813381232B59F7F0CFCF93DF931F929F
:1038F000CDB7DEB76983DC01ED91FC910280F381E5
:10390000E02D41E050E0BE016F5F7F4F09950F90C1
:10391000DF91CF910895CF93DF931F92CDB7DEB79C
:1039200041E050E0BE016F5F7F4F0E940918019790
:1039300031F4898190E00F90DF91CF9108958FEF5E
:103940009FEFF9CF1F93CF93DF93FC0125812230A6
:1039500030F490E080E0DF91CF911F910895EC0169
:10396000428553856485758585E07695679557957D
:1039700047958A95D1F7142F1F70CF010E948B1C99
:1039800097FDE7CF8A859B85AC85BD854F96A11DA8
:10399000B11D8A879B87AC87BD87F0E21F9FC0015E
:1039A00011248C5F994ED7CFFC01818D928D0097A9
:1039B00011F00C948B1C8FEF9FEF08950F931F93C2
:1039C000CF93DF93EC01898D9A8D10E000E0009792
:1039D00099F00E948B1C8C010F3F100769F0898DB4
:1039E0009A8DFC0142855385648575854150510946
:1039F000610971090E947B16C801DF91CF911F9167
:103A00000F910895CF93DF93EC01FB0182819381A5
:103A10009B838A8384819581A681B7818C839D83D2
:103A2000AE83BF8380859185A285B385888799877A
:103A3000AA87BB878EEC91E0998388838DE03C96C2
:103A4000DE011C9601900D928A95E1F7FB01818DB4
:103A5000928D9A8F898FDF91CF910895CF92DF92C7
:103A6000EF92FF92CF93DF9360E08DE10E94320AE4
:103A70008DE10E94630AB0E0A0E0BC01CD01660FB9
:103A8000771F881F991F0E940F5F23E333E343E5ED
:103A900050E40E94705F20E030E048EC52E40E9465
:103AA000705F20E030E84FEF53E40E94A86020E010
:103AB00030EC4FE754E40E9414610E948D61CB0109
:103AC00064E670E00E94D261EB01BC0190E080E00E
:103AD0000E940F5F20E030E048EC52E40E94146145
:103AE0006B017C01BE0190E080E00E940F5F9B01B2
:103AF000AC01C701B6010E94A860DF91CF91FF9091
:103B0000EF90DF90CF90089560E080E00E94D209AE
:103B100068EB7BE080E090E00E949D0A61E080E03D
:103B20000C94D209CF93DF9380B7806880BF61E0A7
:103B30008EE00E94D20962E370E080E090E00E9493
:103B40009D0A88E10E94630AEC0160E08EE00E9419
:103B5000D209BE01DD0F880B990B0E94115F23EA89
:103B600036E043E55BE30E94705F2EEB3FE94AEAF3
:103B70005FE30E94705FDF91CF910895CF93DF9351
:103B8000FB0122813381DC0113963C932E93129723
:103B9000448155816681778114964D935D936D9331
:103BA0007C931797408551856285738518964D9350
:103BB0005D936D937C931B971C96EF012C969C0153
:103BC000275E3F4F49914D93A217B307D9F7218D37
:103BD000328DFC01328F218FDF91CF910895CF93E9
:103BE000DF9382EA9AE10E94B40884EA90E20E949C
:103BF000DC0B80B78F7780BFCAE7D0E088818F77F2
:103C00008883F89485B7806885BF85B7806885BF4D
:103C1000789461E081E00E94D2098CB58F7B8CBDE5
:103C200061E085E00E94320A60E085E00E94D209EE
:103C300083B7817F846083BF83B7816083BF7894BB
:103C4000EBE6F0E0808184608083E8E6F0E080814C
:103C50008160808383B7816083BF889583B78E7FBF
:103C600083BF88818068888360E081E00E94D209F8
:103C70008CB580648CBD40E051EE60E070E082EA7B
:103C80009AE10E948A0768EE73E080E090E0DF919D
:103C9000CF910C949D0A90E080E00895282F30E0A9
:103CA00094E0359527959A95E1F7922F990F990F02
:103CB000291B220F820F089581E08093581888E60F
:103CC00080937918109282181092811860E085EF25
:103CD00091E20E94391081E00E94EB06811142C0FE
:103CE00067E088E60E944807109284188093831842
:103CF00085EF91E20E94F20F8F770E944E1E809313
:103D00000D1885EF91E20E94F20F0E944E1E8093E3
:103D10000E1885EF91E20E94F20F8F7B0E944E1EDB
:103D200080930F1885EF91E20E94F20F8093101894
:103D300085EF91E20E94F20F0E944E1E80931118AF
:103D400085EF91E20E94F20F8F770E944E1E8093C2
:103D5000121885EF91E20E94F20F0E944E1E825EC1
:103D60008093131880910D188093660D80910E1822
:103D70008093FB1580910F188093FC15809111188A
:103D80008093690D8091121880936A0D80911318A9
:103D900090E08E54984F9093680D8093670D62E386
:103DA00070E080E090E00C949D0ACF9391E09093B6
:103DB000581898E6909379181092821810928118EA
:103DC000682F85EF91E20E94391081E00E94EB0696
:103DD00081110DC061E088E60E94480710928418A6
:103DE0008093831885EF91E20E94F20FC82F8C2FE9
:103DF000CF9108951F93CF93DF9381E0809358185C
:103E000088E680937918109282181092811860E0E9
:103E100085EF91E20E943910CDE0D8E128811AE0C7
:103E2000822F612F0E94C661682F660F680F660F90
:103E3000620F85EF91E20E9439102981822F612F54
:103E40000E94C661682F660F680F660F620F85EFCC
:103E500091E20E9439102A81822F612F0E94C6614F
:103E6000682F660F680F660F620F85EF91E20E9460
:103E700039106B8185EF91E20E9439102C81822FDD
:103E8000612F0E94C661682F660F680F660F620F70
:103E900085EF91E20E9439102D81822F612F0E94BF
:103EA000C661682F660F680F660F620F85EF91E29B
:103EB0000E9439102E812E51822F612F0E94C661DF
:103EC000682F660F680F660F620F85EF91E20E9400
:103ED000391081E00E94EB06C82F8FE00E94D51EAA
:103EE000682F6F778FE00E9468108C2FDF91CF9141
:103EF0001F910895CF93DF93C82F8FE00E94D51EA6
:103F0000C150DD0B21E030E001C0220FCA95EAF775
:103F1000982F922351F02095622F68238FE00E9402
:103F2000681081E0DF91CF91089580E0FBCFCF93BF
:103F300082E10E94D51EC82F81E10E94D51E6C2F00
:103F4000782F77FF02C0615C7F4F86E0759567959B
:103F50008A95E1F7072E000C880B990B0E94115FE0
:103F600020E030E040E85EE30E94705FCF9108956A
:103F70008F929F92AF92BF92CF92DF92EF92FF9279
:103F80000F931F93CF93DF9300D000D0CDB7DEB750
:103F9000FC018581813091F080E00F900F900F90AF
:103FA0000F90DF91CF911F910F91FF90EF90DF90D5
:103FB000CF90BF90AF909F908F900895848181FFA4
:103FC000EBCF83899489A589B689892B8A2B8B2B82
:103FD00009F45EC07F0140E050E0BA01CF010E94C9
:103FE0007B168823C9F2F701C38CD48C8788908C08
:103FF000A18CB28C82E090E0A0E0B0E0F60180837A
:104000009183A283B3839E012F5F3F4FB501A4012B
:10401000C6010E943B15882309F4BECF00E010E0E2
:104020009801B501A401C6010E949914882309F4DE
:10403000B3CF89809A80AB80BC80F60187898031BC
:1040400011F188EF9FEFAFEFBFE088169906AA063F
:10405000BB06C8F2F701178A108E118E128E138AD2
:10406000148A158A168A848180688483C7010E9415
:104070001019882309F490CF40E050E0BA01C7013D
:104080000E947B168ACF88EF9FEFA0E0B0E0DDCFE3
:1040900081E083CFCF93DF93EC010E94B81F882388
:1040A00069F0CE010E945713009741F025EEFC0104
:1040B00020831D82DF91CF910C94D11280E0DF919B
:1040C000CF910895CF92DF92EF92FF921F93CF93FB
:1040D000DF93EC0180E2689FF0011124EC5FF94E60
:1040E0009385917161F0842F827449F080E0DF91B3
:1040F000CF911F91FF90EF90DF90CF900895142FF4
:104100006A8B80911D0190911E01A0911F01B091B9
:1041100020018E879F87A88BB98BC488D588F12C06
:10412000E12C7601DD24CC24CF8AD88EE98EFA8E5C
:10413000828D938DB0E0A0E0AC01BD014C295D29DA
:104140006E297F294F8B588F698F7A8F838588716D
:10415000B1F4848D958DA68DB78D8B8B9C8BAD8B9B
:10416000BE8B81E08D831F701C831E821F82188688
:1041700019861A861B861C861D8681E0B8CF803181
:1041800009F0B4CF9E012D5E3F4F8B8D9C8D0E9418
:10419000BC15882309F4AACF84E0E4CF2F923F9284
:1041A0004F925F926F927F928F929F92AF92BF9247
:1041B000CF92DF92EF92FF920F931F93CF93DF93F3
:1041C00000D000D000D0CDB7DEB78C016B8349831F
:1041D0008091971E22242394280E2092971E312C22
:1041E000C12CD12C7601D39477247394730C8091D5
:1041F0009A1E831508F4EFC08091901E9091911E35
:10420000DC01ED91FC91008CF18DE02D622D099582
:104210008091901E9091911EDC01ED91FC91028C99
:10422000F38DE02D40E860E0099549816B81C8017C
:104230000E94D3070E94C807B981BF3FD1F481E033
:1042400026960FB6F894DEBF0FBECDBFDF91CF919B
:104250001F910F91FF90EF90DF90CF90BF90AF90A4
:104260009F908F907F906F905F904F903F902F9096
:10427000089521E0271598F48091931E9091941E43
:10428000A091951EB091961E0196A11DB11D80931F
:10429000931E9093941EA093951EB093961E0E9419
:1042A000160B4B015C018091981E9091991E9D8385
:1042B0008C830E94225EA70196010E9444609B01AC
:1042C000AC01AC81BD810E946360A70196010E9490
:1042D0004460AC81BD812A0F3B1F372C2901712C12
:1042E000612C0E94160B681979098A099B096415CB
:1042F00075058605970508F077CF8091901E9091FF
:10430000911EDC01ED91FC910280F381E02D099575
:10431000882339F38091901E9091911EDC01ED91DC
:10432000FC910480F581E02D50E040E070E060E019
:1043300009958823B1F28091901E9091911EDC0125
:10434000ED91FC9100A0F1A1E02D09958E83809163
:10435000901E9091911EDC01ED91FC91068CF78DE1
:10436000E02D09958A838091901E9091911EDC0129
:10437000ED91FC9102A0F3A1E02D09958C83809131
:10438000901E9091911EDC01ED91FC9104A0F5A18D
:10439000E02D0995B9812E81B2130BC09091921E28
:1043A000AA819A1306C087FF04C0BC812B1609F4AA
:1043B00046CF87FD96CF2E81E22FF0E0E057F14EF9
:1043C00083859C8189138DCF422F692F80E99EE1DF
:1043D0000E94E10D86CF80E033CF0F931F93CF93E0
:1043E000DF934115510541F0FC0104811581011550
:1043F000110539F4FB011082DF91CF911F910F91CC
:104400000895415051094017510708F48A01EB0102
:10441000FC0160817181A801CE010E943664C00F49
:10442000D11F1882E9CFFB0101900020E9F73197F5
:10443000AF01461B570BDC01ED91FC910280F3812B
:10444000E02D09948F929F92AF92BF920F931F938A
:10445000CF93DF93CDB7DEB7A1970FB6F894DEBF49
:104460000FBECDBF19A2423008F44AE08E010F5DA5
:104470001F4F842E912CB12CA12CA50194010E94D8
:104480007660E62FB901CA01EA3004F5E05DD80193
:10449000EE938D01232B242B252B79F790E080E0E0
:1044A000109729F0BD0182EA9AE10E941322A19699
:1044B0000FB6F894DEBF0FBECDBFDF91CF911F9135
:1044C0000F91BF90AF909F908F900895E95CDFCFE0
:1044D000682F70E090E080E04AE00C942222CF92B6
:1044E000DF92EF92FF92CF93DF9397FF19C06B019A
:1044F0007C018DE20E943909EC0166277727CB0108
:104500006C197D098E099F094AE00E9422228C0FB6
:104510009D1FDF91CF91FF90EF90DF90CF90089596
:104520004AE0DF91CF91FF90EF90DF90CF900C9415
:104530002222009729F0BC0182EA9AE10C9413220E
:1045400090E080E008956FE278E00C941322CF931E
:10455000DF930E946822EC0182EA9AE10E94A32282
:104560008C0F9D1FDF91CF910895CF92DF92EF9234
:10457000FF92CF930E94160B6B017C0128E9C20EBB
:104580002AE3D21EE11CF11CC092A60DD092A70D09
:10459000E092A80DF092A90D1092A50D0E94160BA5
:1045A0006C157D058E059F0520F582EA9AE10E9433
:1045B00099081816190694F764E670E080E090E018
:1045C0000E949D0A82EA9AE10E949908D82EF12C55
:1045D000CAE0E090A50DFD1460F482EA9AE10E9421
:1045E0007808EC9E800D112480538093A50DF394E0
:1045F000F0CF8091A50DCF91FF90EF90DF90CF90FD
:104600000C94A7221F93CF93DF930E945C1ED0913E
:10461000900DD43009F048C04091FC15242F30E0B3
:10462000C90102968231910509F454C04231C9F59D
:1046300068E170E00E94E661C82F2AE08C2F622FAB
:104640000E94C661182F110F180F110F1C0F8D2F0C
:104650000E94C661682F660F680F660F6D0F8BE0B2
:104660000E946810612F8CE00E94681060E88DE065
:104670000E9468108AE192E00E9499228C2F0E9489
:1046800068228DE699E00E9499228D2F0E94A72230
:1046900062E370E080E090E0DF91CF911F910C9495
:1046A0009D0AC9010496C4CFD13039F6C091FC15DA
:1046B000C23139F48091FB15833268F0C3E1D4E054
:1046C000BCCF8C2F90E0019668E170E00E94E6611B
:1046D000C82FF5CFC2E1D3E2B0CFCF930E945C1ECA
:1046E0002091830DE22FF0E08091FB158E0F9F2F1C
:1046F000911D6CE370E00E94E661BF010E94E661DB
:10470000269F202D11242F5F2093FC0C822F6AE01E
:104710000E94C661C82FCC0FC80FCC0FC20F60E03B
:1047200087E00E9468106C2F88E00E94681060E8A3
:1047300089E00E94681060E88AE00E9468108CE2BC
:1047400092E00E9499228091FC0C0E94A72262E3D1
:1047500070E080E090E0CF910C949D0ACF93DF93BE
:104760004AE00E942222EC0182EA9AE10E94A322FE
:104770008C0F9D1FDF91CF910895CF93DF93BC01E4
:10478000990F880B990B0E946F22EC0182EA9AE143
:104790000E94A3228C0F9D1FDF91CF910895CF928D
:1047A000DF92EF92FF920F931F93CF93DF930E94BC
:1047B000160B6B017C0128E9C20E2AE3D21EE11C14
:1047C000F11CC092A60DD092A70DE092A80DF09218
:1047D000A90D1092A40D1092A30D0E94160B6C153A
:1047E0007D058E059F0508F046C082EA9AE10E9489
:1047F0009908181619068CF764E670E080E090E0DE
:104800000E949D0A82EA9AE10E9499088C01909385
:10481000A20D8093A10D81E08093A00D3AE0C32EFC
:10482000D090A00DCD2DD0E0E090A30DF090A40D80
:104830000C171D0704F182EA9AE10E947808CC0F58
:10484000DD1FCE56D24F998388838D30910579F044
:104850008A30910561F0C097CE9C9001CF9C300DBD
:104860001124820F931F9093A40D8093A30DD394D2
:10487000D092A00DD5CF8091A30D9091A40D0E9450
:10488000BD236AE070E080E090E0DF91CF911F915E
:104890000F91FF90EF90DF90CF900C949D0A0F93B3
:1048A0001F93CF93DF938C01D0E0C0E061157105B9
:1048B00019F00E941322EC01C8010E94A3228C0F60
:1048C0009D1FDF91CF911F910F910895CF92DF929D
:1048D000EF92FF921F93CF93DF930E94160B6B0111
:1048E0007C0128E9C20E2AE3D21EE11CF11C0E94C1
:1048F000160B6C157D058E059F0540F582EA9AE141
:104900000E9499081816190694F764E670E080E092
:1049100090E00E949D0A82EA9AE10E949908EC01C7
:10492000F82E10E082EA9AE10E9478088D3039F082
:104930008A3029F0E12FF0E0E655F24F80831F5FC7
:10494000F11680F7DD27C655D24F18826AEA7DE05E
:1049500082EA9AE1DF91CF911F91FF90EF90DF9073
:10496000CF900C944F240F931F93CF93DF93EC01C0
:10497000FB014481558160817181E881F981028068
:10498000F381E02D09958C01CE010E94A322800FB6
:10499000911FDF91CF911F910F9108950F931F9356
:1049A000CF93DF93EC010E9417088C01CE010E9487
:1049B000A322800F911FDF91CF911F910F91089536
:1049C000CF93DF93EC010E945F0B6FE57DE082EAFD
:1049D0009AE10E941708BE0182EA9AE10E94CE2461
:1049E000BE0180918E1E90918F1E0E94CE2480E089
:1049F0000E94CF0AC82F68E57DE082EA9AE10E9412
:104A0000170864E87DE182EA9AE10E944F248C2F26
:104A1000DF91CF910895DF92EF92FF920F931F9352
:104A2000CF93DF938C017B01D42EBC0184E89DE100
:104A30000E94B35EEC01892BE1F0C8010E94AA5EDE
:104A40008C0F9D1FDD2039F06CE270E00E94246421
:104A5000009779F001960E947A5EF7019183808336
:104A600081E0DF91CF911F910F91FF90EF90DF9048
:104A7000089580E0F6CFCF93DF93EB010E94E0240E
:104A8000882341F0BE0184E89DE10E94A15E21E0FF
:104A9000892B09F020E0822FDF91CF910895CF93E9
:104AA000DF9390938F1E80938E1E61E08091821D14
:104AB0000E94320A61E08091821D0E94D2096AE060
:104AC00070E080E090E00E949D0A60E08091821D8D
:104AD0000E94D20964E670E080E090E00E949D0AA6
:104AE00061E08091821D0E94D20967E37DE082EA45
:104AF0009AE10E94CE24CEE0D0E080918E1E90916B
:104B00008F1EDC01ED91FC910084F185E02D09956B
:104B1000892B61F080918E1E90918F1EDC01ED91AA
:104B2000FC910284F385E02D0995E7CF60918C1EFE
:104B300070918D1E84E39DE00E943B2581115AC037
:104B400080918E1E90918F1EDC01ED91FC9100846E
:104B5000F185E02D0995892B61F080918E1E909151
:104B60008F1EDC01ED91FC910284F385E02D099507
:104B7000E7CF6EE27DE081E39DE00E943B2581115D
:104B800039C064EF71E080E090E00E949D0A2197B7
:104B900009F0B3CF6CEF7CE082EA9AE10E94CE2468
:104BA00060918C1E70918D1E89EF9CE00E943B25C8
:104BB00064E670E080E090E00E949D0A60918C1EA7
:104BC00070918D1E86EF9CE00E943B2564E670E0AC
:104BD00080E090E00E949D0A60918C1E70918D1E75
:104BE00083EF9CE00E943B2564E670E080E090E06B
:104BF0000E949D0A60918C1E70918D1E8EEE9CE02D
:104C00000E943B2564E670E080E090E00E949D0AEF
:104C100060918C1E70918D1E89EE9CE00E943B2558
:104C2000C82F882309F479C060918C1E70918D1E65
:104C30008FED9CE00E943B2564E670E080E090E010
:104C40000E949D0A0E945F0B68ED7CE082EA9AE177
:104C50000E9417086EE372E082EA9AE10E944F24F4
:104C60006EE372E080918E1E90918F1E0E944F2401
:104C700081E00E94CF0A61ED7CE082EA9AE10E9425
:104C8000170864E87DE182EA9AE10E944F2466EC0D
:104C90007CE084E89DE10E94B35E892B09F441C069
:104CA00083E08093831D8091831D813071F569E8D5
:104CB0007CE082EA9AE10E94170862E472E082EAEC
:104CC0009AE10E944F2462E472E080918E1E9091DE
:104CD0008F1E0E944F2481E00E94CF0A62E87CE090
:104CE00082EA9AE10E94170864E87DE182EA9AE18B
:104CF0000E944F246AE77CE084E89DE10E94B35E55
:104D0000892B19F086E08093831D60918C1E709131
:104D10008D1E83E69CE00E943B258C2FDF91CF9176
:104D200008956BEB7CE084E89DE10E94B35E892BE3
:104D300011F082E0B6CF60EB7CE084E89DE10E9458
:104D4000B35E892B11F081E0ACCF60EA7CE084E8AF
:104D50009DE10E94B35E892B11F084E0A2CF60E94F
:104D60007CE084E89DE10E94B35E892B09F49BCF2F
:104D700085E097CF0E9409640F931F93CF93DF9331
:104D8000EC0188819981009759F02A813B8126178F
:104D9000370730F081E0DF91CF911F910F91089597
:104DA0008B016F5F7F4F0E942863009759F09983B2
:104DB00088831B830A832C813D81232B59F7FC01B7
:104DC0001082E8CF80E0E7CFEF92FF920F931F931E
:104DD000CF93DF936115710541F480E0DF91CF91AE
:104DE0001F910F91FF90EF90089541155105B1F07B
:104DF0007B01EC010C811D81040F151FB8010E947D
:104E0000BC26882351F3288139818C819D81B7018B
:104E1000820F931F0E942F641D830C8381E0DECFDD
:104E2000EF92FF920F931F93CF93DF9300D000D0A8
:104E3000CDB7DEB77C01862F4AE08E010F5F1F4F92
:104E4000B80190E00E94CD5EF80101900020E9F7E2
:104E50003197AF01401B510BB801C7010E94E426F6
:104E60000F900F900F900F90DF91CF911F910F91A6
:104E7000FF90EF900895CF93DF9300D0CDB7DEB7CA
:104E800069831A8241E050E0BE016F5F7F4F0E944C
:104E9000E4260F900F90DF91CF910895FB010190D0
:104EA0000020E9F73197AF01461B570B0C94E4261D
:104EB000FB0144815581608171810C94E426CF937C
:104EC000DF93EC0188819981009711F00E949F6225
:104ED000198218821D821C821B821A82DF91CF9157
:104EE0000895CF93DF93EC016115710539F4CE017C
:104EF0000E945F27CE01DF91CF910895FB010190C1
:104F00000020E9F73197AF01461B570B0E94E426BA
:104F1000882369F3EFCFCF93DF93EC01FB0144814A
:104F20005581608171810E94E426811103C0CE0108
:104F30000E945F27CE01DF91CF910895EF92FF92FB
:104F40000F931F93CF93DF93EC017B018A01BA018A
:104F50000E94BC2681110BC0CE010E945F27CE01AA
:104F6000DF91CF911F910F91FF90EF9008951D83D6
:104F70000C83B701888199810E942F64F0CFFB01D7
:104F800001900020E9F73197AF01461B570B0C94B5
:104F90009E270F931F93CF93DF93CDB7DEB729974B
:104FA0000FB6F894DEBF0FBECDBF8C01862FF8017F
:104FB0001182108213821282158214824AE0BE018D
:104FC0006F5F7F4F90E00E94E05EBE016F5F7F4F9A
:104FD000C8010E94BF2729960FB6F894DEBF0FBE06
:104FE000CDBFDF91CF911F910F9108950F931F9324
:104FF000CF93DF93CDB7DEB762970FB6F894DEBFDD
:105000000FBECDBF8C01CB01F8011182108213823B
:105010001282158214824AE0BE016F5F7F4F0E94A8
:10502000CD5EBE016F5F7F4FC8010E94BF276296B1
:105030000FB6F894DEBF0FBECDBFDF91CF911F91A9
:105040000F9108950F931F93CF93DF93CDB7DEB7E2
:1050500028970FB6F894DEBF0FBECDBF62E572E0B1
:1050600085EC91E20E94BF270E945C1E4AE08E01FF
:105070000F5F1F4FB8018091670D9091680D0E94DE
:10508000CD5EF80101900020E9F73197AF01401B98
:10509000510BB80185EC91E20E94E4266DE285ECAB
:1050A00091E20E943B2760916A0D85EC91E20E949B
:1050B00010276DE285EC91E20E943B276091690D1B
:1050C00085EC91E20E9410276FE585EC91E20E9449
:1050D0003B276091FC1585EC91E20E9410276AE362
:1050E00085EC91E20E943B271091FB151A3028F4C1
:1050F00060E385EC91E20E943B27612F85EC91E211
:105100000E9410276AE385EC91E20E943B271091F0
:10511000660D1A3028F460E385EC91E20E943B278B
:10512000612F85EC91E20E94102769E472E085EC22
:1051300091E20E944E2762E370E080E090E00E94DE
:105140009D0A28960FB6F894DEBF0FBECDBFDF9143
:10515000CF911F910F910895CF93DF93C0E0D6E0D8
:105160008091910DC81758F4CD9FC001112462E5BC
:1051700072E08F529E4D0E94BF27CF5FF1CFDF912B
:10518000CF910895CF93DF93EC01FB01861797072A
:1051900049F0608171816115710541F0448155814B
:1051A0000E949E27CE01DF91CF9108950E945F2734
:1051B000F9CFFC01118210821382128215821482AF
:1051C0000C94C228FC011182108213821282158273
:1051D0001482FB0101900020E9F73197AF01461BD3
:1051E000570B0C949E27FC01808191810C949F6247
:1051F000CF93DF93EC01898D9A8D009741F00E9447
:105200003F19898D9A8D0E949F621A8E198EDF91A7
:10521000CF910895CF92DF92EF92FF920F931F9359
:10522000CF93DF93EC017B018A01E881F981028051
:10523000F381E02D0995D82E882329F1E114F1049A
:10524000D1F001151105B9F0CFB6F8948A8D8350CD
:10525000990BF8012081281719061CF08A8D8450BB
:105260008083F801408150E0BE01615E7F4FC7013D
:105270000E941B64CFBE8FB7F894FE01E65EFE4F1E
:1052800010821A8E8FBF8D2DDF91CF911F910F91BC
:10529000FF90EF90DF90CF900895EF92FF920F93E1
:1052A0001F93CF93DF9300D01F92CDB7DEB78C0151
:1052B0000E94C30DE82E81110CC0E12C8E2D0F90A1
:1052C0000F900F90DF91CF911F910F91FF90EF9072
:1052D0000895F801808D8A3009F47EC08B3009F47E
:1052E0007DC022E0F22E823041F740E861E0C80143
:1052F0000E94990B6AE070E080E090E00E949D0AB5
:1053000061E0C8010E94D90C8038B9F660E0F8016C
:10531000808D0E94320AF801818D8F3F49F480917F
:105320000C0E843050F691E0980F90930C0E818F04
:10533000F801818DE82FF0E0EE0FFF1FE35FF14FE2
:10534000118300836AEB7DE0882349F061EB7DE007
:10535000813029F0823009F0B0CF68EA7DE08F2DEE
:105360000E94F60740E06EE0C8010E94990B40E001
:105370006FE0C8010E94990BC8010E94F10B43E045
:1053800050E069ED7BE0CE0101960E94985E498174
:105390006DE1C8010E94990B4A816EE1C8010E942B
:1053A000990B4B8166E2C8010E94990B40E060E2D4
:1053B000C8010E94990B48E061E2C8010E94990B64
:1053C00040E050EC64E674E4C8010E94050C6DE016
:1053D000C8010E94C90B72CFF12C87CFFF24F39430
:1053E00084CF3F924F925F926F927F928F929F9263
:1053F000AF92BF92CF92DF92EF92FF920F931F93E3
:10540000CF93DF93CDB7DEB72B970FB6F894DEBFFF
:105410000FBECDBF7C01DC0115968C91811115C0AA
:10542000FE013196CE010C966F0130E231938E175A
:105430009F07E1F7DA0130E087E09D91B92E9923CB
:1054400029F19E3239F48A3011F480E0BEC038E090
:105450008AE0F3CFE9ECFBE04491442321F031965C
:105460009413FACFF2CF831780F34FED490F4E35E7
:1054700060F74FE9490F4A3118F440EEB42EB90EE7
:10548000F601E30FF11DB0823F5FD7CF89818032F3
:10549000E1F2322E8B01FB01838D948DD7015C9656
:1054A0009C938E935B9716821782108611861286C4
:1054B000138614861586F80182859385A485B585A3
:1054C000438954896589768984179507A607B707A4
:1054D00090F525E0B695A795979587952A95D1F7EC
:1054E000F82FFF70AF2EC8010E94A21C009709F48C
:1054F000ACCFDC012C91222341F0253E09F057C0AE
:10550000BB2029F0BB24B394D6CFB1100EC0F70155
:10551000A28A40911D0150911E0160911F0170915E
:10552000200146875787608B718BFC018081811138
:10553000E9CFBB24B394832D8271823109F085CFEA
:10554000BB2009F45AC0C7010E945713009709F401
:105550007CCF20E2FC0111922A95E9F72BE0F601BD
:10556000DC0101900D922A95E1F721E238E2DC019D
:1055700051963C932E93509740E058E01F965C93D1
:105580004E931E9753963C932E93529759963C9365
:105590002E93589757965C934E9356970E94D1122C
:1055A000882309F452CF432DF70162890BC04BE0E9
:1055B00050E0BC01C6010E940E64892B09F07BCF2C
:1055C000432D6A2DC7010E9462202B960FB6F894D6
:1055D000DEBF0FBECDBFDF91CF911F910F91FF9026
:1055E000EF90DF90CF90BF90AF909F908F907F9083
:1055F0006F905F904F903F900895D80115968C91D1
:10560000823009F422CFC8010E940F17882309F4C1
:105610001CCFD8015B96ED91FC915C9716968D900E
:105620009D90AD90BC901997B2E08B1A9108A1089B
:10563000B108858504C0880C991CAA1CBB1C8A95DE
:10564000D2F786859785A089B189880E991EAA1EF2
:10565000BB1E848124013501480E511C611C711C44
:1056600084149504A604B70401F1E1E04E1A510830
:10567000610871080E94D112882309F4E6CEE4E0A3
:10568000F6E1119284E098E18E179F07D1F74092DE
:105690001D0150921E0160921F01709220018091A5
:1056A000C30D81608093C30DDBCFD8015B96ED9174
:1056B000FC91258580E092E0A0E0B0E004C0880F76
:1056C000991FAA1FBB1F2A95D2F7F8014389548955
:1056D00065897689840F951FA61FB71F838B948BCE
:1056E000A58BB68BD70152961C9284E096E131CF00
:1056F0005F926F927F928F929F92AF92BF92CF9262
:10570000DF92EF92FF920F931F93CF93DF93CDB76A
:10571000DEB7C754D1090FB6F894DEBF0FBECDBFB8
:105720005C013B0119A218A282EC91E09F8F8E8F41
:105730001BA21C821B829A8389831E8210E000E0D8
:105740006E018EE1C80ED11C8BEEE82E8CE1F82E96
:10575000F501E00FF11F80818F3211F40F5F1F4FB1
:10576000D501A00FB11FFE01FB9690E080E04F0134
:105770002D912F3249F0222339F00F5F1F4F0196F0
:1057800021938C309105A1F7880D991DFC011082A1
:10579000F501E00FF11F80818F3211F40F5F1F4F71
:1057A000F501E00FF11F508041E0511040E030E082
:1057B00020E0B401C701F3010995811121C0FBEE7E
:1057C000EF16FCE1FF06C1F480E0C95BDF4F0FB6C6
:1057D000F894DEBF0FBECDBFDF91CF911F910F9127
:1057E000FF90EF90DF90CF90BF90AF909F908F9001
:1057F0007F906F905F900895C7010E943F19E4CF9A
:10580000552091F021E0A401B701C6010E94F129C1
:10581000982E8BEEE8168CE1F80681F0C7010E9405
:105820003F19911010C0D0CF9BEEE9169CE1F9060C
:1058300019F0C7010E943F1981E0C7CF992021F2DA
:10584000FE0131967F019E2D8F2D7601C92ED82E17
:105850007FCFCF93DF93CDB7DEB76D970FB6F894B8
:10586000DEBF0FBECDBF442309F453C0AB01BC0162
:105870001C821B8282EC91E09A8389831E8221E044
:10588000CE0101960E94F129882339F08E8184305F
:1058900071F090E081E0911101C080E06D960FB64B
:1058A000F894DEBF0FBECDBFDF91CF9108951F8268
:1058B000188619861A861B861C861D861E864B85B1
:1058C0005C856D857E858C899D89AE89BF894817E9
:1058D00059076A077B0790F4CE0101960E94A21C2B
:1058E0000097B9F2FC012081222341F0253E39F3D3
:1058F0002E3229F3838583FDE2CFCBCF81E08E83E7
:105900008D8182608D83CE0101960E944A20982F5E
:10591000C1CF81E0C3CFCF93DF93CDB7DEB76D9713
:105920000FB6F894DEBF0FBECDBF442311F1AB011B
:10593000BC011C821B8282EC91E09A8389831E82C7
:1059400022E0CE0101960E94F129882321F0CE01A8
:1059500001960E944A2091E0811101C090E0892FB8
:105960006D960FB6F894DEBF0FBECDBFDF91CF911D
:10597000089591E0F4CF1F93CF93DF93CDB7DEB7B7
:105980006D970FB6F894DEBF0FBECDBFAB011C8282
:105990001B8222EC31E03A8329831E8221E0BC0184
:1059A000CE0101960E94F12911E081110CC010E096
:1059B000812F6D960FB6F894DEBF0FBECDBFDF917D
:1059C000CF911F910895CE0101960E943F19F0CF0B
:1059D000EF92FF920F931F93CF93DF93EC017B0124
:1059E0008A011B821A8288EE93E0A0E0B0E08C83EB
:1059F0009D83AE83BF838EEC91E0998388838DE194
:105A000090E00E9403629A8F898F009779F02DE1D0
:105A1000F701DC0101900D922A95E1F74CE050E08E
:105A2000B801CE010C960E943664188EDF91CF919A
:105A30001F910F91FF90EF900895CF92DF92EF9218
:105A4000FF920F931F93CF93DF93CDB7DEB7C75667
:105A5000D1090FB6F894DEBF0FBECDBF8C017B011C
:105A6000DB015996CD90DC90F6018581823008F4F7
:105A70009AC082859385A485B5858F719927AA27B9
:105A8000BB27892B8A2B8B2B09F08DC040E250E07D
:105A9000BE016F5F7F4FC6010E940918803209F076
:105AA00082C08981882309F47EC0853E79F38E32D5
:105AB00069F38C8583FDEACF22961FAE1EAE229736
:105AC00082EC91E09FAF8EAF24961FAE2497BE016B
:105AD0006F5F7F4FE0E080E02EE2DB019D91BD0132
