:100000000C943B070C94525C0C94275C0C94FC5BA6
:100010000C94D15E0C9465070C9465070C946507ED
:100020000C9465070C9465070C9465070C946507A0
:100030000C9465070C947D5C0C9465070C94650723
:100040000C9465070C9465070C94B25B0C946507DF
:100050000C947D5B0C94535B0C9465070C946507C2
:100060000C9465070C9465070C94AD5D0C946507C2
:100070000C941E5B0C94F45A0C9465070C94650761
:100080000C9465070C9465070C94650741542B4349
:10009000434944002B43474154543A200041542BD8
:1000A00043474154543F002B43475245473A2000B1
:1000B00041542B43475245473F0047505253206F0E
:1000C0006E004552524F523A2047505253206661BB
:1000D000696C656420746F207475726E206F6E0099
:1000E0005265676973746572656420726F616D69CA
:1000F0006E6700556E6B6E6F776E0044656E696556
:1001000064004E6F7420726567697374657265640C
:100110002028736561726368696E6729005265679C
:10012000697374657265642028686F6D6529004E77
:100130006F742072656769737465726564003A2034
:10014000004E6574776F726B2073746174757320E1
:10015000005475726E696E672063656C6C206D6FFC
:1001600064756C65206F66662E2E2E0052535349BF
:10017000202864426D293A202D00456E7465722056
:1001800027782720617420616E792074696D65205D
:10019000746F2073746F70005475726E696E67208F
:1001A00063656C6C206D6F64756C65206F6E2E2EB0
:1001B0002E004552524F523A204C6F6E676974754B
:1001C000646520696E636F727265637421004552C5
:1001D000524F523A204C6174697475646520696E9F
:1001E000636F727265637421004552524F523A2018
:1001F000496E76616C69642075706C6F616420690A
:100200006E74657276616C2028657665727920312E
:10021000206F72203420686F7572732900526563F5
:100220006569766572206D6F64653A206E6F207522
:10023000706C6F616473004552524F523A20496EA0
:1002400076616C696420696E74657276616C2028D1
:1002500065766572792031302C2031352C20323092
:100260002C2033302C206F72203630206D696E7355
:10027000290070726F6A65637449443A2000202037
:10028000696E707574206D696E7574653A20002012
:1002900020696E70757420686F75723A2020200096
:1002A0002020696E70757420796561723A20202073
:1002B000002020696E707574206461793A202020D6
:1002C00020002020696E707574206D6F6E74683A1E
:1002D00020200053796E6368726F6E697A61746969
:1002E0006F6E206661696C65642E20506C65617369
:1002F0006520656E7465722074696D65206D616E30
:1003000075616C6C7920696E205554433A20005316
:10031000796E6368726F6E697A696E6720636C6F5D
:10032000636B20746F204E49535420736572766559
:1003300072202E2E2E200044656661756C7420722A
:100340006164696F2049442061636365707465640A
:1003500000526164696F204944207570646174655E
:100360006400456E746572206E6577207261646901
:100370006F2049443A2000576F756C6420796F757F
:10038000206C696B6520746F206368616E676520FF
:1003900074686520726164696F2049442066726FD9
:1003A0006D207468652064656661756C7420766183
:1003B0006C75653F20792F6E3A2000456E7465722A
:1003C0002074686520486F6C6F6772616D2064658A
:1003D00076696365206B657920666F722074686941
:1003E0007320476174657761793A2000456E7465C2
:1003F000722074686520726164696F2049442066C8
:100400006F72204E6F64652000293F00496E76614F
:100410006C6964206E756D626572206F66206E6F08
:100420006465732E2020486F77206D616E79206E91
:100430006F646573206172652061742074686973EC
:10044000207369746520286D61782E00486F7720CD
:100450006D616E79206E6F646573206172652061D5
:10046000742074686973207369746520286D6178DD
:100470002E2000496E76616C696420696E74657225
:1004800076616C2E20456E746572206D65617375A2
:1004900072656D656E7420696E74657276616C202C
:1004A0002831302C2031352C2032302C2033302C88
:1004B000206F72203630293A2000456E7465722014
:1004C0006D6561737572656D656E7420696E7465B6
:1004D0007276616C202831302C2031352C2032305E
:1004E0002C2033302C206F72203630206D696E73D3
:1004F000293A2000496E76616C696420696E7465E2
:100500007276616C2E20456E746572206D65617324
:100510007572656D656E7420696E74657276616C56
:10052000202831302C2031352C2032302C20333013
:100530002C206F72203630293A2000456E74657287
:10054000206D6561737572656D656E7420696E747A
:10055000657276616C202831302C2031352C2032A8
:10056000302C2033302C206F72203630206D696E95
:1005700073293A2000436865636B696E67204650B3
:100580004C4D4E2E2E2E0045786974002020526569
:10059000636569766572204D6F646520646561638B
:1005A00074697661746564002020526563656976BC
:1005B0006572204D6F64652061637469766174654E
:1005C0006400576F756C6420796F75206C696B657A
:1005D00020746F2075736520526563656976657256
:1005E000204D6F64653F20792F6E3A20004E4F54A6
:1005F000453A205265636569766572206D6F646562
:100600002077696C6C206E6F742075706C6F6164FC
:10061000206461746120746F20486F6C6F67726131
:100620006D002020456E74657220612050726F6AE3
:100630006563742049442028757020746F2035202C
:10064000636861726163746572732C2065783A2007
:10065000505341293A200020204552524F523A200F
:1006600050726F6A656374204944206578636565DC
:1006700064732035206368617261637465727321ED
:10068000002020456E74657220612050726F6A658B
:1006900063742049442028757020746F20352063CE
:1006A0006861726163746572732C2065783A2050BA
:1006B0005341293A200045786974004172652079D8
:1006C0006F75207375726520796F752077616E7410
:1006D00020746F20636C65617220746865204650D9
:1006E0004C4D4E3F20792F6E3A200021212120557C
:1006F000534520574954482043415554494F4E20B3
:1007000021212100576F756C6420796F75206C6909
:100710006B6520746F207475726E206465627567F6
:100720002073746174656D656E7473206F6E3F2005
:10073000792F6E3A2000576F756C6420796F7520A1
:100740006C696B6520746F207475726E20646562CD
:1007500075672073746174656D656E7473206F6660
:10076000663F20792F6E3A200045726173652053F1
:100770004420636172643A20005072696E74206490
:100780006174612066696C65733A20005361766517
:10079000642066696C65733A20004552524F523AA4
:1007A0002075706C6F616420696E74657276616C1F
:1007B000206D75737420626520656E746572656462
:1007C0002066697273742E2052657475726E696E3C
:1007D0006720746F206D656E752E2E2E0041726538
:1007E00020796F75207375726520796F7520776138
:1007F0006E7420746F2065726173653F20456E745E
:10080000657220792F6E3A20004C61742F6C6F6EE8
:10081000672076616C7565732077696C6C206170F8
:1008200070656172206173202D3939393939393950
:10083000393920696E2074686520646174612073A1
:100840007472696E672E004552524F523A204C6FB7
:100850006E67697475646520696E636F7272656333
:100860007421004C6F6E6769747564653A200045A9
:1008700052524F523A204C61746974756465206914
:100880006E636F727265637421004C617469747574
:1008900064653A200053656C656374206F707469F9
:1008A0006F6E3A200020202030203C2D2D204572F4
:1008B000617365204C61742F4C6F6E672076616C9C
:1008C0007565730020202031203C2D2D20456E744D
:1008D0006572204C61742F4C6F6E672076616C7569
:1008E000657300456E74657220636F6E6669677527
:1008F000726174696F6E20737472696E673A20005A
:10090000456E7465722063686F6963653A200020E4
:10091000207820203C2D2D202045786974206D659D
:100920006E750020207220203C2D2D202052656302
:100930006569766572204D6F6465206F6E2F6F66F6
:10094000660020206D20203C2D2D20205365742032
:100950006D6561737572656D656E7420696E746521
:100960007276616C0020207520203C2D2D202053B4
:10097000657420646174612075706C6F61642074AB
:100980006F20636C6F756420696E74657276616C3C
:100990000020206E20203C2D2D2020456E74657295
:1009A000204E6F646520726164696F204944730052
:1009B00020206420203C2D2D2020456E746572205F
:1009C000486F6C6F6772616D20446576696365205E
:1009D0004B65790020206720203C2D2D2020436886
:1009E000616E676520476174657761792072616423
:1009F000696F2049440020206C20203C2D2D2020B0
:100A0000456E746572206F72206572617365204C4B
:100A100061742F4C6F6E672076616C756573002072
:100A2000206920203C2D2D2020456E746572207099
:100A3000726F6A6563742049440020203020203C96
:100A40002D2D2020456E74657220636F6E66696778
:100A500075726174696F6E20737472696E6700439A
:100A60006F6E66696775726174696F6E204F70741E
:100A7000696F6E733A0020203420203C2D2D2020F9
:100A8000436C65617220666F7262696464656E2092
:100A90006E6574776F726B73206C697374002020BD
:100AA0006F20203C2D2D20204465627567207374D3
:100AB0006174656D656E7473206F6E2F6F6666006E
:100AC00020206520203C2D2D20204572617365205B
:100AD0006D6963726F534420636172640020206605
:100AE00020203C2D2D2020536565206C69737420D7
:100AF0006F662073617665642066696C657300209B
:100B0000207020203C2D2D20205072696E74206EA4
:100B10006F6465206461746120746F207363726513
:100B2000656E0020206320203C2D2D20205365740D
:100B300020636C6F636B0020203120203C2D2D2022
:100B40002043656C6C756C6172205369676E616CD3
:100B50002053636F7574696E67204D6F646500552F
:100B6000736572204F7074696F6E733A00446562EA
:100B70007567206F6666004465627567206F6E005A
:100B800043757272656E7420626174746572792047
:100B9000766F6C746167653A20200030003A00304F
:100BA000003A002D002D0043757272656E7420644A
:100BB00061746520262074696D653A200055706C5B
:100BC0006F616420696E74657276616C202868724A
:100BD00073293A20004D6561737572656D656E7499
:100BE00020496E74657276616C3A200044617461CC
:100BF0002066696C653A20004E6574776F726B658C
:100C000064204E6F6465204944733A200023206FAE
:100C100066206E6F6465733A20004465766963658B
:100C2000206B65793A2000476174657761792052BD
:100C30006164696F2049443A20004C61742F6C6FE5
:100C40006E673A200050726F6A6563742049443AB7
:100C500020004C6F526120526164696F20467265BA
:100C60007120284D487A293A200053657269616CD9
:100C7000204E756D6265723A200056657273696F19
:100C80006E20002D2D2D20526563656976657220DA
:100C90004D6F6465202D2D2D00536F696C205761B9
:100CA0007465722044617461204E6574776F726B55
:100CB000202D2043656C6C756C61722047617465F2
:100CC00077617900496E76616C696420696E74653C
:100CD0007276616C2E20506C6561736520656E7450
:100CE00065722031206F7220342E00456E7465725B
:100CF00020223122206F72202234223A20005365B4
:100D0000742075706C6F616420696E7465727661B1
:100D10006C20746F2031206F72203420686F7572E0
:100D2000732E007C3C3E5E2B3D3F2F5B5D3B2C2AAF
:100D3000225C0072740092740048940078C4000031
:100D4000002100240027002A00000022002500289E
:100D5000002B0000002000230026002900020202D0
:100D60000202020202040404040404040403030350
:100D70000303030303010101010101010101020455
:100D80000810204080010204081020408001020465
:100D9000081020408001020408102040800000005C
:100DA000010200090A000000000403080700000017
:100DB000000000000000000000000000002B435372
:100DC000513A200041542B435351002B4352454785
:100DD0003A200041542B435245473F0041542B4396
:100DE000504D533D22534D222C22534D222C225341
:100DF0004D220053494D383030480053494D434F40
:100E00004D5F53494D35333230450053494D434FC3
:100E10004D5F53494D35333230410053494D3830E1
:100E200030205231330053494D383038205231335D
:100E30000053494D383038205231340041542B434F
:100E40005648553D3000415445300041544530002E
:100E50004154004154004154004154004154004168
:100E600054004F4B00464F4E4100464F4E416E6579
:100E70007400ED5E516311241FBECFEFD0E4DEBFDE
:100E8000CDBF1EE0A0E0B1E0E2EBF9ED00E00BBF6A
:100E900002C007900D92A43CB107D9F723E2A4EC5D
:100EA000BEE001C01D92AA3DB207E1F717E0CAE318
:100EB000D7E004C02197FE010E94B568C933D1076D
:100EC000C9F70E94C3600C94CC6C0C940000089588
:100ED0000895982F20914A1A81E0213208F043C0EA
:100EE0008091491A8111FCCF8091421A32E03093EF
:100EF000491A9093481A9FEF9093201A10921F1A44
:100F000020931E1AA2E2BAE1EEEFF9E190E0291374
:100F100031C01092FD199091FD19880F892B809393
:100F2000FD198091471A813049F51092471A809136
:100F3000FD198093BB008091BC0083FDF8CF85EC48
:100F40008093BC008091491A8230E1F38091201A8D
:100F50008F3FB1F08091201A8032A1F08091201A49
:100F6000803391F084E010924B1A10924A1A10923A
:100F7000211A08953D9131939F5FC9CF85EEE0CF4F
:100F800080E0F1CF82E0EFCF83E0EDCF9091491A7E
:100F90009111FCCF91E09093491A9093481A2FEF4A
:100FA0002093201A10921F1A260F20931E1A909336
:100FB000FD199091FD19880F892B8093FD1980915F
:100FC000471A8130F9F41092471A8091FD198093E5
:100FD000BB008091BC0083FDF8CF85EC8093BC0002
:100FE0008091491A8130E1F380911F1A861710F41D
:100FF00060911F1AAEEFB9E1EDEDF9E180E08613E3
:1010000003C0089585EEEACF9D9191938F5FF7CF4E
:101010000F931F93CF93DF93EC019A01AB01E88903
:10102000F98982E08083EC85FD8510820E851F851D
:1010300060E874E88EE190E00E9431672150310948
:10104000410951095695479537952795F801208311
:10105000188EEC89FD8986E08083EA89FB8980818E
:1010600080618083EA89FB89808188608083EA8946
:10107000FB89808180688083EA89FB8980818F7DFC
:101080008083DF91CF911F910F9108958091592016
:1010900090915A20DC01ED91FC910484F585E02DBE
:1010A0000994FF920F931F93CF93DF938C01F62E39
:1010B000C9E5D0E288819981DC01ED91FC91048839
:1010C000F589E02D642F099588819981DC01ED91E6
:1010D000FC910680F781E02D4F2DB801DF91CF9173
:1010E0001F910F91FF900994E82FF0E0EE0FFF1F82
:1010F000E25DFE4F71836083813049F0823071F090
:1011000080916900836080936900E89A08958091D6
:1011100069008C6080936900E99A08958091690064
:10112000806380936900EA9A0895DC01ED91FC9157
:101130000190F081E02D0994EF92FF920F931F939D
:10114000CF93DF938C017B01D0E0C0E0F701EC0F7F
:10115000FD1F6491662361F0D801ED91FC9101902F
:10116000F081E02DC8010995892B11F02196EECF71
:10117000CE01DF91CF911F910F91FF90EF900895D5
:10118000AF92BF92CF92DF92EF92FF920F931F9395
:10119000CF93DF936C017B018B01040F151FEB01D3
:1011A0005E01AE18BF08C017D10759F06991D6018A
:1011B000ED91FC910190F081E02DC6010995892BFC
:1011C00079F7C501DF91CF911F910F91FF90EF90BB
:1011D000DF90CF90BF90AF900895FC01538D448D68
:1011E000252F30E0842F90E0821B930B541718F0CA
:1011F00081509F4F089501970895FC01918D828D34
:10120000981759F0A28DAE0FBF2FB11D5D968C912E
:10121000928D9F5F928F90E008958FEF9FEF0895DA
:10122000FC01918D828D981731F0828DE80FF11DB0
:10123000858D90E008958FEF9FEF0895FC01918DCB
:10124000828D981B892F90E008958EE49AE10E9488
:101250001E0921E0892B09F420E0822F08958BE6F6
:101260009CE10E941E0921E0892B09F420E0822FD5
:101270000895CF93DF93EC01E881F9810680F7812F
:10128000E02D0995EA89FB8980818F7E8083EA8938
:10129000FB898081877F8083EA89FB8980818F77C2
:1012A0008083EA89FB8980818F7D80838A8D898F05
:1012B000DF91CF910895FC01A48DA80FB92FB11D26
:1012C000A35EBE4F9C91848D8F5F848FA689B78962
:1012D0009C93A089B1898C91837080648C93938D49
:1012E000848D981306C00288F389E02D80818F7D5C
:1012F000808308950F931F93CF93DF93EC0181E0D8
:10130000888F9B8D8C8D981318C0E889F98980810E
:1013100085FF13C09FB7F894EE89FF896083E88941
:10132000F98980818370806480839FBF81E090E031
:10133000DF91CF911F910F910895062F1B8D1F5F95
:101340008C8D81130CC00FB607FCFACFE889F989A0
:10135000808185FFF5CFCE010E945B09F1CFEB8D37
:10136000EC0FFD2FF11DE35EFE4F00839FB7F89455
:101370001B8FEA89FB8980818062D6CFCF93DF9370
:10138000EC01888D8823B9F0AA89BB89E889F9899D
:101390008C9185FD03C0808186FD0DC00FB607FCD2
:1013A000F7CF8C9185FFF2CF808185FFEDCFCE0105
:1013B0000E945B09E9CFDF91CF91089580E090E032
:1013C000892B29F00E942F0981110E94000080E0E2
:1013D00090E0892B29F00E94250981110C940000CE
:1013E000089581508A3080F5E82FF0E0E650F64FFE
:1013F0000C94B5680E0A120A040A0A0A240A240A7E
:10140000150A1B0A1F0A250A809180008F77809396
:1014100080000895809180008F7DF9CF84B58F770B
:1014200084BD089584B58F7DFBCF8091B0008F7708
:101430008093B00008958091B0008F7DF9CF8091A6
:1014400090008F77809390000895809190008F7D19
:10145000F9CFCF93DF93282F30E0F901E356F24F15
:101460008491F901E358F24FD491F901E35AF24F14
:10147000C491CC23A1F081110E94F109EC2FF0E07E
:10148000EE0FFF1FED5AF24FA591B491EC91ED23B1
:1014900081E090E009F480E0DF91CF91089580E051
:1014A00090E0FACF1F93CF93DF93282F30E0F9011C
:1014B000E356F24F8491F901E358F24FD491F901C8
:1014C000E35AF24FC491CC23A9F0162F81110E9448
:1014D000F109EC2FF0E0EE0FFF1FE75BF24FA59153
:1014E000B4918FB7F894EC91111108C0D095DE2318
:1014F000DC938FBFDF91CF911F910895DE2BF8CF42
:1015000010924D1A10924C1A10924B1A10924A1ABD
:101510001092491A81E08093481A1092471A61E0AC
:1015200081E10E94520A61E080E10E94520AE9EBE7
:10153000F0E080818E7F808380818D7F808380E258
:101540008093B80085E48093BC0087E697E0909391
:10155000461A8093451A88E697E09093441A809340
:10156000431A0895CF93DF9390E0FC01E358F24FC4
:101570002491835A924FFC0184918823D1F090E00A
:10158000880F991FFC01E15CF24FA591B491FC0119
:10159000E75BF24FC591D49161110EC09FB7F894EB
:1015A0008C91E22FE0958E238C932881E223E883AF
:1015B0009FBFDF91CF9108958FB7F894EC91E22B04
:1015C000EC938FBFF6CF883108F088518770806424
:1015D00080937C0080917A00806480937A0080916F
:1015E0007A0086FDFCCF8091780090917900089573
:1015F0003FB7F8948091A7179091A817A091A917C9
:10160000B091AA1726B5A89B05C02F3F19F00196E7
:10161000A11DB11D3FBFBA2FA92F982F8827BC014C
:10162000CD01620F711D811D911D43E0660F771F73
:10163000881F991F4A95D1F708958F929F92AF9274
:10164000BF92CF92DF92EF92FF924B015C010E941A
:10165000F80A6B017C010E94F80A6C197D098E0959
:101660009F09683E734081059105A8F321E0821A25
:101670009108A108B10888EEC80E83E0D81EE11CCD
:10168000F11C81149104A104B10429F7FF90EF909B
:10169000DF90CF90BF90AF909F908F900895FF9272
:1016A0000F931F93CF93DF93F82E04EF11E0D0E058
:1016B000C0E08091572090915820DC01ED91FC9181
:1016C0000084F185E02D0995892BC9F08091572080
:1016D00090915820DC01ED91FC910284F385E02D7E
:1016E00009958D3031F38A3021F4209711F3FF20D2
:1016F00091F0FE01E15CF04E86872196DACF015031
:10170000110949F061E070E080E090E00E941D0B5B
:10171000CE3FD10570F2FE01E15CF04E16868C2FB3
:10172000DF91CF911F910F91FF9008952FB7F894FB
:101730006091A3177091A4178091A5179091A61797
:101740002FBF08950895885E9E4FDC018D919C9176
:10175000DC01ED91FC910680F781E02D0994885E13
:101760009E4FDC018D919C91DC01ED91FC910484F4
:10177000F585E02D0994885E9E4FDC018D919C914A
:10178000DC01ED91FC910284F385E02D0994885EE3
:101790009E4FDC018D919C91DC01ED91FC910190BB
:1017A000F081E02D0994885E9E4FDC018D919C9123
:1017B000DC01ED91FC910084F185E02D0994CF933B
:1017C000DF9390E080E0EC0121968897A8F48FE306
:1017D0009FE10E94D30B892B39F08FE39FE10E9498
:1017E000BB0BD0E0C0E0F3CF61E070E080E090E0C0
:1017F0000E941D0BCE01E7CFDF91CF9108958BEFB3
:101800000895CF93DF93FC0122813381223031058B
:1018100069F0EC01638D818D0E94520A60E0888D31
:101820000E94520A82E090E09B838A83DF91CF91ED
:101830000895FF920F931F93CF93DF93EC01162F20
:10184000F42E0FB7F89460E08F890E94520A8D89B8
:101850009E89612F6068DC01ED91FC910190F0811F
:10186000E02D0995182F8D899E89DC01ED91FC9161
:101870000190F081E02D6F2D099561E08F890E9424
:10188000520A0FBF812FDF91CF911F910F91FF90CF
:1018900008950F931F93CF938C01C62F44E06DE4FE
:1018A0000E94190C4BEF4C0F406869E0C801CF91C2
:1018B0001F910F910C94190CCF93DF93FC0122819F
:1018C00033812130310549F0EC0140E061E00E94B4
:1018D000190C81E090E09B838A8381E0DF91CF91B6
:1018E0000895CF93DF93FC012281338122303105AB
:1018F00049F0EC0141E061E00E94190C82E090E0C7
:101900009B838A83DF91CF910895CF92DF92EF92EC
:10191000FF92CF93DF93EC01CB01BA0120E034E2D8
:1019200044E759E40E942B6620E034E244E752E4A5
:101930000E94CF670E9448686B017C01A70166275F
:10194000772766E0CE010E94190C77276F2D5E2D58
:101950004D2D67E0CE010E94190C4C2D68E0CE01A0
:101960000E94190C81E0DF91CF91FF90EF90DF9002
:10197000CF900895CF92DF92EF92FF920F931F9333
:10198000CF93DF934C3F08F067C0142F072FF62E3C
:10199000EC01E881F9810484F585E02D0995CE01FB
:1019A0000E94710C40E06DE0CE010E94190C4A8546
:1019B00060E0CE010E94190C4B8560E0CE010E94D0
:1019C000190C4C8560E0CE010E94190C4D8560E039
:1019D000CE010E94190CEFB6F89460E08F890E9446
:1019E000520A8D899E89DC01ED91FC910190F08174
:1019F000E02D60E80995CF2CD02E012F015068F022
:101A00008D899E89F60161916F01DC01ED91FC9158
:101A10000190F081E02D0995F1CF61E08F890E945E
:101A2000520AEFBE44E0410F62E2CE010E94190C5F
:101A30008A819B81039771F043E061E0CE010E94AF
:101A4000190C40E460E4CE010E94190C83E090E0A0
:101A50009B838A8381E001C080E0DF91CF911F9159
:101A60000F91FF90EF90DF90CF900895CF93DF9389
:101A7000FC012281338123303105C9F0EC018281E0
:101A80009381049771F045E061E0CF010E94190C49
:101A900040E060E4CE010E94190C84E090E09B835A
:101AA0008A83C65EDE4F8881DF91CF91089580E002
:101AB000FBCF0F931F93CF93DF93EC01162F0FB73C
:101AC000F89460E08F890E94520A8D899E89DC011A
:101AD000ED91FC910190F081E02D612F09958D89A8
:101AE0009E89DC01ED91FC910190F081E02D60E098
:101AF0000995182F61E08F890E94520A0FBF812F2C
:101B0000DF91CF911F910F910895DF92EF92FF9295
:101B10000F931F93CF93DF93EC0162E10E94590D65
:101B20002A813B8124303105A1F4982F907A89F0E5
:101B30008F8598890196988B8F874FEF62E1CE0150
:101B4000DF91CF911F910F91FF90EF90DF900C9458
:101B5000190C2A813B812430310511F486FD0DC01A
:101B60002A813B812330310541F783FFE6CF8B8902
:101B70009C8901969C8B8B8B67C063E1CE010E9490
:101B8000590D082F60E1CE010E94590D482F6DE0DC
:101B9000CE010E94190CDFB6F89460E08F890E9494
:101BA000520A8D899E89DC01ED91FC910190F081B2
:101BB000E02D60E009957E01BBE1EB0EF11C102FDA
:101BC000115070F08D899E89DC01ED91FC9101909E
:101BD000F081E02D60E00995F70181937F01F0CF5E
:101BE00061E08F890E94520ADFBE0A8F4FEF62E1E7
:101BF000CE010E94190C6AE1CE010E94590D89584C
:101C00008E878A8DFE01E65EFE4F8430C8F08B8D94
:101C10008E838C8D8F838D8D88878E8D89878D8126
:101C2000811107C09E818C81981719F08E818F3F9A
:101C300039F489899A8901969A8B898B81E080830E
:101C40008081882309F479CFCE010E94710C75CF71
:101C50008091A0179091A117009711F00C94850D19
:101C6000089580919E1790919F17009711F00C9402
:101C7000850D089580919C1790919D17009711F004
:101C80000C94850D0895CF93DF93EC018D899E8987
:101C9000DC01ED91FC910680F781E02D099561E072
:101CA0008F890E94B20A61E08F890E94520A64E61D
:101CB00070E080E090E00E941D0B81E0DF91CF9109
:101CC0000895FF920F931F93CF93DF931F92CDB789
:101CD000DEB7F42E09E510E2D8018D919C91DC016C
:101CE000ED91FC91008CF18DE02D0995F80180813A
:101CF0009181DC01ED91FC91028CF38DE02D40E0AF
:101D000060E8099581E289834F2D61E0CE0101965B
:101D10000E9451080E9446080F90DF91CF911F91B9
:101D20000F91FF900895CF92DF92EF92FF920F9361
:101D30001F93CF93DF93EC018B017A0169018091AE
:101D4000592090915A20DC01ED91FC910280F381A1
:101D5000E02D099581110BC010E0812FDF91CF910B
:101D60001F910F91FF90EF90DF90CF900895809199
:101D7000592090915A20DC01ED91FC910480F5816D
:101D8000E02DA701B8010995182F882329F3809128
:101D9000592090915A20DC01ED91FC9100A0F1A115
:101DA000E02D0995F82E8091592090915A20DC0160
:101DB000ED91FC91068CF78DE02D0995E82E809130
:101DC000592090915A20DC01ED91FC9102A0F3A1E1
:101DD000E02D0995082F8091592090915A20DC011F
:101DE000ED91FC9104A0F5A1E02D099587FDB4CFFC
:101DF000BFEFEB1629F04F2D602FCE010E94610E30
:101E0000CF0DD11D8B85801709F4A6CFF601F08286
:101E10000B87A3CF9FB7F89480919A17882319F066
:101E2000815080939A1780919A17811105C08CB5C3
:101E30008F7B8CBD1092BC179FBF08958CB58F7798
:101E40008CBD08958CB580688CBD0895FC017383AA
:101E500062830895FC01778366830895FC0175838E
:101E600064830895089580E00895FC0181850895B4
:101E7000FC0180850895FC0187810895FC0186811D
:101E800008954095FC0125854223642B65870895BC
:101E9000FC0164870895FC0163870895FC01628753
:101EA0000895FC0164830895FC01658308958F9271
:101EB0009F92AF92BF92CF92DF92EF92FF92CF9319
:101EC000DF93EC016B010E94960B4B015C01F12C3E
:101ED000E12C0E94960B681979098A099B096C15F7
:101EE0007D058E059F0580F48A819B81039789F388
:101EF00081E0DF91CF91FF90EF90DF90CF90BF9086
:101F0000AF909F908F90089580E0F3CFFC012281E5
:101F1000338123303105D1F381E008958F929F9270
:101F2000AF92BF92CF92DF92EF92FF92CF93DF9367
:101F3000EC016B010E94960B4B015C01F12CE12C32
:101F40000E94960B681979098A099B096C157D0511
:101F50008E059F05A0F4E881F9810280F381E02DD0
:101F6000CE010995882361F3DF91CF91FF90EF9027
:101F7000DF90CF90BF90AF909F908F90089580E0BA
:101F8000F3CFCF93DF93EC01E881F9810280F381F5
:101F9000E02DCE0109958823B9F3DF91CF91089503
:101FA00081E008951F93CF93DF93EC01162F888172
:101FB0009981DC01ED91FC910288F389E02D09956E
:101FC00088819981DC01ED91FC910688F789E02DEB
:101FD000612F09951A83DF91CF911F910895CF92B8
:101FE000DF92EF92FF920F931F93CF936B017C01CF
:101FF000142F8091592090915A20DC01ED91FC9191
:102000000190F081E02D0995C82F882309F1609196
:102010005B2089E590E20E94D20F88E790E09093E0
:1020200062208093612083E080936320612F89E5A3
:1020300090E20E94D20F0091592010915A20B701CE
:10204000A601C8010E94850C61E1C8010E94490CEB
:102050008C2FCF911F910F91FF90EF90DF90CF9039
:10206000089585ED8093BC008091BC0084FDFCCF79
:102070001092491A089520917717260F3327331F9E
:1020800021323105ECF42091491AFC0190E080E006
:10209000243069F082E00895A09177172191AC0176
:1020A000495A584EA40FB52FB11D2C93019686178F
:1020B00098F380917717680F6093771780E0089501
:1020C00081E008950895E0914D1A80914C1AE81727
:1020D00030F4F0E0E352F64E808190E008958FEF07
:1020E0009FEF089590914D1A80914C1A2FEF3FEF7A
:1020F000981748F4E92FF0E0E352F64E208130E0E3
:102100009F5F90934D1AC901089580914C1A909148
:102110004D1A891B990B0895CF92DF92EF92FF928F
:102120000F931F93CF93DF937C01CB018A01209102
:10213000211A222389F0EB016B01C40ED51ECC15A8
:10214000DD0569F06991D701ED91FC910190F08175
:10215000E02DC7010995F3CF642F0E943B10C80101
:10216000DF91CF911F910F91FF90EF90DF90CF9073
:102170000895CF93DF931F92CDB7DEB76983209187
:10218000211A2223F9F020914A1A203258F021E036
:1021900030E0FC013383228390E080E00F90DF91F8
:1021A000CF91089580914B1AE82FF0E0EE5DF54E47
:1021B000998190838F5F80934B1A80934A1A81E0B4
:1021C00090E0ECCF61E0CE0101960E943B10F7CF8A
:1021D000CF93C62F91E09093211A98E69093421ADC
:1021E00010924B1A10924A1A682F8AEC93E20E94BE
:1021F000B9106C2F8AEC93E20E94B91081E0CF9164
:102200000C946907CF93CFB7F89480919A178111F6
:1022100027C0E1E6FDE08491E1E8FDE09491E82F3C
:10222000F0E0EE0FFF1FE15CF24FA591B491EC914D
:10223000E92321F461E084E00E94520A61E084E035
:102240000E94B20A8CB580618CBD8CB580648CBD57
:1022500061E087E00E94B20A61E085E00E94B20A74
:1022600080919A178F5F80939A17CFBFCF9108956F
:10227000FC01268137812115310591F1213031058D
:1022800059F12230310551F12330310549F52CE067
:102290009CB5937F922B9CBD84819581019711F50C
:1022A0008CB580628CBD82819381019784309105C9
:1022B000E0F482599E4FFC0190818CB58C7F292FD0
:1022C0002370822B8CBD8DB592FB992790F98E7F60
:1022D000892B8DBD0C94021124E0DACF28E0D8CFF1
:1022E00020E0D6CF8CB58F7DDDCF95E0E6CF9FB7D0
:1022F000F8942091BC1780915117213019F48DBBAF
:102300009FBF08958FBF089561E0FC0184810E9402
:10231000520A80915017882339F0109250178091FB
:10232000BC1781110C94771108958EBD00000DB477
:1023300007FEFDCF8EB50895862F0C9495118FEF73
:102340000C9495110F931F93CF93DF93EC010E9490
:10235000960B8B010E949F118F3F69F00E94960B94
:10236000601B710B6C177D07A8F380E0DF91CF91A4
:102370001F910F91089581E0F9CF2091BC1722237E
:1023800061F02FB7F8943091BC17313049F43DB368
:10239000309351173DB33DBB2FBF8CBD9DBD0895FC
:1023A00020935117FACFCF93DF93EC018091501710
:1023B000811109C081E0809350178091881E90910F
:1023C000891E0E94BD1160E08C81DF91CF910C9439
:1023D000520A8F929F92AF92BF92FF920F931F93D8
:1023E000CF93DF93EC01F62E49015A018E818823A9
:1023F00089F08F8198859C012F5F3F4F38872F830D
:102400008230924018F40E949F11F3CFCE010E94B7
:1024100084111E82CE010E94D3118CE291E00E94B1
:10242000A2118F2D80640E94951108E110E0D50162
:10243000C401002E04C0B695A795979587950A9478
:10244000D2F70E94951108501109083F8FEF180725
:1024500071F785E9FF2021F028E087E8F2128FEF7D
:102460000E94951110E00E949F118A8787FF04C087
:102470001F3F11F01F5FF7CFDF91CF911F910F9199
:10248000FF90BF90AF909F908F900895AF92BF92B2
:10249000CF92DF92EF92FF920F931F93CF93DF9330
:1024A000EC016901C801820F931F8130924050F501
:1024B0008E81882379F088819981AA81BB818417D4
:1024C0009507A607B70731F48F819885C816D906F6
:1024D00008F042C0488359836A837B838B858330AD
:1024E00039F089E0440F551F661F771F8A95D1F791
:1024F0009A01AB0161E1CE010E94E911882389F0C4
:1025000083E08D83CE010E94841180E0DF91CF9122
:102510001F910F91FF90EF90DF90CF90BF90AF9001
:1025200008950E94960B5B010E949F118A878F3F3E
:1025300069F40E94960B6A197B096D327140A0F311
:102540008FE08D83CE010E948411DCCF8E3F89F411
:1025500018861F8281E08E838F8198858C159D055A
:1025600050F40E949F118F819885019698878F83E0
:10257000F3CF8DE0E6CF6701E00EF11E0E949F11C0
:10258000F60181936F01EE15FF05C1F78F819885E4
:10259000080F191F18870F838985882319F00115E3
:1025A0001240A0F08E81882389F08F8198859C014C
:1025B0002F5F3F4F38872F838230924018F40E945C
:1025C0009F11F3CFCE010E9484111E8281E09ECF25
:1025D000EF92FF920F931F93CF93DF93EC0179015A
:1025E00082E1411551056105710599F08B858330B4
:1025F00039F089E0440F551F661F771F8A95D1F780
:102600009A01AB0168E1CE010E94E911882319F01B
:1026100084E08D8330C08EEF0E94951187018EEF8C
:10262000F81AF80181918F010E9495110E151F056E
:10263000C1F78FEF0E9495118FEF0E9495110E94B4
:102640009F118A878F71853089F488E592E00E9416
:10265000A2118823A9F020E030E0A9016DE0CE01AD
:102660000E94E911882371F084E1D3CF81E18D8349
:10267000CE010E948411CE010E94841180E00AC024
:1026800085E1C7CF0E949F118111EECFCE010E943C
:10269000841181E0DF91CF911F910F91FF90EF9016
:1026A0000895CF93DF93809152178823A9F1C091A9
:1026B000BD17D091BE17409126015091270160911E
:1026C0002801709129012FEB37E1CE010E94E81219
:1026D000811104C080E0DF91CF910895409153179C
:1026E0005091541760915517709156174115510527
:1026F0006105710579F02FEB37E1CE010E94E812F8
:10270000882341F3109253171092541710925517C3
:10271000109256171092521781E0DDCF8F929F9240
:10272000AF92BF92EF92FF920F931F93CF934B0103
:102730005C01C42F8091260190912701A09128016E
:10274000B091290188159905AA05BB0549F10E9498
:10275000511381110BC080E0CF911F910F91FF9019
:10276000EF90BF90AF909F908F9008958FEBE82EE1
:1027700087E1F82E00E012E030E020E0B501A4018E
:102780008091BD179091BE170E944612882319F3BD
:102790008092260190922701A0922801B0922901EF
:1027A000409152174C2B4093521781E0D5CFCF93D5
:1027B000DF93EC016E857F858889998941E00E94CD
:1027C0008E13882351F08A8920E2829FC001112450
:1027D0008154984EDF91CF91089590E080E0FACF38
:1027E0008F929F92AF92BF92CF92DF92EF92FF9221
:1027F000CF932AE83EE13093BE172093BD1788237C
:1028000009F46DC040E060E070E0CB010E948E13DF
:1028100081110BC080E0CF91FF90EF90DF90CF90BF
:10282000BF90AF909F908F90089580917D198F7782
:1028300089F78091891990918A19A0918B19B0918B
:102840008C1984369105A105B10520F3C090851936
:10285000D0908619E0908719F0908819C114D1049E
:10286000E104F104B9F240E0C701B6010E948E1301
:10287000882381F28091CA179091CB1781159240DD
:1028800049F6A091CF17AA2329F26091CD17709134
:10289000CE176115710509F4BDCF2091CC17222305
:1028A00009F4B8CFA093A81E20939A1E90E080E070
:1028B00030E0E1E0F0E0C82FAF01082E02C0440F85
:1028C000551F0A94E2F72417350769F041E0480FD5
:1028D00001968930910579F74093A31E9BCFC12CB7
:1028E000D12C7601C0CF8093A31E2091D5173091B3
:1028F000D61750E040E02115310541F42091E3174F
:102900003091E4174091E5175091E61720939B1EF4
:1029100030939C1E40939D1E50939E1E460157016E
:10292000860E971EA11CB11C8092A91E9092AA1E11
:10293000A092AB1EB092AC1EE091D017F091D117CF
:10294000F093AF1EE093AE1EB0E00E941E67DC0164
:10295000CB01880D991DAA1DBB1D8093B01E9093BD
:10296000B11EA093B21EB093B31E25E0EE0FFF1F61
:102970002A95E1F7E150FE4FEF2FFF27E6958E0FE6
:102980009F1FA11DB11D8093A41E9093A51EA0930F
:10299000A61EB093A71E8090D2179090D317B12C8B
:1029A000A12C8114910441F48090DF179090E017DE
:1029B000A090E117B090E217C81AD90AEA0AFB0AF8
:1029C000C80CD91CEA1CFB1C04C0F694E794D794ED
:1029D000C794CA95D2F7C0929F1ED092A01EE092D3
:1029E000A11EF092A21E85EFC8168FE0D806E10462
:1029F000F10428F48CE08093AD1E81E00CCF80E1DF
:102A000025EFC2162FEFD206E104F104A0F3809166
:102A1000EB179091EC17A091ED17B091EE17809302
:102A2000B01E9093B11EA093B21EB093B31E80E26D
:102A3000E2CF4F925F926F927F928F929F92AF926E
:102A4000BF92CF92DF92EF92FF920F931F93CF939B
:102A5000DF93EC01423051056105710590F480E08F
:102A6000DF91CF911F910F91FF90EF90DF90CF906A
:102A7000BF90AF909F908F907F906F905F904F909E
:102A8000089589859A85AB85BC850196A11DB11DE8
:102A900084179507A607B70710F3CB88DC88ED8865
:102AA000FE888F89803109F042C0BB27A72F962F5F
:102AB000852F480159012A013B01C80ED91EEA1E83
:102AC000FB1E8091260190912701A0912801B091D1
:102AD0002901C816D906EA06FB0699F58F898031C7
:102AE000C1F5B301A201552766277727440F551F6B
:102AF0004154584EFA019182808280915217816030
:102B0000809352178A89823080F08D819E81AF81B7
:102B1000B8858C0D9D1DAE1DBF1D809353179093DE
:102B20005417A0935517B093561781E099CFDB0146
:102B3000CA01E7E0B695A79597958795EA95D1F7ED
:102B4000B8CF40E0C701B6010E948E138111C6CFF5
:102B500086CFB301A2014F77552766277727440F09
:102B6000551F440F551F4154584EFA0180829182DF
:102B7000A282B382C2CF8F929F92AF92BF92CF9226
:102B8000DF92EF92FF920F931F93CF93DF93FC019D
:102B900081859285A385B4850196A11DB11D8417F9
:102BA0009507A607B70770F480E0DF91CF911F91DA
:102BB0000F91FF90EF90DF90CF90BF90AF909F90DC
:102BC0008F90089583889488A588B68887898031F6
:102BD00089F5BB27A72F962F852FE9016A017B0175
:102BE0008F01BC01CD01680D791D8A1D9B1D809050
:102BF000260190902701A0902801B0902901861607
:102C00009706A806B90601F5F8018789803111F504
:102C1000DD24EE24FF24F601EE0FFF1FE154F84EF1
:102C200080819181B0E0A0E088839983AA83BB83EF
:102C300081E0BBCFDB01CA01C7E0B695A7959795A8
:102C40008795CA95D1F7C9CF40E00E948E138111B4
:102C5000DBCFAACFE894C7F8DD24EE24FF24F601E9
:102C6000EE0FFF1FEE0FFF1FE154F84E80819181A0
:102C7000A281B381BF70D8CF4F925F926F927F9243
:102C8000AF92BF92CF92DF92EF92FF920F931F937A
:102C9000CF93DF9300D000D0CDB7DEB78C0149834E
:102CA0005A836B837C835901C12CD12C7601412C32
:102CB00082E0582E612C712C49815A816B817C8174
:102CC0009E012F5F3F4FC8010E94BB15882339F139
:102CD000F8018585A301920104C0220F331F441F10
:102CE000551F8A95D2F7DA01C901C80ED91EEA1E0E
:102CF000FB1E49815A816B817C818789803111F16A
:102D000088EF9FEFAFEFBFE0481759076A077B07CF
:102D100098F2F501C082D182E282F38281E00F90C5
:102D20000F900F900F90DF91CF911F910F91FF9017
:102D3000EF90DF90CF90BF90AF907F906F905F90BB
:102D40004F90089588EF9FEFA0E0B0E0DDCFCF93E4
:102D5000DF93FC012581222321F080E0DF91CF91D8
:102D60000895EC018091AD1E803159F582E0858394
:102D7000178A108E118E128E8091AE1E9091AF1E0A
:102D8000B0E0A0E025E0880F991FAA1FBB1F2A957D
:102D9000D1F7838B948BA58BB68B86E99EE19C8FB4
:102DA0008B8F81E08C831E821F82188619861A867B
:102DB0001B861C861D861E861F86188A198A1A8AFB
:102DC000CDCF803251F683E085834091B01E509183
:102DD000B11E6091B21E7091B31E478B508F618FF0
:102DE000728F9F012D5E3F4F86E99EE10E943C1647
:102DF0008111D3CFB2CF8F929F92AF92BF92CF92D9
:102E0000DF92EF92FF920F931F93CF93DF93EC012A
:102E10008D8181110EC080E0DF91CF911F910F91C4
:102E2000FF90EF90DF90CF90BF90AF909F908F90EA
:102E300008950B891C892D893E89041715072607DB
:102E4000370748F34A015B01823031F48A869B865A
:102E5000AC86BD8681E0E0CF81149104A104B10469
:102E600049F41E821F82188619861A861B861C86C4
:102E70001D86F0CF0A851B852C853D85EB8DFC8D4D
:102E8000858590E00996B901A80141505109610971
:102E90007109082E04C076956795579547950A9451
:102EA000D2F775016401E1E0CE1AD108E108F1081A
:102EB00004C0F694E794D794C7948A95D2F7C416C1
:102EC000D506E606F70620F0012B022B032B11F5A1
:102ED0008F89988DA98DBA8D8E839F83A887B98796
:102EE0008E010A5F1F4FC114D104E104F10409F4FB
:102EF000ADCF4E815F816885798598018B8D9C8DE2
:102F00000E94BB1591E0C91AD108E108F1088111AE
:102F1000EACF81CFC41AD50AE60AF70AE1CF3F9279
:102F20004F925F926F927F928F929F92AF92BF92D9
:102F3000CF92DF92EF92FF920F931F93CF93DF9385
:102F4000CDB7DEB72C970FB6F894DEBF0FBECDBF5E
:102F50005C01DC015B968D909C905C9716964D9081
:102F60005D906D907C901997411451046104710437
:102F700009F468C0BFEF4B1A5B0A6B0A7B0A312C5D
:102F8000F40181859285A385B4859C01AD012F5FF5
:102F90003F4F4F4F5F4F29873A874B875C877301BD
:102FA00062011D821E821F821886F401818592852E
:102FB000A385B4852D813E814F8158852817390717
:102FC0004A075B0708F056C089859A85AB85BC85A2
:102FD0008C159D05AE05BF0550F482E0C82ED12C9E
:102FE000E12CF12C92E0492E512C612C712C9E0188
:102FF0002F5F3F4FB701A601C4010E94BB15882374
:10300000C9F189819A81AB81BC81892B8A2B8B2B59
:1030100009F1260137019FEF491A590A690A790A0D
:103020002D813E814F8158852F5F3F4F4F4F5F4F1E
:103030002D833E834F8358873FEFC31AD30AE30A99
:10304000F30AB3CFF401408051806280738033244F
:10305000339496CFC414D504E604F70409F70FEFB0
:103060001FEF2FEF3FE0B701A601C4010E94191521
:10307000811119C080E02C960FB6F894DEBF0FBE08
:10308000CDBFDF91CF911F910F91FF90EF90DF9017
:10309000CF90BF90AF909F908F907F906F905F90F8
:1030A0004F903F900895F501468157816085718565
:1030B000411551056105710539F097018601C4017B
:1030C0000E9419158823B1F2D5011696CD92DD9292
:1030D000ED92FC921997332051F0D701C601019669
:1030E000A11DB11DF40180839183A283B383F501F7
:1030F0008789908DA18DB28D892B8A2B8B2B39F4EA
:10310000C78AD08EE18EF28E84818068848381E0CC
:10311000B2CF2F923F924F925F926F927F928F9297
:103120009F92AF92BF92CF92DF92EF92FF920F9356
:103130001F93CF93DF93EC015B012A018D818111F5
:1031400015C08FEF9FEFDF91CF911F910F91FF90EF
:10315000EF90DF90CF90BF90AF909F908F907F9037
:103160006F905F904F903F902F9008958C8180FFDB
:10317000E8CF0B891C892D893E894A855B856C8542
:103180007D85C201B0E0A0E068017901C41AD50ACA
:10319000E60AF70AC816D906EA06FB0618F428015B
:1031A000441A550A42011E0126E0220E311C8114E8
:1031B000910409F4B3C04A855B856C857D856A01FD
:1031C00081E0D8228B8D9C8D8A019B01E9E03695A8
:1031D000279517950795EA95D1F7ED81E230E1F54E
:1031E000FC01628D738D848D958D600F711F821F20
:1031F000931F612C22E0722E6C187D0886149704B0
:1032000008F434012C8126FD04C06114F2E07F062D
:1032100071F400912601109127012091280130912D
:103220002901061717072807390709F053C040E09E
:103230000E948E13882309F484CFC6018154984ECE
:10324000D5019C01260D371DFC012E173F0709F4FF
:1032500060C041914D93F9CFFC0174807A94702243
:10326000C114D10471F471100CC0452B462B472BAF
:1032700039F58F89988DA98DBA8D8E839F83A88704
:10328000B987EB8DFC8D6E817F8188859985625031
:10329000710981099109258504C0660F771F881F70
:1032A000991F2A95D2F70685178520893189600FE5
:1032B000711F821F931F670D711D811D911D99CF75
:1032C0004E815F816885798591010E94BB158111CE
:1032D000D8CF37CF750183019601AB01BC01809136
:1032E000BD179091BE170E944612882309F429CF7A
:1032F000A60CB71C8A859B85AC85BD85860D971D60
:10330000A11DB11D8A879B87AC87BD87861897084A
:103310004ECF281B390BA20EB31EECCFC20113CF28
:10332000CF93DF93EC018D81882329F18C8187FF76
:103330001EC0CE010E94D713FC01892BE1F08D81C4
:10334000823040F48B899C89AD89BE89848F958FAA
:10335000A68FB78F8F89988D938F828F8F89988D45
:10336000A98DBA8DB58BA48B8C818F778C83DF91DF
:10337000CF910C94511380E0DF91CF910895CF93BA
:10338000DF93EC010E949019882311F01D8281E0E7
:10339000DF91CF910895CF92DF92EF92FF921F932A
:1033A000CF93DF938091B91E882321F084EB9EE1B7
:1033B0000E94BF191092951E1092931E1092901E9B
:1033C00010928F1E83E080938E1E0E94960BEB015D
:1033D00061E080918E1E0E94B20A61E080918E1E93
:1033E0000E94520A0E94021182E58093881E81E0A9
:1033F0008093891E8091881E9091891E0E94BD1124
:103400001AE08FEF0E9495111150D9F78091BC17E7
:1034100081110E9477118AE89EE10E94D31120E079
:1034200030E0A90160E08AE89EE10E94E911182FCE
:103430008093941E813081F00E94960B6C1B7D0B53
:10344000613D774060F381E080938F1E8AE89EE1C2
:103450000E94841190E078C02AEA31E040E050E018
:1034600068E08AE89EE10E94E91182FF2AC0109379
:10347000951E8091951EC12CD12C7601823029F4A5
:10348000C12CD12CE12C80E4F82E20E030E0A90101
:1034900067E38AE89EE10E94E911A701960169E2CB
:1034A0008AE89EE10E94E9118093941E8823C1F06E
:1034B0000E94960B6C1B7D0B613D774030F388E0DA
:1034C000C3CF14E00E949F118093941E1150D1F736
:1034D0008A3A11F082E0B8CF82E08093951EC9CF7E
:1034E0008091951E8230D1F420E030E0A9016AE39A
:1034F0008AE89EE10E94E911882311F086E0A4CFBA
:103500000E949F11807C803C19F483E08093951E7B
:103510000E949F110E949F110E949F118AE89EE1C4
:103520000E94841180E58093881E81E08093891E2B
:103530000E94F013882389F084EB9EE10E94A71675
:1035400091E0882309F486CF892FDF91CF911F91D5
:10355000FF90EF90DF90CF90089580E00E94F013ED
:10356000882309F477CFE8CF2F923F924F925F9252
:103570006F927F928F929F92AF92BF92CF92DF9283
:10358000EF92FF920F931F93CF93DF9300D000D061
:10359000CDB7DEB78C015B011A01DC0115968C9169
:1035A0001597813009F0C8C014968C9181FFC4C072
:1035B00082FDAEC06101D8011A964D915D916D9169
:1035C0007C911D97C114D10409F429C15B968D919A
:1035D0009C915C97FC0174802FEF270D2A013B0121
:1035E00039E076946794579447943A95D1F7722EC0
:1035F00074207A01F1E0FF22711020C0E114F1047F
:10360000E9F416964D915D916D917C911997411554
:1036100051056105710509F098C057968D919D91EE
:103620000D90BC91A02D0097A105B10509F0AFC088
:10363000C8010E948F17882309F47EC080E092E0C1
:103640008E199F0946018C159D0508F44C01D8017F
:103650005B964D915C915C9716968D919D910D9026
:10366000BC91A02D0297A109B109FA01258504C0DA
:10367000880F991FAA1FBB1F2A95D2F74685578529
:1036800060897189840F951FA61FB71F9C01AD012A
:10369000270D311D411D511D29013A01811432E0D0
:1036A000930609F07AC08091260190912701A0919C
:1036B0002801B091290184159505A605B70559F48F
:1036C0008FEF9FEFDC018093260190932701A09359
:1036D0002801B09329019501B301A2018091BD1782
:1036E0009091BE170E94E812882331F19EEFB91A1B
:1036F000C818D908F80182859385A485B585880DF9
:10370000991DA11DB11D82879387A487B58753CFCB
:10371000F801438954896589768982859385A485D2
:10372000B585481759076A077B0709F443CFC801D5
:103730000E94FB1681113ECF81E090E0D8011396E4
:103740009C938E93129780E007C09E012F5F3F4F9E
:103750000E94BB15811102C090E077C089819A81D7
:10376000AB81BC81F801238D348DF901278948EFA5
:103770005FEF60E070E0203121F048EF5FEF6FEF26
:103780007FE084179507A607B70708F051CFF80127
:1037900086839783A087B18751CFE114F10491F517
:1037A000D8011A964D915D916D917C911D9753961C
:1037B0008D919D910D90BC91A02D481759076A07D6
:1037C0007B0700F10E945113882309F4B5CF409282
:1037D0002601509227016092280170922901809160
:1037E000521781608093521797012154384ED501AA
:1037F000C901880D991DF9018E179F0759F04D9148
:103800004193FACF41E0C301B2010E948E138111AE
:10381000EBCF92CF821B930BA80EB91E69CFF80194
:1038200083899489A589B68984179507A607B70760
:1038300038F48481438B548B658B768B80688483CA
:10384000F801848183FD18C0C1010F900F900F9083
:103850000F90DF91CF911F910F91FF90EF90DF902C
:10386000CF90BF90AF909F908F907F906F905F9020
:103870004F903F902F900895C8010E94901988237F
:1038800009F45ACFE1CFCF93DF931F92CDB7DEB7C4
:10389000698341E050E0BE016F5F7F4F0E94B41A20
:1038A0000F90DF91CF910895FC01DB0112968D916D
:1038B0009C9113979383828384EC91E0918380831E
:1038C00014968C911497848315968C911597858303
:1038D00016964D915D916D917C9119974683578312
:1038E000608771871A964D915D916D917C911D97BE
:1038F00042875387648775871E964D915D916D91C0
:103900007C91519746875787608B718B52968C912B
:103910005297828B53964D915D916D917C91569704
:10392000438B548B658B768B57964D915D916D9142
:103930007C915A97478B508F618F728F5B968D91D8
:103940009C91948F838F0895DC015996ED91FC91A1
:10395000309721F081E09581911101C080E00895B8
:10396000FC01818D928D009711F00C9490190895AF
:10397000DC015996ED91FC913097B9F083899489D7
:10398000A589B6894285538564857585841B950B09
:10399000A60BB70B811520E89207A105B10538F0F9
:1039A0008FEF9FE7A0E0B0E0089590E080E00895F9
:1039B000CF93DF93EC01E98DFA8D309749F481E0E4
:1039C00090E09B838A8390E080E0DF91CF9108951F
:1039D00013821282898D9A8D0E94B41AE98DFA8D14
:1039E00022813381232B59F7F0CFCF93DF931F929E
:1039F000CDB7DEB76983DC01ED91FC910280F381E4
:103A0000E02D41E050E0BE016F5F7F4F09950F90C0
:103A1000DF91CF910895CF93DF931F92CDB7DEB79B
:103A200041E050E0BE016F5F7F4F0E94891801970F
:103A300031F4898190E00F90DF91CF9108958FEF5D
:103A40009FEFF9CF1F93CF93DF93FC0125812230A5
:103A500030F490E080E0DF91CF911F910895EC0168
:103A6000428553856485758585E07695679557957C
:103A700047958A95D1F7142F1F70CF010E940B1D17
:103A800097FDE7CF8A859B85AC85BD854F96A11DA7
:103A9000B11D8A879B87AC87BD87F0E21F9FC0015D
:103AA00011248154984ED7CFFC01818D928D0097BF
:103AB00011F00C940B1D8FEF9FEF08950F931F9340
:103AC000CF93DF93EC01898D9A8D10E000E0009791
:103AD00099F00E940B1D8C010F3F100769F0898D32
:103AE0009A8DFC0142855385648575854150510945
:103AF000610971090E94FB16C801DF91CF911F91E6
:103B00000F910895CF93DF93EC01FB0182819381A4
:103B10009B838A8384819581A681B7818C839D83D1
:103B2000AE83BF8380859185A285B3858887998779
:103B3000AA87BB8780ED91E0998388838DE03C96CE
:103B4000DE011C9601900D928A95E1F7FB01818DB3
:103B5000928D9A8F898FDF91CF910895CF92DF92C6
:103B6000EF92FF92CF93DF9360E08DE10E94B20A63
:103B70008DE10E94E30AB0E0A0E0BC01CD01660F38
:103B8000771F881F991F0E94CA6523E333E343E52B
:103B900050E40E942B6620E030E048EC52E40E94A2
:103BA0002B6620E030E84FEF53E40E94636720E08B
:103BB00030EC4FE754E40E94CF670E944868CB0185
:103BC00064E670E00E948D68EB01BC0190E080E04B
:103BD0000E94CA6520E030E048EC52E40E94CF67C2
:103BE0006B017C01BE0190E080E00E94CA659B01F0
:103BF000AC01C701B6010E946367DF91CF91FF90CE
:103C0000EF90DF90CF90089560E080E00E94520A2C
:103C100068EB7BE080E090E00E941D0B61E080E0BB
:103C20000C94520ACF93DF9380B7806880BF61E025
:103C30008EE00E94520A62E370E080E090E00E9411
:103C40001D0B88E10E94E30AEC0160E08EE00E9417
:103C5000520ABE01DD0F880B990B0E94CC6523EA46
:103C600036E043E55BE30E942B662EEB3FE94AEA30
:103C70005FE30E942B66DF91CF910895CF93DF938E
:103C8000FB0122813381DC0113963C932E93129722
:103C9000448155816681778114964D935D936D9330
:103CA0007C931797408551856285738518964D934F
:103CB0005D936D937C931B971C96EF012C969C0152
:103CC000275E3F4F49914D93A217B307D9F7218D36
:103CD000328DFC01328F218FDF91CF910895CF93E8
:103CE000DF938BE69CE10E9439098DE692E20E9407
:103CF0005C0C80B78F7780BFCAE7D0E088818F7770
:103D00008883F89485B7806885BF85B7806885BF4C
:103D1000789461E081E00E94520A8CB58F7B8CBD63
:103D200061E085E00E94B20A60E085E00E94520AEC
:103D300083B7817F846083BF83B7816083BF7894BA
:103D4000EBE6F0E0808184608083E8E6F0E080814B
:103D50008160808383B7816083BF889583B78E7FBE
:103D600083BF88818068888360E081E00E94520A76
:103D70008CB580648CBD40E051EE60E070E08BE675
:103D80009CE10E94080868EE73E080E090E0DF911B
:103D9000CF910C941D0B90E080E00895282F30E027
:103DA00094E0359527959A95E1F7922F990F990F01
:103DB000291B220F820F089581E08093211A88E643
:103DC0008093421A10924B1A10924A1A60E08AECC1
:103DD00093E20E94B91081E00E946907811142C0FC
:103DE00067E088E60E94C60710924D1A80934C1A2D
:103DF0008AEC93E20E9472108F770E94CE1E80930D
:103E0000D6198AEC93E20E9472100E94CE1E809313
:103E1000D7198AEC93E20E9472108F7B0E94CE1E0B
:103E20008093D8198AEC93E20E9472108093D9197A
:103E30008AEC93E20E9472100E94CE1E8093DA19DF
:103E40008AEC93E20E9472108F770E94CE1E8093BC
:103E5000DB198AEC93E20E9472100E94CE1E825EF1
:103E60008093DC198091D6198093B3128091D71971
:103E70008093B4178091D8198093B5178091DA197F
:103E80008093B6128091DB198093B7128091DC1970
:103E900090E08E54984F9093B5128093B41262E3E1
:103EA00070E080E090E00C941D0BCF9391E0909334
:103EB000211A98E69093421A10924B1A10924A1ABD
:103EC000682F8AEC93E20E94B91081E00E94690792
:103ED00081110DC061E088E60E94C60710924D1A5C
:103EE00080934C1A8AEC93E20E947210C82F8C2F98
:103EF000CF9108951F93CF93DF9381E08093211A90
:103F000088E68093421A10924B1A10924A1A60E087
:103F10008AEC93E20E94B910C6EDD9E128811AE03B
:103F2000822F612F0E948168682F660F680F660FCD
:103F3000620F8AEC93E20E94B9102981822F612FCF
:103F40000E948168682F660F680F660F620F8AEC07
:103F500093E20E94B9102A81822F612F0E9481680A
:103F6000682F660F680F660F620F8AEC93E20E945B
:103F7000B9106B818AEC93E20E94B9102C81822FD8
:103F8000612F0E948168682F660F680F660F620FAD
:103F90008AEC93E20E94B9102D81822F612F0E943A
:103FA0008168682F660F680F660F620F8AEC93E2D4
:103FB0000E94B9102E812E51822F612F0E9481689C
:103FC000682F660F680F660F620F8AEC93E20E94FB
:103FD000B91081E00E946907C82F8FE00E94551F29
:103FE000682F6F778FE00E94E8108C2FDF91CF91C0
:103FF0001F910895CF93DF93C82FD62F8EE00E9494
:10400000551F4C2F4150550B61E070E001C0660F09
:104010004A95EAF7DD2331F0682B8EE0DF91CF91EE
:104020000C94E81060956823F8CFCF93DF93C82FE6
:104030008FE00E94551FC150DD0B21E030E001C030
:10404000220FCA95EAF7982F922351F02095622FFC
:1040500068238FE00E94E81081E0DF91CF910895FE
:1040600080E0FBCFCF9382E10E94551FC82F81E1F2
:104070000E94551F6C2F782F77FF02C0615C7F4F25
:1040800086E0759567958A95E1F7072E000C880BF9
:10409000990B0E94CC6520E030E040E85EE30E948E
:1040A0002B66CF9108958F929F92AF92BF92CF923D
:1040B000DF92EF92FF920F931F93CF93DF9300D085
:1040C00000D0CDB7DEB7FC018581813091F080E072
:1040D0000F900F900F900F90DF91CF911F910F9144
:1040E000FF90EF90DF90CF90BF90AF909F908F9018
:1040F0000895848181FFEBCF83899489A589B6894E
:10410000892B8A2B8B2B09F45EC07F0140E050E0A5
:10411000BA01CF010E94FB168823C9F2F701C38CB4
:10412000D48C8788908CA18CB28C82E090E0A0E047
:10413000B0E0F60180839183A283B3839E012F5F59
:104140003F4FB501A401C6010E94BB15882309F4A5
:10415000BECF00E010E09801B501A401C6010E94A5
:104160001915882309F4B3CF89809A80AB80BC806D
:10417000F6018789803111F188EF9FEFAFEFBFE043
:1041800088169906AA06BB06C8F2F701178A108E90
:10419000118E128E138A148A158A168A8481806879
:1041A0008483C7010E949019882309F490CF40E0CE
:1041B00050E0BA01C7010E94FB168ACF88EF9FEF3B
:1041C000A0E0B0E0DDCF81E083CFCF93DF93EC01BF
:1041D0000E945320882369F0CE010E94D7130097D4
:1041E00041F025EEFC0120831D82DF91CF910C94DC
:1041F000511380E0DF91CF910895CF92DF92EF923B
:10420000FF921F93CF93DF93EC0180E2689FF00150
:104210001124E154F84E9385917161F0842F8274DA
:1042200049F080E0DF91CF911F91FF90EF90DF90F8
:10423000CF900895142F6A8B8091260190912701C9
:10424000A0912801B09129018E879F87A88BB98BF7
:10425000C488D588F12CE12C7601DD24CC24CF8ACA
:10426000D88EE98EFA8E828D938DB0E0A0E0AC01FD
:10427000BD014C295D296E297F294F8B588F698F8D
:104280007A8F83858871B1F4848D958DA68DB78DD5
:104290008B8B9C8BAD8BBE8B81E08D831F701C83C1
:1042A0001E821F82188619861A861B861C861D860A
:1042B00081E0B8CF803109F0B4CF9E012D5E3F4F31
:1042C0008B8D9C8D0E943C16882309F4AACF84E034
:1042D000E4CF2F923F924F925F926F927F928F9294
:1042E0009F92AF92BF92CF92DF92EF92FF920F9385
:1042F0001F93CF93DF9300D000D000D0CDB7DEB7AF
:104300008C016B8349838091602022242394280EA2
:1043100020926020312CC12CD12C7601D3947724AB
:104320007394730C80916320831508F4EFC080911F
:10433000592090915A20DC01ED91FC91008CF18D77
:10434000E02D622D09958091592090915A20DC0131
:10435000ED91FC91028CF38DE02D40E860E0099531
:1043600049816B81C8010E9451080E944608B981A9
:10437000BF3FD1F481E026960FB6F894DEBF0FBEA2
:10438000CDBFDF91CF911F910F91FF90EF90DF9004
:10439000CF90BF90AF909F908F907F906F905F90E5
:1043A0004F903F902F90089521E0271598F4809129
:1043B0005C2090915D20A0915E20B0915F200196DD
:1043C000A11DB11D80935C2090935D20A0935E2081
:1043D000B0935F200E94960B4B015C01809161209D
:1043E000909162209D838C830E94DD64A7019601D9
:1043F0000E94FF669B01AC01AC81BD810E941E67DB
:10440000A70196010E94FF66AC81BD812A0F3B1F68
:10441000372C2901712C612C0E94960B681979099F
:104420008A099B09641575058605970508F077CFFD
:104430008091592090915A20DC01ED91FC910280ED
:10444000F381E02D0995882339F3809159209091CB
:104450005A20DC01ED91FC910480F581E02D50E0C3
:1044600040E070E060E009958823B1F28091592026
:1044700090915A20DC01ED91FC9100A0F1A1E02D7A
:1044800009958E838091592090915A20DC01ED91FD
:10449000FC91068CF78DE02D09958A838091592037
:1044A00090915A20DC01ED91FC9102A0F3A1E02D46
:1044B00009958C838091592090915A20DC01ED91CF
:1044C000FC9104A0F5A1E02D0995B9812E81B213CC
:1044D0000BC090915B20AA819A1306C087FF04C08D
:1044E000BC812B1609F446CF87FD96CF2E81E22F93
:1044F000F0E0E75AFF4D83859C8189138DCF422FD1
:10450000692F89E590E20E94610E86CF80E033CF6B
:104510000F931F93CF93DF934115510541F0FC0199
:10452000048115810115110539F4FB011082DF9119
:10453000CF911F910F910895415051094017510794
:1045400008F48A01EB01FC0160817181A801CE01B0
:104550000E94CC69C00FD11F1882E9CFFB010190E6
:104560000020E9F73197AF01461B570BDC01ED91B5
:10457000FC910280F381E02D09948F929F92AF927B
:10458000BF92EF92FF920F931F93CF93DF93CDB71C
:10459000DEB7A1970FB6F894DEBF0FBECDBF7C018A
:1045A000FA01CB0119A2223008F42AE08E010F5D36
:1045B0001F4F822E912CB12CA12CBF01A50194017B
:1045C0000E943167F901CA016A300CF5605DD801BB
:1045D0006E938D01232B242B252B79F790E080E01F
:1045E000109721F0BD01C7010E94AE22A1960FB61F
:1045F000F894DEBF0FBECDBFDF91CF911F910F9119
:10460000FF90EF90BF90AF909F908F900895695C5E
:10461000DECF482F50E070E060E02AE08BE69CE1BE
:104620000C94BD22CF92DF92EF92FF920F931F93D3
:10463000CF93DF9377FF1DC06A017B01EC016DE230
:104640000E9495088C0144275527BA014C195D0931
:104650006E097F092AE0CE010E94BD22800F911FC2
:10466000DF91CF911F910F91FF90EF90DF90CF904E
:1046700008952AE0DF91CF911F910F91FF90EF9065
:10468000DF90CF900C94BD2269E678E00C94AE22C6
:10469000CF93DF930E940923EC018BE69CE10E94FB
:1046A00044238C0F9D1FDF91CF910895CF92DF920D
:1046B000EF92FF92CF930E94960B6B017C0128E949
:1046C000C20E2AE3D21EE11CF11CC092E512D09268
:1046D000E612E092E712F092E8121092FE121092A7
:1046E000FD121092E4120E94960B6C157D058E054A
:1046F0009F0548F58BE69CE10E941E0918161906D5
:1047000094F764E670E080E090E00E941D0B8BE679
:104710009CE10E941E096C019093FE128093FD1291
:10472000F12CCAE0E090E412FC141D0464F48BE662
:104730009CE10E94FD08EC9E800D11248053809323
:10474000E412F394EFCF8091E412CF91FF90EF90B9
:10475000DF90CF900C944823CF93DF93AB01BC0143
:104760002AE08BE69CE10E94BD22EC018BE69CE1F5
:104770000E9444238C0F9D1FDF91CF9108950F93CA
:104780001F93CF93DF93EC01AB01770F660B770B91
:104790000E9412238C01CE010E944423800F911F9E
:1047A000DF91CF911F910F910895CF92DF92EF92F9
:1047B000FF920F931F93CF93DF931092FE121092EC
:1047C000FD120E94960B6B017C0128E9C20E2AE3C0
:1047D000D21EE11CF11CC092E512D092E612E092CA
:1047E000E712F092E8121092E3121092E2120E9485
:1047F000960B6C157D058E059F0508F046C08BE66F
:104800009CE10E941E09181619068CF764E670E0F8
:1048100080E090E00E941D0B8BE69CE10E941E0947
:104820008C019093FE128093FD1281E08093E1123F
:104830003AE0C32ED090E112CD2DD0E0E090E2120C
:10484000F090E3120C171D0704F18BE69CE10E9427
:10485000FD08CC0FDD1FCD52DD4E998388838D304E
:10486000910579F08A30910561F0C097CE9C900156
:10487000CF9C300D1124820F931F9093E3128093ED
:10488000E212D394D092E112D5CF6091E2127091EE
:10489000E3128BE69CE10E94BF236AE070E080E0B7
:1048A00090E0DF91CF911F910F91FF90EF90DF90FB
:1048B000CF900C941D0B0F931F93CF93DF93EC01BC
:1048C0000E94AE228C01CE010E944423800F911FD2
:1048D000DF91CF911F910F910895CF92DF92EF92C8
:1048E000FF920F931F93CF93DF930E94960B6B0160
:1048F0007C0128E9C20E2AE3D21EE11CF11C1092B1
:10490000FE121092FD120E94960B6C157D058E050D
:104910009F0568F58BE69CE10E941E091816190692
:1049200094F764E670E080E090E00E941D0B8BE657
:104930009CE10E941E09EC019093FE128093FD12EF
:10494000F12C0F2D10E0C017D10774F08BE69CE11D
:104950000E94FD088D3031F08A3021F0F801E751D6
:10496000FD4E8083F394EDCFC751DD4E188269EE82
:1049700072E18BE69CE1DF91CF911F910F91FF9047
:10498000EF90DF90CF900C945B240F931F93CF9305
:10499000DF93EC01FB014481558160817181E881E5
:1049A000F9810280F381E02D09958C01CE010E94EE
:1049B0004423800F911FDF91CF911F910F91089594
:1049C0000F931F93CF93DF93EC010E949C088C01FF
:1049D000CE010E944423800F911FDF91CF911F9140
:1049E0000F910895CF93DF93EC010E94DF0BBE017E
:1049F00080915720909158200E94E02480E0DF9120
:104A0000CF910C944F0BCF93DF93EB010E94F224D4
:104A1000882341F0BE018DE49FE10E945C6521E0A6
:104A2000892B09F020E0822FDF91CF910895CF9359
:104A3000DF93909358208093572061E080914B1F23
:104A40000E94B20A61E080914B1F0E94520A6AE004
:104A500070E080E090E00E941D0B60E080914B1FB1
:104A60000E94520A64E670E080E090E00E941D0B14
:104A700061E080914B1F0E94520ACEE0D0E080910D
:104A8000572090915820DC01ED91FC910084F18534
:104A9000E02D0995892B61F0809157209091582045
:104AA000DC01ED91FC910284F385E02D0995E7CFBF
:104AB00060915520709156208FE59EE00E9403255D
:104AC000811154C08091572090915820DC01ED91C4
:104AD000FC910084F185E02D0995892B61F080918E
:104AE000572090915820DC01ED91FC910284F385D0
:104AF000E02D0995E7CF69E57EE08CE59EE00E9418
:104B00000325811133C064EF71E080E090E00E94E2
:104B10001D0B219709F0B3CF60915520709156205D
:104B200086E59EE00E94032564E670E080E090E068
:104B30000E941D0B609155207091562083E59EE0E8
:104B40000E94032564E670E080E090E00E941D0B67
:104B5000609155207091562080E59EE00E940325CB
:104B600064E670E080E090E00E941D0B60915520AB
:104B7000709156208BE49EE00E94032564E670E06D
:104B800080E090E00E941D0B6091552070915620AE
:104B900086E49EE00E940325C82F882309F448C0BC
:104BA00060915520709156208CE39EE00E94032571
:104BB00064E670E080E090E00E941D0B0E94DF0B35
:104BC0006CE172E080915720909158200E945B2404
:104BD00081E00E944F0B61E37EE08DE49FE10E9443
:104BE0006E65892B49F183E080934C1F80914C1FA7
:104BF0008130B1F460E272E08091572090915820AA
:104C00000E945B2481E00E944F0B63EF7DE08DE406
:104C10009FE10E946E65892B19F086E080934C1FFE
:104C200060915520709156208CED9DE00E940325E7
:104C30008C2FDF91CF91089566E27EE08DE49FE1B5
:104C40000E946E65892B11F082E0CECF6BE17EE091
:104C50008DE49FE10E946E65892B11F081E0C4CF45
:104C60006BE07EE08DE49FE10E946E65892B11F080
:104C700084E0BACF6BEF7DE08DE49FE10E946E652A
:104C8000892B09F4B3CF85E0AFCF61E471E08BE607
:104C90009CE10E949C088091AE120E9409236EE361
:104CA00071E08BE69CE10E949C088091AE1281111C
:104CB00006C06FE271E08BE69CE10E94E0248091E7
:104CC000AE12813031F46DE171E08BE69CE10E941F
:104CD000E0248091AE12823031F462E071E08BE624
:104CE0009CE10E94E0248091AE12833031F46BEF9E
:104CF00070E08BE69CE10E94E0248091AE1284304B
:104D000031F463EF70E08BE69CE10E94E024809137
:104D1000AE12853031F460EE70E08BE69CE10E94CB
:104D2000E02464E670E080E090E00C941D0B6115D7
:104D3000710511F00C94AE2290E080E008950F937D
:104D40001F93CF93DF930E94DC1E0091B6170111D1
:104D500068C08091D2128430A9F44091B517242FF5
:104D600030E0C90102968231910509F45AC04231FE
:104D700031F468E170E00E94A168C82F12C0C90137
:104D80000496F7CF813071F4C091B5178C2F90E065
:104D90000196C23171F78091B417833208F442C092
:104DA000C3E1D3E02AE08C2F622F0E948168182F84
:104DB000110F180F110F1C0F8D2F0E948168682F83
:104DC000660F680F660F6D0F8BE00E94E810612F71
:104DD0008CE00E94E81060E88DE00E94E81080916D
:104DE0002B018823A1F0011112C067E272E08BE66B
:104DF0009CE10E9497268C2F0E94092365E07AE0AF
:104E00008BE69CE10E9497268D2F0E94482362E347
:104E100070E080E090E0DF91CF911F910F910C94B2
:104E20001D0BC2E1D3E2BECFCF930E94DC1E2091C6
:104E3000D012E22FF0E08091B4178E0F9F2F911DBA
:104E40006CE370E00E94A168BF010E94A168269FE8
:104E5000202D11242F5F2093AC12822F6AE00E9434
:104E60008168C82FCC0FC80FCC0FC20F60E087E05D
:104E70000E94E8106C2F88E00E94E81060E889E04A
:104E80000E94E81060E88AE00E94E81080912B01FF
:104E9000882371F08091B61781110AC069E372E02E
:104EA0008BE69CE10E9497268091AC120E944823D9
:104EB00062E370E080E090E0CF910C941D0BDF92F4
:104EC000EF92FF920F931F93CF93DF938B017A01A1
:104ED000D22E0E94F224B8018DE49FE10E946E65FB
:104EE000EC01892BF9F0C8010E9465658C0F9D1FAC
:104EF000DD2039F06CE270E00E94BA69009791F011
:104F000001960E943565F7019183808380E00E94BD
:104F10004F0B81E0DF91CF911F910F91FF90EF90A8
:104F2000DF90089580E0F6CFCF93DF9300D0CDB728
:104F3000DEB721E0AE014F5F5F4F6BEC7DE083EDAC
:104F40009DE00E945F27882331F089810F900F90A8
:104F5000DF91CF91089580E0F9CFCF93DF9300D018
:104F6000CDB7DEB720E0AE014F5F5F4F6DEB7DE068
:104F700084EC9DE00E945F27882331F089810F90A7
:104F80000F90DF91CF91089580E0F9CF0E949F6943
:104F90000F931F93CF93DF93EC0188819981009742
:104FA00059F02A813B812617370730F081E0DF91E5
:104FB000CF911F910F9108958B016F5F7F4F0E94DA
:104FC000BE68009759F0998388831B830A832C81DC
:104FD0003D81232B59F7FC011082E8CF80E0E7CF19
:104FE000EF92FF920F931F93CF93DF93611571059B
:104FF00041F480E0DF91CF911F910F91FF90EF90EE
:10500000089541155105B1F07B01EC010C811D8122
:10501000040F151FB8010E94C827882351F3288167
:1050200039818C819D81B701820F931F0E94C569D0
:105030001D830C8381E0DECFEF92FF920F931F93CD
:10504000CF93DF9300D000D0CDB7DEB77C01862FA1
:105050004AE08E010F5F1F4FB80190E00E94886503
:10506000F80101900020E9F73197AF01401B510B87
:10507000B801C7010E94F0270F900F900F900F907A
:10508000DF91CF911F910F91FF90EF900895CF93F3
:10509000DF9300D0CDB7DEB769831A8241E050E0DC
:1050A000BE016F5F7F4F0E94F0270F900F90DF913E
:1050B000CF910895FB0101900020E9F73197AF01EE
:1050C000461B570B0C94F027FB01448155816081EE
:1050D00071810C94F027CF93DF93EC018881998143
:1050E000009711F00E940864198218821D821C82A8
:1050F0001B821A82DF91CF910895CF93DF93EC0149
:105100006115710539F4CE010E946B28CE01DF9143
:10511000CF910895FB0101900020E9F73197AF018D
:10512000461B570B0E94F027882369F3EFCFCF93DC
:10513000DF93EC01FB0144815581608171810E9404
:10514000F027811103C0CE010E946B28CE01DF91B0
:10515000CF910895EF92FF920F931F93CF93DF9318
:10516000EC017B018A01BA010E94C82781110BC0A2
:10517000CE010E946B28CE01DF91CF911F910F913C
:10518000FF90EF9008951D830C83B701888199816A
:105190000E94C569F0CFFB0101900020E9F731972B
:1051A000AF01461B570B0C94AA280F931F93CF9364
:1051B000DF93CDB7DEB729970FB6F894DEBF0FBEE9
:1051C000CDBF8C01862FF8011182108213821282CA
:1051D000158214824AE0BE016F5F7F4F90E00E940B
:1051E0009B65BE016F5F7F4FC8010E94CB28299647
:1051F0000FB6F894DEBF0FBECDBFDF91CF911F91E8
:105200000F9108950F931F93CF93DF93CDB7DEB720
:1052100062970FB6F894DEBF0FBECDBF8C01CB01F5
:10522000F8011182108213821282158214824AE0E0
:10523000BE016F5F7F4F0E948865BE016F5F7F4F29
:10524000C8010E94CB2862960FB6F894DEBF0FBE4D
:10525000CDBFDF91CF911F910F910895CF93DF9331
:10526000C0E0D6E08091D112C81758F4CD9FC0019C
:10527000112464E572E086569C4D0E94CB28CF5FD6
:10528000F1CFDF91CF9108950F931F93CF93DF93C9
:10529000CDB7DEB728970FB6F894DEBF0FBECDBFEF
:1052A00064E572E08EE893E20E94CB280E94DC1E47
:1052B0004AE08E010F5F1F4FB8018091B4129091A8
:1052C000B5120E948865F80101900020E9F7319736
:1052D000AF01401B510BB8018EE893E20E94F0270A
:1052E0006DE28EE893E20E9447286091B7128EE843
:1052F00093E20E941C286DE28EE893E20E94472808
:105300006091B6128EE893E20E941C286FE58EE849
:1053100093E20E9447286091B5178EE893E20E94BD
:105320001C286AE38EE893E20E9447281091B41784
:105330001A3028F460E38EE893E20E944728612F38
:105340008EE893E20E941C286AE38EE893E20E94B2
:1053500047281091B3121A3028F460E38EE893E2E4
:105360000E944728612F8EE893E20E941C286BE47C
:1053700072E08EE893E20E945A2862E370E080E0D7
:1053800090E00E941D0B28960FB6F894DEBF0FBE6A
:10539000CDBFDF91CF911F910F910895CF93DF93F0
:1053A000EC01FB018617970749F060817181611557
:1053B000710541F0448155810E94AA28CE01DF91F8
:1053C000CF9108950E946B28F9CFFC0111821082C1
:1053D00013821282158214820C94CE29FC01118250
:1053E00010821382128215821482FB010190002028
:1053F000E9F73197AF01461B570B0C94AA28FC0123
:10540000808191810C940864CF93DF93EC01898DA6
:105410009A8D009741F00E94BF19898D9A8D0E9444
:1054200008641A8E198EDF91CF910895CF92DF9282
:10543000EF92FF920F931F93CF93DF93EC017B01C9
:105440008A01E881F9810280F381E02D0995D82E47
:10545000882329F1E114F104D1F001151105B9F007
:10546000CFB6F8948A8D8350990BF80120812817C4
:1054700019061CF08A8D84508083F801408150E029
:10548000BE01615E7F4FC7010E94B169CFBE8FB779
:10549000F894FE01E65EFE4F10821A8E8FBF8D2DAE
:1054A000DF91CF911F910F91FF90EF90DF90CF9000
:1054B0000895EF92FF920F931F93CF93DF9300D045
:1054C0001F92CDB7DEB78C010E94430EE82E8111EA
:1054D0000CC0E12C8E2D0F900F900F90DF91CF918B
:1054E0001F910F91FF90EF900895F801808D8A3001
:1054F00009F47EC08B3009F47DC022E0F22E8230A8
:1055000041F740E861E0C8010E94190C6AE070E0D0
:1055100080E090E00E941D0B61E0C8010E94590DDF
:105520008038B9F660E0F801808D0E94B20AF80177
:10553000818D8F3F49F480919B17843050F691E024
:10554000980F90939B17818FF801818DE82FF0E0E1
:10555000EE0FFF1FE456F84E118300836AE37EE0EE
:10556000882349F061E37EE0813029F0823009F040
:10557000B0CF68E27EE08F2D0E94740840E06EE0BC
:10558000C8010E94190C40E06FE0C8010E94190C8C
:10559000C8010E94710C43E050E063E37DE0CE015E
:1055A00001960E94536549816DE1C8010E94190C62
:1055B0004A816EE1C8010E94190C4B8166E2C80164
:1055C0000E94190C40E060E2C8010E94190C48E0FA
:1055D00061E2C8010E94190C40E050EC64E674E4FA
:1055E000C8010E94850C6DE0C8010E94490C72CF71
:1055F000F12C87CFFF24F39484CF3F924F925F9298
:105600006F927F928F929F92AF92BF92CF92DF92D2
:10561000EF92FF920F931F93CF93DF93CDB7DEB737
:105620002B970FB6F894DEBF0FBECDBF7C01DC0117
:1056300015968C91811115C0FE013196CE010C9604
:105640006F0130E231938E179F07E1F7DA0130E006
:1056500087E09D91B92E992329F19E3239F48A3041
:1056600011F480E0BEC038E08AE0F3CFE3E2FDE071
:105670004491442321F031969413FACFF2CF83174B
:1056800080F34FED490F4E3560F74FE9490F4A312E
:1056900018F440EEB42EB90EF601E30FF11DB082FE
:1056A0003F5FD7CF89818032E1F2322E8B01FB013F
:1056B000838D948DD7015C969C938E935B97168215
:1056C0001782108611861286138614861586F801B5
:1056D00082859385A485B5854389548965897689B2
:1056E00084179507A607B70790F525E0B695A79507
:1056F000979587952A95D1F7F82FFF70AF2EC8019F
:105700000E94221D009709F4ACCFDC012C912223CA
:1057100041F0253E09F057C0BB2029F0BB24B394CB
:10572000D6CFB1100EC0F701A28A40912601509148
:105730002701609128017091290146875787608B66
:10574000718BFC0180818111E9CFBB24B394832D3F
:105750008271823109F085CFBB2009F45AC0C7019C
:105760000E94D713009709F47CCF20E2FC0111922C
:105770002A95E9F72BE0F601DC0101900D922A95BC
:10578000E1F721E238E2DC0151963C932E935097E9
:1057900040E058E01F965C934E931E9753963C93BF
:1057A0002E93529759963C932E93589757965C9305
:1057B0004E9356970E945113882309F452CF432DDC
:1057C000F70162890BC04BE050E0BC01C6010E94AA
:1057D000A469892B09F07BCF432D6A2DC7010E9454
:1057E000FD202B960FB6F894DEBF0FBECDBFDF9124
:1057F000CF911F910F91FF90EF90DF90CF90BF90CE
:10580000AF909F908F907F906F905F904F903F9060
:105810000895D80115968C91823009F422CFC801E1
:105820000E948F17882309F41CCFD8015B96ED9155
:10583000FC915C9716968D909D90AD90BC901997B9
:10584000B2E08B1A9108A108B108858504C0880CC4
:10585000991CAA1CBB1C8A95D2F786859785A089BE
:10586000B189880E991EAA1EBB1E848124013501B0
:10587000480E511C611C711C84149504A604B704C5
:1058800001F1E1E04E1A5108610871080E945113BC
:10589000882309F4E6CEEFEBF7E111928FEB99E163
:1058A0008E179F07D1F740922601509227016092F0
:1058B00028017092290180915217816080935217BC
:1058C000DBCFD8015B96ED91FC91258580E092E0DD
:1058D000A0E0B0E004C0880F991FAA1FBB1F2A9543
:1058E000D2F7F8014389548965897689840F951F19
:1058F000A61FB71F838B948BA58BB68BD7015296AF
:105900001C928FEB97E131CF5F926F927F928F92D3
:105910009F92AF92BF92CF92DF92EF92FF920F933E
:105920001F93CF93DF93CDB7DEB7C754D1090FB61E
:10593000F894DEBF0FBECDBF5C013B0119A218A2D7
:1059400084EC91E09F8F8E8F1BA21C821B829A8316
:1059500089831E8210E000E06E018EE1C80ED11C2A
:1059600084EBE82E8EE1F82EF501E00FF11F808127
:105970008F3211F40F5F1F4FD501A00FB11FFE0131
:10598000FB9690E080E04F012D912F3249F02223C9
:1059900039F00F5F1F4F019621938C309105A1F7CD
:1059A000880D991DFC011082F501E00FF11F808127
:1059B0008F3211F40F5F1F4FF501E00FF11F508080
:1059C00041E0511040E030E020E0B401C701F301B4
:1059D0000995811121C0F4EBEF16FEE1FF06C1F439
:1059E00080E0C95BDF4F0FB6F894DEBF0FBECDBFBE
:1059F000DF91CF911F910F91FF90EF90DF90CF90AB
:105A0000BF90AF909F908F907F906F905F90089520
:105A1000C7010E94BF19E4CF552091F021E0A401F5
:105A2000B701C6010E94FD2A982E84EBE8168EE18C
:105A3000F80681F0C7010E94BF19911010C0D0CFA5
:105A400094EBE9169EE1F90619F0C7010E94BF190F
:105A500081E0C7CF992021F2FE0131967F019E2D72
:105A60008F2D7601C92ED82E7FCFCF93DF93CDB760
:105A7000DEB76D970FB6F894DEBF0FBECDBF4423DF
:105A800009F453C0AB01BC011C821B8284EC91E081
:105A90009A8389831E8221E0CE0101960E94FD2A0D
:105AA000882339F08E81843071F090E081E091118B
:105AB00001C080E06D960FB6F894DEBF0FBECDBF7B
:105AC000DF91CF9108951F82188619861A861B864A
:105AD0001C861D861E864B855C856D857E858C8922
