:100000000C94CE050C94C7440C949C440C947144FD
:100010000C9446470C94F8050C94F8050C94624730
:100020000C94F8050C94F8050C94F8050C94F8055C
:100030000C94F8050C94F2440C94F8050C94F80513
:100040000C94F8050C94F8050C9427440C94F805CE
:100050000C94F2430C94C8430C94F8050C94F805E6
:100060000C94F8050C94F8050C9422460C94F805B1
:100070000C94F8050C94F8050C94F8050C94F8050C
:100080000C94F8050C94F8050C94F80500407A10CF
:10009000F35A00A0724E18090010A5D4E80000E839
:1000A0007648170000E40B54020000CA9A3B000097
:1000B00000E1F505000080969800000040420F0026
:1000C0000000A08601000000102700000000E803E7
:1000D000000000006400000000000A0000000000B2
:1000E0000100000000002C76D888DC674F0823DF71
:1000F000C1DFAE59E1B1B796E5E3E453C63AE65144
:10010000997696E8E6C28426EB898C9B62ED407C6A
:100110006FFCEFBC9C9F40F2BAA56FA5F490055A06
:100120002AF75C936B6CF9676DC11BFCE0E40D472B
:10013000FEF520E6B500D0ED902E0300943577054E
:100140000080841E080000204E0A000000C80C3306
:100150003333330F986E12831141EF8D2114893B95
:10016000E65516CFFEE6DB18D1844B381BF77C1D15
:10017000901DA4BBE424203284725E228100C9F168
:1001800024ECA1E53D276364696E6F707375785840
:100190005B00446F6E65005363616E6E696E67202D
:1001A000666F72205344492D31322073656E736F30
:1001B00072732E2E2E002020696E707574206D696A
:1001C0006E7574653A20002020696E707574206821
:1001D0006F75723A202020002020696E707574209F
:1001E000796561723A202020002020696E70757454
:1001F000206461793A20202020002020696E7075EB
:1002000074206D6F6E74683A202000456E746572BC
:1002100020746865206461746520616E642074696F
:100220006D6520696E20436F6F7264696E617465DD
:100230006420556E6976657273616C2054696D65D2
:100240002028555443293A200044617461206C6F82
:100250006767696E67206F6E6C79206D6F646500EB
:1002600020202020456E7465722047617465776197
:100270007920726164696F2049443A2000417265B7
:1002800020796F75207573696E67206120476174EE
:10029000657761793F2028792F6E293A20004465DF
:1002A0006661756C7420726164696F2049442061D5
:1002B0006363657074656400526164696F204944CA
:1002C00020757064617465640020456E74657220E9
:1002D0006E657720726164696F2049443A20005747
:1002E0006F756C6420796F75206C696B6520746F15
:1002F000206368616E676520746865207261646957
:100300006F2049442066726F6D20746865206465B3
:100310006661756C742076616C75653F2028792F55
:100320006E293A2000496E76616C696420696E74AA
:10033000657276616C2E20456E746572206D656104
:10034000737572656D656E7420696E746572766121
:100350006C202865766572792031302C2031352C5F
:100360002032302C2033302C206F72203630206D1C
:10037000696E73293A2000456E746572206D65615F
:10038000737572656D656E7420696E7465727661E1
:100390006C202865766572792031302C2031352C1F
:1003A0002032302C2033302C206F72203630206DDC
:1003B000696E73293A200053756363657373004156
:1003C000646472657373206368616E67652066613B
:1003D000696C65640043757272656E742061646453
:1003E000726573733A20002020456E746572206137
:1003F0002050726F6A65637420494420287570200C
:10040000746F203520636861726163746572732C48
:100410002065783A20505341293A20004578697484
:100420000044656275672073746174656D656E74F0
:1004300073206F666600446562756720737461742B
:10044000656D656E7473206F6E005475726E2064F6
:10045000656275672073746174656D656E74732071
:100460006F6E3F2028792F6E293A2000446562750F
:10047000672073746174656D656E7473206F6E00B0
:1004800044656275672073746174656D656E74731D
:10049000206F6666005475726E2064656275672011
:1004A00073746174656D656E7473206F66663F204A
:1004B00028792F6E293A200041726520796F7520C6
:1004C0007375726520796F752077616E7420746F13
:1004D00020657261736520616C6C206461746120B9
:1004E00073746F72656420696E206D656D6F7279CB
:1004F0003F2028792F6E293A2000496E76616C6979
:100500006420696E7075742E2052657475726E6900
:100510006E6720746F206D656E752E00456E746574
:10052000722063686F6963653A2000202074202D73
:100530002D3E205072696E74206C61746573742056
:100540006461746100202061202D2D3E205072696D
:100550006E7420616C6C2074686520646174610045
:100560005072696E74206461746120746F207363CB
:100570007265656E3A200054657374206D65617311
:100580007572656D656E74733A0020202041726546
:1005900020796F75207375726520796F752077618A
:1005A0006E7420746F2065726173653F20456E74B0
:1005B000657220792F6E3A20002020204C61742F24
:1005C0006C6F6E672076616C7565732077696C6CF3
:1005D00020617070656172206173202D393939395D
:1005E000393939393920696E20746865206461743D
:1005F0006120737472696E672E00204552524F520B
:100600003A204C6F6E67697475646520696E636F1C
:10061000727265637421002020204C6F6E676974CC
:100620007564653A2000204552524F523A204C6181
:1006300074697475646520696E636F727265637442
:1006400021002020204C617469747564653A200093
:1006500020202053656C656374206F7074696F6E21
:100660003A200020202030203C2D2D20457261733F
:1006700065204C61742F4C6F6E672076616C7565D8
:10068000730020202031203C2D2D20456E74657292
:10069000204C61742F4C6F6E672076616C756573AA
:1006A00000456E7465722073656E736F72206465A9
:1006B00070746820696E20636D2E20557365202745
:1006C0002B27206F7220272D2720746F20696E64DE
:1006D00069636174652061626F7665206F72206264
:1006E000656C6F7720736F696C20737572666163D8
:1006F000653A00456E74657220636F6E6669677552
:10070000726174696F6E20737472696E673A20004B
:1007100052454D494E4445523A2055736520272B8A
:1007200027206F7220272D2720746F20696E64693F
:10073000636174652061626F7665206F7220626507
:100740006C6F7720736F696C207375726661636577
:1007500020666F72206465707468732100456E7442
:1007600065722063686F6963653A200020202078F5
:1007700020203C2D2D202045786974206D656E75F4
:10078000002020206220203C2D2D20205475726EE8
:100790002064656275672073746174656D656E743D
:1007A00073206F6E2F6F6666002020206520203C2E
:1007B0002D2D2020457261736520616C6C20646171
:1007C0007461002020207020203C2D2D20205072AC
:1007D000696E74206461746120746F207363726544
:1007E000656E002020207420203C2D2D2020546593
:1007F00073742073656E736F727300202020612004
:10080000203C2D2D20204368616E676520534449AC
:100810002D31322073656E736F722061646472656E
:1008200073736573002020206E20203C2D2D202026
:100830005363616E20666F722064657669636573C9
:10084000206F6E205344492D313220627573002091
:1008500020206D20203C2D2D2020536574206D65B7
:1008600061737572656D656E7420696E74657276FC
:10087000616C002020207220203C2D2D2020436818
:10088000616E6765204E6F646520726164696F20D8
:100890004944002020206720203C2D2D2020456E3B
:1008A000746572204761746577617920726164694B
:1008B0006F204944002020206C20203C2D2D20203A
:1008C000456E746572206F72206572617365204C8D
:1008D00061742F4C6F6E672076616C7565730020B4
:1008E00020206920203C2D2D2020456E746572202B
:1008F00070726F6A65637420494400202020632071
:10090000203C2D2D202053657420636C6F636B0099
:100910002020206420203C2D2D2020456E746572FF
:100920002073656E736F7220646570746873002045
:1009300020203020203C2D2D2020456E7465722013
:10094000636F6E66696775726174696F6E20737428
:1009500072696E67004D656E75206F7074696F6E99
:10096000733A200043757272656E7420626174740C
:1009700065727920766F6C746167653A2020004358
:10098000757272656E7420646174652026207469C6
:100990006D653A20004D6561737572656D656E74A5
:1009A00020496E74657276616C3A20004761746507
:1009B00077617920526164696F2049443A2000527E
:1009C0006164696F2049443A20004C61742F6C6F58
:1009D0006E673A200050726F6A6563742049443A2A
:1009E00020004C6F526120526164696F204672652D
:1009F0007120284D487A293A200053657269616C4C
:100A0000204E756D6265723A200056657273696F8B
:100A10006E2000536F696C205761746572204461C9
:100A20007461204E6574776F726B202D2057697248
:100A3000656C657373205344492D313220446174D1
:100A4000616C6F67676572204E6F646500496E76F2
:100A5000616C696420726573706F6E7365004E6FB0
:100A6000207573657220726573706F6E73650072A6
:100A7000740092740048940078C40000002100249F
:100A80000027002A0000002200250028002B00007B
:100A900000200023002600290002020202020202B6
:100AA000020404040404040404030303030303030F
:100AB00003010101010101010101020408102040AC
:100AC0008001020408102040800102040810204028
:100AD000800102040810204080000000010200098B
:100AE0000A000000000403080700000000000000E6
:100AF0000000000000000000004552524F523A2012
:100B00004C6F6E67697475646520696E636F72728D
:100B100065637421004552524F523A204C6174690A
:100B20007475646520696E636F7272656374210009
:100B30004552524F523A204D697373696E67202BAC
:100B40002F2D206265666F72652064657074682160
:100B5000004552524F523A20496E76616C696420CA
:100B6000696E74657276616C20286576657279208D
:100B700031302C2031352C2032302C2033302C20B9
:100B80006F72203630206D696E73290070726F6A43
:100B900065637449443A20002248B34E11241FBEB5
:100BA000CFEFD0E4DEBFCDBF17E0A0E0B1E0E4EFCF
:100BB000FBEB00E00BBF02C007900D92A43CB10715
:100BC000D9F72AE1A4ECB7E001C01D92A237B20721
:100BD000E1F715E0CDECD5E004C02197FE010E94BD
:100BE0004D55CC3CD107C9F70E942C490C94ED5DC2
:100BF0000C9400001092AF0C1092AE0C1092FC0EF0
:100C0000089508950895982F2091A50C81E0213230
:100C100008F043C08091A40C8111FCCF80919D0C01
:100C200032E03093A40C9093A30C9FEF90937B0C35
:100C300010927A0C2093790CADE7BCE0E9E5FCE07A
:100C400090E0291331C01092580C9091580C880FE5
:100C5000892B8093580C8091A20C813049F5109219
:100C6000A20C8091580C8093BB008091BC0083FD46
:100C7000F8CF85EC8093BC008091A40C8230E1F326
:100C800080917B0C8F3FB1F080917B0C8032A1F082
:100C900080917B0C803391F084E01092A60C10922E
:100CA000A50C10927C0C08953D9131939F5FC9CFA4
:100CB00085EEE0CF80E0F1CF82E0EFCF83E0EDCFB3
:100CC0009091A40C9111FCCF91E09093A40C90937F
:100CD000A30C2FEF20937B0C10927A0C260F2093FD
:100CE000790C9093580C9091580C880F892B809315
:100CF000580C8091A20C8130F9F41092A20C8091D2
:100D0000580C8093BB008091BC0083FDF8CF85EC2C
:100D10008093BC008091A40C8130E1F380917A0C27
:100D2000861710F460917A0CA9E5BCE0E8E3FCE0DA
:100D300080E0861303C0089585EEEACF9D919193DC
:100D40008F5FF7CF4F925F926F927F928F929F92B9
:100D5000AF92BF92CF92DF92EF92FF920F931F93C9
:100D60000091E70E1091E80E2091E90E3091EA0E05
:100D7000C090E30ED090E40EE090E50EF090E60E09
:100D8000480159018C189D08AE08BF08260137019B
:100D9000401A510A620A730A6017710782079307A3
:100DA00028F0640D751D861D971DF6CF6C157D0509
:100DB0008E059F0528F4680D791D8A1D9B1DECCFBB
:100DC0001F910F91FF90EF90DF90CF90BF90AF9069
:100DD0009F908F907F906F905F904F900895BF92FB
:100DE000CF92DF92EF92FF920F931F93CF93DF93F7
:100DF000EC01B62EC880D980EA80FB800091EB0E12
:100E00001091EC0E980150E040E0C701B6010E943D
:100E10009E53662391F0862F90E098013695279592
:100E20008217930700F1081B190BC00ED11EE11C9D
:100E3000F11CC882D982EA82FB82688179818A8129
:100E40009B81BB20A9F00E94A206688379838A83D4
:100E50009B83DF91CF911F910F91FF90EF90DF90D7
:100E6000CF90BF900895C61AD108E108F108E1CFEC
:100E70000091E70E1091E80E2091E90E3091EA0EF4
:100E8000061717072807390720F7088319832A83CD
:100E90003B83DFCFE0EBFCE0A089B18982E08C935B
:100EA000A485B5851C92A685B78580E18C93108EAC
:100EB000A489B58986E08C93A289B3898C918061DD
:100EC0008C93A289B3898C9188608C93A289B38911
:100ED0008C9180688C930288F389E02D80818F7DCE
:100EE000808308958091FF0E9091000FDC01ED91B9
:100EF000FC910484F585E02D0994FF920F931F93D4
:100F0000CF93DF938C01F62ECFEFDEE088819981BD
:100F1000DC01ED91FC910488F589E02D642F0995A1
:100F200088819981DC01ED91FC910680F781E02DAB
:100F30004F2DB801DF91CF911F910F91FF90099430
:100F4000E82FF0E0EE0FFF1FE35FFE4F7183608339
:100F5000813049F0823071F0809169008360809324
:100F60006900E89A0895809169008C608093690017
:100F7000E99A089580916900806380936900EA9AF4
:100F80000895AF92BF92CF92DF92EF92FF920F93AC
:100F90001F93CF93DF936C017B018B01040F151F0F
:100FA000EB015E01AE18BF08C017D10759F0699177
:100FB000D601ED91FC910190F081E02DC6010995DB
:100FC000892B79F7C501DF91CF911F910F91FF9088
:100FD000EF90DF90CF90BF90AF900895FC01538DBC
:100FE000448D252F30E0842F90E0821B930B541703
:100FF00018F081509F4F089501970895FC01918D3D
:10100000828D981759F0A28DAE0FBF2FB11D5D963E
:101010008C91928D9F5F928F90E008958FEF9FEF5C
:101020000895FC01918D828D981731F0828DE80F23
:10103000F11D858D90E008958FEF9FEF0895FC01DD
:10104000918D828D981B892F90E0089580EB9CE014
:101050000E941F0821E0892B09F420E0822F0895C7
:10106000FC01A48DA80FB92FB11DA35EBE4F9C91AA
:10107000848D8F5F848FA689B7899C93A089B1895D
:101080008C91837080648C93938D848D981306C0AB
:101090000288F389E02D80818F7D808308950F93EE
:1010A0001F93CF93DF93EC0181E0888F9B8D8C8D14
:1010B000981318C0E889F989808185FF13C09FB70C
:1010C000F894EE89FF896083E889F98980818370CB
:1010D000806480839FBF81E090E0DF91CF911F917A
:1010E0000F910895062F1B8D1F5F8C8D81130CC0EF
:1010F0000FB607FCFACFE889F989808185FFF5CF23
:10110000CE010E943008F1CFEB8DEC0FFD2FF11DC9
:10111000E35EFE4F00839FB7F8941B8FEA89FB893B
:1011200080818062D6CF0F931F93CF93DF938C0182
:10113000D0E0C0E0F801EC0FFD1F6491662341F0A0
:1011400080EB9CE00E944F08892B11F02196F2CF92
:10115000CE01DF91CF911F910F910895682F80EB01
:101160009CE00C944F08CF93DF93EC01888D88238B
:10117000B9F0AA89BB89E889F9898C9185FD03C0FA
:10118000808186FD0DC00FB607FCF7CF8C9185FFDF
:10119000F2CF808185FFEDCFCE010E943008E9CFEC
:1011A000DF91CF91089580E090E0892B29F00E9493
:1011B000260881110E94000080E090E0892B49F010
:1011C00080E090E0892B29F00E94000081110C94AE
:1011D0000000089581508A3080F5E82FF0E0ED504E
:1011E000F74F0C944D5507090B09FD0803091D091C
:1011F0001D090E09140918091E09809180008F77B6
:10120000809380000895809180008F7DF9CF84B510
:101210008F7784BD089584B58F7DFBCF8091B0001A
:101220008F778093B00008958091B0008F7DF9CFC3
:10123000809190008F778093900008958091900026
:101240008F7DF9CFCF93DF93282F30E0F901E7525C
:10125000F54F8491F901E754F54FD491F901E75620
:10126000F54FC491CC23A1F081110E94EA08EC2F24
:10127000F0E0EE0FFF1FE157F54FA591B491EC910F
:10128000ED2381E090E009F480E0DF91CF910895B3
:1012900080E090E0FACF1F93CF93DF93282F30E0C8
:1012A000F901E752F54F8491F901E754F54FD491D4
:1012B000F901E756F54FC491CC23A9F0162F8111FF
:1012C0000E94EA08EC2FF0E0EE0FFF1FEB57F54FFE
:1012D000A591B4918FB7F894EC91111108C0D095F5
:1012E000DE23DC938FBFDF91CF911F910895DE2B1A
:1012F000F8CF1092A80C1092A70C1092A60C109286
:10130000A50C1092A40C81E08093A30C1092A20C67
:1013100061E081E10E944B0961E080E10E944B099C
:10132000E9EBF0E080818E7F808380818D7F8083F8
:1013300080E28093B80085E48093BC0081E096E071
:101340009093A10C8093A00C82E096E090939F0C68
:1013500080939E0C0895CF93DF9390E0FC01E754B7
:10136000F54F24918756954FFC0184918823D1F045
:1013700090E0880F991FFC01E558F54FA591B491B5
:10138000FC01EB57F54FC591D49161110EC09FB789
:10139000F8948C91E22FE0958E238C932881E223A0
:1013A000E8839FBFDF91CF9108958FB7F894EC91B8
:1013B000E22BEC938FBFF6CF8851806480937C0042
:1013C00080917A00806480937A0080917A0086FD13
:1013D000FCCF809178009091790008953FB7F89400
:1013E0008091C40A9091C50AA091C60AB091C70A1B
:1013F00026B5A89B05C02F3F19F00196A11DB11D70
:101400003FBFBA2FA92F982F8827BC01CD01620FAB
:10141000711D811D911D43E0660F771F881F991F65
:101420004A95D1F708958F929F92AF92BF92CF9233
:10143000DF92EF92FF926B017C010E94EE094B015B
:101440005C01C114D104E104F104B9F00E94EE0979
:10145000681979098A099B09683E734081059105DD
:1014600080F321E0C21AD108E108F10888EE880E65
:1014700083E0981EA11CB11CE4CFFF90EF90DF9099
:10148000CF90BF90AF909F908F9008952FB7F89412
:101490006091C00A7091C10A8091C20A9091C30AFA
:1014A0002FBF089508958BEF0895CF93DF93FC012C
:1014B000228133812230310569F0EC01638D818D09
:1014C0000E944B0960E0888D0E944B0982E090E009
:1014D0009B838A83DF91CF910895FF920F931F938F
:1014E000CF93DF93EC01162FF42E0FB7F89460E042
:1014F0008F890E944B098D899E89612F6068DC016C
:10150000ED91FC910190F081E02D0995182F8D89C6
:101510009E89DC01ED91FC910190F081E02D6F2D11
:10152000099561E08F890E944B090FBF812FDF91E0
:10153000CF911F910F91FF9008950F931F93CF9319
:101540008C01C62F44E06DE40E946D0A4BEF4C0FF6
:10155000406869E0C801CF911F910F910C946D0A0A
:10156000CF93DF93FC01228133812130310549F093
:10157000EC0140E061E00E946D0A81E090E09B8315
:101580008A8381E0DF91CF910895CF93DF93FC01AF
:10159000228133812230310549F0EC0141E061E0E4
:1015A0000E946D0A82E090E09B838A83DF91CF9155
:1015B0000895CF92DF92EF92FF92CF93DF93EC01E9
:1015C000CB01BA0120E034E244E759E40E94CA5258
:1015D00020E034E244E752E40E946E540E94E0545A
:1015E0006B017C01A7016627772766E0CE010E9488
:1015F0006D0A77276F2D5E2D4D2D67E0CE010E947D
:101600006D0A4C2D68E0CE010E946D0A81E0DF91E9
:10161000CF91FF90EF90DF90CF900895CF92DF921F
:10162000EF92FF920F931F93CF93DF934C3F08F0FD
:1016300067C0142F072FF62EEC01E881F98104848E
:10164000F585E02D0995CE010E94C50A40E06DE0C8
:10165000CE010E946D0A4A8560E0CE010E946D0AAB
:101660004B8560E0CE010E946D0A4C8560E0CE01A2
:101670000E946D0A4D8560E0CE010E946D0AEFB6B2
:10168000F89460E08F890E944B098D899E89DC0166
:10169000ED91FC910190F081E02D60E80995CF2C4F
:1016A000D02E012F015068F08D899E89F60161913D
:1016B0006F01DC01ED91FC910190F081E02D099525
:1016C000F1CF61E08F890E944B09EFBE44E0410FEA
:1016D00062E2CE010E946D0A8A819B81039771F0BC
:1016E00043E061E0CE010E946D0A40E460E4CE0177
:1016F0000E946D0A83E090E09B838A8381E001C0B1
:1017000080E0DF91CF911F910F91FF90EF90DF90DC
:10171000CF900895CF93DF93FC0122813381233052
:101720003105C9F0EC0182819381049771F045E0A5
:1017300061E0CF010E946D0A40E060E4CE010E94AA
:101740006D0A84E090E09B838A83C65EDE4F8881C9
:10175000DF91CF91089580E0FBCF0F931F93CF933C
:10176000DF93EC01162F0FB7F89460E08F890E9489
:101770004B098D899E89DC01ED91FC910190F081EE
:10178000E02D612F09958D899E89DC01ED91FC91F9
:101790000190F081E02D60E00995182F61E08F89BC
:1017A0000E944B090FBF812FDF91CF911F910F91A5
:1017B0000895DF92EF92FF920F931F93CF93DF93E1
:1017C000EC0162E10E94AD0B2A813B81243031059E
:1017D000A1F4982F907A89F08F8598890196988B3B
:1017E0008F874FEF62E1CE01DF91CF911F910F9173
:1017F000FF90EF90DF900C946D0A2A813B8124309A
:10180000310511F486FD0DC02A813B81233031055D
:1018100041F783FFE6CF8B899C8901969C8B8B8B4C
:1018200067C063E1CE010E94AD0B082F60E1CE01DD
:101830000E94AD0B482F6DE0CE010E946D0ADFB60D
:10184000F89460E08F890E944B098D899E89DC01A4
:10185000ED91FC910190F081E02D60E009957E0111
:10186000BBE1EB0EF11C102F115070F08D899E8999
:10187000DC01ED91FC910190F081E02D60E0099593
:10188000F70181937F01F0CF61E08F890E944B09BE
:10189000DFBE0A8F4FEF62E1CE010E946D0A6AE15E
:1018A000CE010E94AD0B89588E878A8DFE01E65EBF
:1018B000FE4F8430C8F08B8D8E838C8D8F838D8D01
:1018C00088878E8D89878D81811107C09E818C814B
:1018D000981719F08E818F3F39F489899A8901967A
:1018E0009A8B898B81E080838081882309F479CF6A
:1018F000CE010E94C50A75CF8091BD0A9091BE0AA3
:10190000009711F00C94D90B08958091BB0A909127
:10191000BC0A009711F00C94D90B08958091B90A74
:101920009091BA0A009711F00C94D90B0895CF93B7
:10193000DF93EC018D899E89DC01ED91FC9106809D
:10194000F781E02D099561E08F890E94AB0961E084
:101950008F890E944B0964E670E080E090E00E946D
:10196000130A81E0DF91CF910895FF920F931F93A7
:10197000CF93DF931F92CDB7DEB7F42E0FEF1EE0AB
:10198000D8018D919C91DC01ED91FC91008CF18D41
:10199000E02D0995F80180819181DC01ED91FC91A8
:1019A000028CF38DE02D40E060E8099581E28983A7
:1019B0004F2D61E0CE0101960E947D070E947207C3
:1019C0000F90DF91CF911F910F91FF9008952F926B
:1019D0003F924F925F926F927F928F929F92AF92BF
:1019E000BF92CF92DF92EF92FF920F931F93CF930C
:1019F000DF938C015B016A0119010E94460A2B01E9
:101A00003C01F12CE12C0E94460A641975098609F3
:101A100097096C157D058E059F0508F078C08091AB
:101A2000FF0E9091000FDC01ED91FC910280F3819B
:101A3000E02D0995882339F38091FF0E9091000FD6
:101A4000DC01ED91FC910480F581E02DA501B80148
:101A50000995C82F8823B9F28091FF0E9091000F4D
:101A6000DC01ED91FC9100A0F1A1E02D0995D82FAA
:101A70008091FF0E9091000FDC01ED91FC91068C9E
:101A8000F78DE02D0995882E8091FF0E9091000F23
:101A9000DC01ED91FC9102A0F3A1E02D0995982EB7
:101AA0008091FF0E9091000FDC01ED91FC9104A05C
:101AB000F5A1E02D099587FDA6CFBFEF8B1631F07C
:101AC0004D2F692D8FEF9EE00E94B50CED2FF0E0B9
:101AD000E150F14FDF011B968385891509F493CFFF
:101AE000F101D0839C928C2FDF91CF911F910F91A8
:101AF000FF90EF90DF90CF90BF90AF909F908F902E
:101B00007F906F905F904F903F902F900895C0E02E
:101B1000EACF9FB7F8948091B70A882319F08150D3
:101B20008093B70A8091B70A811105C08CB58F7B6D
:101B30008CBD1092B60A9FBF08958CB58F778CBD6F
:101B400008958CB580688CBD0895FC017383628311
:101B50000895FC01778366830895FC01758364838F
:101B60000895089580E00895FC0181850895FC01A1
:101B700080850895FC0187810895FC018681089580
:101B80004095FC0125854223642B65870895FC015F
:101B900064870895FC0163870895FC0162870895B6
:101BA000FC0164830895FC01658308958F929F92E0
:101BB000AF92BF92CF92DF92EF92FF92CF93DF93DB
:101BC000EC016B010E94460A4B015C01F12CE12CF7
:101BD0000E94460A681979098A099B096C157D05D6
:101BE0008E059F0580F48A819B81039789F381E0AC
:101BF000DF91CF91FF90EF90DF90CF90BF90AF90AB
:101C00009F908F90089580E0F3CFFC012281338173
:101C100023303105D1F381E008958F929F92AF92E6
:101C2000BF92CF92DF92EF92FF92CF93DF93EC01BE
:101C30006B010E94460A4B015C01F12CE12C0E94D1
:101C4000460A681979098A099B096C157D058E0574
:101C50009F05A0F4E881F9810280F381E02DCE0197
:101C60000995882361F3DF91CF91FF90EF90DF908A
:101C7000CF90BF90AF909F908F90089580E0F3CF6A
:101C8000CF93DF93EC01E881F9810280F381E02DAD
:101C9000CE0109958823B9F3DF91CF91089581E0B2
:101CA00008951F93CF93DF93EC01162F88819981BC
:101CB000DC01ED91FC910288F389E02D0995888182
:101CC0009981DC01ED91FC910688F789E02D612F67
:101CD00009951A83DF91CF911F910895CF92DF92DA
:101CE000EF92FF920F931F93CF936B017C01142F00
:101CF0008091FF0E9091000FDC01ED91FC9101901D
:101D0000F081E02D0995C82F882309F16091010F1A
:101D10008FEF9EE00E94510E8CE291E09093080FAD
:101D20008093070F83E08093090F612F8FEF9EE070
:101D30000E94510E0091FF0E1091000FB701A601F5
:101D4000C8010E94D90A61E1C8010E949D0A8C2F36
:101D5000CF911F910F91FF90EF90DF90CF9008955A
:101D600085ED8093BC008091BC0084FDFCCF109277
:101D7000A40C08952091930A260F3327331F213294
:101D80003105ECF42091A40CFC0190E080E02430BB
:101D900069F082E00895A091930A2191AC014D5819
:101DA000554FA40FB52FB11D2C930196861798F3AC
:101DB0008091930A680F6093930A80E0089581E010
:101DC00008950895E091A80C8091A70CE81730F4CD
:101DD000F0E0E85CF34F808190E008958FEF9FEF93
:101DE00008959091A80C8091A70C2FEF3FEF9817C2
:101DF00048F4E92FF0E0E85CF34F208130E09F5F8A
:101E00009093A80CC90108958091A70C9091A80CFB
:101E1000891B990B0895CF92DF92EF92FF920F9357
:101E20001F93CF93DF937C01CB018A0120917C0C1F
:101E3000222389F0EB016B01C40ED51ECC15DD0504
:101E400069F06991D701ED91FC910190F081E02D4D
:101E5000C7010995F3CF642F0E94BA0EC801DF9124
:101E6000CF911F910F91FF90EF90DF90CF90089549
:101E7000CF93DF931F92CDB7DEB7698320917C0C9F
:101E80002223F9F02091A50C203258F021E030E017
:101E9000FC013383228390E080E00F90DF91CF91AB
:101EA00008958091A60CE82FF0E0E358F34F998154
:101EB00090838F5F8093A60C8093A50C81E090E0C7
:101EC000ECCF61E0CE0101960E94BA0EF7CFCF931E
:101ED000C62F91E090937C0C98E690939D0C109205
:101EE000A60C1092A50C682F82E69AE10E94380F8A
:101EF0006C2F82E69AE10E94380F81E0CF910C941A
:101F00000306CF93CFB7F8948091B70A811127C009
:101F1000EDE9FAE08491EDEBFAE09491E82FF0E03E
:101F2000EE0FFF1FE558F54FA591B491EC91E92311
:101F300021F461E084E00E944B0961E084E00E94AA
:101F4000AB098CB580618CBD8CB580648CBD61E0C3
:101F500087E00E94AB0961E085E00E94AB098091B7
:101F6000B70A8F5F8093B70ACFBFCF910895FC0166
:101F7000268137812115310591F12130310559F143
:101F80002230310551F12330310549F52CE09CB563
:101F9000937F922B9CBD84819581019711F58CB51F
:101FA00080628CBD82819381019784309105E0F439
:101FB000845B9E4FFC0190818CB58C7F292F237010
:101FC000822B8CBD8DB592FB992790F98E7F892B42
:101FD0008DBD0C94810F24E0DACF28E0D8CF20E02B
:101FE000D6CF8CB58F7DDDCF95E0E6CFCF92DF9257
:101FF000EF92FF92CF93DF9360E08DE10E94AB09F7
:102000008DE10E94DC09B0E0A0E0BC01CD01660FCB
:10201000771F881F991F0E94695223E333E343E52A
:1020200050E40E94CA5220E030E048EC52E40E94A2
:10203000CA5220E030E84FEF53E40E94025420E0FF
:1020400030EC4FE754E40E946E540E94E054CB0100
:1020500064E670E00E942555EB01BC0190E080E051
:102060000E94695220E030E048EC52E40E946E5435
:102070006B017C01BE0190E080E00E9469529B01EF
:10208000AC01C701B6010E940254DF91CF91FF90CD
:10209000EF90DF90CF900895CF92DF92EF92FF9272
:1020A000CF93DF9361E08EE00E94AB0960E088E1AE
:1020B0000E94AB0961E08EE00E944B0984EE93E040
:1020C0000197F1F788E10E94DC09EC0160E08EE005
:1020D0000E944B09BE0190E080E022E0660F771F6E
:1020E000881F991F2A95D1F70E94695223E333E391
:1020F00043E550E40E94CA5220E030E048EC52E44C
:102100000E94CA5220E030EC4FEB54E40E9402548B
:1021100020E030ED4FE355E40E946E540E94E054FD
:10212000CB0164E670E00E942555EB01BC0190E014
:1021300080E00E94695220E030E048EC52E40E94C6
:102140006E546B017C01BE0190E080E00E946952F8
:102150009B01AC01C701B6010E940254DF91CF91EF
:10216000FF90EF90DF90CF90089580EB9CE00E946D
:10217000B308E0EBFCE0A289B3898C918F7E8C934D
:10218000A289B3898C91877F8C93A289B3898C9122
:102190008F778C93A289B3898C918F7D8C93828D5C
:1021A000818F60E08FE00E944B0960E080E00E9438
:1021B0004B0960E081E00E944B0983E191E10E94BC
:1021C000B00A80B78F7780BFEAE7F0E080818F7731
:1021D0008083F89485B7806885BF85B7806885BFA0
:1021E000789483B7817F846083BF83B7816083BF26
:1021F0007894ABE6B0E08C9184608C93A8E6B0E074
:102200008C9181608C9383B7816083BF889583B7FD
:102210008E7F83BF8081806880830E944A070E94EE
:10222000810F61E080E00E944B0961E081E00C9445
:102230004B099FB7F8942091B60A80911408213079
:1022400019F48DBB9FBF08958FBF0895CF93DF937F
:10225000EC0161E088810E944B098091B60A8111EE
:102260000E9419118B818CBD8C818DBDDF91CF9126
:1022700008958EBD00000DB407FEFDCF8EB5089504
:10228000862F0C9439112091B60A222361F02FB7C2
:10229000F8943091B60A313049F43DB330931408C4
:1022A0003DB33DBB2FBF8CBD9DBD08952093140849
:1022B000FACFCF93DF93EC018CB58B838DB58C83F4
:1022C0008D819E810E94431160E08881DF91CF91D2
:1022D0000C944B098F929F92AF92BF92CF92DF9254
:1022E000EF92FF920F931F93CF93DF934B015C010B
:1022F00028E833E140E050E00E949E532A31310546
:1023000010F029E130E06901F12CE12CC501B401A4
:10231000A7010E949E538901D0E0C0E0C017D107F9
:10232000C8F4A090CD0EB090CE0EC5010E945911F8
:1023300085E00E94391180E00E943911982EC50174
:102340000E94261190FE14C0C701B6010E94130A14
:102350002196E4CF80E0DF91CF911F910F91FF9004
:10236000EF90DF90CF90BF90AF909F908F900895A7
:1023700081E0F1CF0F931F93CF93DF93EC01162FE2
:10238000442339F040E066E00E94BA11CE010E9479
:102390002611CE010E94591185E00E94391180E07A
:1023A0000E943911082FCE010E94261100FDF1CFA5
:1023B000CE010E945911812FDF91CF911F910F9172
:1023C0000C943911FF920F931F93CF93DF93162F25
:1023D000072FF82E68EE73E080E090E00E946A110B
:1023E000882301F1C091CD0ED091CE0E41E060E284
:1023F000CE010E94BA118F2D0E943911802F0E94A8
:102400003911812F0E943911CE010E94261168EEE8
:1024100073E080E090E0DF91CF911F910F91FF90EA
:102420000C946A1180E0DF91CF911F910F91FF9082
:1024300008952F923F924F925F926F927F928F9268
:102440009F92AF92BF92CF92DF92EF92FF920F9343
:102450001F93CF93DF936C012A013B0119019A016D
:10246000332780E091E0821B930B912C812C011586
:10247000110581F1E8018017910708F4EC0141E0B2
:1024800062E0C6010E94BA11862D0E943911852D85
:102490000E943911842D0E9439115101A80CB91CD8
:1024A0007501F70181917F010E943911C7018A19D5
:1024B0009B098C179D07A8F3C6010E9426114C0E9C
:1024C0005D1E611C711C8C0E9D1E0C1B1D0B80E083
:1024D00091E0CDCFDF91CF911F910F91FF90EF90C1
:1024E000DF90CF90BF90AF909F908F907F906F9034
:1024F0005F904F903F902F900895BF92CF92DF92C0
:10250000EF92FF920F931F93CF93DF937C01EA0129
:10251000B62E690140E06BE00E94BA118B2D0E943B
:1025200039118D2F0E9439118C2F0E94391180E0B2
:102530000E943911E6010C0D1D1DC017D10729F0AD
:1025400080E00E9439118993F8CFC701DF91CF91C4
:102550001F910F91FF90EF90DF90CF90BF900C9460
:1025600026110F931F93CF93DF9300D0CDB7DEB723
:10257000AB01BC014C5F5F4F6F4F7F4F02E010E03B
:102580009E012F5F3F4F8091CD0E9091CE0E0E9405
:102590007D122091ED0E3091EE0E89819A812817DF
:1025A000390710F41A82198289819A810F900F904D
:1025B000DF91CF911F910F910895CF92DF92EF920B
:1025C000FF926B017C010E94B1129C01009769F09F
:1025D000E091EB0EF091EC0EBF010E9425550097A3
:1025E00021F02E0F3F1F281B390BC701B601620FC8
:1025F000731F811D911DFF90EF90DF90CF900C9481
:10260000A2060F931F93CF93DF93CDB7DEB76097EA
:102610000FB6F894DEBF0FBECDBFAB01BC0100E129
:1026200010E09E012F5F3F4F8091CD0E9091CE0E16
:102630000E947D12FE013196CE01419621912F3FDD
:1026400079F4E817F907D1F781E060960FB6F894AE
:10265000DEBF0FBECDBFDF91CF911F910F910895C7
:1026600080E0F3CF4F925F926F927F92AF92BF92D2
:10267000CF92DF92EF92FF920F931F93CF93DF934E
:10268000CDB7DEB72C970FB6F894DEBF0FBECDBF27
:102690006B017C015A01FA011082118212821382AD
:1026A00004E010E09A01BC01A6018091CD0E90914A
:1026B000CE0E0E947D12F50180819181A281B381AD
:1026C0008F3F9F4FAF4FBF4F79F019861A861B86F9
:1026D0001C86C701B6010E94DD122B013C01C41407
:1026E000D504E604F70411F480E054C004E010E0DF
:1026F0009E01275F3F4FBC01A2018091CD0E9091BA
:10270000CE0E0E947D1249855A856B857C85F50128
:1027100080819181A281B3810196A11DB11D841791
:102720009507A607B70709F451C04F3F5F4F6F4F9A
:102730007F4FD1F6C301B2010E9401138823A1F299
:102740008091EB0E9091EC0EC81AD90AE108F108BD
:10275000CD82DE82EF82F886AE014F5F5F4F6FEF72
:10276000CE0105960E94E813882349F149815A81D8
:102770006B817C814F5F5F4F6F4F7F4F81E0F50131
:10278000C080D180E280F3804C155D056E057F0529
:1027900009F0AACF2C960FB6F894DEBF0FBECDBFBE
:1027A000DF91CF911F910F91FF90EF90DF90CF902D
:1027B000BF90AF907F906F905F904F9008956D8124
:1027C0007E818F8198850E940113E4CF81E0E2CF62
:1027D000CF92DF92EF92FF920F931F93CF93DF93ED
:1027E000EC01D62E7A01688179818A819B810E94D1
:1027F0000113CC24C39410E000E0882391F08FEF04
:102800009FEFDC01F70180839183A283B38380E093
:10281000DF91CF911F910F91FF90EF90DF90CF90BC
:102820000895688179818A819B81A7010E94321372
:102830008111EECFCC20D9F061E0CE010E94EF06ED
:10284000688179818A819B810E940113C82E811140
:10285000D6CF8091ED0E9091EE0E6091EB0E7091BF
:10286000EC0E0E94255560177107D8F6C8CF8881F5
:102870009981AA81BB814091EB0E5091EC0E70E0E2
:1028800060E01D14ACF0841B950BA60BB70B88837E
:102890009983AA83BB83688179818A819B810E9405
:1028A000A206688379838A839B830F5F1F4FC8CFFB
:1028B000840F951FA61FB71FEACF2F923F924F920A
:1028C0005F926F927F928F929F92AF92BF92CF92C0
:1028D000DF92EF92FF920F931F93CF93DF93CDB7C9
:1028E000DEB72E970FB6F894DEBF0FBECDBF8C01BA
:1028F0006D87FC0160817181828193810E94011347
:102900008823C9F0F80180809180A280B380FD8582
:10291000F13009F4F5C08091E30E9091E40EA0919E
:10292000E50EB091E60E75016401C81AD90AEA0AEB
:10293000FB0A7D84F3C02091EB0E3091EC0E809168
:10294000E70E9091E80EA091E90EB091EA0E821B7D
:10295000930BA109B109F80180839183A283B3830A
:10296000AE01475F5F4F6FEFC8010E94E81381110E
:102970000BC0F80160817181828193810E940113F3
:102980008111C0CF612C22C18091E30E9091E40EA1
:10299000A091E50EB091E60EF80180839183A283A9
:1029A000B383AE014B5F5F4F61E0C8010E94E81343
:1029B000F8016081718122819381811102C0822F8F
:1029C000DDCF4D805E806F8078846B01E22EF92E22
:1029D0008090E70E9090E80EA090E90EB090EA0E7D
:1029E0008C189D08AE08BF0822E9222E33243394A8
:1029F0008091EB0E9091EC0EB0E0A0E08815990567
:102A0000AA05BB0520F4B694A79497948794FFEF8A
:102A10003F1252C0C814D904EA04FB0408F04CC0A9
:102A20008091E70E9091E80EA091E90EB091EA0E28
:102A30004091E30E5091E40E6091E50E7091E60E28
:102A4000841B950BA60BB70B8C0D9D1DAE1DBF1DDA
:102A50006C017D01C818D908EA08FB08F801C0829A
:102A6000D182E282F38260E0C8010E94EF06F801A1
:102A700060817181828193810E940113811142CF13
:102A8000AE014F5F5F4F632DC8010E94E81388239A
:102A900041F189819A81AB81BC81F1E03F1219C07B
:102AA000481659066A067B0640F52A94222009F446
:102AB00069CF2C013D019CCFA32D032C000CBB0B37
:102AC000A50194010E94EA53C60ED71EE81EF91E06
:102AD000C5CF84159505A605B70538F3332433947F
:102AE000E4CFF80160817181828193810E9401139A
:102AF000811108CFD301C201D8CF33243A94D5CF66
:102B0000C090E70ED090E80EE090E90EF090EA0E4B
:102B1000C818D908EA08FB0877247394F2E9FE87FD
:102B2000F80160817181828193810E94011381117A
:102B3000C7C0F8012080318042805380C201B101BA
:102B40006627707F99277051810991090E94A2061A
:102B50000E940113682E8823E9F0C201B1010E948E
:102B60000113811117C0FD85F130A1F4F8018081B6
:102B70009181A281B3818827907FBB278083918335
:102B8000A283B383AE014F5F5F4F61E0C8010E9433
:102B9000E8131CC0AE014B5F5F4F672DC8010E9458
:102BA000E813F8014081518162817381882309F41F
:102BB0007EC0FD85FF3F21F5CB01BA010E94DD12E9
:102BC0000E940113682E882309F47EC0862D2E965C
:102BD0000FB6F894DEBF0FBECDBFDF91CF911F912E
:102BE0000F91FF90EF90DF90CF90BF90AF909F90AC
:102BF0008F907F906F905F904F903F902F900895AF
:102C00008091EB0E9091EC0E2A013B01481A590A73
:102C100061087108C301B2010E940113682E81117D
:102C2000B1CF77247A948091EB0E9091EC0EB0E0C6
:102C3000A0E08C159D05AE05BF0520F4F694E79441
:102C4000D794C7948FEF781242C08C149D04AE04C1
:102C5000BF04E8F58091E70E9091E80EA091E90E8F
:102C6000B091EA0E4091E30E5091E40E6091E50EB2
:102C70007091E60E841B950BA60BB70B880D991D62
:102C8000AA1DBB1D4C015D018C189D08AE08BF0834
:102C9000F80180829182A282B38260E0C8010E9422
:102CA000EF06FE85F150FE87F1113ACF6BCECB01D6
:102CB000BA010E940113882309F4B5CF7194B3CFF0
:102CC0002D852F3F09F4ADCF77247394ACCFA72D7A
:102CD000072C000CBB0BA70196010E94EA53860E3D
:102CE000971EA81EB91ED4CFCF93DF9300D000D07B
:102CF000CDB7DEB7AE014F5F5F4F0E94321388231E
:102D000059F069817A818B819C810F900F900F908F
:102D10000F90DF91CF9108956FEF7FEFCB01F5CF4B
:102D20000F931F93CF93DF93EC018CB58B838DB5FD
:102D30008C8361E088810E94AB090E94810F80E54D
:102D40008D8381E08E83CE010E942611CE010E94E8
:102D500059118BEA0E943911CE010E9426118981F6
:102D60009A81892B89F441E061E0CE010E94BA1179
:102D700080E00E943911CE010E94261181E0DF918E
:102D8000CF911F910F910895CE010E9459118FE9A3
:102D90000E94391180E00E943911082F10E0102F95
:102DA000002780E00E943911082BCE010E942611D5
:102DB00089819A8180179107B1F280E0E0CF282FB6
:102DC00030E094E0359527959A95E1F7922F990F89
:102DD000990F291B220F820F0895EF92FF920F93F4
:102DE0001F93CF93DF938C01C62FF894F090B2001D
:102DF00061E0FC0184850E944B099C2F80E031E05A
:102E0000992329F083272FEF290F9223F9CFF0E898
:102E10008F9FC0011124C82B80E8D9E0982F9C23F4
:102E200019F0D1508695FACF8091B2008F198A316E
:102E3000D8F3F090B200EE24E394F8018485ED1607
:102E400078F460E0C0FF61E00E944B098091B2001D
:102E50008F198A31D8F3F090B200C695E394EDCF84
:102E600060E00E944B0978948AE090E08D1B910904
:102E70009AE1899F802D11249091B2009F19981793
:102E8000D8F3DF91CF911F910F91FF90EF900895AC
:102E9000FC0115869091AE0C8091AF0C981799F0BB
:102EA000E091AE0CF0E0EC53F84F20818091AE0C35
:102EB00090E001966BE470E00E9439558093AE0C6F
:102EC000822F90E008958FEF9FEF08959091AE0CC0
:102ED0008091AF0C981741F0E091AE0CF0E0EC530C
:102EE000F84F808190E008958FEF9FEF0895FC01E7
:102EF000858581110EC08091AF0C2091AE0C90E0C1
:102F0000855B9F4F821B91096BE470E00E943955ED
:102F100008958FEF9FEF089590E080E00895DC0121
:102F20001C969C911C97ECE6F0E0983050F0E3E79B
:102F3000F0E0903130F0EBE6F0E0983110F4EDE69F
:102F4000F0E08081977021E030E001C0220F9A9577
:102F5000EAF72095282320831C968C91ECE6F0E07C
:102F6000883050F0E3E7F0E0803130F0EBE6F0E05D
:102F7000883110F4EDE6F0E09081911110C0F0E09E
:102F8000E0E0803210F4E8E6F0E09081883040F034
:102F9000803140F0883140F08EEF8923808308959E
:102FA0008DEFFBCF87EFF9CF8BEFF7CFCF93DF9389
:102FB000EC016330710521F164307105E1F162309B
:102FC000710509F05FC060E083E00E94AB0961E039
:102FD00083E00E94AB0961E083E00E944B0960E05E
:102FE0008C850E94AB0961E08C850E94AB0960E092
:102FF0008C850E944B09CE01DF91CF910C948F17E5
:1030000060E083E00E94AB0961E083E00E94AB09CD
:1030100061E083E00E944B0962E070E080E090E0B4
:103020000E94130A60E08C850E94AB0961E08C85E8
:103030000E94AB09E0CF61E083E00E94AB0960E051
:1030400083E00E944B0962E070E080E090E00E9423
:10305000130A60E08C850E944B0960E08C850E9419
:10306000AB097894809168008860809368008091B3
:1030700073008460809373008FEF80931308DF9157
:10308000CF91089561E083E00E94AB0961E083E0A5
:103090000E944B0960E08C850E944B0960E0C7CF1D
:1030A00070E060E08FEE9EE00E94D6171092AD0CAB
:1030B0001092AC0C8091AB0C8093B0008091AA0C64
:1030C0008093B10008958091AC0C9091AD0C8F5E0F
:1030D0009E4061F062E070E08FEE9EE00E94D617A5
:1030E0008FEE9EE09093AD0C8093AC0C86E990E05F
:1030F000A0E0B0E08093F30E9093F40EA093F50E51
:10310000B093F60E81EF98ED9093FE0E8093FD0E36
:103110008091B0008093AB0C8091B1008093AA0C99
:103120001092B00086E08093B1000895CF93DF93B2
:1031300063E070E08FEE9EE00E94D617CFEEDEE0F7
:1031400061E08C850E944B098CE895E60197F1F7C8
:1031500060E08C850E944B098CE496E40197F1F7BE
:10316000DF91CF9108950F931F93CF93DF938C013D
:103170000E949618D0E0C0E0D80114968D919C91E1
:103180001597C817D90790F4ED91FC91309759F431
:103190001092A90CE9EAFCE060818FEE9EE00E94AB
:1031A000ED162196E9CFEC0FFD1FF6CF64E070E03D
:1031B0008FEE9EE0DF91CF911F910F910C94D61767
:1031C0001F93CF93DF93EC01162F63E070E00E9412
:1031D000D617612FCE010E94ED1664E070E0CE019B
:1031E0000E94D61781E090E0DF91CF911F91089562
:1031F00081E080937C0C88E680939D0C1092A60C55
:103200001092A50C60E082E69AE10E94380F81E0FE
:103210000E940306811142C067E088E60E946006B2
:103220001092A80C8093A70C82E69AE10E94F10EFE
:103230008F770E94DF168093310C82E69AE10E941C
:10324000F10E0E94DF168093320C82E69AE10E9412
:10325000F10E8F7B0E94DF168093330C82E69AE199
:103260000E94F10E8093340C82E69AE10E94F10EE6
:103270000E94DF168093350C82E69AE10E94F10EDF
:103280008F770E94DF168093360C82E69AE10E94C7
:10329000F10E0E94DF16825E8093370C8091310C14
:1032A00080936A0A8091320C8093CB0A8091330C10
:1032B00080936B0A8091350C80936E0A8091360C56
:1032C00080936F0A8091370C90E08E54984F9093C2
:1032D0006D0A80936C0A62E370E080E090E00C94E9
:1032E000130ACF9391E090937C0C98E690939D0CF9
:1032F0001092A60C1092A50C682F82E69AE10E940B
:10330000380F81E00E94030681110DC061E088E65C
:103310000E9460061092A80C8093A70C82E69AE1A6
:103320000E94F10EC82F8C2FCF9108951F93CF9339
:10333000DF9381E080937C0C88E680939D0C109253
:10334000A60C1092A50C60E082E69AE10E94380F6C
:10335000C1E3DCE028811AE0822F612F0E94195519
:10336000682F660F680F660F620F82E69AE10E946F
:10337000380F2981822F612F0E941955682F660FFF
:10338000680F660F620F82E69AE10E94380F2A8169
:10339000822F612F0E941955682F660F680F660FE4
:1033A000620F82E69AE10E94380F6B8182E69AE111
:1033B0000E94380F2C81822F612F0E941955682F8F
:1033C000660F680F660F620F82E69AE10E94380F5F
:1033D0002D81822F612F0E941955682F660F680F6B
:1033E000660F620F82E69AE10E94380F2E812E51FD
:1033F000822F612F0E941955682F660F680F660F84
:10340000620F82E69AE10E94380F81E00E94030673
:10341000C82F8FE00E947119682F6F778FE00E948C
:10342000670F8C2FDF91CF911F910895CF93DF937A
:10343000C82FD62F8EE00E9471194C2F4150550B8A
:1034400061E070E001C0660F4A95EAF7DD2331F0D4
:10345000682B8EE0DF91CF910C94670F6095682305
:10346000F8CFCF93DF93C82F8FE00E947119C1501E
:10347000DD0B21E030E001C0220FCA95EAF7982F5A
:10348000922351F02095622F68238FE00E94670FEE
:1034900081E0DF91CF91089580E0FBCF0F931F93E0
:1034A000CF93DF93EC010E9496188E01FE010190EC
:1034B0000020E9F73197EC1BFD0BC8018C1B9D0B1D
:1034C0008E179F0740F4F80161918F018FEE9EE007
:1034D0000E94ED16EBCF64E070E08FEE9EE0DF918E
:1034E000CF911F910F910C94D617FC0101900020F1
:1034F000E9F73197AF01481B590BBC0180EB9CE009
:103500000C94C1078CED91E00C94751ACF93DF9366
:103510000E949308EC010E94821A8C0F9D1FDF917C
:10352000CF910895CF93DF93FC0144815581608151
:10353000718180EB9CE00E94C107EC010E94821A1D
:103540008C0F9D1FDF91CF910895CF93DF930E9441
:10355000AE08EC010E94821A8C0F9D1FDF91CF9163
:1035600008958F929F92AF92BF920F931F93CF9324
:10357000DF93CDB7DEB7A1970FB6F894DEBF0FBECD
:10358000CDBF19A2423008F44AE08E010F5D1F4FF3
:10359000842E912CB12CA12CA50194010E949E5344
:1035A000E62FB901CA01EA30F4F4E05DD801EE93E8
:1035B0008D01232B242B252B79F790E080E01097A9
:1035C00019F0CD010E94751AA1960FB6F894DEBFCE
:1035D0000FBECDBFDF91CF911F910F91BF90AF90E4
:1035E0009F908F900895E95CE1CF682F70E090E0A4
:1035F00080E04AE00C94B11ACF93DF930E94F51A51
:10360000EC010E94821A8C0F9D1FDF91CF910895CB
:10361000CF92DF92EF92FF92CF93DF9397FF19C083
:103620006B017C018DE20E94AE08EC0166277727D2
:10363000CB016C197D098E099F094AE00E94B11ADD
:103640008C0F9D1FDF91CF91FF90EF90DF90CF9077
:1036500008954AE0DF91CF91FF90EF90DF90CF90F7
:103660000C94B11ACF92DF92EF92FF920F931F93B7
:10367000CF93DF930E94460A6B017C0120E1C20ECA
:1036800027E2D21EE11CF11C1092720A1092710AFC
:103690000E94460A6C157D058E059F05A0F580EBFE
:1036A0009CE00E941F081816190694F764E670E063
:1036B00080E090E00E94130A80EB9CE00E941F08CB
:1036C000F82E11E00AE0C091710AD091720AF11649
:1036D00090F080EB9CE00E94FE070C9F90010D9FF4
:1036E000300D1124C097280F391F3093720A209390
:1036F000710A1F5FE8CFBE01DD0F880B990B0E9496
:10370000081B0E94821A6AE070E080E090E0DF917E
:10371000CF911F910F91FF90EF90DF90CF900C947D
:10372000130ACF93DF934AE00E94B11AEC010E9482
:10373000821A8C0F9D1FDF91CF910895CF93DF9355
:10374000D0E0C0E0009719F00E94751AEC010E94C9
:10375000821A8C0F9D1FDF91CF9108958F929F92B7
:10376000AF92BF92CF92DF92EF92FF921F93CF93CF
:10377000DF93CDB7DEB764970FB6F894DEBF0FBE08
:10378000CDBF6B017C0149015A0168E873E180E01B
:1037900090E00E946A11182F882309F410C2C09289
:1037A000E30ED092E40EE092E50EF092E60E8092E7
:1037B000E70E9092E80EA092E90EB092EA0E80E237
:1037C00090E09093EC0E8093EB0E80E090E190936C
:1037D000EE0E8093ED0EF8948FEF9FEFDC01809357
:1037E000CF0E9093D00EA093D10EB093D20E8093B3
:1037F000D30E9093D40EA093D50EB093D60E809393
:10380000D70E9093D80EA093D90EB093DA0E809372
:10381000DB0E9093DC0EA093DD0EB093DE0E609174
:10382000E30E7091E40E8091E50E9091E60E0E94F9
:103830000113882309F4C0C08090E30E9090E40E39
:10384000A090E50EB090E60E6091E70E7091E80E44
:103850008091E90E9091EA0E681979098A099B090D
:103860009695879577956795680D791D8A1D9B1D9F
:103870000E940113882309F49FC08091E30E909168
:10388000E40EA091E50EB091E60E898B9A8BAB8B7E
:10389000BC8B8D879E87AF87B88B69897A898B8926
:1038A0009C896093D30E7093D40E8093D50E909321
:1038B000D60ECD84DE84EF84F888C092CF0ED092ED
:1038C000D00EE092D10EF092D20E0E94DD126093E3
:1038D000D70E7093D80E8093D90E9093DA0E6B01A9
:1038E0007C01CC2420EFD222FF246C157D058E05AF
:1038F0009F0509F0A6C16093DB0E7093DC0E8093E8
:10390000DD0E9093DE0E6091DB0E7091DC0E8091E7
:10391000DD0E9091DE0E0E94A2066093DB0E709386
:10392000DC0E8093DD0E9093DE0E8091D30E90918D
:10393000D40EA091D50EB091D60E0097A048B10537
:1039400008F486C11092DF0E1092E00E1092E10E84
:103950001092E20E78948FED91E00E949E1B0E94DF
:10396000821A6091CF0E7091D00E8091D10E9091FD
:10397000D20E0E9474166091D30E7091D40E809175
:10398000D50E9091D60E0E94741680EB9CE00E949A
:10399000B308812F64960FB6F894DEBF0FBECDBF7B
:1039A000DF91CF911F91FF90EF90DF90CF90BF906C
:1039B000AF909F908F9008958091E30E9091E40EC8
:1039C000A091E50EB091E60E898B9A8BAB8BBC8BE8
:1039D000AE014B5F5F4F6FEFCE0141960E94E8133F
:1039E00081111DC08091E30E9091E40EA091E50E2F
:1039F000B091E60E898B9A8BAB8BBC8BAE014B5F83
:103A00005F4F61E0CE0141960E94E813811107C02B
:103A10008FEF9FEFDC018D839E83AF83B88720916A
:103A2000EB0E3091EC0E8091E70E9091E80EA09194
:103A3000E90EB091EA0E821B930BA109B109898BA3
:103A40009A8BAB8BBC8BAE01475F5F4F6FEFCE01A4
:103A500041960E94E813811107C08FEF9FEFDC01B0
:103A600089879A87AB87BC8789849A84AB84BC8416
:103A70008091E30E9091E40EA091E50EB091E60ED8
:103A80004D815E816F8178854F3F5F4F6F4F7F4FD4
:103A900009F18B208A208920809409F096C08D87B7
:103AA0009E87AF87B88BAE014F5F5F4F61E0CE015D
:103AB0000D960E94E8138823E1F12091EB0E3091DE
:103AC000EC0E8091E70E9091E80EA091E90EB09176
:103AD000EA0E9AC02091EB0E3091EC0E4091E70E69
:103AE0005091E80E6091E90E7091EA0E421B530B63
:103AF000610971098B208A208920809409F48DC086
:103B0000498B5A8B6B8B7C8B8D879E87AF87B88B4D
:103B1000AE014F5F5F4F6FEFCE0141960E94E813F9
:103B2000882339F061E0CE010D960E945D14811169
:103B3000B4CE89899A89AB89BC89C816D906EA06A8
:103B4000FB06E1F58D859E85AF85B889C816D90637
:103B5000EA06FB0699F580E090E0A0E8B0E08093EB
:103B6000D30E9093D40EA093D50EB093D60E80931F
:103B7000CF0E9093D00EA093D10EB093D20EC092E0
:103B8000D70ED092D80EE092D90EF092DA0E80E1E4
:103B9000D80EE11CF11CC092DB0ED092DC0EE0923C
:103BA000DD0EF092DE0E8FEF9FEFDC018093DF0ED3
:103BB0009093E00EA093E10EB093E20E789486EF1E
:103BC00091E00E949E1B10E0E4CE19861A861B86A7
:103BD0001C864FEF5FEFBA014D835E836F8378875A
:103BE0008D879E87AF87B88B61E0CE010D960E94CE
:103BF0005D14882309F49DCF2091EB0E3091EC0EDB
:103C00008D859E85AF85B889821B930BA109B1096B
:103C1000898B9A8BAB8BBC8B10C08D879E87AF87AF
:103C2000B88B498B5A8B6B8B7C8B61E0CE010D96E8
:103C30000E945D14882309F47CCF6FEFCE0141967A
:103C400074CF705F8F4F9F4F6627707F992753CE39
:103C50004FED5EE061E083ED9EE00E94E8137ACED6
:103C60000C94751A80911301882331F10E94F81881
:103C700065E38BE00E94670F68E18CE00E94670FAC
:103C800060E88DE00E94670F8091700A882371F0D0
:103C900084E192E00E94301E82E10E94F51A8AE3DC
:103CA00096E00E94301E83E20E94FC1A62E370E0FC
:103CB00080E090E00C94130A0895CF93DF93482F8F
:103CC0005091CB0A852F90E0E091B50BE4133FC0F3
:103CD000CE2FD0E08C0F9D1F6CE370E00E94395511
:103CE000BE010E943955E69FE02D1124E093550A4C
:103CF0002091550A822F6AE00E941955C82FCC0FD7
:103D0000C80FCC0FC20F60E087E00E94670F6C2FD6
:103D100088E00E94670F60E889E00E94670F60E812
:103D20008AE00E94670F8091700A882341F086E242
:103D300092E00E94301E8091550A0E94FC1A62E3B4
:103D400070E080E090E0DF91CF910C94130A840F33
:103D5000911D8C3391053CF06CE370E00E94395565
:103D60008093550AC5CF450F4093550AC1CFCF93D5
:103D7000DF93EC0188819981009711F00E94F95539
:103D8000198218821D821C821B821A82DF91CF91B8
:103D90000895FC01808191810C94F9552F923F92F6
:103DA0004F925F927F928F929F92AF92BF92CF92EB
:103DB000DF92EF92FF920F931F93CF93DF9300D088
:103DC00000D000D0CDB7DEB74B015C01AE014F5F34
:103DD0005F4F0E943213782E81111DC086E392E05E
:103DE0000E949E1B872D26960FB6F894DEBF0FBE4D
:103DF000CDBFDF91CF911F910F91FF90EF90DF909A
:103E0000CF90BF90AF909F908F907F905F904F909A
:103E10003F902F90089506E010E09E012F5F3F4FE6
:103E2000B501A4018091CD0E9091CE0E0E947D121D
:103E30004D805E80620186E0C81AD108C2010597F4
:103E40000E945D557C010091E70E1091E80E2091D3
:103E5000E90E3091EA0EB501A4014A5F5F4F6F4F42
:103E60007F4FD501C401840D951DA11DB11D1C01FD
:103E70002D018091CD0E9091CE0E021513052405D3
:103E8000350560F5065011095801A818B9088501D3
:103E900097010E947D1286010A191B0997012A0DBC
:103EA0003B1D4091E30E5091E40E6091E50E709140
:103EB000E60E8091CD0E9091CE0E0E947D12F701FC
:103EC000EC0DFD1D1082C7010E949E1B80EB9CE043
:103ED0000E94B308C7010E94F95584CF860197015B
:103EE000ECCF2F923F924F925F926F927F928F9280
:103EF0009F92AF92BF92CF92DF92EF92FF920F9379
:103F00001F93CF93DF93CDB7DEB72A970FB6F89400
:103F1000DEBF0FBECDBFFC01698304811581C801DE
:103F200087509F4F6AEF70E00E942555662309F481
:103F30002AC129812A874F016150698790E080E07A
:103F4000212C312C210133940115110509F41BC1D9
:103F50000B3F110550F15C013AEFA30EB11C0A5F53
:103F6000110966246394712C681A790A6A0C7B1C07
:103F7000498540930A10ABE0B0E18A159B05D8F45F
:103F8000F401248135818217930738F4208131812F
:103F9000F901E80FF91F232B21F41092A90CE9EA8B
:103FA000FCE020812D930196E8CF5801A80EB91EA0
:103FB00010E000E0D6CFF090060FF394F092060FD9
:103FC000C12CEE24E394EC0C8091090F8C1508F4BD
:103FD000F4C08091FF0E9091000FDC01ED91FC91F7
:103FE000008CF18DE02D6F2D09958091FF0E909141
:103FF000000FDC01ED91FC91028CF38DE02D40E887
:1040000060E009954A85662D8AE090E10E947D076F
:104010000E947207BA85BF3F09F4D1C0E1E0EE15F6
:1040200098F48091020F9091030FA091040FB0912A
:10403000050F0196A11DB11D8093020F9093030FF0
:10404000A093040FB093050F0E94460A69837A83F8
:104050008B839C83C090070FD090080F0E943D4F28
:10406000A20191010E94C0539B01AC01D6010E94A4
:10407000DF53A20191010E94C0532C0D3D1DCE2C97
:10408000C901B0E0A0E08D839E83AF83B8870E9412
:10409000460A29813A814B815C81621B730B840B38
:1040A000950B2D813E814F815885621773078407D8
:1040B000950708F086CF8091FF0E9091000FDC01EC
:1040C000ED91FC910280F381E02D09958823F9F2AE
:1040D0008091FF0E9091000FDC01ED91FC91048026
:1040E000F581E02D50E040E070E060E00995882324
:1040F00071F28091FF0E9091000FDC01ED91FC9127
:1041000000A0F1A1E02D0995D82E8091FF0E90918D
:10411000000FDC01ED91FC91068CF78DE02D0995E7
:10412000782E8091FF0E9091000FDC01ED91FC91B3
:1041300002A0F3A1E02D0995E82E8091FF0E909149
:10414000000FDC01ED91FC9104A0F5A1E02D099593
:10415000BA85BD1108C09091010F971104C087FF67
:1041600002C0FE1461F187FD92CFED2DF0E0E15029
:10417000F14F83858E118BCF4D2D6E2D8FEF9EE0ED
:104180000E94B50C84CF81E02A960FB6F894DEBF6A
:104190000FBECDBFDF91CF911F910F91FF90EF9098
:1041A000DF90CF90BF90AF909F908F907F906F9057
:1041B0005F904F903F902F90089580E0E5CFE98584
:1041C000E150E987C501C0CE0E9463570F931F934A
:1041D000CF93DF93EC0188819981009759F02A8170
:1041E0003B812617370730F081E0DF91CF911F9197
:1041F0000F9108958B016F5F7F4F0E948256009749
:1042000059F0998388831B830A832C813D81232B5A
:1042100059F7FC011082E8CF80E0E7CFEF92FF92E0
:104220000F931F93CF93DF936115710541F480E0E5
:10423000DF91CF911F910F91FF90EF90089541155D
:104240005105B1F07B01EC010C811D81040F151F9C
:10425000B8010E94E620882351F3288139818C819E
:104260009D81B701820F931F0E9497571D830C8376
:1042700081E0DECF0F931F93CF93DF9300D000D068
:10428000CDB7DEB74AE08E010F5F1F4FB80190E057
:104290000E94A74FF80101900020E9F73197AF0184
:1042A000401B510BB8018EE292E10E940E210F904B
:1042B0000F900F900F90DF91CF911F910F91089564
:1042C0000F931F93CF93DF93CDB7DEB764970FB6ED
:1042D000F894DEBF0FBECDBF8E010F5F1F4F22E0EF
:1042E00044E00E94D34EFC0101900020E9F7319791
:1042F000AF01481B590BBC018EE292E10E940E21D6
:1043000064960FB6F894DEBF0FBECDBFDF91CF919C
:104310001F910F910895CF93DF9300D0CDB7DEB7F3
:1043200069831A8241E050E0BE016F5F7F4F0E94B7
:104330000E210F900F90DF91CF910895FB01019016
:104340000020E9F73197AF01461B570B0C940E2163
:10435000EF92FF920F931F93CF93DF93EC017B01BA
:104360008A01BA010E94E62081110BC0CE010E9491
:10437000B71ECE01DF91CF911F910F91FF90EF906B
:1043800008951D830C83B701888199810E949757F6
:10439000F0CFFC01118210821382128215821482E6
:1043A00050E040E06EED71E00C94A821CF93DF93D4
:1043B00000D000D000D0CDB7DEB70E94631864E60D
:1043C00070E080E090E00E94130ACE0101960E9406
:1043D000C9216091680ACE0101960E948B216EE48A
:1043E00072E0CE0101960E949E21CE0101960E94AC
:1043F000B3186CE271E080E090E00E94130A8FEE47
:104400009EE00E947717892B29F08FEE9EE00E9494
:104410004817F5CF64E170E080E090E00E94130A55
:104420000E94501864E170E080E090E00E94130A5E
:10443000CE0101960E94C91E26960FB6F894DEBFE3
:104440000FBECDBFDF91CF910895CF93DF9300D002
:1044500000D000D0CDB7DEB70E94631864E670E0EC
:1044600080E090E00E94130ACE0101960E94C921CB
:104470006091680ACE0101960E948B2162E572E08C
:10448000CE0101960E949E21CE0101960E94B31892
:104490006CE271E080E090E00E94130A8FEE9EE0F3
:1044A0000E947717892B29F08FEE9EE00E94481713
:1044B000F5CF64E170E080E090E00E94130A0E9472
:1044C000501864E170E080E090E00E94130ACE0191
:1044D00001960E94C91E26960FB6F894DEBF0FBE45
:1044E000CDBFDF91CF910895FB0101900020E9F746
:1044F0003197AF01461B570B0C94A8210F931F93C4
:10450000CF93DF9300D000D000D0CDB7DEB7182F07
:10451000CE0101960E94C9216EED71E0CE01019697
:104520000E947422612FCE0101960E948B2163EAC2
:1045300074E0CE0101960E949E2103E010E0CE01BE
:1045400001960E94B31864E670E080E090E00E945B
:10455000130A8FEE9EE00E947717181619064CF08A
:1045600064E670E080E090E00E94130A01501109B7
:1045700031F78FEE9EE00E94771702979CF00E9421
:10458000FA0511E0CE0101960E94C91E812F2696E0
:104590000FB6F894DEBF0FBECDBFDF91CF911F9154
:1045A0000F9108950E94FA0510E0ECCFCF93DF93AE
:1045B000EC01FB018617970749F060817181611555
:1045C000710541F0448155810E94A821CE01DF91FF
:1045D000CF9108950E94B71EF9CFCF93DF9300D0FB
:1045E00000D000D0CDB7DEB71A8219821C821B82A0
:1045F0001E821D826EE272E1CE0101960E94D622D9
:1046000040913812509139126091341270913512E4
:10461000CE0101960E940E21811104C0CE010196A7
:104620000E94B71EBE016F5F7F4F84E392E10E943C
:10463000D622CE0101960E94C91E64E670E080E099
:1046400090E00E94130A84E392E10E94921A62E3CE
:1046500070E080E090E00E94130A26960FB6F8946E
:10466000DEBF0FBECDBFDF91CF910895CF92DF9215
:10467000EF92FF920F931F93CF93DF93EC017B0197
:104680008A01E881F9810280F381E02D0995D82E15
:10469000882329F1E114F104D1F001151105B9F0D5
:1046A000CFB6F8948A8D8350990BF8012081281792
:1046B00019061CF08A8D84508083F801408150E0F7
:1046C000BE01615E7F4FC7010E946857CFBE8FB7A2
:1046D000F894FE01E65EFE4F10821A8E8FBF8D2D7C
:1046E000DF91CF911F910F91FF90EF90DF90CF90CE
:1046F0000895EF92FF920F931F93CF93DF9300D013
:104700001F92CDB7DEB78C010E94970CE82E811165
:104710000CC0E12C8E2D0F900F900F90DF91CF9158
:104720001F910F91FF90EF900895F801808D8A30CE
:1047300009F47EC08B3009F47DC022E0F22E823075
:1047400041F740E861E0C8010E946D0A6AE070E04C
:1047500080E090E00E94130A61E0C8010E94AD0B66
:104760008038B9F660E0F801808D0E94AB09F8014D
:10477000818D8F3F49F48091B80A843050F691E0E2
:10478000980F9093B80A818FF801818DE82FF0E09F
:10479000EE0FFF1FE754F54F118300836EE87CE0B6
:1047A000882349F065E87CE0813029F0823009F007
:1047B000B0CF6CE77CE08F2D0E94A00740E06EE058
:1047C000C8010E946D0A40E06FE0C8010E946D0AB6
:1047D000C8010E94C50A43E050E06FE67AE0CE01CE
:1047E00001960E949E4F49816DE1C8010E946D0AA9
:1047F0004A816EE1C8010E946D0A4B8166E2C801E0
:104800000E946D0A40E060E2C8010E946D0A48E023
:1048100061E2C8010E946D0A40E050EC64E674E475
:10482000C8010E94D90A6DE0C8010E949D0A72CF9A
:10483000F12C87CFFF24F39484CFCF92DF92EF92B5
:10484000FF921F93CF93DF93E3EDFAE088ECDF0153
:104850001D928A95E9F762E370E080E090E00E94A3
:10486000130A0E94460A6B017C01B0E1CB0EB7E24D
:10487000DB1EE11CF11C0E94460A6C157D058E05AD
:104880009F0540F580EB9CE00E941F081816190652
:1048900094F764E670E080E090E00E94130A80EBF9
:1048A0009CE00E941F08EC01F82E10E080EB9CE0D9
:1048B0000E94FE078D3039F08A3029F0E12FF0E0B8
:1048C000ED52F54F80831F5FF11680F7DD27CD5243
:1048D000D54F188283ED9AE0DF91CF911F91FF9021
:1048E000EF90DF90CF900C949E1B0E941D2480912E
:1048F000D30A882359F08F7D893559F08E3459F0C9
:104900008DE49AE00E94861A83E008958EE59AE08D
:10491000F9CF81E0089582E008952F923F924F925F
:104920005F926F927F928F929F92AF92BF92CF923F
:10493000DF92EF92FF920F931F93CF93DF93CDB748
:10494000DEB764970FB6F894DEBF0FBECDBFCDB60D
:10495000DEB6DE86CD860E94ED22E0903812F09021
:104960003912FC8AEB8A2DB73EB72E193F090FB6D4
:10497000F8943EBF0FBE2DBF8DB79EB701965C0168
:104980006091341270913512A7010E94685780918E
:10499000ED0E9091EE0E06978E159F05C0F586E5FB
:1049A00092E00E949E1B80E591E00E94431160E02E
:1049B00087E10E944B0989EB0E94391161E087E190
:1049C0000E944B098091B60A81110E941911ED8451
:1049D000FE840FB6F894FEBE0FBEEDBE64960FB611
:1049E000F894DEBF0FBECDBFDF91CF911F910F9125
:1049F000FF90EF90DF90CF90BF90AF909F908F90FF
:104A00007F906F905F904F903F902F9008952DB6BC
:104A10003EB64090DF0E5090E00E6090E10E709038
:104A2000E20E9FEF491A590A690A790AEB88FC8855
:104A3000A6E0EA0EF11C0091EB0E1091EC0EC701FE
:104A4000B8010E942555009709F466C10E0D1F1D7F
:104A5000081B190BEDB7FEB7E01BF10B0FB6F8946E
:104A6000FEBF0FBEEDBF2DB73EB72F5F3F4F4901D1
:104A7000ADB7BEB711964D925D926D927C92149730
:104A8000F901F582E4828DB79EB707964B895C8960
:104A9000B5010E946857A8014E195F0970E060E0F7
:104AA000C4018E0D9F1D0E9471572801712C612C2D
:104AB0004091D70E5091D80E6091D90E7091DA0EB8
:104AC000C090E70ED090E80EE090E90EF090EA0E6C
:104AD000CF86D88AE98AFA8AD301C801840F951F44
:104AE000A61FB71FE091CD0EF091CE0EC816D906C5
:104AF000EA06FB0608F012C15601A41AB50A7801AD
:104B0000EA18FB0885019401CF010E94191264EF95
:104B100071E080E090E00E946A1194012A0D3B1D33
:104B20004091E30E5091E40E6091E50E7091E60E17
:104B300087018091CD0E9091CE0E0E941912809027
:104B4000D70E9090D80EA090D90EB090DA0E80912A
:104B5000DF0E9091E00EA091E10EB091E20E019671
:104B6000A11DB11D8093DF0E9093E00EA093E10E86
:104B7000B093E20EC301B201680D791D8A1D9B1D21
:104B80000E94A2066093D70E7093D80E8093D90E20
:104B90009093DA0E705F8F4F9F4F6627707F992733
:104BA0000E94A2062B013C010E940113811128C022
:104BB000C301B2010E94E211C301B201705F8F4FC5
:104BC0009F4F6627707F99270E94A2066D837E8380
:104BD0008F839887AE014F5F5F4F61E0CE010596EE
:104BE0000E94E813882361F08D819E81AF81B88592
:104BF0008093CF0E9093D00EA093D10EB093D20E8F
:104C00004092DB0E5092DC0E6092DD0E7092DE0E52
:104C10008092D30E9092D40EA092D50EB092D60E62
:104C20008091CF0E9091D00EA091D10EB091D20E66
:104C30000097A048B10540F08092CF0E9092D00E20
:104C4000A092D10EB092D20E0FB6F8943EBE0FBE17
:104C50002DBE8091700A882309F4A5CE6091D30EF1
:104C60007091D40E8091D50E9091D60E0E94B11203
:104C70007C016091D30E7091D40E8091D50E9091ED
:104C8000D60E0E94B1128C01009769F02091EB0EB4
:104C90003091EC0EB9010E942555009721F0020FCA
:104CA000131F081B190B8BE692E00E94301E6091C7
:104CB000DF0E7091E00E8091E10E9091E20E0E9465
:104CC000911B8BE792E00E94301E84E392E10E94E8
:104CD000921A82E892E00E94301ECB88DC88B601EE
:104CE00090E080E04AE00E94B11A8EE892E00E94D3
:104CF000301EB70190E080E04AE00E94B11A8BE9D3
:104D000092E00E94301EB80190E080E04AE00E94EC
:104D1000B11A0E94821A47CE87019CCE9401CF011E
:104D20000CCF2F923F924F925F926F927F928F9211
:104D30009F92AF92BF92CF92DF92EF92FF920F932A
:104D40001F93CF93DF93CDB7DEB7CE5FD1090FB6F8
:104D5000F894DEBF0FBECDBF2DB73EB7CB50DF4FAF
:104D600039832883C55FD0406EED71E084E392E122
:104D70000E9474220E94631864EF71E080E090E06A
:104D80000E94130AC651DF4F1882CA5ED040AE019E
:104D90004F5F5F4F2A011E0159EC250E311C809197
:104DA000430390914403A0914503B0914603C95039
:104DB000DF4F88839983AA83BB83C75FD04020914C
:104DC0004703309148034091490350914A03C5502D
:104DD000DF4F288339834A835B83CB5FD040809148
:104DE000690AC651DF4F3881CA5ED040381708F0D3
:104DF00099C6832E912C01E8089DC001099D900D54
:104E00001124FC01EE5AFD4E4081C151DF4F488311
:104E1000CF5ED0403093630A8C01DC01A958BD4EAF
:104E20007D016DEA72E0CD010E948E57892B09F059
:104E3000B2C081E08093620A64E670E080E090E0B6
:104E40000E94130A9090620A8091630A082F10E072
:104E5000992009F4D3C5C151DF4FB881CF5ED0404E
:104E6000CD52DF4FB883C35DD040CC52DF4F1882A4
:104E7000C45DD040E1E88E9FC00111246DEA72E06C
:104E800089589D4E0E948E5767EB72E0892B11F472
:104E90006BEB72E0CE018C519F4F0E949757BE0181
:104EA0006C517F4FCE018D529F4F0E947857CE019B
:104EB0008D529F4F0E944E1A64EF71E080E090E0A7
:104EC0000E94130A8FEE9EE00E947717843008F448
:104ED00001C52DB73EB7CF50DF4F39832883C15F5F
:104EE000D040C853DF4F1882C85CD040AE01425852
:104EF0005F4F7A0110E000E0B12CC02E8FEE9EE0F3
:104F00000E944817D82E68E070E080E090E00E9490
:104F1000130AD701DD927D01BDE0DB12D2C0EEE7BE
:104F2000F0E0EC0FFD1FE00FF11F10820E94FA0568
:104F3000BC0CCB2CD12C8601015011092DB73EB7EA
:104F40002C193D090FB6F8943EBF0FBE2DBF4DB7CB
:104F50005EB74F5F5F4F7A01A12C882483948EE760
:104F6000782EAB1408F0C7C0EEE7F0E0EC0FFD1FA1
:104F7000E80DF11D8081F701EA0DF11D8B3209F07A
:104F8000B1C07082839465E070E080E090E00E94A0
:104F9000130AA394E6CFC80184589D4E0E944E1A6E
:104FA00064E670E080E090E00E94130A8FEE9EE0DD
:104FB0000E947717181619060CF07AC06DB67EB6E7
:104FC00081E08093620A8FEE9EE00E947717C851BD
:104FD000DF4F8883C85ED0406C01DD24EDB7FEB79B
:104FE000EC19FD090FB6F894FEBF0FBEEDBF0DB76B
:104FF0001EB70F5F1F4FC551DF4F0883CB5ED040F8
:1050000058018A2DC551DF4FF881CB5ED0408F1BF0
:10501000C851DF4F2881C85ED040821740F48FEE20
:105020009EE00E944817D5018D935D01EACF0C0DDB
:105030001D1DF80134978081082E000C990BC09734
:1050400048EE53E0849F9001859F300D949F300D72
:1050500011243093610A2093600A62EB72E0C70169
:105060000E948E57892B71F481E8889DF001899DFB
:10507000F00D1124EE5AFD4E03501109D8018C9108
:10508000805387A70FB6F8947EBE0FBE6DBE6091A9
:10509000600A7091610A072E000C880B990B0E9420
:1050A000130A0E94FA0562E370E080E090E0C8CE47
:1050B00088EE93E09093610A8093600A1092620AEE
:1050C000E6CFEDE2DE1201C0B3946AE070E080E06A
:1050D00090E00E94130A0F5F1F4F0B34110509F077
:1050E0000CCF24CF8D3229F4A3947082F701EA0DFE
:1050F000F11D808347CFF701E00FF11F10828091EF
:10510000700A882349F00E94821A8FEB92E00E9475
:10511000301EC7010E949E1B8091630AA82FB0E039
:10512000C551DF4FB983A883CB5ED04011E8819F82
:10513000F0011124C851DF4FF983E883C85ED040E5
:1051400064ED72E0CF0189589D4E0E948E57C85180
:10515000DF4F28813981C85ED0402D5A3D4E39013C
:10516000892B09F018C34DB75EB7CD50DF4F598377
:105170004883C35FD0408DB79EB78C199D090FB689
:10518000F8949EBF0FBE8DBF0DB71EB70F5F1F4FA8
:105190009E2D802ED801F7018E2F891B8B1518F4B8
:1051A00081918D93F9CFC950DF4F288139814A8190
:1051B0005B81C75FD040C052DF4F288339834A8369
:1051C0005B83C05ED040D8011196EC901197C45219
:1051D000DF4FE882CC5DD04012968C911297C3527B
:1051E000DF4F8883CD5DD0401396FC90C252DF4FD5
:1051F000F882CE5DD040C152DF4F1882CF5DD040E3
:10520000BE0164527F4FCE0180529F4F0E948E5745
:10521000892B01F16EE270E0C8010E948357801B68
:10522000910B823009F451C09927DC011197A00F2E
:10523000B11F2C91F801E80FF91F20830297F801A4
:10524000E80FF91F80818C938EE28083F801EC0DCA
:10525000FD1D10828091700A882359F089ED92E03B
:105260000E94301EC8010E949E1B8AEE92E00E949E
:10527000301E6EE770E0C8010E94AD57801B910B95
:105280008E5F282F30E0C351DF4F39832883CD5EF6
:10529000D040B901615071094DB75EB7421B530B45
:1052A0000FB6F8945EBF0FBE4DBFADB7BEB7119637
:1052B0005D019D01D8019A2F9819981708F042C0F6
:1052C0009D91F90191939F01F6CF2DB73EB7EDB7B0
:1052D000FEB7EC19FD090FB6F894FEBF0FBEEDBF87
:1052E0003196D8018C91ADB7BEB711968C938EE2F2
:1052F000818380E38283E382F48244E0842F90E020
:105300008C159D0568F05E2FC801DF014A2F451BF3
:105310004C151D0488F44D91FC014193CF01F6CF4B
:10532000BF01680F791F800F911FDC018C91DB0199
:1053300011968C934F5FE2CF0FB6F8943EBF0FBE2D
:105340002DBF84CFFB01EA0DFB1D10828091700AF6
:10535000882319F0C5010E949E1B0E94FA0564E192
:1053600070E080E090E00E94130AC151DF4FF881A5
:10537000CF5ED040C253DF4FF883CE5CD040C153E4
:10538000DF4F1882CF5CD040C550DF4F2881398174
:105390004A815B81CB5FD040C852DF4F288339837D
:1053A0004A835B83C85DD040BE0168527F4FCE0107
:1053B00082539F4F0E947857CE0182539F4F0E9485
:1053C0004E1A64EF71E080E090E00E94130A8FEEC5
:1053D0009EE00E947717482F4150550B7A01ADB7D8
:1053E000BEB7A41BB50B0FB6F894BEBF0FBEADBFC2
:1053F0000DB71EB70F5F1F4F863030F1812CC82CC0
:10540000D12CCE14DF0404F58FEE9EE00E944817E5
:105410008D3091F08A3071F0F801EC0DFD1D8B326A
:1054200081F08D3271F080836FE070E080E090E079
:105430000E94130A8394E3CFF801EC0DFD1D108246
:10544000F9CFBEE7B083F6CF8091700A882339F098
:1054500088EF92E00E94301EC8010E949E1B6EE7FA
:1054600070E0C8010E94AD57801B910B282FF801F6
:10547000E80FF11D91E08FEF890F921760F43291E0
:105480003E3749F0322F391BC051DF4F3883C05FA0
:10549000D0409F5FF0CFC82ED12C96012F5F3F4F99
:1054A0004DB75EB7421B530B0FB6F8945EBF0FBEED
:1054B0004DBFADB7BEB711967D01D801C051DF4FCA
:1054C000E881C05FD040AE0FB11D2E2DF7019E2F99
:1054D000921B981718F49D919193F9CFF701EC0D59
:1054E000FD1D108264E670E080E090E00E94130AE7
:1054F0008091700A882369F08BE093E00E94301E4F
:10550000C7010E949E1B64E170E080E090E00E9471
:10551000130AC351DF4F28813981CD5ED040C20EBE
:10552000D31E4DB75EB74C195D090FB6F8945EBF38
:105530000FBE4DBF0DB71EB70F5F1F4F64E170E088
:1055400080E090E00E94130AB501C8010E949757BD
:1055500062E370E080E090E00E94130A8EE7D801D9
:105560008C9362E370E080E090E00E94130AB70140
:10557000C8010E94785762E370E080E090E00E94EA
:10558000130A8091700A882339F089E193E00E9420
:10559000301EC8010E949E1B81E8C551DF4F288143
:1055A0003981CB5ED040829FF001839FF00D1124A2
:1055B000EE5AFD4E20A98091690A8150990BC55180
:1055C000DF4F48815981CB5ED0404817590709F415
:1055D000A1C0222309F47FC01F930F93C851DF4F4E
:1055E00088819981C85ED0408E579D4E9F938F933E
:1055F0007F926F9283E293E09F938F935F924F929B
:105600000E94D2578DB79EB70A960FB6F8949EBFE8
:105610000FBE8DBF8091700A882319F0C2010E94CD
:105620009E1B64E670E080E090E00E94130AB201E5
:1056300084E392E10E949E2162E370E080E090E0CA
:105640000E94130ACD50DF4F48815981C35FD0407B
:105650000FB6F8945EBF0FBE4DBF64E170E080E00E
:1056600090E00E94130ACF50DF4FA881B981C15F3B
:10567000D0400FB6F894BEBF0FBEADBF62E370E07E
:1056800080E090E00E94130A91100BC0B20184E305
:1056900092E10E949E2162E370E080E090E00E942F
:1056A000130A0E94FA0562E370E080E090E00E9435
:1056B000130A64EF71E080E090E00E94130AC65183
:1056C000DF4F5881CA5ED0405F5FC651DF4F5883BD
:1056D000CA5ED04084CB85E0ECE4F3E0D1010190D8
:1056E0000D928A95E1F71F930F933F922F927F922D
:1056F0006F9283E293E09F938F935F924F920E9409
:10570000D257ADB7BEB71A960FB6F894BEBF0FBE4C
:10571000ADBF80CF2223F9F01F930F93C851DF4F05
:1057200088819981C85ED0408E579D4E9F938F93FC
:105730007F926F928CE293E09F938F935F924F9250
:105740000E94D257EDB7FEB73A960FB6F894FEBF57
:105750000FBEEDBF5FCF85E0ECE4F3E0D101019037
:105760000D928A95E1F71F930F933F922F927F92AC
:105770006F928CE293E09F938F935F924F920E947F
:10578000D2572DB73EB7265F3F4F0FB6F8943EBFB6
:105790000FBE2DBF3FCFC551DF4F88819981CB5EB2
:1057A000D040189FF001199FF00D1124EE5AFD4EC4
:1057B00020A98091690A8150990BC551DF4FA881BA
:1057C000B981CB5ED040A817B90709F442C02223A3
:1057D00001F1FF92EF92C851DF4F88819981C85E35
:1057E000D0408E579D4E9F938F937F926F9283E20E
:1057F00093E09F938F935F924F920E94D257EDB7A1
:10580000FEB73A960FB6F894FEBF0FBEEDBF912CCF
:105810002ACF85E0ECE4F3E0D10101900D928A9566
:10582000E1F7FF92EF923F922F927F926F9283E285
:1058300093E09F938F935F924F920E94D2572DB720
:105840003EB7265F3F4F0FB6F8943EBF0FBE2DBF49
:10585000DECF222301F1FF92EF92C851DF4F888102
:105860009981C85ED0408E579D4E9F938F937F92B3
:105870006F928CE293E09F938F935F924F920E947E
:10588000D2574DB75EB7465F5F4F0FB6F8945EBF15
:105890000FBE4DBFBCCF85E0ECE4F3E0D101019039
:1058A0000D928A95E1F7FF92EF923F922F927F92AD
:1058B0006F928CE293E09F938F935F924F920E943E
:1058C000D2578DB79EB70A960FB6F8949EBF0FBEFB
:1058D0008DBF9DCFEDB6FEB686E0EBE4F3E0DE01D2
:1058E000A258BF4F01900D928A95E1F781E8809F01
:1058F000F001819FF00D1124EE5AFD4EC7A48C2DAE
:10590000880F8C0D880FEDB7FEB7E81BF1090FB6B5
:10591000F894FEBF0FBEEDBF0DB71EB70F5F1F4F50
:10592000902EA12EBE0162587F4FC8010E9497574A
:10593000F1E0FC1588F4B12C2C2D2150330B6901BA
:10594000BC141D044CF4BE0162587F4F892D9A2D62
:105950000E947857B394F4CF8091700A882339F06D
:1059600084E393E00E94301EC8010E949E1B609158
:10597000630A31E8639FC00111249C012E573D4EFC
:105980008D5A9D4E4091690A4150550B641715067A
:10599000F1F01F930F933F932F939F938F9383E285
:1059A00093E09F938F935F924F920E94D2574DB78F
:1059B0005EB7465F5F4F0FB6F8945EBF0FBE4DBF38
:1059C0000FB6F894FEBE0FBEEDBE912C57CE1F93BE
:1059D0000F933F932F939F938F938CE293E09F932A
:1059E0008F935F924F920E94D2578DB79EB70A96BF
:1059F0000FB6F8949EBF0FBE8DBFE2CFCDB6DEB618
:105A000086E0EBE4F3E0DE01A258BF4F01900D9277
:105A10008A95E1F781E8809FF001819FF00D1124C4
:105A2000EE5AFD4EE7A48E2D880F8E0D880FADB770
:105A3000BEB7A81BB1090FB6F894BEBF0FBEADBF6D
:105A40000DB71EB70F5F1F4F802EA12EBE016258EB
:105A50007F4FC8010E949757B1E0BE1588F4B12C62
:105A6000EE2DE150FF0B7F01BE141F044CF4BE016C
:105A700062587F4F882D9A2D0E947857B394F4CFA7
:105A80008091700A882339F084E393E00E94301EED
:105A9000C8010E949E1B6091630AF1E86F9FC001DC
:105AA00011249C012E573D4E8D5A9D4E4091690AFE
:105AB0004150550B64171506E9F01F930F933F9360
:105AC0002F939F938F9383E293E09F938F935F92A3
:105AD0004F920E94D2572DB73EB7265F3F4F0FB669
