:100000000C94F8040C94EC3D0C94C13D0C94963D7A
:100010000C946B400C9422050C9422050C948740A0
:100020000C9422050C9422050C9422050C942205B4
:100030000C9422050C94173E0C9422050C94220576
:100040000C9422050C9422050C944C3D0C94220532
:100050000C94173D0C94ED3C0C9422050C94220555
:100060000C9422050C9422050C94473F0C94220515
:100070000C9422050C9422050C9422050C94220564
:100080000C9422050C9422050C94220500407A1051
:10009000F35A00A0724E18090010A5D4E80000E839
:1000A0007648170000E40B54020000CA9A3B000097
:1000B00000E1F505000080969800000040420F0026
:1000C0000000A08601000000102700000000E803E7
:1000D000000000006400000000000A0000000000B2
:1000E0000100000000002C76D888DC674F0823DF71
:1000F000C1DFAE59E1B1B796E5E3E453C63AE65144
:10010000997696E8E6C28426EB898C9B62ED407C6A
:100110006FFCEFBC9C9F40F2BAA56FA5F490055A06
:100120002AF75C936B6CF9676DC11BFCE0E40D472B
:10013000FEF520E6B500D0ED902E0300943577054E
:100140000080841E080000204E0A000000C80C3306
:100150003333330F986E12831141EF8D2114893B95
:10016000E65516CFFEE6DB18D1844B381BF77C1D15
:10017000901DA4BBE424203284725E228100C9F168
:1001800024ECA1E53D276364696E6F707375785840
:100190005B00446F6E65005363616E6E696E67202D
:1001A000666F72205344492D31322073656E736F30
:1001B00072732E2E2E002020696E707574206D696A
:1001C0006E7574653A20002020696E707574206821
:1001D0006F75723A202020002020696E707574209F
:1001E000796561723A202020002020696E70757454
:1001F000206461793A20202020002020696E7075EB
:1002000074206D6F6E74683A202000456E746572BC
:1002100020746865206461746520616E642074696F
:100220006D6520696E20436F6F7264696E617465DD
:100230006420556E6976657273616C2054696D65D2
:100240002028555443293A200020202020456E7450
:100250006572204761746577617920726164696FA6
:100260002049443A200041726520796F75207573EA
:10027000696E67206120476174657761793F204529
:100280006E7465722027792720666F7220796573F6
:100290002C20276E2720666F72206E6F3A20004454
:1002A000656661756C7420726164696F20494420D1
:1002B000616363657074656400526164696F2049AD
:1002C0004420757064617465640020456E746572C5
:1002D000206E657720726164696F2049443A20007E
:1002E00020456E7465722027792720666F72207909
:1002F00065732C20276E2720666F72206E6F3A2060
:1003000000576F756C6420796F75206C696B652080
:10031000746F206368616E67652074686520726120
:1003200064696F2049442066726F6D20746865208F
:1003300064656661756C742076616C75653F004913
:100340006E76616C696420696E74657276616C2E7C
:1003500020456E746572206D6561737572656D659B
:100360006E7420696E74657276616C20286576659E
:1003700072792031302C2031352C2032302C203332
:10038000302C206F72203630206D696E73293A2030
:1003900000456E746572206D6561737572656D657B
:1003A0006E7420696E74657276616C20286576655E
:1003B00072792031302C2031352C2032302C2033F2
:1003C000302C206F72203630206D696E73293A20F0
:1003D000002020456E74657220612050726F6A653E
:1003E00063742049442028757020746F2035206381
:1003F0006861726163746572732C2065783A20506D
:100400005341293A20004578697400456E7465723D
:100410002027792720666F7220796573206F7220FC
:10042000276E2720666F72206E6F3A20004172653A
:1004300020796F75207375726520796F75207761EB
:100440006E7420746F20657261736520616C6C201E
:10045000646174612073746F72656420696E206DCD
:10046000656D6F72793F005072696E7420616C6CBB
:10047000206461746120746F2073637265656E3AE5
:10048000200054657374206D6561737572656D65C8
:100490006E74733A0041726520796F7520737572BE
:1004A0006520796F752077616E7420746F20657296
:1004B0006173653F20456E74657220792F6E3A2016
:1004C000004C61742F6C6F6E672076616C7565737C
:1004D0002077696C6C206170706561722061732097
:1004E0002D39393939393939393920696E207468EB
:1004F00065206461746120737472696E672E0045B3
:1005000052524F523A204C6F6E6769747564652081
:10051000696E636F727265637421004C6F6E6769F8
:10052000747564653A20004552524F523A204C612E
:1005300074697475646520696E636F727265637443
:1005400021004C617469747564653A200053656CD0
:10055000656374206F7074696F6E3A2000202020EC
:1005600030203C2D2D204572617365204C61742F25
:100570004C6F6E672076616C7565730020202031AA
:10058000203C2D2D20456E746572204C61742F4CDB
:100590006F6E672076616C75657300456E74657269
:1005A0002073656E736F7220646570746820696E65
:1005B00020636D2E2055736520272B27206F722016
:1005C000272D2720746F20696E646963617465202C
:1005D00061626F7665206F722062656C6F77207341
:1005E0006F696C20737572666163653A00456E745D
:1005F000657220636F6E66696775726174696F6E8C
:1006000020737472696E673A2000456E74657220BB
:1006100063686F6963653A20002020207820203CC1
:100620002D2D202045786974206D656E7500202081
:10063000206520203C2D2D202045726173652061AE
:100640006C6C2064617461002020207020203C2D9F
:100650002D20205072696E74206461746120746F63
:100660002073637265656E002020207420203C2D6D
:100670002D2020546573742073656E736F72730040
:100680002020206120203C2D2D20204368616E67B2
:1006900065205344492D31322073656E736F72208B
:1006A00061646472657373002020206E20203C2DED
:1006B0002D20205363616E20666F72206465766919
:1006C000636573206F6E205344492D31322062756B
:1006D00073002020206D20203C2D2D202053657498
:1006E000206D6561737572656D656E7420696E74D9
:1006F000657276616C002020207220203C2D2D2018
:10070000204368616E6765204E6F64652072616486
:10071000696F204944002020206720203C2D2D2097
:1007200020456E7465722047617465776179207227
:100730006164696F204944002020206C20203C2DFA
:100740002D2020456E746572206F72206572617372
:1007500065204C61742F4C6F6E672076616C7565F7
:1007600073002020206920203C2D2D2020456E7410
:1007700065722070726F6A6563742049440020209E
:10078000206320203C2D2D202053657420636C6F46
:10079000636B002020206420203C2D2D2020456EFE
:1007A0007465722073656E736F722064657074680F
:1007B00073002020203020203C2D2D2020456E74F9
:1007C000657220636F6E66696775726174696F6EBA
:1007D00020737472696E67004D656E75206F70745A
:1007E000696F6E733A200043757272656E74206291
:1007F00061747465727920766F6C746167653A20F4
:10080000200043757272656E7420646174652026E1
:100810002074696D653A2020004D656173757265BD
:100820006D656E7420496E74657276616C3A200055
:100830004761746577617920526164696F2049442A
:100840003A2000526164696F2049443A20004C61AB
:10085000742F6C6F6E673A200050726F6A65637414
:100860002049443A20004C6F526120526164696F04
:10087000204672657120284D487A293A2000536538
:100880007269616C204E756D6265723A2000566522
:100890007273696F6E2000536F696C2057617465C5
:1008A000722044617461204E6574776F726B202DE5
:1008B00020576972656C657373205344492D31323A
:1008C00020446174616C6F67676572204E6F646568
:1008D0000043757272656E7420616464726573732F
:1008E0003A200072740092740048940078C40000AA
:1008F000002100240027002A0000002200250028F3
:10090000002B000000200023002600290002020224
:1009100002020202020404040404040404030303A4
:1009200003030303030101010101010101010204A9
:1009300008102040800102040810204080010204B9
:1009400008102040800102040810204080000000B0
:10095000010200090A00000000040308070000006B
:10096000000000000000000000000000004552529E
:100970004F523A204C6F6E67697475646520696EDA
:10098000636F727265637421004552524F523A2070
:100990004C6174697475646520696E636F72726509
:1009A000637421004552524F523A20496E76616C71
:1009B000696420696E74657276616C20286576655D
:1009C00072792031302C2031352C2032302C2033DC
:1009D000302C206F72203630206D696E73290070C4
:1009E000726F6A65637449443A2000003F41894749
:1009F00011241FBECFEFD0E4DEBFCDBF17E0A0E0D3
:100A0000B1E0E6EAF7EA00E00BBF02C007900D9202
:100A1000AC31B107D9F722E1ACE1B7E001C01D92DA
:100A2000A130B207E1F714E0C7EFD4E004C021978A
:100A3000FE010E942B4EC63FD107C9F70E9411420A
:100A40000C94C6530C9400004F925F926F927F9269
:100A50008F929F92AF92BF92CF92DF92EF92FF92CE
:100A60000F931F930091860E1091870E2091880E90
:100A70003091890EC090820ED090830EE090840E4B
:100A8000F090850E480159018C189D08AE08BF08EA
:100A900026013701401A510A620A730A601771076A
:100AA0008207930728F0640D751D861D971DF6CFEC
:100AB0006C157D058E059F0528F4680D791D8A1D2E
:100AC0009B1DECCF1F910F91FF90EF90DF90CF9087
:100AD000BF90AF909F908F907F906F905F904F905E
:100AE0000895BF92CF92DF92EF92FF920F931F93E0
:100AF000CF93DF93EC01B62EC880D980EA80FB80CB
:100B000000918A0E10918B0E980150E040E0C701D1
:100B1000B6010E947C4C662391F0862F90E09801EC
:100B2000369527958217930700F1081B190BC00E05
:100B3000D11EE11CF11CC882D982EA82FB82688145
:100B400079818A819B81BB20A9F00E94240568835A
:100B500079838A839B83DF91CF911F910F91FF90BF
:100B6000EF90DF90CF90BF900895C61AD108E108AA
:100B7000F108E1CF0091860E1091870E2091880E2A
:100B80003091890E061717072807390720F70883C1
:100B900019832A833B83DFCFE3E4FCE0A089B1899A
:100BA00082E08C93A485B5851C92A685B78580E1EB
:100BB0008C93108EA489B58986E08C93A289B38921
:100BC0008C9180618C93A289B3898C9188608C937D
:100BD000A289B3898C9180688C930288F389E02D77
:100BE00080818F7D80830895982F2091970B81E0DD
:100BF000213208F043C08091730B8111FCCF8091AA
:100C0000960B32E03093730B9093720B9FEF90939F
:100C1000710B1092700B20936F0BA6E7BBE0EFE413
:100C2000FBE090E0291331C010924E0B90914E0BD7
:100C3000880F892B80934E0B80914D0B813049F5A5
:100C400010924D0B80914E0B8093BB008091BC00A5
:100C500083FDF8CF85EC8093BC008091730B8230CC
:100C6000E1F38091710B8F3FB1F08091710B803275
:100C7000A1F08091710B803391F084E01092750B9C
:100C80001092970B1092740B08953D9131939F5FD2
:100C9000C9CF85EEE0CF80E0F1CF82E0EFCF83E0F7
:100CA000EDCF9091730B9111FCCF91E09093730B6A
:100CB0009093720B2FEF2093710B1092700B260FF5
:100CC00020936F0B90934E0B90914E0B880F892BB6
:100CD00080934E0B80914D0B8130F9F410924D0BA7
:100CE00080914E0B8093BB008091BC0083FDF8CFB8
:100CF00085EC8093BC008091730B8130E1F380918F
:100D0000700B861710F46091700BAFE4BBE0EDE25E
:100D1000FBE080E0861303C0089585EEEACF9D9145
:100D200091938F5FF7CF80919E0E90919F0EDC0183
:100D3000ED91FC910484F585E02D0994FF920F93C9
:100D40001F93CF93DF938C01F62ECEE9DEE08881EE
:100D50009981DC01ED91FC910488F589E02D642FE7
:100D6000099588819981DC01ED91FC910680F781DC
:100D7000E02D4F2DB801DF91CF911F910F91FF9082
:100D8000099408950895E82FF0E0EE0FFF1FEE5E3E
:100D9000FE4F71836083813049F0823071F0809121
:100DA0006900836080936900E89A089580916900E2
:100DB0008C6080936900E99A08958091690080634E
:100DC00080936900EA9A08950895AF92BF92CF92F6
:100DD000DF92EF92FF920F931F93CF93DF936C01FB
:100DE0007B018B01040F151FEB015E01AE18BF08DC
:100DF000C017D10759F06991D601ED91FC9101908E
:100E0000F081E02DC6010995892B79F7C501DF91A5
:100E1000CF911F910F91FF90EF90DF90CF90BF90F7
:100E2000AF900895FC01538D448D252F30E0842F21
:100E300090E0821B930B541718F081509F4F089538
:100E400001970895FC01918D828D981759F0A28D1C
:100E5000AE0FBF2FB11D5D968C91928D9F5F928FCB
:100E600090E008958FEF9FEF0895FC01918D828DA2
:100E7000981731F0828DE80FF11D858D90E008956F
:100E80008FEF9FEF0895FC01918D828D981B892F24
:100E900090E0089583E49CE00E94430721E0892BC1
:100EA00009F420E0822F0895FC01A48DA80FB92F2A
:100EB000B11DA35EBE4F9C91848D8F5F848FA689E8
:100EC000B7899C93A089B1898C91837080648C933D
:100ED000938D848D981306C00288F389E02D80815C
:100EE0008F7D808308950F931F93CF93DF93EC0141
:100EF00081E0888F9B8D8C8D981318C0E889F989C3
:100F0000808185FF13C09FB7F894EE89FF896083C5
:100F1000E889F98980818370806480839FBF81E044
:100F200090E0DF91CF911F910F910895062F1B8DB7
:100F30001F5F8C8D81130CC00FB607FCFACFE889B8
:100F4000F989808185FFF5CFCE010E945407F1CF4A
:100F5000EB8DEC0FFD2FF11DE35EFE4F00839FB77D
:100F6000F8941B8FEA89FB8980818062D6CF682F35
:100F700083E49CE00C9473070F931F93CF93DF934C
:100F80008C01D0E0C0E0F801EC0FFD1F64916623F6
:100F900041F083E49CE00E947307892B11F02196B5
:100FA000F2CFCE01DF91CF911F910F910895CF9392
:100FB000DF93EC01888D8823B9F0AA89BB89E88981
:100FC000F9898C9185FD03C0808186FD0DC00FB627
:100FD00007FCF7CF8C9185FFF2CF808185FFEDCFA5
:100FE000CE010E945407E9CFDF91CF91089580E0B0
:100FF00090E0892B29F00E944A0781110E9400008D
:1010000080E090E0892B49F080E090E0892B29F086
:101010000E94000081110C940000089581508A30D4
:1010200080F5E82FF0E0E95EF74F0C942B4E2B088B
:101030002F082108270841084108320838083C08D1
:101040004208809180008F7780938000089580917E
:1010500080008F7DF9CF84B58F7784BD089584B5E6
:101060008F7DFBCF8091B0008F778093B000089583
:101070008091B0008F7DF9CF809190008F77809321
:1010800090000895809190008F7DF9CFCF93DF93EA
:10109000282F30E0F901E35BF64F8491F901E35D1D
:1010A000F64FD491F901E35FF64FC491CC23A1F040
:1010B00081110E940E08EC2FF0E0EE0FFF1FED5F94
:1010C000F64FA591B491EC91ED2381E090E009F405
:1010D00080E0DF91CF91089580E090E0FACF1F93F8
:1010E000CF93DF93282F30E0F901E35BF64F849133
:1010F000F901E35DF64FD491F901E35FF64FC49136
:10110000CC23A9F0162F81110E940E08EC2FF0E0DD
:10111000EE0FFF1FE750F74FA591B4918FB7F894EA
:10112000EC91111108C0D095DE23DC938FBFDF91C5
:10113000CF911F910895DE2BF8CF10922C0B1092B7
:101140002B0B1092750B1092970B1092730B81E082
:101150008093720B10924D0B61E081E10E946F0849
:1011600061E080E10E946F08E9EBF0E080818E7F12
:10117000808380818D7F808380E28093B80085E4C6
:101180008093BC0081EC96E090933B0A80933A0AEE
:1011900082EC96E09093390A8093380A0895CF93B1
:1011A000DF9390E0FC01E35DF64F2491835F964F5F
:1011B000FC0184918823D1F090E0880F991FFC01F5
:1011C000E151F74FA591B491FC01E750F74FC5915C
:1011D000D49161110EC09FB7F8948C91E22FE095E5
:1011E0008E238C932881E223E8839FBFDF91CF91E8
:1011F00008958FB7F894EC91E22BEC938FBFF6CF64
:101200008851806480937C0080917A008064809310
:101210007A0080917A0086FDFCCF809178009091D1
:10122000790008953FB7F8948091290A90912A0A8D
:10123000A0912B0AB0912C0A26B5A89B05C02F3F80
:1012400019F00196A11DB11D3FBFBA2FA92F982FEC
:101250008827BC01CD01620F711D811D911D43E0E6
:10126000660F771F881F991F4A95D1F708958F92AF
:101270009F92AF92BF92CF92DF92EF92FF926B015B
:101280007C010E9412094B015C01C114D104E104EC
:10129000F104B9F00E941209681979098A099B09B9
:1012A000683E73408105910580F321E0C21AD108A0
:1012B000E108F10888EE880E83E0981EA11CB11C9D
:1012C000E4CFFF90EF90DF90CF90BF90AF909F90D2
:1012D0008F9008952FB7F8946091250A7091260A8F
:1012E0008091270A9091280A2FBF089508958BEFC7
:1012F0000895CF93DF93FC012281338122303105A1
:1013000069F0EC01638D818D0E946F0860E0888D2B
:101310000E946F0882E090E09B838A83DF91CF91E7
:101320000895FF920F931F93CF93DF93EC01162F35
:10133000F42E0FB7F89460E08F890E946F088D89B2
:101340009E89612F6068DC01ED91FC910190F08134
:10135000E02D0995182F8D899E89DC01ED91FC9176
:101360000190F081E02D6F2D099561E08F890E9439
:101370006F080FBF812FDF91CF911F910F91FF90C9
:1013800008950F931F93CF938C01C62F44E06DE413
:101390000E9491094BEF4C0F406869E0C801CF9162
:1013A0001F910F910C949109CF93DF93FC0122813F
:1013B00033812130310549F0EC0140E061E00E94C9
:1013C000910981E090E09B838A8381E0DF91CF9156
:1013D0000895CF93DF93FC012281338122303105C0
:1013E00049F0EC0141E061E00E94910982E090E067
:1013F0009B838A83DF91CF910895CF92DF92EF9202
:10140000FF92CF93DF93EC01CB01BA0120E034E2ED
:1014100044E759E40E94A84B20E034E244E752E458
:101420000E944C4D0E94BE4D6B017C01A7016627B6
:10143000772766E0CE010E94910977276F2D5E2DF8
:101440004D2D67E0CE010E9491094C2D68E0CE0140
:101450000E94910981E0DF91CF91FF90EF90DF90A2
:10146000CF900895CF92DF92EF92FF920F931F9348
:10147000CF93DF934C3F08F067C0142F072FF62E51
:10148000EC01E881F9810484F585E02D0995CE0110
:101490000E94E90940E06DE0CE010E9491094A8571
:1014A00060E0CE010E9491094B8560E0CE010E9470
:1014B00091094C8560E0CE010E9491094D8560E064
:1014C000CE010E949109EFB6F89460E08F890E94E6
:1014D0006F088D899E89DC01ED91FC910190F0816E
:1014E000E02D60E80995CF2CD02E012F015068F037
:1014F0008D899E89F60161916F01DC01ED91FC916E
:101500000190F081E02D0995F1CF61E08F890E9473
:101510006F08EFBE44E0410F62E2CE010E949109E4
:101520008A819B81039771F043E061E0CE010E94C4
:10153000910940E460E4CE010E94910983E090E0CB
:101540009B838A8381E001C080E0DF91CF911F916E
:101550000F91FF90EF90DF90CF900895CF93DF939E
:10156000FC012281338123303105C9F0EC018281F5
:101570009381049771F045E061E0CF010E949109E9
:1015800040E060E4CE010E94910984E090E09B83FA
:101590008A83C65EDE4F8881DF91CF91089580E017
:1015A000FBCF0F931F93CF93DF93EC01162F0FB751
:1015B000F89460E08F890E946F088D899E89DC0114
:1015C000ED91FC910190F081E02D612F09958D89BD
:1015D0009E89DC01ED91FC910190F081E02D60E0AD
:1015E0000995182F61E08F890E946F080FBF812F26
:1015F000DF91CF911F910F910895DF92EF92FF92AB
:101600000F931F93CF93DF93EC0162E10E94D10A05
:101610002A813B8124303105A1F4982F907A89F0FA
:101620008F8598890196988B8F874FEF62E1CE0165
:10163000DF91CF911F910F91FF90EF90DF900C946D
:1016400091092A813B812430310511F486FD0DC0BA
:101650002A813B812330310541F783FFE6CF8B8917
:101660009C8901969C8B8B8B67C063E1CE010E94A5
:10167000D10A082F60E1CE010E94D10A482F6DE007
:10168000CE010E949109DFB6F89460E08F890E9434
:101690006F088D899E89DC01ED91FC910190F081AC
:1016A000E02D60E009957E01BBE1EB0EF11C102FEF
:1016B000115070F08D899E89DC01ED91FC910190B3
:1016C000F081E02D60E00995F70181937F01F0CF73
:1016D00061E08F890E946F08DFBE0A8F4FEF62E1E1
:1016E000CE010E9491096AE1CE010E94D10A895877
:1016F0008E878A8DFE01E65EFE4F8430C8F08B8DAA
:101700008E838C8D8F838D8D88878E8D89878D813B
:10171000811107C09E818C81981719F08E818F3FAF
:1017200039F489899A8901969A8B898B81E0808323
:101730008081882309F479CFCE010E94E90975CF11
:101740008091220A9091230A009711F00C94FD0ACF
:1017500008958091200A9091210A009711F00C942D
:10176000FD0A089580911E0A90911F0A009711F0BA
:101770000C94FD0A0895CF93DF93EC018D899E8927
:10178000DC01ED91FC910680F781E02D099561E087
:101790008F890E94CF0861E08F890E946F0864E6FC
:1017A00070E080E090E00E94370981E0DF91CF9106
:1017B0000895FF920F931F93CF93DF931F92CDB79E
:1017C000DEB7F42E0EE91EE0D8018D919C91DC016C
:1017D000ED91FC91008CF18DE02D0995F80180814F
:1017E0009181DC01ED91FC91028CF38DE02D40E0C4
:1017F00060E8099581E289834F2D61E0CE01019671
:101800000E949E060E9493060F90DF91CF911F9138
:101810000F91FF9008952F923F924F925F926F9297
:101820007F928F929F92AF92BF92CF92DF92EF9270
:10183000FF920F931F93CF93DF938C015B016A019B
:1018400019010E946A092B013C01F12CE12C0E9434
:101850006A0964197509860997096C157D058E0555
:101860009F0508F078C080919E0E90919F0EDC013C
:10187000ED91FC910280F381E02D0995882339F3E5
:1018800080919E0E90919F0EDC01ED91FC91048061
:10189000F581E02DA501B8010995C82F8823B9F27B
:1018A00080919E0E90919F0EDC01ED91FC9100A025
:1018B000F1A1E02D0995D82F80919E0E90919F0E59
:1018C000DC01ED91FC91068CF78DE02D0995882EB9
:1018D00080919E0E90919F0EDC01ED91FC9102A0F3
:1018E000F3A1E02D0995982E80919E0E90919F0E68
:1018F000DC01ED91FC9104A0F5A1E02D099587FD97
:10190000A6CFBFEF8B1631F04D2F692D8EE99EE0EB
:101910000E94D90BED2FF0E0E256F14FDF011B964C
:101920008385891509F493CFF101D0839C928C2F84
:10193000DF91CF911F910F91FF90EF90DF90CF90AB
:10194000BF90AF909F908F907F906F905F904F90DF
:101950003F902F900895C0E0EACF9FB7F894809110
:101960001C0A882319F0815080931C0A80911C0A5C
:10197000811105C08CB58F7B8CBD10921B0A9FBF57
:1019800008958CB58F778CBD08958CB580688CBD1B
:101990000895FC01738362830895FC017783668355
:1019A0000895FC0175836483089580E00895FC0127
:1019B00081850895FC0180850895FC018781089543
:1019C000FC01868108954095FC0125854223642B06
:1019D00065870895FC0164870895FC016387089575
:1019E000FC0162870895FC0164830895FC0165830E
:1019F00008958F929F92AF92BF92CF92DF92EF9213
:101A0000FF92CF93DF93EC016B010E946A094B01B7
:101A10005C01F12CE12C0E946A09681979098A0994
:101A20009B096C157D058E059F0580F48A819B813D
:101A3000039789F381E0DF91CF91FF90EF90DF90E2
:101A4000CF90BF90AF909F908F90089580E0F3CF9C
:101A5000FC012281338123303105D1F381E00895E7
:101A60008F929F92AF92BF92CF92DF92EF92FF92AE
:101A7000CF93DF93EC016B010E946A094B015C017B
:101A8000F12CE12C0E946A09681979098A099B09DD
:101A90006C157D058E059F05A0F4E881F981028013
:101AA000F381E02DCE010995882361F3DF91CF9179
:101AB000FF90EF90DF90CF90BF90AF909F908F906E
:101AC000089580E0F3CFCF93DF93EC01E881F981B3
:101AD0000280F381E02DCE0109958823B9F3DF91CF
:101AE000CF91089581E008951F93CF93DF93EC0188
:101AF000162F88819981DC01ED91FC910288F38990
:101B0000E02D099588819981DC01ED91FC91068891
:101B1000F789E02D612F09951A83DF91CF911F91ED
:101B20000895CF92DF92EF92FF920F931F93CF937E
:101B30006B017C01142F80919E0E90919F0EDC0111
:101B4000ED91FC910190F081E02D0995C82F88233B
:101B500009F16091A00E8EE99EE00E94740D88E765
:101B600090E09093A70E8093A60E83E08093A80E3A
:101B7000612F8EE99EE00E94740D00919E0E1091DF
:101B80009F0EB701A601C8010E94FD0961E1C801CD
:101B90000E94C1098C2FCF911F910F91FF90EF9060
:101BA000DF90CF900895282F30E094E03595279569
:101BB0009A95E1F7922F990F990F291B220F820F07
:101BC000089585ED8093BC008091BC0084FDFCCF1E
:101BD0001092730B08952091F809260F3327331FB5
:101BE00021323105ECF42091730BFC0190E080E090
:101BF000243069F082E00895A091F8092191AC01A8
:101C00004852564FA40FB52FB11D2C93019686173D
:101C100098F38091F809680F6093F80980E00895BF
:101C200081E008950895E0912C0B80912B0BE8172B
:101C300030F4F0E0E35DF44F808190E008958FEFA1
:101C40009FEF089590912C0B80912B0B2FEF3FEF7E
:101C5000981748F4E92FF0E0E35DF44F208130E07D
:101C60009F5F90932C0BC901089580912B0B90914D
:101C70002C0B891B990B0895CF92DF92EF92FF9264
:101C80000F931F93CF93DF937C01CB018A012091A7
:101C9000740B222389F0EB016B01C40ED51ECC1509
:101CA000DD0569F06991D701ED91FC910190F0811A
:101CB000E02DC7010995F3CF642F0E94EB0DC801F9
:101CC000DF91CF911F910F91FF90EF90DF90CF9018
:101CD0000895CF93DF931F92CDB7DEB7698320912C
:101CE000740B2223F9F02091970B203258F021E059
:101CF00030E0FC013383228390E080E00F90DF919D
:101D0000CF9108958091750BE82FF0E0EA58F44FD9
:101D1000998190838F5F8093750B8093970B81E0FF
:101D200090E0ECCF61E0CE0101960E94EB0DF7CF81
:101D3000CF93C62F91E09093740B98E69093960BF7
:101D40001092750B1092970B682F80E69EE00E9410
:101D5000690E6C2F80E69EE00E94690E81E0CF91B3
:101D60000C94F405CF93CFB7F89480911C0A81119D
:101D700027C0E1E1F9E08491E1E3F9E09491E82FF3
:101D8000F0E0EE0FFF1FE151F74FA591B491EC91F8
:101D9000E92321F461E084E00E946F0861E084E0BF
:101DA0000E94CF088CB580618CBD8CB580648CBDE1
:101DB00061E087E00E94CF0861E085E00E94CF08E3
:101DC00080911C0A8F5F80931C0ACFBFCF9108952A
:101DD000FC01268137812115310591F12130310532
:101DE00059F12230310551F12330310549F52CE00C
:101DF0009CB5937F922B9CBD84819581019711F5B1
:101E00008CB580628CBD828193810197843091056D
:101E1000E0F4835D9E4FFC0190818CB58C7F292F6F
:101E20002370822B8CBD8DB592FB992790F98E7F04
:101E3000892B8DBD0C94B20E24E0DACF28E0D8CFE8
:101E400020E0D6CF8CB58F7DDDCF95E0E6CFCF9269
:101E5000DF92EF92FF92CF93DF9360E08DE10E94DB
:101E6000CF088DE10E940009B0E0A0E0BC01CD01E7
:101E7000660F771F881F991F0E94474B23E333E3A8
:101E800043E550E40E94A84B20E030E048EC52E4E7
:101E90000E94A84B20E030E84FEF53E40E94E04C52
:101EA00020E030EC4FE754E40E944C4D0E94BE4DC0
:101EB000CB0164E670E00E94034EEB01BC0190E0B0
:101EC00080E00E94474B20E030E048EC52E40E9462
:101ED0004C4D6B017C01BE0190E080E00E94474BBD
:101EE0009B01AC01C701B6010E94E04CDF91CF918C
:101EF000FF90EF90DF90CF900895CF92DF92EF9216
:101F0000FF92CF93DF9361E08EE00E94CF0860E004
:101F100088E10E94CF0861E08EE00E946F0884EEA5
:101F200093E00197F1F788E10E940009EC0160E07D
:101F30008EE00E946F08BE0190E080E022E0660F14
:101F4000771F881F991F2A95D1F70E94474B23E3DB
:101F500033E343E550E40E94A84B20E030E048EC36
:101F600052E40E94A84B20E030EC4FEB54E40E9476
:101F7000E04C20E030ED4FE355E40E944C4D0E94D0
:101F8000BE4DCB0164E670E00E94034EEB01BC0144
:101F900090E080E00E94474B20E030E048EC52E4C3
:101FA0000E944C4D6B017C01BE0190E080E00E94DC
:101FB000474B9B01AC01C701B6010E94E04CDF9189
:101FC000CF91FF90EF90DF90CF90089583E49CE055
:101FD0000E94D707E3E4FCE0A289B3898C918F7E4D
:101FE0008C93A289B3898C91877F8C93A289B389C2
:101FF0008C918F778C93A289B3898C918F7D8C93F0
:10200000828D818F60E08FE00E946F0860E080E049
:102010000E946F0860E081E00E946F0882EB90E10F
:102020000E94D40980B78F7780BFEAE7F0E0808113
:102030008F778083F89485B7806885BF85B780687F
:1020400085BF789483B7817F846083BF83B78160C5
:1020500083BF7894ABE6B0E08C9184608C93A8E663
:10206000B0E08C9181608C9383B7816083BF889549
:1020700083B78E7F83BF8081806880830E94CC0578
:102080000E94B20E61E080E00E946F0861E081E092
:102090000C946F080F931F93CF93DF93FB01408144
:1020A000FC019C012C5D3F4F80E08B010C5F1F4FBA
:1020B000919194130BC0DB011196EF0199918D91D1
:1020C00098130CC0A017B107C9F781E0E217F30716
:1020D00079F7DF91CF911F910F91089580E0F6CFAE
:1020E000E6E6F7E09191981731F097E0E737F907C6
:1020F000C9F780E0089581E00895E6E6F7E030E072
:1021000020E09191911105C02A59384FF90180833F
:1021100008952F5F3F4F2131310599F70895809140
:102120001B0A882361F09FB7F89420911B0A8091C5
:102130006107213019F48DBB9FBF08958FBF0895AB
:10214000CF93DF93EC0161E088810E946F080E94C9
:102150008F108B818CBD8C818DBDDF91CF910895C7
:102160008EBD00000DB407FEFDCF8EB50895862FFD
:102170000C94B01020911B0A222361F02FB7F89421
:1021800030911B0A313049F43DB3309361073DB3C0
:102190003DBB2FBF8CBD9DBD089520936107FACF35
:1021A00080E591E00E94BA1060E087E10E946F082C
:1021B00089EB0E94B01061E087E10E946F080C94E7
:1021C0008F10CF93DF93EC018CB58B838DB58C830F
:1021D0008D819E810E94BA1060E08881DF91CF914D
:1021E0000C946F088F929F92AF92BF92CF92DF9222
:1021F000EF92FF920F931F93CF93DF934B015C01FC
:1022000028E833E140E050E00E947C4C2A3131055F
:1022100010F029E130E06901F12CE12CC501B40195
:10222000A7010E947C4C8901D0E0C0E0C017D10713
:10223000C8F4A0906C0EB0906D0EC5010E94E11024
:1022400085E00E94B01080E00E94B010982EC50179
:102250000E94A01090FE14C0C701B6010E94370969
:102260002196E4CF80E0DF91CF911F910F91FF90F5
:10227000EF90DF90CF90BF90AF909F908F90089598
:1022800081E0F1CF0F931F93CF93DF93EC01162FD3
:10229000442339F040E066E00E944211CE010E94E2
:1022A000A010CE010E94E11085E00E94B01080E0F5
:1022B0000E94B010082FCE010E94A01000FDF1CFA7
:1022C000CE010E94E110812FDF91CF911F910F91DC
:1022D0000C94B010CF92DF92EF92FF92CF93DF93E6
:1022E0006B017C01C42F68EE73E080E090E00E94F7
:1022F000F2108823E9F18091820E9091830EA091D3
:10230000840EB091850EC816D906EA06FB0678F051
:102310008091860E9091870EA091880EB091890EC3
:10232000C816D906EA06FB0610F4CC2309F1C091C1
:102330006C0ED0916D0E41E060E2CE010E94421120
:102340008E2D0E94B0108D2D0E94B0108C2D0E94F9
:10235000B010CE010E94A01068EE73E080E090E023
:10236000DF91CF91FF90EF90DF90CF900C94F2101F
:1023700080E0DF91CF91FF90EF90DF90CF900895B4
:102380002F923F924F925F926F927F928F929F9285
:10239000AF92BF92CF92DF92EF92FF920F931F9373
:1023A000CF93DF936C012A013B0119019A01332776
:1023B00080E091E0821B930B912C812C011511057B
:1023C00081F1E8018017910708F4EC0141E062E037
:1023D000C6010E944211862D0E94B010852D0E94D8
:1023E000B010842D0E94B0105101A80CB91C7501C9
:1023F000F70181917F010E94B010C7018A199B09E2
:102400008C179D07A8F3C6010E94A0104C0E5D1EFC
:10241000611C711C8C0E9D1E0C1B1D0B80E091E03D
:10242000CDCFDF91CF911F910F91FF90EF90DF9073
:10243000CF90BF90AF909F908F907F906F905F9064
:102440004F903F902F900895BF92CF92DF92EF92DE
:10245000FF920F931F93CF93DF937C01EA01B62E77
:10246000690140E06BE00E9442118B2D0E94B01088
:102470008D2F0E94B0108C2F0E94B01080E00E941F
:10248000B010E6010C0D1D1DC017D10729F080E02A
:102490000E94B0108993F8CFC701DF91CF911F91AF
:1024A0000F91FF90EF90DF90CF90BF900C94A01011
:1024B0000F931F93CF93DF9300D0CDB7DEB7AB015F
:1024C000BC014C5F5F4F6F4F7F4F02E010E09E01F9
:1024D0002F5F3F4F80916C0E90916D0E0E942412E1
:1024E00020918C0E30918D0E89819A8128173907A1
:1024F00010F41A82198289819A810F900F90DF91CE
:10250000CF911F910F910895CF92DF92EF92FF929A
:102510006B017C010E9458129C01009769F0E091C8
:102520008A0EF0918B0EBF010E94034E009721F09E
:102530002E0F3F1F281B390BC701B601620F731FF7
:10254000811D911DFF90EF90DF90CF900C9424059A
:102550000F931F93CF93DF93CDB7DEB760970FB67E
:10256000F894DEBF0FBECDBFAB01BC0100E110E0AF
:102570009E012F5F3F4F80916C0E90916D0E0E94D7
:102580002412FE013196CE01419621912F3F79F41C
:10259000E817F907D1F781E060960FB6F894DEBF2F
:1025A0000FBECDBFDF91CF911F910F91089580E0B5
:1025B000F3CF4F925F926F927F92AF92BF92CF9282
:1025C000DF92EF92FF920F931F93CF93DF93CDB7DC
:1025D000DEB72C970FB6F894DEBF0FBECDBF6B01F0
:1025E0007C015A01FA01108211821282138204E0E6
:1025F00010E09A01BC01A60180916C0E90916D0EC5
:102600000E942412F50180819181A281B3818F3FC4
:102610009F4FAF4FBF4F79F019861A861B861C86D5
:10262000C701B6010E9484122B013C01C414D504D9
:10263000E604F70411F480E054C004E010E09E01C9
:10264000275F3F4FBC01A20180916C0E90916D0EEF
:102650000E94241249855A856B857C85F50180810D
:102660009181A281B3810196A11DB11D84179507A7
:10267000A607B70709F451C04F3F5F4F6F4F7F4F19
:10268000D1F6C301B2010E94A8128823A1F2809161
:102690008A0E90918B0EC81AD90AE108F108CD82F2
:1026A000DE82EF82F886AE014F5F5F4F6FEFCE01A3
:1026B00005960E948F13882349F149815A816B81C5
:1026C0007C814F5F5F4F6F4F7F4F81E0F501C0808E
:1026D000D180E280F3804C155D056E057F0509F021
:1026E000AACF2C960FB6F894DEBF0FBECDBFDF91F8
:1026F000CF911F910F91FF90EF90DF90CF90BF90FF
:10270000AF907F906F905F904F9008956D817E8124
:102710008F8198850E94A812E4CF81E0E2CFCF920A
:10272000DF92EF92FF920F931F93CF93DF93EC0111
:10273000D62E7A01688179818A819B810E94A812B4
:10274000CC24C39410E000E0882391F08FEF9FEF3A
:10275000DC01F70180839183A283B38380E0DF9162
:10276000CF911F910F91FF90EF90DF90CF90089540
:10277000688179818A819B81A7010E94D912811188
:10278000EECFCC20D9F061E0CE010E9471056881C6
:1027900079818A819B810E94A812C82E8111D6CF8F
:1027A00080918C0E90918D0E60918A0E70918B0E9F
:1027B0000E94034E60177107D8F6C8CF88819981AF
:1027C000AA81BB8140918A0E50918B0E70E060E02F
:1027D0001D14ACF0841B950BA60BB70B8883998353
:1027E000AA83BB83688179818A819B810E942405A9
:1027F000688379838A839B830F5F1F4FC8CF840FC1
:10280000951FA61FB71FEACF2F923F924F925F925C
:102810006F927F928F929F92AF92BF92CF92DF92F0
:10282000EF92FF920F931F93CF93DF93CDB7DEB755
:102830002E970FB6F894DEBF0FBECDBF8C016D870B
:10284000FC0160817181828193810E94A81288239A
:10285000C9F0F80180809180A280B380FD85F130BD
:1028600009F4F5C08091820E9091830EA091840EA0
:10287000B091850E75016401C81AD90AEA0AFB0AEB
:102880007D84F3C020918A0E30918B0E8091860E4C
:102890009091870EA091880EB091890E821B930BA8
:1028A000A109B109F80180839183A283B383AE01AA
:1028B000475F5F4F6FEFC8010E948F1381110BC0FC
:1028C000F80160817181828193810E94A812811137
:1028D000C0CF612C22C18091820E9091830EA09175
:1028E000840EB091850EF80180839183A283B38317
:1028F000AE014B5F5F4F61E0C8010E948F13F8018A
:102900006081718122819381811102C0822FDDCF8C
:102910004D805E806F8078846B01E22EF92E80906E
:10292000860E9090870EA090880EB090890E8C181D
:102930009D08AE08BF0822E9222E332433948091EB
:102940008A0E90918B0EB0E0A0E088159905AA053B
:10295000BB0520F4B694A79497948794FFEF3F1299
:1029600052C0C814D904EA04FB0408F04CC080919A
:10297000860E9091870EA091880EB091890E40919D
:10298000820E5091830E6091840E7091850E841B8F
:10299000950BA60BB70B8C0D9D1DAE1DBF1D6C01BD
:1029A0007D01C818D908EA08FB08F801C082D18265
:1029B000E282F38260E0C8010E947105F801608143
:1029C0007181828193810E94A812811142CFAE0150
:1029D0004F5F5F4F632DC8010E948F13882341F121
:1029E00089819A81AB81BC81F1E03F1219C0481600
:1029F00059066A067B0640F52A94222009F469CF1D
:102A00002C013D019CCFA32D032C000CBB0BA50179
:102A100094010E94C84CC60ED71EE81EF91EC5CFF1
:102A200084159505A605B70538F333243394E4CF10
:102A3000F80160817181828193810E94A8128111C5
:102A400008CFD301C201D8CF33243A94D5CFC09058
:102A5000860ED090870EE090880EF090890EC818F0
:102A6000D908EA08FB0877247394F2E9FE87F80195
:102A700060817181828193810E94A8128111C7C0F7
:102A8000F8012080318042805380C201B101662765
:102A9000707F99277051810991090E9424050E9435
:102AA000A812682E8823E9F0C201B1010E94A81281
:102AB000811117C0FD85F130A1F4F8018081918169
:102AC000A281B3818827907FBB2780839183A283D3
:102AD000B383AE014F5F5F4F61E0C8010E948F1367
:102AE0001CC0AE014B5F5F4F672DC8010E948F1362
:102AF000F8014081518162817381882309F47EC08D
:102B0000FD85FF3F21F5CB01BA010E9484120E948E
:102B1000A812682E882309F47EC0862D2E960FB643
:102B2000F894DEBF0FBECDBFDF91CF911F910F9103
:102B3000FF90EF90DF90CF90BF90AF909F908F90DD
:102B40007F906F905F904F903F902F90089580916D
:102B50008A0E90918B0E2A013B01481A590A61088E
:102B60007108C301B2010E94A812682E8111B1CF71
:102B700077247A9480918A0E90918B0EB0E0A0E039
:102B80008C159D05AE05BF0520F4F694E794D79407
:102B9000C7948FEF781242C08C149D04AE04BF041A
:102BA000E8F58091860E9091870EA091880EB091E5
:102BB000890E4091820E5091830E6091840E709127
:102BC000850E841B950BA60BB70B880D991DAA1DAE
:102BD000BB1D4C015D018C189D08AE08BF08F801B3
:102BE00080829182A282B38260E0C8010E94710556
:102BF000FE85F150FE87F1113ACF6BCECB01BA01C1
:102C00000E94A812882309F4B5CF7194B3CF2D8503
:102C10002F3F09F4ADCF77247394ACCFA72D072CA9
:102C2000000CBB0BA70196010E94C84C860E971E94
:102C3000A81EB91ED4CFCF93DF9300D000D0CDB75C
:102C4000DEB7AE014F5F5F4F0E94D912882359F063
:102C500069817A818B819C810F900F900F900F90EA
:102C6000DF91CF9108956FEF7FEFCB01F5CFEF921A
:102C7000FF920F931F93CF93DF938C01C62FF8948D
:102C8000F090B20061E0FC0184850E946F089C2FE7
:102C900080E031E0992329F083272FEF290F922339
:102CA000F9CFF0E88F9FC0011124C82B80E8D9E04C
:102CB000982F9C2319F0D1508695FACF8091B200BD
:102CC0008F198A31D8F3F090B200EE24E394F80122
:102CD0008485ED1678F460E0C0FF61E00E946F0823
:102CE0008091B2008F198A31D8F3F090B200C69566
:102CF000E394EDCF60E00E946F0878948AE090E062
:102D00008D1B91099AE1899F802D11249091B20029
:102D10009F199817D8F3DF91CF911F910F91FF90D2
:102D2000EF900895FC0115869091830780918407A8
:102D3000981789F0E0918307F0E0E45EF84F808116
:102D40002091830730E02F5F3F4F2F73332720936D
:102D5000830790E008958FEF9FEF08959091830788
:102D600080918407981741F0E0918307F0E0E45EDA
:102D7000F84F808190E008958FEF9FEF0895FC0158
:102D8000858581110EC0809184072091830790E092
:102D9000805C9F4F821B910960E470E00E94174E97
:102DA00008958FEF9FEF089590E080E00895DC0193
:102DB0001C969C911C97ECE6F0E0983050F0E3E70D
:102DC000F0E0903130F0EBE6F0E0983110F4EDE611
:102DD000F0E08081977021E030E001C0220F9A95E9
:102DE000EAF72095282320831C968C91ECE6F0E0EE
:102DF000883050F0E3E7F0E0803130F0EBE6F0E0CF
:102E0000883110F4EDE6F0E09081911110C0F0E00F
:102E1000E0E0803210F4E8E6F0E09081883040F0A5
:102E2000803140F0883140F08EEF8923808308950F
:102E30008DEFFBCF87EFF9CF8BEFF7CFCF93DF93FA
:102E4000EC016330710521F164307105E1F162300C
:102E5000710509F05FC060E083E00E94CF0861E087
:102E600083E00E94CF0861E083E00E946F0860E089
:102E70008C850E94CF0861E08C850E94CF0860E0BD
:102E80008C850E946F08CE01DF91CF910C94D716EC
:102E900060E083E00E94CF0861E083E00E94CF08F9
:102EA00061E083E00E946F0862E070E080E090E003
:102EB0000E94370960E08C850E94CF0861E08C8514
:102EC0000E94CF08E0CF61E083E00E94CF0860E07D
:102ED00083E00E946F0862E070E080E090E00E9472
:102EE000370960E08C850E946F0860E08C850E9445
:102EF000CF08789480916800886080936800809102
:102F000073008460809373008FEF80936007DF917C
:102F1000CF91089561E083E00E94CF0861E083E0F3
:102F20000E946F0860E08C850E946F0860E0C7CF48
:102F300070E060E08EE89EE00E941E171092420C46
:102F40001092410C8091400C8093B00080913F0C16
:102F50008093B10008958091410C9091420C8E585D
:102F60009E4061F062E070E08EE89EE00E941E17D5
:102F70008EE89EE09093420C8093410C86E990E0AD
:102F8000A0E0B0E08093920E9093930EA093940EE5
:102F9000B093950E81EF98ED90939D0E80939C0ECB
:102FA0008091B0008093400C8091B10080933F0CE1
:102FB0001092B00086E08093B10008950F931F93A4
:102FC000CF93DF938C0163E070E08EE89EE00E9477
:102FD0001E1761E080919A0E0E946F088CE895E6BA
:102FE0000197F1F760E080919A0E0E946F088CE4DF
:102FF00096E40197F1F7D0E0C0E0D80114968D91E6
:103000009C911597C817D90790F4ED91FC913097D2
:1030100059F410923E0CEEE3FCE060818EE89EE0F5
:103020000E9437162196E9CFEC0FFD1FF6CF64E022
:1030300070E08EE89EE0DF91CF911F910F910C948C
:103040001E171F93CF93DF93EC01162F63E070E000
:103050000E941E17612FCE010E94371664E070E0B7
:10306000CE010E941E1781E090E0DF91CF911F9169
:10307000089581E08093740B88E68093960B1092FC
:10308000750B1092970B60E080E69EE00E94690E3F
:1030900081E00E94F405811142C067E088E60E9449
:1030A000510610922C0B80932B0B80E69EE00E9421
:1030B000220E8F770E94D30D8093240B80E69EE032
:1030C0000E94220E0E94D30D8093250B80E69EE085
:1030D0000E94220E8F7B0E94D30D8093260B80E6E8
:1030E0009EE00E94220E8093270B80E69EE00E94C5
:1030F000220E0E94D30D8093280B80E69EE00E9452
:10310000220E8F770E94D30D8093290B80E69EE0DC
:103110000E94220E0E94D30D825E80932A0B809122
:10312000240B8093CF098091250B8093300A8091E6
:10313000260B8093D0098091280B8093D30980912E
:10314000290B8093D40980912A0B90E08E54984FDC
:103150009093D2098093D10962E370E080E090E01F
:103160000C943709CF9391E09093740B98E6909369
:10317000960B1092750B1092970B682F80E69EE0CD
:103180000E94690E81E00E94F40581110DC061E08A
:1031900088E60E94510610922C0B80932B0B80E640
:1031A0009EE00E94220EC82F8C2FCF9108951F936E
:1031B000CF93DF9381E08093740B88E68093960B26
:1031C0001092750B1092970B60E080E69EE00E94D3
:1031D000690EC4E2DBE028811AE0822F612F0E9491
:1031E000F74D682F660F680F660F620F80E69EE04E
:1031F0000E94690E2981822F612F0E94F74D682F4E
:10320000660F680F660F620F80E69EE00E94690EEF
:103210002A81822F612F0E94F74D682F660F680F59
:10322000660F620F80E69EE00E94690E6B8180E669
:103230009EE00E94690E2C81822F612F0E94F74D23
:10324000682F660F680F660F620F80E69EE00E948F
:10325000690E2D81822F612F0E94F74D682F660F16
:10326000680F660F620F80E69EE00E94690E2E8155
:103270002E51822F612F0E94F74D682F660F680F25
:10328000660F620F80E69EE00E94690E81E00E9458
:10329000F405C82F8FE00E94B218682F6F778FE077
:1032A0000E94980E8C2FDF91CF911F910895CF939C
:1032B000DF93C82F8FE00E94B218C150DD0B21E0D0
:1032C00030E001C0220FCA95EAF7982F922351F0FF
:1032D0002095622F68238FE00E94980E81E0DF9195
:1032E000CF91089580E0FBCFFC0101900020E9F729
:1032F0003197AF01481B590BBC0183E49CE00C944F
:10330000E5068DEB91E00C947419CF93DF93FC01EB
:10331000448155816081718183E49CE00E94E506CF
:10332000EC010E9481198C0F9D1FDF91CF910895B0
:10333000CF93DF930E94BC07EC010E9481198C0F90
:103340009D1FDF91CF910895CF93DF930E94B70720
:10335000EC010E9481198C0F9D1FDF91CF91089580
:103360008F929F92AF92BF920F931F93CF93DF9351
:10337000CDB7DEB7A1970FB6F894DEBF0FBECDBFB5
:1033800019A2423008F44AE08E010F5D1F4F842ECF
:10339000912CB12CA12CA50194010E947C4CE62F0C
:1033A000B901CA01EA30F4F4E05DD801EE938D0171
:1033B000232B242B252B79F790E080E0109719F030
:1033C000CD010E947419A1960FB6F894DEBF0FBE0E
:1033D000CDBFDF91CF911F910F91BF90AF909F9084
:1033E0008F900895E95CE1CF682F70E090E080E075
:1033F0004AE00C94B019CF93DF930E94F419EC01CA
:103400000E9481198C0F9D1FDF91CF910895CF925B
:10341000DF92EF92FF92CF93DF9397FF19C06B017A
:103420007C018DE20E94B707EC0166277727CB016C
:103430006C197D098E099F094AE00E94B0198C0F12
:103440009D1FDF91CF91FF90EF90DF90CF90089577
:103450004AE0DF91CF91FF90EF90DF90CF900C94F6
:10346000B019CF92DF92EF92FF92CF93DF930E9439
:103470006A096B017C0120E1C20E27E2D21EE11C29
:10348000F11C1092D7091092D6090E946A096C1596
:103490007D058E059F0560F583E49CE00E9443074F
:1034A0001816190694F764E670E080E090E00E9438
:1034B000370983E49CE00E944307D82EC1E0DAE09C
:1034C000E090D609F090D709DC1690F083E49CE0F8
:1034D0000E942207DE9D9001DF9D300D1124C097D0
:1034E000280F391F3093D7092093D609CF5FE8CF33
:1034F0006091D6097091D709072E000C880B990BA3
:103500000E94071A0E9481196AE070E080E090E052
:10351000DF91CF91FF90EF90DF90CF900C9437091F
:10352000CF93DF934AE00E94B019EC010E94811909
:103530008C0F9D1FDF91CF910895CF93DF93D0E043
:10354000C0E0009719F00E947419EC010E948119E3
:103550008C0F9D1FDF91CF9108958F929F92AF9214
:10356000BF92CF92DF92EF92FF921F93CF93DF93A0
:10357000CDB7DEB764970FB6F894DEBF0FBECDBFF0
:103580006B017C0149015A0168E873E180E090E039
:103590000E94F210182F882309F410C2C092820EE4
:1035A000D092830EE092840EF092850E8092860E69
:1035B0009092870EA092880EB092890E80E290E0E1
:1035C00090938B0E80938A0E80E090E190938D0E05
:1035D00080938C0EF8948FEF9FEFDC0180936E0E3A
:1035E00090936F0EA093700EB093710E8093720E35
:1035F0009093730EA093740EB093750E8093760E15
:103600009093770EA093780EB093790E80937A0EF4
:1036100090937B0EA0937C0EB0937D0E6091820EF2
:103620007091830E8091840E9091850E0E94A81255
:10363000882309F4C0C08090820E9090830EA090E1
:10364000840EB090850E6091860E7091870E8091E9
:10365000880E9091890E681979098A099B099695B7
:10366000879577956795680D791D8A1D9B1D0E942A
:10367000A812882309F49FC08091820E9091830E36
:10368000A091840EB091850E898B9A8BAB8BBC8BED
:103690008D879E87AF87B88B69897A898B899C894A
:1036A0006093720E7093730E8093740E9093750EE8
:1036B000CD84DE84EF84F888C0926E0ED0926F0EB7
:1036C000E092700EF092710E0E9484126093760E5A
:1036D0007093770E8093780E9093790E6B017C0136
:1036E000CC2420EFD222FF246C157D058E059F058A
:1036F00009F0A6C160937A0E70937B0E80937C0EC6
:1037000090937D0E60917A0E70917B0E80917C0E6D
:1037100090917D0E0E94240560937A0E70937B0E2B
:1037200080937C0E90937D0E8091720E9091730E1B
:10373000A091740EB091750E0097A048B10508F4E1
:1037400086C110927E0E10927F0E1092800E109203
:10375000810E789480EC91E00E949D1A0E9481195C
:1037600060916E0E70916F0E8091700E9091710E3F
:103770000E941B166091720E7091730E8091740EF0
:103780009091750E0E941B1683E49CE00E94D7075F
:10379000812F64960FB6F894DEBF0FBECDBFDF91C8
:1037A000CF911F91FF90EF90DF90CF90BF90AF909F
:1037B0009F908F9008958091820E9091830EA0919A
:1037C000840EB091850E898B9A8BAB8BBC8BAE012E
:1037D0004B5F5F4F6FEFCE0141960E948F138111B7
:1037E0001DC08091820E9091830EA091840EB091A5
:1037F000850E898B9A8BAB8BBC8BAE014B5F5F4F79
:1038000061E0CE0141960E948F13811107C08FEFB6
:103810009FEFDC018D839E83AF83B88720918A0E52
:1038200030918B0E8091860E9091870EA091880E1C
:10383000B091890E821B930BA109B109898B9A8BD8
:10384000AB8BBC8BAE01475F5F4F6FEFCE014196F4
:103850000E948F13811107C08FEF9FEFDC018987D2
:103860009A87AB87BC8789849A84AB84BC84809117
:10387000820E9091830EA091840EB091850E4D81A1
:103880005E816F8178854F3F5F4F6F4F7F4F09F1AA
:103890008B208A208920809409F096C08D879E878E
:1038A000AF87B88BAE014F5F5F4F61E0CE010D96E1
:1038B0000E948F138823E1F120918A0E30918B0EA4
:1038C0008091860E9091870EA091880EB091890EFE
:1038D0009AC020918A0E30918B0E4091860E5091A5
:1038E000870E6091880E7091890E421B530B6109FF
:1038F00071098B208A208920809409F48DC0498B1E
:103900005A8B6B8B7C8B8D879E87AF87B88BAE0174
:103910004F5F5F4F6FEFCE0141960E948F13882358
:1039200039F061E0CE010D960E9404148111B4CEED
:1039300089899A89AB89BC89C816D906EA06FB062B
:10394000E1F58D859E85AF85B889C816D906EA064A
:10395000FB0699F580E090E0A0E8B0E08093720E5D
:103960009093730EA093740EB093750E80936E0EA9
:1039700090936F0EA093700EB093710EC092760E5E
:10398000D092770EE092780EF092790E80E1D80E08
:10399000E11CF11CC0927A0ED0927B0EE0927C0E5C
:1039A000F0927D0E8FEF9FEFDC0180937E0E90935F
:1039B0007F0EA093800EB093810E789487ED91E0F6
:1039C0000E949D1A10E0E4CE19861A861B861C867A
:1039D0004FEF5FEFBA014D835E836F8378878D87EA
:1039E0009E87AF87B88B61E0CE010D960E940414CC
:1039F000882309F49DCF20918A0E30918B0E8D85FE
:103A00009E85AF85B889821B930BA109B109898B6B
:103A10009A8BAB8BBC8B10C08D879E87AF87B88B82
:103A2000498B5A8B6B8B7C8B61E0CE010D960E948B
:103A30000414882309F47CCF6FEFCE01419674CF34
:103A4000705F8F4F9F4F6627707F992753CE4EE749
:103A50005EE061E082E79EE00E948F137ACECF9213
:103A6000DF92EF92FF921F93CF93DF930E946A0938
:103A70006B017C0120E1C20E27E2D21EE11CF11C89
:103A80000E946A096C157D058E059F0540F583E44B
:103A90009CE00E9443071816190694F764E670E04C
:103AA00080E090E00E94370983E49CE00E94430795
:103AB000EC01F82E10E083E49CE00E9422078D3098
:103AC00039F08A3029F0E12FF0E0E45CF54F808393
:103AD0001F5FF11680F7DD27C45CD54F18828CE399
:103AE0009AE0DF91CF911F91FF90EF90DF90CF9000
:103AF0000C949D1A0C9474190E94391865E38BE09C
:103B00000E94980E68E18CE00E94980E60E88DE0BB
:103B10000E94980E85EF91E00E947A1D82E10E943A
:103B2000F4198BEB95E00E947A1D83E20E94FB1949
:103B300062E370E080E090E00C943709CF93DF936C
:103B4000482F5091300A852F90E0E0911E0BE4132E
:103B50003BC0CE2FD0E08C0F9D1F6CE370E00E9425
:103B6000174EBE010E94174EE69FE02D1124E093F0
:103B7000770720917707822F6AE00E94F74DC82FC0
:103B8000CC0FC80FCC0FC20F60E087E00E94980EE8
:103B90006C2F88E00E94980E60E889E00E94980EE1
:103BA00060E88AE00E94980E87E092E00E947A1D09
:103BB000809177070E94FB1962E370E080E090E05B
:103BC000DF91CF910C943709840F911D8C339105AF
:103BD0003CF06CE370E00E94174E80937707C9CFEA
:103BE000450F40937707C5CF0F931F93CF93DF9374
:103BF000FC01048115810115110539F4FB011082C6
:103C0000DF91CF911F910F910895415051094017B5
:103C1000510708F48A01EB01FC0160817181A80160
:103C2000CE010E946850C00FD11F1882E9CFCF93F8
:103C3000DF93DC011496ED91FC916E177F0728F558
:103C40004115510511F19F01261B370B42175307F0
:103C500008F49A01DB01EC0188819981E21BF30BE6
:103C6000FD83EC83AF01461B570B260F371FBC01AA
:103C7000620F731F8A0F9B1F0E946850E881F981B1
:103C80008C819D81E80FF91F1082DF91CF910895FB
:103C90002F923F924F925F926F927F928F929F925C
:103CA000AF92BF92CF92DF92EF92FF920F931F934A
:103CB000CF93DF93CDB7DEB72A970FB6F894DEBF68
:103CC0000FBECDBFFC01698304811581C8018750F7
:103CD0009F4F6AEF70E00E94034E662309F42AC1E9
:103CE00029812A874F016150698790E080E0212C6B
:103CF000312C210133940115110509F41BC10B3F2F
:103D0000110550F15C013AEFA30EB11C0A5F1109D5
:103D100066246394712C681A790A6A0C7B1C4985A5
:103D20004093A90FAAEABFE08A159B05D8F4F401D5
:103D3000248135818217930738F420813181F9017C
:103D4000E80FF91F232B21F410923E0CEEE3FCE068
:103D500020812D930196E8CF5801A80EB91E10E0DE
:103D600000E0D6CFF090A50EF394F092A50EC12CF2
:103D7000EE24E394EC0C8091A80E8C1508F4F4C0AA
:103D800080919E0E90919F0EDC01ED91FC91008C34
:103D9000F18DE02D6F2D099580919E0E90919F0ED3
:103DA000DC01ED91FC91028CF38DE02D40E860E0A8
:103DB00009954A85662D89EA9FE00E949E060E9429
:103DC0009306BA85BF3F09F4D1C0E1E0EE1598F43F
:103DD0008091A10E9091A20EA091A30EB091A40E7D
:103DE0000196A11DB11D8093A10E9093A20EA093E8
:103DF000A30EB093A40E0E946A0969837A838B8311
:103E00009C83C090A60ED090A70E0E941B48A201D2
:103E100091010E949E4C9B01AC01D6010E94BD4CB9
:103E2000A20191010E949E4C2C0D3D1DCE2CC9017A
:103E3000B0E0A0E08D839E83AF83B8870E946A09BB
:103E400029813A814B815C81621B730B840B950B3A
:103E50002D813E814F81588562177307840795072E
:103E600008F086CF80919E0E90919F0EDC01ED911F
:103E7000FC910280F381E02D09958823F9F280916D
:103E80009E0E90919F0EDC01ED91FC910480F581D6
:103E9000E02D50E040E070E060E00995882371F289
:103EA00080919E0E90919F0EDC01ED91FC9100A0FF
:103EB000F1A1E02D0995D82E80919E0E90919F0E34
:103EC000DC01ED91FC91068CF78DE02D0995782EA3
:103ED00080919E0E90919F0EDC01ED91FC9102A0CD
:103EE000F3A1E02D0995E82E80919E0E90919F0EF2
:103EF000DC01ED91FC9104A0F5A1E02D0995BA85B6
:103F0000BD1108C09091A00E971104C087FF02C098
:103F1000FE1461F187FD92CFED2DF0E0E256F14FF6
:103F200083858E118BCF4D2D6E2D8EE99EE00E94E4
:103F3000D90B84CF81E02A960FB6F894DEBF0FBE6E
:103F4000CDBFDF91CF911F910F91FF90EF90DF9048
:103F5000CF90BF90AF909F908F907F906F905F9029
:103F60004F903F902F90089580E0E5CFE985E15094
:103F7000E987C501C0CEDF92EF92FF920F931F93A6
:103F8000CF93DF93FC01E480F580E114F10451F458
:103F90008FEF9FEFDF91CF911F910F91FF90EF90E7
:103FA000DF900895EC010190F081E02DEE0DFF1DF2
:103FB000D0801082088119816EE770E0C8010E94EC
:103FC00077500E0D1F1DF801D082009709F328814C
:103FD0003981821B930BDECFCF93DF93EC01888175
:103FE0009981009711F00E94D74E198218821D8284
:103FF0001C821B821A82DF91CF910895FC0180817F
:1040000091810C94D74E0E9441500F931F93CF93F0
:10401000DF93EC0188819981009759F02A813B81D7
:104020002617370730F081E0DF91CF911F910F9174
:1040300008958B016F5F7F4F0E94604F009759F08A
:10404000998388831B830A832C813D81232B59F715
:10405000FC011082E8CF80E0E7CFEF92FF920F9350
:104060001F93CF93DF936115710541F480E0DF91D9
:10407000CF911F910F91FF90EF9008954115510539
:10408000B1F07B01EC010C811D81040F151FB801FB
:104090000E940520882351F3288139818C819D81DC
:1040A000B701820F931F0E9461501D830C8381E032
:1040B000DECF0F931F93CF93DF9300D000D0CDB707
:1040C000DEB74AE08E010F5F1F4FB80190E00E94FB
:1040D0008548F80101900020E9F73197AF01401BB6
:1040E000510BB8018DEC91E10E942D200F900F90A3
:1040F0000F900F90DF91CF911F910F9108950F9323
:104100001F93CF93DF93CDB7DEB764970FB6F894C4
:10411000DEBF0FBECDBF8E010F5F1F4F22E044E018
:104120000E94B147FC0101900020E9F73197AF01EF
:10413000481B590BBC018DEC91E10E942D20649627
:104140000FB6F894DEBF0FBECDBFDF91CF911F91A8
:104150000F910895CF93DF9300D0CDB7DEB7698379
:104160001A8241E050E0BE016F5F7F4F0E942D2018
:104170000F900F90DF91CF910895FB0101900020E7
:10418000E9F73197AF01461B570B0C942D20EF92A6
:10419000FF920F931F93CF93DF93EC017B018A0172
:1041A000BA010E94052081110BC0CE010E94EC1FB4
:1041B000CE01DF91CF911F910F91FF90EF90089565
:1041C0001D830C83B701888199810E946150F0CFD3
:1041D000FB0101900020E9F73197AF01461B570B17
:1041E0000C94C720CF93DF93EC01FB018617970750
:1041F00049F0608171816115710541F044815581FB
:104200000E94C720CE01DF91CF9108950E94EC1F3C
:10421000F9CFCF93DF9300D000D000D0CDB7DEB779
:104220001A8219821C821B821E821D826DEC71E132
:10423000CE0101960E94F2204091D7115091D811E1
:104240006091D3117091D411CE0101960E942D205E
:10425000811104C0CE0101960E94EC1FBE016F5F68
:104260007F4F83ED91E10E94F220CE0101960E94E2
:10427000FE1F64E670E080E090E00E94370983ED65
:1042800091E10E94851962E370E080E090E00E9475
:10429000370926960FB6F894DEBF0FBECDBFDF916B
:1042A000CF910895FC01118210821382128215822F
:1042B0001482FB0101900020E9F73197AF01461B02
:1042C000570B0C94C7201F93CF93DF9300D000D0DF
:1042D00000D0CDB7DEB76FEB71E0CE0101960E9442
:1042E000522181ED98E00E94BC07809110010E944C
:1042F000A41987E192E00E947A1D83E49CE00E9469
:104300004307892BD1F383E49CE00E942207182FF6
:1043100080ED810F8A3090F0812F8F7D81548A311A
:1043200068F01A3021F08BE292E00E949D1A83E43B
:104330009CE00E944307892BD1F3E5CF812F0E9497
:10434000A4198BE692E00E949D1A6FEB71E0CE01FA
:1043500001960E94E82060911001CE0101960E9412
:10436000AA2060E872E0CE0101960E94BD20612F74
:10437000CE0101960E94AA2064E674E0CE01019667
:104380000E94BD20CE0101960E94DE176CE271E012
:1043900080E090E00E9437098EE89EE00E94BF1600
:1043A000892BA1F08EE89EE00E94BF16892B51F068
:1043B0008EE89EE00E949216682F83E49CE00E94A3
:1043C0007307F0CF82E892E00E949D1ACE01019619
:1043D0000E94FE1F26960FB6F894DEBF0FBECDBF1B
:1043E000DF91CF911F910895CF93DF9300D000D03C
:1043F00000D0CDB7DEB70E94AB1764E670E080E076
:1044000090E00E9437096FEB71E0CE0101960E94A7
:10441000522160918D07CE0101960E94AA206BE87F
:1044200072E0CE0101960E94BD20CE0101960E944D
:10443000DE176CE271E080E090E00E9437098EE8C0
:104440009EE00E94BF16892B29F08EE89EE00E9414
:104450009216F5CF64E170E080E090E00E943709A9
:104460000E94981764E170E080E090E00E943709B4
:10447000CE0101960E94FE1F26960FB6F894DEBF6D
:104480000FBECDBFDF91CF910895CF93DF9300D0C2
:1044900000D000D0CDB7DEB70E94AB1764E670E065
:1044A00080E090E00E9437096FEB71E0CE01019649
:1044B0000E94522160918D07CE0101960E94AA2090
:1044C0006FE872E0CE0101960E94BD20CE010196F8
:1044D0000E94DE176CE271E080E090E00E943709F4
:1044E0008EE89EE00E94BF16892B29F08EE89EE0A0
:1044F0000E949216F5CF64E170E080E090E00E94A7
:1045000037090E94981764E170E080E090E00E9413
:104510003709CE0101960E94FE1F26960FB6F89429
:10452000DEBF0FBECDBFDF91CF910895AF92BF9296
:10453000CF92DF92EF92FF920F931F93CF93DF936F
:10454000CDB7DEB7E9970FB6F894DEBF0FBECDBF8B
:10455000082F109284071092830710929B0E6FEB26
:1045600071E0CE0185960E945221602FCE01859682
:104570000E94AA2063E972E0CE0185960E94BD20C8
:10458000CE0185960E94DE1765E372E080E090E040
:104590000E9437098EE89EE00E94BF16B82EF12CCB
:1045A000E12C84E2A82E1091CE09C12ED12CEB145F
:1045B00040F58EE89EE00E949216182F682F8FED2E
:1045C00091E10E94AA2068E070E080E090E00E9403
:1045D00037091A3091F01D3081F0AC9CF001AD9C90
:1045E000F00D1124E257F84FEE0DFF1D108368E027
:1045F00070E080E090E00E9437092FEFE21AF20AA3
:10460000D2CF85E0E6E9F2E0DE019B9601900D92C3
:104610008A95E1F785E0EBE9F2E0DE01D0960190C2
:104620000D928A95E1F785E0E0EAF2E0DE01D596A9
:1046300001900D928A95E1F734E2139FC001112495
:104640009C012257384F7901BE01655D7F4FC9013A
:104650000E944A10882309F181E08093310A009377
:104660008D071F5F1093CE0983E49CE00E94D7075B
:10467000CE0185960E94FE1FE9960FB6F894DEBF24
:104680000FBECDBFDF91CF911F910F91FF90EF90A3
:10469000DF90CF90BF90AF900895BE01605D7F4FD7
:1046A000C7010E944A10882319F000938607D9CFCA
:1046B000BE016B5C7F4FCE0101960E944A10882399
:1046C00081F200938507CDCF0F931F93CF93DF9394
:1046D00000D000D000D0CDB7DEB7182F6FEB71E05F
:1046E000CE0101960E9452216FEB71E0CE0101963E
:1046F0000E94E820612FCE0101960E94AA2064E664
:1047000074E0CE0101960E94BD2003E010E0CE01CE
:1047100001960E94DE1764E670E080E090E00E945F
:1047200037098EE89EE00E94BF16181619064CF055
:1047300064E670E080E090E00E94370901501109C2
:1047400031F78EE89EE00E94BF1610928407109207
:10475000830710929B0E11E002970CF410E0CE013B
:1047600001960E94FE1F812F26960FB6F894DEBF99
:104770000FBECDBFDF91CF911F910F9108953F9252
:104780004F925F926F927F928F929F92AF92BF9261
:10479000CF92DF92EF92FF920F931F93CF93DF930D
:1047A000CDB7DEB7ADB6BEB60E94AB1764E670E01B
:1047B00080E090E00E94370987E991E00E94981913
:1047C0000E948119E6E6F7E08FE697E011928E17D6
:1047D0009F07E1F762E370E080E090E00E94370914
:1047E00010E3812F0E946423882319F0812F0E94F7
:1047F0007D101F5F1A33A9F711E6812F0E946423F1
:10480000882319F0812F0E947D101F5F1B37A9F7A5
:1048100011E4812F0E946423882319F0812F0E94C4
:104820007D101F5F1B35A9F764E170E080E090E028
:104830000E94370910E3812F0E947010882319F01D
:10484000812F0E9496221F5F1A33A9F711E6812F4C
:104850000E947010882319F0812F0E9496221F5FFA
:104860001B37A9F711E4812F0E947010882319F0DB
:10487000812F0E9496221F5F1B35A9F78DB69EB629
:1048800080E591E00E94BA1060E087E10E946F0825
:10489000000061E087E10E946F080E948F1062E3D0
:1048A00070E080E090E00E94370940E060E070E155
:1048B00080E090E00E946A1162E370E080E090E0A6
:1048C0000E943709C090E311D090E4118DB79EB7D4
:1048D0008C199D090FB6F8949EBF0FBE8DBF01962F
:1048E0007C01C114D10431F0A601BC018FED91E12E
:1048F0000E94F41D8091820E9091830EA091840EEF
:10490000B091850E81309041A105B10568F4809188
:10491000860E9091870EA091880EB091890E8130FD
:104920009041A105B10560F48601970140E050E196
:1049300060E070E080916C0E90916D0E0E94C0114D
:104940006CE271E080E090E00E9437090D2C000CD1
:10495000EE08FF0880E1D80EE11CF11CC09262074E
:10496000D0926307E0926407F09265076AE070E016
:1049700080E090E00E943709412C80E1582E612CA4
:10498000712C4C145D046E047F0440F500916C0E94
:1049900010916D0E40E063E0C8010E944211862D27
:1049A0000E94B010852D0E94B010842D0E94B0107E
:1049B00080E00E94B010382EC8010E94A010832D04
:1049C0000E94B70768E070E080E090E00E9437093D
:1049D0009FEF491A590A690A790AD3CF64E170E056
:1049E00080E090E00E9437090E94D0100FB6F89442
:1049F0009EBE0FBE8DBE62E370E080E090E00E943C
:104A000037090E9481190E94811982E991E00E9470
:104A1000981962E370E080E090E00E9437090E94FC
:104A2000981710922D0A0FB6F894BEBE0FBEADBEF9
:104A3000DF91CF911F910F91FF90EF90DF90CF907A
:104A4000BF90AF909F908F907F906F905F904F90AE
:104A50003F900895CF92DF92EF92FF920F931F93B2
:104A6000CF93DF93EC017B018A01E881F981028019
:104A7000F381E02D0995D82E882329F1E114F10462
:104A8000D1F001151105B9F0CFB6F8948A8D835095
:104A9000990BF8012081281719061CF08A8D845083
:104AA0008083F801408150E0BE01615E7F4FC70105
:104AB0000E944650CFBE8FB7F894FE01E65EFE4FCF
:104AC00010821A8E8FBF8D2DDF91CF911F910F9184
:104AD000FF90EF90DF90CF900895EF92FF920F93A9
:104AE0001F93CF93DF9300D01F92CDB7DEB78C0119
:104AF0000E94BB0BE82E81110CC0E12C8E2D0F9073
:104B00000F900F90DF91CF911F910F91FF90EF9039
:104B10000895F801808D8A3009F47EC08B3009F445
:104B20007DC022E0F22E823041F740E861E0C8010A
:104B30000E9491096AE070E080E090E00E943709ED
:104B400061E0C8010E94D10A8038B9F660E0F8013E
:104B5000808D0E94CF08F801818D8F3F49F48091AC
:104B60001D0A843050F691E0980F90931D0A818FB2
:104B7000F801818DE82FF0E0EE0FFF1FE25EF54FA8
:104B80001183008362EB7BE0882349F069EA7BE0D4
:104B9000813029F0823009F0B0CF60EA7BE08F2DC0
:104BA0000E94C30640E06EE0C8010E94910940E007
:104BB0006FE0C8010E949109C8010E94E90943E021
:104BC00050E063EE78E0CE0101960E947C48498176
:104BD0006DE1C8010E9491094A816EE1C8010E94FD
:104BE00091094B8166E2C8010E94910940E060E2B0
:104BF000C8010E94910948E061E2C8010E94910940
:104C000040E050EC64E674E4C8010E94FD096DE0E8
:104C1000C8010E94C10972CFF12C87CFFF24F39401
:104C200084CF2F923F924F925F926F927F928F929A
:104C30009F92AF92BF92CF92DF92EF92FF920F932B
:104C40001F93CF93DF93CDB7DEB764970FB6F89479
:104C5000DEBF0FBECDBFCDB6DEB6DE86CD860E94EE
:104C60000921E090D711F090D811FC8AEB8A2DB77A
:104C70003EB72E193F090FB6F8943EBF0FBE2DBFA9
:104C80008DB79EB701965C016091D3117091D411DC
:104C9000A7010E94465080918C0E90918D0E069730
:104CA0008E159F0530F585EA92E00E949D1A0E94BC
:104CB000D010ED84FE840FB6F894FEBE0FBEEDBE9C
:104CC00064960FB6F894DEBF0FBECDBFDF91CF91D3
:104CD0001F910F91FF90EF90DF90CF90BF90AF901A
:104CE0009F908F907F906F905F904F903F902F900C
:104CF00008952DB63EB640907E0E50907F0E609087
:104D0000800E7090810E9FEF491A590A690A790A3C
:104D1000EB88FC88A6E0EA0EF11C00918A0E109147
:104D20008B0EC701B8010E94034E009709F462C1BF
:104D30000E0D1F1D081B190BEDB7FEB7E01BF10B85
:104D40000FB6F894FEBF0FBEEDBF2DB73EB72F5F75
:104D50003F4F4901ADB7BEB711964D925D926D922E
:104D60007C921497F901F582E4828DB79EB707967D
:104D70004B895C89B5010E944650A8014E195F0914
:104D800070E060E0C4018E0D9F1D0E944F5028010D
:104D9000712C612C4091760E5091770E6091780EB7
:104DA0007091790EC090860ED090870EE090880E9C
:104DB000F090890ECF86D88AE98AFA8AD301C80191
:104DC000840F951FA61FB71FE0916C0EF0916D0E1A
:104DD000C816D906EA06FB0608F00EC15601A41A49
:104DE000B50A7801EA18FB0885019401CF010E94F9
:104DF000C01164EF71E080E090E00E94F210940135
:104E00002A0D3B1D4091820E5091830E6091840EBD
:104E10007091850E870180916C0E90916D0E0E94AD
:104E2000C0118090760E9090770EA090780EB09082
:104E3000790E80917E0E90917F0EA091800EB091A0
:104E4000810E0196A11DB11D80937E0E90937F0E61
:104E5000A093800EB093810EC301B201680D791D3D
:104E60008A1D9B1D0E9424056093760E7093770E19
:104E70008093780E9093790E705F8F4F9F4F6627C7
:104E8000707F99270E9424052B013C010E94A812E3
:104E9000811129C041E0C301B2010E946A11C3011E
:104EA000B201705F8F4F9F4F6627707F99270E94D6
:104EB00024056D837E838F839887AE014F5F5F4F9C
:104EC00061E0CE0105960E948F13882361F08D81E9
:104ED0009E81AF81B88580936E0E90936F0EA093E4
:104EE000700EB093710E40927A0E50927B0E6092CB
:104EF0007C0E70927D0E8092720E9092730EA09234
:104F0000740EB092750E80916E0E90916F0EA091FE
:104F1000700EB091710E0097A048B10540F08092DC
:104F20006E0E90926F0EA092700EB092710E0FB630
:104F3000F8943EBE0FBE2DBE6091720E7091730E3E
:104F40008091740E9091750E0E9458127C016091B0
:104F5000720E7091730E8091740E9091750E0E9476
:104F600058128C01009769F020918A0E30918B0EB7
:104F7000B9010E94034E009721F0020F131F081B76
:104F8000190B8AEB92E00E947A1D60917E0E70915F
:104F90007F0E8091800E9091810E0E94901A8AEC73
:104FA00092E00E947A1D83ED91E10E94851981EDC6
:104FB00092E00E947A1DCB88DC88B60190E080E008
:104FC0004AE00E94B0198DED92E00E947A1DB7016F
:104FD00090E080E04AE00E94B0198AEE92E00E94E0
:104FE0007A1DB80190E080E04AE00E94B0190E946A
:104FF00081195DCE8701A0CE9401CF0110CF2F92F1
:105000003F924F925F926F927F928F929F92AF9258
:10501000BF92CF92DF92EF92FF920F931F93CF93A5
:10502000DF93CDB7DEB7A8970FB6F894DEBF0FBEFB
:10503000CDBF0E94B20E68EC70E080E090E00E946C
:10504000370960912E0A70912F0A90E080E00E944B
:10505000474B4091A9100E94910D811104C08CEF23
:1050600092E00E949D1A84E189A31092800789E052
:1050700093E00E949D1A0E946A091B012C018091F5
:105080001101882309F4B7C0C0907C07D0907D0738
:10509000E0907E07F0907F0720E8C20E2CE2D21E3F
:1050A00020E8E21EF11C8091780790917907A09189
:1050B0007A07B0917B07C81AD90AEA0AFB0A80E28C
:1050C00093E00E947A1DC701B6010E94071A0E9450
:1050D00081198E010F5F1F4F3E0135E1630E711C78
:1050E0004E0187E1880E911C9E01275E3F4F3CA335
:1050F0002BA3CE014B969EA38DA32C5F3F4F38A7C9
:105100002FA35E013FE1A30EB11C809180078111A6
:105110008AC00E946A0962197309840995096C158D
:105120007D058E059F0508F06DC00E9439189E010F
:105130002E5D3F4F40ED57E0BE016F5D7F4FC801D0
:105140000E940B0C882309F389A18823F1F27F9236
:105150006F929F928F928CA18F939BA19F932EA170
:105160002F933DA13F9388A58F939FA19F93BF92BB
:10517000AF922EE233E03F932F931F930F930E9441
:1051800082500FB6F894DEBF0FBECDBF892B09F455
:10519000BCCF8F8D98A1813D37E093070CF4B5CF3C
:1051A000825B80932A0B8D8D8093290B8B8D80934E
:1051B000280B898D8093260B8F898093250B8D89F1
:1051C0008093240B0E94D71865E070E080E090E0A7
:1051D0000E94370981E08093800780E493E00E9479
:1051E0007A1DC8010E949D1A60911F0B83ED91E109
:1051F0000E94481E8ACF80E6C82E8AEED82EE12C67
:10520000F12C67CF8091110181110DC08091320A7C
:105210008F5F8093320A89E593E00E947A1D809126
:10522000320A0E94FB19A8960FB6F894DEBF0FBE93
:10523000CDBFDF91CF911F910F91FF90EF90DF9045
:10524000CF90BF90AF909F908F907F906F905F9026
:105250004F903F902F900895FC01808191810C9494
:10526000664CEF92FF920F931F93CF93DF9300D082
:10527000CDB7DEB78EE9E82E8BE0F82E08E01BE014
:105280001A830983CE0101960E942C29F70181938C
:105290007F010F5F1F4F083AFBE01F0789F78EE978
:1052A0009BE00F900F90DF91CF911F910F91FF9096
:1052B000EF9008950E94312964E670E080E090E06C
:1052C0000E943709EEE9FBE080EADF011D928A9532
:1052D000E9F708952F923F924F925F926F927F92DB
:1052E0008F929F92AF92BF92CF92DF92EF92FF92F6
:1052F0000F931F93CF93DF93CDB7DEB7AA970FB667
:10530000F894DEBF0FBECDBF2DB73EB739A728A793
:105310000E94312964E170E080E090E00E9437094A
:105320000E94AB1764EF71E080E090E00E943709C3
:105330006FEB71E083ED91E10E94E82000E088EEE0
:10534000282E83E0382EC090CE090C1508F06BC3D0
:1053500034E2309FC0011124BC016257784F7B01B9
:10536000DB011C91009388076FEB71E089ED91E1FF
:105370000E94E82064E170E080E090E00E9437093C
:10538000B70189ED91E10E94BD20EEE9FBE080E0EC
:10539000D12CC81649F09081191303C0682EDD2462
:1053A000D3948F5F3A96F5CFFE013196BAE06B9EAB
:1053B000A001112481E090E07F019C01215031097E
:1053C000DA01A80FB91FA256B44F6C91662309F4F5
:1053D0005CC0619301968A30910579F76EE789ED9B
:1053E00091E10E94AA20B701D11002C065E873E0E4
:1053F00089ED91E10E94BD206FEB71E0CE014C96EA
:105400000E945221612FCE014C960E94AA2065E68F
:1054100073E0CE014C960E94BD20CE014C960E94B6
:10542000DE1764E670E080E090E00E9437098EE8C5
:105430009EE00E94BF16181619060CF02CC1ADB6DE
:10544000BEB6F1E0F09387078EE89EE00E94BF169B
:10545000982E2DB73EB7281B31090FB6F8943EBFE2
:105460000FBE2DBF6DB77EB76F5F7F4F6B01862E6E
:105470007B018E2D8819891568F48EE89EE00E94C4
:105480009216D7018D937D01F4CF2E0D3F1DF901AA
:105490001082A4CFF6018381082E000C990BC097CF
:1054A000829D9001839D300D929D300D112430938B
:1054B0008207209381070FB6F894BEBE0FBEADBE23
:1054C0006091810770918207072E000C880B990B61
:1054D0000E943709109284071092830710929B0E46
:1054E00062E370E080E090E00E94370990908507C9
:1054F00080918707882309F47FC22DB73EB73BA36D
:105500002AA36FEB71E0CE0146960E945221612FD3
:10551000CE0146960E94AA2068E673E0CE01469628
:105520000E94BD20CE0146960E94DE1764EF71E016
:1055300080E090E00E9437098EE89EE00E94BF164E
:10554000882E2C015524B201615071097DA36CA3F2
:105550008DB79EB7841995090FB6F8949EBF0FBEFC
:105560008DBFADB7BEB711966D01B5E0B81508F0A7
:105570002CC2EDB7FEB7FFA3EEA3BC2C76018EE8DC
:105580009EE00E949216D7018D937D016FE070E03E
:1055900080E090E00E9437098E2D8B19881578F3F2
:1055A000EDB7FEB7E419F5090FB6F894FEBF0FBECC
:1055B000EDBF2DB73EB72F5F3F4F79017090860743
:1055C00080918D07181711F017116CC03FEFC31AA7
:1055D000D30AEAA65701D6018D916D01F501819399
:1055E0005F016FE070E080E090E00E9437098A2D53
:1055F000FAA58F1B881578F31915F1F0F701918141
:105600009033D1F080E041914E3209F46DC08F5F4C
:105610008530C9F790E0DC011197AE0DBF1D2C91CC
:10562000F701E80FF91F20830297F701E80FF91F30
:1056300080818C932EE22083BCA0AE2C67018C2D40
:105640008A198B1508F0A2C0F601F1906F0185ED63
:105650008F0D8035A0F7FBE2FF1619F02DE2F21254
:105660008BC06EE789ED91E10E94AA2064E170E0B1
:1056700080E090E00E9437093DE2F312E0CF6DE256
:1056800089ED91E10E94AA2064E170E080E090E061
:105690000E943709D4CF309282072092810710925E
:1056A00087070ECF812C520122E0A21AB108882D63
:1056B00090E08A159B058CF4F701E80FF91F8C0D1B
:1056C0009D1DDC0111968C91808364E170E080E087
:1056D00090E00E9437098394EACF64E170E080E0B3
:1056E00090E00E94370988CF823009F093CF2DB720
:1056F0003EB76DB77EB7641975090FB6F8947EBFD3
:105700000FBE6DBFEDB7FEB73196D7018C91ADB727
:10571000BEB711968C934183B0E3B2839383D701D4
:1057200013968C91848344E0842F90E08415950532
:1057300060F4BF01680F791F8E0D9F1DDC018C91F5
:10574000DB0111968C934F5FEFCF40E0842F90E008
:105750008415950558F4B701680F791F8E0F9F1FA8
:10576000DC018C91DB018C934F5FF0CF0FB6F89486
:105770003EBF0FBE2DBF60CF6F2D89ED91E10E941E
:10578000AA2069E170E080E090E082CF171509F46B
:10579000BDC080918D07181709F4B8C0191509F418
:1057A000B5C08DB69EB689ED91E10E94BB1F4091B8
:1057B000DD11481B50E0BC01772789ED91E10E9483
:1057C000171E6FEB71E0CE0140960E945221612FAF
:1057D000CE0140960E94AA206CE673E0CE0140966E
:1057E0000E94BD20CE0140960E94DE1764EF71E05A
:1057F00080E090E00E9437098EE89EE00E94BF168C
:105800007C01FF24670162E0C61AD108ADB7BEB7BC
:10581000AC19BD090FB6F894BEBF0FBEADBFEDB752
:10582000FEB731965F018630E8F010E0F1E0EF1A44
:10583000F108412E512C4E145F04A4F48EE89EE032
:105840000E9492168D3061F08A3051F0F501E40D1E
:10585000F51D80836FE070E080E090E00E943709E2
:105860001F5FE7CF6FEB71E0CE010A960E945221D5
:1058700011E0812F90E08C159D05A4F48A0D9B1DED
:10588000DC016C916B3261F0CE010A960E94AA2075
:1058900064E170E080E090E00E9437091F5FE9CF8B
:1058A0006EE7F2CFCE010A960E94BB1F4E85481BC1
:1058B00050E0BC017727CE010A960E94171ECE0148
:1058C0000A960E94BB1FAC01552770E060E0CE0134
:1058D0000A960E94171E4E855F856A857B8589ED35
:1058E00091E10E942D2064E170E080E090E00E9450
:1058F0003709CE010A960E94FE1FCE0140960E94F3
:10590000FE1F0FB6F8949EBE0FBE8DBEEEA1FFA186
:105910000FB6F894FEBF0FBEEDBFCE0146960E94B3
:10592000FE1F2AA13BA10FB6F8943EBF0FBE2DBFAC
:105930006CE271E080E090E00E94370910928407E9
:105940001092830710929B0E62E370E080E090E07B
:105950000E943709109284071092830710929B0EC1
:1059600062E370E080E090E00E9437091B861A86AF
:105970001D861C861F861E8669ED71E1CE010A9682
:105980000E94F2206EE7CE010A960E94AA208111A1
:1059900004C0CE010A960E94EC1F4E855F856A8581
:1059A0007B8583ED91E10E942D20CE010A960E9415
:1059B000FE1F64E670E080E090E00E943709CE01AF
:1059C0004C960E94FE1F0F5FBECC6AE773E019156C
:1059D00071F08091860764E873E0181741F08091B8
:1059E0008D076FE773E0181711F060E773E089ED3A
:1059F00091E10E94BD2091CF6AE773E0191571F023
:105A00008091860764E873E0181741F080918D0754
:105A10006FE773E0181711F060E773E089ED91E12B
:105A20000E94BD2085CF8091D7119091D8116DB77C
:105A30007EB7681B790B0FB6F8947EBF0FBE6DBFA3
:105A40000DB71EB70F5F1F4F62E370E080E090E07C
:105A50000E9437094091D7115091D8114115510535
:105A600029F0B80183ED91E10E94F41D62E370E03A
:105A700080E090E00E943709E091D711F091D811B1
:105A8000E00FF11F108262E370E080E090E00E947E
:105A90003709B801CE0101960E9452218091D3119D
:105AA0009091D411009709F44DC069817A816115F4
:105AB000710509F445C04091D5115091D6112D8141
:105AC0003E8142175307E0F10E9461508D819E8113
:105AD0009093D8118093D7111E821D82CE0101961A
