:100000000C942B050C94BD400C9492400C946740CA
:100010000C943C430C9455050C9455050C94584392
:100020000C9455050C9455050C9455050C945505E8
:100030000C9455050C94E8400C9455050C9455050A
:100040000C9455050C9455050C941D400C945505C5
:100050000C94E83F0C94BE3F0C9455050C94550548
:100060000C9455050C9455050C9418420C945505A8
:100070000C9455050C9455050C9455050C94550598
:100080000C9455050C9455050C94550500407A10B8
:10009000F35A00A0724E18090010A5D4E80000E839
:1000A0007648170000E40B54020000CA9A3B000097
:1000B00000E1F505000080969800000040420F0026
:1000C0000000A08601000000102700000000E803E7
:1000D000000000006400000000000A0000000000B2
:1000E0000100000000002C76D888DC674F0823DF71
:1000F000C1DFAE59E1B1B796E5E3E453C63AE65144
:10010000997696E8E6C28426EB898C9B62ED407C6A
:100110006FFCEFBC9C9F40F2BAA56FA5F490055A06
:100120002AF75C936B6CF9676DC11BFCE0E40D472B
:10013000FEF520E6B500D0ED902E0300943577054E
:100140000080841E080000204E0A000000C80C3306
:100150003333330F986E12831141EF8D2114893B95
:10016000E65516CFFEE6DB18D1844B381BF77C1D15
:10017000901DA4BBE424203284725E228100C9F168
:1001800024ECA1E53D276364696E6F707375785840
:100190005B00446F6E65005363616E6E696E67202D
:1001A000666F72205344492D31322073656E736F30
:1001B00072732E2E2E002020696E707574206D696A
:1001C0006E7574653A20002020696E707574206821
:1001D0006F75723A202020002020696E707574209F
:1001E000796561723A202020002020696E70757454
:1001F000206461793A20202020002020696E7075EB
:1002000074206D6F6E74683A202000456E746572BC
:1002100020746865206461746520616E642074696F
:100220006D6520696E20436F6F7264696E617465DD
:100230006420556E6976657273616C2054696D65D2
:100240002028555443293A200020202020456E7450
:100250006572204761746577617920726164696FA6
:100260002049443A200041726520796F75207573EA
:10027000696E67206120476174657761793F204529
:100280006E7465722027792720666F7220796573F6
:100290002C20276E2720666F72206E6F3A20004454
:1002A000656661756C7420726164696F20494420D1
:1002B000616363657074656400526164696F2049AD
:1002C0004420757064617465640020456E746572C5
:1002D000206E657720726164696F2049443A20007E
:1002E00020456E7465722027792720666F72207909
:1002F00065732C20276E2720666F72206E6F3A2060
:1003000000576F756C6420796F75206C696B652080
:10031000746F206368616E67652074686520726120
:1003200064696F2049442066726F6D20746865208F
:1003300064656661756C742076616C75653F004913
:100340006E76616C696420696E74657276616C2E7C
:1003500020456E746572206D6561737572656D659B
:100360006E7420696E74657276616C20286576659E
:1003700072792031302C2031352C2032302C203332
:10038000302C206F72203630206D696E73293A2030
:1003900000456E746572206D6561737572656D657B
:1003A0006E7420696E74657276616C20286576655E
:1003B00072792031302C2031352C2032302C2033F2
:1003C000302C206F72203630206D696E73293A20F0
:1003D000005375636365737300416464726573737E
:1003E000206368616E6765206661696C65640043BF
:1003F000757272656E7420616464726573733A20FD
:10040000002020456E74657220612050726F6A650D
:1004100063742049442028757020746F2035206350
:100420006861726163746572732C2065783A20503C
:100430005341293A2000457869740041726520795A
:100440006F75207375726520796F752077616E7492
:1004500020746F20657261736520616C6C2064612B
:1004600074612073746F72656420696E206D656DB0
:100470006F72793F2028792F6E293A00496E766194
:100480006C696420696E7075742E20526574757283
:100490006E696E6720746F206D656E752E00456EF7
:1004A0007465722063686F6963653A200020207468
:1004B000202D2D3E205072696E74206C617465731E
:1004C00074206C6F677300202061202D2D3E20501A
:1004D00072696E7420616C6C20746865206461744C
:1004E00061005072696E74206461746120746F20C1
:1004F00073637265656E3A200054657374206D6590
:1005000061737572656D656E74733A004172652032
:10051000796F75207375726520796F752077616EBC
:100520007420746F2065726173653F20456E746539
:100530007220792F6E3A20004C61742F6C6F6E67B9
:100540002076616C7565732077696C6C20617070C2
:10055000656172206173202D39393939393939395A
:100560003920696E20746865206461746120737439
:1005700072696E672E004552524F523A204C6F6E90
:1005800067697475646520696E636F727265637400
:1005900021004C6F6E6769747564653A200045529E
:1005A000524F523A204C6174697475646520696ECB
:1005B000636F727265637421004C61746974756451
:1005C000653A200053656C656374206F7074696FC1
:1005D0006E3A200020202030203C2D2D20457261D5
:1005E0007365204C61742F4C6F6E672076616C755B
:1005F00065730020202031203C2D2D20456E746530
:1006000072204C61742F4C6F6E672076616C75653B
:100610007300456E7465722073656E736F7220642B
:100620006570746820696E20636D2E205573652097
:10063000272B27206F7220272D2720746F20696EAB
:100640006469636174652061626F7665206F7220F2
:1006500062656C6F7720736F696C20737572666169
:1006600063653A00456E74657220636F6E666967F4
:1006700075726174696F6E20737472696E673A2067
:1006800000456E7465722063686F6963653A200087
:100690002020207820203C2D2D20204578697420B2
:1006A0006D656E75002020206520203C2D2D2020BA
:1006B000457261736520616C6C2064617461002017
:1006C00020207020203C2D2D20205072696E742037
:1006D0006461746120746F2073637265656E0020BD
:1006E00020207420203C2D2D20205465737420730D
:1006F000656E736F7273002020206120203C2D2DC9
:1007000020204368616E6765205344492D313220B3
:1007100073656E736F722061646472657373657361
:10072000002020206E20203C2D2D20205363616E60
:1007300020666F722064657669636573206F6E2032
:100740005344492D313220627573002020206D20E2
:10075000203C2D2D2020536574206D6561737572CA
:10076000656D656E7420696E74657276616C0020CB
:1007700020207220203C2D2D20204368616E67656B
:10078000204E6F646520726164696F2049440020C7
:1007900020206720203C2D2D2020456E746572207E
:1007A0004761746577617920726164696F2049449B
:1007B000002020206C20203C2D2D2020456E7465CB
:1007C00072206F72206572617365204C61742F4CCA
:1007D0006F6E672076616C7565730020202069203C
:1007E000203C2D2D2020456E7465722070726F6A3A
:1007F000656374204944002020206320203C2D2D77
:10080000202053657420636C6F636B00202020648C
:1008100020203C2D2D2020456E7465722073656E5E
:10082000736F72206465707468730020202030201C
:10083000203C2D2D2020456E74657220636F6E66FE
:10084000696775726174696F6E20737472696E671F
:10085000004D656E75206F7074696F6E733A20007D
:1008600043757272656E742062617474657279206A
:10087000766F6C746167653A20200043757272650B
:100880006E74206461746520262074696D653A2059
:1008900020004D6561737572656D656E7420496EDB
:1008A00074657276616C3A2000476174657761798E
:1008B00020526164696F2049443A200052616469A2
:1008C0006F2049443A20004C61742F6C6F6E673A78
:1008D000200050726F6A6563742049443A20004CCE
:1008E0006F526120526164696F20467265712028E1
:1008F0004D487A293A200053657269616C204E7523
:100900006D6265723A200056657273696F6E2000E1
:10091000536F696C20576174657220446174612063
:100920004E6574776F726B202D20576972656C6508
:100930007373205344492D313220446174616C6FCC
:1009400067676572204E6F64650072740092740070
:1009500048940078C40000002100240027002A00E9
:1009600000002200250028002B00000020002300AA
:100970002600290002020202020202020404040408
:10098000040404040303030303030303010101013B
:100990000101010101020408102040800102040845
:1009A0001020408001020408102040800102040849
:1009B00010204080000000010200090A0000000031
:1009C0000403080700000000000000000000000011
:1009D000000000004552524F523A204C6F6E67693A
:1009E0007475646520696E636F727265637421004B
:1009F0004552524F523A204C6174697475646520B7
:100A0000696E636F727265637421004552524F5272
:100A10003A20496E76616C696420696E74657276FD
:100A2000616C202865766572792031302C20313553
:100A30002C2032302C2033302C206F722036302086
:100A40006D696E73290070726F6A65637449443A08
:100A500020001844954A11241FBECFEFD0E4DEBF1A
:100A6000CDBF17E0A0E0B1E0E2EAF3EB00E00BBF9E
:100A700002C007900D92A435B107D9F729E1A4E58A
:100A8000B7E001C01D92A13FB207E1F715E0CAE24D
:100A9000D5E004C02197FE010E942F51C932D10731
:100AA000C9F70E9429450C94C4590C940000109277
:100AB0003E0C10923D0C10928B0E089508950895EF
:100AC000982F2091340C81E0213208F043C08091AE
:100AD000330C8111FCCF80912C0C32E03093330C1D
:100AE0009093320C9FEF90930A0C1092090C209374
:100AF000080CACE0BCE0E8EEFBE090E0291331C06C
:100B00001092E70B9091E70B880F892B8093E70BEE
:100B10008091310C813049F51092310C8091E70BB6
:100B20008093BB008091BC0083FDF8CF85EC80935F
:100B3000BC008091330C8230E1F380910A0C8F3F2E
:100B4000B1F080910A0C8032A1F080910A0C8033C0
:100B500091F084E01092350C1092340C10920B0C32
:100B600008953D9131939F5FC9CF85EEE0CF80E03E
:100B7000F1CF82E0EFCF83E0EDCF9091330C911174
:100B8000FCCF91E09093330C9093320C2FEF209395
:100B90000A0C1092090C260F2093080C9093E70B77
:100BA0009091E70B880F892B8093E70B8091310C94
:100BB0008130F9F41092310C8091E70B8093BB00E7
:100BC0008091BC0083FDF8CF85EC8093BC008091C0
:100BD000330C8130E1F38091090C861710F4609199
:100BE000090CA8EEBBE0E7ECFBE080E0861303C055
:100BF000089585EEEACF9D9191938F5FF7CF4F9245
:100C00005F926F927F928F929F92AF92BF92CF929C
:100C1000DF92EF92FF920F931F930091760E109147
:100C2000770E2091780E3091790EC090720ED09090
:100C3000730EE090740EF090750E480159018C18F7
:100C40009D08AE08BF0826013701401A510A620A02
:100C5000730A601771078207930728F0640D751DEA
:100C6000861D971DF6CF6C157D058E059F0528F412
:100C7000680D791D8A1D9B1DECCF1F910F91FF9070
:100C8000EF90DF90CF90BF90AF909F908F907F902C
:100C90006F905F904F900895BF92CF92DF92EF9246
:100CA000FF920F931F93CF93DF93EC01B62EC88072
:100CB000D980EA80FB8000917A0E10917B0E98011A
:100CC00050E040E0C701B6010E94804F662391F0DA
:100CD000862F90E09801369527958217930700F1AB
:100CE000081B190BC00ED11EE11CF11CC882D98251
:100CF000EA82FB82688179818A819B81BB20A9F08D
:100D00000E94FF05688379838A839B83DF91CF915B
:100D10001F910F91FF90EF90DF90CF90BF900895BB
:100D2000C61AD108E108F108E1CF0091760E1091C2
:100D3000770E2091780E3091790E06171707280745
:100D4000390720F7088319832A833B83DFCFEFE33A
:100D5000FCE0A089B18982E08C93A485B5851C92C2
:100D6000A685B78580E18C93108EA489B58986E02D
:100D70008C93A289B3898C9180618C93A289B38969
:100D80008C9188608C93A289B3898C9180688C93B4
:100D90000288F389E02D80818F7D80830895809182
:100DA0008E0E90918F0EDC01ED91FC910484F585FF
:100DB000E02D0994FF920F931F93CF93DF938C0143
:100DC000F62ECEE8DEE088819981DC01ED91FC9180
:100DD0000488F589E02D642F099588819981DC01CB
:100DE000ED91FC910680F781E02D4F2DB801DF9148
:100DF000CF911F910F91FF900994E82FF0E0EE0F33
:100E0000FF1FE35FFE4F71836083813049F08230C2
:100E100071F080916900836080936900E89A089579
:100E2000809169008C6080936900E99A08958091AF
:100E30006900806380936900EA9A0895AF92BF9237
:100E4000CF92DF92EF92FF920F931F93CF93DF9396
:100E50006C017B018B01040F151FEB015E01AE18C5
:100E6000BF08C017D10759F06991D601ED91FC91E7
:100E70000190F081E02DC6010995892B79F7C50114
:100E8000DF91CF911F910F91FF90EF90DF90CF9066
:100E9000BF90AF900895FC01538D448D252F30E015
:100EA000842F90E0821B930B541718F081509F4FB2
:100EB000089501970895FC01918D828D981759F03E
:100EC000A28DAE0FBF2FB11D5D968C91928D9F5F4D
:100ED000928F90E008958FEF9FEF0895FC01918D20
:100EE000828D981731F0828DE80FF11D858D90E08D
:100EF00008958FEF9FEF0895FC01918D828D981BCF
:100F0000892F90E008958FE39CE00E947C0721E008
:100F1000892B09F420E0822F0895FC01A48DA80FED
:100F2000B92FB11DA35EBE4F9C91848D8F5F848FBE
:100F3000A689B7899C93A089B1898C9183708064BC
:100F40008C93938D848D981306C00288F389E02DCD
:100F500080818F7D808308950F931F93CF93DF93BC
:100F6000EC0181E0888F9B8D8C8D981318C0E889E7
:100F7000F989808185FF13C09FB7F894EE89FF89B6
:100F80006083E889F98980818370806480839FBF52
:100F900081E090E0DF91CF911F910F910895062F8E
:100FA0001B8D1F5F8C8D81130CC00FB607FCFACF11
:100FB000E889F989808185FFF5CFCE010E948D07F0
:100FC000F1CFEB8DEC0FFD2FF11DE35EFE4F0083A3
:100FD0009FB7F8941B8FEA89FB8980818062D6CF06
:100FE000682F8FE39CE00C94AC070F931F93CF9373
:100FF000DF938C01D0E0C0E0F801EC0FFD1F64919D
:10100000662341F08FE39CE00E94AC07892B11F02E
:101010002196F2CFCE01DF91CF911F910F910895CC
:10102000CF93DF93EC01888D8823B9F0AA89BB891F
:10103000E889F9898C9185FD03C0808186FD0DC00A
:101040000FB607FCF7CF8C9185FFF2CF808185FF2B
:10105000EDCFCE010E948D07E9CFDF91CF910895AA
:1010600080E090E0892B29F00E94830781110E9483
:10107000000080E090E0892B49F080E090E0892B2F
:1010800029F00E94000081110C9400000895815005
:101090008A3080F5E82FF0E0E05BF74F0C942F5199
:1010A000640868085A0860087A087A086B087108AA
:1010B00075087B08809180008F7780938000089569
:1010C000809180008F7DF9CF84B58F7784BD08959E
:1010D00084B58F7DFBCF8091B0008F778093B00077
:1010E00008958091B0008F7DF9CF809190008F7727
:1010F000809390000895809190008F7DF9CFCF93D9
:10110000DF93282F30E0F901EC54F64F8491F90178
:10111000EC56F64FD491F901EC58F64FC491CC231C
:10112000A1F081110E944708EC2FF0E0EE0FFF1FA5
:10113000E659F64FA591B491EC91ED2381E090E052
:1011400009F480E0DF91CF91089580E090E0FACF3C
:101150001F93CF93DF93282F30E0F901EC54F64F23
:101160008491F901EC56F64FD491F901EC58F64F01
:10117000C491CC23A9F0162F81110E944708EC2FAF
:10118000F0E0EE0FFF1FE05AF64FA591B4918FB734
:10119000F894EC91111108C0D095DE23DC938FBF39
:1011A000DF91CF911F910895DE2BF8CF1092370C6D
:1011B0001092360C1092350C1092340C1092330CA5
:1011C00081E08093320C1092310C61E081E10E9449
:1011D000A80861E080E10E94A808E9EBF0E08081C6
:1011E0008E7F808380818D7F808380E28093B800B2
:1011F00085E48093BC008EE595E09093300C80935D
:101200002F0C8FE595E090932E0C80932D0C089574
:10121000CF93DF9390E0FC01EC56F64F24918C586D
:10122000964FFC0184918823D1F090E0880F991F9C
:10123000FC01EA5AF64FA591B491FC01E05AF64F31
:10124000C591D49161110EC09FB7F8948C91E22F93
:10125000E0958E238C932881E223E8839FBFDF9162
:10126000CF9108958FB7F894EC91E22BEC938FBF58
:10127000F6CF8851806480937C0080917A008064EE
:1012800080937A0080917A0086FDFCCF809178006F
:101290009091790008953FB7F8948091540A909105
:1012A000550AA091560AB091570A26B5A89B05C0C9
:1012B0002F3F19F00196A11DB11D3FBFBA2FA92FD5
:1012C000982F8827BC01CD01620F711D811D911DD2
:1012D00043E0660F771F881F991F4A95D1F708953D
:1012E0008F929F92AF92BF92CF92DF92EF92FF9236
:1012F0006B017C010E944B094B015C01C114D104BC
:10130000E104F104B9F00E944B09681979098A09CE
:101310009B09683E73408105910580F321E0C21A64
:10132000D108E108F10888EE880E83E0981EA11C20
:10133000B11CE4CFFF90EF90DF90CF90BF90AF90C3
:101340009F908F9008952FB7F8946091500A7091F4
:10135000510A8091520A9091530A2FBF089508951F
:101360008BEF0895CF93DF93FC01228133812230EC
:10137000310569F0EC01638D818D0E94A80860E061
:10138000888D0E94A80882E090E09B838A83DF9189
:10139000CF910895FF920F931F93CF93DF93EC01AA
:1013A000162FF42E0FB7F89460E08F890E94A808DA
:1013B0008D899E89612F6068DC01ED91FC9101901F
:1013C000F081E02D0995182F8D899E89DC01ED9122
:1013D000FC910190F081E02D6F2D099561E08F89DE
:1013E0000E94A8080FBF812FDF91CF911F910F910D
:1013F000FF9008950F931F93CF938C01C62F44E065
:101400006DE40E94CA094BEF4C0F406869E0C801C7
:10141000CF911F910F910C94CA09CF93DF93FC01D8
:10142000228133812130310549F0EC0140E061E057
:101430000E94CA0981E090E09B838A8381E0DF916A
:10144000CF910895CF93DF93FC0122813381223025
:10145000310549F0EC0141E061E00E94CA0982E0F7
:1014600090E09B838A83DF91CF910895CF92DF92A2
:10147000EF92FF92CF93DF93EC01CB01BA0120E012
:1014800034E244E759E40E94AC4E20E034E244E701
:1014900052E40E9450500E94C2506B017C01A7018F
:1014A0006627772766E0CE010E94CA0977276F2D4D
:1014B0005E2D4D2D67E0CE010E94CA094C2D68E0DB
:1014C000CE010E94CA0981E0DF91CF91FF90EF9099
:1014D000DF90CF900895CF92DF92EF92FF920F931B
:1014E0001F93CF93DF934C3F08F067C0142F072F53
:1014F000F62EEC01E881F9810484F585E02D09954B
:10150000CE010E94220A40E06DE0CE010E94CA098D
:101510004A8560E0CE010E94CA094B8560E0CE0199
:101520000E94CA094C8560E0CE010E94CA094D851F
:1015300060E0CE010E94CA09EFB6F89460E08F899E
:101540000E94A8088D899E89DC01ED91FC91019093
:10155000F081E02D60E80995CF2CD02E012F0150AD
:1015600068F08D899E89F60161916F01DC01ED9132
:10157000FC910190F081E02D0995F1CF61E08F8918
:101580000E94A808EFBE44E0410F62E2CE010E9433
:10159000CA098A819B81039771F043E061E0CE0123
:1015A0000E94CA0940E460E4CE010E94CA0983E0B7
:1015B00090E09B838A8381E001C080E0DF91CF913E
:1015C0001F910F91FF90EF90DF90CF900895CF93F0
:1015D000DF93FC012281338123303105C9F0EC0116
:1015E00082819381049771F045E061E0CF010E9410
:1015F000CA0940E060E4CE010E94CA0984E090E09C
:101600009B838A83C65EDE4F8881DF91CF910895E8
:1016100080E0FBCF0F931F93CF93DF93EC01162F46
:101620000FB7F89460E08F890E94A8088D899E8981
:10163000DC01ED91FC910190F081E02D612F099585
:101640008D899E89DC01ED91FC910190F081E02D66
:1016500060E00995182F61E08F890E94A8080FBFEC
:10166000812FDF91CF911F910F910895DF92EF921B
:10167000FF920F931F93CF93DF93EC0162E10E94DF
:101680000A0B2A813B8124303105A1F4982F907AEE
:1016900089F08F8598890196988B8F874FEF62E14B
:1016A000CE01DF91CF911F910F91FF90EF90DF90CE
:1016B0000C94CA092A813B812430310511F486FD3E
:1016C0000DC02A813B812330310541F783FFE6CFEE
:1016D0008B899C8901969C8B8B8B67C063E1CE01C3
:1016E0000E940A0B082F60E1CE010E940A0B482FCE
:1016F0006DE0CE010E94CA09DFB6F89460E08F89E0
:101700000E94A8088D899E89DC01ED91FC910190D1
:10171000F081E02D60E009957E01BBE1EB0EF11C4C
:10172000102F115070F08D899E89DC01ED91FC9194
:101730000190F081E02D60E00995F70181937F0130
:10174000F0CF61E08F890E94A808DFBE0A8F4FEFBB
:1017500062E1CE010E94CA096AE1CE010E940A0B31
:1017600089588E878A8DFE01E65EFE4F8430C8F070
:101770008B8D8E838C8D8F838D8D88878E8D8987C1
:101780008D81811107C09E818C81981719F08E81FF
:101790008F3F39F489899A8901969A8B898B81E0E8
:1017A00080838081882309F479CFCE010E94220AA8
:1017B00075CF80914D0A90914E0A009711F00C94CC
:1017C000360B089580914B0A90914C0A009711F0C6
:1017D0000C94360B08958091490A90914A0A00971B
:1017E00011F00C94360B0895CF93DF93EC018D89A3
:1017F0009E89DC01ED91FC910680F781E02D099531
:1018000061E08F890E94080961E08F890E94A80821
:1018100064E670E080E090E00E94700981E0DF9172
:10182000CF910895FF920F931F93CF93DF931F9251
:10183000CDB7DEB7F42E0EE81EE0D8018D919C9155
:10184000DC01ED91FC91008CF18DE02D0995F80102
:1018500080819181DC01ED91FC91028CF38DE02D72
:1018600040E060E8099581E289834F2D61E0CE0177
:1018700001960E94DA060E94CF060F90DF91CF9169
:101880001F910F91FF9008952F923F924F925F9278
:101890006F927F928F929F92AF92BF92CF92DF9280
:1018A000EF92FF920F931F93CF93DF938C015B0115
:1018B0006A0119010E94A3092B013C01F12CE12CC2
:1018C0000E94A30964197509860997096C157D059D
:1018D0008E059F0508F078C080918E0E90918F0E36
:1018E000DC01ED91FC910280F381E02D09958823C4
:1018F00039F380918E0E90918F0EDC01ED91FC9169
:101900000480F581E02DA501B8010995C82F882331
:10191000B9F280918E0E90918F0EDC01ED91FC91C9
:1019200000A0F1A1E02D0995D82F80918E0E909105
:101930008F0EDC01ED91FC91068CF78DE02D099561
:10194000882E80918E0E90918F0EDC01ED91FC918E
:1019500002A0F3A1E02D0995982E80918E0E909112
:101960008F0EDC01ED91FC9104A0F5A1E02D09950D
:1019700087FDA6CFBFEF8B1631F04D2F692D8EE876
:101980009EE00E94120CED2FF0E0E257F14FDF01D4
:101990001B968385891509F493CFF101D0839C921E
:1019A0008C2FDF91CF911F910F91FF90EF90DF90DF
:1019B000CF90BF90AF909F908F907F906F905F90EF
:1019C0004F903F902F900895C0E0EACF9FB7F894D2
:1019D0008091470A882319F081508093470A8091AB
:1019E000470A811105C08CB58F7B8CBD1092460AC9
:1019F0009FBF08958CB58F778CBD08958CB5806896
:101A00008CBD0895FC01738362830895FC01778384
:101A100066830895FC01758364830895089580E0CA
:101A20000895FC0181850895FC0180850895FC01DD
:101A300087810895FC01868108954095FC012585E4
:101A40004223642B65870895FC0164870895FC0197
:101A500063870895FC0162870895FC0164830895FB
:101A6000FC01658308958F929F92AF92BF92CF92AF
:101A7000DF92EF92FF92CF93DF93EC016B010E9414
:101A8000A3094B015C01F12CE12C0E94A309681908
:101A900079098A099B096C157D058E059F0580F4DF
:101AA0008A819B81039789F381E0DF91CF91FF9039
:101AB000EF90DF90CF90BF90AF909F908F90089560
:101AC00080E0F3CFFC012281338123303105D1F353
:101AD00081E008958F929F92AF92BF92CF92DF9252
:101AE000EF92FF92CF93DF93EC016B010E94A30969
:101AF0004B015C01F12CE12C0E94A30968197909C2
:101B00008A099B096C157D058E059F05A0F4E88167
:101B1000F9810280F381E02DCE010995882361F3DC
:101B2000DF91CF91FF90EF90DF90CF90BF90AF907B
:101B30009F908F90089580E0F3CFCF93DF93EC01D7
:101B4000E881F9810280F381E02DCE010995882397
:101B5000B9F3DF91CF91089581E008951F93CF935A
:101B6000DF93EC01162F88819981DC01ED91FC91C6
:101B70000288F389E02D099588819981DC01ED9136
:101B8000FC910688F789E02D612F09951A83DF9172
:101B9000CF911F910895CF92DF92EF92FF920F9312
:101BA0001F93CF936B017C01142F80918E0E909127
:101BB0008F0EDC01ED91FC910190F081E02D0995F3
:101BC000C82F882309F16091900E8EE89EE00E9454
:101BD000AE0D88E790E09093970E8093960E83E089
:101BE0008093980E612F8EE89EE00E94AE0D0091CA
:101BF0008E0E10918F0EB701A601C8010E94360A01
:101C000061E1C8010E94FA098C2FCF911F910F91B9
:101C1000FF90EF90DF90CF90089585ED8093BC000A
:101C20008091BC0084FDFCCF1092330C089520916C
:101C3000230A260F3327331F21323105ECF420917C
:101C4000330CFC0190E080E0243069F082E00895DC
:101C5000A091230A2191AC014D5F554FA40FB52FE0
:101C6000B11D2C930196861798F38091230A680F73
:101C70006093230A80E0089581E008950895E0913B
:101C8000370C8091360CE81730F4F0E0E953F44F4C
:101C9000808190E008958FEF9FEF08959091370C29
:101CA0008091360C2FEF3FEF981748F4E92FF0E0C2
:101CB000E953F44F208130E09F5F9093370CC901C6
:101CC00008958091360C9091370C891B990B0895DB
:101CD000CF92DF92EF92FF920F931F93CF93DF93F8
:101CE0007C01CB018A0120910B0C222389F0EB01AE
:101CF0006B01C40ED51ECC15DD0569F06991D701C5
:101D0000ED91FC910190F081E02DC7010995F3CF91
:101D1000642F0E94170EC801DF91CF911F910F9180
:101D2000FF90EF90DF90CF900895CF93DF931F92B5
:101D3000CDB7DEB7698320910B0C2223F9F02091F7
:101D4000340C203258F021E030E0FC013383228350
:101D500090E080E00F90DF91CF9108958091350C55
:101D6000E82FF0E0E45FF34F998190838F5F8093D9
:101D7000350C8093340C81E090E0ECCF61E0CE0133
:101D800001960E94170EF7CFCF93C62F91E0909344
:101D90000B0C98E690932C0C1092350C1092340C8E
:101DA000682F81EE99E10E94950E6C2F81EE99E1EA
:101DB0000E94950E81E0CF910C946005CF93CFB730
:101DC000F8948091470A811127C0E8E7F9E08491EF
:101DD000E8E9F9E09491E82FF0E0EE0FFF1FEA5AEE
:101DE000F64FA591B491EC91E92321F461E084E0F0
:101DF0000E94A80861E084E00E9408098CB5806117
:101E00008CBD8CB580648CBD61E087E00E940809C0
:101E100061E085E00E9408098091470A8F5F809306
:101E2000470ACFBFCF910895FC0126813781211544
:101E3000310591F12130310559F12230310551F14F
:101E40002330310549F52CE09CB5937F922B9CBD46
:101E500084819581019711F58CB580628CBD82815A
:101E60009381019784309105E0F48A5B9E4FFC01D9
:101E700090818CB58C7F292F2370822B8CBD8DB5E2
:101E800092FB992790F98E7F892B8DBD0C94DE0EE5
:101E900024E0DACF28E0D8CF20E0D6CF8CB58F7DF4
:101EA000DDCF95E0E6CFCF92DF92EF92FF92CF9316
:101EB000DF9360E08DE10E9408098DE10E943909FD
:101EC000B0E0A0E0BC01CD01660F771F881F991F0D
:101ED0000E944B4E23E333E343E550E40E94AC4EB3
:101EE00020E030E048EC52E40E94AC4E20E030E8C4
:101EF0004FEF53E40E94E44F20E030EC4FE754E40E
:101F00000E9450500E94C250CB0164E670E00E94D3
:101F10000751EB01BC0190E080E00E944B4E20E0B5
:101F200030E048EC52E40E9450506B017C01BE014D
:101F300090E080E00E944B4E9B01AC01C701B601CE
:101F40000E94E44FDF91CF91FF90EF90DF90CF9010
:101F50000895CF92DF92EF92FF92CF93DF9361E0EB
:101F60008EE00E94080960E088E10E94080961E0B3
:101F70008EE00E94A80884EE93E00197F1F788E1D3
:101F80000E943909EC0160E08EE00E94A808BE01C1
:101F900090E080E022E0660F771F881F991F2A9546
:101FA000D1F70E944B4E23E333E343E550E40E9414
:101FB000AC4E20E030E048EC52E40E94AC4E20E011
:101FC00030EC4FEB54E40E94E44F20E030ED4FE35F
:101FD00055E40E9450500E94C250CB0164E670E06C
:101FE0000E940751EB01BC0190E080E00E944B4E43
:101FF00020E030E048EC52E40E9450506B017C013C
:10200000BE0190E080E00E944B4E9B01AC01C701F5
:10201000B6010E94E44FDF91CF91FF90EF90DF90E7
:10202000CF9008958FE39CE00E941008EFE3FCE05E
:10203000A289B3898C918F7E8C93A289B3898C916C
:10204000877F8C93A289B3898C918F778C93A28997
:10205000B3898C918F7D8C93828D818F60E08FE02E
:102060000E94A80860E080E00E94A80860E081E08B
:102070000E94A80882EA90E10E940D0A80B78F773B
:1020800080BFEAE7F0E080818F778083F89485B79E
:10209000806885BF85B7806885BF789483B7817F66
:1020A000846083BF83B7816083BF7894ABE6B0E080
:1020B0008C9184608C93A8E6B0E08C9181608C93C5
:1020C00083B7816083BF889583B78E7F83BF80810C
:1020D000806880830E94A7060E94DE0E61E080E097
:1020E0000E94A80861E081E00C94A8089FB7F894CA
:1020F0002091460A8091A407213019F48DBB9FBF1F
:1021000008958FBF0895CF93DF93EC0161E088813C
:102110000E94A8088091460A81110E9476108B8146
:102120008CBD8C818DBDDF91CF9108958EBD000057
:102130000DB407FEFDCF8EB50895862F0C94961032
:102140002091460A222361F02FB7F8943091460A75
:10215000313049F43DB33093A4073DB33DBB2FBFAD
:102160008CBD9DBD08952093A407FACFCF93DF9334
:10217000EC018CB58B838DB58C838D819E810E9403
:10218000A01060E08881DF91CF910C94A8088F9215
:102190009F92AF92BF92CF92DF92EF92FF920F93F6
:1021A0001F93CF93DF934B015C0128E833E140E0BC
:1021B00050E00E94804F2A31310510F029E130E0D3
:1021C0006901F12CE12CC501B401A7010E94804FE7
:1021D0008901D0E0C0E0C017D107C8F4A0905C0E20
:1021E000B0905D0EC5010E94B61085E00E94961069
:1021F00080E00E949610982EC5010E94831090FEE8
:1022000014C0C701B6010E9470092196E4CF80E096
:10221000DF91CF911F910F91FF90EF90DF90CF90C2
:10222000BF90AF909F908F90089581E0F1CF0F9372
:102230001F93CF93DF93EC01162F442339F040E036
:1022400066E00E941711CE010E948310CE010E9409
:10225000B61085E00E94961080E00E949610082F2C
:10226000CE010E94831000FDF1CFCE010E94B61076
:10227000812FDF91CF911F910F910C949610FF92B7
:102280000F931F93CF93DF93162F072FF82E68EE2F
:1022900073E080E090E00E94C710882301F1C091B4
:1022A0005C0ED0915D0E41E060E2CE010E941711FC
:1022B0008F2D0E949610802F0E949610812F0E94D1
:1022C0009610CE010E94831068EE73E080E090E0EB
:1022D000DF91CF911F910F91FF900C94C71080E078
:1022E000DF91CF911F910F91FF9008952F923F9210
:1022F0004F925F926F927F928F929F92AF92BF9216
:10230000CF92DF92EF92FF920F931F93CF93DF93C1
:102310006C012A013B0119019A01332780E091E009
:10232000821B930B912C812C0115110581F1E80181
:102330008017910708F4EC0141E062E0C6010E94B9
:102340001711862D0E949610852D0E949610842DBF
:102350000E9496105101A80CB91C7501F7018191DA
:102360007F010E949610C7018A199B098C179D074F
:10237000A8F3C6010E9483104C0E5D1E611C711CE7
:102380008C0E9D1E0C1B1D0B80E091E0CDCFDF91CC
:10239000CF911F910F91FF90EF90DF90CF90BF9062
:1023A000AF909F908F907F906F905F904F903F90F5
:1023B0002F900895BF92CF92DF92EF92FF920F93EA
:1023C0001F93CF93DF937C01EA01B62E690140E0B1
:1023D0006BE00E9417118B2D0E9496108D2F0E948A
:1023E00096108C2F0E94961080E00E949610E601B5
:1023F0000C0D1D1DC017D10729F080E00E9496101A
:102400008993F8CFC701DF91CF911F910F91FF9072
:10241000EF90DF90CF90BF900C9483100F931F9399
:10242000CF93DF9300D0CDB7DEB7AB01BC014C5FDB
:102430005F4F6F4F7F4F02E010E09E012F5F3F4FD5
:1024400080915C0E90915D0E0E94DA1120917C0EBD
:1024500030917D0E89819A812817390710F41A82EC
:10246000198289819A810F900F90DF91CF911F91EE
:102470000F910895CF92DF92EF92FF926B017C0152
:102480000E940E129C01009769F0E0917A0EF09183
:102490007B0EBF010E940751009721F02E0F3F1FB6
:1024A000281B390BC701B601620F731F811D911DD7
:1024B000FF90EF90DF90CF900C94FF050F931F9348
:1024C000CF93DF93CDB7DEB760970FB6F894DEBF3A
:1024D0000FBECDBFAB01BC0100E110E09E012F5F3C
:1024E0003F4F80915C0E90915D0E0E94DA11FE01CB
:1024F0003196CE01419621912F3F79F4E817F907E3
:10250000D1F781E060960FB6F894DEBF0FBECDBF65
:10251000DF91CF911F910F91089580E0F3CF4F92FB
:102520005F926F927F92AF92BF92CF92DF92EF92C3
:10253000FF920F931F93CF93DF93CDB7DEB72C9706
:102540000FB6F894DEBF0FBECDBF6B017C015A0100
:10255000FA01108211821282138204E010E09A01C3
:10256000BC01A60180915C0E90915D0E0E94DA1173
:10257000F50180819181A281B3818F3F9F4FAF4F41
:10258000BF4F79F019861A861B861C86C701B601D3
:102590000E943A122B013C01C414D504E604F7044E
:1025A00011F480E054C004E010E09E01275F3F4F2B
:1025B000BC01A20180915C0E90915D0E0E94DA1127
:1025C00049855A856B857C85F50180819181A28141
:1025D000B3810196A11DB11D84179507A607B70702
:1025E00009F451C04F3F5F4F6F4F7F4FD1F6C3018A
:1025F000B2010E945E128823A1F280917A0E90911E
:102600007B0EC81AD90AE108F108CD82DE82EF827A
:10261000F886AE014F5F5F4F6FEFCE0105960E94C7
:102620004513882349F149815A816B817C814F5F31
:102630005F4F6F4F7F4F81E0F501C080D180E28016
:10264000F3804C155D056E057F0509F0AACF2C9629
:102650000FB6F894DEBF0FBECDBFDF91CF911F91B3
:102660000F91FF90EF90DF90CF90BF90AF907F9051
:102670006F905F904F9008956D817E818F819885D6
:102680000E945E12E4CF81E0E2CFCF92DF92EF9220
:10269000FF920F931F93CF93DF93EC01D62E7A0115
:1026A000688179818A819B810E945E12CC24C394C7
:1026B00010E000E0882391F08FEF9FEFDC01F7013D
:1026C00080839183A283B38380E0DF91CF911F91B8
:1026D0000F91FF90EF90DF90CF90089568817981FE
:1026E0008A819B81A7010E948F128111EECFCC209D
:1026F000D9F061E0CE010E944C06688179818A811F
:102700009B810E945E12C82E8111D6CF80917C0ED3
:1027100090917D0E60917A0E70917B0E0E94075110
:1027200060177107D8F6C8CF88819981AA81BB81CB
:1027300040917A0E50917B0E70E060E01D14ACF079
:10274000841B950BA60BB70B88839983AA83BB8345
:10275000688179818A819B810E94FF0568837983E2
:102760008A839B830F5F1F4FC8CF840F951FA61FBF
:10277000B71FEACF2F923F924F925F926F927F9254
:102780008F929F92AF92BF92CF92DF92EF92FF9281
:102790000F931F93CF93DF93CDB7DEB72E970FB66E
:1027A000F894DEBF0FBECDBF8C016D87FC01608148
:1027B0007181828193810E945E128823C9F0F801A1
:1027C00080809180A280B380FD85F13009F4F5C04E
:1027D0008091720E9091730EA091740EB091750E4F
:1027E00075016401C81AD90AEA0AFB0A7D84F3C09C
:1027F00020917A0E30917B0E8091760E9091770E1B
:10280000A091780EB091790E821B930BA109B109AA
:10281000F80180839183A283B383AE01475F5F4F4A
:102820006FEFC8010E94451381110BC0F801608150
:102830007181828193810E945E128111C0CF612CCF
:1028400022C18091720E9091730EA091740EB0917E
:10285000750EF80180839183A283B383AE014B5F31
:102860005F4F61E0C8010E944513F80160817181EA
:1028700022819381811102C0822FDDCF4D805E8045
:102880006F8078846B01E22EF92E8090760E909006
:10289000770EA090780EB090790E8C189D08AE0837
:1028A000BF0822E9222E3324339480917A0E90912E
:1028B0007B0EB0E0A0E088159905AA05BB0520F4C1
:1028C000B694A79497948794FFEF3F1252C0C81410
:1028D000D904EA04FB0408F04CC08091760E909174
:1028E000770EA091780EB091790E4091720E5091B2
:1028F000730E6091740E7091750E841B950BA60B70
:10290000B70B8C0D9D1DAE1DBF1D6C017D01C81840
:10291000D908EA08FB08F801C082D182E282F3827A
:1029200060E0C8010E944C06F801608171818281DB
:1029300093810E945E12811142CFAE014F5F5F4FC3
:10294000632DC8010E944513882341F189819A8132
:10295000AB81BC81F1E03F1219C0481659066A06E6
:102960007B0640F52A94222009F469CF2C013D0111
:102970009CCFA32D032C000CBB0BA50194010E943E
:10298000CC4FC60ED71EE81EF91EC5CF841595057F
:10299000A605B70538F333243394E4CFF8016081FA
:1029A0007181828193810E945E12811108CFD301CF
:1029B000C201D8CF33243A94D5CFC090760ED090B0
:1029C000770EE090780EF090790EC818D908EA08D2
:1029D000FB0877247394F2E9FE87F8016081718126
:1029E000828193810E945E128111C7C0F80120800C
:1029F000318042805380C201B1016627707F9927E0
:102A00007051810991090E94FF050E945E12682E93
:102A10008823E9F0C201B1010E945E12811117C042
:102A2000FD85F130A1F4F80180819181A281B3810B
:102A30008827907FBB2780839183A283B383AE01D5
:102A40004F5F5F4F61E0C8010E9445131CC0AE019B
:102A50004B5F5F4F672DC8010E944513F80140810D
:102A6000518162817381882309F47EC0FD85FF3F17
:102A700021F5CB01BA010E943A120E945E12682E23
:102A8000882309F47EC0862D2E960FB6F894DEBFFB
:102A90000FBECDBFDF91CF911F910F91FF90EF90AF
:102AA000DF90CF90BF90AF909F908F907F906F906E
:102AB0005F904F903F902F90089580917A0E909163
:102AC0007B0E2A013B01481A590A61087108C301AB
:102AD000B2010E945E12682E8111B1CF77247A94E0
:102AE00080917A0E90917B0EB0E0A0E08C159D0550
:102AF000AE05BF0520F4F694E794D794C7948FEF02
:102B0000781242C08C149D04AE04BF04E8F5809195
:102B1000760E9091770EA091780EB091790E40913B
:102B2000720E5091730E6091740E7091750E841B2D
:102B3000950BA60BB70B880D991DAA1DBB1D4C014B
:102B40005D018C189D08AE08BF08F8018082918253
:102B5000A282B38260E0C8010E944C06FE85F1505B
:102B6000FE87F1113ACF6BCECB01BA010E945E1203
:102B7000882309F4B5CF7194B3CF2D852F3F09F485
:102B8000ADCF77247394ACCFA72D072C000CBB0BD3
:102B9000A70196010E94CC4F860E971EA81EB91E53
:102BA000D4CFCF93DF9300D000D0CDB7DEB7AE0146
:102BB0004F5F5F4F0E948F12882359F069817A819D
:102BC0008B819C810F900F900F900F90DF91CF9190
:102BD00008956FEF7FEFCB01F5CF282F30E094E021
:102BE000359527959A95E1F7922F990F990F291B03
:102BF000220F820F0895EF92FF920F931F93CF93AE
:102C0000DF938C01C62FF894F090B20061E0FC01D4
:102C100084850E94A8089C2F80E031E0992329F048
:102C200083272FEF290F9223F9CFF0E88F9FC00160
:102C30001124C82B80E8D9E0982F9C2319F0D1509B
:102C40008695FACF8091B2008F198A31D8F3F0902F
:102C5000B200EE24E394F8018485ED1678F460E088
:102C6000C0FF61E00E94A8088091B2008F198A31EC
:102C7000D8F3F090B200C695E394EDCF60E00E94E7
:102C8000A80878948AE090E08D1B91099AE1899FC9
:102C9000802D11249091B2009F199817D8F3DF91DD
:102CA000CF911F910F91FF90EF900895FC01158631
:102CB00090913D0C80913E0C981799F0E0913D0C5D
:102CC000F0E0EC5AF84F208180913D0C90E00196A5
:102CD0006BE470E00E941B5180933D0C822F90E0CA
:102CE00008958FEF9FEF089590913D0C80913E0CD9
:102CF000981741F0E0913D0CF0E0EC5AF84F8081DC
:102D000090E008958FEF9FEF0895FC018585811174
:102D10000EC080913E0C20913D0C90E0855B9F4F52
:102D2000821B91096BE470E00E941B5108958FEFA4
:102D30009FEF089590E080E00895DC011C969C913F
:102D40001C97ECE6F0E0983050F0E3E7F0E09031CB
:102D500030F0EBE6F0E0983110F4EDE6F0E0808141
:102D6000977021E030E001C0220F9A95EAF7209594
:102D7000282320831C968C91ECE6F0E0883050F0FC
:102D8000E3E7F0E0803130F0EBE6F0E0883110F47A
:102D9000EDE6F0E09081911110C0F0E0E0E08032CB
:102DA00010F4E8E6F0E09081883040F0803140F0A7
:102DB000883140F08EEF8923808308958DEFFBCF1B
:102DC00087EFF9CF8BEFF7CFCF93DF93EC01633031
:102DD000710521F164307105E1F16230710509F08E
:102DE0005FC060E083E00E94080961E083E00E9428
:102DF000080961E083E00E94A80860E08C850E94D9
:102E0000080961E08C850E94080960E08C850E94B9
:102E1000A808CE01DF91CF910C949D1660E083E06D
:102E20000E94080961E083E00E94080961E083E0F4
:102E30000E94A80862E070E080E090E00E947009C3
:102E400060E08C850E94080961E08C850E94080979
:102E5000E0CF61E083E00E94080960E083E00E9427
:102E6000A80862E070E080E090E00E94700960E0F5
:102E70008C850E94A80860E08C850E9408097894DF
:102E800080916800886080936800809173008460FE
:102E9000809373008FEF8093A307DF91CF91089504
:102EA00061E083E00E94080961E083E00E94A808D5
:102EB00060E08C850E94A80860E0C7CF70E060E009
:102EC0008EE79EE00E94E41610923C0C10923B0CA0
:102ED00080913A0C8093B0008091390C8093B100BE
:102EE000089580913B0C90913C0C8E579E4061F070
:102EF00062E070E08EE79EE00E94E4168EE79EE0BE
:102F000090933C0C80933B0C86E990E0A0E0B0E00D
:102F10008093820E9093830EA093840EB093850EBF
:102F200081EF98ED90938D0E80938C0E8091B00080
:102F300080933A0C8091B1008093390C1092B000CC
:102F400086E08093B1000895CF93DF9363E070E053
:102F50008EE79EE00E94E416CEE7DEE061E08C851D
:102F60000E94A8088CE895E60197F1F760E08C854F
:102F70000E94A8088CE496E40197F1F7DF91CF91C5
:102F800008950F931F93CF93DF938C010E94A41792
:102F9000D0E0C0E0D80114968D919C911597C81788
:102FA000D90790F4ED91FC91309759F41092380CB8
:102FB000E8E3FCE060818EE79EE00E94FB1521962D
:102FC000E9CFEC0FFD1FF6CF64E070E08EE79EE0E6
:102FD000DF91CF911F910F910C94E4161F93CF9323
:102FE000DF93EC01162F63E070E00E94E416612F7E
:102FF000CE010E94FB1564E070E0CE010E94E41651
:1030000081E090E0DF91CF911F91089581E080935E
:103010000B0C88E680932C0C1092350C1092340C1B
:1030200060E081EE99E10E94950E81E00E946005CA
:10303000811142C067E088E60E94BD051092370CFE
:103040008093360C81EE99E10E944E0E8F770E949C
:10305000ED158093C00B81EE99E10E944E0E0E9407
:10306000ED158093C10B81EE99E10E944E0E8F7B8E
:103070000E94ED158093C20B81EE99E10E944E0EE5
:103080008093C30B81EE99E10E944E0E0E94ED15D4
:103090008093C40B81EE99E10E944E0E8F770E94BF
:1030A000ED158093C50B81EE99E10E944E0E0E94B2
:1030B000ED15825E8093C60B8091C00B8093FB0957
:1030C0008091C10B80935B0A8091C20B8093FC09B5
:1030D0008091C40B8093FF098091C50B8093000AF7
:1030E0008091C60B90E08E54984F9093FE09809388
:1030F000FD0962E370E080E090E00C947009CF93EA
:1031000091E090930B0C98E690932C0C1092350C58
:103110001092340C682F81EE99E10E94950E81E0A7
:103120000E94600581110DC061E088E60E94BD0526
:103130001092370C8093360C81EE99E10E944E0E6E
:10314000C82F8C2FCF9108951F93CF93DF9381E0E9
:1031500080930B0C88E680932C0C1092350C109207
:10316000340C60E081EE99E10E94950EC0ECDBE04A
:1031700028811AE0822F612F0E94FB50682F660F72
:10318000680F660F620F81EE99E10E94950E29810A
:10319000822F612F0E94FB50682F660F680F660F09
:1031A000620F81EE99E10E94950E2A81822F612F94
:1031B0000E94FB50682F660F680F660F620F81EE4A
:1031C00099E10E94950E6B8181EE99E10E94950E26
:1031D0002C81822F612F0E94FB50682F660F680F91
:1031E000660F620F81EE99E10E94950E2D81822F6C
:1031F000612F0E94FB50682F660F680F660F620FE9
:1032000081EE99E10E94950E2E812E51822F612F21
:103210000E94FB50682F660F680F660F620F81EEE9
:1032200099E10E94950E81E00E946005C82F8FE011
:103230000E947F18682F6F778FE00E94C40E8C2F3A
:10324000DF91CF911F910895CF93DF93C82FD62F91
:103250008EE00E947F184C2F4150550B61E070E0CA
:1032600001C0660F4A95EAF7DD2331F0682B8EE046
:10327000DF91CF910C94C40E60956823F8CFCF9363
:10328000DF93C82F8FE00E947F18C150DD0B21E033
:1032900030E001C0220FCA95EAF7982F922351F02F
:1032A0002095622F68238FE00E94C40E81E0DF9199
:1032B000CF91089580E0FBCF0F931F93CF93DF93BF
:1032C000EC010E94A4178E01FE0101900020E9F795
:1032D0003197EC1BFD0BC8018C1B9D0B8E179F07B4
:1032E00040F4F80161918F018EE79EE00E94FB158A
:1032F000EBCF64E070E08EE79EE0DF91CF911F910D
:103300000F910C94E416FC0101900020E9F731972D
:10331000AF01481B590BBC018FE39CE00C941E07C6
:1033200086ED91E00C948319CF93DF93FC014481E7
:103330005581608171818FE39CE00E941E07EC0142
:103340000E9490198C0F9D1FDF91CF910895CF930C
:10335000DF930E94F507EC010E9490198C0F9D1FCE
:10336000DF91CF910895CF93DF930E94F007EC0196
:103370000E9490198C0F9D1FDF91CF9108958F921D
:103380009F92AF92BF920F931F93CF93DF93CDB7CE
:10339000DEB7A1970FB6F894DEBF0FBECDBF19A25E
:1033A000423008F44AE08E010F5D1F4F842E912CAD
:1033B000B12CA12CA50194010E94804FE62FB901E8
:1033C000CA01EA30F4F4E05DD801EE938D01232BBD
:1033D000242B252B79F790E080E0109719F0CD0190
:1033E0000E948319A1960FB6F894DEBF0FBECDBF21
:1033F000DF91CF911F910F91BF90AF909F908F90D1
:103400000895E95CE1CF682F70E090E080E04AE049
:103410000C94BF19CF93DF930E94031AEC010E9412
:1034200090198C0F9D1FDF91CF910895CF92DF925D
:10343000EF92FF92CF93DF9397FF19C06B017C014E
:103440008DE20E94F007EC0166277727CB016C190B
:103450007D098E099F094AE00E94BF198C0F9D1FAC
:10346000DF91CF91FF90EF90DF90CF9008954AE0E9
:10347000DF91CF91FF90EF90DF90CF900C94BF1928
:10348000CF92DF92EF92FF92CF93DF930E94A30936
:103490006B017C0120E1C20E27E2D21EE11CF11C6F
:1034A0001092020A1092010A0E94A3096C157D0570
:1034B0008E059F0560F58FE39CE00E947C0718163F
:1034C000190694F764E670E080E090E00E947009CD
:1034D0008FE39CE00E947C07D82EC1E0DAE0E09008
:1034E000010AF090020ADC1690F08FE39CE00E9443
:1034F0005B07DE9D9001DF9D300D1124C097280FE2
:10350000391F3093020A2093010ACF5FE8CF609100
:10351000010A7091020A072E000C880B990B0E9479
:10352000161A0E9490196AE070E080E090E0DF9146
:10353000CF91FF90EF90DF90CF900C947009CF93D4
:10354000DF934AE00E94BF19EC010E9490198C0F92
:103550009D1FDF91CF910895CF93DF93D0E0C0E01E
:10356000009719F00E948319EC010E9490198C0FAA
:103570009D1FDF91CF9108958F929F92AF92BF923E
:10358000CF92DF92EF92FF921F93CF93DF93CDB74D
:10359000DEB764970FB6F894DEBF0FBECDBF6B01E8
:1035A0007C0149015A0168E873E180E090E00E94E3
:1035B000C710182F882309F410C2C092720ED0923F
:1035C000730EE092740EF092750E8092760E9092C9
:1035D000770EA092780EB092790E80E290E09093F0
:1035E0007B0E80937A0E80E090E190937D0E809325
:1035F0007C0EF8948FEF9FEFDC0180935E0E90932A
:103600005F0EA093600EB093610E8093620E909354
:10361000630EA093640EB093650E8093660E909334
:10362000670EA093680EB093690E80936A0E909314
:103630006B0EA0936C0EB0936D0E6091720E709134
:10364000730E8091740E9091750E0E945E12882305
:1036500009F4C0C08090720E9090730EA090740E0A
:10366000B090750E6091760E7091770E8091780E05
:103670009091790E681979098A099B099695879521
:1036800077956795680D791D8A1D9B1D0E945E12B6
:10369000882309F49FC08091720E9091730EA091BF
:1036A000740EB091750E898B9A8BAB8BBC8B8D870A
:1036B0009E87AF87B88B69897A898B899C8960934B
:1036C000620E7093630E8093640E9093650ECD84AA
:1036D000DE84EF84F888C0925E0ED0925F0EE09296
:1036E000600EF092610E0E943A126093660E709323
:1036F000670E8093680E9093690E6B017C01CC2459
:1037000020EFD222FF246C157D058E059F0509F060
:10371000A6C160936A0E70936B0E80936C0E9093AB
:103720006D0E60916A0E70916B0E80916C0E90918F
:103730006D0E0E94FF0560936A0E70936B0E80936E
:103740006C0E90936D0E8091620E9091630EA0911D
:10375000640EB091650E0097A048B10508F486C1CB
:1037600010926E0E10926F0E1092700E1092710EDB
:10377000789489ED91E00E94AC1A0E9490196091B2
:103780005E0E70915F0E8091600E9091610E0E94AE
:10379000D1156091620E7091630E8091640E9091CC
:1037A000650E0E94D1158FE39CE00E941008812FC6
:1037B00064960FB6F894DEBF0FBECDBFDF91CF91F8
:1037C0001F91FF90EF90DF90CF90BF90AF909F90B0
:1037D0008F9008958091720E9091730EA091740E47
:1037E000B091750E898B9A8BAB8BBC8BAE014B5F06
:1037F0005F4F6FEFCE0141960E94451381111DC0AE
:103800008091720E9091730EA091740EB091750E0E
:10381000898B9A8BAB8BBC8BAE014B5F5F4F61E0AA
:10382000CE0141960E944513811107C08FEF9FEF93
:10383000DC018D839E83AF83B88720917A0E30910F
:103840007B0E8091760E9091770EA091780EB091BC
:10385000790E821B930BA109B109898B9A8BAB8BD3
:10386000BC8BAE01475F5F4F6FEFCE0141960E9468
:103870004513811107C08FEF9FEFDC0189879A877D
:10388000AB87BC8789849A84AB84BC848091720E98
:103890009091730EA091740EB091750E4D815E8162
:1038A0006F8178854F3F5F4F6F4F7F4F09F18B20BE
:1038B0008A208920809409F096C08D879E87AF87E3
:1038C000B88BAE014F5F5F4F61E0CE010D960E9455
:1038D00045138823E1F120917A0E30917B0E80917F
:1038E000760E9091770EA091780EB091790E9AC0D5
:1038F00020917A0E30917B0E4091760E5091770E8A
:103900006091780E7091790E421B530B6109710919
:103910008B208A208920809409F48DC0498B5A8B92
:103920006B8B7C8B8D879E87AF87B88BAE014F5F8B
:103930005F4F6FEFCE0141960E944513882339F007
:1039400061E0CE010D960E94BA138111B4CE89892F
:103950009A89AB89BC89C816D906EA06FB06E1F547
:103960008D859E85AF85B889C816D906EA06FB06FF
:1039700099F580E090E0A0E8B0E08093620E90932B
:10398000630EA093640EB093650E80935E0E9093C9
:103990005F0EA093600EB093610EC092660ED0923F
:1039A000670EE092680EF092690E80E1D80EE11C7D
:1039B000F11CC0926A0ED0926B0EE0926C0EF092E7
:1039C0006D0E8FEF9FEFDC0180936E0E90936F0E64
:1039D000A093700EB093710E789480EF91E00E94E6
:1039E000AC1A10E0E4CE19861A861B861C864FEFAF
:1039F0005FEFBA014D835E836F8378878D879E87E3
:103A0000AF87B88B61E0CE010D960E94BA13882370
:103A100009F49DCF20917A0E30917B0E8D859E8585
:103A2000AF85B889821B930BA109B109898B9A8B49
:103A3000AB8BBC8B10C08D879E87AF87B88B498BB3
:103A40005A8B6B8B7C8B61E0CE010D960E94BA1372
:103A5000882309F47CCF6FEFCE01419674CF705F5D
:103A60008F4F9F4F6627707F992753CE4EE65EE0BB
:103A700061E082E69EE00E9445137ACECF92DF920B
:103A8000EF92FF921F93CF93DF930E94A3096B01E4
:103A90007C0120E1C20E27E2D21EE11CF11C0E9433
:103AA000A3096C157D058E059F0540F58FE39CE00D
:103AB0000E947C071816190694F764E670E080E00F
:103AC00090E00E9470098FE39CE00E947C07EC016B
:103AD000F82E10E08FE39CE00E945B078D3039F0F8
:103AE0008A3029F0E12FF0E0EE59F54F80831F5F17
:103AF000F11680F7DD27CE59D54F188282E69AE07D
:103B0000DF91CF911F91FF90EF90DF90CF900C94B9
:103B1000AC1A0C9483190E94061865E38BE00E948E
:103B2000C40E68E18CE00E94C40E60E88DE00E9443
:103B3000C40E8EE092E00E94891D82E10E94031A69
:103B400088ED95E00E94891D83E20E940A1A62E3D3
:103B500070E080E090E00C947009CF93DF93482FE1
:103B600050915B0A852F90E0E091440BE4133BC039
:103B7000CE2FD0E08C0F9D1F6CE370E00E941B5194
:103B8000BE010E941B51E69FE02D1124E093E50940
:103B90002091E509822F6AE00E94FB50C82FCC0FCC
:103BA000C80FCC0FC20F60E087E00E94C40E6C2FDC
:103BB00088E00E94C40E60E889E00E94C40E60E8BC
:103BC0008AE00E94C40E80E292E00E94891D8091EA
:103BD000E5090E940A1A62E370E080E090E0DF915C
:103BE000CF910C947009840F911D8C3391053CF09A
:103BF0006CE370E00E941B518093E509C9CF450F2B
:103C00004093E509C5CFCF93DF93EC01888199817B
:103C1000009711F00E94DB51198218821D821C82CC
:103C20001B821A82DF91CF910895FC0180819181DE
:103C30000C94DB512F923F924F925F927F928F9222
:103C40009F92AF92BF92CF92DF92EF92FF920F932B
:103C50001F93CF93DF9300D000D000D0CDB7DEB755
:103C60004B015C01AE014F5F5F4F0E948F12782EB7
:103C700081111DC080E392E00E94AC1A872D269628
:103C80000FB6F894DEBF0FBECDBFDF91CF911F916D
:103C90000F91FF90EF90DF90CF90BF90AF909F90EB
:103CA0008F907F905F904F903F902F90089506E007
:103CB00010E09E012F5F3F4FB501A40180915C0E83
:103CC00090915D0E0E94DA114D805E80620186E067
:103CD000C81AD108C20105970E943F517C0100918A
:103CE000760E1091770E2091780E3091790EB501F5
:103CF000A4014A5F5F4F6F4F7F4FD501C401840D10
:103D0000951DA11DB11D1C012D0180915C0E90918E
:103D10005D0E021513052405350560F506501109E1
:103D20005801A818B908850197010E94DA11860187
:103D30000A191B0997012A0D3B1D4091720E5091E3
:103D4000730E6091740E7091750E80915C0E90915F
:103D50005D0E0E94DA11F701EC0DFD1D1082C70106
:103D60000E94AC1A8FE39CE00E941008C7010E94D9
:103D7000DB5184CF86019701ECCF2F923F924F9277
:103D80005F926F927F928F929F92AF92BF92CF92EB
:103D9000DF92EF92FF920F931F93CF93DF93CDB7F4
:103DA000DEB72A970FB6F894DEBF0FBECDBFFC0179
:103DB000698304811581C80187509F4F6AEF70E0C5
:103DC0000E940751662309F42AC129812A874F01DD
:103DD0006150698790E080E0212C312C21013394DF
:103DE0000115110509F41BC10B3F110550F15C01D0
:103DF0003AEFA30EB11C0A5F110966246394712C7B
:103E0000681A790A6A0C7B1C49854093990FAAE9C4
:103E1000BFE08A159B05D8F4F4012481358182170F
:103E2000930738F420813181F901E80FF91F232B22
:103E300021F41092380CE8E3FCE020812D930196E8
:103E4000E8CF5801A80EB91E10E000E0D6CFF090E0
:103E5000950EF394F092950EC12CEE24E394EC0CA5
:103E60008091980E8C1508F4F4C080918E0E90917C
:103E70008F0EDC01ED91FC91008CF18DE02D6F2D0A
:103E8000099580918E0E90918F0EDC01ED91FC9141
:103E9000028CF38DE02D40E860E009954A85662D9F
:103EA00089E99FE00E94DA060E94CF06BA85BF3FEB
:103EB00009F4D1C0E1E0EE1598F48091910E909153
:103EC000920EA091930EB091940E0196A11DB11D7A
:103ED0008093910E9093920EA093930EB093940EB4
:103EE0000E94A30969837A838B839C83C090960E7A
:103EF000D090970E0E941F4BA20191010E94A24FE9
:103F00009B01AC01D6010E94C14FA20191010E9408
:103F1000A24F2C0D3D1DCE2CC901B0E0A0E08D8339
:103F20009E83AF83B8870E94A30929813A814B8180
:103F30005C81621B730B840B950B2D813E814F813D
:103F40005885621773078407950708F086CF80911C
:103F50008E0E90918F0EDC01ED91FC910280F38129
:103F6000E02D09958823F9F280918E0E90918F0EA5
:103F7000DC01ED91FC910480F581E02D50E040E002
:103F800070E060E00995882371F280918E0E909127
:103F90008F0EDC01ED91FC9100A0F1A1E02D0995BF
:103FA000D82E80918E0E90918F0EDC01ED91FC91B8
:103FB000068CF78DE02D0995782E80918E0E9091CC
:103FC0008F0EDC01ED91FC9102A0F3A1E02D09958B
:103FD000E82E80918E0E90918F0EDC01ED91FC9178
:103FE00004A0F5A1E02D0995BA85BD1108C09091F6
:103FF000900E971104C087FF02C0FE1461F187FD87
:1040000092CFED2DF0E0E257F14F83858E118BCFEB
:104010004D2D6E2D8EE89EE00E94120C84CF81E023
:104020002A960FB6F894DEBF0FBECDBFDF91CF91B9
:104030001F910F91FF90EF90DF90CF90BF90AF90C6
:104040009F908F907F906F905F904F903F902F90B8
:10405000089580E0E5CFE985E150E987C501C0CE4C
:104060000E9445530F931F93CF93DF93EC018881F8
:104070009981009759F02A813B812617370730F044
:1040800081E0DF91CF911F910F9108958B016F5FB8
:104090007F4F0E946452009759F0998388831B8355
:1040A0000A832C813D81232B59F7FC011082E8CF34
:1040B00080E0E7CFEF92FF920F931F93CF93DF93B0
:1040C0006115710541F480E0DF91CF911F910F914F
:1040D000FF90EF90089541155105B1F07B01EC017F
:1040E0000C811D81040F151FB8010E943220882306
:1040F00051F3288139818C819D81B701820F931FF3
:104100000E946E531D830C8381E0DECF0F931F93BB
:10411000CF93DF9300D000D0CDB7DEB74AE08E0159
:104120000F5F1F4FB80190E00E94894BF80101908A
:104130000020E9F73197AF01401B510BB8018DEB1F
:1041400091E10E945A200F900F900F900F90DF91F5
:10415000CF911F910F9108950F931F93CF93DF93EA
:10416000CDB7DEB764970FB6F894DEBF0FBECDBFF4
:104170008E010F5F1F4F22E044E00E94B54AFC0110
:1041800001900020E9F73197AF01481B590BBC01A2
:104190008DEB91E10E945A2064960FB6F894DEBF31
:1041A0000FBECDBFDF91CF911F910F910895CF9397
:1041B000DF9300D0CDB7DEB769831A8241E050E0CB
:1041C000BE016F5F7F4F0E945A200F900F90DF91CA
:1041D000CF910895FB0101900020E9F73197AF01DD
:1041E000461B570B0C945A20EF92FF920F931F938C
:1041F000CF93DF93EC017B018A01BA010E94322048
:1042000081110BC0CE010E94031ECE01DF91CF9120
:104210001F910F91FF90EF9008951D830C83B701BC
:10422000888199810E946E53F0CFFC011182108227
:10423000138212821582148250E040E068ED71E032
:104240000C94F420CF93DF9300D000D000D0CDB7F2
:10425000DEB70E94711764E670E080E090E00E9493
:104260007009CE0101960E9415216091F909CE01D5
:1042700001960E94D72068E472E0CE0101960E9468
:10428000EA20CE0101960E94C1176CE271E080E045
:1042900090E00E9470098EE79EE00E948516892BAF
:1042A00029F08EE79EE00E945616F5CF64E170E09B
:1042B00080E090E00E9470090E945E1764E170E067
:1042C00080E090E00E947009CE0101960E94151EC8
:1042D00026960FB6F894DEBF0FBECDBFDF91CF910B
:1042E0000895CF93DF9300D000D000D0CDB7DEB7D4
:1042F0000E94711764E670E080E090E00E9470090F
:10430000CE0101960E9415216091F909CE01019616
:104310000E94D7206CE472E0CE0101960E94EA2050
:10432000CE0101960E94C1176CE271E080E090E03E
:104330000E9470098EE79EE00E948516892B29F065
:104340008EE79EE00E945616F5CF64E170E080E0B3
:1043500090E00E9470090E945E1764E170E080E0C6
:1043600090E00E947009CE0101960E94151E2696CB
:104370000FB6F894DEBF0FBECDBFDF91CF91089589
:10438000FB0101900020E9F73197AF01461B570B65
:104390000C94F4200F931F93CF93DF9300D000D0A1
:1043A00000D0CDB7DEB7182FCE0101960E9415219F
:1043B00068ED71E0CE0101960E94C021612FCE010F
:1043C00001960E94D72062E474E0CE0101960E941B
:1043D000EA2003E010E0CE0101960E94C11764E6D6
:1043E00070E080E090E00E9470098EE79EE00E94FD
:1043F0008516181619064CF064E670E080E090E02F
:104400000E9470090150110931F78EE79EE00E9469
:10441000851602979CF00E94570511E0CE01019687
:104420000E94151E812F26960FB6F894DEBF0FBE90
:10443000CDBFDF91CF911F910F9108950E94570535
:1044400010E0ECCFCF93DF93EC01FB0186179707C9
:1044500049F0608171816115710541F04481558198
:104460000E94F420CE01DF91CF9108950E94031E97
:10447000F9CFCF93DF9300D000D000D0CDB7DEB717
:104480001A8219821C821B821E821D826DEB71E1D1
:10449000CE0101960E9422224091C7115091C8116D
:1044A0006091C3117091C411CE0101960E945A20EF
:1044B000811104C0CE0101960E94031EBE016F5FF0
:1044C0007F4F83EC91E10E942222CE0101960E944F
:1044D000151E64E670E080E090E00E94700983ECB5
:1044E00091E10E94941962E370E080E090E00E9404
:1044F000700926960FB6F894DEBF0FBECDBFDF91D0
:10450000CF910895CF92DF92EF92FF920F931F9376
:10451000CF93DF93EC017B018A01E881F98102806E
:10452000F381E02D0995D82E882329F1E114F104B7
:10453000D1F001151105B9F0CFB6F8948A8D8350EA
:10454000990BF8012081281719061CF08A8D8450D8
:104550008083F801408150E0BE01615E7F4FC7015A
:104560000E944A53CFBE8FB7F894FE01E65EFE4F1D
:1045700010821A8E8FBF8D2DDF91CF911F910F91D9
:10458000FF90EF90DF90CF900895EF92FF920F93FE
:104590001F93CF93DF9300D01F92CDB7DEB78C016E
:1045A0000E94F40BE82E81110CC0E12C8E2D0F908F
:1045B0000F900F90DF91CF911F910F91FF90EF908F
:1045C0000895F801808D8A3009F47EC08B3009F49B
:1045D0007DC022E0F22E823041F740E861E0C80160
:1045E0000E94CA096AE070E080E090E00E947009D1
:1045F00061E0C8010E940A0B8038B9F660E0F8015A
:10460000808D0E940809F801818D8F3F49F48091C7
:10461000480A843050F691E0980F9093480A818FB1
:10462000F801818DE82FF0E0EE0FFF1FE75BF54FFB
:10463000118300836BEE7BE0882349F062EE7BE020
:10464000813029F0823009F0B0CF69ED7BE08F2D09
:104650000E94FD0640E06EE0C8010E94CA0940E0E9
:104660006FE0C8010E94CA09C8010E94220A43E003
:1046700050E06AE479E0CE0101960E94804B4981C6
:104680006DE1C8010E94CA094A816EE1C8010E9419
:10469000CA094B8166E2C8010E94CA0940E060E293
:1046A000C8010E94CA0948E061E2C8010E94CA0923
:1046B00040E050EC64E674E4C8010E94360A6DE004
:1046C000C8010E94FA0972CFF12C87CFFF24F3941E
:1046D00084CF2F923F924F925F926F927F928F92F0
:1046E0009F92AF92BF92CF92DF92EF92FF920F9381
:1046F0001F93CF93DF93CDB7DEB764970FB6F894CF
:10470000DEBF0FBECDBFCDB6DEB6DE86CD860E9443
:104710003922E090C711F090C811FC8AEB8A2DB7BE
:104720003EB72E193F090FB6F8943EBF0FBE2DBFFE
:104730008DB79EB701965C016091C3117091C41151
:10474000A7010E944A5380917C0E90917D0E06979E
:104750008E159F05C0F580E592E00E94AC1A80E5B9
:1047600091E00E94A01060E087E10E94A80889EB18
:104770000E94961061E087E10E94A8088091460A95
:1047800081110E947610ED84FE840FB6F894FEBE6F
:104790000FBEEDBE64960FB6F894DEBF0FBECDBF60
:1047A000DF91CF911F910F91FF90EF90DF90CF900D
:1047B000BF90AF909F908F907F906F905F904F9041
:1047C0003F902F9008952DB63EB640906E0E5090BB
:1047D0006F0E6090700E7090710E9FEF491A590A1B
:1047E000690A790AEB88FC88A6E0EA0EF11C0091C0
:1047F0007A0E10917B0EC701B8010E9407510097F5
:1048000009F461C10E0D1F1D081B190BEDB7FEB792
:10481000E01BF10B0FB6F894FEBF0FBEEDBF2DB736
:104820003EB72F5F3F4F4901ADB7BEB711964D92CE
:104830005D926D927C921497F901F582E4828DB7B6
:104840009EB707964B895C89B5010E944A53A8011F
:104850004E195F0970E060E0C4018E0D9F1D0E943B
:1048600053532801712C612C4091660E5091670EB4
:104870006091680E7091690EC090760ED090770EA0
:10488000E090780EF090790ECF86D88AE98AFA8A7D
:10489000D301C801840F951FA61FB71FE0915C0EBE
:1048A000F0915D0EC816D906EA06FB0608F00DC1A8
:1048B0005601A41AB50A7801EA18FB08850194018B
:1048C000CF010E94761164EF71E080E090E00E94D9
:1048D000C71094012A0D3B1D4091720E5091730E2A
:1048E0006091740E7091750E870180915C0E9091AD
:1048F0005D0E0E9476118090660E9090670EA090DB
:10490000680EB090690E80916E0E90916F0EA0911E
:10491000700EB091710E0196A11DB11D80936E0EA7
:1049200090936F0EA093700EB093710EC301B201FD
:10493000680D791D8A1D9B1D0E94FF056093660E00
:104940007093670E8093680E9093690E705F8F4F1F
:104950009F4F6627707F99270E94FF052B013C011E
:104960000E945E12811128C0C301B2010E943F1152
:10497000C301B201705F8F4F9F4F6627707F9927E9
:104980000E94FF056D837E838F839887AE014F5F02
:104990005F4F61E0CE0105960E944513882361F0C8
:1049A0008D819E81AF81B88580935E0E90935F0E5E
:1049B000A093600EB093610E40926A0E50926B0EFF
:1049C00060926C0E70926D0E8092620E9092630EE9
:1049D000A092640EB092650E80915E0E90915F0E73
:1049E000A091600EB091610E0097A048B10540F013
:1049F00080925E0E90925F0EA092600EB092610E59
:104A00000FB6F8943EBE0FBE2DBE6091620E70913F
:104A1000630E8091640E9091650E0E940E127C01CF
:104A20006091620E7091630E8091640E9091650E9C
:104A30000E940E128C01009769F020917A0E30913D
:104A40007B0EB9010E940751009721F0020F131F3E
:104A5000081B190B85E692E00E94891D60916E0E7D
:104A600070916F0E8091700E9091710E0E949F1A3E
:104A700085E792E00E94891D83EC91E10E949419E0
:104A80008CE792E00E94891DCB88DC88B60190E01B
:104A900080E04AE00E94BF1988E892E00E94891DE8
:104AA000B70190E080E04AE00E94BF1985E992E0FA
:104AB0000E94891DB80190E080E04AE00E94BF1981
:104AC0000E9490194CCE8701A1CE9401CF0111CF45
:104AD0002F923F924F925F926F927F928F929F920E
:104AE000AF92BF92CF92DF92EF92FF920F931F93FC
:104AF000CF93DF93CDB7DEB7C95FD1090FB6F89476
:104B0000DEBF0FBECDBF2DB73EB7C051DF4F3983DB
:104B10002883C05FD04068ED71E083EC91E10E9492
:104B2000C0210E94711764EF71E080E090E00E9464
:104B30007009712CAE014F5F5F4F2A016091DD0259
:104B40007091DE028091DF029091E002CE50DF4F43
:104B5000688379838A839B83C25FD0408091E1021E
:104B60009091E202A091E302B091E402CA50DF4FBB
:104B700088839983AA83BB83C65FD0408091FA095A
:104B8000781608F0CDC490E8799E80011124F801D0
:104B9000EF51FE4E90807092F40967EA72E0C8010E
:104BA0008A5F9D4E0E946553892B09F0ABC08EE051
:104BB0008093F30981E08093F20964E670E080E07D
:104BC00090E00E9470098090F209882009F477C370
:104BD000C253DF4F9882CE5CD040C153DF4F188262
:104BE000CF5CD040A090F409B12C85011695102F10
:104BF00000271795079567EA72E0C8018A5F9D4E06
:104C00000E9465536CEA72E0892B11F460EB72E04C
:104C1000CE0181529F4F0E946E53BE0161527F4F61
:104C2000CE0182539F4F0E945A53CE0182539F4F11
:104C30000E945C1964EF71E080E090E00E947009CE
:104C40008EE79EE00E948516843008F4EEC32DB7EF
:104C50003EB7C451DF4F39832883CC5ED040C85360
:104C6000DF4F1882C85CD040AE0142585F4F7A01D6
:104C700010E000E0D12CB02E8EE79EE00E94561688
:104C8000D7018D937D018D3009F0B3C0EEE7F0E0E0
:104C9000EC0FFD1FE00FF11F10820E945705BD0CA5
:104CA0002B2C312C810101501109EDB7FEB7E2190F
:104CB000F3090FB6F894FEBF0FBEEDBF2DB73EB798
:104CC0002F5F3F4F7901D12CCC24C3949EE7A92EAE
:104CD000DB1408F0A7C0EEE7F0E0EC0FFD1FEC0DD1
:104CE000F11D8081F701ED0DF11D8B3209F091C0AE
:104CF000A082C39465E070E080E090E00E947009BB
:104D0000D394E6CFC801855F9D4E0E945C1964E68E
:104D100070E080E090E00E9470098EE79EE00E94C3
:104D20008516181619060CF05BC0ADB6BEB681E04C
:104D30008093F2098EE79EE00E948516882E8C01F2
:104D40001127ADB7BEB7A01BB10B0FB6F894BEBF0D
:104D50000FBEADBFEDB7FEB731966F016E2E7F016E
:104D60008E2D8619881540F48EE79EE00E94561617
:104D7000D7018D937D01F4CF0C0D1D1DF8013497E3
:104D80002081022E000C330B20533109E8EEF3E0B2
:104D90002E9FC0012F9F900D3E9F900D1124909348
:104DA000F1098093F00903501109D8018C918053C7
:104DB0008093F3090FB6F894BEBE0FBEADBE6091EE
:104DC000F0097091F109072E000C880B990B0E94D5
:104DD00070090E94570562E370E080E090E0F1CE38
:104DE000E8EEF3E0F093F109E093F0091092F20994
:104DF000E6CF8D3209F4D3946AE070E080E090E071
:104E00000E9470090F5F1F4F0B34110509F033CF5B
:104E100044CF8D3229F4D394A082F701ED0DF11D1A
:104E2000808367CFF701E00FF11F10828091F409B2
:104E3000482F50E0C951DF4F59834883C75ED040A7
:104E40008A011695102F00271795079564EB72E0DD
:104E5000C8018A5F9D4E0E9465532091FA09622F16
:104E60006150770BC751DF4F79836883C95ED040AB
:104E7000D801A05FBD4ECD51DF4FB983A883C35E7B
:104E8000D040F801EE51FE4ECB51DF4FF983E8835D
:104E9000C55ED040892B09F061C22DB73EB7C25123
:104EA000DF4F39832883CE5ED0404DB75EB74219BD
:104EB00053090FB6F8945EBF0FBE4DBF0DB71EB7B6
:104EC0000F5F1F4F9E2D6801D801F7018E2F891BA0
:104ED0008B1518F481918D93F9CFCE50DF4F6881F7
:104EE00079818A819B81C25FD040C552DF4F688340
:104EF00079838A839B83CB5DD040D8011196EC9057
:104F00001197C952DF4FE882C75DD04012968C914D
:104F10001297C852DF4F8883C85DD0401396FC902B
:104F2000C752DF4FF882C95DD040C652DF4F1882AA
:104F3000CA5DD040BE0169527F4FCE0185529F4F5E
:104F40000E946553892BD9F0F80180E091919E323F
:104F500009F492C08F5F8530C9F790E0DC011197AA
:104F6000A00FB11F2C91F801E80FF91F20830297C1
:104F7000F801E80FF91F80818C938EE280836EE741
:104F800070E0C8010E948453DC0111961C9264E118
:104F900070E080E090E00E947009C753DF4F988274
:104FA000C95CD040C653DF4F1882CA5CD040CA509B
:104FB000DF4F288139814A815B81C65FD040CD5265
:104FC000DF4F288339834A835B83C35DD040BE01B2
:104FD0006D527F4FCE0187539F4F0E945A53CE018F
:104FE00087539F4F0E945C1964EF71E080E090E06E
:104FF0000E9470098EE79EE00E9485165C01BB242A
:105000009501225031094DB75EB7421B530B0FB6C5
:10501000F8945EBF0FBE4DBF6DB77EB76F5F7F4F19
:105020007B01863008F47DC0612C71E0A71AB108BD
:10503000C62CD12CCA14DB040CF073C08EE79EE0A2
:105040000E9456168D3009F455C08A3009F464C0A8
:10505000981609F455C08B3209F458C08D3209F402
:1050600055C0F701EC0DFD1D80836FE070E080E01E
:1050700090E00E94700942C0823009F06ECF2DB7D7
:105080003EB7EDB7FEB7E219F3090FB6F894FEBFCD
:105090000FBEEDBF3196D8018C91ADB7BEB711965A
:1050A0008C93918380E38283E382F48244E0842FB3
:1050B00090E08215930560F09E2FDF018A2F891BF7
:1050C0008215130488F48D91F60181936F01F6CF58
:1050D000BF01680F791F800F911FDC018C91DB01EC
:1050E00011968C934F5FE3CF0FB6F8943EBF0FBE7F
:1050F0002DBF45CFF701EC0DFD1D1082639498CFB5
:105100008BE2981619F09DE2991209C0F701EC0D97
:10511000FD1DAEE7A083A9CFBAE09B12EFCF6A9442
:10512000EDCF6EE770E0C7010E9484538E199F098E
:10513000382FF701E80FF11D91E02FEF290F93179A
:1051400060F482918E3749F0232F291BC551DF4F20
:105150002883CB5ED0409F5FF0CF822F90E0AC01E0
:105160004F5F5F4F6DB77EB7641B750B0FB6F8943A
:105170007EBF0FBE6DBFADB7BEB711966D01D70133
:10518000C551DF4FE881CB5ED040AE0FB11D4C2D35
:10519000F6013E2F341B321718F43D913193F9CFAD
:1051A000F601E80FF91F1082820D931D01962DB7AD
:1051B0003EB7281B390B0FB6F8943EBF0FBE2DBF6C
:1051C0004DB75EB74F5F5F4F7A018EE7ADB7BEB7A1
:1051D00011968C93B801CA010E946E5364E170E08D
:1051E00080E090E00E947009B601C7010E945A5306
:1051F00064E170E080E090E00E947009C951DF4FE7
:10520000E881F981C75ED040C751DF4F28813981DD
:10521000C95ED040E217F30709F474C0FF92EF9221
:10522000CC51DF4F3881C45ED0403F93CD51DF4F2A
:105230004881C35ED0404F93CA51DF4F5881C65E4C
:10524000D0405F93CB51DF4F6881C55ED0406F93F4
:1052500089EB92E09F938F935F924F920E94A953A4
:105260008DB79EB70A960FB6F8949EBF0FBE8DBF3E
:1052700062E370E080E090E00E947009B20183EC8C
:1052800091E10E94EA2062E370E080E090E00E94F9
:105290007009C251DF4F48815981CE5ED0400FB6B0
:1052A000F8945EBF0FBE4DBFC451DF4FA881B981D6
:1052B000CC5ED0400FB6F894BEBF0FBEADBF62E368
:1052C00070E080E090E00E94700981100BC0B20194
:1052D00083EC91E10E94EA2062E370E080E090E0DC
:1052E0000E9470090E94570562E370E080E090E040
:1052F0000E94700964EF71E080E090E00E94700904
:1053000073943CCCFF92EF92CC51DF4F9881C45EF6
:10531000D0409F93CD51DF4FA881C35ED040AF9363
:10532000CA51DF4FB881C65ED040BF93CB51DF4F2B
:10533000E881C55ED040EF9382EC92E09F938F931B
:105340005F924F920E94A9532DB73EB7265F3F4F01
:105350000FB6F8943EBF0FBE2DBF8ACFC951DF4FA5
:1053600068817981C75ED040C751DF4F88819981BC
:10537000C95ED0406817790769F1FF92EF92CC516E
:10538000DF4F9881C45ED0409F93CD51DF4FA881FD
:10539000C35ED040AF93CA51DF4FB881C65ED040E4
:1053A000BF93CB51DF4FE881C55ED040EF9389EBCF
:1053B00092E09F938F935F924F920E94A9532DB7D3
:1053C0003EB7265F3F4F0FB6F8943EBF0FBE2DBFCE
:1053D000812C6ACFFF92EF92CC51DF4F3881C45EAF
:1053E000D0403F93CD51DF4F4881C35ED0404F93B3
:1053F000CA51DF4F5881C65ED0405F93CB51DF4F1B
:105400006881C55ED0406F9382EC92E09F938F934A
:105410005F924F920E94A9538DB79EB70A960FB61E
:10542000F8949EBF0FBE8DBFD3CF8DB69EB686E0DB
:10543000E5EEF2E0DE01A258BF4F01900D928A9591
:10544000E1F7C090F3098C2D880F8C0D880FEDB714
:10545000FEB7E81BF1090FB6F894FEBF0FBEEDBF13
:105460002DB73EB72F5F3F4F79011901BE0162583A
:105470007F4FC9010E946E5331E03C1580F4612CCE
:105480004C2D4150550B6A016C141D0444F4BE01AF
:1054900062587F4FC1010E945A536394F5CFC801EF
:1054A000805F9D4E0E511E4E2091FA092150330B04
:1054B000A216B306F1F0FF92EF929F938F931F9382
:1054C0000F938AEC92E09F938F935F924F920E948A
:1054D000A9536DB77EB7665F7F4F0FB6F8947EBF56
:1054E0000FBE6DBF0FB6F8949EBE0FBE8DBE812C51
:1054F000E6CEFF92EF929F938F931F930F9384EDCD
:1055000092E09F938F935F924F920E94A9538DB721
:105510009EB70A960FB6F8949EBF0FBE8DBFE2CF1E
:105520000E945E1762E370E080E090E00E947009E4
:10553000C051DF4FA881B981C05FD0400FB6F89449
:10554000BEBF0FBEADBFC750DF4F0FB6F894DEBF72
:105550000FBECDBFDF91CF911F910F91FF90EF90C4
:10556000DF90CF90BF90AF909F908F907F906F9083
:105570005F904F903F902F9008952F923F924F92BF
:105580005F926F927F928F929F92AF92BF92CF92D3
:10559000DF92EF92FF920F931F93CF93DF93CDB7DC
:1055A000DEB7A8970FB6F894DEBF0FBECDBF0E943E
:1055B000DE0E68EC70E080E090E00E94700960917F
:1055C000590A70915A0A90E080E00E944B4E409137
:1055D00099100E94CB0D811104C08BEE92E00E94C5
:1055E000AC1A84E189A31092EF0988EF92E00E943F
:1055F000AC1A0E94A3091B012C0180910C01882385
:1056000009F4B9C0C090EB09D090EC09E090ED0925
:10561000F090EE0920E8C20E2CE2D21E20E8E21E35
:10562000F11C8091E7099091E809A091E909B091F6
:10563000EA09C81AD90AEA0AFB0A8FE093E00E9435
:10564000891DC701B6010E94161A0E9490198E0189
:105650000F5F1F4F3E0135E1630E711C4E0187E164
:10566000880E911C9E01275E3F4F3CA32BA3CE01C9
:105670004B969EA38DA32C5F3F4F38A72FA35E01AF
:105680003FE1A30EB11C8091EF098111B2C00E94CD
:10569000A30962197309840995096C157D058E05A6
:1056A0009F0508F086C00E9406189E012E5D3F4FA0
:1056B00040ED57E0BE016F5D7F4FC8010E94440C72
:1056C000882309F389A18823F1F27F926F929F9238
:1056D0008F928CA18F939BA19F932EA12F933DA17D
:1056E0003F9388A58F939FA19F93BF92AF922DE187
:1056F00033E03F932F931F930F930E94D9530FB61C
:10570000F894DEBF0FBECDBF892B09F4BCCF8F8DBF
:1057100098A1813D37E093070CF4B5CF825B80936D
:10572000C60B8D8D8093C50B8B8D8093C40B898D9B
:105730008093C20B8F898093C10B8D898093C00B9E
:105740000E94A41865E070E080E090E00E9470097B
:1057500081E08093EF098FE293E00E94891DC801E8
:105760000E94AC1A6091450B83EC91E10E94BD1E32
:105770000E94061888CF8091E609833079F4A091C1
:10578000440BB0E0119620E63AEE0E9438516B01CE
:105790007C0160E082E00E94241959CF80E6C82E87
:1057A0008AEED82EE12CF12C52CF8F5F8093E60940
:1057B00018C080910C0181111CC08091E6098330D2
:1057C000A0F38FE00E947F18823049F40E948B1D65
:1057D00082E00E943F1961E082E00E942419109249
:1057E000E60988E493E00E94891D8091E6090E9401
:1057F0000A1AA8960FB6F894DEBF0FBECDBFDF9190
:10580000CF911F910F91FF90EF90DF90CF90BF90BD
:10581000AF909F908F907F906F905F904F903F9050
:105820002F9008952F923F924F925F926F927F92A6
:105830008F929F92AF92BF92CF92DF92EF92FF92A0
:105840000F931F93CF93DF93CDB7DEB761970FB65A
:10585000F894DEBF0FBECDBF182F4090FA09842CFC
:10586000912C0E945705CE0101960E941521612FAF
:10587000CE0101960E94D72064E573E0CE01019627
:105880000E94EA20CE0101960E94C11765E372E0F2
:1058900080E090E00E9470098EE79EE00E948516ED
:1058A0006C01B82E24E2429EC0011124FC01EB558C
:1058B000F84F7F0110E000E00B15A8F48EE79EE0A2
:1058C0000E9456168A3061F08D3051F0F701E00FDA
:1058D000F11F808368E070E080E090E00E94700932
:1058E0000F5F1F4FE9CF84011695102F00271795E2
:1058F000079598012F513E4E190184E2889DF001D1
:10590000899DF00D1124EB55F84F8081F9018083BA
:10591000DD24A601B701C8018E519E4E0E94755329
:10592000C20CD31CF6013197108298012A5F3D4EBC
:105930003901C801855F9D4E4C019EE2C92E91E060
:10594000D92E198A512CF601A080B180B501C7016A
:105950000E948F53FC01DE011C969C012C5F3F4F7F
:10596000CD0141914D932E173F07D9F7188AB50104
:105970000E946553892BD9F544E050E0B501C3017D
:105980000E947553F10180818F836AE070E080E0AE
:1059900090E00E9470091886F60162817381CE0141
:1059A00007960E945A536AE070E080E090E00E94FF
:1059B00070098985813209F41A8645E050E0BE01FC
:1059C000695F7F4FC4010E94755364E170E080E01D
:1059D00090E00E947009F3E05F1207C0F10180813E
:1059E0008093F909F1E0F0935C0A21E0298B53944C
:1059F00034E0C30ED11C86E05812A5CF99899111CD
:105A00001BC084E0E7E5F3E0D30101900D928A9595
:105A1000E1F7F801EF51FE4E80818F836CE573E072
:105A2000CE0107960E945A5345E050E0BE01695FDF
:105A30007F4FC4010E9475538FE39CE00E941008C1
:105A4000CE0101960E94151E43944092FA09619678
:105A50000FB6F894DEBF0FBECDBFDF91CF911F917F
:105A60000F91FF90EF90DF90CF90BF90AF909F90FD
:105A70008F907F906F905F904F903F902F90089500
:105A8000CF930E94711764E670E080E090E00E947E
:105A9000700987E991E00E94A7190E949019C0E35C
:105AA0008C2F0E94CA21882319F08C2F0E94122C5F
:105AB000CF5FCA33A9F7C1E68C2F0E94CA21882381
:105AC00019F08C2F0E94122CCF5FCB37A9F7C1E4BD
:105AD0008C2F0E94CA21882319F08C2F0E94122C2F
