:100000000C94F8040C949A3D0C946F3D0C94443D70
:100010000C9419400C9422050C9422050C94354044
:100020000C9422050C9422050C9422050C942205B4
:100030000C9422050C94C53D0C9422050C942205C9
:100040000C9422050C9422050C94FA3C0C94220585
:100050000C94C53C0C949B3C0C9422050C942205FA
:100060000C9422050C9422050C94F53E0C94220568
:100070000C9422050C9422050C9422050C94220564
:100080000C9422050C9422050C94220500407A1051
:10009000F35A00A0724E18090010A5D4E80000E839
:1000A0007648170000E40B54020000CA9A3B000097
:1000B00000E1F505000080969800000040420F0026
:1000C0000000A08601000000102700000000E803E7
:1000D000000000006400000000000A0000000000B2
:1000E0000100000000002C76D888DC674F0823DF71
:1000F000C1DFAE59E1B1B796E5E3E453C63AE65144
:10010000997696E8E6C28426EB898C9B62ED407C6A
:100110006FFCEFBC9C9F40F2BAA56FA5F490055A06
:100120002AF75C936B6CF9676DC11BFCE0E40D472B
:10013000FEF520E6B500D0ED902E0300943577054E
:100140000080841E080000204E0A000000C80C3306
:100150003333330F986E12831141EF8D2114893B95
:10016000E65516CFFEE6DB18D1844B381BF77C1D15
:10017000901DA4BBE424203284725E228100C9F168
:1001800024ECA1E53D276364696E6F707375785840
:100190005B00446F6E65005363616E6E696E67202D
:1001A000666F72205344492D31322073656E736F30
:1001B00072732E2E2E002020696E707574206D696A
:1001C0006E7574653A20002020696E707574206821
:1001D0006F75723A202020002020696E707574209F
:1001E000796561723A202020002020696E70757454
:1001F000206461793A20202020002020696E7075EB
:1002000074206D6F6E74683A202000456E746572BC
:1002100020746865206461746520616E642074696F
:100220006D6520696E20436F6F7264696E617465DD
:100230006420556E6976657273616C2054696D65D2
:100240002028555443293A200020202020456E7450
:100250006572204761746577617920726164696FA6
:100260002049443A200041726520796F75207573EA
:10027000696E67206120476174657761793F204529
:100280006E7465722027792720666F7220796573F6
:100290002C20276E2720666F72206E6F3A20004454
:1002A000656661756C7420726164696F20494420D1
:1002B000616363657074656400526164696F2049AD
:1002C0004420757064617465640020456E746572C5
:1002D000206E657720726164696F2049443A20007E
:1002E00020456E7465722027792720666F72207909
:1002F00065732C20276E2720666F72206E6F3A2060
:1003000000576F756C6420796F75206C696B652080
:10031000746F206368616E67652074686520726120
:1003200064696F2049442066726F6D20746865208F
:1003300064656661756C742076616C75653F004913
:100340006E76616C696420696E74657276616C2E7C
:1003500020456E746572206D6561737572656D659B
:100360006E7420696E74657276616C20286576659E
:1003700072792031302C2031352C2032302C203332
:10038000302C206F72203630206D696E73293A2030
:1003900000456E746572206D6561737572656D657B
:1003A0006E7420696E74657276616C20286576655E
:1003B00072792031302C2031352C2032302C2033F2
:1003C000302C206F72203630206D696E73293A20F0
:1003D000002020456E74657220612050726F6A653E
:1003E00063742049442028757020746F2035206381
:1003F0006861726163746572732C2065783A20506D
:100400005341293A20004578697400456E7465723D
:100410002027792720666F7220796573206F7220FC
:10042000276E2720666F72206E6F3A20004172653A
:1004300020796F75207375726520796F75207761EB
:100440006E7420746F20657261736520616C6C201E
:10045000646174612073746F72656420696E206DCD
:10046000656D6F72793F005072696E7420616C6CBB
:10047000206461746120746F2073637265656E3AE5
:10048000200054657374206D6561737572656D65C8
:100490006E74733A0041726520796F7520737572BE
:1004A0006520796F752077616E7420746F20657296
:1004B0006173653F20456E74657220792F6E3A2016
:1004C000004C61742F6C6F6E672076616C7565737C
:1004D0002077696C6C206170706561722061732097
:1004E0002D39393939393939393920696E207468EB
:1004F00065206461746120737472696E672E0045B3
:1005000052524F523A204C6F6E6769747564652081
:10051000696E636F727265637421004C6F6E6769F8
:10052000747564653A20004552524F523A204C612E
:1005300074697475646520696E636F727265637443
:1005400021004C617469747564653A200053656CD0
:10055000656374206F7074696F6E3A2000202020EC
:1005600030203C2D2D204572617365204C61742F25
:100570004C6F6E672076616C7565730020202031AA
:10058000203C2D2D20456E746572204C61742F4CDB
:100590006F6E672076616C75657300456E74657269
:1005A0002073656E736F7220646570746820696E65
:1005B00020636D2E2055736520272B27206F722016
:1005C000272D2720746F20696E646963617465202C
:1005D00061626F7665206F722062656C6F77207341
:1005E0006F696C20737572666163653A00456E745D
:1005F000657220636F6E66696775726174696F6E8C
:1006000020737472696E673A2000456E74657220BB
:1006100063686F6963653A20002020207820203CC1
:100620002D2D202045786974206D656E7500202081
:10063000206520203C2D2D202045726173652061AE
:100640006C6C2064617461002020207020203C2D9F
:100650002D20205072696E74206461746120746F63
:100660002073637265656E002020207420203C2D6D
:100670002D2020546573742073656E736F72730040
:100680002020206120203C2D2D20204368616E67B2
:1006900065205344492D31322073656E736F72208B
:1006A00061646472657373002020206E20203C2DED
:1006B0002D20205363616E20666F72206465766919
:1006C000636573206F6E205344492D31322062756B
:1006D00073002020206D20203C2D2D202053657498
:1006E000206D6561737572656D656E7420696E74D9
:1006F000657276616C002020207220203C2D2D2018
:10070000204368616E6765204E6F64652072616486
:10071000696F204944002020206720203C2D2D2097
:1007200020456E7465722047617465776179207227
:100730006164696F204944002020206C20203C2DFA
:100740002D2020456E746572206F72206572617372
:1007500065204C61742F4C6F6E672076616C7565F7
:1007600073002020206920203C2D2D2020456E7410
:1007700065722070726F6A6563742049440020209E
:10078000206320203C2D2D202053657420636C6F46
:10079000636B002020206420203C2D2D2020456EFE
:1007A0007465722073656E736F722064657074680F
:1007B00073002020203020203C2D2D2020456E74F9
:1007C000657220636F6E66696775726174696F6EBA
:1007D00020737472696E67004D656E75206F70745A
:1007E000696F6E733A200043757272656E74206291
:1007F00061747465727920766F6C746167653A20F4
:10080000200043757272656E7420646174652026E1
:100810002074696D653A2020004D656173757265BD
:100820006D656E7420496E74657276616C3A200055
:100830004761746577617920526164696F2049442A
:100840003A2000526164696F2049443A20004C61AB
:10085000742F6C6F6E673A200050726F6A65637414
:100860002049443A20004C6F526120526164696F04
:10087000204672657120284D487A293A2000536538
:100880007269616C204E756D6265723A2000566522
:100890007273696F6E2000536F696C2057617465C5
:1008A000722044617461204E6574776F726B202DE5
:1008B00020576972656C657373205344492D31323A
:1008C00020446174616C6F67676572204E6F646568
:1008D0000043757272656E7420616464726573732F
:1008E0003A200072740092740048940078C40000AA
:1008F000002100240027002A0000002200250028F3
:10090000002B000000200023002600290002020224
:1009100002020202020404040404040404030303A4
:1009200003030303030101010101010101010204A9
:1009300008102040800102040810204080010204B9
:1009400008102040800102040810204080000000B0
:10095000010200090A00000000040308070000006B
:10096000000000000000000000000000004552529E
:100970004F523A204C6F6E67697475646520696EDA
:10098000636F727265637421004552524F523A2070
:100990004C6174697475646520696E636F72726509
:1009A000637421004552524F523A20496E76616C71
:1009B000696420696E74657276616C20286576655D
:1009C00072792031302C2031352C2032302C2033DC
:1009D000302C206F72203630206D696E73290070C4
:1009E000726F6A65637449443A200000F5407E479F
:1009F00011241FBECFEFD0E4DEBFCDBF17E0A0E0D3
:100A0000B1E0E4E7FDEA00E00BBF02C007900D9201
:100A1000AA36B107D9F72AE1AAE6B7E001C01D92CC
:100A2000A931B207E1F714E0C7EFD4E004C0219781
:100A3000FE010E94184EC63FD107C9F70E94064228
:100A40000C94AD560C94000008950895982F2091B1
:100A50005E0C81E0213208F043C080915D0C811171
:100A6000FCCF8091560C32E030935D0C90935C0C7F
:100A70009FEF9093340C1092330C2093320CA6E32A
:100A8000BCE0E2E1FCE090E0291331C01092110CCF
:100A90009091110C880F892B8093110C80915B0C25
:100AA000813049F510925B0C8091110C8093BB0052
:100AB0008091BC0083FDF8CF85EC8093BC008091D1
:100AC0005D0C8230E1F38091340C8F3FB1F0809166
:100AD000340C8032A1F08091340C803391F084E0AA
:100AE00010925F0C10925E0C1092350C08953D919F
:100AF00031939F5FC9CF85EEE0CF80E0F1CF82E0F8
:100B0000EFCF83E0EDCF90915D0C9111FCCF91E0A0
:100B100090935D0C90935C0C2FEF2093340C10920B
:100B2000330C260F2093320C9093110C9091110CE2
:100B3000880F892B8093110C80915B0C8130F9F424
:100B400010925B0C8091110C8093BB008091BC00D3
:100B500083FDF8CF85EC8093BC0080915D0C8130E3
:100B6000E1F38091330C861710F46091330CA2E10D
:100B7000BCE0E1EFFBE080E0861303C0089585EE62
:100B8000EACF9D9191938F5FF7CF4F925F926F92D3
:100B90007F928F929F92AF92BF92CF92DF92EF920D
:100BA000FF920F931F9300919E0E10919F0E209124
:100BB000A00E3091A10EC0909A0ED0909B0EE090A6
:100BC0009C0EF0909D0E480159018C189D08AE08AE
:100BD000BF0826013701401A510A620A730A6017DA
:100BE00071078207930728F0640D751D861D971DF8
:100BF000F6CF6C157D058E059F0528F4680D791DCF
:100C00008A1D9B1DECCF1F910F91FF90EF90DF90FD
:100C1000CF90BF90AF909F908F907F906F905F909C
:100C20004F900895BF92CF92DF92EF92FF920F9371
:100C30001F93CF93DF93EC01B62EC880D980EA8052
:100C4000FB800091A20E1091A30E980150E040E0AD
:100C5000C701B6010E94694C662391F0862F90E08F
:100C60009801369527958217930700F1081B190BF9
:100C7000C00ED11EE11CF11CC882D982EA82FB821F
:100C8000688179818A819B81BB20A9F00E94C5057A
:100C9000688379838A839B83DF91CF911F910F9122
:100CA000FF90EF90DF90CF90BF900895C61AD108C3
:100CB000E108F108E1CF00919E0E10919F0E209166
:100CC000A00E3091A10E061717072807390720F745
:100CD000088319832A833B83DFCFE7E6FCE0A08902
:100CE000B18982E08C93A485B5851C92A685B785D1
:100CF00080E18C93108EA489B58986E08C93A289BB
:100D0000B3898C9180618C93A289B3898C9188601E
:100D10008C93A289B3898C9180688C930288F38923
:100D2000E02D80818F7D808308958091B60E909113
:100D3000B70EDC01ED91FC910484F585E02D09945A
:100D4000FF920F931F93CF93DF938C01F62EC6EB88
:100D5000DEE088819981DC01ED91FC910488F589C0
:100D6000E02D642F099588819981DC01ED91FC913A
:100D70000680F781E02D4F2DB801DF91CF911F91B3
:100D80000F91FF900994E82FF0E0EE0FFF1FE25F54
:100D9000FE4F71836083813049F0823071F0809121
:100DA0006900836080936900E89A089580916900E2
:100DB0008C6080936900E99A08958091690080634E
:100DC00080936900EA9A0895AF92BF92CF92DF9222
:100DD000EF92FF920F931F93CF93DF936C017B01F0
:100DE0008B01040F151FEB015E01AE18BF08C01781
:100DF000D10759F06991D601ED91FC910190F081F4
:100E0000E02DC6010995892B79F7C501DF91CF91B6
:100E10001F910F91FF90EF90DF90CF90BF90AF9018
:100E20000895FC01538D448D252F30E0842F90E0F0
:100E3000821B930B541718F081509F4F0895019710
:100E40000895FC01918D828D981759F0A28DAE0FF7
:100E5000BF2FB11D5D968C91928D9F5F928F90E018
:100E600008958FEF9FEF0895FC01918D828D981763
:100E700031F0828DE80FF11D858D90E008958FEFA0
:100E80009FEF0895FC01918D828D981B892F90E032
:100E9000089587E69CE00E94420721E0892B09F42F
:100EA00020E0822F0895FC01A48DA80FB92FB11D59
:100EB000A35EBE4F9C91848D8F5F848FA689B78976
:100EC0009C93A089B1898C91837080648C93938D5D
:100ED000848D981306C00288F389E02D80818F7D70
:100EE000808308950F931F93CF93DF93EC0181E0EC
:100EF000888F9B8D8C8D981318C0E889F989808123
:100F000085FF13C09FB7F894EE89FF896083E88955
:100F1000F98980818370806480839FBF81E090E045
:100F2000DF91CF911F910F910895062F1B8D1F5FA9
:100F30008C8D81130CC00FB607FCFACFE889F989B4
:100F4000808185FFF5CFCE010E945307F1CFEB8D55
:100F5000EC0FFD2FF11DE35EFE4F00839FB7F89469
:100F60001B8FEA89FB8980818062D6CF682F87E654
:100F70009CE00C9472070F931F93CF93DF938C0127
:100F8000D0E0C0E0F801EC0FFD1F6491662341F052
:100F900087E69CE00E947207892B11F02196F2CF20
:100FA000CE01DF91CF911F910F910895CF93DF93E1
:100FB000EC01888D8823B9F0AA89BB89E889F98971
:100FC0008C9185FD03C0808186FD0DC00FB607FCA6
:100FD000F7CF8C9185FFF2CF808185FFEDCFCE01D9
:100FE0000E945307E9CFDF91CF91089580E090E010
:100FF000892B29F00E94490781110E94000080E09E
:1010000090E0892B49F080E090E0892B29F00E9444
:10101000000081110C940000089581508A3080F501
:10102000E82FF0E0EA5EF74F0C94184E2A082E08DD
:101030002008260840084008310837083B084108C6
:10104000809180008F778093800008958091800048
:101050008F7DF9CF84B58F7784BD089584B58F7D5A
:10106000FBCF8091B0008F778093B000089580917E
:10107000B0008F7DF9CF809190008F7780939000A2
:101080000895809190008F7DF9CFCF93DF93282F23
:1010900030E0F901E35BF64F8491F901E35DF64F2F
:1010A000D491F901E35FF64FC491CC23A1F08111F3
:1010B0000E940D08EC2FF0E0EE0FFF1FED5FF64FE2
:1010C000A591B491EC91ED2381E090E009F480E0EA
:1010D000DF91CF91089580E090E0FACF1F93CF93F6
:1010E000DF93282F30E0F901E35BF64F8491F9019B
:1010F000E35DF64FD491F901E35FF64FC491CC2341
:10110000A9F0162F81110E940D08EC2FF0E0EE0FD0
:10111000FF1FE750F74FA591B4918FB7F894EC916A
:10112000111108C0D095DE23DC938FBFDF91CF91E2
:101130001F910895DE2BF8CF1092610C1092600C75
:1011400010925F0C10925E0C10925D0C81E0809307
:101150005C0C10925B0C61E081E10E946E0861E022
:1011600080E10E946E08E9EBF0E080818E7F808351
:1011700080818D7F808380E28093B80085E48093B6
:10118000BC0084E295E090935A0C8093590C85E260
:1011900095E09093580C8093570C0895CF93DF936C
:1011A00090E0FC01E35DF64F2491835F964FFC01D4
:1011B00084918823D1F090E0880F991FFC01E151C0
:1011C000F74FA591B491FC01E750F74FC591D49129
:1011D00061110EC09FB7F8948C91E22FE0958E2399
:1011E0008C932881E223E8839FBFDF91CF910895FC
:1011F0008FB7F894EC91E22BEC938FBFF6CF885128
:10120000806480937C0080917A00806480937A006F
:1012100080917A0086FDFCCF8091780090917900D2
:1012200008953FB7F89480917D0A90917E0AA0912D
:101230007F0AB091800A26B5A89B05C02F3F19F000
:101240000196A11DB11D3FBFBA2FA92F982F882746
:10125000BC01CD01620F711D811D911D43E0660F20
:10126000771F881F991F4A95D1F708958F929F92F3
:10127000AF92BF92CF92DF92EF92FF926B017C010F
:101280000E9411094B015C01C114D104E104F10475
:10129000B9F00E941109681979098A099B09683E09
:1012A00073408105910580F321E0C21AD108E1085D
:1012B000F10888EE880E83E0981EA11CB11CE4CFD3
:1012C000FF90EF90DF90CF90BF90AF909F908F9066
:1012D00008952FB7F8946091790A70917A0A8091F5
:1012E0007B0A90917C0A2FBF089508958BEF089593
:1012F000CF93DF93FC01228133812230310569F0E5
:10130000EC01638D818D0E946E0860E0888D0E94E3
:101310006E0882E090E09B838A83DF91CF910895ED
:10132000FF920F931F93CF93DF93EC01162FF42EB0
:101330000FB7F89460E08F890E946E088D899E89AE
:10134000612F6068DC01ED91FC910190F081E02D4E
:101350000995182F8D899E89DC01ED91FC910190F2
:10136000F081E02D6F2D099561E08F890E946E0854
:101370000FBF812FDF91CF911F910F91FF900895A3
:101380000F931F93CF938C01C62F44E06DE40E940E
:1013900090094BEF4C0F406869E0C801CF911F9155
:1013A0000F910C949009CF93DF93FC01228133813C
:1013B0002130310549F0EC0140E061E00E949009E4
:1013C00081E090E09B838A8381E0DF91CF91089553
:1013D000CF93DF93FC01228133812230310549F024
:1013E000EC0141E061E00E94900982E090E09B8383
:1013F0008A83DF91CF910895CF92DF92EF92FF928F
:10140000CF93DF93EC01CB01BA0120E034E244E753
:1014100059E40E94954B20E034E244E752E40E94F4
:10142000394D0E94AB4D6B017C01A70166277727E0
:1014300066E0CE010E94900977276F2D5E2D4D2D1D
:1014400067E0CE010E9490094C2D68E0CE010E9419
:10145000900981E0DF91CF91FF90EF90DF90CF90E6
:101460000895CF92DF92EF92FF920F931F93CF9345
:10147000DF934C3F08F067C0142F072FF62EEC01C6
:10148000E881F9810484F585E02D0995CE010E945B
:10149000E80940E06DE0CE010E9490094A8560E0D5
:1014A000CE010E9490094B8560E0CE010E94900918
:1014B0004C8560E0CE010E9490094D8560E0CE0130
:1014C0000E949009EFB6F89460E08F890E946E0840
:1014D0008D899E89DC01ED91FC910190F081E02DD8
:1014E00060E80995CF2CD02E012F015068F08D892E
:1014F0009E89F60161916F01DC01ED91FC910190F3
:10150000F081E02D0995F1CF61E08F890E946E088E
:10151000EFBE44E0410F62E2CE010E9490098A8151
:101520009B81039771F043E061E0CE010E94900936
:1015300040E460E4CE010E94900983E090E09B8348
:101540008A8381E001C080E0DF91CF911F910F91EC
:10155000FF90EF90DF90CF900895CF93DF93FC0141
:101560002281338123303105C9F0EC0182819381DE
:10157000049771F045E061E0CF010E94900940E0DE
:1015800060E4CE010E94900984E090E09B838A830E
:10159000C65EDE4F8881DF91CF91089580E0FBCF5A
:1015A0000F931F93CF93DF93EC01162F0FB7F8948F
:1015B00060E08F890E946E088D899E89DC01ED9123
:1015C000FC910190F081E02D612F09958D899E8914
:1015D000DC01ED91FC910190F081E02D60E0099536
:1015E000182F61E08F890E946E080FBF812FDF9155
:1015F000CF911F910F910895DF92EF92FF920F9379
:101600001F93CF93DF93EC0162E10E94D00A2A81FD
:101610003B8124303105A1F4982F907A89F08F8591
:1016200098890196988B8F874FEF62E1CE01DF9109
:10163000CF911F910F91FF90EF90DF900C94900944
:101640002A813B812430310511F486FD0DC02A81A9
:101650003B812330310541F783FFE6CF8B899C899D
:1016600001969C8B8B8B67C063E1CE010E94D00AF0
:10167000082F60E1CE010E94D00A482F6DE0CE0114
:101680000E949009DFB6F89460E08F890E946E088E
:101690008D899E89DC01ED91FC910190F081E02D16
:1016A00060E009957E01BBE1EB0EF11C102F11509B
:1016B00070F08D899E89DC01ED91FC910190F081A3
:1016C000E02D60E00995F70181937F01F0CF61E0A3
:1016D0008F890E946E08DFBE0A8F4FEF62E1CE0154
:1016E0000E9490096AE1CE010E94D00A89588E8733
:1016F0008A8DFE01E65EFE4F8430C8F08B8D8E83AE
:101700008C8D8F838D8D88878E8D89878D818111BA
:1017100007C09E818C81981719F08E818F3F39F414
:1017200089899A8901969A8B898B81E0808380814F
:10173000882309F479CFCE010E94E80975CF809102
:10174000760A9091770A009711F00C94FC0A08959C
:101750008091740A9091750A009711F00C94FC0A1C
:1017600008958091720A9091730A009711F00C9479
:10177000FC0A0895CF93DF93EC018D899E89DC01EB
:10178000ED91FC910680F781E02D099561E08F894C
:101790000E94CE0861E08F890E946E0864E670E0C6
:1017A00080E090E00E94360981E0DF91CF910895BA
:1017B000FF920F931F93CF93DF931F92CDB7DEB7A6
:1017C000F42E06EB1EE0D8018D919C91DC01ED9189
:1017D000FC91008CF18DE02D0995F80180819181BB
:1017E000DC01ED91FC91028CF38DE02D40E060E88E
:1017F000099581E289834F2D61E0CE0101960E9417
:10180000A0060E9495060F90DF91CF911F910F9136
:10181000FF9008952F923F924F925F926F927F9226
:101820008F929F92AF92BF92CF92DF92EF92FF92F0
:101830000F931F93CF93DF938C015B016A01190112
:101840000E9469092B013C01F12CE12C0E946909DD
:1018500064197509860997096C157D058E059F0524
:1018600008F078C08091B60E9091B70EDC01ED9132
:10187000FC910280F381E02D0995882339F3809152
:10188000B60E9091B70EDC01ED91FC910480F581CC
:10189000E02DA501B8010995C82F8823B9F28091E0
:1018A000B60E9091B70EDC01ED91FC9100A0F1A174
:1018B000E02D0995D82F8091B60E9091B70EDC01DE
:1018C000ED91FC91068CF78DE02D0995882E809185
:1018D000B60E9091B70EDC01ED91FC9102A0F3A140
:1018E000E02D0995982E8091B60E9091B70EDC01EF
:1018F000ED91FC9104A0F5A1E02D099587FDA6CFFF
:10190000BFEF8B1631F04D2F692D86EB9EE00E94C4
:10191000D80BED2FF0E0EA54F14FDF011B968385E1
:10192000891509F493CFF101D0839C928C2FDF911C
:10193000CF911F910F91FF90EF90DF90CF90BF90CC
:10194000AF909F908F907F906F905F904F903F905F
:101950002F900895C0E0EACF9FB7F8948091700A65
:10196000882319F081508093700A8091700A811148
:1019700005C08CB58F7B8CBD10926F0A9FBF0895F8
:101980008CB58F778CBD08958CB580688CBD08951B
:10199000FC01738362830895FC0177836683089555
:1019A000FC01758364830895089580E00895FC0127
:1019B00081850895FC0180850895FC018781089543
:1019C000FC01868108954095FC0125854223642B06
:1019D00065870895FC0164870895FC016387089575
:1019E000FC0162870895FC0164830895FC0165830E
:1019F00008958F929F92AF92BF92CF92DF92EF9213
:101A0000FF92CF93DF93EC016B010E9469094B01B8
:101A10005C01F12CE12C0E946909681979098A0995
:101A20009B096C157D058E059F0580F48A819B813D
:101A3000039789F381E0DF91CF91FF90EF90DF90E2
:101A4000CF90BF90AF909F908F90089580E0F3CF9C
:101A5000FC012281338123303105D1F381E00895E7
:101A60008F929F92AF92BF92CF92DF92EF92FF92AE
:101A7000CF93DF93EC016B010E9469094B015C017C
:101A8000F12CE12C0E946909681979098A099B09DE
:101A90006C157D058E059F05A0F4E881F981028013
:101AA000F381E02DCE010995882361F3DF91CF9179
:101AB000FF90EF90DF90CF90BF90AF909F908F906E
:101AC000089580E0F3CFCF93DF93EC01E881F981B3
:101AD0000280F381E02DCE0109958823B9F3DF91CF
:101AE000CF91089581E008951F93CF93DF93EC0188
:101AF000162F88819981DC01ED91FC910288F38990
:101B0000E02D099588819981DC01ED91FC91068891
:101B1000F789E02D612F09951A83DF91CF911F91ED
:101B20000895CF92DF92EF92FF920F931F93CF937E
:101B30006B017C01142F8091B60E9091B70EDC01E1
:101B4000ED91FC910190F081E02D0995C82F88233B
:101B500009F16091B80E86EB9EE00E94740D88E753
:101B600090E09093BF0E8093BE0E83E08093C00EF2
:101B7000612F86EB9EE00E94740D0091B60E1091CD
:101B8000B70EB701A601C8010E94FC0961E1C801B6
:101B90000E94C0098C2FCF911F910F91FF90EF9061
:101BA000DF90CF90089585ED8093BC008091BC00BC
:101BB00084FDFCCF10925D0C089520914C0A260FF5
:101BC0003327331F21323105ECF420915D0CFC01E9
:101BD00090E080E0243069F082E00895A0914C0A02
:101BE0002191AC01445D554FA40FB52FB11D2C932D
:101BF0000196861798F380914C0A680F60934C0AFF
:101C000080E0089581E008950895E091610C80914D
:101C1000600CE81730F4F0E0EF50F44F808190E072
:101C200008958FEF9FEF08959091610C8091600C63
:101C30002FEF3FEF981748F4E92FF0E0EF50F44F03
:101C4000208130E09F5F9093610CC90108958091DD
:101C5000600C9091610C891B990B0895CF92DF92D3
:101C6000EF92FF920F931F93CF93DF937C01CB01F1
:101C70008A012091350C222389F0EB016B01C40EFF
:101C8000D51ECC15DD0569F06991D701ED91FC9168
:101C90000190F081E02DC7010995F3CF642F0E94D8
:101CA000DD0DC801DF91CF911F910F91FF90EF9053
:101CB000DF90CF900895CF93DF931F92CDB7DEB71B
:101CC00069832091350C2223F9F020915E0C20329B
:101CD00058F021E030E0FC013383228390E080E083
:101CE0000F90DF91CF91089580915F0CE82FF0E085
:101CF000EA5CF34F998190838F5F80935F0C8093B0
:101D00005E0C81E090E0ECCF61E0CE0101960E9494
:101D1000DD0DF7CFCF93C62F91E09093350C98E669
:101D20009093560C10925F0C10925E0C682F89E015
:101D30009AE10E945B0E6C2F89E09AE10E945B0E93
:101D400081E0CF910C942605CF93CFB7F894809182
:101D5000700A811127C0E1E1F9E08491E1E3F9E043
:101D60009491E82FF0E0EE0FFF1FE151F74FA5919E
:101D7000B491EC91E92321F461E084E00E946E08C3
:101D800061E084E00E94CE088CB580618CBD8CB58A
:101D900080648CBD61E087E00E94CE0861E085E050
:101DA0000E94CE088091700A8F5F8093700ACFBF27
:101DB000CF910895FC01268137812115310591F1DC
:101DC0002130310559F12230310551F123303105EF
:101DD00049F52CE09CB5937F922B9CBD8481958125
:101DE000019711F58CB580628CBD8281938101973A
:101DF00084309105E0F4895B9E4FFC0190818CB5A5
:101E00008C7F292F2370822B8CBD8DB592FB992757
:101E100090F98E7F892B8DBD0C94A40E24E0DACF2F
:101E200028E0D8CF20E0D6CF8CB58F7DDDCF95E0F0
:101E3000E6CFCF92DF92EF92FF92CF93DF9360E0F5
:101E40008DE10E94CE088DE10E94FF08B0E0A0E085
:101E5000BC01CD01660F771F881F991F0E94344B6C
:101E600023E333E343E550E40E94954B20E030E068
:101E700048EC52E40E94954B20E030E84FEF53E4E9
:101E80000E94CD4C20E030EC4FE754E40E94394DE5
:101E90000E94AB4DCB0164E670E00E94F04DEB0177
:101EA000BC0190E080E00E94344B20E030E048EC40
:101EB00052E40E94394D6B017C01BE0190E080E04C
:101EC0000E94344B9B01AC01C701B6010E94CD4C6E
:101ED000DF91CF91FF90EF90DF90CF900895CF9258
:101EE000DF92EF92FF92CF93DF9361E08EE00E944A
:101EF000CE0860E088E10E94CE0861E08EE00E949A
:101F00006E0884EE93E00197F1F788E10E94FF08E4
:101F1000EC0160E08EE00E946E08BE0190E080E07F
:101F200022E0660F771F881F991F2A95D1F70E941C
:101F3000344B23E333E343E550E40E94954B20E028
:101F400030E048EC52E40E94954B20E030EC4FEB3F
:101F500054E40E94CD4C20E030ED4FE355E40E9464
:101F6000394D0E94AB4DCB0164E670E00E94F04D0C
:101F7000EB01BC0190E080E00E94344B20E030E0B7
:101F800048EC52E40E94394D6B017C01BE0190E0A7
:101F900080E00E94344B9B01AC01C701B6010E9456
:101FA000CD4CDF91CF91FF90EF90DF90CF900895CF
:101FB00087E69CE00E94D607E7E6FCE0A289B389A9
:101FC0008C918F7E8C93A289B3898C91877F8C931F
:101FD000A289B3898C918F778C93A289B3898C91D4
:101FE0008F7D8C93828D818F60E08FE00E946E08E0
:101FF00060E080E00E946E0860E081E00E946E0870
:102000008AEC90E10E94D30980B78F7780BFEAE71E
:10201000F0E080818F778083F89485B7806885BFF2
:1020200085B7806885BF789483B7817F846083BFDC
:1020300083B7816083BF7894ABE6B0E08C91846015
:102040008C93A8E6B0E08C9181608C9383B781601B
:1020500083BF889583B78E7F83BF808180688083AC
:102060000E946D060E94A40E61E080E00E946E084E
:1020700061E081E00C946E089FB7F89420916F0A9C
:102080008091BA07213019F48DBB9FBF08958FBF8F
:102090000895CF93DF93EC0161E088810E946E0880
:1020A00080916F0A81110E943C108B818CBD8C81C4
:1020B0008DBDDF91CF9108958EBD00000DB407FE58
:1020C000FDCF8EB50895862F0C945C1020916F0A79
:1020D000222361F02FB7F89430916F0A313049F420
:1020E0003DB33093BA073DB33DBB2FBF8CBD9DBD03
:1020F00008952093BA07FACFCF93DF93EC018CB504
:102100008B838DB58C838D819E810E94661060E0EB
:102110008881DF91CF910C946E088F929F92AF923D
:10212000BF92CF92DF92EF92FF920F931F93CF93C4
:10213000DF934B015C0128E833E140E050E00E946E
:10214000694C2A31310510F029E130E06901F12CA8
:10215000E12CC501B401A7010E94694C8901D0E0BE
:10216000C0E0C017D107C8F4A090840EB090850ECF
:10217000C5010E947C1085E00E945C1080E00E94F6
:102180005C10982EC5010E94491090FE14C0C70132
:10219000B6010E9436092196E4CF80E0DF91CF910D
:1021A0001F910F91FF90EF90DF90CF90BF90AF9075
:1021B0009F908F90089581E0F1CF0F931F93CF935D
:1021C000DF93EC01162F442339F040E066E00E94D3
:1021D000DD10CE010E944910CE010E947C1085E0E6
:1021E0000E945C1080E00E945C10082FCE010E94CB
:1021F000491000FDF1CFCE010E947C10812FDF91AC
:10220000CF911F910F910C945C10FF920F931F932D
:10221000CF93DF93162F072FF82E68EE73E080E040
:1022200090E00E948D10882301F1C091840ED0911E
:10223000850E41E060E2CE010E94DD108F2D0E94EC
:102240005C10802F0E945C10812F0E945C10CE01D8
:102250000E94491068EE73E080E090E0DF91CF913A
:102260001F910F91FF900C948D1080E0DF91CF9122
:102270001F910F91FF9008952F923F924F925F927E
:102280006F927F928F929F92AF92BF92CF92DF9286
:10229000EF92FF920F931F93CF93DF936C012A016C
:1022A0003B0119019A01332780E091E0821B930BD7
:1022B000912C812C0115110581F1E80180179107FE
:1022C00008F4EC0141E062E0C6010E94DD10862DB9
:1022D0000E945C10852D0E945C10842D0E945C1071
:1022E0005101A80CB91C7501F70181917F010E9471
:1022F0005C10C7018A199B098C179D07A8F3C601BA
:102300000E9449104C0E5D1E611C711C8C0E9D1E9E
:102310000C1B1D0B80E091E0CDCFDF91CF911F9181
:102320000F91FF90EF90DF90CF90BF90AF909F9074
:102330008F907F906F905F904F903F902F90089577
:10234000BF92CF92DF92EF92FF920F931F93CF93A2
:10235000DF937C01EA01B62E690140E06BE00E9448
:10236000DD108B2D0E945C108D2F0E945C108C2F35
:102370000E945C1080E00E945C10E6010C0D1D1DA7
:10238000C017D10729F080E00E945C108993F8CF34
:10239000C701DF91CF911F910F91FF90EF90DF90D8
:1023A000CF90BF900C9449100F931F93CF93DF935E
:1023B00000D0CDB7DEB7AB01BC014C5F5F4F6F4FB4
:1023C0007F4F02E010E09E012F5F3F4F8091840E0F
:1023D0009091850E0E94A0112091A40E3091A50E1F
:1023E00089819A812817390710F41A821982898104
:1023F0009A810F900F90DF91CF911F910F910895C7
:10240000CF92DF92EF92FF926B017C010E94D41178
:102410009C01009769F0E091A20EF091A30EBF011C
:102420000E94F04D009721F02E0F3F1F281B390B03
:10243000C701B601620F731F811D911DFF90EF90C0
:10244000DF90CF900C94C5050F931F93CF93DF932C
:10245000CDB7DEB760970FB6F894DEBF0FBECDBF25
:10246000AB01BC0100E110E09E012F5F3F4F809166
:10247000840E9091850E0E94A011FE013196CE012E
:10248000419621912F3F79F4E817F907D1F781E0C0
:1024900060960FB6F894DEBF0FBECDBFDF91CF912F
:1024A0001F910F91089580E0F3CF4F925F926F924A
:1024B0007F92AF92BF92CF92DF92EF92FF920F93F3
:1024C0001F93CF93DF93CDB7DEB72C970FB6F89459
:1024D000DEBF0FBECDBF6B017C015A01FA01108235
:1024E00011821282138204E010E09A01BC01A6015D
:1024F0008091840E9091850E0E94A011F50180813B
:102500009181A281B3818F3F9F4FAF4FBF4F79F031
:1025100019861A861B861C86C701B6010E94001206
:102520002B013C01C414D504E604F70411F480E047
:1025300054C004E010E09E01275F3F4FBC01A201A0
:102540008091840E9091850E0E94A01149855A8534
:102550006B857C85F50180819181A281B381019693
:10256000A11DB11D84179507A607B70709F451C02F
:102570004F3F5F4F6F4F7F4FD1F6C301B2010E94B3
:1025800024128823A1F28091A20E9091A30EC81A62
:10259000D90AE108F108CD82DE82EF82F886AE0129
:1025A0004F5F5F4F6FEFCE0105960E940B1388239C
:1025B00049F149815A816B817C814F5F5F4F6F4F39
:1025C0007F4F81E0F501C080D180E280F3804C151F
:1025D0005D056E057F0509F0AACF2C960FB6F8941D
:1025E000DEBF0FBECDBFDF91CF911F910F91FF9046
:1025F000EF90DF90CF90BF90AF907F906F905F9003
:102600004F9008956D817E818F8198850E9424125C
:10261000E4CF81E0E2CFCF92DF92EF92FF920F936F
:102620001F93CF93DF93EC01D62E7A0168817981D5
:102630008A819B810E942412CC24C39410E000E084
:10264000882391F08FEF9FEFDC01F7018083918366
:10265000A283B38380E0DF91CF911F910F91FF9010
:10266000EF90DF90CF900895688179818A819B8176
:10267000A7010E9455128111EECFCC20D9F061E064
:10268000CE010E941206688179818A819B810E9415
:102690002412C82E8111D6CF8091A40E9091A50E40
:1026A0006091A20E7091A30E0E94F04D6017710709
:1026B000D8F6C8CF88819981AA81BB814091A20EAA
:1026C0005091A30E70E060E01D14ACF0841B950BDC
:1026D000A60BB70B88839983AA83BB836881798112
:1026E0008A819B810E94C505688379838A839B8345
:1026F0000F5F1F4FC8CF840F951FA61FB71FEACFCC
:102700002F923F924F925F926F927F928F929F9201
:10271000AF92BF92CF92DF92EF92FF920F931F93EF
:10272000CF93DF93CDB7DEB72E970FB6F894DEBF09
:102730000FBECDBF8C016D87FC01608171818281EC
:1027400093810E9424128823C9F0F801808091802F
:10275000A280B380FD85F13009F4F5C080919A0E16
:1027600090919B0EA0919C0EB0919D0E75016401FD
:10277000C81AD90AEA0AFB0A7D84F3C02091A20E86
:102780003091A30E80919E0E90919F0EA091A00E6D
:10279000B091A10E821B930BA109B109F8018083AE
:1027A0009183A283B383AE01475F5F4F6FEFC80190
:1027B0000E940B1381110BC0F8016081718182812D
:1027C00093810E9424128111C0CF612C22C180917B
:1027D0009A0E90919B0EA0919C0EB0919D0EF801C7
:1027E00080839183A283B383AE014B5F5F4F61E02F
:1027F000C8010E940B13F8016081718122819381CD
:10280000811102C0822FDDCF4D805E806F80788481
:102810006B01E22EF92E80909E0E90909F0EA0905C
:10282000A00EB090A10E8C189D08AE08BF0822E93A
:10283000222E332433948091A20E9091A30EB0E007
:10284000A0E088159905AA05BB0520F4B694A794C5
:1028500097948794FFEF3F1252C0C814D904EA043A
:10286000FB0408F04CC080919E0E90919F0EA091A9
:10287000A00EB091A10E40919A0E50919B0E6091C6
:102880009C0E70919D0E841B950BA60BB70B8C0DA7
:102890009D1DAE1DBF1D6C017D01C818D908EA0839
:1028A000FB08F801C082D182E282F38260E0C801B5
:1028B0000E941206F80160817181828193810E94D9
:1028C0002412811142CFAE014F5F5F4F632DC801CB
:1028D0000E940B13882341F189819A81AB81BC81CD
:1028E000F1E03F1219C0481659066A067B0640F50A
:1028F0002A94222009F469CF2C013D019CCFA32DFD
:10290000032C000CBB0BA50194010E94B54CC60E14
:10291000D71EE81EF91EC5CF84159505A605B70577
:1029200038F333243394E4CFF801608171818281DC
:1029300093810E942412811108CFD301C201D8CF04
:1029400033243A94D5CFC0909E0ED0909F0EE09045
:10295000A00EF090A10EC818D908EA08FB08772449
:102960007394F2E9FE87F80160817181828193811D
:102970000E9424128111C7C0F8012080318042805A
:102980005380C201B1016627707F99277051810978
:1029900091090E94C5050E942412682E8823E9F03F
:1029A000C201B1010E942412811117C0FD85F130CE
:1029B000A1F4F80180819181A281B3818827907F61
:1029C000BB2780839183A283B383AE014F5F5F4FA8
:1029D00061E0C8010E940B131CC0AE014B5F5F4F4A
:1029E000672DC8010E940B13F8014081518162815B
:1029F0007381882309F47EC0FD85FF3F21F5CB015B
:102A0000BA010E9400120E942412682E882309F441
:102A10007EC0862D2E960FB6F894DEBF0FBECDBFBA
:102A2000DF91CF911F910F91FF90EF90DF90CF90AA
:102A3000BF90AF909F908F907F906F905F904F90DE
:102A40003F902F9008958091A20E9091A30E2A019D
:102A50003B01481A590A61087108C301B2010E947A
:102A60002412682E8111B1CF77247A948091A20E1E
:102A70009091A30EB0E0A0E08C159D05AE05BF05BA
:102A800020F4F694E794D794C7948FEF781242C05D
:102A90008C149D04AE04BF04E8F580919E0E9091C5
:102AA0009F0EA091A00EB091A10E40919A0E509150
:102AB0009B0E60919C0E70919D0E841B950BA60B36
:102AC000B70B880D991DAA1DBB1D4C015D018C180B
:102AD0009D08AE08BF08F80180829182A282B3826D
:102AE00060E0C8010E941206FE85F150FE87F111D8
:102AF0003ACF6BCECB01BA010E942412882309F48D
:102B0000B5CF7194B3CF2D852F3F09F4ADCF772486
:102B10007394ACCFA72D072C000CBB0BA70196011B
:102B20000E94B54C860E971EA81EB91ED4CFCF9317
:102B3000DF9300D000D0CDB7DEB7AE014F5F5F4F5F
:102B40000E945512882359F069817A818B819C817A
:102B50000F900F900F900F90DF91CF9108956FEF2E
:102B60007FEFCB01F5CF282F30E094E03595279506
:102B70009A95E1F7922F990F990F291B220F820F37
:102B80000895EF92FF920F931F93CF93DF938C01E1
:102B9000C62FF894F090B20061E0FC0184850E9499
:102BA0006E089C2F80E031E0992329F083272FEFD6
:102BB000290F9223F9CFF0E88F9FC0011124C82B71
:102BC00080E8D9E0982F9C2319F0D1508695FACF50
:102BD0008091B2008F198A31D8F3F090B200EE24C0
:102BE000E394F8018485ED1678F460E0C0FF61E0BD
:102BF0000E946E088091B2008F198A31D8F3F0904C
:102C0000B200C695E394EDCF60E00E946E08789420
:102C10008AE090E08D1B91099AE1899F802D112413
:102C20009091B2009F199817D8F3DF91CF911F911F
:102C30000F91FF90EF900895FC0115869091070A7F
:102C40008091080A981799F0E091070AF0E0E65998
:102C5000F84F20818091070A90E001966BE470E0C4
:102C60000E94044E8093070A822F90E008958FEF10
:102C70009FEF08959091070A8091080A981741F0F4
:102C8000E091070AF0E0E659F84F808190E008955E
:102C90008FEF9FEF0895FC01858581110EC0809113
:102CA000080A2091070A90E0855B9F4F821B9109DB
:102CB0006BE470E00E94044E08958FEF9FEF08953B
:102CC00090E080E00895DC011C969C911C97ECE656
:102CD000F0E0983050F0E3E7F0E0903130F0EBE6D0
:102CE000F0E0983110F4EDE6F0E08081977021E09B
:102CF00030E001C0220F9A95EAF72095282320831F
:102D00001C968C91ECE6F0E0883050F0E3E7F0E0C0
:102D1000803130F0EBE6F0E0883110F4EDE6F0E0E1
:102D20009081911110C0F0E0E0E0803210F4E8E60C
:102D3000F0E09081883040F0803140F0883140F000
:102D40008EEF8923808308958DEFFBCF87EFF9CF36
:102D50008BEFF7CFCF93DF93EC016330710521F157
:102D600064307105E1F16230710509F05FC060E027
:102D700083E00E94CE0861E083E00E94CE0861E01B
:102D800083E00E946E0860E08C850E94CE0861E0BE
:102D90008C850E94CE0860E08C850E946E08CE0172
:102DA000DF91CF910C94631660E083E00E94CE081F
:102DB00061E083E00E94CE0861E083E00E946E083B
:102DC00062E070E080E090E00E94360960E08C856F
:102DD0000E94CE0861E08C850E94CE08E0CF61E0C1
:102DE00083E00E94CE0860E083E00E946E0862E00B
:102DF00070E080E090E00E94360960E08C850E94DF
:102E00006E0860E08C850E94CE08789480916800FE
:102E10008860809368008091730084608093730061
:102E20008FEF8093B907DF91CF91089561E083E040
:102E30000E94CE0861E083E00E946E0860E08C850D
:102E40000E946E0860E0C7CF70E060E086EA9EE016
:102E50000E94AA161092660C1092650C8091640C68
:102E60008093B0008091630C8093B10008958091AD
:102E7000650C9091660C865A9E4061F062E070E0AD
:102E800086EA9EE00E94AA1686EA9EE09093660C6F
:102E90008093650C86E990E0A0E0B0E08093AA0EF4
:102EA0009093AB0EA093AC0EB093AD0E81EF98ED66
:102EB0009093B50E8093B40E8091B0008093640C13
:102EC0008091B1008093630C1092B00086E08093F3
:102ED000B1000895CF93DF9363E070E086EA9EE04F
:102EE0000E94AA16C6EADEE061E08C850E946E08A8
:102EF0008CE895E60197F1F760E08C850E946E08FA
:102F00008CE496E40197F1F7DF91CF9108950F9348
:102F10001F93CF93DF938C010E946A17D0E0C0E02B
:102F2000D80114968D919C911597C817D90790F4E4
:102F3000ED91FC91309759F41092620CE2E6FCE0BE
:102F4000608186EA9EE00E94C1152196E9CFEC0FD0
:102F5000FD1FF6CF64E070E086EA9EE0DF91CF913E
:102F60001F910F910C94AA161F93CF93DF93EC013E
:102F7000162F63E070E00E94AA16612FCE010E9416
:102F8000C11564E070E0CE010E94AA1681E090E0D5
:102F9000DF91CF911F91089581E08093350C88E6F1
:102FA0008093560C10925F0C10925E0C60E089E0EA
:102FB0009AE10E945B0E81E00E942605811142C0C9
:102FC00067E088E60E9483051092610C8093600C94
:102FD00089E09AE10E94140E8F770E94B3158093C6
:102FE000EA0B89E09AE10E94140E0E94B3158093C7
:102FF000EB0B89E09AE10E94140E8F7B0E94B315BF
:103000008093EC0B89E09AE10E94140E8093ED0B03
:1030100089E09AE10E94140E0E94B3158093EE0B92
:1030200089E09AE10E94140E8F770E94B315809375
:10303000EF0B89E09AE10E94140E0E94B315825EA4
:103040008093F00B8091EA0B8093230A8091EB0B25
:103050008093840A8091EC0B8093240A8091EE0B7C
:103060008093270A8091EF0B8093280A8091F00BC0
:1030700090E08E54984F9093260A8093250A62E33D
:1030800070E080E090E00C943609CF9391E090934B
:10309000350C98E69093560C10925F0C10925E0CD3
:1030A000682F89E09AE10E945B0E81E00E9426056C
:1030B00081110DC061E088E60E9483051092610CC9
:1030C0008093600C89E09AE10E94140EC82F8C2F27
:1030D000CF9108951F93CF93DF9381E08093350CB8
:1030E00088E68093560C10925F0C10925E0C60E0A4
:1030F00089E09AE10E945B0ECAEEDBE028811AE0CB
:10310000822F612F0E94E44D682F660F680F660FB3
:10311000620F89E09AE10E945B0E2981822F612F64
:103120000E94E44D682F660F680F660F620F89E0FA
:103130009AE10E945B0E2A81822F612F0E94E44D4A
:10314000682F660F680F660F620F89E09AE10E9490
:103150005B0E6B8189E09AE10E945B0E2C81822FCD
:10316000612F0E94E44D682F660F680F660F620F93
:1031700089E09AE10E945B0E2D81822F612F0E94CF
:10318000E44D682F660F680F660F620F89E09AE1C1
:103190000E945B0E2E812E51822F612F0E94E44DE2
:1031A000682F660F680F660F620F89E09AE10E9430
:1031B0005B0E81E00E942605C82F8FE00E94451813
:1031C000682F6F778FE00E948A0E8C2FDF91CF914E
:1031D0001F910895CF93DF93C82F8FE00E94451869
:1031E000C150DD0B21E030E001C0220FCA95EAF7A3
:1031F000982F922351F02095622F68238FE00E9430
:103200008A0E81E0DF91CF91089580E0FBCF0F938C
:103210001F93CF93DF93EC010E946A178E01FE018A
:1032200001900020E9F73197EC1BFD0BC8018C1BC6
:103230009D0B8E179F0740F4F80161918F0186EA7C
:103240009EE00E94C115EBCF64E070E086EA9EE04C
:10325000DF91CF911F910F910C94AA16FC01019060
:103260000020E9F73197AF01481B590BBC0187E6F5
:103270009CE00C94E40687ED91E00C942E19CF931A
:10328000DF93FC01448155816081718187E69CE078
:103290000E94E406EC010E943B198C0F9D1FDF91F8
:1032A000CF910895CF93DF930E94BB07EC010E945A
:1032B0003B198C0F9D1FDF91CF910895CF93DF9322
:1032C0000E94B607EC010E943B198C0F9D1FDF91F5
:1032D000CF9108958F929F92AF92BF920F931F93B9
:1032E000CF93DF93CDB7DEB7A1970FB6F894DEBFCB
:1032F0000FBECDBF19A2423008F44AE08E010F5D27
:103300001F4F842E912CB12CA12CA50194010E9459
:10331000694CE62FB901CA01EA30F4F4E05DD80146
:10332000EE938D01232B242B252B79F790E080E061
:10333000109719F0CD010E942E19A1960FB6F8949E
:10334000DEBF0FBECDBFDF91CF911F910F91BF9018
:10335000AF909F908F900895E95CE1CF682F70E067
:1033600090E080E04AE00C946A19CF93DF930E94CA
:10337000AE19EC010E943B198C0F9D1FDF91CF917C
:103380000895CF92DF92EF92FF92CF93DF9397FF52
:1033900019C06B017C018DE20E94B607EC01662723
:1033A0007727CB016C197D098E099F094AE00E949D
:1033B0006A198C0F9D1FDF91CF91FF90EF90DF90E6
:1033C000CF9008954AE0DF91CF91FF90EF90DF908A
:1033D000CF900C946A19CF92DF92EF92FF92CF9325
:1033E000DF930E9469096B017C0120E1C20E27E294
:1033F000D21EE11CF11C10922B0A10922A0A0E9484
:1034000069096C157D058E059F0560F587E69CE0D2
:103410000E9442071816190694F764E670E080E0EF
:1034200090E00E94360987E69CE00E944207D82E71
:10343000C1E0DAE0E0902A0AF0902B0ADC1690F066
:1034400087E69CE00E942107DE9D9001DF9D300D04
:103450001124C097280F391F30932B0A20932A0A72
:10346000CF5FE8CF60912A0A70912B0A072E000CDB
:10347000880B990B0E94C1190E943B196AE070E009
:1034800080E090E0DF91CF91FF90EF90DF90CF90C0
:103490000C943609CF93DF934AE00E946A19EC013D
:1034A0000E943B198C0F9D1FDF91CF910895CF9300
:1034B000DF93D0E0C0E0009719F00E942E19EC01D4
:1034C0000E943B198C0F9D1FDF91CF9108958F9221
:1034D0009F92AF92BF92CF92DF92EF92FF921F9393
:1034E000CF93DF93CDB7DEB764970FB6F894DEBF06
:1034F0000FBECDBF6B017C0149015A0168E873E141
:1035000080E090E00E948D10182F882309F410C2EB
:10351000C0929A0ED0929B0EE0929C0EF0929D0E5D
:1035200080929E0E90929F0EA092A00EB092A10E3D
:1035300080E290E09093A30E8093A20E80E090E151
:103540009093A50E8093A40EF8948FEF9FEFDC016B
:103550008093860E9093870EA093880EB093890E69
:1035600080938A0E90938B0EA0938C0EB0938D0E49
:1035700080938E0E90938F0EA093900EB093910E29
:103580008093920E9093930EA093940EB093950E09
:1035900060919A0E70919B0E80919C0E90919D0E61
:1035A0000E942412882309F4C0C080909A0E909043
:1035B0009B0EA0909C0EB0909D0E60919E0E7091FF
:1035C0009F0E8091A00E9091A10E681979098A0929
:1035D0009B099695879577956795680D791D8A1D46
:1035E0009B1D0E942412882309F49FC080919A0E8B
:1035F00090919B0EA0919C0EB0919D0E898B9A8B01
:10360000AB8BBC8B8D879E87AF87B88B69897A8996
:103610008B899C8960938A0E70938B0E80938C0E9D
:1036200090938D0ECD84DE84EF84F888C092860E50
:10363000D092870EE092880EF092890E0E940012BE
:1036400060938E0E70938F0E8093900E9093910ED8
:103650006B017C01CC2420EFD222FF246C157D0568
:103660008E059F0509F0A6C16093920E7093930E8C
:103670008093940E9093950E6091920E7091930E9C
:103680008091940E9091950E0E94C5056093920EC4
:103690007093930E8093940E9093950E80918A0E62
:1036A00090918B0EA0918C0EB0918D0E0097A0483A
:1036B000B10508F486C11092960E1092970E1092E2
:1036C000980E1092990E78948AED91E00E94571A04
:1036D0000E943B196091860E7091870E8091880E32
:1036E0009091890E0E94971560918A0E70918B0EB1
:1036F00080918C0E90918D0E0E94971587E69CE02C
:103700000E94D607812F64960FB6F894DEBF0FBED5
:10371000CDBFDF91CF911F91FF90EF90DF90CF90C1
:10372000BF90AF909F908F90089580919A0E909146
:103730009B0EA0919C0EB0919D0E898B9A8BAB8BAA
:10374000BC8BAE014B5F5F4F6FEFCE0141960E9485
:103750000B1381111DC080919A0E90919B0EA09128
:103760009C0EB0919D0E898B9A8BAB8BBC8BAE015E
:103770004B5F5F4F61E0CE0141960E940B138111B8
:1037800007C08FEF9FEFDC018D839E83AF83B887E7
:103790002091A20E3091A30E80919E0E90919F0ECB
:1037A000A091A00EB091A10E821B930BA109B109AB
:1037B000898B9A8BAB8BBC8BAE01475F5F4F6FEFF2
:1037C000CE0141960E940B13811107C08FEF9FEF2E
:1037D000DC0189879A87AB87BC8789849A84AB840C
:1037E000BC8480919A0E90919B0EA0919C0EB091FA
:1037F0009D0E4D815E816F8178854F3F5F4F6F4F8A
:103800007F4F09F18B208A208920809409F096C08F
:103810008D879E87AF87B88BAE014F5F5F4F61E0AA
:10382000CE010D960E940B138823E1F12091A20E88
:103830003091A30E80919E0E90919F0EA091A00EAC
:10384000B091A10E9AC02091A20E3091A30E40918A
:103850009E0E50919F0E6091A00E7091A10E421B82
:10386000530B610971098B208A208920809409F407
:103870008DC0498B5A8B6B8B7C8B8D879E87AF87D6
:10388000B88BAE014F5F5F4F6FEFCE0141960E9444
:103890000B13882339F061E0CE010D960E9480134E
:1038A0008111B4CE89899A89AB89BC89C816D90699
:1038B000EA06FB06E1F58D859E85AF85B889C816B9
:1038C000D906EA06FB0699F580E090E0A0E8B0E0B2
:1038D00080938A0E90938B0EA0938C0EB0938D0ED6
:1038E0008093860E9093870EA093880EB093890ED6
:1038F000C0928E0ED0928F0EE092900EF092910EAA
:1039000080E1D80EE11CF11CC092920ED092930E71
:10391000E092940EF092950E8FEF9FEFDC01809372
:10392000960E9093970EA093980EB093990E78945C
:1039300081EF91E00E94571A10E0E4CE19861A86B2
:103940001B861C864FEF5FEFBA014D835E836F834A
:1039500078878D879E87AF87B88B61E0CE010D9603
:103960000E948013882309F49DCF2091A20E3091EC
:10397000A30E8D859E85AF85B889821B930BA10907
:10398000B109898B9A8BAB8BBC8B10C08D879E87BE
:10399000AF87B88B498B5A8B6B8B7C8B61E0CE01E8
:1039A0000D960E948013882309F47CCF6FEFCE011F
:1039B000419674CF705F8F4F9F4F6627707F992716
:1039C00053CE46E95EE061E08AE89EE00E940B1378
:1039D0007ACECF92DF92EF92FF921F93CF93DF9335
:1039E0000E9469096B017C0120E1C20E27E2D21E10
:1039F000E11CF11C0E9469096C157D058E059F056F
:103A000040F587E69CE00E9442071816190694F7D5
:103A100064E670E080E090E00E94360987E69CE072
:103A20000E944207EC01F82E10E087E69CE00E941D
:103A300021078D3039F08A3029F0E12FF0E0E4578A
:103A4000F54F80831F5FF11680F7DD27C457D54FF0
:103A500018828CE89AE0DF91CF911F91FF90EF9050
:103A6000DF90CF900C94571A0C942E190E94CC170B
:103A700065E38BE00E948A0E68E18CE00E948A0E6A
:103A800060E88DE00E948A0E8FE092E00E94341D73
:103A900082E10E94AE198EEE95E00E94341D83E211
:103AA0000E94B51962E370E080E090E00C94360962
:103AB000CF93DF93482F5091840A852F90E0E091B7
:103AC0006E0BE4133BC0CE2FD0E08C0F9D1F6CE338
:103AD00070E00E94044EBE010E94044EE69FE02D5D
:103AE0001124E093FB092091FB09822F6AE00E94D8
:103AF000E44DC82FCC0FC80FCC0FC20F60E087E099
:103B00000E948A0E6C2F88E00E948A0E60E889E08D
:103B10000E948A0E60E88AE00E948A0E81E292E0AA
:103B20000E94341D8091FB090E94B51962E370E088
:103B300080E090E0DF91CF910C943609840F911DC5
:103B40008C3391053CF06CE370E00E94044E80934E
:103B5000FB09C9CF450F4093FB09C5CF2F923F9278
:103B60004F925F926F927F928F929F92AF92BF928D
:103B7000CF92DF92EF92FF920F931F93CF93DF9339
:103B8000CDB7DEB72A970FB6F894DEBF0FBECDBF14
:103B9000FC01698304811581C80187509F4F6AEF3A
:103BA00070E00E94F04D662309F42AC129812A871A
:103BB0004F016150698790E080E0212C312C210178
:103BC00033940115110509F41BC10B3F110550F188
:103BD0005C013AEFA30EB11C0A5F110966246394DD
:103BE000712C681A790A6A0C7B1C49854093C10FB5
:103BF000A2ECBFE08A159B05D8F4F401248135813D
:103C00008217930738F420813181F901E80FF91FF9
:103C1000232B21F41092620CE2E6FCE020812D932C
:103C20000196E8CF5801A80EB91E10E000E0D6CFEB
:103C3000F090BD0EF394F092BD0EC12CEE24E394EF
:103C4000EC0C8091C00E8C1508F4F4C08091B60E77
:103C50009091B70EDC01ED91FC91008CF18DE02D7F
:103C60006F2D09958091B60E9091B70EDC01ED9104
:103C7000FC91028CF38DE02D40E860E009954A85C7
:103C8000662D81EC9FE00E94A0060E949506BA85F1
:103C9000BF3F09F4D1C0E1E0EE1598F48091B90E70
:103CA0009091BA0EA091BB0EB091BC0E0196A11DD1
:103CB000B11D8093B90E9093BA0EA093BB0EB09332
:103CC000BC0E0E94690969837A838B839C83C090B0
:103CD000BE0ED090BF0E0E940848A20191010E9422
:103CE0008B4C9B01AC01D6010E94AA4CA201910110
:103CF0000E948B4C2C0D3D1DCE2CC901B0E0A0E0E4
:103D00008D839E83AF83B8870E94690929813A8198
:103D10004B815C81621B730B840B950B2D813E8163
:103D20004F815885621773078407950708F086CF7F
:103D30008091B60E9091B70EDC01ED91FC9102805E
:103D4000F381E02D09958823F9F28091B60E9091C8
:103D5000B70EDC01ED91FC910480F581E02D50E07F
:103D600040E070E060E00995882371F28091B60E22
:103D70009091B70EDC01ED91FC9100A0F1A1E02D36
:103D80000995D82E8091B60E9091B70EDC01ED9179
:103D9000FC91068CF78DE02D0995782E8091B60E5A
:103DA0009091B70EDC01ED91FC9102A0F3A1E02D02
:103DB0000995E82E8091B60E9091B70EDC01ED9139
:103DC000FC9104A0F5A1E02D0995BA85BD1108C0AC
:103DD0009091B80E971104C087FF02C0FE1461F1E4
:103DE00087FD92CFED2DF0E0EA54F14F83858E11DF
:103DF0008BCF4D2D6E2D86EB9EE00E94D80B84CF8D
:103E000081E02A960FB6F894DEBF0FBECDBFDF91DA
:103E1000CF911F910F91FF90EF90DF90CF90BF90C7
:103E2000AF909F908F907F906F905F904F903F905A
:103E30002F90089580E0E5CFE985E150E987C5013D
:103E4000C0CECF93DF93EC0188819981009711F068
:103E50000E94C44E198218821D821C821B821A8203
:103E6000DF91CF910895FC01808191810C94C44E23
:103E70000E942E500F931F93CF93DF93EC01888104
:103E80009981009759F02A813B812617370730F036
:103E900081E0DF91CF911F910F9108958B016F5FAA
:103EA0007F4F0E944D4F009759F0998388831B8361
:103EB0000A832C813D81232B59F7FC011082E8CF26
:103EC00080E0E7CFEF92FF920F931F93CF93DF93A2
:103ED0006115710541F480E0DF91CF911F910F9141
:103EE000FF90EF90089541155105B1F07B01EC0171
:103EF0000C811D81040F151FB8010E943A1F8823F1
:103F000051F3288139818C819D81B701820F931FE4
:103F10000E9457501D830C8381E0DECF0F931F93C7
:103F2000CF93DF9300D000D0CDB7DEB74AE08E014B
:103F30000F5F1F4FB80190E00E947248F801019096
:103F40000020E9F73197AF01401B510BB80185EE16
:103F500091E10E94621F0F900F900F900F90DF91E0
:103F6000CF911F910F9108950F931F93CF93DF93DC
:103F7000CDB7DEB764970FB6F894DEBF0FBECDBFE6
:103F80008E010F5F1F4F22E044E00E949E47FC011C
:103F900001900020E9F73197AF01481B590BBC0194
:103FA00085EE91E10E94621F64960FB6F894DEBF21
:103FB0000FBECDBFDF91CF911F910F910895CF9389
:103FC000DF9300D0CDB7DEB769831A8241E050E0BD
:103FD000BE016F5F7F4F0E94621F0F900F90DF91B5
:103FE000CF910895FB0101900020E9F73197AF01CF
:103FF000461B570B0C94621FEF92FF920F931F9377
:10400000CF93DF93EC017B018A01BA010E943A1F32
:1040100081110BC0CE010E94211FCE01DF91CF91F3
:104020001F910F91FF90EF9008951D830C83B701AE
:10403000888199810E945750F0CFFC011182108233
:10404000138212821582148250E040E069ED71E023
:104050000C94FC1FCF93DF9300D000D000D0CDB7DD
:10406000DEB70E94371764E670E080E090E00E94BF
:104070003609CE0101960E941D206091100ACE01E2
:1040800001960E94DF1F61E372E0CE0101960E945B
:10409000F21FCE0101960E9487176CE271E080E06A
:1040A00090E00E94360986EA9EE00E944B16892B1A
:1040B00029F086EA9EE00E941C16F5CF64E170E0CC
:1040C00080E090E00E9436090E94241764E170E0CD
:1040D00080E090E00E943609CE0101960E94331FD5
:1040E00026960FB6F894DEBF0FBECDBFDF91CF91FD
:1040F0000895CF93DF9300D000D000D0CDB7DEB7C6
:104100000E94371764E670E080E090E00E94360974
:10411000CE0101960E941D206091100ACE010196E9
:104120000E94DF1F65E372E0CE0101960E94F21F3C
:10413000CE0101960E9487176CE271E080E090E06A
:104140000E94360986EA9EE00E944B16892B29F0D0
:1041500086EA9EE00E941C16F5CF64E170E080E0E4
:1041600090E00E9436090E94241764E170E080E02C
:1041700090E00E943609CE0101960E94331F2696D8
:104180000FB6F894DEBF0FBECDBFDF91CF9108957B
:10419000FB0101900020E9F73197AF01461B570B57
:1041A0000C94FC1F1F93CF93DF9300D000D000D05E
:1041B000CDB7DEB7CE0101960E941D2081ED98E0BB
:1041C0000E94BB0780910C010E945E1989E392E076
:1041D0000E94341D87E69CE00E944207892BD1F3A0
:1041E00087E69CE00E942107182F80ED810F8A301E
:1041F00090F0812F8F7D81548A3168F01A3021F040
:104200008DE492E00E94571A87E69CE00E944207E4
:10421000892BD1F3E5CF812F0E945E198DE892E0C2
:104220000E94571A69ED71E0CE0101960E94C820E4
:1042300060910C01CE0101960E94DF1F62EA72E0DC
:10424000CE0101960E94F21F612FCE0101960E94BD
:10425000DF1F62E974E0CE0101960E94F21FCE01D9
:1042600001960E9487176CE271E080E090E00E9466
:10427000360986EA9EE00E944B16892BA1F086EA59
:104280009EE00E944B16892B51F086EA9EE00E9428
:104290001C16682F87E69CE00E947207F0CF84EA24
:1042A00092E00E94571ACE0101960E94331F269673
:1042B0000FB6F894DEBF0FBECDBFDF91CF911F9137
:1042C00008950F931F93CF93DF9300D000D000D0B9
:1042D000CDB7DEB7182FCE0101960E941D2069EDE3
:1042E00071E0CE0101960E94C820612FCE01019697
:1042F0000E94DF1F62E974E0CE0101960E94F21F66
:1043000003E010E0CE0101960E94871764E670E09A
:1043100080E090E00E94360986EA9EE00E944B16FB
:10432000181619064CF064E670E080E090E00E94F8
:1043300036090150110931F786EA9EE00E944B16BA
:104340001092080A1092070A1092B30E11E0029719
:104350000CF410E0CE0101960E94331F812F2696A7
:104360000FB6F894DEBF0FBECDBFDF91CF911F9186
:104370000F910895CF93DF93EC01FB018617970708
:1043800049F0608171816115710541F04481558169
:104390000E94FC1FCE01DF91CF9108950E94211F42
:1043A000F9CFCF93DF9300D000D000D0CDB7DEB7E8
:1043B0001A8219821C821B821E821D8265EE71E1A7
:1043C000CE0101960E94BA214091EF115091F01157
:1043D0006091EB117091EC11CE0101960E94621F69
:1043E000811104C0CE0101960E94211FBE016F5FA2
:1043F0007F4F8BEE91E10E94BA21CE0101960E947F
:10440000331F64E670E080E090E00E9436098BEE96
:1044100091E10E943F1962E370E080E090E00E9429
:10442000360926960FB6F894DEBF0FBECDBFDF91DA
:10443000CF910895CF92DF92EF92FF920F931F9347
:10444000CF93DF93EC017B018A01E881F98102803F
:10445000F381E02D0995D82E882329F1E114F10488
:10446000D1F001151105B9F0CFB6F8948A8D8350BB
:10447000990BF8012081281719061CF08A8D8450A9
:104480008083F801408150E0BE01615E7F4FC7012B
:104490000E943350CFBE8FB7F894FE01E65EFE4F08
:1044A00010821A8E8FBF8D2DDF91CF911F910F91AA
:1044B000FF90EF90DF90CF900895EF92FF920F93CF
:1044C0001F93CF93DF9300D01F92CDB7DEB78C013F
:1044D0000E94BA0BE82E81110CC0E12C8E2D0F909A
:1044E0000F900F90DF91CF911F910F91FF90EF9060
:1044F0000895F801808D8A3009F47EC08B3009F46C
:104500007DC022E0F22E823041F740E861E0C80130
:104510000E9490096AE070E080E090E00E94360915
:1045200061E0C8010E94D00A8038B9F660E0F80165
:10453000808D0E94CE08F801818D8F3F49F48091D3
:10454000710A843050F691E0980F9093710A818F30
:10455000F801818DE82FF0E0EE0FFF1FEE58F54FC8
:104560001183008361EB7BE0882349F068EA7BE0FC
:10457000813029F0823009F0B0CF6FE97BE08F2DD8
:104580000E94C30640E06EE0C8010E94900940E02E
:104590006FE0C8010E949009C8010E94E80943E049
:1045A00050E063EE78E0CE0101960E9469484981AF
:1045B0006DE1C8010E9490094A816EE1C8010E9424
:1045C00090094B8166E2C8010E94900940E060E2D8
:1045D000C8010E94900948E061E2C8010E94900968
:1045E00040E050EC64E674E4C8010E94FC096DE010
:1045F000C8010E94C00972CFF12C87CFFF24F39429
:1046000084CF2F923F924F925F926F927F928F92C0
:104610009F92AF92BF92CF92DF92EF92FF920F9351
:104620001F93CF93DF93CDB7DEB764970FB6F8949F
:10463000DEBF0FBECDBFCDB6DEB6DE86CD860E9414
:10464000D121E090EF11F090F011FC8AEB8A2DB7A8
:104650003EB72E193F090FB6F8943EBF0FBE2DBFCF
:104660008DB79EB701965C016091EB117091EC11D2
:10467000A7010E9433508091A40E9091A50E069739
:104680008E159F05C0F58DEA92E00E94571A80E5CD
:1046900091E00E94661060E087E10E946E0889EB5D
:1046A0000E945C1061E087E10E946E0880916F0AB1
:1046B00081110E943C10ED84FE840FB6F894FEBE7A
:1046C0000FBEEDBE64960FB6F894DEBF0FBECDBF31
:1046D000DF91CF911F910F91FF90EF90DF90CF90DE
:1046E000BF90AF909F908F907F906F905F904F9012
:1046F0003F902F9008952DB63EB64090960E509064
:10470000970E6090980E7090990E9FEF491A590A73
:10471000690A790AEB88FC88A6E0EA0EF11C009190
:10472000A20E1091A30EC701B8010E94F04D009790
:1047300009F461C10E0D1F1D081B190BEDB7FEB763
:10474000E01BF10B0FB6F894FEBF0FBEEDBF2DB707
:104750003EB72F5F3F4F4901ADB7BEB711964D929F
:104760005D926D927C921497F901F582E4828DB787
:104770009EB707964B895C89B5010E943350A8010A
:104780004E195F0970E060E0C4018E0D9F1D0E940C
:104790003C502801712C612C40918E0E50918F0E4F
:1047A0006091900E7091910EC0909E0ED0909F0ED1
:1047B000E090A00EF090A10ECF86D88AE98AFA8AFE
:1047C000D301C801840F951FA61FB71FE091840E67
:1047D000F091850EC816D906EA06FB0608F00DC151
:1047E0005601A41AB50A7801EA18FB08850194015C
:1047F000CF010E943C1164EF71E080E090E00E94E4
:104800008D1094012A0D3B1D40919A0E50919B0EE4
:1048100060919C0E70919D0E87018091840E909105
:10482000850E0E943C1180908E0E90908F0EA0906D
:10483000900EB090910E8091960E9091970EA0914F
:10484000980EB091990E0196A11DB11D8093960E00
:104850009093970EA093980EB093990EC301B20156
:10486000680D791D8A1D9B1D0E94C50560938E0EE3
:1048700070938F0E8093900E9093910E705F8F4F78
:104880009F4F6627707F99270E94C5052B013C0129
:104890000E942412811128C0C301B2010E94051197
:1048A000C301B201705F8F4F9F4F6627707F9927BA
:1048B0000E94C5056D837E838F839887AE014F5F0D
:1048C0005F4F61E0CE0105960E940B13882361F0D3
:1048D0008D819E81AF81B8858093860E9093870EDF
:1048E000A093880EB093890E4092920E5092930E30
:1048F0006092940E7092950E80928A0E90928B0E1A
:10490000A0928C0EB0928D0E8091860E9091870EA3
:10491000A091880EB091890E0097A048B10540F093
:104920008092860E9092870EA092880EB092890E89
:104930000FB6F8943EBE0FBE2DBE60918A0E7091E8
:104940008B0E80918C0E90918D0E0E94D4117C0163
:1049500060918A0E70918B0E80918C0E90918D0ECD
:104960000E94D4118C01009769F02091A20E309121
:10497000A30EB9010E94F04D009721F0020F131F02
:10498000081B190B82EC92E00E94341D6091960E78
:104990007091970E8091980E9091990E0E944A1AEC
:1049A00082ED92E00E94341D8BEE91E10E943F194E
:1049B00089ED92E00E94341DCB88DC88B60190E03E
:1049C00080E04AE00E946A1985EE92E00E94341D60
:1049D000B70190E080E04AE00E946A1982EF92E01D
:1049E0000E94341DB80190E080E04AE00E946A19FC
:1049F0000E943B194CCE8701A1CE9401CF0111CF6B
:104A00002F923F924F925F926F927F928F929F92DE
:104A1000AF92BF92CF92DF92EF92FF920F931F93CC
:104A2000CF93DF93CDB7DEB7C65FD1090FB6F89449
:104A3000DEBF0FBECDBF2DB73EB7C351DF4F3983A9
:104A40002883CD5ED04069ED71E08BEE91E10E944C
:104A5000C8200E94371764EF71E080E090E00E9468
:104A60003609A12CAE014F5F5F4F3A0160913103CF
:104A7000709132038091330390913403C151DF4F21
:104A8000688379838A839B83CF5ED040809135038E
:104A900090913603A0913703B0913803CD50DF4F8A
:104AA00088839983AA83BB83C35FD0408091220A05
:104AB000A81608F039C490E8A99E80011124F801D5
:104AC000E75FFD4EB080A0920B0A64E073E0C8017E
:104AD000825D9D4E0E944E50892B09F0ACC08EE045
:104AE00080930A0A81E08093090A64E670E080E01E
:104AF00090E00E9436098091090A882309F440C396
:104B0000C253DF4FB882CE5CD040C153DF4F188212
:104B1000CF5CD04000910B0AF0E80F9F8001112478
:104B200064E073E0C801825D9D4E0E944E5069E0D2
:104B300073E0892B11F46DE073E0CE0181529F4F39
:104B40000E945750BE0161527F4FCE0182539F4F4A
:104B50000E944350CE0182539F4F0E94071964EF79
:104B600071E080E090E00E94360986EA9EE00E94B3
:104B70004B16843008F485C32DB73EB7C751DF4FBD
:104B800039832883C95ED040C853DF4F1882C85C80
:104B9000D040AE0142585F4F7A0110E000E0D12CC6
:104BA000C02E86EA9EE00E941C16D7018D937D01DF
:104BB0008D3009F0BBC0EEE7F0E0EC0FFD1FE00F19
:104BC000F11F10821092080A1092070A1092B30E79
:104BD000CD0C4C2C512C7201B1E0EB1AF108EDB761
:104BE000FEB7E419F5090FB6F894FEBF0FBEEDBF8E
:104BF0000DB71EB70F5F1F4FD12C992493949EE7DA
:104C0000892EDC1408F0ABC0EEE7F0E0EC0FFD1FDE
:104C1000E90DF11D8081F801ED0DF11D8B3209F0D8
:104C200095C08082939465E070E080E090E00E94FF
:104C30003609D394E6CFC8018D5C9D4E0E940719BA
:104C400064E670E080E090E00E94360986EA9EE02B
:104C50000E944B16181619060CF05FC08DB69EB652
:104C600081E08093090A86EA9EE00E944B16582E46
:104C70008C011127ADB7BEB7A01BB10B0FB6F894CE
:104C8000BEBF0FBEADBFEDB7FEB731966F014E2E62
:104C90007F018E2D8419851540F486EA9EE00E94DE
:104CA0001C16D7018D937D01F4CF0C0D1D1DF8014D
:104CB00034972081022E000C330B20533109E8EE8B
:104CC000F3E02E9FC0012F9F900D3E9F900D112469
:104CD0009093060A8093050A03501109D8018C911C
:104CE000805380930A0A0FB6F8949EBE0FBE8DBE05
:104CF0006091050A7091060A072E000C880B990B2B
:104D00000E9436091092080A1092070A1092B30EF8
:104D100062E370E080E090E0ECCEE8EEF3E0F09348
:104D2000060AE093050A1092090AE2CF8D3209F4CF
:104D3000D3946AE070E080E090E00E9436090F5F53
:104D40001F4F0B34110509F02BCF3CCF8D3229F4C6
:104D5000D3948082F801ED0DF11D808363CFF801BB
:104D6000EE0DFF1D108280910B0A282F30E0C951F3
:104D7000DF4F39832883C75ED0407901F694FE2C3B
:104D8000EE24F794E79461E173E0C701825D9D4EE4
:104D90000E944E50A701485C5D4ECD51DF4F5983B4
:104DA0004883C35ED040B701665F7D4ECB51DF4F75
:104DB00079836883C55ED040892B09F031C28DB7F5
:104DC0009EB7C551DF4F99838883CB5ED040C151D8
:104DD000DF4F288139814A815B81CF5ED040C55247
:104DE000DF4F288339834A835B83CB5DD040D80172
:104DF0001196EC901197C952DF4FE882C75DD04001
:104E000012968C911297C852DF4F8883C85DD040AC
:104E10001396FC90C752DF4FF882C95DD040C6524E
:104E2000DF4F1882CA5DD040BE0169527F4FCE016C
:104E300085529F4F0E944E50892BE1F06801F80186
:104E400080E091919E3209F491C08F5F8530C9F75F
:104E500090E0DC011197A00FB11F2C91F801E80F31
:104E6000F91F20830297F801E80FF91F80818C93C6
:104E70008EE280836EE770E0C8010E946D50FC01F5
:104E8000118264E170E080E090E00E943609C7532F
:104E9000DF4FB882C95CD040C653DF4F1882CA5C6E
:104EA000D040CD50DF4F288139814A815B81C35F7B
:104EB000D040CD52DF4F288339834A835B83C35D63
:104EC000D040BE016D527F4FCE0187539F4F0E944D
:104ED0004350CE0187539F4F0E94071964EF71E042
:104EE00080E090E00E94360986EA9EE00E944B1620
:104EF0004C0199249401225031094DB75EB7421BF1
:104F0000530B0FB6F8945EBF0FBE4DBF6DB77EB7A3
:104F10006F5F7F4F7B01863008F47FC0312C71E0DA
:104F2000871A9108C32CD12CC814D9040CF075C071
:104F300086EA9EE00E941C168D3009F457C08A3024
:104F400009F466C0B81609F457C08B3209F45AC088
:104F50008D3209F457C0F701EC0DFD1D80836FE021
:104F600070E080E090E00E94360944C0823009F091
:104F70006FCF2DB73EB7EDB7FEB7E419F5090FB601
:104F8000F894FEBF0FBEEDBF3196D8018C91ADB73E
:104F9000BEB711968C93918380E38283E382F4827F
:104FA00064E0862F90E08415950570F05E2FCF01A8
:104FB000482F451B4415150498F4FC014191CF017D
:104FC000D6014D936D01F4CFAF01480F591F800FEB
:104FD000911FDC018C91DA0111968C936F5FE1CF08
:104FE0000FB6F8943EBF0FBE2DBF44CFF701EC0DB6
:104FF000FD1D1082339496CF8BE2B81619F09DE216
:10500000B91209C0F701EC0DFD1DAEE7A083A7CFD3
:10501000BAE0BB12EFCF3A94EDCF6EE770E0C70174
:105020000E946D508E199F09382FF701E80FF11D6E
:1050300091E02FEF290F931738F482918E3721F0EA
:10504000232E291A9F5FF5CF822F90E0AC014F5F8E
:105050005F4FEDB7FEB7E41BF50B0FB6F894FEBF3C
:105060000FBEEDBF4DB75EB74F5F5F4F6A01D7010F
:10507000A20DB11DFA013E2F341B321718F43D91D9
:105080003193F9CFF601E80FF91F1082480E591E2F
:105090005FEF451A550A6DB77EB7641975090FB6EB
:1050A000F8947EBF0FBE6DBF8DB79EB701967C0191
:1050B0008EE7ADB7BEB711968C93B801C7010E94B9
:1050C000575064E170E080E090E00E943609B6013C
:1050D000C7010E94435064E170E080E090E00E94CC
:1050E00036098091220A8150990BC951DF4FE8811E
:1050F000F981C75ED040E817F90709F466C0FF924E
:10510000EF92CC51DF4FF881C45ED040FF93CD5178
:10511000DF4F2881C35ED0402F93CA51DF4F3881C3
:10512000C65ED0403F93CB51DF4F4881C55ED04033
:105130004F9386E193E09F938F937F926F920E94AB
:1051400092506DB77EB7665F7F4F0FB6F8947EBF03
:105150000FBE6DBFC551DF4F28813981CB5ED04076
:105160000FB6F8943EBF0FBE2DBFC751DF4FA881C9
:10517000B981C95ED0400FB6F894BEBF0FBEADBFB7
:1051800062E370E080E090E00E943609B3018BEEAC
:1051900091E10E94F21F62E370E080E090E00E94E3
:1051A00036091092080A1092070A1092B30E62E3B1
:1051B00070E080E090E00E94360964EF71E080E0EA
:1051C00090E00E943609A39471CCFF92EF92CC51EB
:1051D000DF4F7881C45ED0407F93CD51DF4F88810F
:1051E000C35ED0408F93CA51DF4F9881C65ED040D6
:1051F0009F93CB51DF4FA881C55ED040AF938FE125
:1052000093E09F938F937F926F920E949250EDB79D
:10521000FEB73A960FB6F894FEBF0FBEEDBF9ACF19
:10522000B801C701825C9D4E0E9457501F930F9397
:10523000CC51DF4F3881C45ED0403F93CD51DF4F1A
:105240004881C35ED0404F93CA51DF4F5881C65E3C
:10525000D0405F93CB51DF4F6881C55ED0406F93E4
:1052600086E193E09F938F937F926F920E9492507A
:105270008DB79EB70A960FB6F8949EBF0FBE8DBF2E
:1052800074CF8DB69EB686E0E9E3F3E0DE01A25866
:10529000BF4F01900D928A95E1F7C0900A0A8C2DBC
:1052A000880F8C0D880FEDB7FEB7E81BF1090FB61C
:1052B000F894FEBF0FBEEDBF2DB73EB72F5F3F4F37
:1052C00079012901BE0162587F4FC9010E945750E0
:1052D00031E03C1580F4B12C4C2D4150550B6A0146
:1052E000BC141D0444F4BE0162587F4FC2010E94E9
:1052F0004350B394F5CFFF92EF92C801885C9D4E66
:105300009F938F93065F1D4E1F930F9387E293E049
:105310009F938F937F926F920E9492500FB6F89452
:105320009EBE0FBE8DBE2CCF0E94241762E370E09C
:1053300080E090E00E943609C351DF4F6881798197
:10534000CD5ED0400FB6F8947EBF0FBE6DBFCA5081
:10535000DF4F0FB6F894DEBF0FBECDBFDF91CF9108
:105360001F910F91FF90EF90DF90CF90BF90AF9083
:105370009F908F907F906F905F904F903F902F9075
:1053800008952F923F924F925F926F927F928F92E9
:105390009F92AF92BF92CF92DF92EF92FF920F93C4
:1053A0001F93CF93DF93CDB7DEB7A8970FB6F894CE
:1053B000DEBF0FBECDBF0E94A40E68EC70E080E09F
:1053C00090E00E9436096091820A7091830A90E011
:1053D00080E00E94344B4091C1100E94910D8111D8
:1053E00004C08FE393E00E94571A84E189A31092CE
:1053F000040A8CE493E00E94571A0E9469091B0179
:105400002C0180910D01882309F4B7C0C090000AD7
:10541000D090010AE090020AF090030A20E8C20E40
:105420002CE2D21E20E8E21EF11C8091FC09909132
:10543000FD09A091FE09B091FF09C81AD90AEA0A2C
:10544000FB0A83E693E00E94341DC701B6010E9467
:10545000C1190E943B198E010F5F1F4F3E0135E1BC
:10546000630E711C4E0187E1880E911C9E01275E20
:105470003F4F3CA32BA3CE014B969EA38DA32C5F45
:105480003F4F38A72FA35E013FE1A30EB11C8091CF
:10549000040A81118AC00E9469096219730984098A
:1054A00095096C157D058E059F0508F06DC00E945D
:1054B000CC179E012E5D3F4F40ED57E0BE016F5D62
:1054C0007F4FC8010E940A0C882309F389A1882311
:1054D000F1F27F926F929F928F928CA18F939BA1FA
:1054E0009F932EA12F933DA13F9388A58F939FA1BA
:1054F0009F93BF92AF9221E733E03F932F931F9387
:105500000F930E94C2500FB6F894DEBF0FBECDBFFE
:10551000892B09F4BCCF8F8D98A1813D37E093078B
:105520000CF4B5CF825B8093F00B8D8D8093EF0BE5
:105530008B8D8093EE0B898D8093EC0B8F898093FC
:10554000EB0B8D898093EA0B0E946A1865E070E08E
:1055500080E090E00E94360981E08093040A83E8AD
:1055600093E00E94341DC8010E94571A60916F0B8E
:105570008BEE91E10E94AE1D8ACF80E6C82E8AEEA6
:10558000D82EE12CF12C67CF80910D0181110DC037
:105590008091860A8F5F8093860A8CE993E00E944F
:1055A000341D8091860A0E94B519A8960FB6F8940A
:1055B000DEBF0FBECDBFDF91CF911F910F91FF9046
:1055C000EF90DF90CF90BF90AF909F908F907F90A3
:1055D0006F905F904F903F902F9008952F923F9241
:1055E0004F925F926F927F928F929F92AF92BF92F3
:1055F000CF92DF92EF92FF920F931F93CF93DF939F
:10560000CDB7DEB761970FB6F894DEBF0FBECDBF42
:10561000182F4090220A842C912CF401EF5EF54F54
:1056200080831092080A1092070A1092B30ECE01DE
:1056300001960E941D20612FCE0101960E94DF1F5E
:1056400068EA73E0CE0101960E94F21FCE01019636
:105650000E94871765E372E080E090E00E943609BF
:1056600086EA9EE00E944B166C01B82E24E2429E10
:10567000C0011124FC01E554F84F7F0110E000E067
:105680000B15A8F486EA9EE00E941C168A3061F091
:105690008D3051F0F701E00FF11F808368E070E07A
:1056A00080E090E00E9436090F5F1F4FE9CF840130
:1056B0001695102F0027179507959801275F3D4EE7
:1056C000190184E2889DF001899DF00D1124E554B3
:1056D000F84F8081F9018083DD24A601B701C8015C
:1056E000865F9D4E0E945E50C20CD31CF60131971E
:1056F00010829801225D3D4E3901C8018D5C9D4E9E
:105700004C019FE2C92E91E0D92E198A512CF60145
:10571000A080B180B501C7010E947850FC01DE0174
:105720001C969C012C5F3F4FCD0141914D932E174C
:105730003F07D9F7188AB5010E944E50892BD9F539
:1057400044E050E0B501C3010E945E50F101808148
:105750008F836AE070E080E090E00E94360918864E
:10576000F60162817381CE0107960E9443506AE080
:1057700070E080E090E00E9436098985813209F46A
:105780001A8645E050E0BE01695F7F4FC4010E9468
:105790005E5064E170E080E090E00E943609F3E042
:1057A0005F1207C0F10180818093100AF1E0F0934D
:1057B000850A21E0298B539434E0C30ED11C86E086
:1057C0005812A5CF998991111BC084E0EBEAF3E050
:1057D000D30101900D928A95E1F7F801E75FFD4E44
:1057E00080818F8360EB73E0CE0107960E94435067
:1057F00045E050E0BE01695F7F4FC4010E945E50EA
:1058000087E69CE00E94D607CE0101960E94331FD6
:1058100043944092220A61960FB6F894DEBF0FBE01
:10582000CDBFDF91CF911F910F91FF90EF90DF904F
:10583000CF90BF90AF909F908F907F906F905F9030
:105840004F903F902F900895CF930E94371764E6B2
:1058500070E080E090E00E94360987E991E00E94C4
:1058600052190E943B19C0E38C2F0E9461218823AA
:1058700019F08C2F0E94EE2ACF5FCA33A9F7C1E638
:105880008C2F0E946121882319F08C2F0E94EE2A10
:10589000CF5FCB37A9F7C1E48C2F0E946121882309
:1058A00019F08C2F0E94EE2ACF5FCB35A9F762E367
:1058B00070E080E090E00E943609C0E08091220A0A
:1058C000C81780F420E8C29FC0011124865F9D4E56
:1058D0000E94571A68E070E080E090E00E9436096C
:1058E000CF5FECCF0E943B1982E991E00E945219F0
:1058F00062E370E080E090E00E9436090E94241785
:105900001092810ACF910895FC01808191810C94BD
:10591000534CEF92FF920F931F93CF93DF9300D0DE
:10592000CDB7DEB78AE7E82E8BE0F82E08E01BE063
:105930001A830983CE0101960E94842CF70181937A
:105940007F010F5F1F4F0837FBE01F0789F78AE7CA
:105950009BE00F900F90DF91CF911F910F91FF90DF
:10596000EF9008950E94892C64E670E080E090E05A
:105970000E943609EAE7FBE080E7DF011D928A9585
:10598000E9F70895AF92BF92CF92DF92EF92FF9224
:105990000F931F93CF93DF9300D0CDB7DEB78B016A
:1059A0006B012CE0C20ED11C7B015C01A61AB70A68
:1059B000C5018E0D9F1D9A838983CE0101960E9499
:1059C000842CF70181937F01EC15FD0589F7C8014F
:1059D0000F900F90DF91CF911F910F91FF90EF905B
:1059E000DF90CF90BF90AF9008950F931F93CF9308
:1059F000DF9300D0CDB7DEB78B019A838983CE01C8
:105A000001960E94842CF8018083C8010F900F90AA
:105A1000DF91CF911F910F910895CF93DF9300D025
:105A2000CDB7DEB79A838983CE0101960E94842C7C
:105A30000F900F90DF91CF9108958F929F92AF9228
:105A4000BF92CF92DF92EF92FF920F931F93CF936B
:105A5000DF93CDB7DEB72F970FB6F894DEBF0FBE3A
:105A6000CDBF0E946F0F6093880A7093890A80935C
:105A70008A0A90938B0A82E10E944518182F81E1CF
:105A80000E944518612F782F77FF02C0615C7F4F1D
:105A900086E0759567958A95E1F7072E000C880BCF
:105AA000990B0E94364B20E030E040E85EE30E9414
:105AB000954B60930C0A70930D0A80930E0A909395
:105AC0000F0A61E08CE10E94CE0880E390E09A83A7
:105AD00089838E010F5F1F4FC8010E94842C8E871F
