:100000000C94CE050C940D450C94E2440C94B7442A
:100010000C948C470C94F8050C94F8050C94A847A4
:100020000C94F8050C94F8050C94F8050C94F8055C
:100030000C94F8050C9438450C94F8050C94F805CC
:100040000C94F8050C94F8050C946D440C94F80588
:100050000C9438440C940E440C94F8050C94F80558
:100060000C94F8050C94F8050C9468460C94F8056B
:100070000C94F8050C94F8050C94F8050C94F8050C
:100080000C94F8050C94F8050C94F80500407A10CF
:10009000F35A00A0724E18090010A5D4E80000E839
:1000A0007648170000E40B54020000CA9A3B000097
:1000B00000E1F505000080969800000040420F0026
:1000C0000000A08601000000102700000000E803E7
:1000D000000000006400000000000A0000000000B2
:1000E0000100000000002C76D888DC674F0823DF71
:1000F000C1DFAE59E1B1B796E5E3E453C63AE65144
:10010000997696E8E6C28426EB898C9B62ED407C6A
:100110006FFCEFBC9C9F40F2BAA56FA5F490055A06
:100120002AF75C936B6CF9676DC11BFCE0E40D472B
:10013000FEF520E6B500D0ED902E0300943577054E
:100140000080841E080000204E0A000000C80C3306
:100150003333330F986E12831141EF8D2114893B95
:10016000E65516CFFEE6DB18D1844B381BF77C1D15
:10017000901DA4BBE424203284725E228100C9F168
:1001800024ECA1E53D276364696E6F707375785840
:100190005B00446F6E65005363616E6E696E67202D
:1001A000666F72205344492D31322073656E736F30
:1001B00072732E2E2E002020696E707574206D696A
:1001C0006E7574653A20002020696E707574206821
:1001D0006F75723A202020002020696E707574209F
:1001E000796561723A202020002020696E70757454
:1001F000206461793A20202020002020696E7075EB
:1002000074206D6F6E74683A202000456E746572BC
:1002100020746865206461746520616E642074696F
:100220006D6520696E20436F6F7264696E617465DD
:100230006420556E6976657273616C2054696D65D2
:100240002028555443293A200044617461206C6F82
:100250006767696E67206F6E6C79206D6F646500EB
:1002600020202020456E7465722047617465776197
:100270007920726164696F2049443A2000417265B7
:1002800020796F75207573696E67206120476174EE
:10029000657761793F2028792F6E293A20004465DF
:1002A0006661756C7420726164696F2049442061D5
:1002B0006363657074656400526164696F204944CA
:1002C00020757064617465640020456E74657220E9
:1002D0006E657720726164696F2049443A20005747
:1002E0006F756C6420796F75206C696B6520746F15
:1002F000206368616E676520746865207261646957
:100300006F2049442066726F6D20746865206465B3
:100310006661756C742076616C75653F2028792F55
:100320006E293A2000496E76616C696420696E74AA
:10033000657276616C2E20456E746572206D656104
:10034000737572656D656E7420696E746572766121
:100350006C202865766572792031302C2031352C5F
:100360002032302C2033302C206F72203630206D1C
:10037000696E73293A2000456E746572206D65615F
:10038000737572656D656E7420696E7465727661E1
:100390006C202865766572792031302C2031352C1F
:1003A0002032302C2033302C206F72203630206DDC
:1003B000696E73293A200053756363657373004156
:1003C000646472657373206368616E67652066613B
:1003D000696C65640043757272656E742061646453
:1003E000726573733A20002020456E746572206137
:1003F0002050726F6A65637420494420287570200C
:10040000746F203520636861726163746572732C48
:100410002065783A20505341293A20004578697484
:100420000044656275672073746174656D656E74F0
:1004300073206F666600446562756720737461742B
:10044000656D656E7473206F6E005475726E2064F6
:10045000656275672073746174656D656E74732071
:100460006F6E3F2028792F6E293A2000446562750F
:10047000672073746174656D656E7473206F6E00B0
:1004800044656275672073746174656D656E74731D
:10049000206F6666005475726E2064656275672011
:1004A00073746174656D656E7473206F66663F204A
:1004B00028792F6E293A200041726520796F7520C6
:1004C0007375726520796F752077616E7420746F13
:1004D00020657261736520616C6C206461746120B9
:1004E00073746F72656420696E206D656D6F7279CB
:1004F0003F2028792F6E293A2000496E76616C6979
:100500006420696E7075742E2052657475726E6900
:100510006E6720746F206D656E752E00456E746574
:10052000722063686F6963653A2000202074202D73
:100530002D3E205072696E74206C61746573742056
:100540006461746100202061202D2D3E205072696D
:100550006E7420616C6C2074686520646174610045
:100560005072696E74206461746120746F207363CB
:100570007265656E3A200054657374206D65617311
:100580007572656D656E74733A0020202041726546
:1005900020796F75207375726520796F752077618A
:1005A0006E7420746F2065726173653F20456E74B0
:1005B000657220792F6E3A20002020204C61742F24
:1005C0006C6F6E672076616C7565732077696C6CF3
:1005D00020617070656172206173202D393939395D
:1005E000393939393920696E20746865206461743D
:1005F0006120737472696E672E00204552524F520B
:100600003A204C6F6E67697475646520696E636F1C
:10061000727265637421002020204C6F6E676974CC
:100620007564653A2000204552524F523A204C6181
:1006300074697475646520696E636F727265637442
:1006400021002020204C617469747564653A200093
:1006500020202053656C656374206F7074696F6E21
:100660003A200020202030203C2D2D20457261733F
:1006700065204C61742F4C6F6E672076616C7565D8
:10068000730020202031203C2D2D20456E74657292
:10069000204C61742F4C6F6E672076616C756573AA
:1006A00000456E7465722073656E736F72206465A9
:1006B00070746820696E20636D2E20557365202745
:1006C0002B27206F7220272D2720746F20696E64DE
:1006D00069636174652061626F7665206F72206264
:1006E000656C6F7720736F696C20737572666163D8
:1006F000653A00456E74657220636F6E6669677552
:10070000726174696F6E20737472696E673A20004B
:1007100052454D494E4445523A2055736520272B8A
:1007200027206F7220272D2720746F20696E64693F
:10073000636174652061626F7665206F7220626507
:100740006C6F7720736F696C207375726661636577
:1007500020666F72206465707468732100456E7442
:1007600065722063686F6963653A200020202078F5
:1007700020203C2D2D202045786974206D656E75F4
:10078000002020206220203C2D2D20205475726EE8
:100790002064656275672073746174656D656E743D
:1007A00073206F6E2F6F6666002020206520203C2E
:1007B0002D2D2020457261736520616C6C20646171
:1007C0007461002020207020203C2D2D20205072AC
:1007D000696E74206461746120746F207363726544
:1007E000656E002020207420203C2D2D2020546593
:1007F00073742073656E736F727300202020612004
:10080000203C2D2D20204368616E676520534449AC
:100810002D31322073656E736F722061646472656E
:1008200073736573002020206E20203C2D2D202026
:100830005363616E20666F722064657669636573C9
:10084000206F6E205344492D313220627573002091
:1008500020206D20203C2D2D2020536574206D65B7
:1008600061737572656D656E7420696E74657276FC
:10087000616C002020207220203C2D2D2020436818
:10088000616E6765204E6F646520726164696F20D8
:100890004944002020206720203C2D2D2020456E3B
:1008A000746572204761746577617920726164694B
:1008B0006F204944002020206C20203C2D2D20203A
:1008C000456E746572206F72206572617365204C8D
:1008D00061742F4C6F6E672076616C7565730020B4
:1008E00020206920203C2D2D2020456E746572202B
:1008F00070726F6A65637420494400202020632071
:10090000203C2D2D202053657420636C6F636B0099
:100910002020206420203C2D2D2020456E746572FF
:100920002073656E736F7220646570746873002045
:1009300020203020203C2D2D2020456E7465722013
:10094000636F6E66696775726174696F6E20737428
:1009500072696E67004D656E75206F7074696F6E99
:10096000733A200043757272656E7420626174740C
:1009700065727920766F6C746167653A2020004358
:10098000757272656E7420646174652026207469C6
:100990006D653A20004D6561737572656D656E74A5
:1009A00020496E74657276616C3A20004761746507
:1009B00077617920526164696F2049443A2000527E
:1009C0006164696F2049443A20004C61742F6C6F58
:1009D0006E673A200050726F6A6563742049443A2A
:1009E00020004C6F526120526164696F204672652D
:1009F0007120284D487A293A200053657269616C4C
:100A0000204E756D6265723A200056657273696F8B
:100A10006E2000536F696C205761746572204461C9
:100A20007461204E6574776F726B202D2057697248
:100A3000656C657373205344492D313220446174D1
:100A4000616C6F67676572204E6F646500496E76F2
:100A5000616C696420726573706F6E7365004E6FB0
:100A6000207573657220726573706F6E73650072A6
:100A7000740092740048940078C40000002100249F
:100A80000027002A0000002200250028002B00007B
:100A900000200023002600290002020202020202B6
:100AA000020404040404040404030303030303030F
:100AB00003010101010101010101020408102040AC
:100AC0008001020408102040800102040810204028
:100AD000800102040810204080000000010200098B
:100AE0000A000000000403080700000000000000E6
:100AF0000000000000000000004552524F523A2012
:100B00004C6F6E67697475646520696E636F72728D
:100B100065637421004552524F523A204C6174690A
:100B20007475646520696E636F7272656374210009
:100B30004552524F523A204D697373696E67202BAC
:100B40002F2D206265666F72652064657074682160
:100B5000004552524F523A20496E76616C696420CA
:100B6000696E74657276616C20286576657279208D
:100B700031302C2031352C2032302C2033302C20B9
:100B80006F72203630206D696E73290070726F6A43
:100B900065637449443A20006848D94E11241FBE49
:100BA000CFEFD0E4DEBFCDBF17E0A0E0B1E0E0E4DE
:100BB000FCEB00E00BBF02C007900D92A23DB10715
:100BC000D9F72AE1A2EDB7E001C01D92A038B20723
:100BD000E1F715E0CDECD5E004C02197FE010E94BD
:100BE0007355CC3CD107C9F70E9472490C94135E2F
:100BF0000C9400001092BD0C1092BC0C10920A0FC5
:100C0000089508950895982F2091B30C81E0213222
:100C100008F043C08091B20C8111FCCF8091AB0CE5
:100C200032E03093B20C9093B10C9FEF9093890C0B
:100C30001092880C2093870CABE8BCE0E7E6FCE060
:100C400090E0291331C01092660C9091660C880FC9
:100C5000892B8093660C8091B00C813049F51092FD
:100C6000B00C8091660C8093BB008091BC0083FD2A
:100C7000F8CF85EC8093BC008091B20C8230E1F318
:100C80008091890C8F3FB1F08091890C8032A1F066
:100C90008091890C803391F084E01092B40C109212
:100CA000B30C10928A0C08953D9131939F5FC9CF88
:100CB00085EEE0CF80E0F1CF82E0EFCF83E0EDCFB3
:100CC0009091B20C9111FCCF91E09093B20C909363
:100CD000B10C2FEF2093890C1092880C260F2093D3
:100CE000870C9093660C9091660C880F892B8093EB
:100CF000660C8091B00C8130F9F41092B00C8091A8
:100D0000660C8093BB008091BC0083FDF8CF85EC1E
:100D10008093BC008091B20C8130E1F38091880C0B
:100D2000861710F46091880CA7E6BCE0E6E4FCE0CE
:100D300080E0861303C0089585EEEACF9D919193DC
:100D40008F5FF7CF4F925F926F927F928F929F92B9
:100D5000AF92BF92CF92DF92EF92FF920F931F93C9
:100D60000091F50E1091F60E2091F70E3091F80ECD
:100D7000C090F10ED090F20EE090F30EF090F40ED1
:100D8000480159018C189D08AE08BF08260137019B
:100D9000401A510A620A730A6017710782079307A3
:100DA00028F0640D751D861D971DF6CF6C157D0509
:100DB0008E059F0528F4680D791D8A1D9B1DECCFBB
:100DC0001F910F91FF90EF90DF90CF90BF90AF9069
:100DD0009F908F907F906F905F904F900895BF92FB
:100DE000CF92DF92EF92FF920F931F93CF93DF93F7
:100DF000EC01B62EC880D980EA80FB800091F90E04
:100E00001091FA0E980150E040E0C701B6010E942F
:100E1000C453662391F0862F90E09801369527956C
:100E20008217930700F1081B190BC00ED11EE11C9D
:100E3000F11CC882D982EA82FB82688179818A8129
:100E40009B81BB20A9F00E94A206688379838A83D4
:100E50009B83DF91CF911F910F91FF90EF90DF90D7
:100E6000CF90BF900895C61AD108E108F108E1CFEC
:100E70000091F50E1091F60E2091F70E3091F80EBC
:100E8000061717072807390720F7088319832A83CD
:100E90003B83DFCFEEEBFCE0A089B18982E08C934D
:100EA000A485B5851C92A685B78580E18C93108EAC
:100EB000A489B58986E08C93A289B3898C918061DD
:100EC0008C93A289B3898C9188608C93A289B38911
:100ED0008C9180688C930288F389E02D80818F7DCE
:100EE0008083089580910D0F90910E0FDC01ED919C
:100EF000FC910484F585E02D0994FF920F931F93D4
:100F0000CF93DF938C01F62ECDE0DFE088819981CD
:100F1000DC01ED91FC910488F589E02D642F0995A1
:100F200088819981DC01ED91FC910680F781E02DAB
:100F30004F2DB801DF91CF911F910F91FF90099430
:100F4000E82FF0E0EE0FFF1FE35FFE4F7183608339
:100F5000813049F0823071F0809169008360809324
:100F60006900E89A0895809169008C608093690017
:100F7000E99A089580916900806380936900EA9AF4
:100F80000895AF92BF92CF92DF92EF92FF920F93AC
:100F90001F93CF93DF936C017B018B01040F151F0F
:100FA000EB015E01AE18BF08C017D10759F0699177
:100FB000D601ED91FC910190F081E02DC6010995DB
:100FC000892B79F7C501DF91CF911F910F91FF9088
:100FD000EF90DF90CF90BF90AF900895FC01538DBC
:100FE000448D252F30E0842F90E0821B930B541703
:100FF00018F081509F4F089501970895FC01918D3D
:10100000828D981759F0A28DAE0FBF2FB11D5D963E
:101010008C91928D9F5F928F90E008958FEF9FEF5C
:101020000895FC01918D828D981731F0828DE80F23
:10103000F11D858D90E008958FEF9FEF0895FC01DD
:10104000918D828D981B892F90E008958EEB9CE006
:101050000E941F0821E0892B09F420E0822F0895C7
:10106000FC01A48DA80FB92FB11DA35EBE4F9C91AA
:10107000848D8F5F848FA689B7899C93A089B1895D
:101080008C91837080648C93938D848D981306C0AB
:101090000288F389E02D80818F7D808308950F93EE
:1010A0001F93CF93DF93EC0181E0888F9B8D8C8D14
:1010B000981318C0E889F989808185FF13C09FB70C
:1010C000F894EE89FF896083E889F98980818370CB
:1010D000806480839FBF81E090E0DF91CF911F917A
:1010E0000F910895062F1B8D1F5F8C8D81130CC0EF
:1010F0000FB607FCFACFE889F989808185FFF5CF23
:10110000CE010E943008F1CFEB8DEC0FFD2FF11DC9
:10111000E35EFE4F00839FB7F8941B8FEA89FB893B
:1011200080818062D6CF0F931F93CF93DF938C0182
:10113000D0E0C0E0F801EC0FFD1F6491662341F0A0
:101140008EEB9CE00E944F08892B11F02196F2CF84
:10115000CE01DF91CF911F910F910895682F8EEBF3
:101160009CE00C944F08CF93DF93EC01888D88238B
:10117000B9F0AA89BB89E889F9898C9185FD03C0FA
:10118000808186FD0DC00FB607FCF7CF8C9185FFDF
:10119000F2CF808185FFEDCFCE010E943008E9CFEC
:1011A000DF91CF91089580E090E0892B29F00E9493
:1011B000260881110E94000080E090E0892B49F010
:1011C00080E090E0892B29F00E94000081110C94AE
:1011D0000000089581508A3080F5E82FF0E0ED504E
:1011E000F74F0C94735507090B09FD0803091D09F6
:1011F0001D090E09140918091E09809180008F77B6
:10120000809380000895809180008F7DF9CF84B510
:101210008F7784BD089584B58F7DFBCF8091B0001A
:101220008F778093B00008958091B0008F7DF9CFC3
:10123000809190008F778093900008958091900026
:101240008F7DF9CFCF93DF93282F30E0F901E7525C
:10125000F54F8491F901E754F54FD491F901E75620
:10126000F54FC491CC23A1F081110E94EA08EC2F24
:10127000F0E0EE0FFF1FE157F54FA591B491EC910F
:10128000ED2381E090E009F480E0DF91CF910895B3
:1012900080E090E0FACF1F93CF93DF93282F30E0C8
:1012A000F901E752F54F8491F901E754F54FD491D4
:1012B000F901E756F54FC491CC23A9F0162F8111FF
:1012C0000E94EA08EC2FF0E0EE0FFF1FEB57F54FFE
:1012D000A591B4918FB7F894EC91111108C0D095F5
:1012E000DE23DC938FBFDF91CF911F910895DE2B1A
:1012F000F8CF1092B60C1092B50C1092B40C10925C
:10130000B30C1092B20C81E08093B10C1092B00C2F
:1013100061E081E10E944B0961E080E10E944B099C
:10132000E9EBF0E080818E7F808380818D7F8083F8
:1013300080E28093B80085E48093BC0081E096E071
:101340009093AF0C8093AE0C82E096E09093AD0C3E
:101350008093AC0C0895CF93DF9390E0FC01E754A9
:10136000F54F24918756954FFC0184918823D1F045
:1013700090E0880F991FFC01E558F54FA591B491B5
:10138000FC01EB57F54FC591D49161110EC09FB789
:10139000F8948C91E22FE0958E238C932881E223A0
:1013A000E8839FBFDF91CF9108958FB7F894EC91B8
:1013B000E22BEC938FBFF6CF8851806480937C0042
:1013C00080917A00806480937A0080917A0086FD13
:1013D000FCCF809178009091790008953FB7F89400
:1013E0008091D20A9091D30AA091D40AB091D50AE3
:1013F00026B5A89B05C02F3F19F00196A11DB11D70
:101400003FBFBA2FA92F982F8827BC01CD01620FAB
:10141000711D811D911D43E0660F771F881F991F65
:101420004A95D1F708958F929F92AF92BF92CF9233
:10143000DF92EF92FF926B017C010E94EE094B015B
:101440005C01C114D104E104F104B9F00E94EE0979
:10145000681979098A099B09683E734081059105DD
:1014600080F321E0C21AD108E108F10888EE880E65
:1014700083E0981EA11CB11CE4CFFF90EF90DF9099
:10148000CF90BF90AF909F908F9008952FB7F89412
:101490006091CE0A7091CF0A8091D00A9091D10AC2
:1014A0002FBF089508958BEF0895CF93DF93FC012C
:1014B000228133812230310569F0EC01638D818D09
:1014C0000E944B0960E0888D0E944B0982E090E009
:1014D0009B838A83DF91CF910895FF920F931F938F
:1014E000CF93DF93EC01162FF42E0FB7F89460E042
:1014F0008F890E944B098D899E89612F6068DC016C
:10150000ED91FC910190F081E02D0995182F8D89C6
:101510009E89DC01ED91FC910190F081E02D6F2D11
:10152000099561E08F890E944B090FBF812FDF91E0
:10153000CF911F910F91FF9008950F931F93CF9319
:101540008C01C62F44E06DE40E946D0A4BEF4C0FF6
:10155000406869E0C801CF911F910F910C946D0A0A
:10156000CF93DF93FC01228133812130310549F093
:10157000EC0140E061E00E946D0A81E090E09B8315
:101580008A8381E0DF91CF910895CF93DF93FC01AF
:10159000228133812230310549F0EC0141E061E0E4
:1015A0000E946D0A82E090E09B838A83DF91CF9155
:1015B0000895CF92DF92EF92FF92CF93DF93EC01E9
:1015C000CB01BA0120E034E244E759E40E94F05232
:1015D00020E034E244E752E40E9494540E9406550D
:1015E0006B017C01A7016627772766E0CE010E9488
:1015F0006D0A77276F2D5E2D4D2D67E0CE010E947D
:101600006D0A4C2D68E0CE010E946D0A81E0DF91E9
:10161000CF91FF90EF90DF90CF900895CF92DF921F
:10162000EF92FF920F931F93CF93DF934C3F08F0FD
:1016300067C0142F072FF62EEC01E881F98104848E
:10164000F585E02D0995CE010E94C50A40E06DE0C8
:10165000CE010E946D0A4A8560E0CE010E946D0AAB
:101660004B8560E0CE010E946D0A4C8560E0CE01A2
:101670000E946D0A4D8560E0CE010E946D0AEFB6B2
:10168000F89460E08F890E944B098D899E89DC0166
:10169000ED91FC910190F081E02D60E80995CF2C4F
:1016A000D02E012F015068F08D899E89F60161913D
:1016B0006F01DC01ED91FC910190F081E02D099525
:1016C000F1CF61E08F890E944B09EFBE44E0410FEA
:1016D00062E2CE010E946D0A8A819B81039771F0BC
:1016E00043E061E0CE010E946D0A40E460E4CE0177
:1016F0000E946D0A83E090E09B838A8381E001C0B1
:1017000080E0DF91CF911F910F91FF90EF90DF90DC
:10171000CF900895CF93DF93FC0122813381233052
:101720003105C9F0EC0182819381049771F045E0A5
:1017300061E0CF010E946D0A40E060E4CE010E94AA
:101740006D0A84E090E09B838A83C65EDE4F8881C9
:10175000DF91CF91089580E0FBCF0F931F93CF933C
:10176000DF93EC01162F0FB7F89460E08F890E9489
:101770004B098D899E89DC01ED91FC910190F081EE
:10178000E02D612F09958D899E89DC01ED91FC91F9
:101790000190F081E02D60E00995182F61E08F89BC
:1017A0000E944B090FBF812FDF91CF911F910F91A5
:1017B0000895DF92EF92FF920F931F93CF93DF93E1
:1017C000EC0162E10E94AD0B2A813B81243031059E
:1017D000A1F4982F907A89F08F8598890196988B3B
:1017E0008F874FEF62E1CE01DF91CF911F910F9173
:1017F000FF90EF90DF900C946D0A2A813B8124309A
:10180000310511F486FD0DC02A813B81233031055D
:1018100041F783FFE6CF8B899C8901969C8B8B8B4C
:1018200067C063E1CE010E94AD0B082F60E1CE01DD
:101830000E94AD0B482F6DE0CE010E946D0ADFB60D
:10184000F89460E08F890E944B098D899E89DC01A4
:10185000ED91FC910190F081E02D60E009957E0111
:10186000BBE1EB0EF11C102F115070F08D899E8999
:10187000DC01ED91FC910190F081E02D60E0099593
:10188000F70181937F01F0CF61E08F890E944B09BE
:10189000DFBE0A8F4FEF62E1CE010E946D0A6AE15E
:1018A000CE010E94AD0B89588E878A8DFE01E65EBF
:1018B000FE4F8430C8F08B8D8E838C8D8F838D8D01
:1018C00088878E8D89878D81811107C09E818C814B
:1018D000981719F08E818F3F39F489899A8901967A
:1018E0009A8B898B81E080838081882309F479CF6A
:1018F000CE010E94C50A75CF8091CB0A9091CC0A87
:10190000009711F00C94D90B08958091C90A909119
:10191000CA0A009711F00C94D90B08958091C70A58
:101920009091C80A009711F00C94D90B0895CF93A9
:10193000DF93EC018D899E89DC01ED91FC9106809D
:10194000F781E02D099561E08F890E94AB0961E084
:101950008F890E944B0964E670E080E090E00E946D
:10196000130A81E0DF91CF910895FF920F931F93A7
:10197000CF93DF931F92CDB7DEB7F42E0DE01FE0BB
:10198000D8018D919C91DC01ED91FC91008CF18D41
:10199000E02D0995F80180819181DC01ED91FC91A8
:1019A000028CF38DE02D40E060E8099581E28983A7
:1019B0004F2D61E0CE0101960E947D070E947207C3
:1019C0000F90DF91CF911F910F91FF9008952F926B
:1019D0003F924F925F926F927F928F929F92AF92BF
:1019E000BF92CF92DF92EF92FF920F931F93CF930C
:1019F000DF938C015B016A0119010E94460A2B01E9
:101A00003C01F12CE12C0E94460A641975098609F3
:101A100097096C157D058E059F0508F078C08091AB
:101A20000D0F90910E0FDC01ED91FC910280F3817E
:101A3000E02D0995882339F380910D0F90910E0FB9
:101A4000DC01ED91FC910480F581E02DA501B80148
:101A50000995C82F8823B9F280910D0F90910E0F30
:101A6000DC01ED91FC9100A0F1A1E02D0995D82FAA
:101A700080910D0F90910E0FDC01ED91FC91068C81
:101A8000F78DE02D0995882E80910D0F90910E0F06
:101A9000DC01ED91FC9102A0F3A1E02D0995982EB7
:101AA00080910D0F90910E0FDC01ED91FC9104A03F
:101AB000F5A1E02D099587FDA6CFBFEF8B1631F07C
:101AC0004D2F692D8DE09FE00E94B50CED2FF0E0C9
:101AD000E35FF04FDF011B968385891509F493CFEF
:101AE000F101D0839C928C2FDF91CF911F910F91A8
:101AF000FF90EF90DF90CF90BF90AF909F908F902E
:101B00007F906F905F904F903F902F900895C0E02E
:101B1000EACF9FB7F8948091C50A882319F08150C5
:101B20008093C50A8091C50A811105C08CB58F7B51
:101B30008CBD1092C40A9FBF08958CB58F778CBD61
:101B400008958CB580688CBD0895FC017383628311
:101B50000895FC01778366830895FC01758364838F
:101B60000895089580E00895FC0181850895FC01A1
:101B700080850895FC0187810895FC018681089580
:101B80004095FC0125854223642B65870895FC015F
:101B900064870895FC0163870895FC0162870895B6
:101BA000FC0164830895FC01658308958F929F92E0
:101BB000AF92BF92CF92DF92EF92FF92CF93DF93DB
:101BC000EC016B010E94460A4B015C01F12CE12CF7
:101BD0000E94460A681979098A099B096C157D05D6
:101BE0008E059F0580F48A819B81039789F381E0AC
:101BF000DF91CF91FF90EF90DF90CF90BF90AF90AB
:101C00009F908F90089580E0F3CFFC012281338173
:101C100023303105D1F381E008958F929F92AF92E6
:101C2000BF92CF92DF92EF92FF92CF93DF93EC01BE
:101C30006B010E94460A4B015C01F12CE12C0E94D1
:101C4000460A681979098A099B096C157D058E0574
:101C50009F05A0F4E881F9810280F381E02DCE0197
:101C60000995882361F3DF91CF91FF90EF90DF908A
:101C7000CF90BF90AF909F908F90089580E0F3CF6A
:101C8000CF93DF93EC01E881F9810280F381E02DAD
:101C9000CE0109958823B9F3DF91CF91089581E0B2
:101CA00008951F93CF93DF93EC01162F88819981BC
:101CB000DC01ED91FC910288F389E02D0995888182
:101CC0009981DC01ED91FC910688F789E02D612F67
:101CD00009951A83DF91CF911F910895CF92DF92DA
:101CE000EF92FF920F931F93CF936B017C01142F00
:101CF00080910D0F90910E0FDC01ED91FC91019000
:101D0000F081E02D0995C82F882309F160910F0F0C
:101D10008DE09FE00E94510E8CE291E09093160FAF
:101D20008093150F83E08093170F612F8DE09FE064
:101D30000E94510E00910D0F10910E0FB701A601D8
:101D4000C8010E94D90A61E1C8010E949D0A8C2F36
:101D5000CF911F910F91FF90EF90DF90CF9008955A
:101D600085ED8093BC008091BC0084FDFCCF109277
:101D7000B20C08952091A10A260F3327331F213278
:101D80003105ECF42091B20CFC0190E080E02430AD
:101D900069F082E00895A091A10A2191AC014F570A
:101DA000554FA40FB52FB11D2C930196861798F3AC
:101DB0008091A10A680F6093A10A80E0089581E0F4
:101DC00008950895E091B60C8091B50CE81730F4B1
:101DD000F0E0EA5BF34F808190E008958FEF9FEF92
:101DE00008959091B60C8091B50C2FEF3FEF9817A6
:101DF00048F4E92FF0E0EA5BF34F208130E09F5F89
:101E00009093B60CC90108958091B50C9091B60CD1
:101E1000891B990B0895CF92DF92EF92FF920F9357
:101E20001F93CF93DF937C01CB018A0120918A0C11
:101E3000222389F0EB016B01C40ED51ECC15DD0504
:101E400069F06991D701ED91FC910190F081E02D4D
:101E5000C7010995F3CF642F0E94BA0EC801DF9124
:101E6000CF911F910F91FF90EF90DF90CF90089549
:101E7000CF93DF931F92CDB7DEB7698320918A0C91
:101E80002223F9F02091B30C203258F021E030E009
:101E9000FC013383228390E080E00F90DF91CF91AB
:101EA00008958091B40CE82FF0E0E557F34F998145
:101EB00090838F5F8093B40C8093B30C81E090E0AB
:101EC000ECCF61E0CE0101960E94BA0EF7CFCF931E
:101ED000C62F91E090938A0C98E69093AB0C1092E9
:101EE000B40C1092B30C682F80E79AE10E94380F6F
:101EF0006C2F80E79AE10E94380F81E0CF910C941B
:101F00000306CF93CFB7F8948091C50A811127C0FB
:101F1000EDE9FAE08491EDEBFAE09491E82FF0E03E
:101F2000EE0FFF1FE558F54FA591B491EC91E92311
:101F300021F461E084E00E944B0961E084E00E94AA
:101F4000AB098CB580618CBD8CB580648CBD61E0C3
:101F500087E00E94AB0961E085E00E94AB098091B7
:101F6000C50A8F5F8093C50ACFBFCF910895FC014A
:101F7000268137812115310591F12130310559F143
:101F80002230310551F12330310549F52CE09CB563
:101F9000937F922B9CBD84819581019711F58CB51F
:101FA00080628CBD82819381019784309105E0F439
:101FB000845B9E4FFC0190818CB58C7F292F237010
:101FC000822B8CBD8DB592FB992790F98E7F892B42
:101FD0008DBD0C94810F24E0DACF28E0D8CF20E02B
:101FE000D6CF8CB58F7DDDCF95E0E6CFCF92DF9257
:101FF000EF92FF92CF93DF9360E08DE10E94AB09F7
:102000008DE10E94DC09B0E0A0E0BC01CD01660FCB
:10201000771F881F991F0E948F5223E333E343E504
:1020200050E40E94F05220E030E048EC52E40E947C
:10203000F05220E030E84FEF53E40E94285420E0B3
:1020400030EC4FE754E40E9494540E940655CB01B3
:1020500064E670E00E944B55EB01BC0190E080E02B
:102060000E948F5220E030E048EC52E40E949454E9
:102070006B017C01BE0190E080E00E948F529B01C9
:10208000AC01C701B6010E942854DF91CF91FF90A7
:10209000EF90DF90CF900895CF92DF92EF92FF9272
:1020A000CF93DF9361E08EE00E94AB0960E088E1AE
:1020B0000E94AB0961E08EE00E944B0984EE93E040
:1020C0000197F1F788E10E94DC09EC0160E08EE005
:1020D0000E944B09BE0190E080E022E0660F771F6E
:1020E000881F991F2A95D1F70E948F5223E333E36B
:1020F00043E550E40E94F05220E030E048EC52E426
:102100000E94F05220E030EC4FEB54E40E9428543F
:1021100020E030ED4FE355E40E9494540E940655B0
:10212000CB0164E670E00E944B55EB01BC0190E0EE
:1021300080E00E948F5220E030E048EC52E40E94A0
:1021400094546B017C01BE0190E080E00E948F52AC
:102150009B01AC01C701B6010E942854DF91CF91C9
:10216000FF90EF90DF90CF9008958EEB9CE00E945F
:10217000B308EEEBFCE0A289B3898C918F7E8C933F
:10218000A289B3898C91877F8C93A289B3898C9122
:102190008F778C93A289B3898C918F7D8C93828D5C
:1021A000818F60E08FE00E944B0960E080E00E9438
:1021B0004B0960E081E00E944B0981E291E10E94BD
:1021C000B00A80B78F7780BFEAE7F0E080818F7731
:1021D0008083F89485B7806885BF85B7806885BFA0
:1021E000789483B7817F846083BF83B7816083BF26
:1021F0007894ABE6B0E08C9184608C93A8E6B0E074
:102200008C9181608C9383B7816083BF889583B7FD
:102210008E7F83BF8081806880830E944A070E94EE
:10222000810F61E080E00E944B0961E081E00C9445
:102230004B098091C40A882361F09FB7F8942091DC
:10224000C40A80912208213019F48DBB9FBF0895E4
:102250008FBF0895CF93DF93EC0161E088810E94E6
:102260004B090E9419118B818CBD8C818DBDDF9132
:10227000CF9108958EBD00000DB407FEFDCF8EB541
:102280000895862F0C943A112091C40A222361F0FC
:102290002FB7F8943091C40A313049F43DB33093EC
:1022A00022083DB33DBB2FBF8CBD9DBD089520933B
:1022B0002208FACFCF93DF93EC018CB58B838DB5D9
:1022C0008C838D819E810E94441160E08881DF9122
:1022D000CF910C944B098F929F92AF92BF92CF9265
:1022E000DF92EF92FF920F931F93CF93DF934B01F7
:1022F0005C0128E833E140E050E00E94C4532A31F9
:10230000310510F029E130E06901F12CE12CC50123
:10231000B401A7010E94C4538901D0E0C0E0C017F6
:10232000D107C8F4A090DB0EB090DC0EC5010E946E
:102330005A1185E00E943A1180E00E943A11982ECD
:10234000C5010E942A1190FE14C0C701B6010E9467
:10235000130A2196E4CF80E0DF91CF911F910F9176
:10236000FF90EF90DF90CF90BF90AF909F908F90B5
:10237000089581E0F1CF0F931F93CF93DF93EC018A
:10238000162F442339F040E066E00E94BB11CE01D5
:102390000E942A11CE010E945A1185E00E943A1132
:1023A00080E00E943A11082FCE010E942A1100FD00
:1023B000F1CFCE010E945A11812FDF91CF911F9151
:1023C0000F910C943A11FF920F931F93CF93DF93C9
:1023D000162F072FF82E68EE73E080E090E00E9441
:1023E0006B11882301F1C091DB0ED091DC0E41E02E
:1023F00060E2CE010E94BB118F2D0E943A11802F06
:102400000E943A11812F0E943A11CE010E942A1196
:1024100068EE73E080E090E0DF91CF911F910F9123
:10242000FF900C946B1180E0DF91CF911F910F9181
:10243000FF9008952F923F924F925F926F927F92FA
:102440008F929F92AF92BF92CF92DF92EF92FF92C4
:102450000F931F93CF93DF936C012A013B01190166
:102460009A01332780E091E0821B930B912C812C01
:102470000115110581F1E8018017910708F4EC01BD
:1024800041E062E0C6010E94BB11862D0E943A1114
:10249000852D0E943A11842D0E943A115101A80CF9
:1024A000B91C7501F70181917F010E943A11C701A2
:1024B0008A199B098C179D07A8F3C6010E942A114F
:1024C0004C0E5D1E611C711C8C0E9D1E0C1B1D0B89
:1024D00080E091E0CDCFDF91CF911F910F91FF90E0
:1024E000EF90DF90CF90BF90AF909F908F907F90B4
:1024F0006F905F904F903F902F900895BF92CF9232
:10250000DF92EF92FF920F931F93CF93DF937C01A3
:10251000EA01B62E690140E06BE00E94BB118B2DF1
:102520000E943A118D2F0E943A118C2F0E943A116D
:1025300080E00E943A11E6010C0D1D1DC017D10765
:1025400029F080E00E943A118993F8CFC701DF910A
:10255000CF911F910F91FF90EF90DF90CF90BF90A0
:102560000C942A110F931F93CF93DF9300D0CDB714
:10257000DEB7AB01BC014C5F5F4F6F4F7F4F02E096
:1025800010E09E012F5F3F4F8091DB0E9091DC0E9B
:102590000E947E122091FB0E3091FC0E89819A815F
:1025A0002817390710F41A82198289819A810F90AD
:1025B0000F90DF91CF911F910F910895CF92DF92ED
:1025C000EF92FF926B017C010E94B2129C01009776
:1025D00069F0E091F90EF091FA0EBF010E944B559F
:1025E000009721F02E0F3F1F281B390BC701B601A2
:1025F000620F731F811D911DFF90EF90DF90CF90B0
:102600000C94A2060F931F93CF93DF93CDB7DEB741
:1026100060970FB6F894DEBF0FBECDBFAB01BC0113
:1026200000E110E09E012F5F3F4F8091DB0E909103
:10263000DC0E0E947E12FE013196CE014196219160
:102640002F3F79F4E817F907D1F781E060960FB6CC
:10265000F894DEBF0FBECDBFDF91CF911F910F91D8
:10266000089580E0F3CF4F925F926F927F92AF9286
:10267000BF92CF92DF92EF92FF920F931F93CF936F
:10268000DF93CDB7DEB72C970FB6F894DEBF0FBE41
:10269000CDBF6B017C015A01FA01108211821282B6
:1026A000138204E010E09A01BC01A6018091DB0EC8
:1026B0009091DC0E0E947E12F50180819181A281B1
:1026C000B3818F3F9F4FAF4FBF4F79F019861A8666
:1026D0001B861C86C701B6010E94DE122B013C013D
:1026E000C414D504E604F70411F480E054C004E0F7
:1026F00010E09E01275F3F4FBC01A2018091DB0EDD
:102700009091DC0E0E947E1249855A856B857C85EE
:10271000F50180819181A281B3810196A11DB11D36
:1027200084179507A607B70709F451C04F3F5F4FBD
:102730006F4F7F4FD1F6C301B2010E94021388236D
:10274000A1F28091F90E9091FA0EC81AD90AE10807
:10275000F108CD82DE82EF82F886AE014F5F5F4FD7
:102760006FEFCE0105960E94E913882349F1498154
:102770005A816B817C814F5F5F4F6F4F7F4F81E04C
:10278000F501C080D180E280F3804C155D056E05B7
:102790007F0509F0AACF2C960FB6F894DEBF0FBEC6
:1027A000CDBFDF91CF911F910F91FF90EF90DF9000
:1027B000CF90BF90AF907F906F905F904F900895B3
:1027C0006D817E818F8198850E940213E4CF81E024
:1027D000E2CFCF92DF92EF92FF920F931F93CF93AE
:1027E000DF93EC01D62E7A01688179818A819B8101
:1027F0000E940213CC24C39410E000E0882391F0DF
:102800008FEF9FEFDC01F70180839183A283B38375
:1028100080E0DF91CF911F910F91FF90EF90DF90BB
:10282000CF900895688179818A819B81A7010E9458
:1028300033138111EECFCC20D9F061E0CE010E949C
:10284000EF06688179818A819B810E940213C82EDC
:102850008111D6CF8091FB0E9091FC0E6091F90E04
:102860007091FA0E0E944B5560177107D8F6C8CFC9
:1028700088819981AA81BB814091F90E5091FA0E0D
:1028800070E060E01D14ACF0841B950BA60BB70B39
:1028900088839983AA83BB83688179818A819B819C
:1028A0000E94A206688379838A839B830F5F1F4FF0
:1028B000C8CF840F951FA61FB71FEACF2F923F9254
:1028C0004F925F926F927F928F929F92AF92BF9240
:1028D000CF92DF92EF92FF920F931F93CF93DF93EC
:1028E000CDB7DEB72E970FB6F894DEBF0FBECDBFC3
:1028F0008C016D87FC0160817181828193810E94CE
:1029000002138823C9F0F80180809180A280B380EF
:10291000FD85F13009F4F5C08091F10E9091F20E31
:10292000A091F30EB091F40E75016401C81AD90A92
:10293000EA0AFB0A7D84F3C02091F90E3091FA0E69
:102940008091F50E9091F60EA091F70EB091F80ED1
:10295000821B930BA109B109F80180839183A283A3
:10296000B383AE01475F5F4F6FEFC8010E94E91369
:1029700081110BC0F80160817181828193810E9475
:1029800002138111C0CF612C22C18091F10E909170
:10299000F20EA091F30EB091F40EF80180839183B2
:1029A000A283B383AE014B5F5F4F61E0C8010E9419
:1029B000E913F8016081718122819381811102C044
:1029C000822FDDCF4D805E806F8078846B01E22E98
:1029D000F92E8090F50E9090F60EA090F70EB09024
:1029E000F80E8C189D08AE08BF0822E9222E332469
:1029F00033948091F90E9091FA0EB0E0A0E0881522
:102A00009905AA05BB0520F4B694A79497948794DA
:102A1000FFEF3F1252C0C814D904EA04FB0408F0C7
:102A20004CC08091F50E9091F60EA091F70EB091EA
:102A3000F80E4091F10E5091F20E6091F30E7091EC
:102A4000F40E841B950BA60BB70B8C0D9D1DAE1DB4
:102A5000BF1D6C017D01C818D908EA08FB08F80100
:102A6000C082D182E282F38260E0C8010E94EF0658
:102A7000F80160817181828193810E94021381112A
:102A800042CFAE014F5F5F4F632DC8010E94E91333
:102A9000882341F189819A81AB81BC81F1E03F12A9
:102AA00019C0481659066A067B0640F52A9422206A
:102AB00009F469CF2C013D019CCFA32D032C000C00
:102AC000BB0BA50194010E941054C60ED71EE81E30
:102AD000F91EC5CF84159505A605B70538F333242F
:102AE0003394E4CFF80160817181828193810E94E7
:102AF0000213811108CFD301C201D8CF33243A94F5
:102B0000D5CFC090F50ED090F60EE090F70EF09075
:102B1000F80EC818D908EA08FB0877247394F2E97C
:102B2000FE87F80160817181828193810E94021386
:102B30008111C7C0F8012080318042805380C201DA
:102B4000B1016627707F99277051810991090E9410
:102B5000A2060E940213682E8823E9F0C201B10187
:102B60000E940213811117C0FD85F130A1F4F80114
:102B700080819181A281B3818827907FBB27808348
:102B80009183A283B383AE014F5F5F4F61E0C801C1
:102B90000E94E9131CC0AE014B5F5F4F672DC80157
:102BA0000E94E913F8014081518162817381882379
:102BB00009F47EC0FD85FF3F21F5CB01BA010E94DB
:102BC000DE120E940213682E882309F47EC0862D2F
:102BD0002E960FB6F894DEBF0FBECDBFDF91CF911A
:102BE0001F910F91FF90EF90DF90CF90BF90AF902B
:102BF0009F908F907F906F905F904F903F902F901D
:102C000008958091F90E9091FA0E2A013B01481A1D
:102C1000590A61087108C301B2010E940213682EAB
:102C20008111B1CF77247A948091F90E9091FA0EA8
:102C3000B0E0A0E08C159D05AE05BF0520F4F6942C
:102C4000E794D794C7948FEF781242C08C149D04F8
:102C5000AE04BF04E8F58091F50E9091F60EA091B8
:102C6000F70EB091F80E4091F10E5091F20E609176
:102C7000F30E7091F40E841B950BA60BB70B880D09
:102C8000991DAA1DBB1D4C015D018C189D08AE0845
:102C9000BF08F80180829182A282B38260E0C801FD
:102CA0000E94EF06FE85F150FE87F1113ACF6BCE00
:102CB000CB01BA010E940213882309F4B5CF7194A5
:102CC000B3CF2D852F3F09F4ADCF77247394ACCFCC
:102CD000A72D072C000CBB0BA70196010E941054D6
:102CE000860E971EA81EB91ED4CFCF93DF9300D0B7
:102CF00000D0CDB7DEB7AE014F5F5F4F0E943313F8
:102D0000882359F069817A818B819C810F900F9083
:102D10000F900F90DF91CF9108956FEF7FEFCB0170
:102D2000F5CF0F931F93CF93DF938C010E945A111D
:102D30008FE90E943A1180E00E943A11C82FD0E03A
:102D4000DC2FCC2780E00E943A11C82BC8010E94DA
:102D50002A11CE01DF91CF911F910F910895282F55
:102D600030E094E0359527959A95E1F7922F990FE9
:102D7000990F291B220F820F0895EF92FF920F9354
:102D80001F93CF93DF938C01C62FF894F090B2007D
:102D900061E0FC0184850E944B099C2F80E031E0BA
:102DA000992329F083272FEF290F9223F9CFF0E8F9
:102DB0008F9FC0011124C82B80E8D9E0982F9C2355
:102DC00019F0D1508695FACF8091B2008F198A31CF
:102DD000D8F3F090B200EE24E394F8018485ED1668
:102DE00078F460E0C0FF61E00E944B098091B2007E
:102DF0008F198A31D8F3F090B200C695E394EDCFE5
:102E000060E00E944B0978948AE090E08D1B910964
:102E10009AE1899F802D11249091B2009F199817F3
:102E2000D8F3DF91CF911F910F91FF90EF9008950C
:102E3000FC0115869091BC0C8091BD0C981799F0FF
:102E4000E091BC0CF0E0EE52F84F20818091BC0C78
:102E500090E001966BE470E00E945F558093BC0C9B
:102E6000822F90E008958FEF9FEF08959091BC0C12
:102E70008091BD0C981741F0E091BC0CF0E0EE524F
:102E8000F84F808190E008958FEF9FEF0895FC0147
:102E9000858581110EC08091BD0C2091BC0C90E005
:102EA000855B9F4F821B91096BE470E00E945F5528
:102EB00008958FEF9FEF089590E080E00895DC0182
:102EC0001C969C911C97ECE6F0E0983050F0E3E7FC
:102ED000F0E0903130F0EBE6F0E0983110F4EDE600
:102EE000F0E08081977021E030E001C0220F9A95D8
:102EF000EAF72095282320831C968C91ECE6F0E0DD
:102F0000883050F0E3E7F0E0803130F0EBE6F0E0BD
:102F1000883110F4EDE6F0E09081911110C0F0E0FE
:102F2000E0E0803210F4E8E6F0E09081883040F094
:102F3000803140F0883140F08EEF892380830895FE
:102F40008DEFFBCF87EFF9CF8BEFF7CFCF93DF93E9
:102F5000EC016330710521F164307105E1F16230FB
:102F6000710509F05FC060E083E00E94AB0961E099
:102F700083E00E94AB0961E083E00E944B0960E0BE
:102F80008C850E94AB0961E08C850E94AB0960E0F2
:102F90008C850E944B09CE01DF91CF910C945F1775
:102FA00060E083E00E94AB0961E083E00E94AB092E
:102FB00061E083E00E944B0962E070E080E090E015
:102FC0000E94130A60E08C850E94AB0961E08C8549
:102FD0000E94AB09E0CF61E083E00E94AB0960E0B2
:102FE00083E00E944B0962E070E080E090E00E9484
:102FF000130A60E08C850E944B0960E08C850E947A
:10300000AB09789480916800886080936800809113
:1030100073008460809373008FEF80932108DF91A9
:10302000CF91089561E083E00E94AB0961E083E005
:103030000E944B0960E08C850E944B0960E0C7CF7D
:1030400070E060E08DEF9EE00E94A6171092BB0C2E
:103050001092BA0C8091B90C8093B0008091B80C9A
:103060008093B10008958091BA0C9091BB0C8D5F54
:103070009E4061F062E070E08DEF9EE00E94A61736
:103080008DEF9EE09093BB0C8093BA0C86E990E0A4
:10309000A0E0B0E08093010F9093020FA093030F84
:1030A000B093040F81EF98ED90930C0F80930B0F6A
:1030B0008091B0008093B90C8091B1008093B80CDE
:1030C0001092B00086E08093B1000895CF93DF9313
:1030D00063E070E08DEF9EE00E94A617CDEFDEE08A
:1030E00061E08C850E944B098CE895E60197F1F729
:1030F00060E08C850E944B098CE496E40197F1F71F
:10310000DF91CF9108950F931F93CF93DF938C019D
:103110000E946618D0E0C0E0D80114968D919C9171
:103120001597C817D90790F4ED91FC91309759F491
:103130001092B70CE7EBFCE060818DEF9EE00E94FF
:10314000BD162196E9CFEC0FFD1FF6CF64E070E0CD
:103150008DEF9EE0DF91CF911F910F910C94A617F8
:103160001F93CF93DF93EC01162F63E070E00E9472
:10317000A617612FCE010E94BD1664E070E0CE015B
:103180000E94A61781E090E0DF91CF911F910895F2
:1031900081E080938A0C88E68093AB0C1092B40C8B
:1031A0001092B30C60E080E79AE10E94380F81E052
:1031B0000E940306811142C067E088E60E94600613
:1031C0001092B60C8093B50C80E79AE10E94F10E44
:1031D0008F770E94AF1680933F0C80E79AE10E94A0
:1031E000F10E0E94AF168093400C80E79AE10E9496
:1031F000F10E8F7B0E94AF168093410C80E79AE11D
:103200000E94F10E8093420C80E79AE10E94F10E39
:103210000E94AF168093430C80E79AE10E94F10E62
:103220008F770E94AF168093440C80E79AE10E944A
:10323000F10E0E94AF16825E8093450C80913F0C88
:103240008093780A8091400C8093D90A8091410C38
:103250008093790A8091430C80937C0A8091440C7E
:1032600080937D0A8091450C90E08E54984F909306
:103270007B0A80937A0A62E370E080E090E00C942D
:10328000130ACF9391E090938A0C98E69093AB0C3D
:103290001092B40C1092B30C682F80E79AE10E9450
:1032A000380F81E00E94030681110DC061E088E6BD
:1032B0000E9460061092B60C8093B50C80E79AE1EC
:1032C0000E94F10EC82F8C2FCF9108951F93CF939A
:1032D000DF9381E080938A0C88E68093AB0C109298
:1032E000B40C1092B30C60E080E79AE10E94380FB2
:1032F000CFE3DCE028811AE0822F612F0E943F5546
:10330000682F660F680F660F620F80E79AE10E94D0
:10331000380F2981822F612F0E943F55682F660F39
:10332000680F660F620F80E79AE10E94380F2A81CA
:10333000822F612F0E943F55682F660F680F660F1E
:10334000620F80E79AE10E94380F6B8180E79AE173
:103350000E94380F2C81822F612F0E943F55682FC9
:10336000660F680F660F620F80E79AE10E94380FC0
:103370002D81822F612F0E943F55682F660F680FA5
:10338000660F620F80E79AE10E94380F2E812E515E
:10339000822F612F0E943F55682F660F680F660FBE
:1033A000620F80E79AE10E94380F81E00E940306D5
:1033B000C82F8FE00E944119682F6F778FE00E941D
:1033C000670F8C2FDF91CF911F910895CF93DF93DB
:1033D000C82FD62F8EE00E9441194C2F4150550B1B
:1033E00061E070E001C0660F4A95EAF7DD2331F035
:1033F000682B8EE0DF91CF910C94670F6095682366
:10340000F8CFCF93DF93C82F8FE00E944119C150AE
:10341000DD0B21E030E001C0220FCA95EAF7982FBA
:10342000922351F02095622F68238FE00E94670F4E
:1034300081E0DF91CF91089580E0FBCF0F931F9340
:10344000CF93DF93EC010E9466188E01FE0101907C
:103450000020E9F73197EC1BFD0BC8018C1B9D0B7D
:103460008E179F0740F4F80161918F018DEF9EE068
:103470000E94BD16EBCF64E070E08DEF9EE0DF911F
:10348000CF911F910F910C94A617FC010190002081
:10349000E9F73197AF01481B590BBC018EEB9CE05B
:1034A0000C94C1078CED91E00C94451ACF93DF93F7
:1034B0000E949308EC010E94521A8C0F9D1FDF910D
:1034C000CF910895CF93DF93FC01448155816081B2
:1034D00071818EEB9CE00E94C107EC010E94521AA0
:1034E0008C0F9D1FDF91CF910895CF93DF930E94A2
:1034F000AE08EC010E94521A8C0F9D1FDF91CF91F4
:1035000008958F929F92AF92BF920F931F93CF9384
:10351000DF93CDB7DEB7A1970FB6F894DEBF0FBE2D
:10352000CDBF19A2423008F44AE08E010F5D1F4F53
:10353000842E912CB12CA12CA50194010E94C4537E
:10354000E62FB901CA01EA30F4F4E05DD801EE9348
:103550008D01232B242B252B79F790E080E0109709
:1035600019F0CD010E94451AA1960FB6F894DEBF5E
:103570000FBECDBFDF91CF911F910F91BF90AF9044
:103580009F908F900895E95CE1CF682F70E090E004
:1035900080E04AE00C94811ACF93DF930E94C51A11
:1035A000EC010E94521A8C0F9D1FDF91CF9108955C
:1035B000CF92DF92EF92FF92CF93DF9397FF19C0E4
:1035C0006B017C018DE20E94AE08EC016627772733
:1035D000CB016C197D098E099F094AE00E94811A6E
:1035E0008C0F9D1FDF91CF91FF90EF90DF90CF90D8
:1035F00008954AE0DF91CF91FF90EF90DF90CF9058
:103600000C94811ACF92DF92EF92FF920F931F9347
:10361000CF93DF930E94460A6B017C0120E1C20E2A
:1036200027E2D21EE11CF11C1092800A10927F0A40
:103630000E94460A6C157D058E059F05A0F58EEB50
:103640009CE00E941F081816190694F764E670E0C3
:1036500080E090E00E94130A8EEB9CE00E941F081D
:10366000F82E11E00AE0C0917F0AD091800AF1168D
:1036700090F08EEB9CE00E94FE070C9F90010D9F46
:10368000300D1124C097280F391F3093800A2093E2
:103690007F0A1F5FE8CFBE01DD0F880B990B0E94E8
:1036A000D81A0E94521A6AE070E080E090E0DF9140
:1036B000CF911F910F91FF90EF90DF90CF900C94DE
:1036C000130ACF93DF934AE00E94811AEC010E9413
:1036D000521A8C0F9D1FDF91CF910895CF93DF93E6
:1036E000D0E0C0E0009719F00E94451AEC010E945A
:1036F000521A8C0F9D1FDF91CF9108958F929F9248
:10370000AF92BF92CF92DF92EF92FF921F93CF932F
:10371000DF93CDB7DEB764970FB6F894DEBF0FBE68
:10372000CDBF6B017C0149015A0168E873E180E07B
:1037300090E00E946B11182F882309F410C2C092E8
:10374000F10ED092F20EE092F30EF092F40E80920F
:10375000F50E9092F60EA092F70EB092F80E80E25F
:1037600090E09093FA0E8093F90E80E090E19093B0
:10377000FC0E8093FB0EF8948FEF9FEFDC0180939B
:10378000DD0E9093DE0EA093DF0EB093E00E8093DB
:10379000E10E9093E20EA093E30EB093E40E8093BB
:1037A000E50E9093E60EA093E70EB093E80E80939B
:1037B000E90E9093EA0EA093EB0EB093EC0E60919D
:1037C000F10E7091F20E8091F30E9091F40E0E9422
:1037D0000213882309F4C0C08090F10E9090F20E7D
:1037E000A090F30EB090F40E6091F50E7091F60E6D
:1037F0008091F70E9091F80E681979098A099B0952
:103800009695879577956795680D791D8A1D9B1DFF
:103810000E940213882309F49FC08091F10E9091B9
:10382000F20EA091F30EB091F40E898B9A8BAB8BB4
:10383000BC8B8D879E87AF87B88B69897A898B8986
:103840009C896093E10E7093E20E8093E30E909357
:10385000E40ECD84DE84EF84F888C092DD0ED09231
:10386000DE0EE092DF0EF092E00E0E94DE12609318
:10387000E50E7093E60E8093E70E9093E80E6B01D1
:103880007C01CC2420EFD222FF246C157D058E050F
:103890009F0509F0A6C16093E90E7093EA0E80932C
:1038A000EB0E9093EC0E6091E90E7091EA0E809110
:1038B000EB0E9091EC0E0E94A2066093E90E7093BD
:1038C000EA0E8093EB0E9093EC0E8091E10E9091B6
:1038D000E20EA091E30EB091E40E0097A048B1056E
:1038E00008F486C11092ED0E1092EE0E1092EF0EBB
:1038F0001092F00E78948FED91E00E946E1B0E9462
:10390000521A6091DD0E7091DE0E8091DF0E909163
:10391000E00E0E9475166091E10E7091E20E8091AA
:10392000E30E9091E40E0E9475168EEB9CE00E94CF
:10393000B308812F64960FB6F894DEBF0FBECDBFDB
:10394000DF91CF911F91FF90EF90DF90CF90BF90CC
:10395000AF909F908F9008958091F10E9091F20E0C
:10396000A091F30EB091F40E898B9A8BAB8BBC8B2C
:10397000AE014B5F5F4F6FEFCE0141960E94E9139E
:1039800081111DC08091F10E9091F20EA091F30E65
:10399000B091F40E898B9A8BAB8BBC8BAE014B5FD5
:1039A0005F4F61E0CE0141960E94E913811107C08B
:1039B0008FEF9FEFDC018D839E83AF83B8872091CB
:1039C000F90E3091FA0E8091F50E9091F60EA091BD
:1039D000F70EB091F80E821B930BA109B109898BE8
:1039E0009A8BAB8BBC8BAE01475F5F4F6FEFCE0105
:1039F00041960E94E913811107C08FEF9FEFDC0110
:103A000089879A87AB87BC8789849A84AB84BC8476
:103A10008091F10E9091F20EA091F30EB091F40E00
:103A20004D815E816F8178854F3F5F4F6F4F7F4F34
:103A300009F18B208A208920809409F096C08D8717
:103A40009E87AF87B88BAE014F5F5F4F61E0CE01BD
:103A50000D960E94E9138823E1F12091F90E30912F
:103A6000FA0E8091F50E9091F60EA091F70EB0919E
:103A7000F80E9AC02091F90E3091FA0E4091F50E91
:103A80005091F60E6091F70E7091F80E421B530B99
:103A9000610971098B208A208920809409F48DC0E6
:103AA000498B5A8B6B8B7C8B8D879E87AF87B88BAE
:103AB000AE014F5F5F4F6FEFCE0141960E94E91359
:103AC000882339F061E0CE010D960E945E148111C9
:103AD000B4CE89899A89AB89BC89C816D906EA0609
:103AE000FB06E1F58D859E85AF85B889C816D90698
:103AF000EA06FB0699F580E090E0A0E8B0E080934C
:103B0000E10E9093E20EA093E30EB093E40E809347
:103B1000DD0E9093DE0EA093DF0EB093E00EC09208
:103B2000E50ED092E60EE092E70EF092E80E80E10C
:103B3000D80EE11CF11CC092E90ED092EA0EE09280
:103B4000EB0EF092EC0E8FEF9FEFDC018093ED0E09
:103B50009093EE0EA093EF0EB093F00E789486EF54
:103B600091E00E946E1B10E0E4CE19861A861B8637
:103B70001C864FEF5FEFBA014D835E836F837887BA
:103B80008D879E87AF87B88B61E0CE010D960E942E
:103B90005E14882309F49DCF2091F90E3091FA0E1E
:103BA0008D859E85AF85B889821B930BA109B109CC
:103BB000898B9A8BAB8BBC8B10C08D879E87AF8710
:103BC000B88B498B5A8B6B8B7C8B61E0CE010D9649
:103BD0000E945E14882309F47CCF6FEFCE014196DA
:103BE00074CF705F8F4F9F4F6627707F992753CE9A
:103BF0004DEE5EE061E081EE9EE00E94E9137ACE38
:103C00000C94451A80911301882331F10E94C81841
:103C100065E38BE00E94670F68E18CE00E94670F0C
:103C200060E88DE00E94670F80917E0A882371F022
:103C300084E192E00E94001E82E10E94C51A87E49E
:103C400096E00E94001E83E20E94CC1A62E370E0BC
:103C500080E090E00C94130A0895CF93DF93482FEF
:103C60005091D90A852F90E0E091C30BE4133FC037
:103C7000CE2FD0E08C0F9D1F6CE370E00E945F554B
:103C8000BE010E945F55E69FE02D1124E093630A78
:103C90002091630A822F6AE00E943F55C82FCC0F03
:103CA000C80FCC0FC20F60E087E00E94670F6C2F37
:103CB00088E00E94670F60E889E00E94670F60E873
:103CC0008AE00E94670F80917E0A882341F086E295
:103CD00092E00E94001E8091630A0E94CC1A62E367
:103CE00070E080E090E0DF91CF910C94130A840F94
:103CF000911D8C3391053CF06CE370E00E945F55A0
:103D00008093630AC5CF450F4093630AC1CFEF92FA
:103D1000FF920F931F93CF93DF937C0187E090E096
:103D20000E948355EC0100E50D8311E01E8387E1BD
:103D30008883FA82E982D093DC0EC093DB0E8CB5C7
:103D40008B838DB58C8361E087E10E94AB090E9473
:103D5000810F0D831E83CE010E942A11CE010E9485
:103D60005A118BEA0E943A11CE010E942A118981D0
:103D70009A81892B39F541E061E0CE010E94BB11A7
:103D800080E00E943A11CE010E942A1111E0809138
:103D9000DB0E9091DC0E0E949116EC0186E392E01E
:103DA0000E94001EBE0190E080E040E10E94811A66
:103DB0000E94521A812FDF91CF911F910F91FF9096
:103DC000EF900895CE010E94911629813A818217C1
:103DD000930789F210E0DBCF2F923F924F925F92D0
:103DE0007F928F929F92AF92BF92CF92DF92EF928B
:103DF000FF920F931F93CF93DF9300D000D000D09A
:103E0000CDB7DEB74B015C01AE014F5F5F4F0E9443
:103E10003313782E81111DC083E492E00E946E1B43
:103E2000872D26960FB6F894DEBF0FBECDBFDF916B
:103E3000CF911F910F91FF90EF90DF90CF90BF90A7
:103E4000AF909F908F907F905F904F903F902F907A
:103E5000089506E010E09E012F5F3F4FB501A401D9
:103E60008091DB0E9091DC0E0E947E124D805E8070
:103E7000620186E0C81AD108C20105970E948355E5
:103E80007C010091F50E1091F60E2091F70E309105
:103E9000F80EB501A4014A5F5F4F6F4F7F4FD50108
:103EA000C401840D951DA11DB11D1C012D01809122
:103EB000DB0E9091DC0E021513052405350560F527
:103EC000065011095801A818B908850197010E94E8
:103ED0007E1286010A191B0997012A0D3B1D40918C
:103EE000F10E5091F20E6091F30E7091F40E8091EC
:103EF000DB0E9091DC0E0E947E12F701EC0DFD1D91
:103F00001082C7010E946E1B8EEB9CE00E94B308DA
:103F1000C7010E941F5684CF86019701ECCFCF9333
:103F2000DF93EC0188819981009711F00E941F5660
:103F3000198218821D821C821B821A82DF91CF9106
:103F40000895FC01808191810C941F562F923F921D
:103F50004F925F926F927F928F929F92AF92BF9299
:103F6000CF92DF92EF92FF920F931F93CF93DF9345
:103F7000CDB7DEB72A970FB6F894DEBF0FBECDBF20
:103F8000FC01698304811581C80187509F4F6AEF46
:103F900070E00E944B55662309F42AC129812A87C3
:103FA0004F016150698790E080E0212C312C210184
:103FB00033940115110509F41BC10B3F110550F194
:103FC0005C013AEFA30EB11C0A5F110966246394E9
:103FD000712C681A790A6A0C7B1C49854093181069
:103FE000A9E1B0E18A159B05D8F4F401248135815B
:103FF0008217930738F420813181F901E80FF91F06
:10400000232B21F41092B70CE7EBFCE020812D93D9
:104010000196E8CF5801A80EB91E10E000E0D6CFF7
:10402000F090140FF394F092140FC12CEE24E3944B
:10403000EC0C8091170F8C1508F4F4C080910D0FD3
:1040400090910E0FDC01ED91FC91008CF18DE02D33
:104050006F2D099580910D0F90910E0FDC01ED9160
:10406000FC91028CF38DE02D40E860E009954A85D3
:10407000662D88E190E10E947D070E947207BA8553
:10408000BF3F09F4D1C0E1E0EE1598F48091100F24
:104090009091110FA091120FB091130F0196A11DD5
:1040A000B11D8093100F9093110FA093120FB09336
:1040B000130F0E94460A69837A838B839C83C09086
:1040C000150FD090160F0E94634FA20191010E941C
:1040D000E6539B01AC01D6010E940554A201910157
:1040E0000E94E6532C0D3D1DCE2CC901B0E0A0E08E
:1040F0008D839E83AF83B8870E94460A29813A81C7
:104100004B815C81621B730B840B950B2D813E816F
:104110004F815885621773078407950708F086CF8B
:1041200080910D0F90910E0FDC01ED91FC910280BA
:10413000F381E02D09958823F9F280910D0F90917C
:104140000E0FDC01ED91FC910480F581E02D50E033
:1041500040E070E060E00995882371F280910D0FD6
:1041600090910E0FDC01ED91FC9100A0F1A1E02DEA
:104170000995D82E80910D0F90910E0FDC01ED91D5
:10418000FC91068CF78DE02D0995782E80910D0F0E
:1041900090910E0FDC01ED91FC9102A0F3A1E02DB6
:1041A0000995E82E80910D0F90910E0FDC01ED9195
:1041B000FC9104A0F5A1E02D0995BA85BD1108C0B8
:1041C00090910F0F971104C087FF02C0FE1461F198
:1041D00087FD92CFED2DF0E0E35FF04F83858E11E8
:1041E0008BCF4D2D6E2D8DE09FE00E94B50C84CFBE
:1041F00081E02A960FB6F894DEBF0FBECDBFDF91E7
:10420000CF911F910F91FF90EF90DF90CF90BF90D3
:10421000AF909F908F907F906F905F904F903F9066
:104220002F90089580E0E5CFE985E150E987C50149
:10423000C0CE0E9489570F931F93CF93DF93EC0159
:1042400088819981009759F02A813B812617370789
:1042500030F081E0DF91CF911F910F9108958B0194
:104260006F5F7F4F0E94A856009759F0998388830B
:104270001B830A832C813D81232B59F7FC0110827B
:10428000E8CF80E0E7CFEF92FF920F931F93CF9399
:10429000DF936115710541F480E0DF91CF911F91AB
:1042A0000F91FF90EF90089541155105B1F07B01FA
:1042B000EC010C811D81040F151FB8010E941B2108
:1042C000882351F3288139818C819D81B701820F28
:1042D000931F0E94BD571D830C8381E0DECF0F9397
:1042E0001F93CF93DF9300D000D0CDB7DEB74AE065
:1042F0008E010F5F1F4FB80190E00E94CD4FF80173
:1043000001900020E9F73197AF01401B510BB80134
:104310008CE392E10E9443210F900F900F900F9039
:10432000DF91CF911F910F9108950F931F93CF931A
:10433000DF93CDB7DEB764970FB6F894DEBF0FBE3C
:10434000CDBF8E010F5F1F4F22E044E00E94F94E67
:10435000FC0101900020E9F73197AF01481B590B90
:10436000BC018CE392E10E94432164960FB6F8945D
:10437000DEBF0FBECDBFDF91CF911F910F9108958A
:10438000CF93DF9300D0CDB7DEB769831A8241E0C7
:1043900050E0BE016F5F7F4F0E9443210F900F904E
:1043A000DF91CF910895FB0101900020E9F731974B
:1043B000AF01461B570B0C944321EF92FF920F93D2
:1043C0001F93CF93DF93EC017B018A01BA010E9416
:1043D0001B2181110BC0CE010E948F1FCE01DF91E6
:1043E000CF911F910F91FF90EF9008951D830C8343
:1043F000B701888199810E94BD57F0CFFC011182DD
:104400001082138212821582148250E040E06EED19
:1044100071E00C94DD21CF93DF9300D000D000D069
:10442000CDB7DEB70E94331864E670E080E090E01C
:104430000E94130ACE0101960E94FE216091760A25
:10444000CE0101960E94C0216BE572E0CE0101967B
:104450000E94D321CE0101960E9483186CE271E084
:1044600080E090E00E94130A8DEF9EE00E944717C3
:10447000892B29F08DEF9EE00E941817F5CF64E19B
:1044800070E080E090E00E94130A0E94201864E12E
:1044900070E080E090E00E94130ACE0101960E9435
:1044A000A11F26960FB6F894DEBF0FBECDBFDF91D9
:1044B000CF910895CF93DF9300D000D000D0CDB737
:1044C000DEB70E94331864E670E080E090E00E945E
:1044D000130ACE0101960E94FE216091760ACE0158
:1044E00001960E94C0216FE572E0CE0101960E9404
:1044F000D321CE0101960E9483186CE271E080E026
:1045000090E00E94130A8DEF9EE00E944717892BCE
:1045100029F08DEF9EE00E941817F5CF64E170E05E
:1045200080E090E00E94130A0E94201864E170E08D
:1045300080E090E00E94130ACE0101960E94A11F24
:1045400026960FB6F894DEBF0FBECDBFDF91CF9198
:104550000895FB0101900020E9F73197AF01461B58
:10456000570B0C94DD210F931F93CF93DF9300D053
:1045700000D000D0CDB7DEB7182FCE0101960E9433
:10458000FE216EED71E0CE0101960E94A922612FFD
:10459000CE0101960E94C02160EB74E0CE0101962D
:1045A0000E94D32103E010E0CE0101960E948318FF
:1045B00064E670E080E090E00E94130A8DEF9EE0D8
:1045C0000E944717181619064CF064E670E080E068
:1045D00090E00E94130A0150110931F78DEF9EE01F
:1045E0000E94471702979CF00E94FA0511E0CE0145
:1045F00001960E94A11F812F26960FB6F894DEBF68
:104600000FBECDBFDF91CF911F910F9108950E94F2
:10461000FA0510E0ECCFCF93DF93EC01FB01861796
:10462000970749F0608171816115710541F04481FE
:1046300055810E94DD21CE01DF91CF9108950E9426
:104640008F1FF9CFCF93DF9300D000D000D0CDB72C
:10465000DEB71A8219821C821B821E821D826CE3C5
:1046600072E1CE0101960E940B23409146125091B7
:1046700047126091421270914312CE0101960E943E
:104680004321811104C0CE0101960E948F1FBE01FB
:104690006F5F7F4F82E492E10E940B23CE0101966F
:1046A0000E94A11F64E670E080E090E00E94130A7F
:1046B00082E492E10E94621A62E370E080E090E09E
:1046C0000E94130A26960FB6F894DEBF0FBECDBF28
:1046D000DF91CF910895CF92DF92EF92FF920F93E7
:1046E0001F93CF93DF93EC017B018A01E881F9816D
:1046F0000280F381E02D0995D82E882329F1E11459
:10470000F104D1F001151105B9F0CFB6F8948A8DF6
:104710008350990BF8012081281719061CF08A8D07
:1047200084508083F801408150E0BE01615E7F4F7C
:10473000C7010E948E57CFBE8FB7F894FE01E65E88
:10474000FE4F10821A8E8FBF8D2DDF91CF911F915A
:104750000F91FF90EF90DF90CF900895EF92FF922E
:104760000F931F93CF93DF9300D01F92CDB7DEB787
:104770008C010E94970CE82E81110CC0E12C8E2D2B
:104780000F900F900F90DF91CF911F910F91FF909D
:10479000EF900895F801808D8A3009F47EC08B3047
:1047A00009F47DC022E0F22E823041F740E861E05A
:1047B000C8010E946D0A6AE070E080E090E00E940B
:1047C000130A61E0C8010E94AD0B8038B9F660E0C1
:1047D000F801808D0E94AB09F801818D8F3F49F46B
:1047E0008091C60A843050F691E0980F9093C60AE3
:1047F000818FF801818DE82FF0E0EE0FFF1FE95364
:10480000F54F118300836EE87CE0882349F065E86A
:104810007CE0813029F0823009F0B0CF6CE77CE099
:104820008F2D0E94A00740E06EE0C8010E946D0A33
:1048300040E06FE0C8010E946D0AC8010E94C50AED
:1048400043E050E06FE67AE0CE0101960E94C44F4B
:1048500049816DE1C8010E946D0A4A816EE1C8017B
:104860000E946D0A4B8166E2C8010E946D0A40E019
:1048700060E2C8010E946D0A48E061E2C8010E943E
:104880006D0A40E050EC64E674E4C8010E94D90A65
:104890006DE0C8010E949D0A72CFF12C87CFFF24E2
:1048A000F39484CFCF92DF92EF92FF921F93CF9336
:1048B000DF93E1EEFAE088ECDF011D928A95E9F7DB
:1048C00062E370E080E090E00E94130A0E94460AD2
:1048D0006B017C01B0E1CB0EB7E2DB1EE11CF11CE9
:1048E0000E94460A6C157D058E059F0540F58EEBEE
:1048F0009CE00E941F081816190694F764E670E001
:1049000080E090E00E94130A8EEB9CE00E941F085A
:10491000EC01F82E10E08EEB9CE00E94FE078D303B
:1049200039F08A3029F0E12FF0E0EF51F54F808324
:104930001F5FF11680F7DD27CF51D54F188281EE2A
:104940009AE0DF91CF911F91FF90EF90DF90CF9091
:104950000C946E1B0E9452248091E10A882359F026
:104960008F7D893559F08E3459F08DE49AE00E949C
:10497000561A83E008958EE59AE0F9CF81E0089514
:1049800082E008952F923F924F925F926F927F92B2
:104990008F929F92AF92BF92CF92DF92EF92FF924F
:1049A0000F931F93CF93DF93CDB7DEB764970FB606
:1049B000F894DEBF0FBECDBFCDB6DEB6DE86CD86A7
:1049C0000E942223E0904612F0904712FC8AEB8A64
:1049D0002DB73EB72E193F090FB6F8943EBF0FBE54
:1049E0002DBF8DB79EB701965C0160914212709108
:1049F0004312A7010E948E5780E591E00E94441166
:104A000060E087E10E944B09000061E087E10E94BD
:104A10004B090E9419116EE170E080E090E00E9465
:104A2000130A8091FB0E9091FC0E06978E159F0540
:104A3000A8F583E692E00E946E1B80E591E00E945B
:104A4000441160E087E10E944B0989EB0E943A1112
:104A500061E087E10E944B090E941911ED84FE84F8
:104A60000FB6F894FEBE0FBEEDBE64960FB6F89476
:104A7000DEBF0FBECDBFDF91CF911F910F91FF9091
:104A8000EF90DF90CF90BF90AF909F908F907F90EE
:104A90006F905F904F903F902F9008952DB63EB647
:104AA0004090ED0E5090EE0E6090EF0E7090F00E74
:104AB0009FEF491A590A690A790AEB88FC88A6E02F
:104AC000EA0EF11C0091F90E1091FA0EC701B8011F
:104AD0000E944B55009709F466C10E0D1F1D081B5F
:104AE000190BEDB7FEB7E01BF10B0FB6F894FEBF44
:104AF0000FBEEDBF2DB73EB72F5F3F4F4901ADB79A
:104B0000BEB711964D925D926D927C921497F90109
:104B1000F582E4828DB79EB707964B895C89B50113
:104B20000E948E57A8014E195F0970E060E0C40131
:104B30008E0D9F1D0E9497572801712C612C40916A
:104B4000E50E5091E60E6091E70E7091E80EC09070
:104B5000F50ED090F60EE090F70EF090F80ECF869E
:104B6000D88AE98AFA8AD301C801840F951FA61F43
:104B7000B71FE091DB0EF091DC0EC816D906EA06ED
:104B8000FB0608F012C15601A41AB50A7801EA180A
:104B9000FB0885019401CF010E941A1264EF71E0B5
:104BA00080E090E00E946B1194012A0D3B1D409122
:104BB000F10E5091F20E6091F30E7091F40E870198
:104BC0008091DB0E9091DC0E0E941A128090E50E0F
:104BD0009090E60EA090E70EB090E80E8091ED0E5A
:104BE0009091EE0EA091EF0EB091F00E0196A11DE6
:104BF000B11D8093ED0E9093EE0EA093EF0EB09347
:104C0000F00EC301B201680D791D8A1D9B1D0E9423
:104C1000A2066093E50E7093E60E8093E70E9093E4
:104C2000E80E705F8F4F9F4F6627707F99270E9415
:104C3000A2062B013C010E940213811128C0C3016E
:104C4000B2010E94E311C301B201705F8F4F9F4F09
:104C50006627707F99270E94A2066D837E838F83CB
:104C60009887AE014F5F5F4F61E0CE0105960E94CD
:104C7000E913882361F08D819E81AF81B88580938F
:104C8000DD0E9093DE0EA093DF0EB093E00E409207
:104C9000E90E5092EA0E6092EB0E7092EC0E80924A
:104CA000E10E9092E20EA092E30EB092E40E80919B
:104CB000DD0E9091DE0EA091DF0EB091E00E009718
:104CC000A048B10540F08092DD0E9092DE0EA092D9
:104CD000DF0EB092E00E0FB6F8943EBE0FBE2DBEB2
:104CE00080917E0A882309F4A8CE6091E10E70912C
:104CF000E20E8091E30E9091E40E0E94B2127C01CC
:104D00006091E10E7091E20E8091E30E9091E40EBD
:104D10000E94B2128C01009769F02091F90E309137
:104D2000FA0EB9010E944B55009721F0020F131F94
:104D3000081B190B88E792E00E94001E6091ED0E9F
:104D40007091EE0E8091EF0E9091F00E0E94611B1B
:104D500088E892E00E94001E82E492E10E94621ABA
:104D60008FE892E00E94001ECB88DC88B60190E0BC
:104D700080E04AE00E94811A8BE992E00E94001EC6
:104D8000B70190E080E04AE00E94811A88EA92E050
:104D90000E94001EB80190E080E04AE00E94811A63
:104DA0000E94521A4ACE87019CCE9401CF010CCFAB
:104DB0002F923F924F925F926F927F928F929F922B
:104DC000AF92BF92CF92DF92EF92FF920F931F9319
:104DD000CF93DF93CDB7DEB7CE5FD1090FB6F8948E
:104DE000DEBF0FBECDBF2DB73EB7CB50DF4F3983EF
:104DF0002883C55FD0406EED71E082E492E10E94AD
:104E0000A9220E94331864EF71E080E090E00E94D4
:104E1000130AC651DF4F1882CA5ED040AE014F5F01
:104E20005F4F2A011E0159EC250E311C8091500361
:104E300090915103A0915203B0915303C950DF4F99
:104E400088839983AA83BB83C75FD0402091540392
:104E5000309155034091560350915703C550DF4F91
:104E6000288339834A835B83CB5FD0408091770A64
:104E7000C651DF4F3881CA5ED040381708F099C656
:104E8000832E912C01E8089DC001099D900D1124ED
:104E9000FC01E05AFD4E4081C151DF4F4883CF5E97
:104EA000D0403093710A8C01DC01AB57BD4E7D01BF
:104EB0006AEB72E0CD010E94B457892B09F0B2C0B1
:104EC00081E08093700A64E670E080E090E00E94E8
:104ED000130A9090700A8091710A082F10E09920AF
:104EE00009F4D3C5C151DF4FB881CF5ED040CD5258
:104EF000DF4FB883C35DD040CC52DF4F1882C45D12
:104F0000D040E1E88E9FC00111246AEB72E08B571C
:104F10009D4E0E94B45764EC72E0892B11F468EC4A
:104F200072E0CE018C519F4F0E94BD57BE016C5163
:104F30007F4FCE018D529F4F0E949E57CE018D52C2
:104F40009F4F0E941E1A64EF71E080E090E00E9483
:104F5000130A8DEF9EE00E944717843008F401C5C4
:104F60002DB73EB7CF50DF4F39832883C15FD04084
:104F7000C853DF4F1882C85CD040AE0142585F4F23
:104F80007A0110E000E0B12CC02E8DEF9EE00E946F
:104F90001817D82E68E070E080E090E00E94130AB5
:104FA000D701DD927D01BDE0DB12D2C0EEE7F0E07B
:104FB000EC0FFD1FE00FF11F10820E94FA05BC0CE0
:104FC000CB2CD12C8601015011092DB73EB72C19DD
:104FD0003D090FB6F8943EBF0FBE2DBF4DB75EB76B
:104FE0004F5F5F4F7A01A12C882483948EE7782E3F
:104FF000AB1408F0C7C0EEE7F0E0EC0FFD1FE80DC2
:10500000F11D8081F701EA0DF11D8B3209F0B1C06D
:105010007082839465E070E080E090E00E94130A63
:10502000A394E6CFC80186579D4E0E941E1A64E6DF
:1050300070E080E090E00E94130A8DEF9EE00E94F5
:105040004717181619060CF07AC06DB67EB681E0C7
:105050008093700A8DEF9EE00E944717C851DF4F82
:105060008883C85ED0406C01DD24EDB7FEB7EC1933
:10507000FD090FB6F894FEBF0FBEEDBF0DB71EB70A
:105080000F5F1F4FC551DF4F0883CB5ED0405801E3
:105090008A2DC551DF4FF881CB5ED0408F1BC851A0
:1050A000DF4F2881C85ED040821740F48DEF9EE02C
:1050B0000E941817D5018D935D01EACF0C0D1D1DBF
:1050C000F80134978081082E000C990BC09748EEA8
:1050D00053E0849F9001859F300D949F300D1124E3
:1050E00030936F0A20936E0A6FEB72E0C7010E9443
:1050F000B457892B71F481E8889DF001899DF00DEA
:105100001124E05AFD4E03501109D8018C918053AF
:1051100087A70FB6F8947EBE0FBE6DBE60916E0A73
:1051200070916F0A072E000C880B990B0E94130ACE
:105130000E94FA0562E370E080E090E0C8CE88EE5D
:1051400093E090936F0A80936E0A1092700AE6CFF4
:10515000EDE2DE1201C0B3946AE070E080E090E01E
:105160000E94130A0F5F1F4F0B34110509F00CCF7B
:1051700024CF8D3229F4A3947082F701EA0DF11D3A
:10518000808347CFF701E00FF11F108280917E0AE4
:10519000882349F00E94521A8CEC92E00E94001E73
:1051A000C7010E946E1B8091710AA82FB0E0C55103
:1051B000DF4FB983A883CB5ED04011E8819FF00117
:1051C0001124C851DF4FF983E883C85ED04061EEF7
:1051D00072E0CF018B579D4E0E94B457C851DF4FEC
:1051E00028813981C85ED0402F593D4E3901892B25
:1051F00009F018C34DB75EB7CD50DF4F59834883D0
:10520000C35FD0408DB79EB78C199D090FB6F89437
:105210009EBF0FBE8DBF0DB71EB70F5F1F4F9E2DD8
:10522000802ED801F7018E2F891B8B1518F48191E0
:105230008D93F9CFC950DF4F288139814A815B8135
:10524000C75FD040C052DF4F288339834A835B83D6
:10525000C05ED040D8011196EC901197C452DF4F38
:10526000E882CC5DD04012968C911297C352DF4FEA
:105270008883CD5DD0401396FC90C252DF4FF882F8
:10528000CE5DD040C152DF4F1882CF5DD040BE010D
:1052900064527F4FCE0180529F4F0E94B457892B9A
:1052A00001F16EE270E0C8010E94A957801B910BCA
:1052B000823009F451C09927DC011197A00FB11F6A
:1052C0002C91F801E80FF91F20830297F801E80FED
:1052D000F91F80818C938EE28083F801EC0DFD1D17
:1052E000108280917E0A882359F086EE92E00E9417
:1052F000001EC8010E946E1B87EF92E00E94001EF4
:105300006EE770E0C8010E94D357801B910B8E5F3F
:10531000282F30E0C351DF4F39832883CD5ED04042
:10532000B901615071094DB75EB7421B530B0FB6FF
:10533000F8945EBF0FBE4DBFADB7BEB711965D010D
:105340009D01D8019A2F9819981708F042C09D9195
:10535000F90191939F01F6CF2DB73EB7EDB7FEB798
:10536000EC19FD090FB6F894FEBF0FBEEDBF3196E4
:10537000D8018C91ADB7BEB711968C938EE2818324
:1053800080E38283E382F48244E0842F90E08C15F2
:105390009D0568F05E2FC801DF014A2F451B4C15A3
:1053A0001D0488F44D91FC014193CF01F6CFBF015C
:1053B000680F791F800F911FDC018C91DB01119622
:1053C0008C934F5FE2CF0FB6F8943EBF0FBE2DBF58
:1053D00084CFFB01EA0DFB1D108280917E0A882399
:1053E00019F0C5010E946E1B0E94FA0564E170E08D
:1053F00080E090E00E94130AC151DF4FF881CF5E38
:10540000D040C253DF4FF883CE5CD040C153DF4F52
:105410001882CF5CD040C550DF4F288139814A8146
:105420005B81CB5FD040C852DF4F288339834A83EA
:105430005B83C85DD040BE0168527F4FCE0182536E
:105440009F4F0E949E57CE0182539F4F0E941E1A6B
:1054500064EF71E080E090E00E94130A8DEF9EE01F
:105460000E944717482F4150550B7A01ADB7BEB780
:10547000A41BB50B0FB6F894BEBF0FBEADBF0DB7E2
:105480001EB70F5F1F4F863030F1812CC82CD12CF6
:10549000CE14DF0404F58DEF9EE00E9418178D30C6
:1054A00091F08A3071F0F801EC0DFD1D8B3281F026
:1054B0008D3271F080836FE070E080E090E00E94B8
:1054C000130A8394E3CFF801EC0DFD1D1082F9CF90
:1054D000BEE7B083F6CF80917E0A882339F085E05D
:1054E00093E00E94001EC8010E946E1B6EE770E0F0
:1054F000C8010E94D357801B910B282FF801E80F99
:10550000F11D91E08FEF890F921760F432913E37D1
:1055100049F0322F391BC051DF4F3883C05FD04074
:105520009F5FF0CFC82ED12C96012F5F3F4F4DB714
:105530005EB7421B530B0FB6F8945EBF0FBE4DBF54
:10554000ADB7BEB711967D01D801C051DF4FE881DC
:10555000C05FD040AE0FB11D2E2DF7019E2F921BC4
:10556000981718F49D919193F9CFF701EC0DFD1D5B
:10557000108264E670E080E090E00E94130A80915F
:105580007E0A882369F088E193E00E94001EC7012B
:105590000E946E1B64E170E080E090E00E94130ABC
:1055A000C351DF4F28813981CD5ED040C20ED31E5A
:1055B0004DB75EB74C195D090FB6F8945EBF0FBECC
:1055C0004DBF0DB71EB70F5F1F4F64E170E080E065
:1055D00090E00E94130AB501C8010E94BD5762E322
:1055E00070E080E090E00E94130A8EE7D8018C936F
:1055F00062E370E080E090E00E94130AB701C80106
:105600000E949E5762E370E080E090E00E94130ADF
:1056100080917E0A882339F086E293E00E94001E82
:10562000C8010E946E1B81E8C551DF4F2881398176
:10563000CB5ED040829FF001839FF00D1124E05A91
:10564000FD4E20A98091770A8150990BC551DF4FFB
:1056500048815981CB5ED0404817590709F4A1C051
:10566000222309F47FC01F930F93C851DF4F888115
:105670009981C85ED04080579D4E9F938F937F92B3
:105680006F9280E393E09F938F935F924F920E947B
:10569000F8578DB79EB70A960FB6F8949EBF0FBE07
:1056A0008DBF80917E0A882319F0C2010E946E1B73
:1056B00064E670E080E090E00E94130AB20182E4A8
:1056C00092E10E94D32162E370E080E090E00E94CA
:1056D000130ACD50DF4F48815981C35FD0400FB6C8
:1056E000F8945EBF0FBE4DBF64E170E080E090E0D3
:1056F0000E94130ACF50DF4FA881B981C15FD0400B
:105700000FB6F894BEBF0FBEADBF62E370E080E09D
:1057100090E00E94130A91100BC0B20182E492E162
:105720000E94D32162E370E080E090E00E94130ABF
:105730000E94FA0562E370E080E090E00E94130AA4
:1057400064EF71E080E090E00E94130AC651DF4FE1
:105750005881CA5ED0405F5FC651DF4F5883CA5E32
:10576000D04084CB85E0E9E5F3E0D10101900D92D2
:105770008A95E1F71F930F933F922F927F926F923A
:1057800080E393E09F938F935F924F920E94F8572C
:10579000ADB7BEB71A960FB6F894BEBF0FBEADBF79
:1057A00080CF2223F9F01F930F93C851DF4F8881D8
:1057B0009981C85ED04080579D4E9F938F937F9272
:1057C0006F9289E393E09F938F935F924F920E9431
:1057D000F857EDB7FEB73A960FB6F894FEBF0FBE76
:1057E000EDBF5FCF85E0E9E5F3E0D10101900D92D7
:1057F0008A95E1F71F930F933F922F927F926F92BA
:1058000089E393E09F938F935F924F920E94F857A2
:105810002DB73EB7265F3F4F0FB6F8943EBF0FBE81
:105820002DBF3FCFC551DF4F88819981CB5ED040DE
:10583000189FF001199FF00D1124E05AFD4E20A988
:105840008091770A8150990BC551DF4FA881B981AA
:10585000CB5ED040A817B90709F442C0222301F15A
:10586000FF92EF92C851DF4F88819981C85ED04086
:1058700080579D4E9F938F937F926F9280E393E02A
:105880009F938F935F924F920E94F857EDB7FEB7A8
:105890003A960FB6F894FEBF0FBEEDBF912C2ACFFB
:1058A00085E0E9E5F3E0D10101900D928A95E1F7F9
:1058B000FF92EF923F922F927F926F9280E393E05C
:1058C0009F938F935F924F920E94F8572DB73EB7E8
:1058D000265F3F4F0FB6F8943EBF0FBE2DBFDECF01
:1058E000222301F1FF92EF92C851DF4F8881998105
:1058F000C85ED04080579D4E9F938F937F926F924A
:1059000089E393E09F938F935F924F920E94F857A1
:105910004DB75EB7465F5F4F0FB6F8945EBF0FBEE0
:105920004DBFBCCF85E0E9E5F3E0D10101900D92D8
:105930008A95E1F7FF92EF923F922F927F926F92BA
:1059400089E393E09F938F935F924F920E94F85761
:105950008DB79EB70A960FB6F8949EBF0FBE8DBF47
:105960009DCFEDB6FEB686E0E8E5F3E0DE01A25895
:10597000BF4F01900D928A95E1F781E8809FF00179
:10598000819FF00D1124E05AFD4EC7A48C2D880F85
:105990008C0D880FEDB7FEB7E81BF1090FB6F89430
:1059A000FEBF0FBEEDBF0DB71EB70F5F1F4F902E8E
:1059B000A12EBE0162587F4FC8010E94BD57F1E081
:1059C000FC1588F4B12C2C2D2150330B6901BC142B
:1059D0001D044CF4BE0162587F4F892D9A2D0E9400
:1059E0009E57B394F4CF80917E0A882339F081E4E6
:1059F00093E00E94001EC8010E946E1B6091710A14
:105A000031E8639FC00111249C0120573D4E8F59FE
:105A10009D4E4091770A4150550B64171506F1F0E1
:105A20001F930F933F932F939F938F9380E393E064
:105A30009F938F935F924F920E94F8574DB75EB736
:105A4000465F5F4F0FB6F8945EBF0FBE4DBF0FB6F7
:105A5000F894FEBE0FBEEDBE912C57CE1F930F9350
:105A60003F932F939F938F9389E393E09F938F931B
:105A70005F924F920E94F8578DB79EB70A960FB665
:105A8000F8949EBF0FBE8DBFE2CFCDB6DEB686E0E6
:105A9000E8E5F3E0DE01A258BF4F01900D928A9530
:105AA000E1F781E8809FF001819FF00D1124E05A19
:105AB000FD4EE7A48E2D880F8E0D880FADB7BEB7B3
:105AC000A81BB1090FB6F894BEBF0FBEADBF0DB78E
:105AD0001EB70F5F1F4F802EA12EBE0162587F4F51
