:100000000C945E050C944C420C9421420C94F641E5
:100010000C94CB440C9488050C9488050C94E7440C
:100020000C9488050C9488050C9488050C9488051C
:100030000C9488050C9477420C9488050C948805E0
:100040000C9488050C9488050C94AC410C9488059C
:100050000C9477410C944D410C9488050C948805C0
:100060000C9488050C9488050C94A7430C9488057F
:100070000C9488050C9488050C9488050C948805CC
:100080000C9488050C9488050C94880500407A101F
:10009000F35A00A0724E18090010A5D4E80000E839
:1000A0007648170000E40B54020000CA9A3B000097
:1000B00000E1F505000080969800000040420F0026
:1000C0000000A08601000000102700000000E803E7
:1000D000000000006400000000000A0000000000B2
:1000E0000100000000002C76D888DC674F0823DF71
:1000F000C1DFAE59E1B1B796E5E3E453C63AE65144
:10010000997696E8E6C28426EB898C9B62ED407C6A
:100110006FFCEFBC9C9F40F2BAA56FA5F490055A06
:100120002AF75C936B6CF9676DC11BFCE0E40D472B
:10013000FEF520E6B500D0ED902E0300943577054E
:100140000080841E080000204E0A000000C80C3306
:100150003333330F986E12831141EF8D2114893B95
:10016000E65516CFFEE6DB18D1844B381BF77C1D15
:10017000901DA4BBE424203284725E228100C9F168
:1001800024ECA1E53D276364696E6F707375785840
:100190005B00446F6E65005363616E6E696E67202D
:1001A000666F72205344492D31322073656E736F30
:1001B00072732E2E2E002020696E707574206D696A
:1001C0006E7574653A20002020696E707574206821
:1001D0006F75723A202020002020696E707574209F
:1001E000796561723A202020002020696E70757454
:1001F000206461793A20202020002020696E7075EB
:1002000074206D6F6E74683A202000456E746572BC
:1002100020746865206461746520616E642074696F
:100220006D6520696E20436F6F7264696E617465DD
:100230006420556E6976657273616C2054696D65D2
:100240002028555443293A200020202020456E7450
:100250006572204761746577617920726164696FA6
:100260002049443A200041726520796F75207573EA
:10027000696E67206120476174657761793F204529
:100280006E7465722027792720666F7220796573F6
:100290002C20276E2720666F72206E6F3A20004454
:1002A000656661756C7420726164696F20494420D1
:1002B000616363657074656400526164696F2049AD
:1002C0004420757064617465640020456E746572C5
:1002D000206E657720726164696F2049443A20007E
:1002E000576F756C6420796F75206C696B6520742D
:1002F0006F206368616E6765207468652072616451
:10030000696F2049442066726F6D207468652064AF
:10031000656661756C742076616C75653F2028791F
:100320002F6E293A2000496E76616C696420696EEF
:1003300074657276616C2E20456E746572206D65F1
:1003400061737572656D656E7420696E7465727621
:10035000616C202865766572792031302C2031352A
:100360002C2032302C2033302C206F72203630205D
:100370006D696E73293A2000456E746572206D6553
:1003800061737572656D656E7420696E74657276E1
:10039000616C202865766572792031302C203135EA
:1003A0002C2032302C2033302C206F72203630201D
:1003B0006D696E73293A200053756363657373002A
:1003C00041646472657373206368616E676520665B
:1003D00061696C65640043757272656E7420616456
:1003E00064726573733A20002020456E7465722034
:1003F000612050726F6A65637420494420287570CB
:1004000020746F2035206368617261637465727354
:100410002C2065783A20505341293A2000457869CC
:10042000740041726520796F75207375726520794B
:100430006F752077616E7420746F206572617365CB
:1004400020616C6C20646174612073746F726564E8
:1004500020696E206D656D6F72793F2028792F6E4F
:10046000293A00496E76616C696420696E70757412
:100470002E2052657475726E696E6720746F206DE0
:10048000656E752E00456E7465722063686F6963D2
:10049000653A2000202074202D2D3E205072696E78
:1004A00074206C6174657374206C6F677300202016
:1004B00061202D2D3E205072696E7420616C6C207D
:1004C0007468652064617461005072696E742064A0
:1004D00061746120746F2073637265656E3A2000E9
:1004E00054657374206D6561737572656D656E74A6
:1004F000733A0020202041726520796F7520737552
:10050000726520796F752077616E7420746F206535
:10051000726173653F20456E74657220792F6E3A63
:1005200020002020204C61742F6C6F6E6720766154
:100530006C7565732077696C6C2061707065617291
:10054000206173202D3939393939393939392069E0
:100550006E20746865206461746120737472696EC2
:10056000672E00204552524F523A204C6F6E6769F9
:100570007475646520696E636F72726563742100BF
:100580002020204C6F6E6769747564653A200020E6
:100590004552524F523A204C61746974756465201B
:1005A000696E636F727265637421002020204C6154
:1005B0007469747564653A200020202053656C6569
:1005C0006374206F7074696F6E3A200020202030B1
:1005D000203C2D2D204572617365204C61742F4C99
:1005E0006F6E672076616C75657300202020312066
:1005F0003C2D2D20456E746572204C61742F4C6F1C
:100600006E672076616C75657300456E7465722047
:1006100073656E736F7220646570746820696E20F4
:10062000636D2E2055736520272B27206F7220279E
:100630002D2720746F20696E646963617465206181
:10064000626F7665206F722062656C6F7720736FC2
:10065000696C20737572666163653A00456E7465F6
:100660007220636F6E66696775726174696F6E2060
:10067000737472696E673A200052454D494E444585
:10068000523A2055736520272B27206F7220272D83
:100690002720746F20696E646963617465206162EC
:1006A0006F7665206F722062656C6F7720736F695B
:1006B0006C207375726661636520666F7220646575
:1006C000707468732100456E7465722063686F6989
:1006D00063653A20002020207820203C2D2D20200A
:1006E00045786974206D656E750020202065202096
:1006F0003C2D2D2020457261736520616C6C206457
:10070000617461002020207020203C2D2D2020507D
:1007100072696E74206461746120746F20736372F7
:1007200065656E002020207420203C2D2D20205453
:100730006573742073656E736F727300202020617F
:1007400020203C2D2D20204368616E676520534496
:10075000492D31322073656E736F7220616464724B
:100760006573736573002020206E20203C2D2D20A2
:10077000205363616E20666F7220646576696365DD
:1007800073206F6E205344492D31322062757300FF
:100790002020206D20203C2D2D2020536574206DBD
:1007A0006561737572656D656E7420696E746572CE
:1007B00076616C002020207220203C2D2D202043CB
:1007C00068616E6765204E6F646520726164696F51
:1007D000204944002020206720203C2D2D2020454A
:1007E0006E74657220476174657761792072616407
:1007F000696F204944002020206C20203C2D2D20B2
:1008000020456E746572206F722065726173652079
:100810004C61742F4C6F6E672076616C7565730048
:100820002020206920203C2D2D2020456E746572EB
:100830002070726F6A656374204944002020206331
:1008400020203C2D2D202053657420636C6F636B3A
:10085000002020206420203C2D2D2020456E746532
:10086000722073656E736F722064657074687300B4
:100870002020203020203C2D2D2020456E746572D4
:1008800020636F6E66696775726174696F6E20733D
:100890007472696E67004D656E75206F7074696F54
:1008A0006E733A200043757272656E7420626174D3
:1008B0007465727920766F6C746167653A202000E8
:1008C00043757272656E74206461746520262074AD
:1008D000696D653A20004D6561737572656D656E71
:1008E0007420496E74657276616C3A2000476174B9
:1008F0006577617920526164696F2049443A20002C
:10090000526164696F2049443A20004C61742F6C35
:100910006F6E673A200050726F6A656374204944B5
:100920003A20004C6F526120526164696F20467218
:10093000657120284D487A293A2000536572696113
:100940006C204E756D6265723A200056657273694F
:100950006F6E2000536F696C20576174657220447C
:10096000617461204E6574776F726B202D2057691A
:1009700072656C657373205344492D313220446194
:1009800074616C6F67676572204E6F646500727486
:100990000092740048940078C400000021002400F4
:1009A00027002A0000002200250028002B0000005C
:1009B0002000230026002900020202020202020295
:1009C00004040404040404040303030303030303EF
:1009D0000101010101010101010204081020408010
:1009E0000102040810204080010204081020408009
:1009F0000102040810204080000000010200090AE2
:100A000000000000040308070000000000000000D0
:100A100000000000000000004552524F523A204CA6
:100A20006F6E67697475646520696E636F72726555
:100A3000637421004552524F523A204C61746974DC
:100A400075646520696E636F727265637421004519
:100A500052524F523A204D697373696E67202B2FA3
:100A60002D206265666F7265206465707468210070
:100A70004552524F523A20496E76616C6964206942
:100A80006E74657276616C202865766572792031A6
:100A9000302C2031352C2032302C2033302C206F5C
:100AA00072203630206D696E73290070726F6A652E
:100AB000637449443A200000A745204C11241FBE0E
:100AC000CFEFD0E4DEBFCDBF17E0A0E0B1E0E8EBB0
:100AD000F6EB00E00BBF02C007900D92AE34B107F9
:100AE000D9F729E1AEE4B7E001C01D92AB3EB207F1
:100AF000E1F715E0CDE5D5E004C02197FE010E94A5
:100B0000BA52CC35D107C9F70E94B1460C944F5B5D
:100B10000C9400001092380C1092370C1092850E35
:100B2000089508950895982F20912E0C81E0213288
:100B300008F043C080912D0C8111FCCF8091260CD0
:100B400032E030932D0C90932C0C9FEF9093040C7B
:100B50001092030C2093020CA6E0BCE0E2EEFBE056
:100B600090E0291331C01092E10B9091E10B880FB6
:100B7000892B8093E10B80912B0C813049F51092E9
:100B80002B0C8091E10B8093BB008091BC0083FD16
:100B9000F8CF85EC8093BC0080912D0C8230E1F37E
:100BA0008091040C8F3FB1F08091040C8032A1F051
:100BB0008091040C803391F084E010922F0C1092FD
:100BC0002E0C1092050C08953D9131939F5FC9CF73
:100BD00085EEE0CF80E0F1CF82E0EFCF83E0EDCF94
:100BE00090912D0C9111FCCF91E090932D0C90934E
:100BF0002C0C2FEF2093040C1092030C260F209343
:100C0000020C9093E10B9091E10B880F892B80935C
:100C1000E10B80912B0C8130F9F410922B0C809118
:100C2000E10B8093BB008091BC0083FDF8CF85EC85
:100C30008093BC0080912D0C8130E1F38091030CF6
:100C4000861710F46091030CA2EEBBE0E1ECFBE030
:100C500080E0861303C0089585EEEACF9D919193BD
:100C60008F5FF7CF4F925F926F927F928F929F929A
:100C7000AF92BF92CF92DF92EF92FF920F931F93AA
:100C80000091700E1091710E2091720E3091730EC2
:100C9000C0906C0ED0906D0EE0906E0EF0906F0EC6
:100CA000480159018C189D08AE08BF08260137017C
:100CB000401A510A620A730A601771078207930784
:100CC00028F0640D751D861D971DF6CF6C157D05EA
:100CD0008E059F0528F4680D791D8A1D9B1DECCF9C
:100CE0001F910F91FF90EF90DF90CF90BF90AF904A
:100CF0009F908F907F906F905F904F900895BF92DC
:100D0000CF92DF92EF92FF920F931F93CF93DF93D7
:100D1000EC01B62EC880D980EA80FB800091740E69
:100D20001091750E980150E040E0C701B6010E9495
:100D30000B51662391F0862F90E098013695279508
:100D40008217930700F1081B190BC00ED11EE11C7E
:100D5000F11CC882D982EA82FB82688179818A810A
:100D60009B81BB20A9F00E943206688379838A8325
:100D70009B83DF91CF911F910F91FF90EF90DF90B8
:100D8000CF90BF900895C61AD108E108F108E1CFCD
:100D90000091700E1091710E2091720E3091730EB1
:100DA000061717072807390720F7088319832A83AE
:100DB0003B83DFCFE9E3FCE0A089B18982E08C933B
:100DC000A485B5851C92A685B78580E18C93108E8D
:100DD000A489B58986E08C93A289B3898C918061BE
:100DE0008C93A289B3898C9188608C93A289B389F2
:100DF0008C9180688C930288F389E02D80818F7DAF
:100E0000808308958091880E9091890EDC01ED9188
:100E1000FC910484F585E02D0994FF920F931F93B4
:100E2000CF93DF938C01F62EC8E8DEE088819981AC
:100E3000DC01ED91FC910488F589E02D642F099582
:100E400088819981DC01ED91FC910680F781E02D8C
:100E50004F2DB801DF91CF911F910F91FF90099411
:100E6000E82FF0E0EE0FFF1FE35FFE4F718360831A
:100E7000813049F0823071F0809169008360809305
:100E80006900E89A0895809169008C6080936900F8
:100E9000E99A089580916900806380936900EA9AD5
:100EA0000895AF92BF92CF92DF92EF92FF920F938D
:100EB0001F93CF93DF936C017B018B01040F151FF0
:100EC000EB015E01AE18BF08C017D10759F0699158
:100ED000D601ED91FC910190F081E02DC6010995BC
:100EE000892B79F7C501DF91CF911F910F91FF9069
:100EF000EF90DF90CF90BF90AF900895FC01538D9D
:100F0000448D252F30E0842F90E0821B930B5417E3
:100F100018F081509F4F089501970895FC01918D1D
:100F2000828D981759F0A28DAE0FBF2FB11D5D961F
:100F30008C91928D9F5F928F90E008958FEF9FEF3D
:100F40000895FC01918D828D981731F0828DE80F04
:100F5000F11D858D90E008958FEF9FEF0895FC01BE
:100F6000918D828D981B892F90E0089589E39CE0F4
:100F70000E94AF0721E0892B09F420E0822F089519
:100F8000FC01A48DA80FB92FB11DA35EBE4F9C918B
:100F9000848D8F5F848FA689B7899C93A089B1893E
:100FA0008C91837080648C93938D848D981306C08C
:100FB0000288F389E02D80818F7D808308950F93CF
:100FC0001F93CF93DF93EC0181E0888F9B8D8C8DF5
:100FD000981318C0E889F989808185FF13C09FB7ED
:100FE000F894EE89FF896083E889F98980818370AC
:100FF000806480839FBF81E090E0DF91CF911F915B
:101000000F910895062F1B8D1F5F8C8D81130CC0CF
:101010000FB607FCFACFE889F989808185FFF5CF03
:10102000CE010E94C007F1CFEB8DEC0FFD2FF11D1B
:10103000E35EFE4F00839FB7F8941B8FEA89FB891C
:1010400080818062D6CF682F89E39CE00C94DF0713
:101050000F931F93CF93DF938C01D0E0C0E0F80192
:10106000EC0FFD1F6491662341F089E39CE00E9430
:10107000DF07892B11F02196F2CFCE01DF91CF91BE
:101080001F910F910895CF93DF93EC01888D8823F2
:10109000B9F0AA89BB89E889F9898C9185FD03C0DB
:1010A000808186FD0DC00FB607FCF7CF8C9185FFC0
:1010B000F2CF808185FFEDCFCE010E94C007E9CF3E
:1010C000DF91CF91089580E090E0892B29F00E9474
:1010D000B60781110E94000080E090E0892B49F062
:1010E00080E090E0892B29F00E94000081110C948F
:1010F0000000089581508A3080F5E82FF0E0ED5728
:10110000F74F0C94BA5297089B088D089308AD08C6
:10111000AD089E08A408A808AE08809180008F77CB
:10112000809380000895809180008F7DF9CF84B5F1
:101130008F7784BD089584B58F7DFBCF8091B000FB
:101140008F778093B00008958091B0008F7DF9CFA4
:10115000809190008F778093900008958091900007
:101160008F7DF9CFCF93DF93282F30E0F901E8503E
:10117000F64F8491F901E852F64FD491F901E85401
:10118000F64FC491CC23A1F081110E947A08EC2F74
:10119000F0E0EE0FFF1FE255F64FA591B491EC91F0
:1011A000ED2381E090E009F480E0DF91CF91089594
:1011B00080E090E0FACF1F93CF93DF93282F30E0A9
:1011C000F901E850F64F8491F901E852F64FD491B5
:1011D000F901E854F64FC491CC23A9F0162F8111E0
:1011E0000E947A08EC2FF0E0EE0FFF1FEC55F64F4F
:1011F000A591B4918FB7F894EC91111108C0D095D6
:10120000DE23DC938FBFDF91CF911F910895DE2BFA
:10121000F8CF1092310C1092300C10922F0C1092CB
:101220002E0C10922D0C81E080932C0C10922B0C24
:1012300061E081E10E94DB0861E080E10E94DB085F
:10124000E9EBF0E080818E7F808380818D7F8083D9
:1012500080E28093B80085E48093BC0081E995E04A
:1012600090932A0C8093290C82E995E09093280CA6
:101270008093270C0895CF93DF9390E0FC01E85210
:10128000F64F24918854964FFC0184918823D1F025
:1012900090E0880F991FFC01E656F64FA591B49196
:1012A000FC01EC55F64FC591D49161110EC09FB76A
:1012B000F8948C91E22FE0958E238C932881E22381
:1012C000E8839FBFDF91CF9108958FB7F894EC9199
:1012D000E22BEC938FBFF6CF8851806480937C0023
:1012E00080917A00806480937A0080917A0086FDF4
:1012F000FCCF809178009091790008953FB7F894E1
:1013000080914E0A90914F0AA091500AB091510AD3
:1013100026B5A89B05C02F3F19F00196A11DB11D50
:101320003FBFBA2FA92F982F8827BC01CD01620F8C
:10133000711D811D911D43E0660F771F881F991F46
:101340004A95D1F708958F929F92AF92BF92CF9214
:10135000DF92EF92FF926B017C010E947E094B01AC
:101360005C01C114D104E104F104B9F00E947E09CA
:10137000681979098A099B09683E734081059105BE
:1013800080F321E0C21AD108E108F10888EE880E46
:1013900083E0981EA11CB11CE4CFFF90EF90DF907A
:1013A000CF90BF90AF909F908F9008952FB7F894F3
:1013B00060914A0A70914B0A80914C0A90914D0AB3
:1013C0002FBF089508958BEF0895CF93DF93FC010D
:1013D000228133812230310569F0EC01638D818DEA
:1013E0000E94DB0860E0888D0E94DB0882E090E0CC
:1013F0009B838A83DF91CF910895FF920F931F9370
:10140000CF93DF93EC01162FF42E0FB7F89460E022
:101410008F890E94DB088D899E89612F6068DC01BD
:10142000ED91FC910190F081E02D0995182F8D89A7
:101430009E89DC01ED91FC910190F081E02D6F2DF2
:10144000099561E08F890E94DB080FBF812FDF9132
:10145000CF911F910F91FF9008950F931F93CF93FA
:101460008C01C62F44E06DE40E94FD094BEF4C0F48
:10147000406869E0C801CF911F910F910C94FD095C
:10148000CF93DF93FC01228133812130310549F074
:10149000EC0140E061E00E94FD0981E090E09B8367
:1014A0008A8381E0DF91CF910895CF93DF93FC0190
:1014B000228133812230310549F0EC0141E061E0C5
:1014C0000E94FD0982E090E09B838A83DF91CF91A7
:1014D0000895CF92DF92EF92FF92CF93DF93EC01CA
:1014E000CB01BA0120E034E244E759E40E943750CE
:1014F00020E034E244E752E40E94DB510E944D5266
:101500006B017C01A7016627772766E0CE010E9468
:10151000FD0977276F2D5E2D4D2D67E0CE010E94CE
:10152000FD094C2D68E0CE010E94FD0981E0DF91AC
:10153000CF91FF90EF90DF90CF900895CF92DF9200
:10154000EF92FF920F931F93CF93DF934C3F08F0DE
:1015500067C0142F072FF62EEC01E881F98104846F
:10156000F585E02D0995CE010E94550A40E06DE019
:10157000CE010E94FD094A8560E0CE010E94FD096E
:101580004B8560E0CE010E94FD094C8560E0CE01F4
:101590000E94FD094D8560E0CE010E94FD09EFB675
:1015A000F89460E08F890E94DB088D899E89DC01B8
:1015B000ED91FC910190F081E02D60E80995CF2C30
:1015C000D02E012F015068F08D899E89F60161911E
:1015D0006F01DC01ED91FC910190F081E02D099506
:1015E000F1CF61E08F890E94DB08EFBE44E0410F3C
:1015F00062E2CE010E94FD098A819B81039771F00E
:1016000043E061E0CE010E94FD0940E460E4CE01C8
:101610000E94FD0983E090E09B838A8381E001C002
:1016200080E0DF91CF911F910F91FF90EF90DF90BD
:10163000CF900895CF93DF93FC0122813381233033
:101640003105C9F0EC0182819381049771F045E086
:1016500061E0CF010E94FD0940E060E4CE010E94FC
:10166000FD0984E090E09B838A83C65EDE4F88811B
:10167000DF91CF91089580E0FBCF0F931F93CF931D
:10168000DF93EC01162F0FB7F89460E08F890E946A
:10169000DB088D899E89DC01ED91FC910190F08140
:1016A000E02D612F09958D899E89DC01ED91FC91DA
:1016B0000190F081E02D60E00995182F61E08F899D
:1016C0000E94DB080FBF812FDF91CF911F910F91F7
:1016D0000895DF92EF92FF920F931F93CF93DF93C2
:1016E000EC0162E10E943D0B2A813B8124303105EF
:1016F000A1F4982F907A89F08F8598890196988B1C
:101700008F874FEF62E1CE01DF91CF911F910F9153
:10171000FF90EF90DF900C94FD092A813B812430EB
:10172000310511F486FD0DC02A813B81233031053E
:1017300041F783FFE6CF8B899C8901969C8B8B8B2D
:1017400067C063E1CE010E943D0B082F60E1CE012E
:101750000E943D0B482F6DE0CE010E94FD09DFB6CF
:10176000F89460E08F890E94DB088D899E89DC01F6
:10177000ED91FC910190F081E02D60E009957E01F2
:10178000BBE1EB0EF11C102F115070F08D899E897A
:10179000DC01ED91FC910190F081E02D60E0099574
:1017A000F70181937F01F0CF61E08F890E94DB0810
:1017B000DFBE0A8F4FEF62E1CE010E94FD096AE1B0
:1017C000CE010E943D0B89588E878A8DFE01E65E10
:1017D000FE4F8430C8F08B8D8E838C8D8F838D8DE2
:1017E00088878E8D89878D81811107C09E818C812C
:1017F000981719F08E818F3F39F489899A8901965B
:101800009A8B898B81E080838081882309F479CF4A
:10181000CE010E94550A75CF8091470A9091480ADF
:10182000009711F00C94690B08958091450A9091EE
:10183000460A009711F00C94690B08958091430AB1
:101840009091440A009711F00C94690B0895CF937E
:10185000DF93EC018D899E89DC01ED91FC9106807E
:10186000F781E02D099561E08F890E943B0961E0D5
:101870008F890E94DB0864E670E080E090E00E94BF
:10188000A30981E0DF91CF910895FF920F931F93F9
:10189000CF93DF931F92CDB7DEB7F42E08E81EE09A
:1018A000D8018D919C91DC01ED91FC91008CF18D22
:1018B000E02D0995F80180819181DC01ED91FC9189
:1018C000028CF38DE02D40E060E8099581E2898388
:1018D0004F2D61E0CE0101960E940D070E94020784
:1018E0000F90DF91CF911F910F91FF9008952F924C
:1018F0003F924F925F926F927F928F929F92AF92A0
:10190000BF92CF92DF92EF92FF920F931F93CF93EC
:10191000DF938C015B016A0119010E94D6092B013A
:101920003C01F12CE12C0E94D60964197509860945
:1019300097096C157D058E059F0508F078C080918C
:10194000880E9091890EDC01ED91FC910280F3816B
:10195000E02D0995882339F38091880E9091890EA6
:10196000DC01ED91FC910480F581E02DA501B80129
:101970000995C82F8823B9F28091880E9091890E1D
:10198000DC01ED91FC9100A0F1A1E02D0995D82F8B
:101990008091880E9091890EDC01ED91FC91068C6E
:1019A000F78DE02D0995882E8091880E9091890EF3
:1019B000DC01ED91FC9102A0F3A1E02D0995982E98
:1019C0008091880E9091890EDC01ED91FC9104A02C
:1019D000F5A1E02D099587FDA6CFBFEF8B1631F05D
:1019E0004D2F692D88E89EE00E94450CED2FF0E018
:1019F000E857F14FDF011B968385891509F493CFD2
:101A0000F101D0839C928C2FDF91CF911F910F9188
:101A1000FF90EF90DF90CF90BF90AF909F908F900E
:101A20007F906F905F904F903F902F900895C0E00F
:101A3000EACF9FB7F8948091410A882319F081502A
:101A40008093410A8091410A811105C08CB58F7B3A
:101A50008CBD1092400A9FBF08958CB58F778CBDC6
:101A600008958CB580688CBD0895FC0173836283F2
:101A70000895FC01778366830895FC017583648370
:101A80000895089580E00895FC0181850895FC0182
:101A900080850895FC0187810895FC018681089561
:101AA0004095FC0125854223642B65870895FC0140
:101AB00064870895FC0163870895FC016287089597
:101AC000FC0164830895FC01658308958F929F92C1
:101AD000AF92BF92CF92DF92EF92FF92CF93DF93BC
:101AE000EC016B010E94D6094B015C01F12CE12C49
:101AF0000E94D609681979098A099B096C157D0528
:101B00008E059F0580F48A819B81039789F381E08C
:101B1000DF91CF91FF90EF90DF90CF90BF90AF908B
:101B20009F908F90089580E0F3CFFC012281338154
:101B300023303105D1F381E008958F929F92AF92C7
:101B4000BF92CF92DF92EF92FF92CF93DF93EC019F
:101B50006B010E94D6094B015C01F12CE12C0E9423
:101B6000D609681979098A099B096C157D058E05C6
:101B70009F05A0F4E881F9810280F381E02DCE0178
:101B80000995882361F3DF91CF91FF90EF90DF906B
:101B9000CF90BF90AF909F908F90089580E0F3CF4B
:101BA000CF93DF93EC01E881F9810280F381E02D8E
:101BB000CE0109958823B9F3DF91CF91089581E093
:101BC00008951F93CF93DF93EC01162F888199819D
:101BD000DC01ED91FC910288F389E02D0995888163
:101BE0009981DC01ED91FC910688F789E02D612F48
:101BF00009951A83DF91CF911F910895CF92DF92BB
:101C0000EF92FF920F931F93CF936B017C01142FE0
:101C10008091880E9091890EDC01ED91FC910190EC
:101C2000F081E02D0995C82F882309F160918A0E73
:101C300088E89EE00E94E10D88E790E09093910E85
:101C40008093900E83E08093920E612F88E89EE04F
:101C50000E94E10D0091880E1091890EB701A60136
:101C6000C8010E94690A61E1C8010E942D0A8C2FF7
:101C7000CF911F910F91FF90EF90DF90CF9008953B
:101C800085ED8093BC008091BC0084FDFCCF109258
:101C90002D0C089520911D0A260F3327331F213262
:101CA0003105ECF420912D0CFC0190E080E0243013
:101CB00069F082E00895A0911D0A2191AC01435082
:101CC000564FA40FB52FB11D2C930196861798F38C
:101CD00080911D0A680F60931D0A80E0089581E0DD
:101CE00008950895E091310C8091300CE81730F49C
:101CF000F0E0EF53F44F808190E008958FEF9FEF75
:101D000008959091310C8091300C2FEF3FEF981790
:101D100048F4E92FF0E0EF53F44F208130E09F5F6B
:101D20009093310CC90108958091300C9091310C41
:101D3000891B990B0895CF92DF92EF92FF920F9338
:101D40001F93CF93DF937C01CB018A012091050C77
:101D5000222389F0EB016B01C40ED51ECC15DD05E5
:101D600069F06991D701ED91FC910190F081E02D2E
:101D7000C7010995F3CF642F0E944A0EC801DF9175
:101D8000CF911F910F91FF90EF90DF90CF9008952A
:101D9000CF93DF931F92CDB7DEB769832091050CF7
:101DA0002223F9F020912E0C203258F021E030E06F
:101DB000FC013383228390E080E00F90DF91CF918C
:101DC000089580912F0CE82FF0E0EA5FF34F99819E
:101DD00090838F5F80932F0C80932E0C81E090E096
:101DE000ECCF61E0CE0101960E944A0EF7CFCF936F
:101DF000C62F91E09093050C98E69093260C1092D4
:101E00002F0C10922E0C682F8BED99E10E94C80EBA
:101E10006C2F8BED99E10E94C80E81E0CF910C945C
:101E20009305CF93CFB7F8948091410A811127C0D1
:101E3000ECEBF9E08491ECEDF9E09491E82FF0E01F
:101E4000EE0FFF1FE656F64FA591B491EC91E923F2
:101E500021F461E084E00E94DB0861E084E00E94FC
:101E60003B098CB580618CBD8CB580648CBD61E014
:101E700087E00E943B0961E085E00E943B09809178
:101E8000410A8F5F8093410ACFBFCF910895FC0133
:101E9000268137812115310591F12130310559F124
:101EA0002230310551F12330310549F52CE09CB544
:101EB000937F922B9CBD84819581019711F58CB500
:101EC00080628CBD82819381019784309105E0F41A
:101ED000805C9E4FFC0190818CB58C7F292F2370F4
:101EE000822B8CBD8DB592FB992790F98E7F892B23
:101EF0008DBD0C94110F24E0DACF28E0D8CF20E07C
:101F0000D6CF8CB58F7DDDCF95E0E6CFCF92DF9237
:101F1000EF92FF92CF93DF9360E08DE10E943B0947
:101F20008DE10E946C09B0E0A0E0BC01CD01660F1C
:101F3000771F881F991F0E94D64F23E333E343E5A1
:101F400050E40E94375020E030E048EC52E40E9418
:101F5000375020E030E84FEF53E40E946F5120E00B
:101F600030EC4FE754E40E94DB510E944D52CB010C
:101F700064E670E00E949252EB01BC0190E080E0C8
:101F80000E94D64F20E030E048EC52E40E94DB5142
:101F90006B017C01BE0190E080E00E94D64F9B0166
:101FA000AC01C701B6010E946F51DF91CF91FF9044
:101FB000EF90DF90CF900895CF92DF92EF92FF9253
:101FC000CF93DF9361E08EE00E943B0960E088E1FF
:101FD0000E943B0961E08EE00E94DB0884EE93E002
:101FE0000197F1F788E10E946C09EC0160E08EE056
:101FF0000E94DB08BE0190E080E022E0660F771FC0
:10200000881F991F2A95D1F70E94D64F23E333E307
:1020100043E550E40E94375020E030E048EC52E4C1
:102020000E94375020E030EC4FEB54E40E946F5197
:1020300020E030ED4FE355E40E94DB510E944D5209
:10204000CB0164E670E00E949252EB01BC0190E08B
:1020500080E00E94D64F20E030E048EC52E40E943D
:10206000DB516B017C01BE0190E080E00E94D64F05
:102070009B01AC01C701B6010E946F51DF91CF9166
:10208000FF90EF90DF90CF90089589E39CE00E944D
:102090004308E9E3FCE0A289B3898C918F7E8C939D
:1020A000A289B3898C91877F8C93A289B3898C9103
:1020B0008F778C93A289B3898C918F7D8C93828D3D
:1020C000818F60E08FE00E94DB0860E080E00E948A
:1020D000DB0860E081E00E94DB088CE990E10E946F
:1020E000400A80B78F7780BFEAE7F0E080818F7782
:1020F0008083F89485B7806885BF85B7806885BF81
:10210000789483B7817F846083BF83B7816083BF06
:102110007894ABE6B0E08C9184608C93A8E6B0E054
:102120008C9181608C9383B7816083BF889583B7DE
:102130008E7F83BF8081806880830E94DA060E9440
:10214000110F61E080E00E94DB0861E081E00C9407
:10215000DB089FB7F8942091400A80919E072130B8
:1021600019F48DBB9FBF08958FBF0895CF93DF9360
:10217000EC0161E088810E94DB088091400A8111B6
:102180000E94A9108B818CBD8C818DBDDF91CF9178
:1021900008958EBD00000DB407FEFDCF8EB50895E5
:1021A000862F0C94C9102091400A222361F02FB78A
:1021B000F8943091400A313049F43DB330939E0792
:1021C0003DB33DBB2FBF8CBD9DBD089520939E07A1
:1021D000FACFCF93DF93EC018CB58B838DB58C83D5
:1021E0008D819E810E94D31060E08881DF91CF9124
:1021F0000C94DB088F929F92AF92BF92CF92DF92A6
:10220000EF92FF920F931F93CF93DF934B015C01EB
:1022100028E833E140E050E00E940B512A313105BB
:1022200010F029E130E06901F12CE12CC501B40185
:10223000A7010E940B518901D0E0C0E0C017D1076F
:10224000C8F4A090560EB090570EC5010E94E91038
:1022500085E00E94C91080E00E94C910982EC50137
:102260000E94B61090FE14C0C701B6010E94A309D7
:102270002196E4CF80E0DF91CF911F910F91FF90E5
:10228000EF90DF90CF90BF90AF909F908F90089588
:1022900081E0F1CF0F931F93CF93DF93EC01162FC3
:1022A000442339F040E066E00E944A11CE010E94CA
:1022B000B610CE010E94E91085E00E94C91080E0AE
:1022C0000E94C910082FCE010E94B61000FDF1CF68
:1022D000CE010E94E910812FDF91CF911F910F91C4
:1022E0000C94C910FF920F931F93CF93DF93162F77
:1022F000072FF82E68EE73E080E090E00E94FA105D
:10230000882301F1C091560ED091570E41E060E252
:10231000CE010E944A118F2D0E94C910802F0E9469
:10232000C910812F0E94C910CE010E94B61068EE1C
:1023300073E080E090E0DF91CF911F910F91FF90CB
:102340000C94FA1080E0DF91CF911F910F91FF90D4
:1023500008952F923F924F925F926F927F928F9249
:102360009F92AF92BF92CF92DF92EF92FF920F9324
:102370001F93CF93DF936C012A013B0119019A014E
:10238000332780E091E0821B930B912C812C011567
:10239000110581F1E8018017910708F4EC0141E093
:1023A00062E0C6010E944A11862D0E94C910852D47
:1023B0000E94C910842D0E94C9105101A80CB91C9B
:1023C0007501F70181917F010E94C910C7018A1927
:1023D0009B098C179D07A8F3C6010E94B6104C0EEE
:1023E0005D1E611C711C8C0E9D1E0C1B1D0B80E064
:1023F00091E0CDCFDF91CF911F910F91FF90EF90A2
:10240000DF90CF90BF90AF909F908F907F906F9014
:102410005F904F903F902F900895BF92CF92DF92A0
:10242000EF92FF920F931F93CF93DF937C01EA010A
:10243000B62E690140E06BE00E944A118B2D0E948C
:10244000C9108D2F0E94C9108C2F0E94C91080E0E6
:102450000E94C910E6010C0D1D1DC017D10729F0FF
:1024600080E00E94C9108993F8CFC701DF91CF9116
:102470001F910F91FF90EF90DF90CF90BF900C9441
:10248000B6100F931F93CF93DF9300D0CDB7DEB775
:10249000AB01BC014C5F5F4F6F4F7F4F02E010E01C
:1024A0009E012F5F3F4F8091560E9091570E0E94D4
:1024B0000D122091760E3091770E89819A8128171E
:1024C000390710F41A82198289819A810F900F902E
:1024D000DF91CF911F910F910895CF92DF92EF92EC
:1024E000FF926B017C010E9441129C01009769F0F0
:1024F000E091740EF091750EBF010E949252009708
:1025000021F02E0F3F1F281B390BC701B601620FA8
:10251000731F811D911DFF90EF90DF90CF900C9461
:1025200032060F931F93CF93DF93CDB7DEB760973B
:102530000FB6F894DEBF0FBECDBFAB01BC0100E10A
:1025400010E09E012F5F3F4F8091560E9091570EE5
:102550000E940D12FE013196CE01419621912F3F2E
:1025600079F4E817F907D1F781E060960FB6F8948F
:10257000DEBF0FBECDBFDF91CF911F910F910895A8
:1025800080E0F3CF4F925F926F927F92AF92BF92B3
:10259000CF92DF92EF92FF920F931F93CF93DF932F
:1025A000CDB7DEB72C970FB6F894DEBF0FBECDBF08
:1025B0006B017C015A01FA0110821182128213828E
:1025C00004E010E09A01BC01A6018091560E9091A2
:1025D000570E0E940D12F50180819181A281B38175
:1025E0008F3F9F4FAF4FBF4F79F019861A861B86DA
:1025F0001C86C701B6010E946D122B013C01C41458
:10260000D504E604F70411F480E054C004E010E0BF
:102610009E01275F3F4FBC01A2018091560E909111
:10262000570E0E940D1249855A856B857C85F501F0
:1026300080819181A281B3810196A11DB11D841772
:102640009507A607B70709F451C04F3F5F4F6F4F7B
:102650007F4FD1F6C301B2010E9491128823A1F2EB
:102660008091740E9091750EC81AD90AE108F1088C
:10267000CD82DE82EF82F886AE014F5F5F4F6FEF53
:10268000CE0105960E947813882349F149815A8129
:102690006B817C814F5F5F4F6F4F7F4F81E0F50112
:1026A000C080D180E280F3804C155D056E057F050A
:1026B00009F0AACF2C960FB6F894DEBF0FBECDBF9F
:1026C000DF91CF911F910F91FF90EF90DF90CF900E
:1026D000BF90AF907F906F905F904F9008956D8105
:1026E0007E818F8198850E949112E4CF81E0E2CFB4
:1026F000CF92DF92EF92FF920F931F93CF93DF93CE
:10270000EC01D62E7A01688179818A819B810E94B1
:102710009112CC24C39410E000E0882391F08FEF55
:102720009FEFDC01F70180839183A283B38380E074
:10273000DF91CF911F910F91FF90EF90DF90CF909D
:102740000895688179818A819B81A7010E94C212C4
:102750008111EECFCC20D9F061E0CE010E947F063E
:10276000688179818A819B810E949112C82E811192
:10277000D6CF8091760E9091770E6091740E709105
:10278000750E0E94925260177107D8F6C8CF8881E3
:102790009981AA81BB814091740E5091750E70E0B1
:1027A00060E01D14ACF0841B950BA60BB70B88835F
:1027B0009983AA83BB83688179818A819B810E94E6
:1027C0003206688379838A839B830F5F1F4FC8CF4C
:1027D000840F951FA61FB71FEACF2F923F924F92EB
:1027E0005F926F927F928F929F92AF92BF92CF92A1
:1027F000DF92EF92FF920F931F93CF93DF93CDB7AA
:10280000DEB72E970FB6F894DEBF0FBECDBF8C019A
:102810006D87FC0160817181828193810E94911298
:102820008823C9F0F80180809180A280B380FD8563
:10283000F13009F4F5C080916C0E90916D0EA0916D
:102840006E0EB0916F0E75016401C81AD90AEA0ABA
:10285000FB0A7D84F3C02091740E3091750E809137
:10286000700E9091710EA091720EB091730E821B3A
:10287000930BA109B109F80180839183A283B383EB
:10288000AE01475F5F4F6FEFC8010E94781381115F
:102890000BC0F80160817181828193810E94911245
:1028A0008111C0CF612C22C180916C0E90916D0E70
:1028B000A0916E0EB0916F0EF80180839183A28378
:1028C000B383AE014B5F5F4F61E0C8010E94781394
:1028D000F8016081718122819381811102C0822F70
:1028E000DDCF4D805E806F8078846B01E22EF92E03
:1028F0008090700E9090710EA090720EB090730E3A
:102900008C189D08AE08BF0822E9222E3324339488
:102910008091740E9091750EB0E0A0E08815990535
:10292000AA05BB0520F4B694A79497948794FFEF6B
:102930003F1252C0C814D904EA04FB0408F04CC08A
:102940008091700E9091710EA091720EB091730EE5
:1029500040916C0E50916D0E60916E0E70916F0EE5
:10296000841B950BA60BB70B8C0D9D1DAE1DBF1DBB
:102970006C017D01C818D908EA08FB08F801C0827B
:10298000D182E282F38260E0C8010E947F06F801F2
:1029900060817181828193810E949112811142CF65
:1029A000AE014F5F5F4F632DC8010E9478138823EB
:1029B00041F189819A81AB81BC81F1E03F1219C05C
:1029C000481659066A067B0640F52A94222009F427
:1029D00069CF2C013D019CCFA32D032C000CBB0B18
:1029E000A50194010E945751C60ED71EE81EF91E7C
:1029F000C5CF84159505A605B70538F33324339460
:102A0000E4CFF80160817181828193810E949112EB
:102A1000811108CFD301C201D8CF33243A94D5CF46
:102A2000C090700ED090710EE090720EF090730E08
:102A3000C818D908EA08FB0877247394F2E9FE87DE
:102A4000F80160817181828193810E9491128111CC
:102A5000C7C0F8012080318042805380C201B1019B
:102A60006627707F99277051810991090E9432066B
:102A70000E949112682E8823E9F0C201B1010E94E0
:102A80009112811117C0FD85F130A1F4F801808108
:102A90009181A281B3818827907FBB278083918316
:102AA000A283B383AE014F5F5F4F61E0C8010E9414
:102AB00078131CC0AE014B5F5F4F672DC8010E94A9
:102AC0007813F8014081518162817381882309F470
:102AD0007EC0FD85FF3F21F5CB01BA010E946D123A
:102AE0000E949112682E882309F47EC0862D2E96AE
:102AF0000FB6F894DEBF0FBECDBFDF91CF911F910F
:102B00000F91FF90EF90DF90CF90BF90AF909F908C
:102B10008F907F906F905F904F903F902F9008958F
:102B20008091740E9091750E2A013B01481A590A42
:102B300061087108C301B2010E949112682E8111CF
:102B4000B1CF77247A948091740E9091750EB0E095
:102B5000A0E08C159D05AE05BF0520F4F694E79422
:102B6000D794C7948FEF781242C08C149D04AE04A2
:102B7000BF04E8F58091700E9091710EA091720ED5
:102B8000B091730E40916C0E50916D0E60916E0E6F
:102B900070916F0E841B950BA60BB70B880D991DBA
:102BA000AA1DBB1D4C015D018C189D08AE08BF0815
:102BB000F80180829182A282B38260E0C8010E9403
:102BC0007F06FE85F150FE87F1113ACF6BCECB0127
:102BD000BA010E949112882309F4B5CF7194B3CF42
:102BE0002D852F3F09F4ADCF77247394ACCFA72D5B
:102BF000072C000CBB0BA70196010E945751860EB3
:102C0000971EA81EB91ED4CFCF93DF9300D000D05B
:102C1000CDB7DEB7AE014F5F5F4F0E94C21288236F
:102C200059F069817A818B819C810F900F900F9070
:102C30000F90DF91CF9108956FEF7FEFCB01F5CF2C
:102C4000282F30E094E0359527959A95E1F7922F5B
:102C5000990F990F291B220F820F0895EF92FF926F
:102C60000F931F93CF93DF938C01C62FF894F090AE
:102C7000B20061E0FC0184850E94DB089C2F80E0AB
:102C800031E0992329F083272FEF290F9223F9CFE1
:102C9000F0E88F9FC0011124C82B80E8D9E0982F5D
:102CA0009C2319F0D1508695FACF8091B2008F19EC
:102CB0008A31D8F3F090B200EE24E394F8018485D1
:102CC000ED1678F460E0C0FF61E00E94DB088091BF
:102CD000B2008F198A31D8F3F090B200C695E39410
:102CE000EDCF60E00E94DB0878948AE090E08D1BD5
:102CF00091099AE1899F802D11249091B2009F192A
:102D00009817D8F3DF91CF911F910F91FF90EF901B
:102D10000895FC0115869091370C8091380C981716
:102D200099F0E091370CF0E0E25BF84F2081809160
:102D3000370C90E001966BE470E00E94A6528093FD
:102D4000370C822F90E008958FEF9FEF08959091B8
:102D5000370C8091380C981741F0E091370CF0E077
:102D6000E25BF84F808190E008958FEF9FEF089528
:102D7000FC01858581110EC08091380C2091370CA3
:102D800090E0855B9F4F821B91096BE470E00E948D
:102D9000A65208958FEF9FEF089590E080E0089588
:102DA000DC011C969C911C97ECE6F0E0983050F00A
:102DB000E3E7F0E0903130F0EBE6F0E0983110F42A
:102DC000EDE6F0E08081977021E030E001C0220F55
:102DD0009A95EAF72095282320831C968C91ECE69F
:102DE000F0E0883050F0E3E7F0E0803130F0EBE6DF
:102DF000F0E0883110F4EDE6F0E09081911110C020
:102E0000F0E0E0E0803210F4E8E6F0E09081883015
:102E100040F0803140F0883140F08EEF892380838C
:102E200008958DEFFBCF87EFF9CF8BEFF7CFCF93DF
:102E3000DF93EC016330710521F164307105E1F13C
:102E40006230710509F05FC060E083E00E943B09D9
:102E500061E083E00E943B0961E083E00E94DB08BF
:102E600060E08C850E943B0961E08C850E943B09F3
:102E700060E08C850E94DB08CE01DF91CF910C943D
:102E8000D01660E083E00E943B0961E083E00E948D
:102E90003B0961E083E00E94DB0862E070E080E0D3
:102EA00090E00E94A30960E08C850E943B0961E0EC
:102EB0008C850E943B09E0CF61E083E00E943B09E2
:102EC00060E083E00E94DB0862E070E080E090E078
:102ED0000E94A30960E08C850E94DB0860E08C857D
:102EE0000E943B0978948091680088608093680014
:102EF000809173008460809373008FEF80939D07AF
:102F0000DF91CF91089561E083E00E943B0961E089
:102F100083E00E94DB0860E08C850E94DB0860E0B3
:102F2000C7CF70E060E088E79EE00E94171710921C
:102F3000360C1092350C8091340C8093B000809147
:102F4000330C8093B10008958091350C9091360C2C
:102F500088579E4061F062E070E088E79EE00E9442
:102F6000171788E79EE09093360C8093350C86E91E
:102F700090E0A0E0B0E080937C0E90937D0EA09353
:102F80007E0EB0937F0E81EF98ED9093870E809325
:102F9000860E8091B0008093340C8091B1008093B4
:102FA000330C1092B00086E08093B1000895CF9367
:102FB000DF9363E070E088E79EE00E941717C8E7A0
:102FC000DEE061E08C850E94DB088CE895E60197E5
:102FD000F1F760E08C850E94DB088CE496E40197B1
:102FE000F1F7DF91CF9108950F931F93CF93DF9364
:102FF0008C010E94D717D0E0C0E0D80114968D91C3
:103000009C911597C817D90790F4ED91FC913097D2
:1030100059F41092320CE2E3FCE0608188E79EE014
:103020000E942E162196E9CFEC0FFD1FF6CF64E02B
:1030300070E088E79EE0DF91CF911F910F910C9493
:1030400017171F93CF93DF93EC01162F63E070E007
:103050000E941717612FCE010E942E1664E070E0C7
:10306000CE010E94171781E090E0DF91CF911F9170
:10307000089581E08093050C88E68093260C1092D9
:103080002F0C10922E0C60E08BED99E10E94C80E7F
:1030900081E00E949305811142C067E088E60E94AA
:1030A000F0051092310C8093300C8BED99E10E9469
:1030B000810E8F770E9420168093BA0B8BED99E1D9
:1030C0000E94810E0E9420168093BB0B8BED99E12C
:1030D0000E94810E8F7B0E9420168093BC0B8BED8B
:1030E00099E10E94810E8093BD0B8BED99E10E94C6
:1030F000810E0E9420168093BE0B8BED99E10E94F9
:10310000810E8F770E9420168093BF0B8BED99E183
:103110000E94810E0E942016825E8093C00B8091D7
:10312000BA0B8093F5098091BB0B8093550A80916F
:10313000BC0B8093F6098091BE0B8093F9098091B6
:10314000BF0B8093FA098091C00B90E08E54984F8A
:103150009093F8098093F70962E370E080E090E0D3
:103160000C94A309CF9391E09093050C98E690936B
:10317000260C10922F0C10922E0C682F8BED99E1DB
:103180000E94C80E81E00E94930581110DC061E08C
:1031900088E60E94F0051092310C8093300C8BED84
:1031A00099E10E94810EC82F8C2FCF9108951F9313
:1031B000CF93DF9381E08093050C88E68093260C03
:1031C00010922F0C10922E0C60E08BED99E10E9472
:1031D000C80ECAEBDBE028811AE0822F612F0E9423
:1031E0008652682F660F680F660F620F8BED99E1AC
:1031F0000E94C80E2981822F612F0E948652682F5B
:10320000660F680F660F620F8BED99E10E94C80E82
:103210002A81822F612F0E948652682F660F680FC5
:10322000660F620F8BED99E10E94C80E6B818BEDEA
:1032300099E10E94C80E2C81822F612F0E94865234
:10324000682F660F680F660F620F8BED99E10E9481
:10325000C80E2D81822F612F0E948652682F660F23
:10326000680F660F620F8BED99E10E94C80E2E81E8
:103270002E51822F612F0E948652682F660F680F91
:10328000660F620F8BED99E10E94C80E81E00E94EB
:103290009305C82F8FE00E94B218682F6F778FE0D8
:1032A0000E94F70E8C2FDF91CF911F910895CF933D
:1032B000DF93C82FD62F8EE00E94B2184C2F4150BA
:1032C000550B61E070E001C0660F4A95EAF7DD2317
:1032D00031F0682B8EE0DF91CF910C94F70E609562
:1032E0006823F8CFCF93DF93C82F8FE00E94B218E6
:1032F000C150DD0B21E030E001C0220FCA95EAF792
:10330000982F922351F02095622F68238FE00E941E
:10331000F70E81E0DF91CF91089580E0FBCF0F930E
:103320001F93CF93DF93EC010E94D7178E01FE010C
:1033300001900020E9F73197EC1BFD0BC8018C1BB5
:103340009D0B8E179F0740F4F80161918F0188E76C
:103350009EE00E942E16EBCF64E070E088E79EE0CE
:10336000DF91CF911F910F910C941717FC010190E1
:103370000020E9F73197AF01481B590BBC0189E3E5
:103380009CE00C94510780ED91E00C94B619CF931A
:10339000DF93FC01448155816081718189E39CE068
:1033A0000E945107EC010E94C3198C0F9D1FDF91F1
:1033B000CF910895CF93DF930E942808EC010E94DB
:1033C000C3198C0F9D1FDF91CF910895CF93DF9389
:1033D0000E942308EC010E94C3198C0F9D1FDF91EE
:1033E000CF9108958F929F92AF92BF920F931F93A8
:1033F000CF93DF93CDB7DEB7A1970FB6F894DEBFBA
:103400000FBECDBF19A2423008F44AE08E010F5D15
:103410001F4F842E912CB12CA12CA50194010E9448
:103420000B51E62FB901CA01EA30F4F4E05DD8018E
:10343000EE938D01232B242B252B79F790E080E050
:10344000109719F0CD010E94B619A1960FB6F89405
:10345000DEBF0FBECDBFDF91CF911F910F91BF9007
:10346000AF909F908F900895E95CE1CF682F70E056
:1034700090E080E04AE00C94F219CF93DF930E9431
:10348000361AEC010E94C3198C0F9D1FDF91CF915A
:103490000895CF92DF92EF92FF92CF93DF9397FF41
:1034A00019C06B017C018DE20E942308EC016627A4
:1034B0007727CB016C197D098E099F094AE00E948C
:1034C000F2198C0F9D1FDF91CF91FF90EF90DF904D
:1034D000CF9008954AE0DF91CF91FF90EF90DF9079
:1034E000CF900C94F219CF92DF92EF92FF920F934C
:1034F0001F93CF93DF930E94D6096B017C0120E1DB
:10350000C20E27E2D21EE11CF11C1092FC0910929F
:10351000FB090E94D6096C157D058E059F05A0F557
:1035200089E39CE00E94AF071816190694F764E639
:1035300070E080E090E00E94A30989E39CE00E9493
:10354000AF07F82E11E00AE0C091FB09D091FC0909
:10355000F11690F089E39CE00E948E070C9F900189
:103560000D9F300D1124C097280F391F3093FC098F
:103570002093FB091F5FE8CFBE01DD0F880B990B7D
:103580000E94491A0E94C3196AE070E080E090E04E
:10359000DF91CF911F910F91FF90EF90DF90CF902F
:1035A0000C94A309CF93DF934AE00E94F219EC0137
:1035B0000E94C3198C0F9D1FDF91CF910895CF9367
:1035C000DF93D0E0C0E0009719F00E94B619EC013B
:1035D0000E94C3198C0F9D1FDF91CF9108958F9288
:1035E0009F92AF92BF92CF92DF92EF92FF921F9382
:1035F000CF93DF93CDB7DEB764970FB6F894DEBFF5
:103600000FBECDBF6B017C0149015A0168E873E12F
:1036100080E090E00E94FA10182F882309F410C26D
:10362000C0926C0ED0926D0EE0926E0EF0926F0E04
:103630008092700E9092710EA092720EB092730EE4
:1036400080E290E09093750E8093740E80E090E19C
:103650009093770E8093760EF8948FEF9FEFDC01B6
:103660008093580E9093590EA0935A0EB0935B0E10
:1036700080935C0E90935D0EA0935E0EB0935F0EF0
:103680008093600E9093610EA093620EB093630ED0
:103690008093640E9093650EA093660EB093670EB0
:1036A00060916C0E70916D0E80916E0E90916F0E08
:1036B0000E949112882309F4C0C080906C0E9090F3
:1036C0006D0EA0906E0EB0906F0E6091700E7091A6
:1036D000710E8091720E9091730E681979098A09A2
:1036E0009B099695879577956795680D791D8A1D35
:1036F0009B1D0E949112882309F49FC080916C0E3B
:1037000090916D0EA0916E0EB0916F0E898B9A8B79
:10371000AB8BBC8B8D879E87AF87B88B69897A8985
:103720008B899C8960935C0E70935D0E80935E0E16
:1037300090935F0ECD84DE84EF84F888C092580E9B
:10374000D092590EE0925A0EF0925B0E0E946D12CA
:103750006093600E7093610E8093620E9093630E7F
:103760006B017C01CC2420EFD222FF246C157D0557
:103770008E059F0509F0A6C16093640E7093650ED7
:103780008093660E9093670E6091640E7091650E43
:103790008091660E9091670E0E9432066093640ECF
:1037A0007093650E8093660E9093670E80915C0E09
:1037B00090915D0EA0915E0EB0915F0E0097A048B3
:1037C000B10508F486C11092680E1092690E10922D
:1037D0006A0E10926B0E789483ED91E00E94DF1ACE
:1037E0000E94C3196091580E7091590E80915A0E23
:1037F00090915B0E0E94041660915C0E70915D0EBC
:1038000080915E0E90915F0E0E94041689E39CE009
:103810000E944308812F64960FB6F894DEBF0FBE56
:10382000CDBFDF91CF911F91FF90EF90DF90CF90B0
:10383000BF90AF909F908F90089580916C0E909163
:103840006D0EA0916E0EB0916F0E898B9A8BAB8B23
:10385000BC8BAE014B5F5F4F6FEFCE0141960E9474
:10386000781381111DC080916C0E90916D0EA09106
:103870006E0EB0916F0E898B9A8BAB8BBC8BAE01A9
:103880004B5F5F4F61E0CE0141960E94781381113A
:1038900007C08FEF9FEFDC018D839E83AF83B887D6
:1038A0002091740E3091750E8091700E9091710E72
:1038B000A091720EB091730E821B930BA109B109F6
:1038C000898B9A8BAB8BBC8BAE01475F5F4F6FEFE1
:1038D000CE0141960E947813811107C08FEF9FEFB0
:1038E000DC0189879A87AB87BC8789849A84AB84FB
:1038F000BC8480916C0E90916D0EA0916E0EB09173
:103900006F0E4D815E816F8178854F3F5F4F6F4FA6
:103910007F4F09F18B208A208920809409F096C07E
:103920008D879E87AF87B88BAE014F5F5F4F61E099
:10393000CE010D960E9478138823E1F12091740E38
:103940003091750E8091700E9091710EA091720E53
:10395000B091730E9AC02091740E3091750E409103
:10396000700E5091710E6091720E7091730E421B29
:10397000530B610971098B208A208920809409F4F6
:103980008DC0498B5A8B6B8B7C8B8D879E87AF87C5
:10399000B88BAE014F5F5F4F6FEFCE0141960E9433
:1039A0007813882339F061E0CE010D960E94ED1363
:1039B0008111B4CE89899A89AB89BC89C816D90688
:1039C000EA06FB06E1F58D859E85AF85B889C816A8
:1039D000D906EA06FB0699F580E090E0A0E8B0E0A1
:1039E00080935C0E90935D0EA0935E0EB0935F0E7D
:1039F0008093580E9093590EA0935A0EB0935B0E7D
:103A0000C092600ED092610EE092620EF092630E50
:103A100080E1D80EE11CF11CC092640ED092650EBC
:103A2000E092660EF092670E8FEF9FEFDC018093BD
:103A3000680E9093690EA0936A0EB0936B0E789403
:103A40008AEE91E00E94DF1A10E0E4CE19861A8611
:103A50001B861C864FEF5FEFBA014D835E836F8339
:103A600078878D879E87AF87B88B61E0CE010D96F2
:103A70000E94ED13882309F49DCF2091740E30919C
:103A8000750E8D859E85AF85B889821B930BA10924
:103A9000B109898B9A8BAB8BBC8B10C08D879E87AD
:103AA000AF87B88B498B5A8B6B8B7C8B61E0CE01D7
:103AB0000D960E94ED13882309F47CCF6FEFCE01A1
:103AC000419674CF705F8F4F9F4F6627707F992705
:103AD00053CE48E65EE061E08CE59EE00E947813FC
:103AE0007ACE0C94B6190E94391865E38BE00E94D7
:103AF000F70E68E18CE00E94F70E60E88DE00E940E
:103B0000F70E88E092E00E94711D82E10E94361A51
:103B100083ED95E00E94711D83E20E943D1A62E3ED
:103B200070E080E090E00C94A309CF93DF93482FDE
:103B30005091550A852F90E0E0913E0BE4133BC075
:103B4000CE2FD0E08C0F9D1F6CE370E00E94A65238
:103B5000BE010E94A652E69FE02D1124E093DF09EA
:103B60002091DF09822F6AE00E948652C82FCC0F75
:103B7000C80FCC0FC20F60E087E00E94F70E6C2FD9
:103B800088E00E94F70E60E889E00E94F70E60E886
:103B90008AE00E94F70E8AE192E00E94711D8091F6
:103BA000DF090E943D1A62E370E080E090E0DF915F
:103BB000CF910C94A309840F911D8C3391053CF097
:103BC0006CE370E00E94A6528093DF09C9CF450FD5
:103BD0004093DF09C5CFCF93DF93EC0188819981B2
:103BE000009711F00E946653198218821D821C8270
:103BF0001B821A82DF91CF910895FC01808191810F
:103C00000C9466532F923F924F925F927F928F92C5
:103C10009F92AF92BF92CF92DF92EF92FF920F935B
:103C20001F93CF93DF9300D000D000D0CDB7DEB785
:103C30004B015C01AE014F5F5F4F0E94C212782EB4
:103C400081111DC08AE292E00E94DF1A872D26961C
:103C50000FB6F894DEBF0FBECDBFDF91CF911F919D
:103C60000F91FF90EF90DF90CF90BF90AF909F901B
:103C70008F907F905F904F903F902F90089506E037
:103C800010E09E012F5F3F4FB501A4018091560EB9
:103C90009091570E0E940D124D805E80620186E069
:103CA000C81AD108C20105970E94CA527C0100912E
:103CB000700E1091710E2091720E3091730EB5013D
:103CC000A4014A5F5F4F6F4F7F4FD501C401840D40
:103CD000951DA11DB11D1C012D018091560E9091C5
:103CE000570E021513052405350560F50650110918
:103CF0005801A818B908850197010E940D12860184
:103D00000A191B0997012A0D3B1D40916C0E509119
:103D10006D0E60916E0E70916F0E8091560E9091A7
:103D2000570E0E940D12F701EC0DFD1D1082C70108
:103D30000E94DF1A89E39CE00E944308C7010E94A9
:103D4000665384CF86019701ECCF2F923F924F921A
:103D50005F926F927F928F929F92AF92BF92CF921B
:103D6000DF92EF92FF920F931F93CF93DF93CDB724
:103D7000DEB72A970FB6F894DEBF0FBECDBFFC01A9
:103D8000698304811581C80187509F4F6AEF70E0F5
:103D90000E949252662309F42AC129812A874F0181
:103DA0006150698790E080E0212C312C210133940F
:103DB0000115110509F41BC10B3F110550F15C0100
:103DC0003AEFA30EB11C0A5F110966246394712CAB
:103DD000681A790A6A0C7B1C49854093930FA4E901
:103DE000BFE08A159B05D8F4F40124813581821740
:103DF000930738F420813181F901E80FF91F232B53
:103E000021F41092320CE2E3FCE020812D93019624
:103E1000E8CF5801A80EB91E10E000E0D6CFF09010
:103E20008F0EF394F0928F0EC12CEE24E394EC0CE1
:103E30008091920E8C1508F4F4C08091880E9091B8
:103E4000890EDC01ED91FC91008CF18DE02D6F2D40
:103E500009958091880E9091890EDC01ED91FC917D
:103E6000028CF38DE02D40E860E009954A85662DCF
:103E700083E99FE00E940D070E940207BA85BF3FB9
:103E800009F4D1C0E1E0EE1598F480918B0E909189
:103E90008C0EA0918D0EB0918E0E0196A11DB11DBC
:103EA00080938B0E90938C0EA0938D0EB0938E0EFC
:103EB0000E94D60969837A838B839C83C090900E7D
:103EC000D090910E0E94AA4CA20191010E942D5106
:103ED0009B01AC01D6010E944C51A20191010E94AC
:103EE0002D512C0D3D1DCE2CC901B0E0A0E08D83DD
:103EF0009E83AF83B8870E94D60929813A814B817E
:103F00005C81621B730B840B950B2D813E814F816D
:103F10005885621773078407950708F086CF80914C
:103F2000880E9091890EDC01ED91FC910280F38165
:103F3000E02D09958823F9F28091880E9091890EE1
:103F4000DC01ED91FC910480F581E02D50E040E032
:103F500070E060E00995882371F28091880E90915D
:103F6000890EDC01ED91FC9100A0F1A1E02D0995F5
:103F7000D82E8091880E9091890EDC01ED91FC91F4
:103F8000068CF78DE02D0995782E8091880E909102
:103F9000890EDC01ED91FC9102A0F3A1E02D0995C1
:103FA000E82E8091880E9091890EDC01ED91FC91B4
:103FB00004A0F5A1E02D0995BA85BD1108C0909126
:103FC0008A0E971104C087FF02C0FE1461F187FDBD
:103FD00092CFED2DF0E0E857F14F83858E118BCF16
:103FE0004D2D6E2D88E89EE00E94450C84CF81E027
:103FF0002A960FB6F894DEBF0FBECDBFDF91CF91EA
:104000001F910F91FF90EF90DF90CF90BF90AF90F6
:104010009F908F907F906F905F904F903F902F90E8
:10402000089580E0E5CFE985E150E987C501C0CE7C
:104030000E94D0540F931F93CF93DF93EC0188819C
:104040009981009759F02A813B812617370730F074
:1040500081E0DF91CF911F910F9108958B016F5FE8
:104060007F4F0E94EF53009759F0998388831B83F9
:104070000A832C813D81232B59F7FC011082E8CF64
:1040800080E0E7CFEF92FF920F931F93CF93DF93E0
:104090006115710541F480E0DF91CF911F910F917F
:1040A000FF90EF90089541155105B1F07B01EC01AF
:1040B0000C811D81040F151FB8010E941A2088234E
:1040C00051F3288139818C819D81B701820F931F23
:1040D0000E94F9541D830C8381E0DECF0F931F9360
:1040E000CF93DF9300D000D0CDB7DEB74AE08E018A
:1040F0000F5F1F4FB80190E00E94144DF80101902E
:104100000020E9F73197AF01401B510BB80187EB55
:1041100091E10E9442200F900F900F900F90DF913D
:10412000CF911F910F9108950F931F93CF93DF931A
:10413000CDB7DEB764970FB6F894DEBF0FBECDBF24
:104140008E010F5F1F4F22E044E00E94404CFC01B3
:1041500001900020E9F73197AF01481B590BBC01D2
:1041600087EB91E10E94422064960FB6F894DEBF7F
:104170000FBECDBFDF91CF911F910F910895CF93C7
:10418000DF9300D0CDB7DEB769831A8241E050E0FB
:10419000BE016F5F7F4F0E9442200F900F90DF9112
:1041A000CF910895FB0101900020E9F73197AF010D
:1041B000461B570B0C944220EF92FF920F931F93D4
:1041C000CF93DF93EC017B018A01BA010E941A2090
:1041D00081110BC0CE010E94EB1DCE01DF91CF916A
:1041E0001F910F91FF90EF9008951D830C83B701ED
:1041F000888199810E94F954F0CFFC0111821082CC
:10420000138212821582148250E040E062ED71E068
:104210000C94DC20CF93DF9300D000D000D0CDB73A
:10422000DEB70E94A41764E670E080E090E00E9490
:10423000A309CE0101960E94FD206091F309CE01F1
:1042400001960E94BF2062E472E0CE0101960E94B6
:10425000D220CE0101960E94F4176CE271E080E05A
:1042600090E00E94A30988E79EE00E94B816892B7F
:1042700029F088E79EE00E948916F5CF64E170E09E
:1042800080E090E00E94A3090E94911764E170E031
:1042900080E090E00E94A309CE0101960E94FD1DDE
:1042A00026960FB6F894DEBF0FBECDBFDF91CF913B
:1042B0000895CF93DF9300D000D000D0CDB7DEB704
:1042C0000E94A41764E670E080E090E00E94A309D9
:1042D000CE0101960E94FD206091F309CE01019666
:1042E0000E94BF2066E472E0CE0101960E94D220B7
:1042F000CE0101960E94F4176CE271E080E090E03C
:104300000E94A30988E79EE00E94B816892B29F035
:1043100088E79EE00E948916F5CF64E170E080E0B6
:1043200090E00E94A3090E94911764E170E080E090
:1043300090E00E94A309CE0101960E94FD1D2696E1
:104340000FB6F894DEBF0FBECDBFDF91CF910895B9
:10435000FB0101900020E9F73197AF01461B570B95
:104360000C94DC200F931F93CF93DF9300D000D0E9
:1043700000D0CDB7DEB7182FCE0101960E94FD20E8
:1043800062ED71E0CE0101960E94A821612FCE015D
:1043900001960E94BF206CE374E0CE0101960E945A
:1043A000D22003E010E0CE0101960E94F41764E6EB
:1043B00070E080E090E00E94A30988E79EE00E9400
:1043C000B816181619064CF064E670E080E090E02C
:1043D0000E94A3090150110931F788E79EE00E946D
:1043E000B81602979CF00E948A0511E0CE01019652
:1043F0000E94FD1D812F26960FB6F894DEBF0FBEDA
:10440000CDBFDF91CF911F910F9108950E948A0532
:1044100010E0ECCFCF93DF93EC01FB0186179707F9
:1044200049F0608171816115710541F044815581C8
:104430000E94DC20CE01DF91CF9108950E94EB1DF8
:10444000F9CFCF93DF9300D000D000D0CDB7DEB747
:104450001A8219821C821B821E821D8267EB71E107
:10446000CE0101960E940A224091C1115091C211C1
:104470006091BD117091BE11CE0101960E94422043
:10448000811104C0CE0101960E94EB1DBE016F5F39
:104490007F4F8DEB91E10E940A22CE0101960E948E
:1044A000FD1D64E670E080E090E00E94A3098DEBC2
:1044B00091E10E94C71962E370E080E090E00E9401
:1044C000A30926960FB6F894DEBF0FBECDBFDF91CD
:1044D000CF910895CF92DF92EF92FF920F931F93A7
:1044E000CF93DF93EC017B018A01E881F98102809F
:1044F000F381E02D0995D82E882329F1E114F104E8
:10450000D1F001151105B9F0CFB6F8948A8D83501A
:10451000990BF8012081281719061CF08A8D845008
:104520008083F801408150E0BE01615E7F4FC7018A
:104530000E94D554CFBE8FB7F894FE01E65EFE4FC1
:1045400010821A8E8FBF8D2DDF91CF911F910F9109
:10455000FF90EF90DF90CF900895EF92FF920F932E
:104560001F93CF93DF9300D01F92CDB7DEB78C019E
:104570000E94270CE82E81110CC0E12C8E2D0F908B
:104580000F900F90DF91CF911F910F91FF90EF90BF
:104590000895F801808D8A3009F47EC08B3009F4CB
:1045A0007DC022E0F22E823041F740E861E0C80190
:1045B0000E94FD096AE070E080E090E00E94A3099B
:1045C00061E0C8010E943D0B8038B9F660E0F80157
:1045D000808D0E943B09F801818D8F3F49F48091C5
:1045E000420A843050F691E0980F9093420A818FEE
:1045F000F801818DE82FF0E0EE0FFF1FED5BF54F26
:10460000118300836EE17CE0882349F065E17CE062
:10461000813029F0823009F0B0CF6CE07CE08F2D42
:104620000E94300740E06EE0C8010E94FD0940E0B2
:104630006FE0C8010E94FD09C8010E94550A43E0CD
:1046400050E06EE879E0CE0101960E940B4D498161
:104650006DE1C8010E94FD094A816EE1C8010E9416
:10466000FD094B8166E2C8010E94FD0940E060E25D
:10467000C8010E94FD0948E061E2C8010E94FD09ED
:1046800040E050EC64E674E4C8010E94690A6DE001
:10469000C8010E942D0A72CFF12C87CFFF24F3941A
:1046A00084CFCF92DF92EF92FF921F93CF93DF934D
:1046B000ECE5FAE088ECDF011D928A95E9F762E308
:1046C00070E080E090E00E94A3090E94D6096B018F
:1046D0007C01B0E1CB0EB7E2DB1EE11CF11C0E94B5
:1046E000D6096C157D058E059F0540F589E39CE094
:1046F0000E94AF071816190694F764E670E080E090
:1047000090E00E94A30989E39CE00E94AF07EC01BE
:10471000F82E10E089E39CE00E948E078D3039F07E
:104720008A3029F0E12FF0E0E45AF54F80831F5FD3
:10473000F11680F7DD27C45AD54F18828CE59AE030
:10474000DF91CF911F91FF90EF90DF90CF900C946D
:10475000DF1A2F923F924F925F926F927F928F92C9
:104760009F92AF92BF92CF92DF92EF92FF920F9300
:104770001F93CF93DF93CDB7DEB764970FB6F8944E
:10478000DEBF0FBECDBFCDB6DEB6DE86CD860E94C3
:104790002122E090C111F090C211FC8AEB8A2DB762
:1047A0003EB72E193F090FB6F8943EBF0FBE2DBF7E
:1047B0008DB79EB701965C016091BD117091BE11DD
:1047C000A7010E94D5548091760E9091770E06979E
:1047D0008E159F05C0F58AE492E00E94DF1A80E5FD
:1047E00091E00E94D31060E087E10E94DB0889EB32
:1047F0000E94C91061E087E10E94DB088091400AB5
:1048000081110E94A910ED84FE840FB6F894FEBEBB
:104810000FBEEDBE64960FB6F894DEBF0FBECDBFDF
:10482000DF91CF911F910F91FF90EF90DF90CF908C
:10483000BF90AF909F908F907F906F905F904F90C0
:104840003F902F9008952DB63EB64090680E509040
:10485000690E60906A0E70906B0E9FEF491A590AAC
:10486000690A790AEB88FC88A6E0EA0EF11C00913F
:10487000740E1091750EC701B8010E9492520097F4
:1048800009F461C10E0D1F1D081B190BEDB7FEB712
:10489000E01BF10B0FB6F894FEBF0FBEEDBF2DB7B6
:1048A0003EB72F5F3F4F4901ADB7BEB711964D924E
:1048B0005D926D927C921497F901F582E4828DB736
:1048C0009EB707964B895C89B5010E94D554A80113
:1048D0004E195F0970E060E0C4018E0D9F1D0E94BB
:1048E000DE542801712C612C4091600E5091610EB4
:1048F0006091620E7091630EC090700ED090710E38
:10490000E090720EF090730ECF86D88AE98AFA8A08
:10491000D301C801840F951FA61FB71FE091560E43
:10492000F091570EC816D906EA06FB0608F00DC12D
:104930005601A41AB50A7801EA18FB08850194010A
:10494000CF010E94A91164EF71E080E090E00E9425
:10495000FA1094012A0D3B1D40916C0E50916D0E82
:1049600060916E0E70916F0E87018091560E90913E
:10497000570E0E94A9118090600E9090610EA09039
:10498000620EB090630E8091680E9091690EA091B6
:104990006A0EB0916B0E0196A11DB11D8093680E39
:1049A0009093690EA0936A0EB0936B0EC301B2018F
:1049B000680D791D8A1D9B1D0E9432066093600E52
:1049C0007093610E8093620E9093630E705F8F4FB1
:1049D0009F4F6627707F99270E9432062B013C016A
:1049E0000E949112811128C0C301B2010E9472116C
:1049F000C301B201705F8F4F9F4F6627707F992769
:104A00000E9432066D837E838F839887AE014F5F4D
:104A10005F4F61E0CE0105960E947813882361F014
:104A20008D819E81AF81B8858093580E9093590EE9
:104A3000A0935A0EB0935B0E4092640E5092650E96
:104A40006092660E7092670E80925C0E90925D0E80
:104A5000A0925E0EB0925F0E8091580E9091590E0A
:104A6000A0915A0EB0915B0E0097A048B10540F09E
:104A70008092580E9092590EA0925A0EB0925B0EF0
:104A80000FB6F8943EBE0FBE2DBE60915C0E7091C5
:104A90005D0E80915E0E90915F0E0E9441127C012E
:104AA00060915C0E70915D0E80915E0E90915F0E34
:104AB0000E9441128C01009769F02091740E309190
:104AC000750EB9010E949252009721F0020F131F38
:104AD000081B190B8FE592E00E94711D6091680E12
:104AE0007091690E80916A0E90916B0E0E94D21A9D
:104AF0008FE692E00E94711D8DEB91E10E94C71933
:104B000086E792E00E94711DCB88DC88B60190E0B8
:104B100080E04AE00E94F21982E892E00E94711D52
:104B2000B70190E080E04AE00E94F2198FE892E03D
:104B30000E94711DB80190E080E04AE00E94F219E5
:104B40000E94C3194CCE8701A1CE9401CF0111CF91
:104B50002F923F924F925F926F927F928F929F928D
:104B6000AF92BF92CF92DF92EF92FF920F931F937B
:104B7000CF93DF93CDB7DEB7C150D1400FB6F894D5
:104B8000DEBF0FBECDBF2DB73EB7C950DF4F398353
:104B90002883C75FD04062ED71E08DEB91E10E9408
:104BA000A8210E94A41764EF71E080E090E00E94C9
:104BB000A309C851DF4F1882C85ED040AE014F5FD5
:104BC0005F4F3A012E0159EC450E511C6091D702FE
:104BD0007091D8028091D9029091DA02C650DF4FCD
:104BE000688379838A839B83CA5FD0408091DB028C
:104BF0009091DC02A091DD02B091DE02C250DF4F45
:104C000088839983AA83BB83CE5FD0408091F409C7
:104C1000C851DF4F9881C85ED040981708F071C521
:104C2000A0E89A9F80011124F801E552FE4EB08160
:104C3000C151DF4FB883CF5ED0409093EE0961EA57
:104C400072E0C80180509E4E0E94F054892B09F0FA
:104C5000B7C08EE08093ED0981E08093EC0964E6B3
:104C600070E080E090E00E94A309D090EC09DD2084
:104C700009F4B2C3C151DF4FF881CF5ED040CD52AD
:104C8000DF4FF883C35DD040CC52DF4F1882C45D44
:104C9000D040A090EE09B12C85011695102F002769
:104CA0001795079561EA72E0C80180509E4E0E94F8
:104CB000F05466EA72E0892B11F46AEA72E0CE01E0
:104CC0008C519F4F0E94F954BE016C517F4FCE0111
:104CD0008D529F4F0E94E554CE018D529F4F0E94EE
:104CE0008F1964EF71E080E090E00E94A30988E7EB
:104CF0009EE00E94B816843008F480C42DB73EB7F9
:104D0000CD50DF4F39832883C35FD040C853DF4F76
:104D10001882C85CD040AE0142585F4F7A0110E063
:104D200000E0C12CA02E88E79EE00E948916B82ED4
:104D300068E070E080E090E00E94A309D701BD9296
:104D40007D01BDE0BB12B4C0EEE7F0E0EC0FFD1F4B
:104D5000E00FF11F10820E948A05CA0CAC2CB12C06
:104D60008501015011092DB73EB72A193B090FB62D
:104D7000F8943EBF0FBE2DBF4DB75EB74F5F5F4F7C
:104D80007A01912C882483949EE7392E9C1408F094
:104D9000A9C0EEE7F0E0EC0FFD1FE80DF11D8081EA
:104DA000F701E90DF11D8B3209F093C03082839435
:104DB00065E070E080E090E00E94A3099394E6CF64
:104DC000C8018B5F9D4E0E948F1964E670E080E001
:104DD00090E00E94A30988E79EE00E94B81618168A
:104DE00019060CF05CC0ADB6BEB681E08093EC094C
:104DF00088E79EE00E94B816982E8C011127EDB727
:104E0000FEB7E01BF10B0FB6F894FEBF0FBEEDBF6F
:104E10002DB73EB72F5F3F4F6901822E79018E2D4E
:104E20008819891540F488E79EE00E948916D70109
:104E30008D937D01F4CF0C0D1D1DF8013497208159
:104E4000022E000C330B2053310948EE53E0249F0F
:104E5000C001259F900D349F900D11249093EB0974
:104E60008093EA0903501109F801808180538093EF
:104E7000ED090FB6F894BEBE0FBEADBE6091EA0953
:104E80007091EB09072E000C880B990B0E94A30967
:104E90000E948A0562E370E080E090E0E4CE88EE54
:104EA00093E09093EB098093EA091092EC09E6CF26
:104EB000EDE2BE1201C0C3946AE070E080E090E0D1
:104EC0000E94A3090F5F1F4F0B34110509F02ACF71
:104ED00042CF8D3229F493943082F701E90DF11D10
:104EE000808365CFF701E00FF11F10828091EE09FA
:104EF000682F70E0C751DF4F79836883C95ED04067
:104F00004B019694982C8824979487946EEA72E0CB
:104F1000C40180509E4E0E94F0542091F409A22FAB
:104F2000A150BB0BC051DF4FB983A883C05FD040F5
:104F3000F401E452FE4E1F01892B09F0D4C22DB7B3
:104F40003EB7CB50DF4F39832883C55FD0404DB784
:104F50005EB74A195B090FB6F8945EBF0FBE4DBF2E
:104F60000DB71EB70F5F1F4F9E2DC750DF4F088331
:104F7000C95FD040D801F7018E2F891B8C1518F41A
:104F800081918D93F9CFC650DF4F688179818A81F5
:104F90009B81CA5FD040C052DF4F688379838A8388
:104FA0009B83C05ED040D8011196EC901197C452FB
:104FB000DF4FE882CC5DD04012968C911297C3529D
:104FC000DF4F8883CD5DD0401396FC90C252DF4FF7
:104FD000F882CE5DD040C152DF4F1882CF5DD04005
:104FE000BE0164527F4FCE0180529F4F0E94F05409
:104FF000892BD9F0F80180E091919E3209F44DC0DF
:105000008F5F8530C9F790E0DC011197A00FB11FC9
:105010002C91F801E80FF91F20830297F801E80F9F
:10502000F91F80818C938EE280836EE770E0C80167
:105030000E940F55801B910B8E5F282F30E0C551C9
:10504000DF4F39832883CB5ED040215031094DB7E3
:105050005EB7C551DF4F68817981CB5ED040461B7A
:10506000570B0FB6F8945EBF0FBE4DBFADB7BEB7BE
:105070001196C351DF4FB983A883CD5ED040F801AC
:105080009E2FC750DF4F4881C95FD040941B9817AF
:1050900008F042C091919D93F3CF823009F0B3CFD5
:1050A0002DB73EB7EDB7FEB7EA19FB090FB6F89476
:1050B000FEBF0FBEEDBF3196D8018C91ADB7BEB724
:1050C00011968C93918380E38283E382F48244E09F
:1050D000842F90E08A159B0568F05E2FC801DF01E0
:1050E0004A2F451B4A151B0488F44D91FC0141933E
:1050F000CF01F6CFBF01680F791F800F911FDC0130
:105100008C91DB0111968C934F5FE2CF0FB6F89430
:105110003EBF0FBE2DBF89CFC351DF4FE881F9815C
:10512000CD5ED040E20FF31F108264E170E080E0BA
:1051300090E00E94A309C151DF4F5881CF5ED0405B
:10514000C253DF4F5883CE5CD040C153DF4F18822B
:10515000CF5CD040C250DF4F688179818A819B81CA
:10516000CE5FD040C852DF4F688379838A839B83A8
:10517000C85DD040BE0168527F4FCE0182539F4F21
:105180000E94E554CE0182539F4F0E948F1964EF15
:1051900071E080E090E00E94A30988E79EE00E9411
:1051A000B816A82FA150BB0BEDB7FEB7EA1BFB0B3F
:1051B0000FB6F894FEBF0FBEEDBF0DB71EB70F5F61
:1051C0001F4F863038F1C12C5D01EC2CF12CEA1414
:1051D000FB0404F588E79EE00E9489168D3091F06B
:1051E0008A3071F0F801EE0DFF1D8B3281F08D32A7
:1051F00071F080836FE070E080E090E00E94A3098E
:10520000C394E3CFF801EE0DFF1D1082F9CF2EE716
:105210002083F6CF6EE770E0C8010E940F55801B17
:10522000910B282FF801E80FF11D91E08FEF890F06
:10523000921760F432913E3749F0322F391BCE502D
:10524000DF4F3883C25FD0409F5FF0CFA82EB12CD4
:1052500095012F5F3F4F4DB75EB7421B530B0FB603
:10526000F8945EBF0FBE4DBF6DB77EB76F5F7F4FC7
:105270007B01D801CE50DF4F7881C25FD040A70FAD
:10528000B11D2E2DF7019E2F921B981718F49D919A
:105290009193F9CFF701EA0DFB1D108264E670E0EF
:1052A00080E090E00E94A309C551DF4F8881998179
:1052B000CB5ED040A80EB91EADB7BEB7AA19BB09C8
:1052C0000FB6F894BEBF0FBEADBF0DB71EB70F5FD0
:1052D0001F4F64E170E080E090E00E94A309C35199
:1052E000DF4F68817981CD5ED040C8010E94F954BA
:1052F00064E170E080E090E00E94A3098EE7F8018D
:10530000808364E170E080E090E00E94A309B7012F
:10531000C8010E94E55462E370E080E090E00E94E2
:10532000A309C751DF4F28813981C95ED040C051E0
:10533000DF4F48815981C05FD040F401E552FE4EF5
:1053400087A52417350709F493C0882309F471C091
:105350001F930F93C401865F9D4E9F938F933F923F
:105360002F9283EB92E09F938F937F926F920E9494
:1053700034556DB77EB7665F7F4F0FB6F8947EBF2A
:105380000FBE6DBFC3010E94DF1A64E670E080E0CB
:1053900090E00E94A309B3018DEB91E10E94D2201D
:1053A00062E370E080E090E00E94A309CB50DF4F01
:1053B00028813981C55FD0400FB6F8943EBF0FBE3B
:1053C0002DBFCD50DF4F48815981C35FD0400FB60C
:1053D000F8945EBF0FBE4DBF62E370E080E090E0E6
:1053E0000E94A309D1100BC0B3018DEB91E10E9483
:1053F000D22062E370E080E090E00E94A3090E9466
:105400008A0562E370E080E090E00E94A30964EF07
:1054100071E080E090E00E94A309C851DF4F38811D
:10542000C85ED0403F5FC851DF4F3883C85ED04070
:10543000EDCB85E0E0EEF2E0D20101900D928A958D
:10544000E1F71F930F935F924F923F922F9283EB5E
:1054500092E09F938F937F926F920E9434558DB705
:105460009EB70A960FB6F8949EBF0FBE8DBF8ACF27
:105470008823D1F01F930F93C401865F9D4E9F93A5
:105480008F933F922F928CEB92E09F938F937F921A
:105490006F920E943455ADB7BEB71A960FB6F89406
:1054A000BEBF0FBEADBF6ECF85E0E0EEF2E0D20131
:1054B00001900D928A95E1F71F930F935F924F929F
:1054C0003F922F928CEB92E09F938F937F926F92FB
:1054D0000E943455EDB7FEB73A960FB6F894FEBF6A
:1054E0000FBEEDBF4FCFF401E552FE4E87A5C75169
:1054F000DF4F48815981C95ED040C051DF4F68817C
:105500007981C05FD04046175707E1F18823D9F071
:10551000FF92EF92C401865F9D4E9F938F933F92BF
:105520002F9283EB92E09F938F937F926F920E94D2
:1055300034558DB79EB70A960FB6F8949EBF0FBE2E
:105540008DBFD12C3ECF85E0E0EEF2E0D20101909C
:105550000D928A95E1F7FF92EF925F924F923F9200
:105560002F9283EB92E09F938F937F926F920E9492
:105570003455ADB7BEB71A960FB6F894BEBF0FBE7E
:10558000ADBFDFCF8823D1F0FF92EF92C401865FD9
:105590009D4E9F938F933F922F928CEB92E09F931F
:1055A0008F937F926F920E943455EDB7FEB73A9673
:1055B0000FB6F894FEBF0FBEEDBFC3CF85E0E0EE9F
:1055C000F2E0D20101900D928A95E1F7FF92EF92FD
:1055D0005F924F923F922F928CEB92E09F938F932A
:1055E0007F926F920E9434552DB73EB7265F3F4F92
:1055F0000FB6F8943EBF0FBE2DBFA3CF8DB69EB69B
:1056000086E0EFEDF2E0DE01A258BF4F01900D926F
:105610008A95E1F7C090ED098C2D880F8C0D880FCD
:105620006DB77EB7681B71090FB6F8947EBF0FBEC9
:105630006DBF8DB79EB701967C01282EC751DF4FF5
:10564000F882C95ED040BE0162587F4F0E94F95473
:1056500091E09C15A8F4312CAC2DA150BB0B6D0131
:105660003C141D046CF4BE0162587F4F822DC7515B
:10567000DF4F9881C95ED0400E94E5543394F0CF4B
:10568000C801865F9D4E04521E4E2091F4092150A0
:10569000330BA216B306E9F0FF92EF929F938F931C
:1056A0001F930F9384EC92E09F938F937F926F925E
:1056B0000E943455EDB7FEB73A960FB6F894FEBF88
:1056C0000FBEEDBF0FB6F8949EBE0FBE8DBED12C9F
:1056D00083CEFF92EF929F938F931F930F938EEC45
:1056E00092E09F938F937F926F920E9434552DB7D3
:1056F0003EB7265F3F4F0FB6F8943EBF0FBE2DBF9B
:10570000E1CF0E94911762E370E080E090E00E9498
:10571000A309C950DF4F48815981C75FD0400FB6F8
:10572000F8945EBF0FBE4DBFCF5FDE4F0FB6F8944B
:10573000DEBF0FBECDBFDF91CF911F910F91FF90C4
:10574000EF90DF90CF90BF90AF909F908F907F9021
:105750006F905F904F903F902F9008952F923F92BF
:105760004F925F926F927F928F929F92AF92BF9271
:10577000CF92DF92EF92FF920F931F93CF93DF931D
:10578000CDB7DEB7A8970FB6F894DEBF0FBECDBF7A
:105790000E94110F68EC70E080E090E00E94A30985
:1057A0006091530A7091540A90E080E00E94D64FB5
:1057B000409193100E94FE0D811104C085EE92E08D
:1057C0000E94DF1A84E189A31092E90982EF92E036
:1057D0000E94DF1A0E94D6091B012C0180910C0146
:1057E000882309F4B9C0C090E509D090E609E0909B
:1057F000E709F090E80920E8C20E2CE2D21E20E86A
:10580000E21EF11C8091E1099091E209A091E30967
:10581000B091E409C81AD90AEA0AFB0A89E093E0C0
:105820000E94711DC701B6010E94491A0E94C31946
:105830008E010F5F1F4F3E0135E1630E711C4E015B
:1058400087E1880E911C9E01275E3F4F3CA32BA34E
:10585000CE014B969EA38DA32C5F3F4F38A72FA35D
:105860005E013FE1A30EB11C8091E9098111B2C034
:105870000E94D60962197309840995096C157D0582
:105880008E059F0508F086C00E9439189E012E5D86
:105890003F4F40ED57E0BE016F5D7F4FC8010E9452
:1058A000770C882309F389A18823F1F27F926F9204
:1058B0009F928F928CA18F939BA19F932EA12F9348
:1058C0003DA13F9388A58F939FA19F93BF92AF92D5
:1058D00027E133E03F932F931F930F930E9464556A
:1058E0000FB6F894DEBF0FBECDBF892B09F4BCCF35
:1058F0008F8D98A1813D37E093070CF4B5CF825B83
:105900008093C00B8D8D8093BF0B8B8D8093BE0BCE
:10591000898D8093BC0B8F898093BB0B8D8980937D
:10592000BA0B0E94D71865E070E080E090E00E941A
:10593000A30981E08093E90989E293E00E94711D47
:10594000C8010E94DF1A60913F0B8DEB91E10E942C
:10595000A51E0E94391888CF8091E009833079F420
:10596000A0913E0BB0E0119620E63AEE0E94C352A1
:105970006B017C0160E082E00E94571959CF80E6FC
:10598000C82E8AEED82EE12CF12C52CF8F5F809357
:10599000E00918C080910C0181111CC08091E009C0
:1059A0008330A0F38FE00E94B218823049F40E9445
:1059B000731D82E00E94721961E082E00E94571913
:1059C0001092E00982E493E00E94711D8091E00949
:1059D0000E943D1AA8960FB6F894DEBF0FBECDBF49
:1059E000DF91CF911F910F91FF90EF90DF90CF90BB
:1059F000BF90AF909F908F907F906F905F904F90EF
:105A00003F902F9008952F923F924F925F926F9206
:105A10007F928F929F92AF92BF92CF92DF92EF923E
:105A2000FF920F931F93CF93DF93CDB7DEB76197AC
:105A30000FB6F894DEBF0FBECDBFF82E4090F4092C
:105A4000042D10E00E948A05CE0101960E94FD20DF
:105A50006F2DCE0101960E94BF206EE473E0CE014F
:105A600001960E94D220CE0101960E94F41765E3B0
:105A700072E080E090E00E94A30988E79EE00E9427
:105A8000B8166C01982E24E2429EC0011124FC013C
:105A9000E156F84F7F01B12CA12CA914B0F488E78E
:105AA0009EE00E9489168A3061F08D3051F0F70136
:105AB000EA0DFB1D808368E070E080E090E00E94CA
:105AC000A309FFEFAF1ABF0AE8CF84E2809FF0017D
:105AD000819FF00D1124E156F84F90801695102FFC
